{"contracts/Dealer.sol":{"Dealer":{"abi":[{"inputs":[],"name":"InvalidInitialization","type":"error"},{"inputs":[],"name":"NotInitializing","type":"error"},{"inputs":[{"internalType":"address","name":"owner","type":"address"}],"name":"OwnableInvalidOwner","type":"error"},{"inputs":[{"internalType":"address","name":"account","type":"address"}],"name":"OwnableUnauthorizedAccount","type":"error"},{"anonymous":false,"inputs":[{"indexed":false,"internalType":"uint64","name":"version","type":"uint64"}],"name":"Initialized","type":"event"},{"anonymous":false,"inputs":[{"indexed":false,"internalType":"bool","name":"isRelocked","type":"bool"}],"name":"IsSequencerRelocked","type":"event"},{"anonymous":false,"inputs":[{"indexed":false,"internalType":"uint32","name":"oldValue","type":"uint32"},{"indexed":false,"internalType":"uint32","name":"newValue","type":"uint32"}],"name":"L2GasSet","type":"event"},{"anonymous":false,"inputs":[{"indexed":false,"internalType":"uint256","name":"amount","type":"uint256"}],"name":"L2MetisMinted","type":"event"},{"anonymous":false,"inputs":[{"indexed":true,"internalType":"address","name":"previousOwner","type":"address"},{"indexed":true,"internalType":"address","name":"newOwner","type":"address"}],"name":"OwnershipTransferred","type":"event"},{"anonymous":false,"inputs":[{"indexed":true,"internalType":"uint256","name":"sequencerId","type":"uint256"},{"indexed":false,"internalType":"uint256","name":"reward","type":"uint256"}],"name":"RewardsWithdrawn","type":"event"},{"anonymous":false,"inputs":[{"indexed":false,"internalType":"uint32","name":"index","type":"uint32"},{"indexed":false,"internalType":"address","name":"agent","type":"address"}],"name":"SequencerAgentAdded","type":"event"},{"anonymous":false,"inputs":[{"indexed":true,"internalType":"address","name":"oldValue","type":"address"},{"indexed":true,"internalType":"address","name":"newValue","type":"address"}],"name":"SequencerAgentTemplateSet","type":"event"},{"anonymous":false,"inputs":[{"indexed":true,"internalType":"address","name":"sequencerSigner","type":"address"},{"indexed":false,"internalType":"uint256","name":"amount","type":"uint256"},{"indexed":false,"internalType":"bool","name":"active","type":"bool"}],"name":"SequencerInitialBalanceLocked","type":"event"},{"anonymous":false,"inputs":[{"indexed":false,"internalType":"uint32","name":"index","type":"uint32"},{"indexed":false,"internalType":"uint256","name":"amount","type":"uint256"}],"name":"SequencerRelocked","type":"event"},{"anonymous":false,"inputs":[{"indexed":true,"internalType":"address","name":"sequencerSigner","type":"address"}],"name":"SequencerTerminated","type":"event"},{"anonymous":false,"inputs":[{"indexed":true,"internalType":"address","name":"recipient","type":"address"},{"indexed":false,"internalType":"uint256","name":"amount","type":"uint256"}],"name":"StakingAmountWithdrawn","type":"event"},{"anonymous":false,"inputs":[{"indexed":false,"internalType":"bool","name":"oldValue","type":"bool"},{"indexed":false,"internalType":"bool","name":"newValue","type":"bool"}],"name":"WithdrawRewardsSet","type":"event"},{"inputs":[],"name":"active","outputs":[{"internalType":"bool","name":"","type":"bool"}],"stateMutability":"view","type":"function"},{"inputs":[{"internalType":"uint256","name":"","type":"uint256"}],"name":"activeSequencerIds","outputs":[{"internalType":"uint32","name":"","type":"uint32"}],"stateMutability":"view","type":"function"},{"inputs":[{"internalType":"uint256","name":"_amount","type":"uint256"}],"name":"canStake","outputs":[{"internalType":"bool","name":"","type":"bool"}],"stateMutability":"view","type":"function"},{"inputs":[{"internalType":"uint32","name":"_l2GasLimit","type":"uint32"}],"name":"claimRewards","outputs":[],"stateMutability":"nonpayable","type":"function"},{"inputs":[],"name":"getRewards","outputs":[{"internalType":"uint256","name":"","type":"uint256"}],"stateMutability":"view","type":"function"},{"inputs":[{"internalType":"address","name":"_metis","type":"address"},{"internalType":"address","name":"_lockingPool","type":"address"},{"internalType":"address","name":"_l1Bridge","type":"address"},{"internalType":"uint256","name":"_l2ChainId","type":"uint256"},{"internalType":"uint32","name":"_l2Gas","type":"uint32"},{"internalType":"address","name":"_l2Minter","type":"address"},{"internalType":"address","name":"_l2RewardDispatcher","type":"address"}],"name":"initialize","outputs":[],"stateMutability":"nonpayable","type":"function"},{"inputs":[],"name":"l2ChainId","outputs":[{"internalType":"uint256","name":"","type":"uint256"}],"stateMutability":"view","type":"function"},{"inputs":[],"name":"l2Gas","outputs":[{"internalType":"uint32","name":"","type":"uint32"}],"stateMutability":"view","type":"function"},{"inputs":[],"name":"l2Minter","outputs":[{"internalType":"address","name":"","type":"address"}],"stateMutability":"view","type":"function"},{"inputs":[],"name":"l2RewardDispatcher","outputs":[{"internalType":"address","name":"","type":"address"}],"stateMutability":"view","type":"function"},{"inputs":[{"internalType":"address","name":"_sequencerSigner","type":"address"},{"internalType":"uint256","name":"_amount","type":"uint256"},{"internalType":"bytes","name":"_signerPubKey","type":"bytes"}],"name":"lockFor","outputs":[],"stateMutability":"nonpayable","type":"function"},{"inputs":[],"name":"lockingInfo","outputs":[{"internalType":"contract ILockingInfo","name":"","type":"address"}],"stateMutability":"view","type":"function"},{"inputs":[],"name":"lockingPool","outputs":[{"internalType":"contract ILockingPool","name":"","type":"address"}],"stateMutability":"view","type":"function"},{"inputs":[],"name":"messenger","outputs":[{"internalType":"contract ICrossDomainMessenger","name":"","type":"address"}],"stateMutability":"view","type":"function"},{"inputs":[],"name":"metis","outputs":[{"internalType":"contract IERC20","name":"","type":"address"}],"stateMutability":"view","type":"function"},{"inputs":[],"name":"owner","outputs":[{"internalType":"address","name":"","type":"address"}],"stateMutability":"view","type":"function"},{"inputs":[],"name":"redemptionQueue","outputs":[{"internalType":"address","name":"","type":"address"}],"stateMutability":"view","type":"function"},{"inputs":[{"internalType":"uint256","name":"_lockAmount","type":"uint256"}],"name":"relock","outputs":[],"stateMutability":"nonpayable","type":"function"},{"inputs":[],"name":"renounceOwnership","outputs":[],"stateMutability":"nonpayable","type":"function"},{"inputs":[],"name":"sequencerAgentCount","outputs":[{"internalType":"uint32","name":"","type":"uint32"}],"stateMutability":"view","type":"function"},{"inputs":[],"name":"sequencerAgentTemplate","outputs":[{"internalType":"address","name":"","type":"address"}],"stateMutability":"view","type":"function"},{"inputs":[{"internalType":"uint32","name":"","type":"uint32"}],"name":"sequencerAgents","outputs":[{"internalType":"address","name":"","type":"address"}],"stateMutability":"view","type":"function"},{"inputs":[],"name":"sequencerData","outputs":[{"components":[{"internalType":"uint256","name":"amount","type":"uint256"},{"internalType":"uint256","name":"reward","type":"uint256"},{"internalType":"uint256","name":"activationBatch","type":"uint256"},{"internalType":"uint256","name":"updatedBatch","type":"uint256"},{"internalType":"uint256","name":"deactivationBatch","type":"uint256"},{"internalType":"uint256","name":"deactivationTime","type":"uint256"},{"internalType":"uint256","name":"unlockClaimTime","type":"uint256"},{"internalType":"uint256","name":"nonce","type":"uint256"},{"internalType":"address","name":"owner","type":"address"},{"internalType":"address","name":"signer","type":"address"}],"internalType":"struct ILockingPool.SequencerData","name":"","type":"tuple"}],"stateMutability":"view","type":"function"},{"inputs":[],"name":"sequencerId","outputs":[{"internalType":"uint256","name":"","type":"uint256"}],"stateMutability":"view","type":"function"},{"inputs":[],"name":"sequencerSigner","outputs":[{"internalType":"address","name":"","type":"address"}],"stateMutability":"view","type":"function"},{"inputs":[{"internalType":"bool","name":"_active","type":"bool"}],"name":"setActive","outputs":[],"stateMutability":"nonpayable","type":"function"},{"inputs":[{"internalType":"uint32","name":"_l2Gas","type":"uint32"}],"name":"setL2Gas","outputs":[],"stateMutability":"nonpayable","type":"function"},{"inputs":[{"internalType":"address","name":"_l2MinterAddress","type":"address"}],"name":"setL2Minter","outputs":[],"stateMutability":"nonpayable","type":"function"},{"inputs":[{"internalType":"address","name":"_l2RewardDispatcher","type":"address"}],"name":"setL2RewardDispatcher","outputs":[],"stateMutability":"nonpayable","type":"function"},{"inputs":[{"internalType":"address","name":"_redemptionQueue","type":"address"}],"name":"setRedemptionQueue","outputs":[],"stateMutability":"nonpayable","type":"function"},{"inputs":[],"name":"stakingAmount","outputs":[{"internalType":"uint256","name":"","type":"uint256"}],"stateMutability":"view","type":"function"},{"inputs":[],"name":"sumRewards","outputs":[{"internalType":"uint256","name":"","type":"uint256"}],"stateMutability":"view","type":"function"},{"inputs":[],"name":"totalLocked","outputs":[{"internalType":"uint256","name":"","type":"uint256"}],"stateMutability":"view","type":"function"},{"inputs":[{"internalType":"address","name":"newOwner","type":"address"}],"name":"transferOwnership","outputs":[],"stateMutability":"nonpayable","type":"function"},{"inputs":[],"name":"unlock","outputs":[],"stateMutability":"payable","type":"function"},{"inputs":[],"name":"unlockClaim","outputs":[],"stateMutability":"payable","type":"function"},{"inputs":[],"name":"withdrawRewards","outputs":[{"internalType":"bool","name":"","type":"bool"}],"stateMutability":"view","type":"function"},{"inputs":[{"internalType":"uint256","name":"amount","type":"uint256"}],"name":"withdrawStakingAmount","outputs":[],"stateMutability":"payable","type":"function"}],"devdoc":{"errors":{"InvalidInitialization()":[{"details":"The contract is already initialized."}],"NotInitializing()":[{"details":"The contract is not initializing."}],"OwnableInvalidOwner(address)":[{"details":"The owner is not a valid owner account. (eg. `address(0)`)"}],"OwnableUnauthorizedAccount(address)":[{"details":"The caller account is not authorized to perform an operation."}]},"events":{"Initialized(uint64)":{"details":"Triggered when the contract has been initialized or reinitialized."},"IsSequencerRelocked(bool)":{"params":{"isRelocked":"The status of the sequencer."}},"L2GasSet(uint32,uint32)":{"params":{"oldValue":"The old L2 gas limit.        "}},"L2MetisMinted(uint256)":{"params":{"amount":"The amount of Metis tokens that have been minted."}},"RewardsWithdrawn(uint256,uint256)":{"params":{"reward":"The amount of rewards that have been withdrawn.","sequencerId":"The ID of the sequencer."}},"SequencerAgentAdded(uint32,address)":{"params":{"agent":"address of the agent","index":"index of the agent"}},"SequencerAgentTemplateSet(address,address)":{"params":{"newValue":"The address of the new sequencer agent template.","oldValue":"The address of the old sequencer agent template."}},"SequencerInitialBalanceLocked(address,uint256,bool)":{"params":{"active":"The status of the sequencer.","amount":"The amount of Metis tokens that have been locked.","sequencerSigner":"The address of the sequencer signer."}},"SequencerRelocked(uint32,uint256)":{"params":{"amount":"The amount of Metis tokens that have been added to the lock.","index":"The index of the sequencer agent in the sequencer list."}},"SequencerTerminated(address)":{"params":{"sequencerSigner":"The address of the sequencer signer."}},"StakingAmountWithdrawn(address,uint256)":{"params":{"amount":"The amount of Metis tokens that have been deposited.","recipient":"The recipient of the  Metis token on  L2 (redemptionQueue)."}},"WithdrawRewardsSet(bool,bool)":{"params":{"newValue":"The new withdrawRewards.","oldValue":"The old withdrawRewards."}}},"kind":"dev","methods":{"claimRewards(uint32)":{"params":{"_l2GasLimit":"The L2 gas limit for the withdrawal."}},"lockFor(address,uint256,bytes)":{"params":{"_amount":"The amount of Metis tokens to lock.","_sequencerSigner":"The address of the sequencer signer.","_signerPubKey":"The public key of the sequencer signer."}},"owner()":{"details":"Returns the address of the current owner."},"renounceOwnership()":{"details":"Leaves the contract without owner. It will not be possible to call `onlyOwner` functions. Can only be called by the current owner. NOTE: Renouncing ownership will leave the contract without an owner, thereby disabling any functionality that is only available to the owner."},"setL2Gas(uint32)":{"details":"The L2 gas limit is used when minting eMetis tokens on Layer 2.","params":{"_l2Gas":"The new L2 gas limit."}},"transferOwnership(address)":{"details":"Transfers ownership of the contract to a new account (`newOwner`). Can only be called by the current owner."},"withdrawStakingAmount(uint256)":{"params":{"amount":"The amount of Metis tokens to withdraw."}}},"title":"Dealer","version":1},"evm":{"bytecode":{"linkReferences":{},"object":"608060405234801561001057600080fd5b50613a84806100206000396000f3fe6080604052600436106102255760003560e01c806385d1e2b811610123578063b699ce5f116100ab578063e92d61e51161006f578063e92d61e514610797578063f2fde38b146107c2578063f7cee36a146107eb578063f87b7a3e14610816578063feafaa6b1461083f57610225565b8063b699ce5f146106c2578063c3b550c8146106eb578063c7b8981c14610716578063d6ae3cd514610741578063e59745541461076c57610225565b80639e935704116100f25780639e93570414610612578063a69df4b51461063d578063a98d38f014610647578063acec338a14610670578063af70cba51461069957610225565b806385d1e2b8146105665780638da5cb5b146105915780638db8ad88146105bc57806397ec19be146105e757610225565b80633cbb6979116101b15780636f47999b116101755780636f47999b146104a5578063715018a6146104ce578063739a3e02146104e557806376d9f95c146105105780637ca4f8b01461053b57610225565b80633cbb6979146103ac57806343c82cf7146103d7578063457cb58614610400578063539066531461043d578063568914121461047a57610225565b8063080e1e4e116101f8578063080e1e4e146102c75780631abdaf6a146102f257806333bec7e71461032f5780633b4c46d0146103585780633cb747bf1461038157610225565b80630182a6da1461022a57806302fb0c5e1461024657806304a78fca146102715780630572b0cc1461029c575b600080fd5b610244600480360381019061023f91906128ff565b610849565b005b34801561025257600080fd5b5061025b610dee565b6040516102689190612947565b60405180910390f35b34801561027d57600080fd5b50610286610e01565b6040516102939190612971565b60405180910390f35b3480156102a857600080fd5b506102b1610e07565b6040516102be9190612971565b60405180910390f35b3480156102d357600080fd5b506102dc610e16565b6040516102e991906129cd565b60405180910390f35b3480156102fe57600080fd5b50610319600480360381019061031491906128ff565b610e3c565b6040516103269190612a07565b60405180910390f35b34801561033b57600080fd5b5061035660048036038101906103519190612a4e565b610e76565b005b34801561036457600080fd5b5061037f600480360381019061037a9190612aa7565b610ef3565b005b34801561038d57600080fd5b50610396610f3f565b6040516103a39190612b33565b60405180910390f35b3480156103b857600080fd5b506103c1610f65565b6040516103ce9190612a07565b60405180910390f35b3480156103e357600080fd5b506103fe60048036038101906103f99190612aa7565b610f7b565b005b34801561040c57600080fd5b5061042760048036038101906104229190612a4e565b610fc7565b60405161043491906129cd565b60405180910390f35b34801561044957600080fd5b50610464600480360381019061045f91906128ff565b610ffa565b6040516104719190612947565b60405180910390f35b34801561048657600080fd5b5061048f6110bd565b60405161049c9190612971565b60405180910390f35b3480156104b157600080fd5b506104cc60048036038101906104c79190612a4e565b6110d0565b005b3480156104da57600080fd5b506104e36111b3565b005b3480156104f157600080fd5b506104fa6111c7565b6040516105079190612971565b60405180910390f35b34801561051c57600080fd5b506105256111ea565b6040516105329190612c38565b60405180910390f35b34801561054757600080fd5b50610550611296565b60405161055d9190612971565b60405180910390f35b34801561057257600080fd5b5061057b61129c565b6040516105889190612c75565b60405180910390f35b34801561059d57600080fd5b506105a66112c2565b6040516105b391906129cd565b60405180910390f35b3480156105c857600080fd5b506105d16112fa565b6040516105de91906129cd565b60405180910390f35b3480156105f357600080fd5b506105fc61131e565b60405161060991906129cd565b60405180910390f35b34801561061e57600080fd5b50610627611344565b6040516106349190612a07565b60405180910390f35b61064561135a565b005b34801561065357600080fd5b5061066e600480360381019061066991906128ff565b611508565b005b34801561067c57600080fd5b5061069760048036038101906106929190612cbc565b611779565b005b3480156106a557600080fd5b506106c060048036038101906106bb9190612e2f565b61179e565b005b3480156106ce57600080fd5b506106e960048036038101906106e49190612e9e565b611c28565b005b3480156106f757600080fd5b506107006121bd565b60405161070d91906129cd565b60405180910390f35b34801561072257600080fd5b5061072b6121e3565b6040516107389190612947565b60405180910390f35b34801561074d57600080fd5b506107566121f6565b6040516107639190612971565b60405180910390f35b34801561077857600080fd5b506107816121fc565b60405161078e9190612f61565b60405180910390f35b3480156107a357600080fd5b506107ac612222565b6040516107b991906129cd565b60405180910390f35b3480156107ce57600080fd5b506107e960048036038101906107e49190612aa7565b612248565b005b3480156107f757600080fd5b506108006122ce565b60405161080d9190612f9d565b60405180910390f35b34801561082257600080fd5b5061083d60048036038101906108389190612aa7565b6122f4565b005b610847612340565b005b6108516123ee565b60008111610894576040517f08c379a000000000000000000000000000000000000000000000000000000000815260040161088b90613015565b60405180910390fd5b80600360009054906101000a900473ffffffffffffffffffffffffffffffffffffffff1673ffffffffffffffffffffffffffffffffffffffff1663f037c6306040518163ffffffff1660e01b8152600401602060405180830381865afa158015610902573d6000803e3d6000fd5b505050506040513d601f19601f82011682018060405250810190610926919061304a565b61093091906130a6565b610938612475565b1015610979576040517f08c379a000000000000000000000000000000000000000000000000000000000815260040161097090613126565b60405180910390fd5b600260009054906101000a900473ffffffffffffffffffffffffffffffffffffffff1673ffffffffffffffffffffffffffffffffffffffff1663441a3e70600d54836040518363ffffffff1660e01b81526004016109d8929190613146565b600060405180830381600087803b1580156109f257600080fd5b505af1158015610a06573d6000803e3d6000fd5b505050506000600360009054906101000a900473ffffffffffffffffffffffffffffffffffffffff1673ffffffffffffffffffffffffffffffffffffffff1663e78cea926040518163ffffffff1660e01b8152600401602060405180830381865afa158015610a79573d6000803e3d6000fd5b505050506040513d601f19601f82011682018060405250810190610a9d9190613184565b9050600360009054906101000a900473ffffffffffffffffffffffffffffffffffffffff1673ffffffffffffffffffffffffffffffffffffffff1663c01e1bd66040518163ffffffff1660e01b8152600401602060405180830381865afa158015610b0c573d6000803e3d6000fd5b505050506040513d601f19601f82011682018060405250810190610b309190613184565b73ffffffffffffffffffffffffffffffffffffffff1663095ea7b382846040518363ffffffff1660e01b8152600401610b6a9291906131b1565b6020604051808303816000875af1158015610b89573d6000803e3d6000fd5b505050506040513d601f19601f82011682018060405250810190610bad91906131ef565b508073ffffffffffffffffffffffffffffffffffffffff1663ef808be234600554600360009054906101000a900473ffffffffffffffffffffffffffffffffffffffff1673ffffffffffffffffffffffffffffffffffffffff1663c01e1bd66040518163ffffffff1660e01b8152600401602060405180830381865afa158015610c3b573d6000803e3d6000fd5b505050506040513d601f19601f82011682018060405250810190610c5f9190613184565b600360009054906101000a900473ffffffffffffffffffffffffffffffffffffffff1673ffffffffffffffffffffffffffffffffffffffff166356eff2676040518163ffffffff1660e01b8152600401602060405180830381865afa158015610ccc573d6000803e3d6000fd5b505050506040513d601f19601f82011682018060405250810190610cf09190613184565b600f60009054906101000a900473ffffffffffffffffffffffffffffffffffffffff1688600c60009054906101000a900463ffffffff166040518863ffffffff1660e01b8152600401610d4896959493929190613253565b6000604051808303818588803b158015610d6157600080fd5b505af1158015610d75573d6000803e3d6000fd5b5050505050600f60009054906101000a900473ffffffffffffffffffffffffffffffffffffffff1673ffffffffffffffffffffffffffffffffffffffff167f6ef7a26d50cec3f1a210bed887413d426c9c13575a17872c54e00c4287ac5dce83604051610de29190612971565b60405180910390a25050565b600e60149054906101000a900460ff1681565b600d5481565b6000610e1161248d565b905090565b600660009054906101000a900473ffffffffffffffffffffffffffffffffffffffff1681565b600a8181548110610e4c57600080fd5b9060005260206000209060089182820401919006600402915054906101000a900463ffffffff1681565b610e7e6123ee565b6000600c60009054906101000a900463ffffffff16905081600c60006101000a81548163ffffffff021916908363ffffffff1602179055507f4042b09a75e5a67c8cc2a57e00de6d29fb5202b7207afba895eb8b5cc3e2179e8183604051610ee79291906132c7565b60405180910390a15050565b610efb6123ee565b80600f60006101000a81548173ffffffffffffffffffffffffffffffffffffffff021916908373ffffffffffffffffffffffffffffffffffffffff16021790555050565b600460009054906101000a900473ffffffffffffffffffffffffffffffffffffffff1681565b600c60009054906101000a900463ffffffff1681565b610f836123ee565b80600760006101000a81548173ffffffffffffffffffffffffffffffffffffffff021916908373ffffffffffffffffffffffffffffffffffffffff16021790555050565b60086020528060005260406000206000915054906101000a900473ffffffffffffffffffffffffffffffffffffffff1681565b60006011600d540361100f57600190506110b8565b600360009054906101000a900473ffffffffffffffffffffffffffffffffffffffff1673ffffffffffffffffffffffffffffffffffffffff16636c0b3e466040518163ffffffff1660e01b8152600401602060405180830381865afa15801561107c573d6000803e3d6000fd5b505050506040513d601f19601f820116820180604052508101906110a0919061304a565b6110a8612475565b836110b391906130a6565b111590505b919050565b60006110c76111ea565b60000151905090565b6110d86123ee565b60006110e261248d565b9050600260009054906101000a900473ffffffffffffffffffffffffffffffffffffffff1673ffffffffffffffffffffffffffffffffffffffff166317396687600d54846040518363ffffffff1660e01b81526004016111439291906132f0565b600060405180830381600087803b15801561115d57600080fd5b505af1158015611171573d6000803e3d6000fd5b50505050600d547f630af8b49bb398089a74eacdb08106c528436090bdb35d7302152dc5117df9bd826040516111a79190612971565b60405180910390a25050565b6111bb6123ee565b6111c560006124a5565b565b60006011600d54146111dc57600090506111e7565b6111e4612475565b90505b90565b6111f2612836565b600260009054906101000a900473ffffffffffffffffffffffffffffffffffffffff1673ffffffffffffffffffffffffffffffffffffffff16636ba7ccff600d546040518263ffffffff1660e01b815260040161124f9190612971565b61014060405180830381865afa15801561126d573d6000803e3d6000fd5b505050506040513d601f19601f820116820180604052508101906112919190613414565b905090565b600b5481565b600260009054906101000a900473ffffffffffffffffffffffffffffffffffffffff1681565b6000806112cd61257c565b90508060000160009054906101000a900473ffffffffffffffffffffffffffffffffffffffff1691505090565b60008054906101000a900473ffffffffffffffffffffffffffffffffffffffff1681565b600f60009054906101000a900473ffffffffffffffffffffffffffffffffffffffff1681565b600960009054906101000a900463ffffffff1681565b6113626123ee565b600061136c6111ea565b90503373ffffffffffffffffffffffffffffffffffffffff1681610100015173ffffffffffffffffffffffffffffffffffffffff16146113e1576040517f08c379a00000000000000000000000000000000000000000000000000000000081526004016113d89061348e565b60405180910390fd5b600260009054906101000a900473ffffffffffffffffffffffffffffffffffffffff1673ffffffffffffffffffffffffffffffffffffffff1663262c0e6634600d54600c60009054906101000a900463ffffffff166040518463ffffffff1660e01b81526004016114539291906132f0565b6000604051808303818588803b15801561146c57600080fd5b505af1158015611480573d6000803e3d6000fd5b50505050506000600e60146101000a81548160ff021916908315150217905550600e60009054906101000a900473ffffffffffffffffffffffffffffffffffffffff1673ffffffffffffffffffffffffffffffffffffffff167fbac99876b6a1c26412460d61d913235a30f0ea99585ffcfd53c0faae6ed3313460405160405180910390a250565b6115106123ee565b600e60149054906101000a900460ff1661155f576040517f08c379a0000000000000000000000000000000000000000000000000000000008152600401611556906134fa565b60405180910390fd5b61156881610ffa565b6115a7576040517f08c379a000000000000000000000000000000000000000000000000000000000815260040161159e90613566565b60405180910390fd5b600160009054906101000a900473ffffffffffffffffffffffffffffffffffffffff1673ffffffffffffffffffffffffffffffffffffffff1663095ea7b3600360009054906101000a900473ffffffffffffffffffffffffffffffffffffffff16836040518363ffffffff1660e01b81526004016116269291906131b1565b6020604051808303816000875af1158015611645573d6000803e3d6000fd5b505050506040513d601f19601f8201168201806040525081019061166991906131ef565b6116a8576040517f08c379a000000000000000000000000000000000000000000000000000000000815260040161169f906135f8565b60405180910390fd5b600260009054906101000a900473ffffffffffffffffffffffffffffffffffffffff1673ffffffffffffffffffffffffffffffffffffffff1663015bb180600d548360006040518463ffffffff1660e01b815260040161170a93929190613618565b600060405180830381600087803b15801561172457600080fd5b505af1158015611738573d6000803e3d6000fd5b505050507fd076af75b138b908e5017400dafa33e08e4f5cd3d63e0a8c900b274734ae59da60008260405161176e92919061368a565b60405180910390a150565b6117816123ee565b80600e60146101000a81548160ff02191690831515021790555050565b6117a66123ee565b6000600160009054906101000a900473ffffffffffffffffffffffffffffffffffffffff1673ffffffffffffffffffffffffffffffffffffffff166370a08231306040518263ffffffff1660e01b815260040161180391906129cd565b602060405180830381865afa158015611820573d6000803e3d6000fd5b505050506040513d601f19601f82011682018060405250810190611844919061304a565b905082811015611889576040517f08c379a000000000000000000000000000000000000000000000000000000000815260040161188090613725565b60405180910390fd5b83600e60006101000a81548173ffffffffffffffffffffffffffffffffffffffff021916908373ffffffffffffffffffffffffffffffffffffffff160217905550600160009054906101000a900473ffffffffffffffffffffffffffffffffffffffff1673ffffffffffffffffffffffffffffffffffffffff1663095ea7b3600360009054906101000a900473ffffffffffffffffffffffffffffffffffffffff167fffffffffffffffffffffffffffffffffffffffffffffffffffffffffffffffff6040518363ffffffff1660e01b81526004016119699291906131b1565b6020604051808303816000875af1158015611988573d6000803e3d6000fd5b505050506040513d601f19601f820116820180604052508101906119ac91906131ef565b6119eb576040517f08c379a00000000000000000000000000000000000000000000000000000000081526004016119e2906135f8565b60405180910390fd5b600260009054906101000a900473ffffffffffffffffffffffffffffffffffffffff1673ffffffffffffffffffffffffffffffffffffffff16639ad42030600e60009054906101000a900473ffffffffffffffffffffffffffffffffffffffff16600660009054906101000a900473ffffffffffffffffffffffffffffffffffffffff1686866040518563ffffffff1660e01b8152600401611a9094939291906137b3565b600060405180830381600087803b158015611aaa57600080fd5b505af1158015611abe573d6000803e3d6000fd5b50505050600260009054906101000a900473ffffffffffffffffffffffffffffffffffffffff1673ffffffffffffffffffffffffffffffffffffffff1663beb26755600e60009054906101000a900473ffffffffffffffffffffffffffffffffffffffff166040518263ffffffff1660e01b8152600401611b3f91906129cd565b602060405180830381865afa158015611b5c573d6000803e3d6000fd5b505050506040513d601f19601f82011682018060405250810190611b80919061304a565b600d819055506001600e60146101000a81548160ff021916908315150217905550600e60009054906101000a900473ffffffffffffffffffffffffffffffffffffffff1673ffffffffffffffffffffffffffffffffffffffff167fb1e87a33084279cb2bff2d1271034cf695f539ee73bbd934d1625703d585d84a84600e60149054906101000a900460ff16604051611c1a9291906137ff565b60405180910390a250505050565b6000611c326125a4565b905060008160000160089054906101000a900460ff1615905060008260000160009054906101000a900467ffffffffffffffff1690506000808267ffffffffffffffff16148015611c805750825b9050600060018367ffffffffffffffff16148015611cb5575060003073ffffffffffffffffffffffffffffffffffffffff163b145b905081158015611cc3575080155b15611cfa576040517ff92ee8a900000000000000000000000000000000000000000000000000000000815260040160405180910390fd5b60018560000160006101000a81548167ffffffffffffffff021916908367ffffffffffffffff1602179055508315611d4a5760018560000160086101000a81548160ff0219169083151502179055505b600073ffffffffffffffffffffffffffffffffffffffff168c73ffffffffffffffffffffffffffffffffffffffff1614158015611db45750600073ffffffffffffffffffffffffffffffffffffffff168b73ffffffffffffffffffffffffffffffffffffffff1614155b8015611ded5750600073ffffffffffffffffffffffffffffffffffffffff168a73ffffffffffffffffffffffffffffffffffffffff1614155b8015611e265750600073ffffffffffffffffffffffffffffffffffffffff168773ffffffffffffffffffffffffffffffffffffffff1614155b8015611e5f5750600073ffffffffffffffffffffffffffffffffffffffff168673ffffffffffffffffffffffffffffffffffffffff1614155b611e9e576040517f08c379a0000000000000000000000000000000000000000000000000000000008152600401611e9590613874565b60405180910390fd5b611ea7336125cc565b8b600160006101000a81548173ffffffffffffffffffffffffffffffffffffffff021916908373ffffffffffffffffffffffffffffffffffffffff1602179055508a600260006101000a81548173ffffffffffffffffffffffffffffffffffffffff021916908373ffffffffffffffffffffffffffffffffffffffff160217905550600260009054906101000a900473ffffffffffffffffffffffffffffffffffffffff1673ffffffffffffffffffffffffffffffffffffffff1663e2fdcc176040518163ffffffff1660e01b8152600401602060405180830381865afa158015611f96573d6000803e3d6000fd5b505050506040513d601f19601f82011682018060405250810190611fba91906138d2565b600360006101000a81548173ffffffffffffffffffffffffffffffffffffffff021916908373ffffffffffffffffffffffffffffffffffffffff1602179055508973ffffffffffffffffffffffffffffffffffffffff16633cb747bf6040518163ffffffff1660e01b8152600401602060405180830381865afa158015612045573d6000803e3d6000fd5b505050506040513d601f19601f820116820180604052508101906120699190613184565b600460006101000a81548173ffffffffffffffffffffffffffffffffffffffff021916908373ffffffffffffffffffffffffffffffffffffffff1602179055508860058190555087600c60006101000a81548163ffffffff021916908363ffffffff16021790555086600660006101000a81548173ffffffffffffffffffffffffffffffffffffffff021916908373ffffffffffffffffffffffffffffffffffffffff16021790555085600760006101000a81548173ffffffffffffffffffffffffffffffffffffffff021916908373ffffffffffffffffffffffffffffffffffffffff16021790555083156121af5760008560000160086101000a81548160ff0219169083151502179055507fc7f505b2f371ae2175ee4913f4499e1f2633a7b5936321eed1cdaeb6115181d260016040516121a6919061394e565b60405180910390a15b505050505050505050505050565b600e60009054906101000a900473ffffffffffffffffffffffffffffffffffffffff1681565b600c60049054906101000a900460ff1681565b60055481565b600160009054906101000a900473ffffffffffffffffffffffffffffffffffffffff1681565b600760009054906101000a900473ffffffffffffffffffffffffffffffffffffffff1681565b6122506123ee565b600073ffffffffffffffffffffffffffffffffffffffff168173ffffffffffffffffffffffffffffffffffffffff16036122c25760006040517f1e4fbdf70000000000000000000000000000000000000000000000000000000081526004016122b991906129cd565b60405180910390fd5b6122cb816124a5565b50565b600360009054906101000a900473ffffffffffffffffffffffffffffffffffffffff1681565b6122fc6123ee565b80600660006101000a81548173ffffffffffffffffffffffffffffffffffffffff021916908373ffffffffffffffffffffffffffffffffffffffff16021790555050565b6123486123ee565b600260009054906101000a900473ffffffffffffffffffffffffffffffffffffffff1673ffffffffffffffffffffffffffffffffffffffff16638ddc74de34600d54600c60009054906101000a900463ffffffff166040518463ffffffff1660e01b81526004016123ba9291906132f0565b6000604051808303818588803b1580156123d357600080fd5b505af11580156123e7573d6000803e3d6000fd5b5050505050565b6123f66125e0565b73ffffffffffffffffffffffffffffffffffffffff166124146112c2565b73ffffffffffffffffffffffffffffffffffffffff1614612473576124376125e0565b6040517f118cdaa700000000000000000000000000000000000000000000000000000000815260040161246a91906129cd565b60405180910390fd5b565b6000806124806125e8565b9050602081015191505090565b6000806124986125e8565b9050604081015191505090565b60006124af61257c565b905060008160000160009054906101000a900473ffffffffffffffffffffffffffffffffffffffff169050828260000160006101000a81548173ffffffffffffffffffffffffffffffffffffffff021916908373ffffffffffffffffffffffffffffffffffffffff1602179055508273ffffffffffffffffffffffffffffffffffffffff168173ffffffffffffffffffffffffffffffffffffffff167f8be0079c531659141344cd1fd0a4f28419497f9722a3daafe3b4186f6b6457e060405160405180910390a3505050565b60007f9016d09d72d40fdae2fd8ceac6b6234c7706214fd39c1cd1e609a0528c199300905090565b60007ff0c57e16840df040f15088dc2f81fe391c3923bec73e23a9662efc9c229c6a00905090565b6125d4612750565b6125dd81612790565b50565b600033905090565b6060600080600260009054906101000a900473ffffffffffffffffffffffffffffffffffffffff1673ffffffffffffffffffffffffffffffffffffffff16600d546040516024016126399190612971565b6040516020818303038152906040527f6ba7ccff000000000000000000000000000000000000000000000000000000007bffffffffffffffffffffffffffffffffffffffffffffffffffffffff19166020820180517bffffffffffffffffffffffffffffffffffffffffffffffffffffffff83818316178352505050506040516126c391906139a5565b600060405180830381855afa9150503d80600081146126fe576040519150601f19603f3d011682016040523d82523d6000602084013e612703565b606091505b509150915081612748576040517f08c379a000000000000000000000000000000000000000000000000000000000815260040161273f90613a2e565b60405180910390fd5b809250505090565b612758612816565b61278e576040517fd7e6bcf800000000000000000000000000000000000000000000000000000000815260040160405180910390fd5b565b612798612750565b600073ffffffffffffffffffffffffffffffffffffffff168173ffffffffffffffffffffffffffffffffffffffff160361280a5760006040517f1e4fbdf700000000000000000000000000000000000000000000000000000000815260040161280191906129cd565b60405180910390fd5b612813816124a5565b50565b60006128206125a4565b60000160089054906101000a900460ff16905090565b6040518061014001604052806000815260200160008152602001600081526020016000815260200160008152602001600081526020016000815260200160008152602001600073ffffffffffffffffffffffffffffffffffffffff168152602001600073ffffffffffffffffffffffffffffffffffffffff1681525090565b6000604051905090565b600080fd5b600080fd5b6000819050919050565b6128dc816128c9565b81146128e757600080fd5b50565b6000813590506128f9816128d3565b92915050565b600060208284031215612915576129146128bf565b5b6000612923848285016128ea565b91505092915050565b60008115159050919050565b6129418161292c565b82525050565b600060208201905061295c6000830184612938565b92915050565b61296b816128c9565b82525050565b60006020820190506129866000830184612962565b92915050565b600073ffffffffffffffffffffffffffffffffffffffff82169050919050565b60006129b78261298c565b9050919050565b6129c7816129ac565b82525050565b60006020820190506129e260008301846129be565b92915050565b600063ffffffff82169050919050565b612a01816129e8565b82525050565b6000602082019050612a1c60008301846129f8565b92915050565b612a2b816129e8565b8114612a3657600080fd5b50565b600081359050612a4881612a22565b92915050565b600060208284031215612a6457612a636128bf565b5b6000612a7284828501612a39565b91505092915050565b612a84816129ac565b8114612a8f57600080fd5b50565b600081359050612aa181612a7b565b92915050565b600060208284031215612abd57612abc6128bf565b5b6000612acb84828501612a92565b91505092915050565b6000819050919050565b6000612af9612af4612aef8461298c565b612ad4565b61298c565b9050919050565b6000612b0b82612ade565b9050919050565b6000612b1d82612b00565b9050919050565b612b2d81612b12565b82525050565b6000602082019050612b486000830184612b24565b92915050565b612b57816128c9565b82525050565b612b66816129ac565b82525050565b61014082016000820151612b836000850182612b4e565b506020820151612b966020850182612b4e565b506040820151612ba96040850182612b4e565b506060820151612bbc6060850182612b4e565b506080820151612bcf6080850182612b4e565b5060a0820151612be260a0850182612b4e565b5060c0820151612bf560c0850182612b4e565b5060e0820151612c0860e0850182612b4e565b50610100820151612c1d610100850182612b5d565b50610120820151612c32610120850182612b5d565b50505050565b600061014082019050612c4e6000830184612b6c565b92915050565b6000612c5f82612b00565b9050919050565b612c6f81612c54565b82525050565b6000602082019050612c8a6000830184612c66565b92915050565b612c998161292c565b8114612ca457600080fd5b50565b600081359050612cb681612c90565b92915050565b600060208284031215612cd257612cd16128bf565b5b6000612ce084828501612ca7565b91505092915050565b600080fd5b600080fd5b6000601f19601f8301169050919050565b7f4e487b7100000000000000000000000000000000000000000000000000000000600052604160045260246000fd5b612d3c82612cf3565b810181811067ffffffffffffffff82111715612d5b57612d5a612d04565b5b80604052505050565b6000612d6e6128b5565b9050612d7a8282612d33565b919050565b600067ffffffffffffffff821115612d9a57612d99612d04565b5b612da382612cf3565b9050602081019050919050565b82818337600083830152505050565b6000612dd2612dcd84612d7f565b612d64565b905082815260208101848484011115612dee57612ded612cee565b5b612df9848285612db0565b509392505050565b600082601f830112612e1657612e15612ce9565b5b8135612e26848260208601612dbf565b91505092915050565b600080600060608486031215612e4857612e476128bf565b5b6000612e5686828701612a92565b9350506020612e67868287016128ea565b925050604084013567ffffffffffffffff811115612e8857612e876128c4565b5b612e9486828701612e01565b9150509250925092565b600080600080600080600060e0888a031215612ebd57612ebc6128bf565b5b6000612ecb8a828b01612a92565b9750506020612edc8a828b01612a92565b9650506040612eed8a828b01612a92565b9550506060612efe8a828b016128ea565b9450506080612f0f8a828b01612a39565b93505060a0612f208a828b01612a92565b92505060c0612f318a828b01612a92565b91505092959891949750929550565b6000612f4b82612b00565b9050919050565b612f5b81612f40565b82525050565b6000602082019050612f766000830184612f52565b92915050565b6000612f8782612b00565b9050919050565b612f9781612f7c565b82525050565b6000602082019050612fb26000830184612f8e565b92915050565b600082825260208201905092915050565b7f5374616b696e67506f6f6c3a20696e76616c696420616d6f756e740000000000600082015250565b6000612fff601b83612fb8565b915061300a82612fc9565b602082019050919050565b6000602082019050818103600083015261302e81612ff2565b9050919050565b600081519050613044816128d3565b92915050565b6000602082840312156130605761305f6128bf565b5b600061306e84828501613035565b91505092915050565b7f4e487b7100000000000000000000000000000000000000000000000000000000600052601160045260246000fd5b60006130b1826128c9565b91506130bc836128c9565b92508282019050808211156130d4576130d3613077565b5b92915050565b7f5374616b696e67506f6f6c3a20657863656564206d696e206c6f636b00000000600082015250565b6000613110601c83612fb8565b915061311b826130da565b602082019050919050565b6000602082019050818103600083015261313f81613103565b9050919050565b600060408201905061315b6000830185612962565b6131686020830184612962565b9392505050565b60008151905061317e81612a7b565b92915050565b60006020828403121561319a576131996128bf565b5b60006131a88482850161316f565b91505092915050565b60006040820190506131c660008301856129be565b6131d36020830184612962565b9392505050565b6000815190506131e981612c90565b92915050565b600060208284031215613205576132046128bf565b5b6000613213848285016131da565b91505092915050565b600082825260208201905092915050565b50565b600061323d60008361321c565b91506132488261322d565b600082019050919050565b600060e0820190506132686000830189612962565b61327560208301886129be565b61328260408301876129be565b61328f60608301866129be565b61329c6080830185612962565b6132a960a08301846129f8565b81810360c08301526132ba81613230565b9050979650505050505050565b60006040820190506132dc60008301856129f8565b6132e960208301846129f8565b9392505050565b60006040820190506133056000830185612962565b61331260208301846129f8565b9392505050565b600080fd5b6000610140828403121561333557613334613319565b5b613340610140612d64565b9050600061335084828501613035565b600083015250602061336484828501613035565b602083015250604061337884828501613035565b604083015250606061338c84828501613035565b60608301525060806133a084828501613035565b60808301525060a06133b484828501613035565b60a08301525060c06133c884828501613035565b60c08301525060e06133dc84828501613035565b60e0830152506101006133f18482850161316f565b610100830152506101206134078482850161316f565b6101208301525092915050565b6000610140828403121561342b5761342a6128bf565b5b60006134398482850161331e565b91505092915050565b7f4465616c65723a2063616c6c6572206973206e6f7420746865206f776e657200600082015250565b6000613478601f83612fb8565b915061348382613442565b602082019050919050565b600060208201905081810360008301526134a78161346b565b9050919050565b7f4465616c65723a206e6f206163746976652073657175656e6365720000000000600082015250565b60006134e4601b83612fb8565b91506134ef826134ae565b602082019050919050565b60006020820190508181036000830152613513816134d7565b9050919050565b7f5374616b696e67506f6f6c3a20657863656564206d6178206c6f636b00000000600082015250565b6000613550601c83612fb8565b915061355b8261351a565b602082019050919050565b6000602082019050818103600083015261357f81613543565b9050919050565b7f4465616c65723a20417070726f76616c20746f204c6f636b696e67496e666f2060008201527f6661696c65640000000000000000000000000000000000000000000000000000602082015250565b60006135e2602683612fb8565b91506135ed82613586565b604082019050919050565b60006020820190508181036000830152613611816135d5565b9050919050565b600060608201905061362d6000830186612962565b61363a6020830185612962565b6136476040830184612938565b949350505050565b6000819050919050565b600061367461366f61366a8461364f565b612ad4565b6129e8565b9050919050565b61368481613659565b82525050565b600060408201905061369f600083018561367b565b6136ac6020830184612962565b9392505050565b7f4465616c65723a20496e73756666696369656e74204d657469732062616c616e60008201527f6365000000000000000000000000000000000000000000000000000000000000602082015250565b600061370f602283612fb8565b915061371a826136b3565b604082019050919050565b6000602082019050818103600083015261373e81613702565b9050919050565b600081519050919050565b60005b8381101561376e578082015181840152602081019050613753565b60008484015250505050565b600061378582613745565b61378f818561321c565b935061379f818560208601613750565b6137a881612cf3565b840191505092915050565b60006080820190506137c860008301876129be565b6137d560208301866129be565b6137e26040830185612962565b81810360608301526137f4818461377a565b905095945050505050565b60006040820190506138146000830185612962565b6138216020830184612938565b9392505050565b7f4465616c65723a207a65726f2061646472657373000000000000000000000000600082015250565b600061385e601483612fb8565b915061386982613828565b602082019050919050565b6000602082019050818103600083015261388d81613851565b9050919050565b600061389f826129ac565b9050919050565b6138af81613894565b81146138ba57600080fd5b50565b6000815190506138cc816138a6565b92915050565b6000602082840312156138e8576138e76128bf565b5b60006138f6848285016138bd565b91505092915050565b6000819050919050565b600067ffffffffffffffff82169050919050565b600061393861393361392e846138ff565b612ad4565b613909565b9050919050565b6139488161391d565b82525050565b6000602082019050613963600083018461393f565b92915050565b600081905092915050565b600061397f82613745565b6139898185613969565b9350613999818560208601613750565b80840191505092915050565b60006139b18284613974565b915081905092915050565b7f5374616b696e67506f6f6c3a206765742053657175656e636572206661696c6560008201527f6400000000000000000000000000000000000000000000000000000000000000602082015250565b6000613a18602183612fb8565b9150613a23826139bc565b604082019050919050565b60006020820190508181036000830152613a4781613a0b565b905091905056fea2646970667358221220520747f2cd0e0e21dbb1a51913793b5073d51abaab3ba694e13d942b3bc5117164736f6c63430008140033","opcodes":"PUSH1 0x80 PUSH1 0x40 MSTORE CALLVALUE DUP1 ISZERO PUSH2 0x10 JUMPI PUSH1 0x0 DUP1 REVERT JUMPDEST POP PUSH2 0x3A84 DUP1 PUSH2 0x20 PUSH1 0x0 CODECOPY PUSH1 0x0 RETURN INVALID PUSH1 0x80 PUSH1 0x40 MSTORE PUSH1 0x4 CALLDATASIZE LT PUSH2 0x225 JUMPI PUSH1 0x0 CALLDATALOAD PUSH1 0xE0 SHR DUP1 PUSH4 0x85D1E2B8 GT PUSH2 0x123 JUMPI DUP1 PUSH4 0xB699CE5F GT PUSH2 0xAB JUMPI DUP1 PUSH4 0xE92D61E5 GT PUSH2 0x6F JUMPI DUP1 PUSH4 0xE92D61E5 EQ PUSH2 0x797 JUMPI DUP1 PUSH4 0xF2FDE38B EQ PUSH2 0x7C2 JUMPI DUP1 PUSH4 0xF7CEE36A EQ PUSH2 0x7EB JUMPI DUP1 PUSH4 0xF87B7A3E EQ PUSH2 0x816 JUMPI DUP1 PUSH4 0xFEAFAA6B EQ PUSH2 0x83F JUMPI PUSH2 0x225 JUMP JUMPDEST DUP1 PUSH4 0xB699CE5F EQ PUSH2 0x6C2 JUMPI DUP1 PUSH4 0xC3B550C8 EQ PUSH2 0x6EB JUMPI DUP1 PUSH4 0xC7B8981C EQ PUSH2 0x716 JUMPI DUP1 PUSH4 0xD6AE3CD5 EQ PUSH2 0x741 JUMPI DUP1 PUSH4 0xE5974554 EQ PUSH2 0x76C JUMPI PUSH2 0x225 JUMP JUMPDEST DUP1 PUSH4 0x9E935704 GT PUSH2 0xF2 JUMPI DUP1 PUSH4 0x9E935704 EQ PUSH2 0x612 JUMPI DUP1 PUSH4 0xA69DF4B5 EQ PUSH2 0x63D JUMPI DUP1 PUSH4 0xA98D38F0 EQ PUSH2 0x647 JUMPI DUP1 PUSH4 0xACEC338A EQ PUSH2 0x670 JUMPI DUP1 PUSH4 0xAF70CBA5 EQ PUSH2 0x699 JUMPI PUSH2 0x225 JUMP JUMPDEST DUP1 PUSH4 0x85D1E2B8 EQ PUSH2 0x566 JUMPI DUP1 PUSH4 0x8DA5CB5B EQ PUSH2 0x591 JUMPI DUP1 PUSH4 0x8DB8AD88 EQ PUSH2 0x5BC JUMPI DUP1 PUSH4 0x97EC19BE EQ PUSH2 0x5E7 JUMPI PUSH2 0x225 JUMP JUMPDEST DUP1 PUSH4 0x3CBB6979 GT PUSH2 0x1B1 JUMPI DUP1 PUSH4 0x6F47999B GT PUSH2 0x175 JUMPI DUP1 PUSH4 0x6F47999B EQ PUSH2 0x4A5 JUMPI DUP1 PUSH4 0x715018A6 EQ PUSH2 0x4CE JUMPI DUP1 PUSH4 0x739A3E02 EQ PUSH2 0x4E5 JUMPI DUP1 PUSH4 0x76D9F95C EQ PUSH2 0x510 JUMPI DUP1 PUSH4 0x7CA4F8B0 EQ PUSH2 0x53B JUMPI PUSH2 0x225 JUMP JUMPDEST DUP1 PUSH4 0x3CBB6979 EQ PUSH2 0x3AC JUMPI DUP1 PUSH4 0x43C82CF7 EQ PUSH2 0x3D7 JUMPI DUP1 PUSH4 0x457CB586 EQ PUSH2 0x400 JUMPI DUP1 PUSH4 0x53906653 EQ PUSH2 0x43D JUMPI DUP1 PUSH4 0x56891412 EQ PUSH2 0x47A JUMPI PUSH2 0x225 JUMP JUMPDEST DUP1 PUSH4 0x80E1E4E GT PUSH2 0x1F8 JUMPI DUP1 PUSH4 0x80E1E4E EQ PUSH2 0x2C7 JUMPI DUP1 PUSH4 0x1ABDAF6A EQ PUSH2 0x2F2 JUMPI DUP1 PUSH4 0x33BEC7E7 EQ PUSH2 0x32F JUMPI DUP1 PUSH4 0x3B4C46D0 EQ PUSH2 0x358 JUMPI DUP1 PUSH4 0x3CB747BF EQ PUSH2 0x381 JUMPI PUSH2 0x225 JUMP JUMPDEST DUP1 PUSH4 0x182A6DA EQ PUSH2 0x22A JUMPI DUP1 PUSH4 0x2FB0C5E EQ PUSH2 0x246 JUMPI DUP1 PUSH4 0x4A78FCA EQ PUSH2 0x271 JUMPI DUP1 PUSH4 0x572B0CC EQ PUSH2 0x29C JUMPI JUMPDEST PUSH1 0x0 DUP1 REVERT JUMPDEST PUSH2 0x244 PUSH1 0x4 DUP1 CALLDATASIZE SUB DUP2 ADD SWAP1 PUSH2 0x23F SWAP2 SWAP1 PUSH2 0x28FF JUMP JUMPDEST PUSH2 0x849 JUMP JUMPDEST STOP JUMPDEST CALLVALUE DUP1 ISZERO PUSH2 0x252 JUMPI PUSH1 0x0 DUP1 REVERT JUMPDEST POP PUSH2 0x25B PUSH2 0xDEE JUMP JUMPDEST PUSH1 0x40 MLOAD PUSH2 0x268 SWAP2 SWAP1 PUSH2 0x2947 JUMP JUMPDEST PUSH1 0x40 MLOAD DUP1 SWAP2 SUB SWAP1 RETURN JUMPDEST CALLVALUE DUP1 ISZERO PUSH2 0x27D JUMPI PUSH1 0x0 DUP1 REVERT JUMPDEST POP PUSH2 0x286 PUSH2 0xE01 JUMP JUMPDEST PUSH1 0x40 MLOAD PUSH2 0x293 SWAP2 SWAP1 PUSH2 0x2971 JUMP JUMPDEST PUSH1 0x40 MLOAD DUP1 SWAP2 SUB SWAP1 RETURN JUMPDEST CALLVALUE DUP1 ISZERO PUSH2 0x2A8 JUMPI PUSH1 0x0 DUP1 REVERT JUMPDEST POP PUSH2 0x2B1 PUSH2 0xE07 JUMP JUMPDEST PUSH1 0x40 MLOAD PUSH2 0x2BE SWAP2 SWAP1 PUSH2 0x2971 JUMP JUMPDEST PUSH1 0x40 MLOAD DUP1 SWAP2 SUB SWAP1 RETURN JUMPDEST CALLVALUE DUP1 ISZERO PUSH2 0x2D3 JUMPI PUSH1 0x0 DUP1 REVERT JUMPDEST POP PUSH2 0x2DC PUSH2 0xE16 JUMP JUMPDEST PUSH1 0x40 MLOAD PUSH2 0x2E9 SWAP2 SWAP1 PUSH2 0x29CD JUMP JUMPDEST PUSH1 0x40 MLOAD DUP1 SWAP2 SUB SWAP1 RETURN JUMPDEST CALLVALUE DUP1 ISZERO PUSH2 0x2FE JUMPI PUSH1 0x0 DUP1 REVERT JUMPDEST POP PUSH2 0x319 PUSH1 0x4 DUP1 CALLDATASIZE SUB DUP2 ADD SWAP1 PUSH2 0x314 SWAP2 SWAP1 PUSH2 0x28FF JUMP JUMPDEST PUSH2 0xE3C JUMP JUMPDEST PUSH1 0x40 MLOAD PUSH2 0x326 SWAP2 SWAP1 PUSH2 0x2A07 JUMP JUMPDEST PUSH1 0x40 MLOAD DUP1 SWAP2 SUB SWAP1 RETURN JUMPDEST CALLVALUE DUP1 ISZERO PUSH2 0x33B JUMPI PUSH1 0x0 DUP1 REVERT JUMPDEST POP PUSH2 0x356 PUSH1 0x4 DUP1 CALLDATASIZE SUB DUP2 ADD SWAP1 PUSH2 0x351 SWAP2 SWAP1 PUSH2 0x2A4E JUMP JUMPDEST PUSH2 0xE76 JUMP JUMPDEST STOP JUMPDEST CALLVALUE DUP1 ISZERO PUSH2 0x364 JUMPI PUSH1 0x0 DUP1 REVERT JUMPDEST POP PUSH2 0x37F PUSH1 0x4 DUP1 CALLDATASIZE SUB DUP2 ADD SWAP1 PUSH2 0x37A SWAP2 SWAP1 PUSH2 0x2AA7 JUMP JUMPDEST PUSH2 0xEF3 JUMP JUMPDEST STOP JUMPDEST CALLVALUE DUP1 ISZERO PUSH2 0x38D JUMPI PUSH1 0x0 DUP1 REVERT JUMPDEST POP PUSH2 0x396 PUSH2 0xF3F JUMP JUMPDEST PUSH1 0x40 MLOAD PUSH2 0x3A3 SWAP2 SWAP1 PUSH2 0x2B33 JUMP JUMPDEST PUSH1 0x40 MLOAD DUP1 SWAP2 SUB SWAP1 RETURN JUMPDEST CALLVALUE DUP1 ISZERO PUSH2 0x3B8 JUMPI PUSH1 0x0 DUP1 REVERT JUMPDEST POP PUSH2 0x3C1 PUSH2 0xF65 JUMP JUMPDEST PUSH1 0x40 MLOAD PUSH2 0x3CE SWAP2 SWAP1 PUSH2 0x2A07 JUMP JUMPDEST PUSH1 0x40 MLOAD DUP1 SWAP2 SUB SWAP1 RETURN JUMPDEST CALLVALUE DUP1 ISZERO PUSH2 0x3E3 JUMPI PUSH1 0x0 DUP1 REVERT JUMPDEST POP PUSH2 0x3FE PUSH1 0x4 DUP1 CALLDATASIZE SUB DUP2 ADD SWAP1 PUSH2 0x3F9 SWAP2 SWAP1 PUSH2 0x2AA7 JUMP JUMPDEST PUSH2 0xF7B JUMP JUMPDEST STOP JUMPDEST CALLVALUE DUP1 ISZERO PUSH2 0x40C JUMPI PUSH1 0x0 DUP1 REVERT JUMPDEST POP PUSH2 0x427 PUSH1 0x4 DUP1 CALLDATASIZE SUB DUP2 ADD SWAP1 PUSH2 0x422 SWAP2 SWAP1 PUSH2 0x2A4E JUMP JUMPDEST PUSH2 0xFC7 JUMP JUMPDEST PUSH1 0x40 MLOAD PUSH2 0x434 SWAP2 SWAP1 PUSH2 0x29CD JUMP JUMPDEST PUSH1 0x40 MLOAD DUP1 SWAP2 SUB SWAP1 RETURN JUMPDEST CALLVALUE DUP1 ISZERO PUSH2 0x449 JUMPI PUSH1 0x0 DUP1 REVERT JUMPDEST POP PUSH2 0x464 PUSH1 0x4 DUP1 CALLDATASIZE SUB DUP2 ADD SWAP1 PUSH2 0x45F SWAP2 SWAP1 PUSH2 0x28FF JUMP JUMPDEST PUSH2 0xFFA JUMP JUMPDEST PUSH1 0x40 MLOAD PUSH2 0x471 SWAP2 SWAP1 PUSH2 0x2947 JUMP JUMPDEST PUSH1 0x40 MLOAD DUP1 SWAP2 SUB SWAP1 RETURN JUMPDEST CALLVALUE DUP1 ISZERO PUSH2 0x486 JUMPI PUSH1 0x0 DUP1 REVERT JUMPDEST POP PUSH2 0x48F PUSH2 0x10BD JUMP JUMPDEST PUSH1 0x40 MLOAD PUSH2 0x49C SWAP2 SWAP1 PUSH2 0x2971 JUMP JUMPDEST PUSH1 0x40 MLOAD DUP1 SWAP2 SUB SWAP1 RETURN JUMPDEST CALLVALUE DUP1 ISZERO PUSH2 0x4B1 JUMPI PUSH1 0x0 DUP1 REVERT JUMPDEST POP PUSH2 0x4CC PUSH1 0x4 DUP1 CALLDATASIZE SUB DUP2 ADD SWAP1 PUSH2 0x4C7 SWAP2 SWAP1 PUSH2 0x2A4E JUMP JUMPDEST PUSH2 0x10D0 JUMP JUMPDEST STOP JUMPDEST CALLVALUE DUP1 ISZERO PUSH2 0x4DA JUMPI PUSH1 0x0 DUP1 REVERT JUMPDEST POP PUSH2 0x4E3 PUSH2 0x11B3 JUMP JUMPDEST STOP JUMPDEST CALLVALUE DUP1 ISZERO PUSH2 0x4F1 JUMPI PUSH1 0x0 DUP1 REVERT JUMPDEST POP PUSH2 0x4FA PUSH2 0x11C7 JUMP JUMPDEST PUSH1 0x40 MLOAD PUSH2 0x507 SWAP2 SWAP1 PUSH2 0x2971 JUMP JUMPDEST PUSH1 0x40 MLOAD DUP1 SWAP2 SUB SWAP1 RETURN JUMPDEST CALLVALUE DUP1 ISZERO PUSH2 0x51C JUMPI PUSH1 0x0 DUP1 REVERT JUMPDEST POP PUSH2 0x525 PUSH2 0x11EA JUMP JUMPDEST PUSH1 0x40 MLOAD PUSH2 0x532 SWAP2 SWAP1 PUSH2 0x2C38 JUMP JUMPDEST PUSH1 0x40 MLOAD DUP1 SWAP2 SUB SWAP1 RETURN JUMPDEST CALLVALUE DUP1 ISZERO PUSH2 0x547 JUMPI PUSH1 0x0 DUP1 REVERT JUMPDEST POP PUSH2 0x550 PUSH2 0x1296 JUMP JUMPDEST PUSH1 0x40 MLOAD PUSH2 0x55D SWAP2 SWAP1 PUSH2 0x2971 JUMP JUMPDEST PUSH1 0x40 MLOAD DUP1 SWAP2 SUB SWAP1 RETURN JUMPDEST CALLVALUE DUP1 ISZERO PUSH2 0x572 JUMPI PUSH1 0x0 DUP1 REVERT JUMPDEST POP PUSH2 0x57B PUSH2 0x129C JUMP JUMPDEST PUSH1 0x40 MLOAD PUSH2 0x588 SWAP2 SWAP1 PUSH2 0x2C75 JUMP JUMPDEST PUSH1 0x40 MLOAD DUP1 SWAP2 SUB SWAP1 RETURN JUMPDEST CALLVALUE DUP1 ISZERO PUSH2 0x59D JUMPI PUSH1 0x0 DUP1 REVERT JUMPDEST POP PUSH2 0x5A6 PUSH2 0x12C2 JUMP JUMPDEST PUSH1 0x40 MLOAD PUSH2 0x5B3 SWAP2 SWAP1 PUSH2 0x29CD JUMP JUMPDEST PUSH1 0x40 MLOAD DUP1 SWAP2 SUB SWAP1 RETURN JUMPDEST CALLVALUE DUP1 ISZERO PUSH2 0x5C8 JUMPI PUSH1 0x0 DUP1 REVERT JUMPDEST POP PUSH2 0x5D1 PUSH2 0x12FA JUMP JUMPDEST PUSH1 0x40 MLOAD PUSH2 0x5DE SWAP2 SWAP1 PUSH2 0x29CD JUMP JUMPDEST PUSH1 0x40 MLOAD DUP1 SWAP2 SUB SWAP1 RETURN JUMPDEST CALLVALUE DUP1 ISZERO PUSH2 0x5F3 JUMPI PUSH1 0x0 DUP1 REVERT JUMPDEST POP PUSH2 0x5FC PUSH2 0x131E JUMP JUMPDEST PUSH1 0x40 MLOAD PUSH2 0x609 SWAP2 SWAP1 PUSH2 0x29CD JUMP JUMPDEST PUSH1 0x40 MLOAD DUP1 SWAP2 SUB SWAP1 RETURN JUMPDEST CALLVALUE DUP1 ISZERO PUSH2 0x61E JUMPI PUSH1 0x0 DUP1 REVERT JUMPDEST POP PUSH2 0x627 PUSH2 0x1344 JUMP JUMPDEST PUSH1 0x40 MLOAD PUSH2 0x634 SWAP2 SWAP1 PUSH2 0x2A07 JUMP JUMPDEST PUSH1 0x40 MLOAD DUP1 SWAP2 SUB SWAP1 RETURN JUMPDEST PUSH2 0x645 PUSH2 0x135A JUMP JUMPDEST STOP JUMPDEST CALLVALUE DUP1 ISZERO PUSH2 0x653 JUMPI PUSH1 0x0 DUP1 REVERT JUMPDEST POP PUSH2 0x66E PUSH1 0x4 DUP1 CALLDATASIZE SUB DUP2 ADD SWAP1 PUSH2 0x669 SWAP2 SWAP1 PUSH2 0x28FF JUMP JUMPDEST PUSH2 0x1508 JUMP JUMPDEST STOP JUMPDEST CALLVALUE DUP1 ISZERO PUSH2 0x67C JUMPI PUSH1 0x0 DUP1 REVERT JUMPDEST POP PUSH2 0x697 PUSH1 0x4 DUP1 CALLDATASIZE SUB DUP2 ADD SWAP1 PUSH2 0x692 SWAP2 SWAP1 PUSH2 0x2CBC JUMP JUMPDEST PUSH2 0x1779 JUMP JUMPDEST STOP JUMPDEST CALLVALUE DUP1 ISZERO PUSH2 0x6A5 JUMPI PUSH1 0x0 DUP1 REVERT JUMPDEST POP PUSH2 0x6C0 PUSH1 0x4 DUP1 CALLDATASIZE SUB DUP2 ADD SWAP1 PUSH2 0x6BB SWAP2 SWAP1 PUSH2 0x2E2F JUMP JUMPDEST PUSH2 0x179E JUMP JUMPDEST STOP JUMPDEST CALLVALUE DUP1 ISZERO PUSH2 0x6CE JUMPI PUSH1 0x0 DUP1 REVERT JUMPDEST POP PUSH2 0x6E9 PUSH1 0x4 DUP1 CALLDATASIZE SUB DUP2 ADD SWAP1 PUSH2 0x6E4 SWAP2 SWAP1 PUSH2 0x2E9E JUMP JUMPDEST PUSH2 0x1C28 JUMP JUMPDEST STOP JUMPDEST CALLVALUE DUP1 ISZERO PUSH2 0x6F7 JUMPI PUSH1 0x0 DUP1 REVERT JUMPDEST POP PUSH2 0x700 PUSH2 0x21BD JUMP JUMPDEST PUSH1 0x40 MLOAD PUSH2 0x70D SWAP2 SWAP1 PUSH2 0x29CD JUMP JUMPDEST PUSH1 0x40 MLOAD DUP1 SWAP2 SUB SWAP1 RETURN JUMPDEST CALLVALUE DUP1 ISZERO PUSH2 0x722 JUMPI PUSH1 0x0 DUP1 REVERT JUMPDEST POP PUSH2 0x72B PUSH2 0x21E3 JUMP JUMPDEST PUSH1 0x40 MLOAD PUSH2 0x738 SWAP2 SWAP1 PUSH2 0x2947 JUMP JUMPDEST PUSH1 0x40 MLOAD DUP1 SWAP2 SUB SWAP1 RETURN JUMPDEST CALLVALUE DUP1 ISZERO PUSH2 0x74D JUMPI PUSH1 0x0 DUP1 REVERT JUMPDEST POP PUSH2 0x756 PUSH2 0x21F6 JUMP JUMPDEST PUSH1 0x40 MLOAD PUSH2 0x763 SWAP2 SWAP1 PUSH2 0x2971 JUMP JUMPDEST PUSH1 0x40 MLOAD DUP1 SWAP2 SUB SWAP1 RETURN JUMPDEST CALLVALUE DUP1 ISZERO PUSH2 0x778 JUMPI PUSH1 0x0 DUP1 REVERT JUMPDEST POP PUSH2 0x781 PUSH2 0x21FC JUMP JUMPDEST PUSH1 0x40 MLOAD PUSH2 0x78E SWAP2 SWAP1 PUSH2 0x2F61 JUMP JUMPDEST PUSH1 0x40 MLOAD DUP1 SWAP2 SUB SWAP1 RETURN JUMPDEST CALLVALUE DUP1 ISZERO PUSH2 0x7A3 JUMPI PUSH1 0x0 DUP1 REVERT JUMPDEST POP PUSH2 0x7AC PUSH2 0x2222 JUMP JUMPDEST PUSH1 0x40 MLOAD PUSH2 0x7B9 SWAP2 SWAP1 PUSH2 0x29CD JUMP JUMPDEST PUSH1 0x40 MLOAD DUP1 SWAP2 SUB SWAP1 RETURN JUMPDEST CALLVALUE DUP1 ISZERO PUSH2 0x7CE JUMPI PUSH1 0x0 DUP1 REVERT JUMPDEST POP PUSH2 0x7E9 PUSH1 0x4 DUP1 CALLDATASIZE SUB DUP2 ADD SWAP1 PUSH2 0x7E4 SWAP2 SWAP1 PUSH2 0x2AA7 JUMP JUMPDEST PUSH2 0x2248 JUMP JUMPDEST STOP JUMPDEST CALLVALUE DUP1 ISZERO PUSH2 0x7F7 JUMPI PUSH1 0x0 DUP1 REVERT JUMPDEST POP PUSH2 0x800 PUSH2 0x22CE JUMP JUMPDEST PUSH1 0x40 MLOAD PUSH2 0x80D SWAP2 SWAP1 PUSH2 0x2F9D JUMP JUMPDEST PUSH1 0x40 MLOAD DUP1 SWAP2 SUB SWAP1 RETURN JUMPDEST CALLVALUE DUP1 ISZERO PUSH2 0x822 JUMPI PUSH1 0x0 DUP1 REVERT JUMPDEST POP PUSH2 0x83D PUSH1 0x4 DUP1 CALLDATASIZE SUB DUP2 ADD SWAP1 PUSH2 0x838 SWAP2 SWAP1 PUSH2 0x2AA7 JUMP JUMPDEST PUSH2 0x22F4 JUMP JUMPDEST STOP JUMPDEST PUSH2 0x847 PUSH2 0x2340 JUMP JUMPDEST STOP JUMPDEST PUSH2 0x851 PUSH2 0x23EE JUMP JUMPDEST PUSH1 0x0 DUP2 GT PUSH2 0x894 JUMPI PUSH1 0x40 MLOAD PUSH32 0x8C379A000000000000000000000000000000000000000000000000000000000 DUP2 MSTORE PUSH1 0x4 ADD PUSH2 0x88B SWAP1 PUSH2 0x3015 JUMP JUMPDEST PUSH1 0x40 MLOAD DUP1 SWAP2 SUB SWAP1 REVERT JUMPDEST DUP1 PUSH1 0x3 PUSH1 0x0 SWAP1 SLOAD SWAP1 PUSH2 0x100 EXP SWAP1 DIV PUSH20 0xFFFFFFFFFFFFFFFFFFFFFFFFFFFFFFFFFFFFFFFF AND PUSH20 0xFFFFFFFFFFFFFFFFFFFFFFFFFFFFFFFFFFFFFFFF AND PUSH4 0xF037C630 PUSH1 0x40 MLOAD DUP2 PUSH4 0xFFFFFFFF AND PUSH1 0xE0 SHL DUP2 MSTORE PUSH1 0x4 ADD PUSH1 0x20 PUSH1 0x40 MLOAD DUP1 DUP4 SUB DUP2 DUP7 GAS STATICCALL ISZERO DUP1 ISZERO PUSH2 0x902 JUMPI RETURNDATASIZE PUSH1 0x0 DUP1 RETURNDATACOPY RETURNDATASIZE PUSH1 0x0 REVERT JUMPDEST POP POP POP POP PUSH1 0x40 MLOAD RETURNDATASIZE PUSH1 0x1F NOT PUSH1 0x1F DUP3 ADD AND DUP3 ADD DUP1 PUSH1 0x40 MSTORE POP DUP2 ADD SWAP1 PUSH2 0x926 SWAP2 SWAP1 PUSH2 0x304A JUMP JUMPDEST PUSH2 0x930 SWAP2 SWAP1 PUSH2 0x30A6 JUMP JUMPDEST PUSH2 0x938 PUSH2 0x2475 JUMP JUMPDEST LT ISZERO PUSH2 0x979 JUMPI PUSH1 0x40 MLOAD PUSH32 0x8C379A000000000000000000000000000000000000000000000000000000000 DUP2 MSTORE PUSH1 0x4 ADD PUSH2 0x970 SWAP1 PUSH2 0x3126 JUMP JUMPDEST PUSH1 0x40 MLOAD DUP1 SWAP2 SUB SWAP1 REVERT JUMPDEST PUSH1 0x2 PUSH1 0x0 SWAP1 SLOAD SWAP1 PUSH2 0x100 EXP SWAP1 DIV PUSH20 0xFFFFFFFFFFFFFFFFFFFFFFFFFFFFFFFFFFFFFFFF AND PUSH20 0xFFFFFFFFFFFFFFFFFFFFFFFFFFFFFFFFFFFFFFFF AND PUSH4 0x441A3E70 PUSH1 0xD SLOAD DUP4 PUSH1 0x40 MLOAD DUP4 PUSH4 0xFFFFFFFF AND PUSH1 0xE0 SHL DUP2 MSTORE PUSH1 0x4 ADD PUSH2 0x9D8 SWAP3 SWAP2 SWAP1 PUSH2 0x3146 JUMP JUMPDEST PUSH1 0x0 PUSH1 0x40 MLOAD DUP1 DUP4 SUB DUP2 PUSH1 0x0 DUP8 DUP1 EXTCODESIZE ISZERO DUP1 ISZERO PUSH2 0x9F2 JUMPI PUSH1 0x0 DUP1 REVERT JUMPDEST POP GAS CALL ISZERO DUP1 ISZERO PUSH2 0xA06 JUMPI RETURNDATASIZE PUSH1 0x0 DUP1 RETURNDATACOPY RETURNDATASIZE PUSH1 0x0 REVERT JUMPDEST POP POP POP POP PUSH1 0x0 PUSH1 0x3 PUSH1 0x0 SWAP1 SLOAD SWAP1 PUSH2 0x100 EXP SWAP1 DIV PUSH20 0xFFFFFFFFFFFFFFFFFFFFFFFFFFFFFFFFFFFFFFFF AND PUSH20 0xFFFFFFFFFFFFFFFFFFFFFFFFFFFFFFFFFFFFFFFF AND PUSH4 0xE78CEA92 PUSH1 0x40 MLOAD DUP2 PUSH4 0xFFFFFFFF AND PUSH1 0xE0 SHL DUP2 MSTORE PUSH1 0x4 ADD PUSH1 0x20 PUSH1 0x40 MLOAD DUP1 DUP4 SUB DUP2 DUP7 GAS STATICCALL ISZERO DUP1 ISZERO PUSH2 0xA79 JUMPI RETURNDATASIZE PUSH1 0x0 DUP1 RETURNDATACOPY RETURNDATASIZE PUSH1 0x0 REVERT JUMPDEST POP POP POP POP PUSH1 0x40 MLOAD RETURNDATASIZE PUSH1 0x1F NOT PUSH1 0x1F DUP3 ADD AND DUP3 ADD DUP1 PUSH1 0x40 MSTORE POP DUP2 ADD SWAP1 PUSH2 0xA9D SWAP2 SWAP1 PUSH2 0x3184 JUMP JUMPDEST SWAP1 POP PUSH1 0x3 PUSH1 0x0 SWAP1 SLOAD SWAP1 PUSH2 0x100 EXP SWAP1 DIV PUSH20 0xFFFFFFFFFFFFFFFFFFFFFFFFFFFFFFFFFFFFFFFF AND PUSH20 0xFFFFFFFFFFFFFFFFFFFFFFFFFFFFFFFFFFFFFFFF AND PUSH4 0xC01E1BD6 PUSH1 0x40 MLOAD DUP2 PUSH4 0xFFFFFFFF AND PUSH1 0xE0 SHL DUP2 MSTORE PUSH1 0x4 ADD PUSH1 0x20 PUSH1 0x40 MLOAD DUP1 DUP4 SUB DUP2 DUP7 GAS STATICCALL ISZERO DUP1 ISZERO PUSH2 0xB0C JUMPI RETURNDATASIZE PUSH1 0x0 DUP1 RETURNDATACOPY RETURNDATASIZE PUSH1 0x0 REVERT JUMPDEST POP POP POP POP PUSH1 0x40 MLOAD RETURNDATASIZE PUSH1 0x1F NOT PUSH1 0x1F DUP3 ADD AND DUP3 ADD DUP1 PUSH1 0x40 MSTORE POP DUP2 ADD SWAP1 PUSH2 0xB30 SWAP2 SWAP1 PUSH2 0x3184 JUMP JUMPDEST PUSH20 0xFFFFFFFFFFFFFFFFFFFFFFFFFFFFFFFFFFFFFFFF AND PUSH4 0x95EA7B3 DUP3 DUP5 PUSH1 0x40 MLOAD DUP4 PUSH4 0xFFFFFFFF AND PUSH1 0xE0 SHL DUP2 MSTORE PUSH1 0x4 ADD PUSH2 0xB6A SWAP3 SWAP2 SWAP1 PUSH2 0x31B1 JUMP JUMPDEST PUSH1 0x20 PUSH1 0x40 MLOAD DUP1 DUP4 SUB DUP2 PUSH1 0x0 DUP8 GAS CALL ISZERO DUP1 ISZERO PUSH2 0xB89 JUMPI RETURNDATASIZE PUSH1 0x0 DUP1 RETURNDATACOPY RETURNDATASIZE PUSH1 0x0 REVERT JUMPDEST POP POP POP POP PUSH1 0x40 MLOAD RETURNDATASIZE PUSH1 0x1F NOT PUSH1 0x1F DUP3 ADD AND DUP3 ADD DUP1 PUSH1 0x40 MSTORE POP DUP2 ADD SWAP1 PUSH2 0xBAD SWAP2 SWAP1 PUSH2 0x31EF JUMP JUMPDEST POP DUP1 PUSH20 0xFFFFFFFFFFFFFFFFFFFFFFFFFFFFFFFFFFFFFFFF AND PUSH4 0xEF808BE2 CALLVALUE PUSH1 0x5 SLOAD PUSH1 0x3 PUSH1 0x0 SWAP1 SLOAD SWAP1 PUSH2 0x100 EXP SWAP1 DIV PUSH20 0xFFFFFFFFFFFFFFFFFFFFFFFFFFFFFFFFFFFFFFFF AND PUSH20 0xFFFFFFFFFFFFFFFFFFFFFFFFFFFFFFFFFFFFFFFF AND PUSH4 0xC01E1BD6 PUSH1 0x40 MLOAD DUP2 PUSH4 0xFFFFFFFF AND PUSH1 0xE0 SHL DUP2 MSTORE PUSH1 0x4 ADD PUSH1 0x20 PUSH1 0x40 MLOAD DUP1 DUP4 SUB DUP2 DUP7 GAS STATICCALL ISZERO DUP1 ISZERO PUSH2 0xC3B JUMPI RETURNDATASIZE PUSH1 0x0 DUP1 RETURNDATACOPY RETURNDATASIZE PUSH1 0x0 REVERT JUMPDEST POP POP POP POP PUSH1 0x40 MLOAD RETURNDATASIZE PUSH1 0x1F NOT PUSH1 0x1F DUP3 ADD AND DUP3 ADD DUP1 PUSH1 0x40 MSTORE POP DUP2 ADD SWAP1 PUSH2 0xC5F SWAP2 SWAP1 PUSH2 0x3184 JUMP JUMPDEST PUSH1 0x3 PUSH1 0x0 SWAP1 SLOAD SWAP1 PUSH2 0x100 EXP SWAP1 DIV PUSH20 0xFFFFFFFFFFFFFFFFFFFFFFFFFFFFFFFFFFFFFFFF AND PUSH20 0xFFFFFFFFFFFFFFFFFFFFFFFFFFFFFFFFFFFFFFFF AND PUSH4 0x56EFF267 PUSH1 0x40 MLOAD DUP2 PUSH4 0xFFFFFFFF AND PUSH1 0xE0 SHL DUP2 MSTORE PUSH1 0x4 ADD PUSH1 0x20 PUSH1 0x40 MLOAD DUP1 DUP4 SUB DUP2 DUP7 GAS STATICCALL ISZERO DUP1 ISZERO PUSH2 0xCCC JUMPI RETURNDATASIZE PUSH1 0x0 DUP1 RETURNDATACOPY RETURNDATASIZE PUSH1 0x0 REVERT JUMPDEST POP POP POP POP PUSH1 0x40 MLOAD RETURNDATASIZE PUSH1 0x1F NOT PUSH1 0x1F DUP3 ADD AND DUP3 ADD DUP1 PUSH1 0x40 MSTORE POP DUP2 ADD SWAP1 PUSH2 0xCF0 SWAP2 SWAP1 PUSH2 0x3184 JUMP JUMPDEST PUSH1 0xF PUSH1 0x0 SWAP1 SLOAD SWAP1 PUSH2 0x100 EXP SWAP1 DIV PUSH20 0xFFFFFFFFFFFFFFFFFFFFFFFFFFFFFFFFFFFFFFFF AND DUP9 PUSH1 0xC PUSH1 0x0 SWAP1 SLOAD SWAP1 PUSH2 0x100 EXP SWAP1 DIV PUSH4 0xFFFFFFFF AND PUSH1 0x40 MLOAD DUP9 PUSH4 0xFFFFFFFF AND PUSH1 0xE0 SHL DUP2 MSTORE PUSH1 0x4 ADD PUSH2 0xD48 SWAP7 SWAP6 SWAP5 SWAP4 SWAP3 SWAP2 SWAP1 PUSH2 0x3253 JUMP JUMPDEST PUSH1 0x0 PUSH1 0x40 MLOAD DUP1 DUP4 SUB DUP2 DUP6 DUP9 DUP1 EXTCODESIZE ISZERO DUP1 ISZERO PUSH2 0xD61 JUMPI PUSH1 0x0 DUP1 REVERT JUMPDEST POP GAS CALL ISZERO DUP1 ISZERO PUSH2 0xD75 JUMPI RETURNDATASIZE PUSH1 0x0 DUP1 RETURNDATACOPY RETURNDATASIZE PUSH1 0x0 REVERT JUMPDEST POP POP POP POP POP PUSH1 0xF PUSH1 0x0 SWAP1 SLOAD SWAP1 PUSH2 0x100 EXP SWAP1 DIV PUSH20 0xFFFFFFFFFFFFFFFFFFFFFFFFFFFFFFFFFFFFFFFF AND PUSH20 0xFFFFFFFFFFFFFFFFFFFFFFFFFFFFFFFFFFFFFFFF AND PUSH32 0x6EF7A26D50CEC3F1A210BED887413D426C9C13575A17872C54E00C4287AC5DCE DUP4 PUSH1 0x40 MLOAD PUSH2 0xDE2 SWAP2 SWAP1 PUSH2 0x2971 JUMP JUMPDEST PUSH1 0x40 MLOAD DUP1 SWAP2 SUB SWAP1 LOG2 POP POP JUMP JUMPDEST PUSH1 0xE PUSH1 0x14 SWAP1 SLOAD SWAP1 PUSH2 0x100 EXP SWAP1 DIV PUSH1 0xFF AND DUP2 JUMP JUMPDEST PUSH1 0xD SLOAD DUP2 JUMP JUMPDEST PUSH1 0x0 PUSH2 0xE11 PUSH2 0x248D JUMP JUMPDEST SWAP1 POP SWAP1 JUMP JUMPDEST PUSH1 0x6 PUSH1 0x0 SWAP1 SLOAD SWAP1 PUSH2 0x100 EXP SWAP1 DIV PUSH20 0xFFFFFFFFFFFFFFFFFFFFFFFFFFFFFFFFFFFFFFFF AND DUP2 JUMP JUMPDEST PUSH1 0xA DUP2 DUP2 SLOAD DUP2 LT PUSH2 0xE4C JUMPI PUSH1 0x0 DUP1 REVERT JUMPDEST SWAP1 PUSH1 0x0 MSTORE PUSH1 0x20 PUSH1 0x0 KECCAK256 SWAP1 PUSH1 0x8 SWAP2 DUP3 DUP3 DIV ADD SWAP2 SWAP1 MOD PUSH1 0x4 MUL SWAP2 POP SLOAD SWAP1 PUSH2 0x100 EXP SWAP1 DIV PUSH4 0xFFFFFFFF AND DUP2 JUMP JUMPDEST PUSH2 0xE7E PUSH2 0x23EE JUMP JUMPDEST PUSH1 0x0 PUSH1 0xC PUSH1 0x0 SWAP1 SLOAD SWAP1 PUSH2 0x100 EXP SWAP1 DIV PUSH4 0xFFFFFFFF AND SWAP1 POP DUP2 PUSH1 0xC PUSH1 0x0 PUSH2 0x100 EXP DUP2 SLOAD DUP2 PUSH4 0xFFFFFFFF MUL NOT AND SWAP1 DUP4 PUSH4 0xFFFFFFFF AND MUL OR SWAP1 SSTORE POP PUSH32 0x4042B09A75E5A67C8CC2A57E00DE6D29FB5202B7207AFBA895EB8B5CC3E2179E DUP2 DUP4 PUSH1 0x40 MLOAD PUSH2 0xEE7 SWAP3 SWAP2 SWAP1 PUSH2 0x32C7 JUMP JUMPDEST PUSH1 0x40 MLOAD DUP1 SWAP2 SUB SWAP1 LOG1 POP POP JUMP JUMPDEST PUSH2 0xEFB PUSH2 0x23EE JUMP JUMPDEST DUP1 PUSH1 0xF PUSH1 0x0 PUSH2 0x100 EXP DUP2 SLOAD DUP2 PUSH20 0xFFFFFFFFFFFFFFFFFFFFFFFFFFFFFFFFFFFFFFFF MUL NOT AND SWAP1 DUP4 PUSH20 0xFFFFFFFFFFFFFFFFFFFFFFFFFFFFFFFFFFFFFFFF AND MUL OR SWAP1 SSTORE POP POP JUMP JUMPDEST PUSH1 0x4 PUSH1 0x0 SWAP1 SLOAD SWAP1 PUSH2 0x100 EXP SWAP1 DIV PUSH20 0xFFFFFFFFFFFFFFFFFFFFFFFFFFFFFFFFFFFFFFFF AND DUP2 JUMP JUMPDEST PUSH1 0xC PUSH1 0x0 SWAP1 SLOAD SWAP1 PUSH2 0x100 EXP SWAP1 DIV PUSH4 0xFFFFFFFF AND DUP2 JUMP JUMPDEST PUSH2 0xF83 PUSH2 0x23EE JUMP JUMPDEST DUP1 PUSH1 0x7 PUSH1 0x0 PUSH2 0x100 EXP DUP2 SLOAD DUP2 PUSH20 0xFFFFFFFFFFFFFFFFFFFFFFFFFFFFFFFFFFFFFFFF MUL NOT AND SWAP1 DUP4 PUSH20 0xFFFFFFFFFFFFFFFFFFFFFFFFFFFFFFFFFFFFFFFF AND MUL OR SWAP1 SSTORE POP POP JUMP JUMPDEST PUSH1 0x8 PUSH1 0x20 MSTORE DUP1 PUSH1 0x0 MSTORE PUSH1 0x40 PUSH1 0x0 KECCAK256 PUSH1 0x0 SWAP2 POP SLOAD SWAP1 PUSH2 0x100 EXP SWAP1 DIV PUSH20 0xFFFFFFFFFFFFFFFFFFFFFFFFFFFFFFFFFFFFFFFF AND DUP2 JUMP JUMPDEST PUSH1 0x0 PUSH1 0x11 PUSH1 0xD SLOAD SUB PUSH2 0x100F JUMPI PUSH1 0x1 SWAP1 POP PUSH2 0x10B8 JUMP JUMPDEST PUSH1 0x3 PUSH1 0x0 SWAP1 SLOAD SWAP1 PUSH2 0x100 EXP SWAP1 DIV PUSH20 0xFFFFFFFFFFFFFFFFFFFFFFFFFFFFFFFFFFFFFFFF AND PUSH20 0xFFFFFFFFFFFFFFFFFFFFFFFFFFFFFFFFFFFFFFFF AND PUSH4 0x6C0B3E46 PUSH1 0x40 MLOAD DUP2 PUSH4 0xFFFFFFFF AND PUSH1 0xE0 SHL DUP2 MSTORE PUSH1 0x4 ADD PUSH1 0x20 PUSH1 0x40 MLOAD DUP1 DUP4 SUB DUP2 DUP7 GAS STATICCALL ISZERO DUP1 ISZERO PUSH2 0x107C JUMPI RETURNDATASIZE PUSH1 0x0 DUP1 RETURNDATACOPY RETURNDATASIZE PUSH1 0x0 REVERT JUMPDEST POP POP POP POP PUSH1 0x40 MLOAD RETURNDATASIZE PUSH1 0x1F NOT PUSH1 0x1F DUP3 ADD AND DUP3 ADD DUP1 PUSH1 0x40 MSTORE POP DUP2 ADD SWAP1 PUSH2 0x10A0 SWAP2 SWAP1 PUSH2 0x304A JUMP JUMPDEST PUSH2 0x10A8 PUSH2 0x2475 JUMP JUMPDEST DUP4 PUSH2 0x10B3 SWAP2 SWAP1 PUSH2 0x30A6 JUMP JUMPDEST GT ISZERO SWAP1 POP JUMPDEST SWAP2 SWAP1 POP JUMP JUMPDEST PUSH1 0x0 PUSH2 0x10C7 PUSH2 0x11EA JUMP JUMPDEST PUSH1 0x0 ADD MLOAD SWAP1 POP SWAP1 JUMP JUMPDEST PUSH2 0x10D8 PUSH2 0x23EE JUMP JUMPDEST PUSH1 0x0 PUSH2 0x10E2 PUSH2 0x248D JUMP JUMPDEST SWAP1 POP PUSH1 0x2 PUSH1 0x0 SWAP1 SLOAD SWAP1 PUSH2 0x100 EXP SWAP1 DIV PUSH20 0xFFFFFFFFFFFFFFFFFFFFFFFFFFFFFFFFFFFFFFFF AND PUSH20 0xFFFFFFFFFFFFFFFFFFFFFFFFFFFFFFFFFFFFFFFF AND PUSH4 0x17396687 PUSH1 0xD SLOAD DUP5 PUSH1 0x40 MLOAD DUP4 PUSH4 0xFFFFFFFF AND PUSH1 0xE0 SHL DUP2 MSTORE PUSH1 0x4 ADD PUSH2 0x1143 SWAP3 SWAP2 SWAP1 PUSH2 0x32F0 JUMP JUMPDEST PUSH1 0x0 PUSH1 0x40 MLOAD DUP1 DUP4 SUB DUP2 PUSH1 0x0 DUP8 DUP1 EXTCODESIZE ISZERO DUP1 ISZERO PUSH2 0x115D JUMPI PUSH1 0x0 DUP1 REVERT JUMPDEST POP GAS CALL ISZERO DUP1 ISZERO PUSH2 0x1171 JUMPI RETURNDATASIZE PUSH1 0x0 DUP1 RETURNDATACOPY RETURNDATASIZE PUSH1 0x0 REVERT JUMPDEST POP POP POP POP PUSH1 0xD SLOAD PUSH32 0x630AF8B49BB398089A74EACDB08106C528436090BDB35D7302152DC5117DF9BD DUP3 PUSH1 0x40 MLOAD PUSH2 0x11A7 SWAP2 SWAP1 PUSH2 0x2971 JUMP JUMPDEST PUSH1 0x40 MLOAD DUP1 SWAP2 SUB SWAP1 LOG2 POP POP JUMP JUMPDEST PUSH2 0x11BB PUSH2 0x23EE JUMP JUMPDEST PUSH2 0x11C5 PUSH1 0x0 PUSH2 0x24A5 JUMP JUMPDEST JUMP JUMPDEST PUSH1 0x0 PUSH1 0x11 PUSH1 0xD SLOAD EQ PUSH2 0x11DC JUMPI PUSH1 0x0 SWAP1 POP PUSH2 0x11E7 JUMP JUMPDEST PUSH2 0x11E4 PUSH2 0x2475 JUMP JUMPDEST SWAP1 POP JUMPDEST SWAP1 JUMP JUMPDEST PUSH2 0x11F2 PUSH2 0x2836 JUMP JUMPDEST PUSH1 0x2 PUSH1 0x0 SWAP1 SLOAD SWAP1 PUSH2 0x100 EXP SWAP1 DIV PUSH20 0xFFFFFFFFFFFFFFFFFFFFFFFFFFFFFFFFFFFFFFFF AND PUSH20 0xFFFFFFFFFFFFFFFFFFFFFFFFFFFFFFFFFFFFFFFF AND PUSH4 0x6BA7CCFF PUSH1 0xD SLOAD PUSH1 0x40 MLOAD DUP3 PUSH4 0xFFFFFFFF AND PUSH1 0xE0 SHL DUP2 MSTORE PUSH1 0x4 ADD PUSH2 0x124F SWAP2 SWAP1 PUSH2 0x2971 JUMP JUMPDEST PUSH2 0x140 PUSH1 0x40 MLOAD DUP1 DUP4 SUB DUP2 DUP7 GAS STATICCALL ISZERO DUP1 ISZERO PUSH2 0x126D JUMPI RETURNDATASIZE PUSH1 0x0 DUP1 RETURNDATACOPY RETURNDATASIZE PUSH1 0x0 REVERT JUMPDEST POP POP POP POP PUSH1 0x40 MLOAD RETURNDATASIZE PUSH1 0x1F NOT PUSH1 0x1F DUP3 ADD AND DUP3 ADD DUP1 PUSH1 0x40 MSTORE POP DUP2 ADD SWAP1 PUSH2 0x1291 SWAP2 SWAP1 PUSH2 0x3414 JUMP JUMPDEST SWAP1 POP SWAP1 JUMP JUMPDEST PUSH1 0xB SLOAD DUP2 JUMP JUMPDEST PUSH1 0x2 PUSH1 0x0 SWAP1 SLOAD SWAP1 PUSH2 0x100 EXP SWAP1 DIV PUSH20 0xFFFFFFFFFFFFFFFFFFFFFFFFFFFFFFFFFFFFFFFF AND DUP2 JUMP JUMPDEST PUSH1 0x0 DUP1 PUSH2 0x12CD PUSH2 0x257C JUMP JUMPDEST SWAP1 POP DUP1 PUSH1 0x0 ADD PUSH1 0x0 SWAP1 SLOAD SWAP1 PUSH2 0x100 EXP SWAP1 DIV PUSH20 0xFFFFFFFFFFFFFFFFFFFFFFFFFFFFFFFFFFFFFFFF AND SWAP2 POP POP SWAP1 JUMP JUMPDEST PUSH1 0x0 DUP1 SLOAD SWAP1 PUSH2 0x100 EXP SWAP1 DIV PUSH20 0xFFFFFFFFFFFFFFFFFFFFFFFFFFFFFFFFFFFFFFFF AND DUP2 JUMP JUMPDEST PUSH1 0xF PUSH1 0x0 SWAP1 SLOAD SWAP1 PUSH2 0x100 EXP SWAP1 DIV PUSH20 0xFFFFFFFFFFFFFFFFFFFFFFFFFFFFFFFFFFFFFFFF AND DUP2 JUMP JUMPDEST PUSH1 0x9 PUSH1 0x0 SWAP1 SLOAD SWAP1 PUSH2 0x100 EXP SWAP1 DIV PUSH4 0xFFFFFFFF AND DUP2 JUMP JUMPDEST PUSH2 0x1362 PUSH2 0x23EE JUMP JUMPDEST PUSH1 0x0 PUSH2 0x136C PUSH2 0x11EA JUMP JUMPDEST SWAP1 POP CALLER PUSH20 0xFFFFFFFFFFFFFFFFFFFFFFFFFFFFFFFFFFFFFFFF AND DUP2 PUSH2 0x100 ADD MLOAD PUSH20 0xFFFFFFFFFFFFFFFFFFFFFFFFFFFFFFFFFFFFFFFF AND EQ PUSH2 0x13E1 JUMPI PUSH1 0x40 MLOAD PUSH32 0x8C379A000000000000000000000000000000000000000000000000000000000 DUP2 MSTORE PUSH1 0x4 ADD PUSH2 0x13D8 SWAP1 PUSH2 0x348E JUMP JUMPDEST PUSH1 0x40 MLOAD DUP1 SWAP2 SUB SWAP1 REVERT JUMPDEST PUSH1 0x2 PUSH1 0x0 SWAP1 SLOAD SWAP1 PUSH2 0x100 EXP SWAP1 DIV PUSH20 0xFFFFFFFFFFFFFFFFFFFFFFFFFFFFFFFFFFFFFFFF AND PUSH20 0xFFFFFFFFFFFFFFFFFFFFFFFFFFFFFFFFFFFFFFFF AND PUSH4 0x262C0E66 CALLVALUE PUSH1 0xD SLOAD PUSH1 0xC PUSH1 0x0 SWAP1 SLOAD SWAP1 PUSH2 0x100 EXP SWAP1 DIV PUSH4 0xFFFFFFFF AND PUSH1 0x40 MLOAD DUP5 PUSH4 0xFFFFFFFF AND PUSH1 0xE0 SHL DUP2 MSTORE PUSH1 0x4 ADD PUSH2 0x1453 SWAP3 SWAP2 SWAP1 PUSH2 0x32F0 JUMP JUMPDEST PUSH1 0x0 PUSH1 0x40 MLOAD DUP1 DUP4 SUB DUP2 DUP6 DUP9 DUP1 EXTCODESIZE ISZERO DUP1 ISZERO PUSH2 0x146C JUMPI PUSH1 0x0 DUP1 REVERT JUMPDEST POP GAS CALL ISZERO DUP1 ISZERO PUSH2 0x1480 JUMPI RETURNDATASIZE PUSH1 0x0 DUP1 RETURNDATACOPY RETURNDATASIZE PUSH1 0x0 REVERT JUMPDEST POP POP POP POP POP PUSH1 0x0 PUSH1 0xE PUSH1 0x14 PUSH2 0x100 EXP DUP2 SLOAD DUP2 PUSH1 0xFF MUL NOT AND SWAP1 DUP4 ISZERO ISZERO MUL OR SWAP1 SSTORE POP PUSH1 0xE PUSH1 0x0 SWAP1 SLOAD SWAP1 PUSH2 0x100 EXP SWAP1 DIV PUSH20 0xFFFFFFFFFFFFFFFFFFFFFFFFFFFFFFFFFFFFFFFF AND PUSH20 0xFFFFFFFFFFFFFFFFFFFFFFFFFFFFFFFFFFFFFFFF AND PUSH32 0xBAC99876B6A1C26412460D61D913235A30F0EA99585FFCFD53C0FAAE6ED33134 PUSH1 0x40 MLOAD PUSH1 0x40 MLOAD DUP1 SWAP2 SUB SWAP1 LOG2 POP JUMP JUMPDEST PUSH2 0x1510 PUSH2 0x23EE JUMP JUMPDEST PUSH1 0xE PUSH1 0x14 SWAP1 SLOAD SWAP1 PUSH2 0x100 EXP SWAP1 DIV PUSH1 0xFF AND PUSH2 0x155F JUMPI PUSH1 0x40 MLOAD PUSH32 0x8C379A000000000000000000000000000000000000000000000000000000000 DUP2 MSTORE PUSH1 0x4 ADD PUSH2 0x1556 SWAP1 PUSH2 0x34FA JUMP JUMPDEST PUSH1 0x40 MLOAD DUP1 SWAP2 SUB SWAP1 REVERT JUMPDEST PUSH2 0x1568 DUP2 PUSH2 0xFFA JUMP JUMPDEST PUSH2 0x15A7 JUMPI PUSH1 0x40 MLOAD PUSH32 0x8C379A000000000000000000000000000000000000000000000000000000000 DUP2 MSTORE PUSH1 0x4 ADD PUSH2 0x159E SWAP1 PUSH2 0x3566 JUMP JUMPDEST PUSH1 0x40 MLOAD DUP1 SWAP2 SUB SWAP1 REVERT JUMPDEST PUSH1 0x1 PUSH1 0x0 SWAP1 SLOAD SWAP1 PUSH2 0x100 EXP SWAP1 DIV PUSH20 0xFFFFFFFFFFFFFFFFFFFFFFFFFFFFFFFFFFFFFFFF AND PUSH20 0xFFFFFFFFFFFFFFFFFFFFFFFFFFFFFFFFFFFFFFFF AND PUSH4 0x95EA7B3 PUSH1 0x3 PUSH1 0x0 SWAP1 SLOAD SWAP1 PUSH2 0x100 EXP SWAP1 DIV PUSH20 0xFFFFFFFFFFFFFFFFFFFFFFFFFFFFFFFFFFFFFFFF AND DUP4 PUSH1 0x40 MLOAD DUP4 PUSH4 0xFFFFFFFF AND PUSH1 0xE0 SHL DUP2 MSTORE PUSH1 0x4 ADD PUSH2 0x1626 SWAP3 SWAP2 SWAP1 PUSH2 0x31B1 JUMP JUMPDEST PUSH1 0x20 PUSH1 0x40 MLOAD DUP1 DUP4 SUB DUP2 PUSH1 0x0 DUP8 GAS CALL ISZERO DUP1 ISZERO PUSH2 0x1645 JUMPI RETURNDATASIZE PUSH1 0x0 DUP1 RETURNDATACOPY RETURNDATASIZE PUSH1 0x0 REVERT JUMPDEST POP POP POP POP PUSH1 0x40 MLOAD RETURNDATASIZE PUSH1 0x1F NOT PUSH1 0x1F DUP3 ADD AND DUP3 ADD DUP1 PUSH1 0x40 MSTORE POP DUP2 ADD SWAP1 PUSH2 0x1669 SWAP2 SWAP1 PUSH2 0x31EF JUMP JUMPDEST PUSH2 0x16A8 JUMPI PUSH1 0x40 MLOAD PUSH32 0x8C379A000000000000000000000000000000000000000000000000000000000 DUP2 MSTORE PUSH1 0x4 ADD PUSH2 0x169F SWAP1 PUSH2 0x35F8 JUMP JUMPDEST PUSH1 0x40 MLOAD DUP1 SWAP2 SUB SWAP1 REVERT JUMPDEST PUSH1 0x2 PUSH1 0x0 SWAP1 SLOAD SWAP1 PUSH2 0x100 EXP SWAP1 DIV PUSH20 0xFFFFFFFFFFFFFFFFFFFFFFFFFFFFFFFFFFFFFFFF AND PUSH20 0xFFFFFFFFFFFFFFFFFFFFFFFFFFFFFFFFFFFFFFFF AND PUSH4 0x15BB180 PUSH1 0xD SLOAD DUP4 PUSH1 0x0 PUSH1 0x40 MLOAD DUP5 PUSH4 0xFFFFFFFF AND PUSH1 0xE0 SHL DUP2 MSTORE PUSH1 0x4 ADD PUSH2 0x170A SWAP4 SWAP3 SWAP2 SWAP1 PUSH2 0x3618 JUMP JUMPDEST PUSH1 0x0 PUSH1 0x40 MLOAD DUP1 DUP4 SUB DUP2 PUSH1 0x0 DUP8 DUP1 EXTCODESIZE ISZERO DUP1 ISZERO PUSH2 0x1724 JUMPI PUSH1 0x0 DUP1 REVERT JUMPDEST POP GAS CALL ISZERO DUP1 ISZERO PUSH2 0x1738 JUMPI RETURNDATASIZE PUSH1 0x0 DUP1 RETURNDATACOPY RETURNDATASIZE PUSH1 0x0 REVERT JUMPDEST POP POP POP POP PUSH32 0xD076AF75B138B908E5017400DAFA33E08E4F5CD3D63E0A8C900B274734AE59DA PUSH1 0x0 DUP3 PUSH1 0x40 MLOAD PUSH2 0x176E SWAP3 SWAP2 SWAP1 PUSH2 0x368A JUMP JUMPDEST PUSH1 0x40 MLOAD DUP1 SWAP2 SUB SWAP1 LOG1 POP JUMP JUMPDEST PUSH2 0x1781 PUSH2 0x23EE JUMP JUMPDEST DUP1 PUSH1 0xE PUSH1 0x14 PUSH2 0x100 EXP DUP2 SLOAD DUP2 PUSH1 0xFF MUL NOT AND SWAP1 DUP4 ISZERO ISZERO MUL OR SWAP1 SSTORE POP POP JUMP JUMPDEST PUSH2 0x17A6 PUSH2 0x23EE JUMP JUMPDEST PUSH1 0x0 PUSH1 0x1 PUSH1 0x0 SWAP1 SLOAD SWAP1 PUSH2 0x100 EXP SWAP1 DIV PUSH20 0xFFFFFFFFFFFFFFFFFFFFFFFFFFFFFFFFFFFFFFFF AND PUSH20 0xFFFFFFFFFFFFFFFFFFFFFFFFFFFFFFFFFFFFFFFF AND PUSH4 0x70A08231 ADDRESS PUSH1 0x40 MLOAD DUP3 PUSH4 0xFFFFFFFF AND PUSH1 0xE0 SHL DUP2 MSTORE PUSH1 0x4 ADD PUSH2 0x1803 SWAP2 SWAP1 PUSH2 0x29CD JUMP JUMPDEST PUSH1 0x20 PUSH1 0x40 MLOAD DUP1 DUP4 SUB DUP2 DUP7 GAS STATICCALL ISZERO DUP1 ISZERO PUSH2 0x1820 JUMPI RETURNDATASIZE PUSH1 0x0 DUP1 RETURNDATACOPY RETURNDATASIZE PUSH1 0x0 REVERT JUMPDEST POP POP POP POP PUSH1 0x40 MLOAD RETURNDATASIZE PUSH1 0x1F NOT PUSH1 0x1F DUP3 ADD AND DUP3 ADD DUP1 PUSH1 0x40 MSTORE POP DUP2 ADD SWAP1 PUSH2 0x1844 SWAP2 SWAP1 PUSH2 0x304A JUMP JUMPDEST SWAP1 POP DUP3 DUP2 LT ISZERO PUSH2 0x1889 JUMPI PUSH1 0x40 MLOAD PUSH32 0x8C379A000000000000000000000000000000000000000000000000000000000 DUP2 MSTORE PUSH1 0x4 ADD PUSH2 0x1880 SWAP1 PUSH2 0x3725 JUMP JUMPDEST PUSH1 0x40 MLOAD DUP1 SWAP2 SUB SWAP1 REVERT JUMPDEST DUP4 PUSH1 0xE PUSH1 0x0 PUSH2 0x100 EXP DUP2 SLOAD DUP2 PUSH20 0xFFFFFFFFFFFFFFFFFFFFFFFFFFFFFFFFFFFFFFFF MUL NOT AND SWAP1 DUP4 PUSH20 0xFFFFFFFFFFFFFFFFFFFFFFFFFFFFFFFFFFFFFFFF AND MUL OR SWAP1 SSTORE POP PUSH1 0x1 PUSH1 0x0 SWAP1 SLOAD SWAP1 PUSH2 0x100 EXP SWAP1 DIV PUSH20 0xFFFFFFFFFFFFFFFFFFFFFFFFFFFFFFFFFFFFFFFF AND PUSH20 0xFFFFFFFFFFFFFFFFFFFFFFFFFFFFFFFFFFFFFFFF AND PUSH4 0x95EA7B3 PUSH1 0x3 PUSH1 0x0 SWAP1 SLOAD SWAP1 PUSH2 0x100 EXP SWAP1 DIV PUSH20 0xFFFFFFFFFFFFFFFFFFFFFFFFFFFFFFFFFFFFFFFF AND PUSH32 0xFFFFFFFFFFFFFFFFFFFFFFFFFFFFFFFFFFFFFFFFFFFFFFFFFFFFFFFFFFFFFFFF PUSH1 0x40 MLOAD DUP4 PUSH4 0xFFFFFFFF AND PUSH1 0xE0 SHL DUP2 MSTORE PUSH1 0x4 ADD PUSH2 0x1969 SWAP3 SWAP2 SWAP1 PUSH2 0x31B1 JUMP JUMPDEST PUSH1 0x20 PUSH1 0x40 MLOAD DUP1 DUP4 SUB DUP2 PUSH1 0x0 DUP8 GAS CALL ISZERO DUP1 ISZERO PUSH2 0x1988 JUMPI RETURNDATASIZE PUSH1 0x0 DUP1 RETURNDATACOPY RETURNDATASIZE PUSH1 0x0 REVERT JUMPDEST POP POP POP POP PUSH1 0x40 MLOAD RETURNDATASIZE PUSH1 0x1F NOT PUSH1 0x1F DUP3 ADD AND DUP3 ADD DUP1 PUSH1 0x40 MSTORE POP DUP2 ADD SWAP1 PUSH2 0x19AC SWAP2 SWAP1 PUSH2 0x31EF JUMP JUMPDEST PUSH2 0x19EB JUMPI PUSH1 0x40 MLOAD PUSH32 0x8C379A000000000000000000000000000000000000000000000000000000000 DUP2 MSTORE PUSH1 0x4 ADD PUSH2 0x19E2 SWAP1 PUSH2 0x35F8 JUMP JUMPDEST PUSH1 0x40 MLOAD DUP1 SWAP2 SUB SWAP1 REVERT JUMPDEST PUSH1 0x2 PUSH1 0x0 SWAP1 SLOAD SWAP1 PUSH2 0x100 EXP SWAP1 DIV PUSH20 0xFFFFFFFFFFFFFFFFFFFFFFFFFFFFFFFFFFFFFFFF AND PUSH20 0xFFFFFFFFFFFFFFFFFFFFFFFFFFFFFFFFFFFFFFFF AND PUSH4 0x9AD42030 PUSH1 0xE PUSH1 0x0 SWAP1 SLOAD SWAP1 PUSH2 0x100 EXP SWAP1 DIV PUSH20 0xFFFFFFFFFFFFFFFFFFFFFFFFFFFFFFFFFFFFFFFF AND PUSH1 0x6 PUSH1 0x0 SWAP1 SLOAD SWAP1 PUSH2 0x100 EXP SWAP1 DIV PUSH20 0xFFFFFFFFFFFFFFFFFFFFFFFFFFFFFFFFFFFFFFFF AND DUP7 DUP7 PUSH1 0x40 MLOAD DUP6 PUSH4 0xFFFFFFFF AND PUSH1 0xE0 SHL DUP2 MSTORE PUSH1 0x4 ADD PUSH2 0x1A90 SWAP5 SWAP4 SWAP3 SWAP2 SWAP1 PUSH2 0x37B3 JUMP JUMPDEST PUSH1 0x0 PUSH1 0x40 MLOAD DUP1 DUP4 SUB DUP2 PUSH1 0x0 DUP8 DUP1 EXTCODESIZE ISZERO DUP1 ISZERO PUSH2 0x1AAA JUMPI PUSH1 0x0 DUP1 REVERT JUMPDEST POP GAS CALL ISZERO DUP1 ISZERO PUSH2 0x1ABE JUMPI RETURNDATASIZE PUSH1 0x0 DUP1 RETURNDATACOPY RETURNDATASIZE PUSH1 0x0 REVERT JUMPDEST POP POP POP POP PUSH1 0x2 PUSH1 0x0 SWAP1 SLOAD SWAP1 PUSH2 0x100 EXP SWAP1 DIV PUSH20 0xFFFFFFFFFFFFFFFFFFFFFFFFFFFFFFFFFFFFFFFF AND PUSH20 0xFFFFFFFFFFFFFFFFFFFFFFFFFFFFFFFFFFFFFFFF AND PUSH4 0xBEB26755 PUSH1 0xE PUSH1 0x0 SWAP1 SLOAD SWAP1 PUSH2 0x100 EXP SWAP1 DIV PUSH20 0xFFFFFFFFFFFFFFFFFFFFFFFFFFFFFFFFFFFFFFFF AND PUSH1 0x40 MLOAD DUP3 PUSH4 0xFFFFFFFF AND PUSH1 0xE0 SHL DUP2 MSTORE PUSH1 0x4 ADD PUSH2 0x1B3F SWAP2 SWAP1 PUSH2 0x29CD JUMP JUMPDEST PUSH1 0x20 PUSH1 0x40 MLOAD DUP1 DUP4 SUB DUP2 DUP7 GAS STATICCALL ISZERO DUP1 ISZERO PUSH2 0x1B5C JUMPI RETURNDATASIZE PUSH1 0x0 DUP1 RETURNDATACOPY RETURNDATASIZE PUSH1 0x0 REVERT JUMPDEST POP POP POP POP PUSH1 0x40 MLOAD RETURNDATASIZE PUSH1 0x1F NOT PUSH1 0x1F DUP3 ADD AND DUP3 ADD DUP1 PUSH1 0x40 MSTORE POP DUP2 ADD SWAP1 PUSH2 0x1B80 SWAP2 SWAP1 PUSH2 0x304A JUMP JUMPDEST PUSH1 0xD DUP2 SWAP1 SSTORE POP PUSH1 0x1 PUSH1 0xE PUSH1 0x14 PUSH2 0x100 EXP DUP2 SLOAD DUP2 PUSH1 0xFF MUL NOT AND SWAP1 DUP4 ISZERO ISZERO MUL OR SWAP1 SSTORE POP PUSH1 0xE PUSH1 0x0 SWAP1 SLOAD SWAP1 PUSH2 0x100 EXP SWAP1 DIV PUSH20 0xFFFFFFFFFFFFFFFFFFFFFFFFFFFFFFFFFFFFFFFF AND PUSH20 0xFFFFFFFFFFFFFFFFFFFFFFFFFFFFFFFFFFFFFFFF AND PUSH32 0xB1E87A33084279CB2BFF2D1271034CF695F539EE73BBD934D1625703D585D84A DUP5 PUSH1 0xE PUSH1 0x14 SWAP1 SLOAD SWAP1 PUSH2 0x100 EXP SWAP1 DIV PUSH1 0xFF AND PUSH1 0x40 MLOAD PUSH2 0x1C1A SWAP3 SWAP2 SWAP1 PUSH2 0x37FF JUMP JUMPDEST PUSH1 0x40 MLOAD DUP1 SWAP2 SUB SWAP1 LOG2 POP POP POP POP JUMP JUMPDEST PUSH1 0x0 PUSH2 0x1C32 PUSH2 0x25A4 JUMP JUMPDEST SWAP1 POP PUSH1 0x0 DUP2 PUSH1 0x0 ADD PUSH1 0x8 SWAP1 SLOAD SWAP1 PUSH2 0x100 EXP SWAP1 DIV PUSH1 0xFF AND ISZERO SWAP1 POP PUSH1 0x0 DUP3 PUSH1 0x0 ADD PUSH1 0x0 SWAP1 SLOAD SWAP1 PUSH2 0x100 EXP SWAP1 DIV PUSH8 0xFFFFFFFFFFFFFFFF AND SWAP1 POP PUSH1 0x0 DUP1 DUP3 PUSH8 0xFFFFFFFFFFFFFFFF AND EQ DUP1 ISZERO PUSH2 0x1C80 JUMPI POP DUP3 JUMPDEST SWAP1 POP PUSH1 0x0 PUSH1 0x1 DUP4 PUSH8 0xFFFFFFFFFFFFFFFF AND EQ DUP1 ISZERO PUSH2 0x1CB5 JUMPI POP PUSH1 0x0 ADDRESS PUSH20 0xFFFFFFFFFFFFFFFFFFFFFFFFFFFFFFFFFFFFFFFF AND EXTCODESIZE EQ JUMPDEST SWAP1 POP DUP2 ISZERO DUP1 ISZERO PUSH2 0x1CC3 JUMPI POP DUP1 ISZERO JUMPDEST ISZERO PUSH2 0x1CFA JUMPI PUSH1 0x40 MLOAD PUSH32 0xF92EE8A900000000000000000000000000000000000000000000000000000000 DUP2 MSTORE PUSH1 0x4 ADD PUSH1 0x40 MLOAD DUP1 SWAP2 SUB SWAP1 REVERT JUMPDEST PUSH1 0x1 DUP6 PUSH1 0x0 ADD PUSH1 0x0 PUSH2 0x100 EXP DUP2 SLOAD DUP2 PUSH8 0xFFFFFFFFFFFFFFFF MUL NOT AND SWAP1 DUP4 PUSH8 0xFFFFFFFFFFFFFFFF AND MUL OR SWAP1 SSTORE POP DUP4 ISZERO PUSH2 0x1D4A JUMPI PUSH1 0x1 DUP6 PUSH1 0x0 ADD PUSH1 0x8 PUSH2 0x100 EXP DUP2 SLOAD DUP2 PUSH1 0xFF MUL NOT AND SWAP1 DUP4 ISZERO ISZERO MUL OR SWAP1 SSTORE POP JUMPDEST PUSH1 0x0 PUSH20 0xFFFFFFFFFFFFFFFFFFFFFFFFFFFFFFFFFFFFFFFF AND DUP13 PUSH20 0xFFFFFFFFFFFFFFFFFFFFFFFFFFFFFFFFFFFFFFFF AND EQ ISZERO DUP1 ISZERO PUSH2 0x1DB4 JUMPI POP PUSH1 0x0 PUSH20 0xFFFFFFFFFFFFFFFFFFFFFFFFFFFFFFFFFFFFFFFF AND DUP12 PUSH20 0xFFFFFFFFFFFFFFFFFFFFFFFFFFFFFFFFFFFFFFFF AND EQ ISZERO JUMPDEST DUP1 ISZERO PUSH2 0x1DED JUMPI POP PUSH1 0x0 PUSH20 0xFFFFFFFFFFFFFFFFFFFFFFFFFFFFFFFFFFFFFFFF AND DUP11 PUSH20 0xFFFFFFFFFFFFFFFFFFFFFFFFFFFFFFFFFFFFFFFF AND EQ ISZERO JUMPDEST DUP1 ISZERO PUSH2 0x1E26 JUMPI POP PUSH1 0x0 PUSH20 0xFFFFFFFFFFFFFFFFFFFFFFFFFFFFFFFFFFFFFFFF AND DUP8 PUSH20 0xFFFFFFFFFFFFFFFFFFFFFFFFFFFFFFFFFFFFFFFF AND EQ ISZERO JUMPDEST DUP1 ISZERO PUSH2 0x1E5F JUMPI POP PUSH1 0x0 PUSH20 0xFFFFFFFFFFFFFFFFFFFFFFFFFFFFFFFFFFFFFFFF AND DUP7 PUSH20 0xFFFFFFFFFFFFFFFFFFFFFFFFFFFFFFFFFFFFFFFF AND EQ ISZERO JUMPDEST PUSH2 0x1E9E JUMPI PUSH1 0x40 MLOAD PUSH32 0x8C379A000000000000000000000000000000000000000000000000000000000 DUP2 MSTORE PUSH1 0x4 ADD PUSH2 0x1E95 SWAP1 PUSH2 0x3874 JUMP JUMPDEST PUSH1 0x40 MLOAD DUP1 SWAP2 SUB SWAP1 REVERT JUMPDEST PUSH2 0x1EA7 CALLER PUSH2 0x25CC JUMP JUMPDEST DUP12 PUSH1 0x1 PUSH1 0x0 PUSH2 0x100 EXP DUP2 SLOAD DUP2 PUSH20 0xFFFFFFFFFFFFFFFFFFFFFFFFFFFFFFFFFFFFFFFF MUL NOT AND SWAP1 DUP4 PUSH20 0xFFFFFFFFFFFFFFFFFFFFFFFFFFFFFFFFFFFFFFFF AND MUL OR SWAP1 SSTORE POP DUP11 PUSH1 0x2 PUSH1 0x0 PUSH2 0x100 EXP DUP2 SLOAD DUP2 PUSH20 0xFFFFFFFFFFFFFFFFFFFFFFFFFFFFFFFFFFFFFFFF MUL NOT AND SWAP1 DUP4 PUSH20 0xFFFFFFFFFFFFFFFFFFFFFFFFFFFFFFFFFFFFFFFF AND MUL OR SWAP1 SSTORE POP PUSH1 0x2 PUSH1 0x0 SWAP1 SLOAD SWAP1 PUSH2 0x100 EXP SWAP1 DIV PUSH20 0xFFFFFFFFFFFFFFFFFFFFFFFFFFFFFFFFFFFFFFFF AND PUSH20 0xFFFFFFFFFFFFFFFFFFFFFFFFFFFFFFFFFFFFFFFF AND PUSH4 0xE2FDCC17 PUSH1 0x40 MLOAD DUP2 PUSH4 0xFFFFFFFF AND PUSH1 0xE0 SHL DUP2 MSTORE PUSH1 0x4 ADD PUSH1 0x20 PUSH1 0x40 MLOAD DUP1 DUP4 SUB DUP2 DUP7 GAS STATICCALL ISZERO DUP1 ISZERO PUSH2 0x1F96 JUMPI RETURNDATASIZE PUSH1 0x0 DUP1 RETURNDATACOPY RETURNDATASIZE PUSH1 0x0 REVERT JUMPDEST POP POP POP POP PUSH1 0x40 MLOAD RETURNDATASIZE PUSH1 0x1F NOT PUSH1 0x1F DUP3 ADD AND DUP3 ADD DUP1 PUSH1 0x40 MSTORE POP DUP2 ADD SWAP1 PUSH2 0x1FBA SWAP2 SWAP1 PUSH2 0x38D2 JUMP JUMPDEST PUSH1 0x3 PUSH1 0x0 PUSH2 0x100 EXP DUP2 SLOAD DUP2 PUSH20 0xFFFFFFFFFFFFFFFFFFFFFFFFFFFFFFFFFFFFFFFF MUL NOT AND SWAP1 DUP4 PUSH20 0xFFFFFFFFFFFFFFFFFFFFFFFFFFFFFFFFFFFFFFFF AND MUL OR SWAP1 SSTORE POP DUP10 PUSH20 0xFFFFFFFFFFFFFFFFFFFFFFFFFFFFFFFFFFFFFFFF AND PUSH4 0x3CB747BF PUSH1 0x40 MLOAD DUP2 PUSH4 0xFFFFFFFF AND PUSH1 0xE0 SHL DUP2 MSTORE PUSH1 0x4 ADD PUSH1 0x20 PUSH1 0x40 MLOAD DUP1 DUP4 SUB DUP2 DUP7 GAS STATICCALL ISZERO DUP1 ISZERO PUSH2 0x2045 JUMPI RETURNDATASIZE PUSH1 0x0 DUP1 RETURNDATACOPY RETURNDATASIZE PUSH1 0x0 REVERT JUMPDEST POP POP POP POP PUSH1 0x40 MLOAD RETURNDATASIZE PUSH1 0x1F NOT PUSH1 0x1F DUP3 ADD AND DUP3 ADD DUP1 PUSH1 0x40 MSTORE POP DUP2 ADD SWAP1 PUSH2 0x2069 SWAP2 SWAP1 PUSH2 0x3184 JUMP JUMPDEST PUSH1 0x4 PUSH1 0x0 PUSH2 0x100 EXP DUP2 SLOAD DUP2 PUSH20 0xFFFFFFFFFFFFFFFFFFFFFFFFFFFFFFFFFFFFFFFF MUL NOT AND SWAP1 DUP4 PUSH20 0xFFFFFFFFFFFFFFFFFFFFFFFFFFFFFFFFFFFFFFFF AND MUL OR SWAP1 SSTORE POP DUP9 PUSH1 0x5 DUP2 SWAP1 SSTORE POP DUP8 PUSH1 0xC PUSH1 0x0 PUSH2 0x100 EXP DUP2 SLOAD DUP2 PUSH4 0xFFFFFFFF MUL NOT AND SWAP1 DUP4 PUSH4 0xFFFFFFFF AND MUL OR SWAP1 SSTORE POP DUP7 PUSH1 0x6 PUSH1 0x0 PUSH2 0x100 EXP DUP2 SLOAD DUP2 PUSH20 0xFFFFFFFFFFFFFFFFFFFFFFFFFFFFFFFFFFFFFFFF MUL NOT AND SWAP1 DUP4 PUSH20 0xFFFFFFFFFFFFFFFFFFFFFFFFFFFFFFFFFFFFFFFF AND MUL OR SWAP1 SSTORE POP DUP6 PUSH1 0x7 PUSH1 0x0 PUSH2 0x100 EXP DUP2 SLOAD DUP2 PUSH20 0xFFFFFFFFFFFFFFFFFFFFFFFFFFFFFFFFFFFFFFFF MUL NOT AND SWAP1 DUP4 PUSH20 0xFFFFFFFFFFFFFFFFFFFFFFFFFFFFFFFFFFFFFFFF AND MUL OR SWAP1 SSTORE POP DUP4 ISZERO PUSH2 0x21AF JUMPI PUSH1 0x0 DUP6 PUSH1 0x0 ADD PUSH1 0x8 PUSH2 0x100 EXP DUP2 SLOAD DUP2 PUSH1 0xFF MUL NOT AND SWAP1 DUP4 ISZERO ISZERO MUL OR SWAP1 SSTORE POP PUSH32 0xC7F505B2F371AE2175EE4913F4499E1F2633A7B5936321EED1CDAEB6115181D2 PUSH1 0x1 PUSH1 0x40 MLOAD PUSH2 0x21A6 SWAP2 SWAP1 PUSH2 0x394E JUMP JUMPDEST PUSH1 0x40 MLOAD DUP1 SWAP2 SUB SWAP1 LOG1 JUMPDEST POP POP POP POP POP POP POP POP POP POP POP POP JUMP JUMPDEST PUSH1 0xE PUSH1 0x0 SWAP1 SLOAD SWAP1 PUSH2 0x100 EXP SWAP1 DIV PUSH20 0xFFFFFFFFFFFFFFFFFFFFFFFFFFFFFFFFFFFFFFFF AND DUP2 JUMP JUMPDEST PUSH1 0xC PUSH1 0x4 SWAP1 SLOAD SWAP1 PUSH2 0x100 EXP SWAP1 DIV PUSH1 0xFF AND DUP2 JUMP JUMPDEST PUSH1 0x5 SLOAD DUP2 JUMP JUMPDEST PUSH1 0x1 PUSH1 0x0 SWAP1 SLOAD SWAP1 PUSH2 0x100 EXP SWAP1 DIV PUSH20 0xFFFFFFFFFFFFFFFFFFFFFFFFFFFFFFFFFFFFFFFF AND DUP2 JUMP JUMPDEST PUSH1 0x7 PUSH1 0x0 SWAP1 SLOAD SWAP1 PUSH2 0x100 EXP SWAP1 DIV PUSH20 0xFFFFFFFFFFFFFFFFFFFFFFFFFFFFFFFFFFFFFFFF AND DUP2 JUMP JUMPDEST PUSH2 0x2250 PUSH2 0x23EE JUMP JUMPDEST PUSH1 0x0 PUSH20 0xFFFFFFFFFFFFFFFFFFFFFFFFFFFFFFFFFFFFFFFF AND DUP2 PUSH20 0xFFFFFFFFFFFFFFFFFFFFFFFFFFFFFFFFFFFFFFFF AND SUB PUSH2 0x22C2 JUMPI PUSH1 0x0 PUSH1 0x40 MLOAD PUSH32 0x1E4FBDF700000000000000000000000000000000000000000000000000000000 DUP2 MSTORE PUSH1 0x4 ADD PUSH2 0x22B9 SWAP2 SWAP1 PUSH2 0x29CD JUMP JUMPDEST PUSH1 0x40 MLOAD DUP1 SWAP2 SUB SWAP1 REVERT JUMPDEST PUSH2 0x22CB DUP2 PUSH2 0x24A5 JUMP JUMPDEST POP JUMP JUMPDEST PUSH1 0x3 PUSH1 0x0 SWAP1 SLOAD SWAP1 PUSH2 0x100 EXP SWAP1 DIV PUSH20 0xFFFFFFFFFFFFFFFFFFFFFFFFFFFFFFFFFFFFFFFF AND DUP2 JUMP JUMPDEST PUSH2 0x22FC PUSH2 0x23EE JUMP JUMPDEST DUP1 PUSH1 0x6 PUSH1 0x0 PUSH2 0x100 EXP DUP2 SLOAD DUP2 PUSH20 0xFFFFFFFFFFFFFFFFFFFFFFFFFFFFFFFFFFFFFFFF MUL NOT AND SWAP1 DUP4 PUSH20 0xFFFFFFFFFFFFFFFFFFFFFFFFFFFFFFFFFFFFFFFF AND MUL OR SWAP1 SSTORE POP POP JUMP JUMPDEST PUSH2 0x2348 PUSH2 0x23EE JUMP JUMPDEST PUSH1 0x2 PUSH1 0x0 SWAP1 SLOAD SWAP1 PUSH2 0x100 EXP SWAP1 DIV PUSH20 0xFFFFFFFFFFFFFFFFFFFFFFFFFFFFFFFFFFFFFFFF AND PUSH20 0xFFFFFFFFFFFFFFFFFFFFFFFFFFFFFFFFFFFFFFFF AND PUSH4 0x8DDC74DE CALLVALUE PUSH1 0xD SLOAD PUSH1 0xC PUSH1 0x0 SWAP1 SLOAD SWAP1 PUSH2 0x100 EXP SWAP1 DIV PUSH4 0xFFFFFFFF AND PUSH1 0x40 MLOAD DUP5 PUSH4 0xFFFFFFFF AND PUSH1 0xE0 SHL DUP2 MSTORE PUSH1 0x4 ADD PUSH2 0x23BA SWAP3 SWAP2 SWAP1 PUSH2 0x32F0 JUMP JUMPDEST PUSH1 0x0 PUSH1 0x40 MLOAD DUP1 DUP4 SUB DUP2 DUP6 DUP9 DUP1 EXTCODESIZE ISZERO DUP1 ISZERO PUSH2 0x23D3 JUMPI PUSH1 0x0 DUP1 REVERT JUMPDEST POP GAS CALL ISZERO DUP1 ISZERO PUSH2 0x23E7 JUMPI RETURNDATASIZE PUSH1 0x0 DUP1 RETURNDATACOPY RETURNDATASIZE PUSH1 0x0 REVERT JUMPDEST POP POP POP POP POP JUMP JUMPDEST PUSH2 0x23F6 PUSH2 0x25E0 JUMP JUMPDEST PUSH20 0xFFFFFFFFFFFFFFFFFFFFFFFFFFFFFFFFFFFFFFFF AND PUSH2 0x2414 PUSH2 0x12C2 JUMP JUMPDEST PUSH20 0xFFFFFFFFFFFFFFFFFFFFFFFFFFFFFFFFFFFFFFFF AND EQ PUSH2 0x2473 JUMPI PUSH2 0x2437 PUSH2 0x25E0 JUMP JUMPDEST PUSH1 0x40 MLOAD PUSH32 0x118CDAA700000000000000000000000000000000000000000000000000000000 DUP2 MSTORE PUSH1 0x4 ADD PUSH2 0x246A SWAP2 SWAP1 PUSH2 0x29CD JUMP JUMPDEST PUSH1 0x40 MLOAD DUP1 SWAP2 SUB SWAP1 REVERT JUMPDEST JUMP JUMPDEST PUSH1 0x0 DUP1 PUSH2 0x2480 PUSH2 0x25E8 JUMP JUMPDEST SWAP1 POP PUSH1 0x20 DUP2 ADD MLOAD SWAP2 POP POP SWAP1 JUMP JUMPDEST PUSH1 0x0 DUP1 PUSH2 0x2498 PUSH2 0x25E8 JUMP JUMPDEST SWAP1 POP PUSH1 0x40 DUP2 ADD MLOAD SWAP2 POP POP SWAP1 JUMP JUMPDEST PUSH1 0x0 PUSH2 0x24AF PUSH2 0x257C JUMP JUMPDEST SWAP1 POP PUSH1 0x0 DUP2 PUSH1 0x0 ADD PUSH1 0x0 SWAP1 SLOAD SWAP1 PUSH2 0x100 EXP SWAP1 DIV PUSH20 0xFFFFFFFFFFFFFFFFFFFFFFFFFFFFFFFFFFFFFFFF AND SWAP1 POP DUP3 DUP3 PUSH1 0x0 ADD PUSH1 0x0 PUSH2 0x100 EXP DUP2 SLOAD DUP2 PUSH20 0xFFFFFFFFFFFFFFFFFFFFFFFFFFFFFFFFFFFFFFFF MUL NOT AND SWAP1 DUP4 PUSH20 0xFFFFFFFFFFFFFFFFFFFFFFFFFFFFFFFFFFFFFFFF AND MUL OR SWAP1 SSTORE POP DUP3 PUSH20 0xFFFFFFFFFFFFFFFFFFFFFFFFFFFFFFFFFFFFFFFF AND DUP2 PUSH20 0xFFFFFFFFFFFFFFFFFFFFFFFFFFFFFFFFFFFFFFFF AND PUSH32 0x8BE0079C531659141344CD1FD0A4F28419497F9722A3DAAFE3B4186F6B6457E0 PUSH1 0x40 MLOAD PUSH1 0x40 MLOAD DUP1 SWAP2 SUB SWAP1 LOG3 POP POP POP JUMP JUMPDEST PUSH1 0x0 PUSH32 0x9016D09D72D40FDAE2FD8CEAC6B6234C7706214FD39C1CD1E609A0528C199300 SWAP1 POP SWAP1 JUMP JUMPDEST PUSH1 0x0 PUSH32 0xF0C57E16840DF040F15088DC2F81FE391C3923BEC73E23A9662EFC9C229C6A00 SWAP1 POP SWAP1 JUMP JUMPDEST PUSH2 0x25D4 PUSH2 0x2750 JUMP JUMPDEST PUSH2 0x25DD DUP2 PUSH2 0x2790 JUMP JUMPDEST POP JUMP JUMPDEST PUSH1 0x0 CALLER SWAP1 POP SWAP1 JUMP JUMPDEST PUSH1 0x60 PUSH1 0x0 DUP1 PUSH1 0x2 PUSH1 0x0 SWAP1 SLOAD SWAP1 PUSH2 0x100 EXP SWAP1 DIV PUSH20 0xFFFFFFFFFFFFFFFFFFFFFFFFFFFFFFFFFFFFFFFF AND PUSH20 0xFFFFFFFFFFFFFFFFFFFFFFFFFFFFFFFFFFFFFFFF AND PUSH1 0xD SLOAD PUSH1 0x40 MLOAD PUSH1 0x24 ADD PUSH2 0x2639 SWAP2 SWAP1 PUSH2 0x2971 JUMP JUMPDEST PUSH1 0x40 MLOAD PUSH1 0x20 DUP2 DUP4 SUB SUB DUP2 MSTORE SWAP1 PUSH1 0x40 MSTORE PUSH32 0x6BA7CCFF00000000000000000000000000000000000000000000000000000000 PUSH28 0xFFFFFFFFFFFFFFFFFFFFFFFFFFFFFFFFFFFFFFFFFFFFFFFFFFFFFFFF NOT AND PUSH1 0x20 DUP3 ADD DUP1 MLOAD PUSH28 0xFFFFFFFFFFFFFFFFFFFFFFFFFFFFFFFFFFFFFFFFFFFFFFFFFFFFFFFF DUP4 DUP2 DUP4 AND OR DUP4 MSTORE POP POP POP POP PUSH1 0x40 MLOAD PUSH2 0x26C3 SWAP2 SWAP1 PUSH2 0x39A5 JUMP JUMPDEST PUSH1 0x0 PUSH1 0x40 MLOAD DUP1 DUP4 SUB DUP2 DUP6 GAS STATICCALL SWAP2 POP POP RETURNDATASIZE DUP1 PUSH1 0x0 DUP2 EQ PUSH2 0x26FE JUMPI PUSH1 0x40 MLOAD SWAP2 POP PUSH1 0x1F NOT PUSH1 0x3F RETURNDATASIZE ADD AND DUP3 ADD PUSH1 0x40 MSTORE RETURNDATASIZE DUP3 MSTORE RETURNDATASIZE PUSH1 0x0 PUSH1 0x20 DUP5 ADD RETURNDATACOPY PUSH2 0x2703 JUMP JUMPDEST PUSH1 0x60 SWAP2 POP JUMPDEST POP SWAP2 POP SWAP2 POP DUP2 PUSH2 0x2748 JUMPI PUSH1 0x40 MLOAD PUSH32 0x8C379A000000000000000000000000000000000000000000000000000000000 DUP2 MSTORE PUSH1 0x4 ADD PUSH2 0x273F SWAP1 PUSH2 0x3A2E JUMP JUMPDEST PUSH1 0x40 MLOAD DUP1 SWAP2 SUB SWAP1 REVERT JUMPDEST DUP1 SWAP3 POP POP POP SWAP1 JUMP JUMPDEST PUSH2 0x2758 PUSH2 0x2816 JUMP JUMPDEST PUSH2 0x278E JUMPI PUSH1 0x40 MLOAD PUSH32 0xD7E6BCF800000000000000000000000000000000000000000000000000000000 DUP2 MSTORE PUSH1 0x4 ADD PUSH1 0x40 MLOAD DUP1 SWAP2 SUB SWAP1 REVERT JUMPDEST JUMP JUMPDEST PUSH2 0x2798 PUSH2 0x2750 JUMP JUMPDEST PUSH1 0x0 PUSH20 0xFFFFFFFFFFFFFFFFFFFFFFFFFFFFFFFFFFFFFFFF AND DUP2 PUSH20 0xFFFFFFFFFFFFFFFFFFFFFFFFFFFFFFFFFFFFFFFF AND SUB PUSH2 0x280A JUMPI PUSH1 0x0 PUSH1 0x40 MLOAD PUSH32 0x1E4FBDF700000000000000000000000000000000000000000000000000000000 DUP2 MSTORE PUSH1 0x4 ADD PUSH2 0x2801 SWAP2 SWAP1 PUSH2 0x29CD JUMP JUMPDEST PUSH1 0x40 MLOAD DUP1 SWAP2 SUB SWAP1 REVERT JUMPDEST PUSH2 0x2813 DUP2 PUSH2 0x24A5 JUMP JUMPDEST POP JUMP JUMPDEST PUSH1 0x0 PUSH2 0x2820 PUSH2 0x25A4 JUMP JUMPDEST PUSH1 0x0 ADD PUSH1 0x8 SWAP1 SLOAD SWAP1 PUSH2 0x100 EXP SWAP1 DIV PUSH1 0xFF AND SWAP1 POP SWAP1 JUMP JUMPDEST PUSH1 0x40 MLOAD DUP1 PUSH2 0x140 ADD PUSH1 0x40 MSTORE DUP1 PUSH1 0x0 DUP2 MSTORE PUSH1 0x20 ADD PUSH1 0x0 DUP2 MSTORE PUSH1 0x20 ADD PUSH1 0x0 DUP2 MSTORE PUSH1 0x20 ADD PUSH1 0x0 DUP2 MSTORE PUSH1 0x20 ADD PUSH1 0x0 DUP2 MSTORE PUSH1 0x20 ADD PUSH1 0x0 DUP2 MSTORE PUSH1 0x20 ADD PUSH1 0x0 DUP2 MSTORE PUSH1 0x20 ADD PUSH1 0x0 DUP2 MSTORE PUSH1 0x20 ADD PUSH1 0x0 PUSH20 0xFFFFFFFFFFFFFFFFFFFFFFFFFFFFFFFFFFFFFFFF AND DUP2 MSTORE PUSH1 0x20 ADD PUSH1 0x0 PUSH20 0xFFFFFFFFFFFFFFFFFFFFFFFFFFFFFFFFFFFFFFFF AND DUP2 MSTORE POP SWAP1 JUMP JUMPDEST PUSH1 0x0 PUSH1 0x40 MLOAD SWAP1 POP SWAP1 JUMP JUMPDEST PUSH1 0x0 DUP1 REVERT JUMPDEST PUSH1 0x0 DUP1 REVERT JUMPDEST PUSH1 0x0 DUP2 SWAP1 POP SWAP2 SWAP1 POP JUMP JUMPDEST PUSH2 0x28DC DUP2 PUSH2 0x28C9 JUMP JUMPDEST DUP2 EQ PUSH2 0x28E7 JUMPI PUSH1 0x0 DUP1 REVERT JUMPDEST POP JUMP JUMPDEST PUSH1 0x0 DUP2 CALLDATALOAD SWAP1 POP PUSH2 0x28F9 DUP2 PUSH2 0x28D3 JUMP JUMPDEST SWAP3 SWAP2 POP POP JUMP JUMPDEST PUSH1 0x0 PUSH1 0x20 DUP3 DUP5 SUB SLT ISZERO PUSH2 0x2915 JUMPI PUSH2 0x2914 PUSH2 0x28BF JUMP JUMPDEST JUMPDEST PUSH1 0x0 PUSH2 0x2923 DUP5 DUP3 DUP6 ADD PUSH2 0x28EA JUMP JUMPDEST SWAP2 POP POP SWAP3 SWAP2 POP POP JUMP JUMPDEST PUSH1 0x0 DUP2 ISZERO ISZERO SWAP1 POP SWAP2 SWAP1 POP JUMP JUMPDEST PUSH2 0x2941 DUP2 PUSH2 0x292C JUMP JUMPDEST DUP3 MSTORE POP POP JUMP JUMPDEST PUSH1 0x0 PUSH1 0x20 DUP3 ADD SWAP1 POP PUSH2 0x295C PUSH1 0x0 DUP4 ADD DUP5 PUSH2 0x2938 JUMP JUMPDEST SWAP3 SWAP2 POP POP JUMP JUMPDEST PUSH2 0x296B DUP2 PUSH2 0x28C9 JUMP JUMPDEST DUP3 MSTORE POP POP JUMP JUMPDEST PUSH1 0x0 PUSH1 0x20 DUP3 ADD SWAP1 POP PUSH2 0x2986 PUSH1 0x0 DUP4 ADD DUP5 PUSH2 0x2962 JUMP JUMPDEST SWAP3 SWAP2 POP POP JUMP JUMPDEST PUSH1 0x0 PUSH20 0xFFFFFFFFFFFFFFFFFFFFFFFFFFFFFFFFFFFFFFFF DUP3 AND SWAP1 POP SWAP2 SWAP1 POP JUMP JUMPDEST PUSH1 0x0 PUSH2 0x29B7 DUP3 PUSH2 0x298C JUMP JUMPDEST SWAP1 POP SWAP2 SWAP1 POP JUMP JUMPDEST PUSH2 0x29C7 DUP2 PUSH2 0x29AC JUMP JUMPDEST DUP3 MSTORE POP POP JUMP JUMPDEST PUSH1 0x0 PUSH1 0x20 DUP3 ADD SWAP1 POP PUSH2 0x29E2 PUSH1 0x0 DUP4 ADD DUP5 PUSH2 0x29BE JUMP JUMPDEST SWAP3 SWAP2 POP POP JUMP JUMPDEST PUSH1 0x0 PUSH4 0xFFFFFFFF DUP3 AND SWAP1 POP SWAP2 SWAP1 POP JUMP JUMPDEST PUSH2 0x2A01 DUP2 PUSH2 0x29E8 JUMP JUMPDEST DUP3 MSTORE POP POP JUMP JUMPDEST PUSH1 0x0 PUSH1 0x20 DUP3 ADD SWAP1 POP PUSH2 0x2A1C PUSH1 0x0 DUP4 ADD DUP5 PUSH2 0x29F8 JUMP JUMPDEST SWAP3 SWAP2 POP POP JUMP JUMPDEST PUSH2 0x2A2B DUP2 PUSH2 0x29E8 JUMP JUMPDEST DUP2 EQ PUSH2 0x2A36 JUMPI PUSH1 0x0 DUP1 REVERT JUMPDEST POP JUMP JUMPDEST PUSH1 0x0 DUP2 CALLDATALOAD SWAP1 POP PUSH2 0x2A48 DUP2 PUSH2 0x2A22 JUMP JUMPDEST SWAP3 SWAP2 POP POP JUMP JUMPDEST PUSH1 0x0 PUSH1 0x20 DUP3 DUP5 SUB SLT ISZERO PUSH2 0x2A64 JUMPI PUSH2 0x2A63 PUSH2 0x28BF JUMP JUMPDEST JUMPDEST PUSH1 0x0 PUSH2 0x2A72 DUP5 DUP3 DUP6 ADD PUSH2 0x2A39 JUMP JUMPDEST SWAP2 POP POP SWAP3 SWAP2 POP POP JUMP JUMPDEST PUSH2 0x2A84 DUP2 PUSH2 0x29AC JUMP JUMPDEST DUP2 EQ PUSH2 0x2A8F JUMPI PUSH1 0x0 DUP1 REVERT JUMPDEST POP JUMP JUMPDEST PUSH1 0x0 DUP2 CALLDATALOAD SWAP1 POP PUSH2 0x2AA1 DUP2 PUSH2 0x2A7B JUMP JUMPDEST SWAP3 SWAP2 POP POP JUMP JUMPDEST PUSH1 0x0 PUSH1 0x20 DUP3 DUP5 SUB SLT ISZERO PUSH2 0x2ABD JUMPI PUSH2 0x2ABC PUSH2 0x28BF JUMP JUMPDEST JUMPDEST PUSH1 0x0 PUSH2 0x2ACB DUP5 DUP3 DUP6 ADD PUSH2 0x2A92 JUMP JUMPDEST SWAP2 POP POP SWAP3 SWAP2 POP POP JUMP JUMPDEST PUSH1 0x0 DUP2 SWAP1 POP SWAP2 SWAP1 POP JUMP JUMPDEST PUSH1 0x0 PUSH2 0x2AF9 PUSH2 0x2AF4 PUSH2 0x2AEF DUP5 PUSH2 0x298C JUMP JUMPDEST PUSH2 0x2AD4 JUMP JUMPDEST PUSH2 0x298C JUMP JUMPDEST SWAP1 POP SWAP2 SWAP1 POP JUMP JUMPDEST PUSH1 0x0 PUSH2 0x2B0B DUP3 PUSH2 0x2ADE JUMP JUMPDEST SWAP1 POP SWAP2 SWAP1 POP JUMP JUMPDEST PUSH1 0x0 PUSH2 0x2B1D DUP3 PUSH2 0x2B00 JUMP JUMPDEST SWAP1 POP SWAP2 SWAP1 POP JUMP JUMPDEST PUSH2 0x2B2D DUP2 PUSH2 0x2B12 JUMP JUMPDEST DUP3 MSTORE POP POP JUMP JUMPDEST PUSH1 0x0 PUSH1 0x20 DUP3 ADD SWAP1 POP PUSH2 0x2B48 PUSH1 0x0 DUP4 ADD DUP5 PUSH2 0x2B24 JUMP JUMPDEST SWAP3 SWAP2 POP POP JUMP JUMPDEST PUSH2 0x2B57 DUP2 PUSH2 0x28C9 JUMP JUMPDEST DUP3 MSTORE POP POP JUMP JUMPDEST PUSH2 0x2B66 DUP2 PUSH2 0x29AC JUMP JUMPDEST DUP3 MSTORE POP POP JUMP JUMPDEST PUSH2 0x140 DUP3 ADD PUSH1 0x0 DUP3 ADD MLOAD PUSH2 0x2B83 PUSH1 0x0 DUP6 ADD DUP3 PUSH2 0x2B4E JUMP JUMPDEST POP PUSH1 0x20 DUP3 ADD MLOAD PUSH2 0x2B96 PUSH1 0x20 DUP6 ADD DUP3 PUSH2 0x2B4E JUMP JUMPDEST POP PUSH1 0x40 DUP3 ADD MLOAD PUSH2 0x2BA9 PUSH1 0x40 DUP6 ADD DUP3 PUSH2 0x2B4E JUMP JUMPDEST POP PUSH1 0x60 DUP3 ADD MLOAD PUSH2 0x2BBC PUSH1 0x60 DUP6 ADD DUP3 PUSH2 0x2B4E JUMP JUMPDEST POP PUSH1 0x80 DUP3 ADD MLOAD PUSH2 0x2BCF PUSH1 0x80 DUP6 ADD DUP3 PUSH2 0x2B4E JUMP JUMPDEST POP PUSH1 0xA0 DUP3 ADD MLOAD PUSH2 0x2BE2 PUSH1 0xA0 DUP6 ADD DUP3 PUSH2 0x2B4E JUMP JUMPDEST POP PUSH1 0xC0 DUP3 ADD MLOAD PUSH2 0x2BF5 PUSH1 0xC0 DUP6 ADD DUP3 PUSH2 0x2B4E JUMP JUMPDEST POP PUSH1 0xE0 DUP3 ADD MLOAD PUSH2 0x2C08 PUSH1 0xE0 DUP6 ADD DUP3 PUSH2 0x2B4E JUMP JUMPDEST POP PUSH2 0x100 DUP3 ADD MLOAD PUSH2 0x2C1D PUSH2 0x100 DUP6 ADD DUP3 PUSH2 0x2B5D JUMP JUMPDEST POP PUSH2 0x120 DUP3 ADD MLOAD PUSH2 0x2C32 PUSH2 0x120 DUP6 ADD DUP3 PUSH2 0x2B5D JUMP JUMPDEST POP POP POP POP JUMP JUMPDEST PUSH1 0x0 PUSH2 0x140 DUP3 ADD SWAP1 POP PUSH2 0x2C4E PUSH1 0x0 DUP4 ADD DUP5 PUSH2 0x2B6C JUMP JUMPDEST SWAP3 SWAP2 POP POP JUMP JUMPDEST PUSH1 0x0 PUSH2 0x2C5F DUP3 PUSH2 0x2B00 JUMP JUMPDEST SWAP1 POP SWAP2 SWAP1 POP JUMP JUMPDEST PUSH2 0x2C6F DUP2 PUSH2 0x2C54 JUMP JUMPDEST DUP3 MSTORE POP POP JUMP JUMPDEST PUSH1 0x0 PUSH1 0x20 DUP3 ADD SWAP1 POP PUSH2 0x2C8A PUSH1 0x0 DUP4 ADD DUP5 PUSH2 0x2C66 JUMP JUMPDEST SWAP3 SWAP2 POP POP JUMP JUMPDEST PUSH2 0x2C99 DUP2 PUSH2 0x292C JUMP JUMPDEST DUP2 EQ PUSH2 0x2CA4 JUMPI PUSH1 0x0 DUP1 REVERT JUMPDEST POP JUMP JUMPDEST PUSH1 0x0 DUP2 CALLDATALOAD SWAP1 POP PUSH2 0x2CB6 DUP2 PUSH2 0x2C90 JUMP JUMPDEST SWAP3 SWAP2 POP POP JUMP JUMPDEST PUSH1 0x0 PUSH1 0x20 DUP3 DUP5 SUB SLT ISZERO PUSH2 0x2CD2 JUMPI PUSH2 0x2CD1 PUSH2 0x28BF JUMP JUMPDEST JUMPDEST PUSH1 0x0 PUSH2 0x2CE0 DUP5 DUP3 DUP6 ADD PUSH2 0x2CA7 JUMP JUMPDEST SWAP2 POP POP SWAP3 SWAP2 POP POP JUMP JUMPDEST PUSH1 0x0 DUP1 REVERT JUMPDEST PUSH1 0x0 DUP1 REVERT JUMPDEST PUSH1 0x0 PUSH1 0x1F NOT PUSH1 0x1F DUP4 ADD AND SWAP1 POP SWAP2 SWAP1 POP JUMP JUMPDEST PUSH32 0x4E487B7100000000000000000000000000000000000000000000000000000000 PUSH1 0x0 MSTORE PUSH1 0x41 PUSH1 0x4 MSTORE PUSH1 0x24 PUSH1 0x0 REVERT JUMPDEST PUSH2 0x2D3C DUP3 PUSH2 0x2CF3 JUMP JUMPDEST DUP2 ADD DUP2 DUP2 LT PUSH8 0xFFFFFFFFFFFFFFFF DUP3 GT OR ISZERO PUSH2 0x2D5B JUMPI PUSH2 0x2D5A PUSH2 0x2D04 JUMP JUMPDEST JUMPDEST DUP1 PUSH1 0x40 MSTORE POP POP POP JUMP JUMPDEST PUSH1 0x0 PUSH2 0x2D6E PUSH2 0x28B5 JUMP JUMPDEST SWAP1 POP PUSH2 0x2D7A DUP3 DUP3 PUSH2 0x2D33 JUMP JUMPDEST SWAP2 SWAP1 POP JUMP JUMPDEST PUSH1 0x0 PUSH8 0xFFFFFFFFFFFFFFFF DUP3 GT ISZERO PUSH2 0x2D9A JUMPI PUSH2 0x2D99 PUSH2 0x2D04 JUMP JUMPDEST JUMPDEST PUSH2 0x2DA3 DUP3 PUSH2 0x2CF3 JUMP JUMPDEST SWAP1 POP PUSH1 0x20 DUP2 ADD SWAP1 POP SWAP2 SWAP1 POP JUMP JUMPDEST DUP3 DUP2 DUP4 CALLDATACOPY PUSH1 0x0 DUP4 DUP4 ADD MSTORE POP POP POP JUMP JUMPDEST PUSH1 0x0 PUSH2 0x2DD2 PUSH2 0x2DCD DUP5 PUSH2 0x2D7F JUMP JUMPDEST PUSH2 0x2D64 JUMP JUMPDEST SWAP1 POP DUP3 DUP2 MSTORE PUSH1 0x20 DUP2 ADD DUP5 DUP5 DUP5 ADD GT ISZERO PUSH2 0x2DEE JUMPI PUSH2 0x2DED PUSH2 0x2CEE JUMP JUMPDEST JUMPDEST PUSH2 0x2DF9 DUP5 DUP3 DUP6 PUSH2 0x2DB0 JUMP JUMPDEST POP SWAP4 SWAP3 POP POP POP JUMP JUMPDEST PUSH1 0x0 DUP3 PUSH1 0x1F DUP4 ADD SLT PUSH2 0x2E16 JUMPI PUSH2 0x2E15 PUSH2 0x2CE9 JUMP JUMPDEST JUMPDEST DUP2 CALLDATALOAD PUSH2 0x2E26 DUP5 DUP3 PUSH1 0x20 DUP7 ADD PUSH2 0x2DBF JUMP JUMPDEST SWAP2 POP POP SWAP3 SWAP2 POP POP JUMP JUMPDEST PUSH1 0x0 DUP1 PUSH1 0x0 PUSH1 0x60 DUP5 DUP7 SUB SLT ISZERO PUSH2 0x2E48 JUMPI PUSH2 0x2E47 PUSH2 0x28BF JUMP JUMPDEST JUMPDEST PUSH1 0x0 PUSH2 0x2E56 DUP7 DUP3 DUP8 ADD PUSH2 0x2A92 JUMP JUMPDEST SWAP4 POP POP PUSH1 0x20 PUSH2 0x2E67 DUP7 DUP3 DUP8 ADD PUSH2 0x28EA JUMP JUMPDEST SWAP3 POP POP PUSH1 0x40 DUP5 ADD CALLDATALOAD PUSH8 0xFFFFFFFFFFFFFFFF DUP2 GT ISZERO PUSH2 0x2E88 JUMPI PUSH2 0x2E87 PUSH2 0x28C4 JUMP JUMPDEST JUMPDEST PUSH2 0x2E94 DUP7 DUP3 DUP8 ADD PUSH2 0x2E01 JUMP JUMPDEST SWAP2 POP POP SWAP3 POP SWAP3 POP SWAP3 JUMP JUMPDEST PUSH1 0x0 DUP1 PUSH1 0x0 DUP1 PUSH1 0x0 DUP1 PUSH1 0x0 PUSH1 0xE0 DUP9 DUP11 SUB SLT ISZERO PUSH2 0x2EBD JUMPI PUSH2 0x2EBC PUSH2 0x28BF JUMP JUMPDEST JUMPDEST PUSH1 0x0 PUSH2 0x2ECB DUP11 DUP3 DUP12 ADD PUSH2 0x2A92 JUMP JUMPDEST SWAP8 POP POP PUSH1 0x20 PUSH2 0x2EDC DUP11 DUP3 DUP12 ADD PUSH2 0x2A92 JUMP JUMPDEST SWAP7 POP POP PUSH1 0x40 PUSH2 0x2EED DUP11 DUP3 DUP12 ADD PUSH2 0x2A92 JUMP JUMPDEST SWAP6 POP POP PUSH1 0x60 PUSH2 0x2EFE DUP11 DUP3 DUP12 ADD PUSH2 0x28EA JUMP JUMPDEST SWAP5 POP POP PUSH1 0x80 PUSH2 0x2F0F DUP11 DUP3 DUP12 ADD PUSH2 0x2A39 JUMP JUMPDEST SWAP4 POP POP PUSH1 0xA0 PUSH2 0x2F20 DUP11 DUP3 DUP12 ADD PUSH2 0x2A92 JUMP JUMPDEST SWAP3 POP POP PUSH1 0xC0 PUSH2 0x2F31 DUP11 DUP3 DUP12 ADD PUSH2 0x2A92 JUMP JUMPDEST SWAP2 POP POP SWAP3 SWAP6 SWAP9 SWAP2 SWAP5 SWAP8 POP SWAP3 SWAP6 POP JUMP JUMPDEST PUSH1 0x0 PUSH2 0x2F4B DUP3 PUSH2 0x2B00 JUMP JUMPDEST SWAP1 POP SWAP2 SWAP1 POP JUMP JUMPDEST PUSH2 0x2F5B DUP2 PUSH2 0x2F40 JUMP JUMPDEST DUP3 MSTORE POP POP JUMP JUMPDEST PUSH1 0x0 PUSH1 0x20 DUP3 ADD SWAP1 POP PUSH2 0x2F76 PUSH1 0x0 DUP4 ADD DUP5 PUSH2 0x2F52 JUMP JUMPDEST SWAP3 SWAP2 POP POP JUMP JUMPDEST PUSH1 0x0 PUSH2 0x2F87 DUP3 PUSH2 0x2B00 JUMP JUMPDEST SWAP1 POP SWAP2 SWAP1 POP JUMP JUMPDEST PUSH2 0x2F97 DUP2 PUSH2 0x2F7C JUMP JUMPDEST DUP3 MSTORE POP POP JUMP JUMPDEST PUSH1 0x0 PUSH1 0x20 DUP3 ADD SWAP1 POP PUSH2 0x2FB2 PUSH1 0x0 DUP4 ADD DUP5 PUSH2 0x2F8E JUMP JUMPDEST SWAP3 SWAP2 POP POP JUMP JUMPDEST PUSH1 0x0 DUP3 DUP3 MSTORE PUSH1 0x20 DUP3 ADD SWAP1 POP SWAP3 SWAP2 POP POP JUMP JUMPDEST PUSH32 0x5374616B696E67506F6F6C3A20696E76616C696420616D6F756E740000000000 PUSH1 0x0 DUP3 ADD MSTORE POP JUMP JUMPDEST PUSH1 0x0 PUSH2 0x2FFF PUSH1 0x1B DUP4 PUSH2 0x2FB8 JUMP JUMPDEST SWAP2 POP PUSH2 0x300A DUP3 PUSH2 0x2FC9 JUMP JUMPDEST PUSH1 0x20 DUP3 ADD SWAP1 POP SWAP2 SWAP1 POP JUMP JUMPDEST PUSH1 0x0 PUSH1 0x20 DUP3 ADD SWAP1 POP DUP2 DUP2 SUB PUSH1 0x0 DUP4 ADD MSTORE PUSH2 0x302E DUP2 PUSH2 0x2FF2 JUMP JUMPDEST SWAP1 POP SWAP2 SWAP1 POP JUMP JUMPDEST PUSH1 0x0 DUP2 MLOAD SWAP1 POP PUSH2 0x3044 DUP2 PUSH2 0x28D3 JUMP JUMPDEST SWAP3 SWAP2 POP POP JUMP JUMPDEST PUSH1 0x0 PUSH1 0x20 DUP3 DUP5 SUB SLT ISZERO PUSH2 0x3060 JUMPI PUSH2 0x305F PUSH2 0x28BF JUMP JUMPDEST JUMPDEST PUSH1 0x0 PUSH2 0x306E DUP5 DUP3 DUP6 ADD PUSH2 0x3035 JUMP JUMPDEST SWAP2 POP POP SWAP3 SWAP2 POP POP JUMP JUMPDEST PUSH32 0x4E487B7100000000000000000000000000000000000000000000000000000000 PUSH1 0x0 MSTORE PUSH1 0x11 PUSH1 0x4 MSTORE PUSH1 0x24 PUSH1 0x0 REVERT JUMPDEST PUSH1 0x0 PUSH2 0x30B1 DUP3 PUSH2 0x28C9 JUMP JUMPDEST SWAP2 POP PUSH2 0x30BC DUP4 PUSH2 0x28C9 JUMP JUMPDEST SWAP3 POP DUP3 DUP3 ADD SWAP1 POP DUP1 DUP3 GT ISZERO PUSH2 0x30D4 JUMPI PUSH2 0x30D3 PUSH2 0x3077 JUMP JUMPDEST JUMPDEST SWAP3 SWAP2 POP POP JUMP JUMPDEST PUSH32 0x5374616B696E67506F6F6C3A20657863656564206D696E206C6F636B00000000 PUSH1 0x0 DUP3 ADD MSTORE POP JUMP JUMPDEST PUSH1 0x0 PUSH2 0x3110 PUSH1 0x1C DUP4 PUSH2 0x2FB8 JUMP JUMPDEST SWAP2 POP PUSH2 0x311B DUP3 PUSH2 0x30DA JUMP JUMPDEST PUSH1 0x20 DUP3 ADD SWAP1 POP SWAP2 SWAP1 POP JUMP JUMPDEST PUSH1 0x0 PUSH1 0x20 DUP3 ADD SWAP1 POP DUP2 DUP2 SUB PUSH1 0x0 DUP4 ADD MSTORE PUSH2 0x313F DUP2 PUSH2 0x3103 JUMP JUMPDEST SWAP1 POP SWAP2 SWAP1 POP JUMP JUMPDEST PUSH1 0x0 PUSH1 0x40 DUP3 ADD SWAP1 POP PUSH2 0x315B PUSH1 0x0 DUP4 ADD DUP6 PUSH2 0x2962 JUMP JUMPDEST PUSH2 0x3168 PUSH1 0x20 DUP4 ADD DUP5 PUSH2 0x2962 JUMP JUMPDEST SWAP4 SWAP3 POP POP POP JUMP JUMPDEST PUSH1 0x0 DUP2 MLOAD SWAP1 POP PUSH2 0x317E DUP2 PUSH2 0x2A7B JUMP JUMPDEST SWAP3 SWAP2 POP POP JUMP JUMPDEST PUSH1 0x0 PUSH1 0x20 DUP3 DUP5 SUB SLT ISZERO PUSH2 0x319A JUMPI PUSH2 0x3199 PUSH2 0x28BF JUMP JUMPDEST JUMPDEST PUSH1 0x0 PUSH2 0x31A8 DUP5 DUP3 DUP6 ADD PUSH2 0x316F JUMP JUMPDEST SWAP2 POP POP SWAP3 SWAP2 POP POP JUMP JUMPDEST PUSH1 0x0 PUSH1 0x40 DUP3 ADD SWAP1 POP PUSH2 0x31C6 PUSH1 0x0 DUP4 ADD DUP6 PUSH2 0x29BE JUMP JUMPDEST PUSH2 0x31D3 PUSH1 0x20 DUP4 ADD DUP5 PUSH2 0x2962 JUMP JUMPDEST SWAP4 SWAP3 POP POP POP JUMP JUMPDEST PUSH1 0x0 DUP2 MLOAD SWAP1 POP PUSH2 0x31E9 DUP2 PUSH2 0x2C90 JUMP JUMPDEST SWAP3 SWAP2 POP POP JUMP JUMPDEST PUSH1 0x0 PUSH1 0x20 DUP3 DUP5 SUB SLT ISZERO PUSH2 0x3205 JUMPI PUSH2 0x3204 PUSH2 0x28BF JUMP JUMPDEST JUMPDEST PUSH1 0x0 PUSH2 0x3213 DUP5 DUP3 DUP6 ADD PUSH2 0x31DA JUMP JUMPDEST SWAP2 POP POP SWAP3 SWAP2 POP POP JUMP JUMPDEST PUSH1 0x0 DUP3 DUP3 MSTORE PUSH1 0x20 DUP3 ADD SWAP1 POP SWAP3 SWAP2 POP POP JUMP JUMPDEST POP JUMP JUMPDEST PUSH1 0x0 PUSH2 0x323D PUSH1 0x0 DUP4 PUSH2 0x321C JUMP JUMPDEST SWAP2 POP PUSH2 0x3248 DUP3 PUSH2 0x322D JUMP JUMPDEST PUSH1 0x0 DUP3 ADD SWAP1 POP SWAP2 SWAP1 POP JUMP JUMPDEST PUSH1 0x0 PUSH1 0xE0 DUP3 ADD SWAP1 POP PUSH2 0x3268 PUSH1 0x0 DUP4 ADD DUP10 PUSH2 0x2962 JUMP JUMPDEST PUSH2 0x3275 PUSH1 0x20 DUP4 ADD DUP9 PUSH2 0x29BE JUMP JUMPDEST PUSH2 0x3282 PUSH1 0x40 DUP4 ADD DUP8 PUSH2 0x29BE JUMP JUMPDEST PUSH2 0x328F PUSH1 0x60 DUP4 ADD DUP7 PUSH2 0x29BE JUMP JUMPDEST PUSH2 0x329C PUSH1 0x80 DUP4 ADD DUP6 PUSH2 0x2962 JUMP JUMPDEST PUSH2 0x32A9 PUSH1 0xA0 DUP4 ADD DUP5 PUSH2 0x29F8 JUMP JUMPDEST DUP2 DUP2 SUB PUSH1 0xC0 DUP4 ADD MSTORE PUSH2 0x32BA DUP2 PUSH2 0x3230 JUMP JUMPDEST SWAP1 POP SWAP8 SWAP7 POP POP POP POP POP POP POP JUMP JUMPDEST PUSH1 0x0 PUSH1 0x40 DUP3 ADD SWAP1 POP PUSH2 0x32DC PUSH1 0x0 DUP4 ADD DUP6 PUSH2 0x29F8 JUMP JUMPDEST PUSH2 0x32E9 PUSH1 0x20 DUP4 ADD DUP5 PUSH2 0x29F8 JUMP JUMPDEST SWAP4 SWAP3 POP POP POP JUMP JUMPDEST PUSH1 0x0 PUSH1 0x40 DUP3 ADD SWAP1 POP PUSH2 0x3305 PUSH1 0x0 DUP4 ADD DUP6 PUSH2 0x2962 JUMP JUMPDEST PUSH2 0x3312 PUSH1 0x20 DUP4 ADD DUP5 PUSH2 0x29F8 JUMP JUMPDEST SWAP4 SWAP3 POP POP POP JUMP JUMPDEST PUSH1 0x0 DUP1 REVERT JUMPDEST PUSH1 0x0 PUSH2 0x140 DUP3 DUP5 SUB SLT ISZERO PUSH2 0x3335 JUMPI PUSH2 0x3334 PUSH2 0x3319 JUMP JUMPDEST JUMPDEST PUSH2 0x3340 PUSH2 0x140 PUSH2 0x2D64 JUMP JUMPDEST SWAP1 POP PUSH1 0x0 PUSH2 0x3350 DUP5 DUP3 DUP6 ADD PUSH2 0x3035 JUMP JUMPDEST PUSH1 0x0 DUP4 ADD MSTORE POP PUSH1 0x20 PUSH2 0x3364 DUP5 DUP3 DUP6 ADD PUSH2 0x3035 JUMP JUMPDEST PUSH1 0x20 DUP4 ADD MSTORE POP PUSH1 0x40 PUSH2 0x3378 DUP5 DUP3 DUP6 ADD PUSH2 0x3035 JUMP JUMPDEST PUSH1 0x40 DUP4 ADD MSTORE POP PUSH1 0x60 PUSH2 0x338C DUP5 DUP3 DUP6 ADD PUSH2 0x3035 JUMP JUMPDEST PUSH1 0x60 DUP4 ADD MSTORE POP PUSH1 0x80 PUSH2 0x33A0 DUP5 DUP3 DUP6 ADD PUSH2 0x3035 JUMP JUMPDEST PUSH1 0x80 DUP4 ADD MSTORE POP PUSH1 0xA0 PUSH2 0x33B4 DUP5 DUP3 DUP6 ADD PUSH2 0x3035 JUMP JUMPDEST PUSH1 0xA0 DUP4 ADD MSTORE POP PUSH1 0xC0 PUSH2 0x33C8 DUP5 DUP3 DUP6 ADD PUSH2 0x3035 JUMP JUMPDEST PUSH1 0xC0 DUP4 ADD MSTORE POP PUSH1 0xE0 PUSH2 0x33DC DUP5 DUP3 DUP6 ADD PUSH2 0x3035 JUMP JUMPDEST PUSH1 0xE0 DUP4 ADD MSTORE POP PUSH2 0x100 PUSH2 0x33F1 DUP5 DUP3 DUP6 ADD PUSH2 0x316F JUMP JUMPDEST PUSH2 0x100 DUP4 ADD MSTORE POP PUSH2 0x120 PUSH2 0x3407 DUP5 DUP3 DUP6 ADD PUSH2 0x316F JUMP JUMPDEST PUSH2 0x120 DUP4 ADD MSTORE POP SWAP3 SWAP2 POP POP JUMP JUMPDEST PUSH1 0x0 PUSH2 0x140 DUP3 DUP5 SUB SLT ISZERO PUSH2 0x342B JUMPI PUSH2 0x342A PUSH2 0x28BF JUMP JUMPDEST JUMPDEST PUSH1 0x0 PUSH2 0x3439 DUP5 DUP3 DUP6 ADD PUSH2 0x331E JUMP JUMPDEST SWAP2 POP POP SWAP3 SWAP2 POP POP JUMP JUMPDEST PUSH32 0x4465616C65723A2063616C6C6572206973206E6F7420746865206F776E657200 PUSH1 0x0 DUP3 ADD MSTORE POP JUMP JUMPDEST PUSH1 0x0 PUSH2 0x3478 PUSH1 0x1F DUP4 PUSH2 0x2FB8 JUMP JUMPDEST SWAP2 POP PUSH2 0x3483 DUP3 PUSH2 0x3442 JUMP JUMPDEST PUSH1 0x20 DUP3 ADD SWAP1 POP SWAP2 SWAP1 POP JUMP JUMPDEST PUSH1 0x0 PUSH1 0x20 DUP3 ADD SWAP1 POP DUP2 DUP2 SUB PUSH1 0x0 DUP4 ADD MSTORE PUSH2 0x34A7 DUP2 PUSH2 0x346B JUMP JUMPDEST SWAP1 POP SWAP2 SWAP1 POP JUMP JUMPDEST PUSH32 0x4465616C65723A206E6F206163746976652073657175656E6365720000000000 PUSH1 0x0 DUP3 ADD MSTORE POP JUMP JUMPDEST PUSH1 0x0 PUSH2 0x34E4 PUSH1 0x1B DUP4 PUSH2 0x2FB8 JUMP JUMPDEST SWAP2 POP PUSH2 0x34EF DUP3 PUSH2 0x34AE JUMP JUMPDEST PUSH1 0x20 DUP3 ADD SWAP1 POP SWAP2 SWAP1 POP JUMP JUMPDEST PUSH1 0x0 PUSH1 0x20 DUP3 ADD SWAP1 POP DUP2 DUP2 SUB PUSH1 0x0 DUP4 ADD MSTORE PUSH2 0x3513 DUP2 PUSH2 0x34D7 JUMP JUMPDEST SWAP1 POP SWAP2 SWAP1 POP JUMP JUMPDEST PUSH32 0x5374616B696E67506F6F6C3A20657863656564206D6178206C6F636B00000000 PUSH1 0x0 DUP3 ADD MSTORE POP JUMP JUMPDEST PUSH1 0x0 PUSH2 0x3550 PUSH1 0x1C DUP4 PUSH2 0x2FB8 JUMP JUMPDEST SWAP2 POP PUSH2 0x355B DUP3 PUSH2 0x351A JUMP JUMPDEST PUSH1 0x20 DUP3 ADD SWAP1 POP SWAP2 SWAP1 POP JUMP JUMPDEST PUSH1 0x0 PUSH1 0x20 DUP3 ADD SWAP1 POP DUP2 DUP2 SUB PUSH1 0x0 DUP4 ADD MSTORE PUSH2 0x357F DUP2 PUSH2 0x3543 JUMP JUMPDEST SWAP1 POP SWAP2 SWAP1 POP JUMP JUMPDEST PUSH32 0x4465616C65723A20417070726F76616C20746F204C6F636B696E67496E666F20 PUSH1 0x0 DUP3 ADD MSTORE PUSH32 0x6661696C65640000000000000000000000000000000000000000000000000000 PUSH1 0x20 DUP3 ADD MSTORE POP JUMP JUMPDEST PUSH1 0x0 PUSH2 0x35E2 PUSH1 0x26 DUP4 PUSH2 0x2FB8 JUMP JUMPDEST SWAP2 POP PUSH2 0x35ED DUP3 PUSH2 0x3586 JUMP JUMPDEST PUSH1 0x40 DUP3 ADD SWAP1 POP SWAP2 SWAP1 POP JUMP JUMPDEST PUSH1 0x0 PUSH1 0x20 DUP3 ADD SWAP1 POP DUP2 DUP2 SUB PUSH1 0x0 DUP4 ADD MSTORE PUSH2 0x3611 DUP2 PUSH2 0x35D5 JUMP JUMPDEST SWAP1 POP SWAP2 SWAP1 POP JUMP JUMPDEST PUSH1 0x0 PUSH1 0x60 DUP3 ADD SWAP1 POP PUSH2 0x362D PUSH1 0x0 DUP4 ADD DUP7 PUSH2 0x2962 JUMP JUMPDEST PUSH2 0x363A PUSH1 0x20 DUP4 ADD DUP6 PUSH2 0x2962 JUMP JUMPDEST PUSH2 0x3647 PUSH1 0x40 DUP4 ADD DUP5 PUSH2 0x2938 JUMP JUMPDEST SWAP5 SWAP4 POP POP POP POP JUMP JUMPDEST PUSH1 0x0 DUP2 SWAP1 POP SWAP2 SWAP1 POP JUMP JUMPDEST PUSH1 0x0 PUSH2 0x3674 PUSH2 0x366F PUSH2 0x366A DUP5 PUSH2 0x364F JUMP JUMPDEST PUSH2 0x2AD4 JUMP JUMPDEST PUSH2 0x29E8 JUMP JUMPDEST SWAP1 POP SWAP2 SWAP1 POP JUMP JUMPDEST PUSH2 0x3684 DUP2 PUSH2 0x3659 JUMP JUMPDEST DUP3 MSTORE POP POP JUMP JUMPDEST PUSH1 0x0 PUSH1 0x40 DUP3 ADD SWAP1 POP PUSH2 0x369F PUSH1 0x0 DUP4 ADD DUP6 PUSH2 0x367B JUMP JUMPDEST PUSH2 0x36AC PUSH1 0x20 DUP4 ADD DUP5 PUSH2 0x2962 JUMP JUMPDEST SWAP4 SWAP3 POP POP POP JUMP JUMPDEST PUSH32 0x4465616C65723A20496E73756666696369656E74204D657469732062616C616E PUSH1 0x0 DUP3 ADD MSTORE PUSH32 0x6365000000000000000000000000000000000000000000000000000000000000 PUSH1 0x20 DUP3 ADD MSTORE POP JUMP JUMPDEST PUSH1 0x0 PUSH2 0x370F PUSH1 0x22 DUP4 PUSH2 0x2FB8 JUMP JUMPDEST SWAP2 POP PUSH2 0x371A DUP3 PUSH2 0x36B3 JUMP JUMPDEST PUSH1 0x40 DUP3 ADD SWAP1 POP SWAP2 SWAP1 POP JUMP JUMPDEST PUSH1 0x0 PUSH1 0x20 DUP3 ADD SWAP1 POP DUP2 DUP2 SUB PUSH1 0x0 DUP4 ADD MSTORE PUSH2 0x373E DUP2 PUSH2 0x3702 JUMP JUMPDEST SWAP1 POP SWAP2 SWAP1 POP JUMP JUMPDEST PUSH1 0x0 DUP2 MLOAD SWAP1 POP SWAP2 SWAP1 POP JUMP JUMPDEST PUSH1 0x0 JUMPDEST DUP4 DUP2 LT ISZERO PUSH2 0x376E JUMPI DUP1 DUP3 ADD MLOAD DUP2 DUP5 ADD MSTORE PUSH1 0x20 DUP2 ADD SWAP1 POP PUSH2 0x3753 JUMP JUMPDEST PUSH1 0x0 DUP5 DUP5 ADD MSTORE POP POP POP POP JUMP JUMPDEST PUSH1 0x0 PUSH2 0x3785 DUP3 PUSH2 0x3745 JUMP JUMPDEST PUSH2 0x378F DUP2 DUP6 PUSH2 0x321C JUMP JUMPDEST SWAP4 POP PUSH2 0x379F DUP2 DUP6 PUSH1 0x20 DUP7 ADD PUSH2 0x3750 JUMP JUMPDEST PUSH2 0x37A8 DUP2 PUSH2 0x2CF3 JUMP JUMPDEST DUP5 ADD SWAP2 POP POP SWAP3 SWAP2 POP POP JUMP JUMPDEST PUSH1 0x0 PUSH1 0x80 DUP3 ADD SWAP1 POP PUSH2 0x37C8 PUSH1 0x0 DUP4 ADD DUP8 PUSH2 0x29BE JUMP JUMPDEST PUSH2 0x37D5 PUSH1 0x20 DUP4 ADD DUP7 PUSH2 0x29BE JUMP JUMPDEST PUSH2 0x37E2 PUSH1 0x40 DUP4 ADD DUP6 PUSH2 0x2962 JUMP JUMPDEST DUP2 DUP2 SUB PUSH1 0x60 DUP4 ADD MSTORE PUSH2 0x37F4 DUP2 DUP5 PUSH2 0x377A JUMP JUMPDEST SWAP1 POP SWAP6 SWAP5 POP POP POP POP POP JUMP JUMPDEST PUSH1 0x0 PUSH1 0x40 DUP3 ADD SWAP1 POP PUSH2 0x3814 PUSH1 0x0 DUP4 ADD DUP6 PUSH2 0x2962 JUMP JUMPDEST PUSH2 0x3821 PUSH1 0x20 DUP4 ADD DUP5 PUSH2 0x2938 JUMP JUMPDEST SWAP4 SWAP3 POP POP POP JUMP JUMPDEST PUSH32 0x4465616C65723A207A65726F2061646472657373000000000000000000000000 PUSH1 0x0 DUP3 ADD MSTORE POP JUMP JUMPDEST PUSH1 0x0 PUSH2 0x385E PUSH1 0x14 DUP4 PUSH2 0x2FB8 JUMP JUMPDEST SWAP2 POP PUSH2 0x3869 DUP3 PUSH2 0x3828 JUMP JUMPDEST PUSH1 0x20 DUP3 ADD SWAP1 POP SWAP2 SWAP1 POP JUMP JUMPDEST PUSH1 0x0 PUSH1 0x20 DUP3 ADD SWAP1 POP DUP2 DUP2 SUB PUSH1 0x0 DUP4 ADD MSTORE PUSH2 0x388D DUP2 PUSH2 0x3851 JUMP JUMPDEST SWAP1 POP SWAP2 SWAP1 POP JUMP JUMPDEST PUSH1 0x0 PUSH2 0x389F DUP3 PUSH2 0x29AC JUMP JUMPDEST SWAP1 POP SWAP2 SWAP1 POP JUMP JUMPDEST PUSH2 0x38AF DUP2 PUSH2 0x3894 JUMP JUMPDEST DUP2 EQ PUSH2 0x38BA JUMPI PUSH1 0x0 DUP1 REVERT JUMPDEST POP JUMP JUMPDEST PUSH1 0x0 DUP2 MLOAD SWAP1 POP PUSH2 0x38CC DUP2 PUSH2 0x38A6 JUMP JUMPDEST SWAP3 SWAP2 POP POP JUMP JUMPDEST PUSH1 0x0 PUSH1 0x20 DUP3 DUP5 SUB SLT ISZERO PUSH2 0x38E8 JUMPI PUSH2 0x38E7 PUSH2 0x28BF JUMP JUMPDEST JUMPDEST PUSH1 0x0 PUSH2 0x38F6 DUP5 DUP3 DUP6 ADD PUSH2 0x38BD JUMP JUMPDEST SWAP2 POP POP SWAP3 SWAP2 POP POP JUMP JUMPDEST PUSH1 0x0 DUP2 SWAP1 POP SWAP2 SWAP1 POP JUMP JUMPDEST PUSH1 0x0 PUSH8 0xFFFFFFFFFFFFFFFF DUP3 AND SWAP1 POP SWAP2 SWAP1 POP JUMP JUMPDEST PUSH1 0x0 PUSH2 0x3938 PUSH2 0x3933 PUSH2 0x392E DUP5 PUSH2 0x38FF JUMP JUMPDEST PUSH2 0x2AD4 JUMP JUMPDEST PUSH2 0x3909 JUMP JUMPDEST SWAP1 POP SWAP2 SWAP1 POP JUMP JUMPDEST PUSH2 0x3948 DUP2 PUSH2 0x391D JUMP JUMPDEST DUP3 MSTORE POP POP JUMP JUMPDEST PUSH1 0x0 PUSH1 0x20 DUP3 ADD SWAP1 POP PUSH2 0x3963 PUSH1 0x0 DUP4 ADD DUP5 PUSH2 0x393F JUMP JUMPDEST SWAP3 SWAP2 POP POP JUMP JUMPDEST PUSH1 0x0 DUP2 SWAP1 POP SWAP3 SWAP2 POP POP JUMP JUMPDEST PUSH1 0x0 PUSH2 0x397F DUP3 PUSH2 0x3745 JUMP JUMPDEST PUSH2 0x3989 DUP2 DUP6 PUSH2 0x3969 JUMP JUMPDEST SWAP4 POP PUSH2 0x3999 DUP2 DUP6 PUSH1 0x20 DUP7 ADD PUSH2 0x3750 JUMP JUMPDEST DUP1 DUP5 ADD SWAP2 POP POP SWAP3 SWAP2 POP POP JUMP JUMPDEST PUSH1 0x0 PUSH2 0x39B1 DUP3 DUP5 PUSH2 0x3974 JUMP JUMPDEST SWAP2 POP DUP2 SWAP1 POP SWAP3 SWAP2 POP POP JUMP JUMPDEST PUSH32 0x5374616B696E67506F6F6C3A206765742053657175656E636572206661696C65 PUSH1 0x0 DUP3 ADD MSTORE PUSH32 0x6400000000000000000000000000000000000000000000000000000000000000 PUSH1 0x20 DUP3 ADD MSTORE POP JUMP JUMPDEST PUSH1 0x0 PUSH2 0x3A18 PUSH1 0x21 DUP4 PUSH2 0x2FB8 JUMP JUMPDEST SWAP2 POP PUSH2 0x3A23 DUP3 PUSH2 0x39BC JUMP JUMPDEST PUSH1 0x40 DUP3 ADD SWAP1 POP SWAP2 SWAP1 POP JUMP JUMPDEST PUSH1 0x0 PUSH1 0x20 DUP3 ADD SWAP1 POP DUP2 DUP2 SUB PUSH1 0x0 DUP4 ADD MSTORE PUSH2 0x3A47 DUP2 PUSH2 0x3A0B JUMP JUMPDEST SWAP1 POP SWAP2 SWAP1 POP JUMP INVALID LOG2 PUSH5 0x6970667358 0x22 SLT KECCAK256 MSTORE SMOD SELFBALANCE CALLCODE 0xCD 0xE 0xE 0x21 0xDB 0xB1 0xA5 NOT SGT PUSH26 0x3B5073D51ABAAB3BA694E13D942B3BC5117164736F6C63430008 EQ STOP CALLER "},"gasEstimates":{"creation":{"codeDepositCost":"2996000","executionCost":"3294","totalCost":"2999294"},"external":{"active()":"2590","activeSequencerIds(uint256)":"6617","canStake(uint256)":"infinite","claimRewards(uint32)":"infinite","getRewards()":"infinite","initialize(address,address,address,uint256,uint32,address,address)":"infinite","l2ChainId()":"2540","l2Gas()":"2517","l2Minter()":"2560","l2RewardDispatcher()":"2558","lockFor(address,uint256,bytes)":"infinite","lockingInfo()":"infinite","lockingPool()":"infinite","messenger()":"infinite","metis()":"infinite","owner()":"2644","redemptionQueue()":"2626","relock(uint256)":"infinite","renounceOwnership()":"infinite","sequencerAgentCount()":"2516","sequencerAgentTemplate()":"2601","sequencerAgents(uint32)":"2935","sequencerData()":"infinite","sequencerId()":"2520","sequencerSigner()":"2581","setActive(bool)":"infinite","setL2Gas(uint32)":"infinite","setL2Minter(address)":"infinite","setL2RewardDispatcher(address)":"infinite","setRedemptionQueue(address)":"infinite","stakingAmount()":"infinite","sumRewards()":"2562","totalLocked()":"infinite","transferOwnership(address)":"infinite","unlock()":"infinite","unlockClaim()":"infinite","withdrawRewards()":"2610","withdrawStakingAmount(uint256)":"infinite"},"internal":{"_getLocked()":"infinite","_getRewards()":"infinite","_getSequencer()":"infinite","_mintL2EMetis(uint256)":"infinite"}},"methodIdentifiers":{"active()":"02fb0c5e","activeSequencerIds(uint256)":"1abdaf6a","canStake(uint256)":"53906653","claimRewards(uint32)":"6f47999b","getRewards()":"0572b0cc","initialize(address,address,address,uint256,uint32,address,address)":"b699ce5f","l2ChainId()":"d6ae3cd5","l2Gas()":"3cbb6979","l2Minter()":"080e1e4e","l2RewardDispatcher()":"e92d61e5","lockFor(address,uint256,bytes)":"af70cba5","lockingInfo()":"f7cee36a","lockingPool()":"85d1e2b8","messenger()":"3cb747bf","metis()":"e5974554","owner()":"8da5cb5b","redemptionQueue()":"97ec19be","relock(uint256)":"a98d38f0","renounceOwnership()":"715018a6","sequencerAgentCount()":"9e935704","sequencerAgentTemplate()":"8db8ad88","sequencerAgents(uint32)":"457cb586","sequencerData()":"76d9f95c","sequencerId()":"04a78fca","sequencerSigner()":"c3b550c8","setActive(bool)":"acec338a","setL2Gas(uint32)":"33bec7e7","setL2Minter(address)":"f87b7a3e","setL2RewardDispatcher(address)":"43c82cf7","setRedemptionQueue(address)":"3b4c46d0","stakingAmount()":"739a3e02","sumRewards()":"7ca4f8b0","totalLocked()":"56891412","transferOwnership(address)":"f2fde38b","unlock()":"a69df4b5","unlockClaim()":"feafaa6b","withdrawRewards()":"c7b8981c","withdrawStakingAmount(uint256)":"0182a6da"}},"storageLayout":{"storage":[{"astId":2453,"contract":"contracts/Dealer.sol:Dealer","label":"sequencerAgentTemplate","offset":0,"slot":"0","type":"t_address"},{"astId":2457,"contract":"contracts/Dealer.sol:Dealer","label":"metis","offset":0,"slot":"1","type":"t_contract(IERC20)979"},{"astId":2461,"contract":"contracts/Dealer.sol:Dealer","label":"lockingPool","offset":0,"slot":"2","type":"t_contract(ILockingPool)3786"},{"astId":2465,"contract":"contracts/Dealer.sol:Dealer","label":"lockingInfo","offset":0,"slot":"3","type":"t_contract(ILockingInfo)3436"},{"astId":2469,"contract":"contracts/Dealer.sol:Dealer","label":"messenger","offset":0,"slot":"4","type":"t_contract(ICrossDomainMessenger)3248"},{"astId":2472,"contract":"contracts/Dealer.sol:Dealer","label":"l2ChainId","offset":0,"slot":"5","type":"t_uint256"},{"astId":2475,"contract":"contracts/Dealer.sol:Dealer","label":"l2Minter","offset":0,"slot":"6","type":"t_address"},{"astId":2478,"contract":"contracts/Dealer.sol:Dealer","label":"l2RewardDispatcher","offset":0,"slot":"7","type":"t_address"},{"astId":2483,"contract":"contracts/Dealer.sol:Dealer","label":"sequencerAgents","offset":0,"slot":"8","type":"t_mapping(t_uint32,t_address)"},{"astId":2486,"contract":"contracts/Dealer.sol:Dealer","label":"sequencerAgentCount","offset":0,"slot":"9","type":"t_uint32"},{"astId":2490,"contract":"contracts/Dealer.sol:Dealer","label":"activeSequencerIds","offset":0,"slot":"10","type":"t_array(t_uint32)dyn_storage"},{"astId":2493,"contract":"contracts/Dealer.sol:Dealer","label":"sumRewards","offset":0,"slot":"11","type":"t_uint256"},{"astId":2496,"contract":"contracts/Dealer.sol:Dealer","label":"l2Gas","offset":0,"slot":"12","type":"t_uint32"},{"astId":2499,"contract":"contracts/Dealer.sol:Dealer","label":"withdrawRewards","offset":4,"slot":"12","type":"t_bool"},{"astId":2501,"contract":"contracts/Dealer.sol:Dealer","label":"sequencerId","offset":0,"slot":"13","type":"t_uint256"},{"astId":2503,"contract":"contracts/Dealer.sol:Dealer","label":"sequencerSigner","offset":0,"slot":"14","type":"t_address"},{"astId":2505,"contract":"contracts/Dealer.sol:Dealer","label":"active","offset":20,"slot":"14","type":"t_bool"},{"astId":2507,"contract":"contracts/Dealer.sol:Dealer","label":"redemptionQueue","offset":0,"slot":"15","type":"t_address"}],"types":{"t_address":{"encoding":"inplace","label":"address","numberOfBytes":"20"},"t_array(t_uint32)dyn_storage":{"base":"t_uint32","encoding":"dynamic_array","label":"uint32[]","numberOfBytes":"32"},"t_bool":{"encoding":"inplace","label":"bool","numberOfBytes":"1"},"t_contract(ICrossDomainMessenger)3248":{"encoding":"inplace","label":"contract ICrossDomainMessenger","numberOfBytes":"20"},"t_contract(IERC20)979":{"encoding":"inplace","label":"contract IERC20","numberOfBytes":"20"},"t_contract(ILockingInfo)3436":{"encoding":"inplace","label":"contract ILockingInfo","numberOfBytes":"20"},"t_contract(ILockingPool)3786":{"encoding":"inplace","label":"contract ILockingPool","numberOfBytes":"20"},"t_mapping(t_uint32,t_address)":{"encoding":"mapping","key":"t_uint32","label":"mapping(uint32 => address)","numberOfBytes":"32","value":"t_address"},"t_uint256":{"encoding":"inplace","label":"uint256","numberOfBytes":"32"},"t_uint32":{"encoding":"inplace","label":"uint32","numberOfBytes":"4"}}},"userdoc":{"events":{"IsSequencerRelocked(bool)":{"notice":"Emits when the sequencer is relocked."},"L2GasSet(uint32,uint32)":{"notice":"Emits when the L2 gas limit is set."},"L2MetisMinted(uint256)":{"notice":"Emits when Metis tokens are minted on Layer 2."},"RewardsWithdrawn(uint256,uint256)":{"notice":"Emits when the rewards are withdrawn."},"SequencerAgentAdded(uint32,address)":{"notice":"Emits when a new sequencer agent is added"},"SequencerAgentTemplateSet(address,address)":{"notice":"Emits when the sequencer agent template is set."},"SequencerInitialBalanceLocked(address,uint256,bool)":{"notice":"Emits when the sequencer initial balance is locked."},"SequencerRelocked(uint32,uint256)":{"notice":"Emits when additional Metis tokens and rewards are locked for a sequencer."},"SequencerTerminated(address)":{"notice":"Emits when the sequencer is terminated."},"StakingAmountWithdrawn(address,uint256)":{"notice":"Withdaws Metis token and deposits Metis tokens into the redemption queue."},"WithdrawRewardsSet(bool,bool)":{"notice":"Emits when withdrawRewards is set."}},"kind":"user","methods":{"activeSequencerIds(uint256)":{"notice":"The list of active sequencer agent IDs."},"claimRewards(uint32)":{"notice":"Withdraw rewards from the LockingPool."},"initialize(address,address,address,uint256,uint32,address,address)":{"notice":"Initializes the contract."},"l2ChainId()":{"notice":"The ID of the L2 chain."},"l2Gas()":{"notice":"L2 gas limit."},"l2Minter()":{"notice":"The address of the L2 MetisMinter contract."},"l2RewardDispatcher()":{"notice":"The address of the L2 RewardDispatcher contract."},"lockFor(address,uint256,bytes)":{"notice":"Locks Metis tokens for a new sequencer."},"lockingInfo()":{"notice":"The LockingInfo contract address."},"lockingPool()":{"notice":"The LockingPool contract address."},"messenger()":{"notice":"The L2 messenger contract."},"metis()":{"notice":"The Metis token."},"relock(uint256)":{"notice":"Facilitates the process of augmenting the locked Metis tokens  for our currently active sequencers."},"sequencerAgentCount()":{"notice":"The number of sequencer agents."},"sequencerAgentTemplate()":{"notice":"The template contract for sequencer agents."},"sequencerAgents(uint32)":{"notice":"The list of sequencer agents."},"setL2Gas(uint32)":{"notice":"Sets the L2 gas limit."},"sumRewards()":{"notice":"The sum of rewards of all sequencers."},"totalLocked()":{"notice":"Returns the total amount of Metis tokens that have been locked for all sequencers."},"unlock()":{"notice":"Unlock Metis tokens and terminate the sequencer."},"unlockClaim()":{"notice":"The `unlockClaim` function allows a sequencer to claim their Metis tokens after the unlocking waiting period has elapsed."},"withdrawRewards()":{"notice":"withdraw rewards"},"withdrawStakingAmount(uint256)":{"notice":"withdraw locked Metis tokens and deposits them into the redemptionQueue."}},"notice":"The Dealer contract is responsible for the allocation of Metis tokens from Layer 2 to the LockingPool for sequencers, through sequencer agents.","version":1}}}}