{"contracts/Dealer.sol":{"Dealer":{"abi":[{"inputs":[],"name":"InvalidInitialization","type":"error"},{"inputs":[],"name":"NotInitializing","type":"error"},{"inputs":[{"internalType":"address","name":"owner","type":"address"}],"name":"OwnableInvalidOwner","type":"error"},{"inputs":[{"internalType":"address","name":"account","type":"address"}],"name":"OwnableUnauthorizedAccount","type":"error"},{"anonymous":false,"inputs":[{"indexed":false,"internalType":"uint64","name":"version","type":"uint64"}],"name":"Initialized","type":"event"},{"anonymous":false,"inputs":[{"indexed":false,"internalType":"bool","name":"isRelocked","type":"bool"}],"name":"IsSequencerRelocked","type":"event"},{"anonymous":false,"inputs":[{"indexed":false,"internalType":"uint32","name":"oldValue","type":"uint32"},{"indexed":false,"internalType":"uint32","name":"newValue","type":"uint32"}],"name":"L2GasSet","type":"event"},{"anonymous":false,"inputs":[{"indexed":false,"internalType":"uint256","name":"amount","type":"uint256"}],"name":"L2MetisMinted","type":"event"},{"anonymous":false,"inputs":[{"indexed":true,"internalType":"address","name":"previousOwner","type":"address"},{"indexed":true,"internalType":"address","name":"newOwner","type":"address"}],"name":"OwnershipTransferred","type":"event"},{"anonymous":false,"inputs":[{"indexed":true,"internalType":"uint256","name":"sequencerId","type":"uint256"},{"indexed":false,"internalType":"uint256","name":"reward","type":"uint256"}],"name":"RewardsWithdrawn","type":"event"},{"anonymous":false,"inputs":[{"indexed":false,"internalType":"uint32","name":"index","type":"uint32"},{"indexed":false,"internalType":"address","name":"agent","type":"address"}],"name":"SequencerAgentAdded","type":"event"},{"anonymous":false,"inputs":[{"indexed":true,"internalType":"address","name":"oldValue","type":"address"},{"indexed":true,"internalType":"address","name":"newValue","type":"address"}],"name":"SequencerAgentTemplateSet","type":"event"},{"anonymous":false,"inputs":[{"indexed":true,"internalType":"address","name":"sequencerSigner","type":"address"},{"indexed":false,"internalType":"uint256","name":"amount","type":"uint256"},{"indexed":false,"internalType":"bool","name":"active","type":"bool"}],"name":"SequencerInitialBalanceLocked","type":"event"},{"anonymous":false,"inputs":[{"indexed":false,"internalType":"uint32","name":"index","type":"uint32"},{"indexed":false,"internalType":"uint256","name":"amount","type":"uint256"},{"indexed":false,"internalType":"uint256","name":"reward","type":"uint256"}],"name":"SequencerRelocked","type":"event"},{"anonymous":false,"inputs":[{"indexed":true,"internalType":"address","name":"sequencerSigner","type":"address"}],"name":"SequencerTerminated","type":"event"},{"anonymous":false,"inputs":[{"indexed":true,"internalType":"address","name":"recipient","type":"address"},{"indexed":false,"internalType":"uint256","name":"amount","type":"uint256"}],"name":"StakingAmountWithdrawn","type":"event"},{"anonymous":false,"inputs":[{"indexed":false,"internalType":"bool","name":"oldValue","type":"bool"},{"indexed":false,"internalType":"bool","name":"newValue","type":"bool"}],"name":"WithdrawRewardsSet","type":"event"},{"inputs":[],"name":"active","outputs":[{"internalType":"bool","name":"","type":"bool"}],"stateMutability":"view","type":"function"},{"inputs":[{"internalType":"uint256","name":"","type":"uint256"}],"name":"activeSequencerIds","outputs":[{"internalType":"uint32","name":"","type":"uint32"}],"stateMutability":"view","type":"function"},{"inputs":[{"internalType":"address","name":"_metis","type":"address"},{"internalType":"address","name":"_lockingPool","type":"address"},{"internalType":"address","name":"_l1Bridge","type":"address"},{"internalType":"uint256","name":"_l2ChainId","type":"uint256"},{"internalType":"uint32","name":"_l2Gas","type":"uint32"},{"internalType":"address","name":"_l2Minter","type":"address"},{"internalType":"address","name":"_l2RewardDispatcher","type":"address"}],"name":"initialize","outputs":[],"stateMutability":"nonpayable","type":"function"},{"inputs":[],"name":"l2ChainId","outputs":[{"internalType":"uint256","name":"","type":"uint256"}],"stateMutability":"view","type":"function"},{"inputs":[],"name":"l2Gas","outputs":[{"internalType":"uint32","name":"","type":"uint32"}],"stateMutability":"view","type":"function"},{"inputs":[],"name":"l2Minter","outputs":[{"internalType":"address","name":"","type":"address"}],"stateMutability":"view","type":"function"},{"inputs":[],"name":"l2RewardDispatcher","outputs":[{"internalType":"address","name":"","type":"address"}],"stateMutability":"view","type":"function"},{"inputs":[{"internalType":"address","name":"_sequencerSigner","type":"address"},{"internalType":"uint256","name":"_amount","type":"uint256"},{"internalType":"bytes","name":"_signerPubKey","type":"bytes"}],"name":"lockFor","outputs":[],"stateMutability":"nonpayable","type":"function"},{"inputs":[],"name":"lockingInfo","outputs":[{"internalType":"contract ILockingInfo","name":"","type":"address"}],"stateMutability":"view","type":"function"},{"inputs":[],"name":"lockingPool","outputs":[{"internalType":"contract ILockingPool","name":"","type":"address"}],"stateMutability":"view","type":"function"},{"inputs":[],"name":"messenger","outputs":[{"internalType":"contract ICrossDomainMessenger","name":"","type":"address"}],"stateMutability":"view","type":"function"},{"inputs":[],"name":"metis","outputs":[{"internalType":"contract IERC20","name":"","type":"address"}],"stateMutability":"view","type":"function"},{"inputs":[],"name":"owner","outputs":[{"internalType":"address","name":"","type":"address"}],"stateMutability":"view","type":"function"},{"inputs":[],"name":"redemptionQueue","outputs":[{"internalType":"address","name":"","type":"address"}],"stateMutability":"view","type":"function"},{"inputs":[],"name":"relock","outputs":[{"internalType":"uint256","name":"totalProcessed","type":"uint256"}],"stateMutability":"payable","type":"function"},{"inputs":[],"name":"renounceOwnership","outputs":[],"stateMutability":"nonpayable","type":"function"},{"inputs":[],"name":"sequencerAgentCount","outputs":[{"internalType":"uint32","name":"","type":"uint32"}],"stateMutability":"view","type":"function"},{"inputs":[],"name":"sequencerAgentTemplate","outputs":[{"internalType":"address","name":"","type":"address"}],"stateMutability":"view","type":"function"},{"inputs":[{"internalType":"uint32","name":"","type":"uint32"}],"name":"sequencerAgents","outputs":[{"internalType":"address","name":"","type":"address"}],"stateMutability":"view","type":"function"},{"inputs":[],"name":"sequencerData","outputs":[{"components":[{"internalType":"uint256","name":"amount","type":"uint256"},{"internalType":"uint256","name":"reward","type":"uint256"},{"internalType":"uint256","name":"activationBatch","type":"uint256"},{"internalType":"uint256","name":"updatedBatch","type":"uint256"},{"internalType":"uint256","name":"deactivationBatch","type":"uint256"},{"internalType":"uint256","name":"deactivationTime","type":"uint256"},{"internalType":"uint256","name":"unlockClaimTime","type":"uint256"},{"internalType":"uint256","name":"nonce","type":"uint256"},{"internalType":"address","name":"owner","type":"address"},{"internalType":"address","name":"signer","type":"address"}],"internalType":"struct ILockingPool.SequencerData","name":"","type":"tuple"}],"stateMutability":"view","type":"function"},{"inputs":[],"name":"sequencerId","outputs":[{"internalType":"uint256","name":"","type":"uint256"}],"stateMutability":"view","type":"function"},{"inputs":[],"name":"sequencerSigner","outputs":[{"internalType":"address","name":"","type":"address"}],"stateMutability":"view","type":"function"},{"inputs":[{"internalType":"uint32","name":"_l2Gas","type":"uint32"}],"name":"setL2Gas","outputs":[],"stateMutability":"nonpayable","type":"function"},{"inputs":[{"internalType":"address","name":"_l2MinterAddress","type":"address"}],"name":"setL2Minter","outputs":[],"stateMutability":"nonpayable","type":"function"},{"inputs":[{"internalType":"address","name":"_l2RewardDispatcher","type":"address"}],"name":"setL2RewardDispatcher","outputs":[],"stateMutability":"nonpayable","type":"function"},{"inputs":[{"internalType":"address","name":"_redemptionQueue","type":"address"}],"name":"setRedemptionQueue","outputs":[],"stateMutability":"nonpayable","type":"function"},{"inputs":[],"name":"sumRewards","outputs":[{"internalType":"uint256","name":"","type":"uint256"}],"stateMutability":"view","type":"function"},{"inputs":[],"name":"totalLocked","outputs":[{"internalType":"uint256","name":"","type":"uint256"}],"stateMutability":"view","type":"function"},{"inputs":[{"internalType":"address","name":"newOwner","type":"address"}],"name":"transferOwnership","outputs":[],"stateMutability":"nonpayable","type":"function"},{"inputs":[],"name":"unlock","outputs":[],"stateMutability":"payable","type":"function"},{"inputs":[],"name":"unlockClaim","outputs":[],"stateMutability":"payable","type":"function"},{"inputs":[],"name":"withdrawRewards","outputs":[{"internalType":"bool","name":"","type":"bool"}],"stateMutability":"view","type":"function"},{"inputs":[{"internalType":"uint256","name":"amount","type":"uint256"}],"name":"withdrawStakingAmount","outputs":[],"stateMutability":"payable","type":"function"}],"devdoc":{"errors":{"InvalidInitialization()":[{"details":"The contract is already initialized."}],"NotInitializing()":[{"details":"The contract is not initializing."}],"OwnableInvalidOwner(address)":[{"details":"The owner is not a valid owner account. (eg. `address(0)`)"}],"OwnableUnauthorizedAccount(address)":[{"details":"The caller account is not authorized to perform an operation."}]},"events":{"Initialized(uint64)":{"details":"Triggered when the contract has been initialized or reinitialized."},"IsSequencerRelocked(bool)":{"params":{"isRelocked":"The status of the sequencer."}},"L2GasSet(uint32,uint32)":{"params":{"oldValue":"The old L2 gas limit.        "}},"L2MetisMinted(uint256)":{"params":{"amount":"The amount of Metis tokens that have been minted."}},"RewardsWithdrawn(uint256,uint256)":{"params":{"reward":"The amount of rewards that have been withdrawn.","sequencerId":"The ID of the sequencer."}},"SequencerAgentAdded(uint32,address)":{"params":{"agent":"address of the agent","index":"index of the agent"}},"SequencerAgentTemplateSet(address,address)":{"params":{"newValue":"The address of the new sequencer agent template.","oldValue":"The address of the old sequencer agent template."}},"SequencerInitialBalanceLocked(address,uint256,bool)":{"params":{"active":"The status of the sequencer.","amount":"The amount of Metis tokens that have been locked.","sequencerSigner":"The address of the sequencer signer."}},"SequencerRelocked(uint32,uint256,uint256)":{"params":{"amount":"The amount of Metis tokens that have been added to the lock.","index":"The index of the sequencer agent in the sequencer list.","reward":"The amount of additional rewards that have been locked."}},"SequencerTerminated(address)":{"params":{"sequencerSigner":"The address of the sequencer signer."}},"StakingAmountWithdrawn(address,uint256)":{"params":{"amount":"The amount of Metis tokens that have been deposited.","recipient":"The recipient of the  Metis token on  L2 (redemptionQueue)."}},"WithdrawRewardsSet(bool,bool)":{"params":{"newValue":"The new withdrawRewards.","oldValue":"The old withdrawRewards."}}},"kind":"dev","methods":{"lockFor(address,uint256,bytes)":{"params":{"_amount":"The amount of Metis tokens to lock.","_sequencerSigner":"The address of the sequencer signer.","_signerPubKey":"The public key of the sequencer signer."}},"owner()":{"details":"Returns the address of the current owner."},"relock()":{"details":"The `relock` function will transfer Metis tokens from the Dealer contract to the sequencer agent contract, and then call the `relock` function on the sequencer agent contract.","returns":{"totalProcessed":"The total amount of Metis tokens and rewards that have been relocked."}},"renounceOwnership()":{"details":"Leaves the contract without owner. It will not be possible to call `onlyOwner` functions. Can only be called by the current owner. NOTE: Renouncing ownership will leave the contract without an owner, thereby disabling any functionality that is only available to the owner."},"setL2Gas(uint32)":{"details":"The L2 gas limit is used when minting eMetis tokens on Layer 2.","params":{"_l2Gas":"The new L2 gas limit."}},"transferOwnership(address)":{"details":"Transfers ownership of the contract to a new account (`newOwner`). Can only be called by the current owner."},"withdrawStakingAmount(uint256)":{"params":{"amount":"The amount of Metis tokens to withdraw."}}},"title":"Dealer","version":1},"evm":{"bytecode":{"linkReferences":{},"object":"608060405234801561001057600080fd5b506135c5806100206000396000f3fe6080604052600436106101ee5760003560e01c80638da5cb5b1161010d578063c53b573d116100a0578063e92d61e51161006f578063e92d61e514610670578063f2fde38b1461069b578063f7cee36a146106c4578063f87b7a3e146106ef578063feafaa6b14610718576101ee565b8063c53b573d146105d1578063c7b8981c146105ef578063d6ae3cd51461061a578063e597455414610645576101ee565b8063a69df4b5116100dc578063a69df4b51461054a578063af70cba514610554578063b699ce5f1461057d578063c3b550c8146105a6576101ee565b80638da5cb5b1461049e5780638db8ad88146104c957806397ec19be146104f45780639e9357041461051f576101ee565b80633cbb697911610185578063715018a611610154578063715018a61461040657806376d9f95c1461041d5780637ca4f8b01461044857806385d1e2b814610473576101ee565b80633cbb69791461034a57806343c82cf714610375578063457cb5861461039e57806356891412146103db576101ee565b80631abdaf6a116101c15780631abdaf6a1461029057806333bec7e7146102cd5780633b4c46d0146102f65780633cb747bf1461031f576101ee565b80630182a6da146101f357806302fb0c5e1461020f57806304a78fca1461023a578063080e1e4e14610265575b600080fd5b61020d6004803603810190610208919061265d565b610722565b005b34801561021b57600080fd5b50610224610b9f565b60405161023191906126a5565b60405180910390f35b34801561024657600080fd5b5061024f610bb2565b60405161025c91906126cf565b60405180910390f35b34801561027157600080fd5b5061027a610bb8565b604051610287919061272b565b60405180910390f35b34801561029c57600080fd5b506102b760048036038101906102b2919061265d565b610bde565b6040516102c49190612765565b60405180910390f35b3480156102d957600080fd5b506102f460048036038101906102ef91906127ac565b610c18565b005b34801561030257600080fd5b5061031d60048036038101906103189190612805565b610c95565b005b34801561032b57600080fd5b50610334610ce1565b6040516103419190612891565b60405180910390f35b34801561035657600080fd5b5061035f610d07565b60405161036c9190612765565b60405180910390f35b34801561038157600080fd5b5061039c60048036038101906103979190612805565b610d1d565b005b3480156103aa57600080fd5b506103c560048036038101906103c091906127ac565b610d69565b6040516103d2919061272b565b60405180910390f35b3480156103e757600080fd5b506103f0610d9c565b6040516103fd91906126cf565b60405180910390f35b34801561041257600080fd5b5061041b610daf565b005b34801561042957600080fd5b50610432610dc3565b60405161043f9190612996565b60405180910390f35b34801561045457600080fd5b5061045d610e6f565b60405161046a91906126cf565b60405180910390f35b34801561047f57600080fd5b50610488610e75565b60405161049591906129d3565b60405180910390f35b3480156104aa57600080fd5b506104b3610e9b565b6040516104c0919061272b565b60405180910390f35b3480156104d557600080fd5b506104de610ed3565b6040516104eb919061272b565b60405180910390f35b34801561050057600080fd5b50610509610ef7565b604051610516919061272b565b60405180910390f35b34801561052b57600080fd5b50610534610f1d565b6040516105419190612765565b60405180910390f35b610552610f33565b005b34801561056057600080fd5b5061057b60048036038101906105769190612b34565b611061565b005b34801561058957600080fd5b506105a4600480360381019061059f9190612ba3565b6114eb565b005b3480156105b257600080fd5b506105bb611a80565b6040516105c8919061272b565b60405180910390f35b6105d9611aa6565b6040516105e691906126cf565b60405180910390f35b3480156105fb57600080fd5b50610604611f41565b60405161061191906126a5565b60405180910390f35b34801561062657600080fd5b5061062f611f54565b60405161063c91906126cf565b60405180910390f35b34801561065157600080fd5b5061065a611f5a565b6040516106679190612c66565b60405180910390f35b34801561067c57600080fd5b50610685611f80565b604051610692919061272b565b60405180910390f35b3480156106a757600080fd5b506106c260048036038101906106bd9190612805565b611fa6565b005b3480156106d057600080fd5b506106d961202c565b6040516106e69190612ca2565b60405180910390f35b3480156106fb57600080fd5b5061071660048036038101906107119190612805565b612052565b005b61072061209e565b005b61072a61214c565b600260009054906101000a900473ffffffffffffffffffffffffffffffffffffffff1673ffffffffffffffffffffffffffffffffffffffff1663441a3e70600d54836040518363ffffffff1660e01b8152600401610789929190612cbd565b600060405180830381600087803b1580156107a357600080fd5b505af11580156107b7573d6000803e3d6000fd5b505050506000600360009054906101000a900473ffffffffffffffffffffffffffffffffffffffff1673ffffffffffffffffffffffffffffffffffffffff1663e78cea926040518163ffffffff1660e01b8152600401602060405180830381865afa15801561082a573d6000803e3d6000fd5b505050506040513d601f19601f8201168201806040525081019061084e9190612cfb565b9050600360009054906101000a900473ffffffffffffffffffffffffffffffffffffffff1673ffffffffffffffffffffffffffffffffffffffff1663c01e1bd66040518163ffffffff1660e01b8152600401602060405180830381865afa1580156108bd573d6000803e3d6000fd5b505050506040513d601f19601f820116820180604052508101906108e19190612cfb565b73ffffffffffffffffffffffffffffffffffffffff1663095ea7b382846040518363ffffffff1660e01b815260040161091b929190612d28565b6020604051808303816000875af115801561093a573d6000803e3d6000fd5b505050506040513d601f19601f8201168201806040525081019061095e9190612d7d565b508073ffffffffffffffffffffffffffffffffffffffff1663ef808be234600554600360009054906101000a900473ffffffffffffffffffffffffffffffffffffffff1673ffffffffffffffffffffffffffffffffffffffff1663c01e1bd66040518163ffffffff1660e01b8152600401602060405180830381865afa1580156109ec573d6000803e3d6000fd5b505050506040513d601f19601f82011682018060405250810190610a109190612cfb565b600360009054906101000a900473ffffffffffffffffffffffffffffffffffffffff1673ffffffffffffffffffffffffffffffffffffffff166356eff2676040518163ffffffff1660e01b8152600401602060405180830381865afa158015610a7d573d6000803e3d6000fd5b505050506040513d601f19601f82011682018060405250810190610aa19190612cfb565b600f60009054906101000a900473ffffffffffffffffffffffffffffffffffffffff1688600c60009054906101000a900463ffffffff166040518863ffffffff1660e01b8152600401610af996959493929190612de1565b6000604051808303818588803b158015610b1257600080fd5b505af1158015610b26573d6000803e3d6000fd5b5050505050600f60009054906101000a900473ffffffffffffffffffffffffffffffffffffffff1673ffffffffffffffffffffffffffffffffffffffff167f6ef7a26d50cec3f1a210bed887413d426c9c13575a17872c54e00c4287ac5dce83604051610b9391906126cf565b60405180910390a25050565b600e60149054906101000a900460ff1681565b600d5481565b600660009054906101000a900473ffffffffffffffffffffffffffffffffffffffff1681565b600a8181548110610bee57600080fd5b9060005260206000209060089182820401919006600402915054906101000a900463ffffffff1681565b610c2061214c565b6000600c60009054906101000a900463ffffffff16905081600c60006101000a81548163ffffffff021916908363ffffffff1602179055507f4042b09a75e5a67c8cc2a57e00de6d29fb5202b7207afba895eb8b5cc3e2179e8183604051610c89929190612e55565b60405180910390a15050565b610c9d61214c565b80600f60006101000a81548173ffffffffffffffffffffffffffffffffffffffff021916908373ffffffffffffffffffffffffffffffffffffffff16021790555050565b600460009054906101000a900473ffffffffffffffffffffffffffffffffffffffff1681565b600c60009054906101000a900463ffffffff1681565b610d2561214c565b80600760006101000a81548173ffffffffffffffffffffffffffffffffffffffff021916908373ffffffffffffffffffffffffffffffffffffffff16021790555050565b60086020528060005260406000206000915054906101000a900473ffffffffffffffffffffffffffffffffffffffff1681565b6000610da6610dc3565b60000151905090565b610db761214c565b610dc160006121d3565b565b610dcb612594565b600260009054906101000a900473ffffffffffffffffffffffffffffffffffffffff1673ffffffffffffffffffffffffffffffffffffffff16636ba7ccff600d546040518263ffffffff1660e01b8152600401610e2891906126cf565b61014060405180830381865afa158015610e46573d6000803e3d6000fd5b505050506040513d601f19601f82011682018060405250810190610e6a9190612f8e565b905090565b600b5481565b600260009054906101000a900473ffffffffffffffffffffffffffffffffffffffff1681565b600080610ea66122aa565b90508060000160009054906101000a900473ffffffffffffffffffffffffffffffffffffffff1691505090565b60008054906101000a900473ffffffffffffffffffffffffffffffffffffffff1681565b600f60009054906101000a900473ffffffffffffffffffffffffffffffffffffffff1681565b600960009054906101000a900463ffffffff1681565b610f3b61214c565b600260009054906101000a900473ffffffffffffffffffffffffffffffffffffffff1673ffffffffffffffffffffffffffffffffffffffff1663262c0e6634600d54600c60009054906101000a900463ffffffff166040518463ffffffff1660e01b8152600401610fad929190612fbc565b6000604051808303818588803b158015610fc657600080fd5b505af1158015610fda573d6000803e3d6000fd5b50505050506000600e60146101000a81548160ff021916908315150217905550600e60009054906101000a900473ffffffffffffffffffffffffffffffffffffffff1673ffffffffffffffffffffffffffffffffffffffff167fbac99876b6a1c26412460d61d913235a30f0ea99585ffcfd53c0faae6ed3313460405160405180910390a2565b61106961214c565b6000600160009054906101000a900473ffffffffffffffffffffffffffffffffffffffff1673ffffffffffffffffffffffffffffffffffffffff166370a08231306040518263ffffffff1660e01b81526004016110c6919061272b565b602060405180830381865afa1580156110e3573d6000803e3d6000fd5b505050506040513d601f19601f820116820180604052508101906111079190612fe5565b90508281101561114c576040517f08c379a000000000000000000000000000000000000000000000000000000000815260040161114390613095565b60405180910390fd5b83600e60006101000a81548173ffffffffffffffffffffffffffffffffffffffff021916908373ffffffffffffffffffffffffffffffffffffffff160217905550600160009054906101000a900473ffffffffffffffffffffffffffffffffffffffff1673ffffffffffffffffffffffffffffffffffffffff1663095ea7b3600360009054906101000a900473ffffffffffffffffffffffffffffffffffffffff167fffffffffffffffffffffffffffffffffffffffffffffffffffffffffffffffff6040518363ffffffff1660e01b815260040161122c929190612d28565b6020604051808303816000875af115801561124b573d6000803e3d6000fd5b505050506040513d601f19601f8201168201806040525081019061126f9190612d7d565b6112ae576040517f08c379a00000000000000000000000000000000000000000000000000000000081526004016112a590613127565b60405180910390fd5b600260009054906101000a900473ffffffffffffffffffffffffffffffffffffffff1673ffffffffffffffffffffffffffffffffffffffff16639ad42030600e60009054906101000a900473ffffffffffffffffffffffffffffffffffffffff16600660009054906101000a900473ffffffffffffffffffffffffffffffffffffffff1686866040518563ffffffff1660e01b815260040161135394939291906131b5565b600060405180830381600087803b15801561136d57600080fd5b505af1158015611381573d6000803e3d6000fd5b50505050600260009054906101000a900473ffffffffffffffffffffffffffffffffffffffff1673ffffffffffffffffffffffffffffffffffffffff1663beb26755600e60009054906101000a900473ffffffffffffffffffffffffffffffffffffffff166040518263ffffffff1660e01b8152600401611402919061272b565b602060405180830381865afa15801561141f573d6000803e3d6000fd5b505050506040513d601f19601f820116820180604052508101906114439190612fe5565b600d819055506001600e60146101000a81548160ff021916908315150217905550600e60009054906101000a900473ffffffffffffffffffffffffffffffffffffffff1673ffffffffffffffffffffffffffffffffffffffff167fb1e87a33084279cb2bff2d1271034cf695f539ee73bbd934d1625703d585d84a84600e60149054906101000a900460ff166040516114dd929190613201565b60405180910390a250505050565b60006114f56122d2565b905060008160000160089054906101000a900460ff1615905060008260000160009054906101000a900467ffffffffffffffff1690506000808267ffffffffffffffff161480156115435750825b9050600060018367ffffffffffffffff16148015611578575060003073ffffffffffffffffffffffffffffffffffffffff163b145b905081158015611586575080155b156115bd576040517ff92ee8a900000000000000000000000000000000000000000000000000000000815260040160405180910390fd5b60018560000160006101000a81548167ffffffffffffffff021916908367ffffffffffffffff160217905550831561160d5760018560000160086101000a81548160ff0219169083151502179055505b600073ffffffffffffffffffffffffffffffffffffffff168c73ffffffffffffffffffffffffffffffffffffffff16141580156116775750600073ffffffffffffffffffffffffffffffffffffffff168b73ffffffffffffffffffffffffffffffffffffffff1614155b80156116b05750600073ffffffffffffffffffffffffffffffffffffffff168a73ffffffffffffffffffffffffffffffffffffffff1614155b80156116e95750600073ffffffffffffffffffffffffffffffffffffffff168773ffffffffffffffffffffffffffffffffffffffff1614155b80156117225750600073ffffffffffffffffffffffffffffffffffffffff168673ffffffffffffffffffffffffffffffffffffffff1614155b611761576040517f08c379a000000000000000000000000000000000000000000000000000000000815260040161175890613276565b60405180910390fd5b61176a336122fa565b8b600160006101000a81548173ffffffffffffffffffffffffffffffffffffffff021916908373ffffffffffffffffffffffffffffffffffffffff1602179055508a600260006101000a81548173ffffffffffffffffffffffffffffffffffffffff021916908373ffffffffffffffffffffffffffffffffffffffff160217905550600260009054906101000a900473ffffffffffffffffffffffffffffffffffffffff1673ffffffffffffffffffffffffffffffffffffffff1663e2fdcc176040518163ffffffff1660e01b8152600401602060405180830381865afa158015611859573d6000803e3d6000fd5b505050506040513d601f19601f8201168201806040525081019061187d91906132d4565b600360006101000a81548173ffffffffffffffffffffffffffffffffffffffff021916908373ffffffffffffffffffffffffffffffffffffffff1602179055508973ffffffffffffffffffffffffffffffffffffffff16633cb747bf6040518163ffffffff1660e01b8152600401602060405180830381865afa158015611908573d6000803e3d6000fd5b505050506040513d601f19601f8201168201806040525081019061192c9190612cfb565b600460006101000a81548173ffffffffffffffffffffffffffffffffffffffff021916908373ffffffffffffffffffffffffffffffffffffffff1602179055508860058190555087600c60006101000a81548163ffffffff021916908363ffffffff16021790555086600660006101000a81548173ffffffffffffffffffffffffffffffffffffffff021916908373ffffffffffffffffffffffffffffffffffffffff16021790555085600760006101000a81548173ffffffffffffffffffffffffffffffffffffffff021916908373ffffffffffffffffffffffffffffffffffffffff1602179055508315611a725760008560000160086101000a81548160ff0219169083151502179055507fc7f505b2f371ae2175ee4913f4499e1f2633a7b5936321eed1cdaeb6115181d26001604051611a699190613350565b60405180910390a15b505050505050505050505050565b600e60009054906101000a900473ffffffffffffffffffffffffffffffffffffffff1681565b6000600e60149054906101000a900460ff16611af7576040517f08c379a0000000000000000000000000000000000000000000000000000000008152600401611aee906133b7565b60405180910390fd5b6000600360009054906101000a900473ffffffffffffffffffffffffffffffffffffffff1673ffffffffffffffffffffffffffffffffffffffff16636c0b3e466040518163ffffffff1660e01b8152600401602060405180830381865afa158015611b66573d6000803e3d6000fd5b505050506040513d601f19601f82011682018060405250810190611b8a9190612fe5565b90506000600160009054906101000a900473ffffffffffffffffffffffffffffffffffffffff1673ffffffffffffffffffffffffffffffffffffffff166370a08231306040518263ffffffff1660e01b8152600401611be9919061272b565b602060405180830381865afa158015611c06573d6000803e3d6000fd5b505050506040513d601f19601f82011682018060405250810190611c2a9190612fe5565b90506000805b60018163ffffffff161015611ed6576000611c49610dc3565b905060008082602001518360000151915091508185611c689190613406565b94506000878210611c7a576000611c87565b8188611c86919061343a565b5b90506000611c95828961230e565b90508088611ca3919061343a565b975060008482611cb39190613406565b905060008103611cc857505050505050611ec3565b808b611cd49190613406565b9a5060008a8286611ce59190613406565b119050808015611cf55750600086115b15611dd857600260009054906101000a900473ffffffffffffffffffffffffffffffffffffffff1673ffffffffffffffffffffffffffffffffffffffff166317396687600d54600c60009054906101000a900463ffffffff166040518363ffffffff1660e01b8152600401611d6b929190612fbc565b600060405180830381600087803b158015611d8557600080fd5b505af1158015611d99573d6000803e3d6000fd5b50505050600d547f630af8b49bb398089a74eacdb08106c528436090bdb35d7302152dc5117df9bd87604051611dcf91906126cf565b60405180910390a25b801580611de55750600083115b15611ebb57600260009054906101000a900473ffffffffffffffffffffffffffffffffffffffff1673ffffffffffffffffffffffffffffffffffffffff1663015bb180600d548560016040518463ffffffff1660e01b8152600401611e4c9392919061346e565b600060405180830381600087803b158015611e6657600080fd5b505af1158015611e7a573d6000803e3d6000fd5b505050507fb8aafdec9bacdc76bfea3c330063c391a2904d4f91e71f97a91534f3c8ce4ab560008488604051611eb2939291906134e0565b60405180910390a15b505050505050505b8080611ece90613517565b915050611c30565b506000811115611f0357611ee981612327565b80600b6000828254611efb9190613406565b925050819055505b7f1e2aed425906c5ed1ac5aff65e04a30adda54675483414997c879ca7f92a2a576001604051611f3391906126a5565b60405180910390a150505090565b600c60049054906101000a900460ff1681565b60055481565b600160009054906101000a900473ffffffffffffffffffffffffffffffffffffffff1681565b600760009054906101000a900473ffffffffffffffffffffffffffffffffffffffff1681565b611fae61214c565b600073ffffffffffffffffffffffffffffffffffffffff168173ffffffffffffffffffffffffffffffffffffffff16036120205760006040517f1e4fbdf7000000000000000000000000000000000000000000000000000000008152600401612017919061272b565b60405180910390fd5b612029816121d3565b50565b600360009054906101000a900473ffffffffffffffffffffffffffffffffffffffff1681565b61205a61214c565b80600660006101000a81548173ffffffffffffffffffffffffffffffffffffffff021916908373ffffffffffffffffffffffffffffffffffffffff16021790555050565b6120a661214c565b600260009054906101000a900473ffffffffffffffffffffffffffffffffffffffff1673ffffffffffffffffffffffffffffffffffffffff16638ddc74de34600d54600c60009054906101000a900463ffffffff166040518463ffffffff1660e01b8152600401612118929190612fbc565b6000604051808303818588803b15801561213157600080fd5b505af1158015612145573d6000803e3d6000fd5b5050505050565b6121546124a6565b73ffffffffffffffffffffffffffffffffffffffff16612172610e9b565b73ffffffffffffffffffffffffffffffffffffffff16146121d1576121956124a6565b6040517f118cdaa70000000000000000000000000000000000000000000000000000000081526004016121c8919061272b565b60405180910390fd5b565b60006121dd6122aa565b905060008160000160009054906101000a900473ffffffffffffffffffffffffffffffffffffffff169050828260000160006101000a81548173ffffffffffffffffffffffffffffffffffffffff021916908373ffffffffffffffffffffffffffffffffffffffff1602179055508273ffffffffffffffffffffffffffffffffffffffff168173ffffffffffffffffffffffffffffffffffffffff167f8be0079c531659141344cd1fd0a4f28419497f9722a3daafe3b4186f6b6457e060405160405180910390a3505050565b60007f9016d09d72d40fdae2fd8ceac6b6234c7706214fd39c1cd1e609a0528c199300905090565b60007ff0c57e16840df040f15088dc2f81fe391c3923bec73e23a9662efc9c229c6a00905090565b6123026124ae565b61230b816124ee565b50565b600081831061231d578161231f565b825b905092915050565b600063eb82afb360e01b8260405160240161234291906126cf565b604051602081830303815290604052907bffffffffffffffffffffffffffffffffffffffffffffffffffffffff19166020820180517bffffffffffffffffffffffffffffffffffffffffffffffffffffffff83818316178352505050509050600460009054906101000a900473ffffffffffffffffffffffffffffffffffffffff1673ffffffffffffffffffffffffffffffffffffffff166344dd5ed634600554600660009054906101000a900473ffffffffffffffffffffffffffffffffffffffff1685600c60009054906101000a900463ffffffff166040518663ffffffff1660e01b81526004016124399493929190613543565b6000604051808303818588803b15801561245257600080fd5b505af1158015612466573d6000803e3d6000fd5b50505050507fd644e527c1896057ce642adfbc00f04d6b23d4c2fb30529522184d151dc087dc8260405161249a91906126cf565b60405180910390a15050565b600033905090565b6124b6612574565b6124ec576040517fd7e6bcf800000000000000000000000000000000000000000000000000000000815260040160405180910390fd5b565b6124f66124ae565b600073ffffffffffffffffffffffffffffffffffffffff168173ffffffffffffffffffffffffffffffffffffffff16036125685760006040517f1e4fbdf700000000000000000000000000000000000000000000000000000000815260040161255f919061272b565b60405180910390fd5b612571816121d3565b50565b600061257e6122d2565b60000160089054906101000a900460ff16905090565b6040518061014001604052806000815260200160008152602001600081526020016000815260200160008152602001600081526020016000815260200160008152602001600073ffffffffffffffffffffffffffffffffffffffff168152602001600073ffffffffffffffffffffffffffffffffffffffff1681525090565b6000604051905090565b600080fd5b600080fd5b6000819050919050565b61263a81612627565b811461264557600080fd5b50565b60008135905061265781612631565b92915050565b6000602082840312156126735761267261261d565b5b600061268184828501612648565b91505092915050565b60008115159050919050565b61269f8161268a565b82525050565b60006020820190506126ba6000830184612696565b92915050565b6126c981612627565b82525050565b60006020820190506126e460008301846126c0565b92915050565b600073ffffffffffffffffffffffffffffffffffffffff82169050919050565b6000612715826126ea565b9050919050565b6127258161270a565b82525050565b6000602082019050612740600083018461271c565b92915050565b600063ffffffff82169050919050565b61275f81612746565b82525050565b600060208201905061277a6000830184612756565b92915050565b61278981612746565b811461279457600080fd5b50565b6000813590506127a681612780565b92915050565b6000602082840312156127c2576127c161261d565b5b60006127d084828501612797565b91505092915050565b6127e28161270a565b81146127ed57600080fd5b50565b6000813590506127ff816127d9565b92915050565b60006020828403121561281b5761281a61261d565b5b6000612829848285016127f0565b91505092915050565b6000819050919050565b600061285761285261284d846126ea565b612832565b6126ea565b9050919050565b60006128698261283c565b9050919050565b600061287b8261285e565b9050919050565b61288b81612870565b82525050565b60006020820190506128a66000830184612882565b92915050565b6128b581612627565b82525050565b6128c48161270a565b82525050565b610140820160008201516128e160008501826128ac565b5060208201516128f460208501826128ac565b50604082015161290760408501826128ac565b50606082015161291a60608501826128ac565b50608082015161292d60808501826128ac565b5060a082015161294060a08501826128ac565b5060c082015161295360c08501826128ac565b5060e082015161296660e08501826128ac565b5061010082015161297b6101008501826128bb565b506101208201516129906101208501826128bb565b50505050565b6000610140820190506129ac60008301846128ca565b92915050565b60006129bd8261285e565b9050919050565b6129cd816129b2565b82525050565b60006020820190506129e860008301846129c4565b92915050565b600080fd5b600080fd5b6000601f19601f8301169050919050565b7f4e487b7100000000000000000000000000000000000000000000000000000000600052604160045260246000fd5b612a41826129f8565b810181811067ffffffffffffffff82111715612a6057612a5f612a09565b5b80604052505050565b6000612a73612613565b9050612a7f8282612a38565b919050565b600067ffffffffffffffff821115612a9f57612a9e612a09565b5b612aa8826129f8565b9050602081019050919050565b82818337600083830152505050565b6000612ad7612ad284612a84565b612a69565b905082815260208101848484011115612af357612af26129f3565b5b612afe848285612ab5565b509392505050565b600082601f830112612b1b57612b1a6129ee565b5b8135612b2b848260208601612ac4565b91505092915050565b600080600060608486031215612b4d57612b4c61261d565b5b6000612b5b868287016127f0565b9350506020612b6c86828701612648565b925050604084013567ffffffffffffffff811115612b8d57612b8c612622565b5b612b9986828701612b06565b9150509250925092565b600080600080600080600060e0888a031215612bc257612bc161261d565b5b6000612bd08a828b016127f0565b9750506020612be18a828b016127f0565b9650506040612bf28a828b016127f0565b9550506060612c038a828b01612648565b9450506080612c148a828b01612797565b93505060a0612c258a828b016127f0565b92505060c0612c368a828b016127f0565b91505092959891949750929550565b6000612c508261285e565b9050919050565b612c6081612c45565b82525050565b6000602082019050612c7b6000830184612c57565b92915050565b6000612c8c8261285e565b9050919050565b612c9c81612c81565b82525050565b6000602082019050612cb76000830184612c93565b92915050565b6000604082019050612cd260008301856126c0565b612cdf60208301846126c0565b9392505050565b600081519050612cf5816127d9565b92915050565b600060208284031215612d1157612d1061261d565b5b6000612d1f84828501612ce6565b91505092915050565b6000604082019050612d3d600083018561271c565b612d4a60208301846126c0565b9392505050565b612d5a8161268a565b8114612d6557600080fd5b50565b600081519050612d7781612d51565b92915050565b600060208284031215612d9357612d9261261d565b5b6000612da184828501612d68565b91505092915050565b600082825260208201905092915050565b50565b6000612dcb600083612daa565b9150612dd682612dbb565b600082019050919050565b600060e082019050612df660008301896126c0565b612e03602083018861271c565b612e10604083018761271c565b612e1d606083018661271c565b612e2a60808301856126c0565b612e3760a0830184612756565b81810360c0830152612e4881612dbe565b9050979650505050505050565b6000604082019050612e6a6000830185612756565b612e776020830184612756565b9392505050565b600080fd5b600081519050612e9281612631565b92915050565b60006101408284031215612eaf57612eae612e7e565b5b612eba610140612a69565b90506000612eca84828501612e83565b6000830152506020612ede84828501612e83565b6020830152506040612ef284828501612e83565b6040830152506060612f0684828501612e83565b6060830152506080612f1a84828501612e83565b60808301525060a0612f2e84828501612e83565b60a08301525060c0612f4284828501612e83565b60c08301525060e0612f5684828501612e83565b60e083015250610100612f6b84828501612ce6565b61010083015250610120612f8184828501612ce6565b6101208301525092915050565b60006101408284031215612fa557612fa461261d565b5b6000612fb384828501612e98565b91505092915050565b6000604082019050612fd160008301856126c0565b612fde6020830184612756565b9392505050565b600060208284031215612ffb57612ffa61261d565b5b600061300984828501612e83565b91505092915050565b600082825260208201905092915050565b7f4465616c65723a20496e73756666696369656e74204d657469732062616c616e60008201527f6365000000000000000000000000000000000000000000000000000000000000602082015250565b600061307f602283613012565b915061308a82613023565b604082019050919050565b600060208201905081810360008301526130ae81613072565b9050919050565b7f4465616c65723a20417070726f76616c20746f204c6f636b696e67496e666f2060008201527f6661696c65640000000000000000000000000000000000000000000000000000602082015250565b6000613111602683613012565b915061311c826130b5565b604082019050919050565b6000602082019050818103600083015261314081613104565b9050919050565b600081519050919050565b60005b83811015613170578082015181840152602081019050613155565b60008484015250505050565b600061318782613147565b6131918185612daa565b93506131a1818560208601613152565b6131aa816129f8565b840191505092915050565b60006080820190506131ca600083018761271c565b6131d7602083018661271c565b6131e460408301856126c0565b81810360608301526131f6818461317c565b905095945050505050565b600060408201905061321660008301856126c0565b6132236020830184612696565b9392505050565b7f4465616c65723a207a65726f2061646472657373000000000000000000000000600082015250565b6000613260601483613012565b915061326b8261322a565b602082019050919050565b6000602082019050818103600083015261328f81613253565b9050919050565b60006132a18261270a565b9050919050565b6132b181613296565b81146132bc57600080fd5b50565b6000815190506132ce816132a8565b92915050565b6000602082840312156132ea576132e961261d565b5b60006132f8848285016132bf565b91505092915050565b6000819050919050565b600067ffffffffffffffff82169050919050565b600061333a61333561333084613301565b612832565b61330b565b9050919050565b61334a8161331f565b82525050565b60006020820190506133656000830184613341565b92915050565b7f4465616c65723a206e6f206163746976652073657175656e6365720000000000600082015250565b60006133a1601b83613012565b91506133ac8261336b565b602082019050919050565b600060208201905081810360008301526133d081613394565b9050919050565b7f4e487b7100000000000000000000000000000000000000000000000000000000600052601160045260246000fd5b600061341182612627565b915061341c83612627565b9250828201905080821115613434576134336133d7565b5b92915050565b600061344582612627565b915061345083612627565b9250828203905081811115613468576134676133d7565b5b92915050565b600060608201905061348360008301866126c0565b61349060208301856126c0565b61349d6040830184612696565b949350505050565b6000819050919050565b60006134ca6134c56134c0846134a5565b612832565b612746565b9050919050565b6134da816134af565b82525050565b60006060820190506134f560008301866134d1565b61350260208301856126c0565b61350f60408301846126c0565b949350505050565b600061352282612746565b915063ffffffff8203613538576135376133d7565b5b600182019050919050565b600060808201905061355860008301876126c0565b613565602083018661271c565b8181036040830152613577818561317c565b90506135866060830184612756565b9594505050505056fea26469706673582212207dd67cea66b2d951eda917dca952200ef2b9d302f461ac1e89fff75044c5c1df64736f6c63430008140033","opcodes":"PUSH1 0x80 PUSH1 0x40 MSTORE CALLVALUE DUP1 ISZERO PUSH2 0x10 JUMPI PUSH1 0x0 DUP1 REVERT JUMPDEST POP PUSH2 0x35C5 DUP1 PUSH2 0x20 PUSH1 0x0 CODECOPY PUSH1 0x0 RETURN INVALID PUSH1 0x80 PUSH1 0x40 MSTORE PUSH1 0x4 CALLDATASIZE LT PUSH2 0x1EE JUMPI PUSH1 0x0 CALLDATALOAD PUSH1 0xE0 SHR DUP1 PUSH4 0x8DA5CB5B GT PUSH2 0x10D JUMPI DUP1 PUSH4 0xC53B573D GT PUSH2 0xA0 JUMPI DUP1 PUSH4 0xE92D61E5 GT PUSH2 0x6F JUMPI DUP1 PUSH4 0xE92D61E5 EQ PUSH2 0x670 JUMPI DUP1 PUSH4 0xF2FDE38B EQ PUSH2 0x69B JUMPI DUP1 PUSH4 0xF7CEE36A EQ PUSH2 0x6C4 JUMPI DUP1 PUSH4 0xF87B7A3E EQ PUSH2 0x6EF JUMPI DUP1 PUSH4 0xFEAFAA6B EQ PUSH2 0x718 JUMPI PUSH2 0x1EE JUMP JUMPDEST DUP1 PUSH4 0xC53B573D EQ PUSH2 0x5D1 JUMPI DUP1 PUSH4 0xC7B8981C EQ PUSH2 0x5EF JUMPI DUP1 PUSH4 0xD6AE3CD5 EQ PUSH2 0x61A JUMPI DUP1 PUSH4 0xE5974554 EQ PUSH2 0x645 JUMPI PUSH2 0x1EE JUMP JUMPDEST DUP1 PUSH4 0xA69DF4B5 GT PUSH2 0xDC JUMPI DUP1 PUSH4 0xA69DF4B5 EQ PUSH2 0x54A JUMPI DUP1 PUSH4 0xAF70CBA5 EQ PUSH2 0x554 JUMPI DUP1 PUSH4 0xB699CE5F EQ PUSH2 0x57D JUMPI DUP1 PUSH4 0xC3B550C8 EQ PUSH2 0x5A6 JUMPI PUSH2 0x1EE JUMP JUMPDEST DUP1 PUSH4 0x8DA5CB5B EQ PUSH2 0x49E JUMPI DUP1 PUSH4 0x8DB8AD88 EQ PUSH2 0x4C9 JUMPI DUP1 PUSH4 0x97EC19BE EQ PUSH2 0x4F4 JUMPI DUP1 PUSH4 0x9E935704 EQ PUSH2 0x51F JUMPI PUSH2 0x1EE JUMP JUMPDEST DUP1 PUSH4 0x3CBB6979 GT PUSH2 0x185 JUMPI DUP1 PUSH4 0x715018A6 GT PUSH2 0x154 JUMPI DUP1 PUSH4 0x715018A6 EQ PUSH2 0x406 JUMPI DUP1 PUSH4 0x76D9F95C EQ PUSH2 0x41D JUMPI DUP1 PUSH4 0x7CA4F8B0 EQ PUSH2 0x448 JUMPI DUP1 PUSH4 0x85D1E2B8 EQ PUSH2 0x473 JUMPI PUSH2 0x1EE JUMP JUMPDEST DUP1 PUSH4 0x3CBB6979 EQ PUSH2 0x34A JUMPI DUP1 PUSH4 0x43C82CF7 EQ PUSH2 0x375 JUMPI DUP1 PUSH4 0x457CB586 EQ PUSH2 0x39E JUMPI DUP1 PUSH4 0x56891412 EQ PUSH2 0x3DB JUMPI PUSH2 0x1EE JUMP JUMPDEST DUP1 PUSH4 0x1ABDAF6A GT PUSH2 0x1C1 JUMPI DUP1 PUSH4 0x1ABDAF6A EQ PUSH2 0x290 JUMPI DUP1 PUSH4 0x33BEC7E7 EQ PUSH2 0x2CD JUMPI DUP1 PUSH4 0x3B4C46D0 EQ PUSH2 0x2F6 JUMPI DUP1 PUSH4 0x3CB747BF EQ PUSH2 0x31F JUMPI PUSH2 0x1EE JUMP JUMPDEST DUP1 PUSH4 0x182A6DA EQ PUSH2 0x1F3 JUMPI DUP1 PUSH4 0x2FB0C5E EQ PUSH2 0x20F JUMPI DUP1 PUSH4 0x4A78FCA EQ PUSH2 0x23A JUMPI DUP1 PUSH4 0x80E1E4E EQ PUSH2 0x265 JUMPI JUMPDEST PUSH1 0x0 DUP1 REVERT JUMPDEST PUSH2 0x20D PUSH1 0x4 DUP1 CALLDATASIZE SUB DUP2 ADD SWAP1 PUSH2 0x208 SWAP2 SWAP1 PUSH2 0x265D JUMP JUMPDEST PUSH2 0x722 JUMP JUMPDEST STOP JUMPDEST CALLVALUE DUP1 ISZERO PUSH2 0x21B JUMPI PUSH1 0x0 DUP1 REVERT JUMPDEST POP PUSH2 0x224 PUSH2 0xB9F JUMP JUMPDEST PUSH1 0x40 MLOAD PUSH2 0x231 SWAP2 SWAP1 PUSH2 0x26A5 JUMP JUMPDEST PUSH1 0x40 MLOAD DUP1 SWAP2 SUB SWAP1 RETURN JUMPDEST CALLVALUE DUP1 ISZERO PUSH2 0x246 JUMPI PUSH1 0x0 DUP1 REVERT JUMPDEST POP PUSH2 0x24F PUSH2 0xBB2 JUMP JUMPDEST PUSH1 0x40 MLOAD PUSH2 0x25C SWAP2 SWAP1 PUSH2 0x26CF JUMP JUMPDEST PUSH1 0x40 MLOAD DUP1 SWAP2 SUB SWAP1 RETURN JUMPDEST CALLVALUE DUP1 ISZERO PUSH2 0x271 JUMPI PUSH1 0x0 DUP1 REVERT JUMPDEST POP PUSH2 0x27A PUSH2 0xBB8 JUMP JUMPDEST PUSH1 0x40 MLOAD PUSH2 0x287 SWAP2 SWAP1 PUSH2 0x272B JUMP JUMPDEST PUSH1 0x40 MLOAD DUP1 SWAP2 SUB SWAP1 RETURN JUMPDEST CALLVALUE DUP1 ISZERO PUSH2 0x29C JUMPI PUSH1 0x0 DUP1 REVERT JUMPDEST POP PUSH2 0x2B7 PUSH1 0x4 DUP1 CALLDATASIZE SUB DUP2 ADD SWAP1 PUSH2 0x2B2 SWAP2 SWAP1 PUSH2 0x265D JUMP JUMPDEST PUSH2 0xBDE JUMP JUMPDEST PUSH1 0x40 MLOAD PUSH2 0x2C4 SWAP2 SWAP1 PUSH2 0x2765 JUMP JUMPDEST PUSH1 0x40 MLOAD DUP1 SWAP2 SUB SWAP1 RETURN JUMPDEST CALLVALUE DUP1 ISZERO PUSH2 0x2D9 JUMPI PUSH1 0x0 DUP1 REVERT JUMPDEST POP PUSH2 0x2F4 PUSH1 0x4 DUP1 CALLDATASIZE SUB DUP2 ADD SWAP1 PUSH2 0x2EF SWAP2 SWAP1 PUSH2 0x27AC JUMP JUMPDEST PUSH2 0xC18 JUMP JUMPDEST STOP JUMPDEST CALLVALUE DUP1 ISZERO PUSH2 0x302 JUMPI PUSH1 0x0 DUP1 REVERT JUMPDEST POP PUSH2 0x31D PUSH1 0x4 DUP1 CALLDATASIZE SUB DUP2 ADD SWAP1 PUSH2 0x318 SWAP2 SWAP1 PUSH2 0x2805 JUMP JUMPDEST PUSH2 0xC95 JUMP JUMPDEST STOP JUMPDEST CALLVALUE DUP1 ISZERO PUSH2 0x32B JUMPI PUSH1 0x0 DUP1 REVERT JUMPDEST POP PUSH2 0x334 PUSH2 0xCE1 JUMP JUMPDEST PUSH1 0x40 MLOAD PUSH2 0x341 SWAP2 SWAP1 PUSH2 0x2891 JUMP JUMPDEST PUSH1 0x40 MLOAD DUP1 SWAP2 SUB SWAP1 RETURN JUMPDEST CALLVALUE DUP1 ISZERO PUSH2 0x356 JUMPI PUSH1 0x0 DUP1 REVERT JUMPDEST POP PUSH2 0x35F PUSH2 0xD07 JUMP JUMPDEST PUSH1 0x40 MLOAD PUSH2 0x36C SWAP2 SWAP1 PUSH2 0x2765 JUMP JUMPDEST PUSH1 0x40 MLOAD DUP1 SWAP2 SUB SWAP1 RETURN JUMPDEST CALLVALUE DUP1 ISZERO PUSH2 0x381 JUMPI PUSH1 0x0 DUP1 REVERT JUMPDEST POP PUSH2 0x39C PUSH1 0x4 DUP1 CALLDATASIZE SUB DUP2 ADD SWAP1 PUSH2 0x397 SWAP2 SWAP1 PUSH2 0x2805 JUMP JUMPDEST PUSH2 0xD1D JUMP JUMPDEST STOP JUMPDEST CALLVALUE DUP1 ISZERO PUSH2 0x3AA JUMPI PUSH1 0x0 DUP1 REVERT JUMPDEST POP PUSH2 0x3C5 PUSH1 0x4 DUP1 CALLDATASIZE SUB DUP2 ADD SWAP1 PUSH2 0x3C0 SWAP2 SWAP1 PUSH2 0x27AC JUMP JUMPDEST PUSH2 0xD69 JUMP JUMPDEST PUSH1 0x40 MLOAD PUSH2 0x3D2 SWAP2 SWAP1 PUSH2 0x272B JUMP JUMPDEST PUSH1 0x40 MLOAD DUP1 SWAP2 SUB SWAP1 RETURN JUMPDEST CALLVALUE DUP1 ISZERO PUSH2 0x3E7 JUMPI PUSH1 0x0 DUP1 REVERT JUMPDEST POP PUSH2 0x3F0 PUSH2 0xD9C JUMP JUMPDEST PUSH1 0x40 MLOAD PUSH2 0x3FD SWAP2 SWAP1 PUSH2 0x26CF JUMP JUMPDEST PUSH1 0x40 MLOAD DUP1 SWAP2 SUB SWAP1 RETURN JUMPDEST CALLVALUE DUP1 ISZERO PUSH2 0x412 JUMPI PUSH1 0x0 DUP1 REVERT JUMPDEST POP PUSH2 0x41B PUSH2 0xDAF JUMP JUMPDEST STOP JUMPDEST CALLVALUE DUP1 ISZERO PUSH2 0x429 JUMPI PUSH1 0x0 DUP1 REVERT JUMPDEST POP PUSH2 0x432 PUSH2 0xDC3 JUMP JUMPDEST PUSH1 0x40 MLOAD PUSH2 0x43F SWAP2 SWAP1 PUSH2 0x2996 JUMP JUMPDEST PUSH1 0x40 MLOAD DUP1 SWAP2 SUB SWAP1 RETURN JUMPDEST CALLVALUE DUP1 ISZERO PUSH2 0x454 JUMPI PUSH1 0x0 DUP1 REVERT JUMPDEST POP PUSH2 0x45D PUSH2 0xE6F JUMP JUMPDEST PUSH1 0x40 MLOAD PUSH2 0x46A SWAP2 SWAP1 PUSH2 0x26CF JUMP JUMPDEST PUSH1 0x40 MLOAD DUP1 SWAP2 SUB SWAP1 RETURN JUMPDEST CALLVALUE DUP1 ISZERO PUSH2 0x47F JUMPI PUSH1 0x0 DUP1 REVERT JUMPDEST POP PUSH2 0x488 PUSH2 0xE75 JUMP JUMPDEST PUSH1 0x40 MLOAD PUSH2 0x495 SWAP2 SWAP1 PUSH2 0x29D3 JUMP JUMPDEST PUSH1 0x40 MLOAD DUP1 SWAP2 SUB SWAP1 RETURN JUMPDEST CALLVALUE DUP1 ISZERO PUSH2 0x4AA JUMPI PUSH1 0x0 DUP1 REVERT JUMPDEST POP PUSH2 0x4B3 PUSH2 0xE9B JUMP JUMPDEST PUSH1 0x40 MLOAD PUSH2 0x4C0 SWAP2 SWAP1 PUSH2 0x272B JUMP JUMPDEST PUSH1 0x40 MLOAD DUP1 SWAP2 SUB SWAP1 RETURN JUMPDEST CALLVALUE DUP1 ISZERO PUSH2 0x4D5 JUMPI PUSH1 0x0 DUP1 REVERT JUMPDEST POP PUSH2 0x4DE PUSH2 0xED3 JUMP JUMPDEST PUSH1 0x40 MLOAD PUSH2 0x4EB SWAP2 SWAP1 PUSH2 0x272B JUMP JUMPDEST PUSH1 0x40 MLOAD DUP1 SWAP2 SUB SWAP1 RETURN JUMPDEST CALLVALUE DUP1 ISZERO PUSH2 0x500 JUMPI PUSH1 0x0 DUP1 REVERT JUMPDEST POP PUSH2 0x509 PUSH2 0xEF7 JUMP JUMPDEST PUSH1 0x40 MLOAD PUSH2 0x516 SWAP2 SWAP1 PUSH2 0x272B JUMP JUMPDEST PUSH1 0x40 MLOAD DUP1 SWAP2 SUB SWAP1 RETURN JUMPDEST CALLVALUE DUP1 ISZERO PUSH2 0x52B JUMPI PUSH1 0x0 DUP1 REVERT JUMPDEST POP PUSH2 0x534 PUSH2 0xF1D JUMP JUMPDEST PUSH1 0x40 MLOAD PUSH2 0x541 SWAP2 SWAP1 PUSH2 0x2765 JUMP JUMPDEST PUSH1 0x40 MLOAD DUP1 SWAP2 SUB SWAP1 RETURN JUMPDEST PUSH2 0x552 PUSH2 0xF33 JUMP JUMPDEST STOP JUMPDEST CALLVALUE DUP1 ISZERO PUSH2 0x560 JUMPI PUSH1 0x0 DUP1 REVERT JUMPDEST POP PUSH2 0x57B PUSH1 0x4 DUP1 CALLDATASIZE SUB DUP2 ADD SWAP1 PUSH2 0x576 SWAP2 SWAP1 PUSH2 0x2B34 JUMP JUMPDEST PUSH2 0x1061 JUMP JUMPDEST STOP JUMPDEST CALLVALUE DUP1 ISZERO PUSH2 0x589 JUMPI PUSH1 0x0 DUP1 REVERT JUMPDEST POP PUSH2 0x5A4 PUSH1 0x4 DUP1 CALLDATASIZE SUB DUP2 ADD SWAP1 PUSH2 0x59F SWAP2 SWAP1 PUSH2 0x2BA3 JUMP JUMPDEST PUSH2 0x14EB JUMP JUMPDEST STOP JUMPDEST CALLVALUE DUP1 ISZERO PUSH2 0x5B2 JUMPI PUSH1 0x0 DUP1 REVERT JUMPDEST POP PUSH2 0x5BB PUSH2 0x1A80 JUMP JUMPDEST PUSH1 0x40 MLOAD PUSH2 0x5C8 SWAP2 SWAP1 PUSH2 0x272B JUMP JUMPDEST PUSH1 0x40 MLOAD DUP1 SWAP2 SUB SWAP1 RETURN JUMPDEST PUSH2 0x5D9 PUSH2 0x1AA6 JUMP JUMPDEST PUSH1 0x40 MLOAD PUSH2 0x5E6 SWAP2 SWAP1 PUSH2 0x26CF JUMP JUMPDEST PUSH1 0x40 MLOAD DUP1 SWAP2 SUB SWAP1 RETURN JUMPDEST CALLVALUE DUP1 ISZERO PUSH2 0x5FB JUMPI PUSH1 0x0 DUP1 REVERT JUMPDEST POP PUSH2 0x604 PUSH2 0x1F41 JUMP JUMPDEST PUSH1 0x40 MLOAD PUSH2 0x611 SWAP2 SWAP1 PUSH2 0x26A5 JUMP JUMPDEST PUSH1 0x40 MLOAD DUP1 SWAP2 SUB SWAP1 RETURN JUMPDEST CALLVALUE DUP1 ISZERO PUSH2 0x626 JUMPI PUSH1 0x0 DUP1 REVERT JUMPDEST POP PUSH2 0x62F PUSH2 0x1F54 JUMP JUMPDEST PUSH1 0x40 MLOAD PUSH2 0x63C SWAP2 SWAP1 PUSH2 0x26CF JUMP JUMPDEST PUSH1 0x40 MLOAD DUP1 SWAP2 SUB SWAP1 RETURN JUMPDEST CALLVALUE DUP1 ISZERO PUSH2 0x651 JUMPI PUSH1 0x0 DUP1 REVERT JUMPDEST POP PUSH2 0x65A PUSH2 0x1F5A JUMP JUMPDEST PUSH1 0x40 MLOAD PUSH2 0x667 SWAP2 SWAP1 PUSH2 0x2C66 JUMP JUMPDEST PUSH1 0x40 MLOAD DUP1 SWAP2 SUB SWAP1 RETURN JUMPDEST CALLVALUE DUP1 ISZERO PUSH2 0x67C JUMPI PUSH1 0x0 DUP1 REVERT JUMPDEST POP PUSH2 0x685 PUSH2 0x1F80 JUMP JUMPDEST PUSH1 0x40 MLOAD PUSH2 0x692 SWAP2 SWAP1 PUSH2 0x272B JUMP JUMPDEST PUSH1 0x40 MLOAD DUP1 SWAP2 SUB SWAP1 RETURN JUMPDEST CALLVALUE DUP1 ISZERO PUSH2 0x6A7 JUMPI PUSH1 0x0 DUP1 REVERT JUMPDEST POP PUSH2 0x6C2 PUSH1 0x4 DUP1 CALLDATASIZE SUB DUP2 ADD SWAP1 PUSH2 0x6BD SWAP2 SWAP1 PUSH2 0x2805 JUMP JUMPDEST PUSH2 0x1FA6 JUMP JUMPDEST STOP JUMPDEST CALLVALUE DUP1 ISZERO PUSH2 0x6D0 JUMPI PUSH1 0x0 DUP1 REVERT JUMPDEST POP PUSH2 0x6D9 PUSH2 0x202C JUMP JUMPDEST PUSH1 0x40 MLOAD PUSH2 0x6E6 SWAP2 SWAP1 PUSH2 0x2CA2 JUMP JUMPDEST PUSH1 0x40 MLOAD DUP1 SWAP2 SUB SWAP1 RETURN JUMPDEST CALLVALUE DUP1 ISZERO PUSH2 0x6FB JUMPI PUSH1 0x0 DUP1 REVERT JUMPDEST POP PUSH2 0x716 PUSH1 0x4 DUP1 CALLDATASIZE SUB DUP2 ADD SWAP1 PUSH2 0x711 SWAP2 SWAP1 PUSH2 0x2805 JUMP JUMPDEST PUSH2 0x2052 JUMP JUMPDEST STOP JUMPDEST PUSH2 0x720 PUSH2 0x209E JUMP JUMPDEST STOP JUMPDEST PUSH2 0x72A PUSH2 0x214C JUMP JUMPDEST PUSH1 0x2 PUSH1 0x0 SWAP1 SLOAD SWAP1 PUSH2 0x100 EXP SWAP1 DIV PUSH20 0xFFFFFFFFFFFFFFFFFFFFFFFFFFFFFFFFFFFFFFFF AND PUSH20 0xFFFFFFFFFFFFFFFFFFFFFFFFFFFFFFFFFFFFFFFF AND PUSH4 0x441A3E70 PUSH1 0xD SLOAD DUP4 PUSH1 0x40 MLOAD DUP4 PUSH4 0xFFFFFFFF AND PUSH1 0xE0 SHL DUP2 MSTORE PUSH1 0x4 ADD PUSH2 0x789 SWAP3 SWAP2 SWAP1 PUSH2 0x2CBD JUMP JUMPDEST PUSH1 0x0 PUSH1 0x40 MLOAD DUP1 DUP4 SUB DUP2 PUSH1 0x0 DUP8 DUP1 EXTCODESIZE ISZERO DUP1 ISZERO PUSH2 0x7A3 JUMPI PUSH1 0x0 DUP1 REVERT JUMPDEST POP GAS CALL ISZERO DUP1 ISZERO PUSH2 0x7B7 JUMPI RETURNDATASIZE PUSH1 0x0 DUP1 RETURNDATACOPY RETURNDATASIZE PUSH1 0x0 REVERT JUMPDEST POP POP POP POP PUSH1 0x0 PUSH1 0x3 PUSH1 0x0 SWAP1 SLOAD SWAP1 PUSH2 0x100 EXP SWAP1 DIV PUSH20 0xFFFFFFFFFFFFFFFFFFFFFFFFFFFFFFFFFFFFFFFF AND PUSH20 0xFFFFFFFFFFFFFFFFFFFFFFFFFFFFFFFFFFFFFFFF AND PUSH4 0xE78CEA92 PUSH1 0x40 MLOAD DUP2 PUSH4 0xFFFFFFFF AND PUSH1 0xE0 SHL DUP2 MSTORE PUSH1 0x4 ADD PUSH1 0x20 PUSH1 0x40 MLOAD DUP1 DUP4 SUB DUP2 DUP7 GAS STATICCALL ISZERO DUP1 ISZERO PUSH2 0x82A JUMPI RETURNDATASIZE PUSH1 0x0 DUP1 RETURNDATACOPY RETURNDATASIZE PUSH1 0x0 REVERT JUMPDEST POP POP POP POP PUSH1 0x40 MLOAD RETURNDATASIZE PUSH1 0x1F NOT PUSH1 0x1F DUP3 ADD AND DUP3 ADD DUP1 PUSH1 0x40 MSTORE POP DUP2 ADD SWAP1 PUSH2 0x84E SWAP2 SWAP1 PUSH2 0x2CFB JUMP JUMPDEST SWAP1 POP PUSH1 0x3 PUSH1 0x0 SWAP1 SLOAD SWAP1 PUSH2 0x100 EXP SWAP1 DIV PUSH20 0xFFFFFFFFFFFFFFFFFFFFFFFFFFFFFFFFFFFFFFFF AND PUSH20 0xFFFFFFFFFFFFFFFFFFFFFFFFFFFFFFFFFFFFFFFF AND PUSH4 0xC01E1BD6 PUSH1 0x40 MLOAD DUP2 PUSH4 0xFFFFFFFF AND PUSH1 0xE0 SHL DUP2 MSTORE PUSH1 0x4 ADD PUSH1 0x20 PUSH1 0x40 MLOAD DUP1 DUP4 SUB DUP2 DUP7 GAS STATICCALL ISZERO DUP1 ISZERO PUSH2 0x8BD JUMPI RETURNDATASIZE PUSH1 0x0 DUP1 RETURNDATACOPY RETURNDATASIZE PUSH1 0x0 REVERT JUMPDEST POP POP POP POP PUSH1 0x40 MLOAD RETURNDATASIZE PUSH1 0x1F NOT PUSH1 0x1F DUP3 ADD AND DUP3 ADD DUP1 PUSH1 0x40 MSTORE POP DUP2 ADD SWAP1 PUSH2 0x8E1 SWAP2 SWAP1 PUSH2 0x2CFB JUMP JUMPDEST PUSH20 0xFFFFFFFFFFFFFFFFFFFFFFFFFFFFFFFFFFFFFFFF AND PUSH4 0x95EA7B3 DUP3 DUP5 PUSH1 0x40 MLOAD DUP4 PUSH4 0xFFFFFFFF AND PUSH1 0xE0 SHL DUP2 MSTORE PUSH1 0x4 ADD PUSH2 0x91B SWAP3 SWAP2 SWAP1 PUSH2 0x2D28 JUMP JUMPDEST PUSH1 0x20 PUSH1 0x40 MLOAD DUP1 DUP4 SUB DUP2 PUSH1 0x0 DUP8 GAS CALL ISZERO DUP1 ISZERO PUSH2 0x93A JUMPI RETURNDATASIZE PUSH1 0x0 DUP1 RETURNDATACOPY RETURNDATASIZE PUSH1 0x0 REVERT JUMPDEST POP POP POP POP PUSH1 0x40 MLOAD RETURNDATASIZE PUSH1 0x1F NOT PUSH1 0x1F DUP3 ADD AND DUP3 ADD DUP1 PUSH1 0x40 MSTORE POP DUP2 ADD SWAP1 PUSH2 0x95E SWAP2 SWAP1 PUSH2 0x2D7D JUMP JUMPDEST POP DUP1 PUSH20 0xFFFFFFFFFFFFFFFFFFFFFFFFFFFFFFFFFFFFFFFF AND PUSH4 0xEF808BE2 CALLVALUE PUSH1 0x5 SLOAD PUSH1 0x3 PUSH1 0x0 SWAP1 SLOAD SWAP1 PUSH2 0x100 EXP SWAP1 DIV PUSH20 0xFFFFFFFFFFFFFFFFFFFFFFFFFFFFFFFFFFFFFFFF AND PUSH20 0xFFFFFFFFFFFFFFFFFFFFFFFFFFFFFFFFFFFFFFFF AND PUSH4 0xC01E1BD6 PUSH1 0x40 MLOAD DUP2 PUSH4 0xFFFFFFFF AND PUSH1 0xE0 SHL DUP2 MSTORE PUSH1 0x4 ADD PUSH1 0x20 PUSH1 0x40 MLOAD DUP1 DUP4 SUB DUP2 DUP7 GAS STATICCALL ISZERO DUP1 ISZERO PUSH2 0x9EC JUMPI RETURNDATASIZE PUSH1 0x0 DUP1 RETURNDATACOPY RETURNDATASIZE PUSH1 0x0 REVERT JUMPDEST POP POP POP POP PUSH1 0x40 MLOAD RETURNDATASIZE PUSH1 0x1F NOT PUSH1 0x1F DUP3 ADD AND DUP3 ADD DUP1 PUSH1 0x40 MSTORE POP DUP2 ADD SWAP1 PUSH2 0xA10 SWAP2 SWAP1 PUSH2 0x2CFB JUMP JUMPDEST PUSH1 0x3 PUSH1 0x0 SWAP1 SLOAD SWAP1 PUSH2 0x100 EXP SWAP1 DIV PUSH20 0xFFFFFFFFFFFFFFFFFFFFFFFFFFFFFFFFFFFFFFFF AND PUSH20 0xFFFFFFFFFFFFFFFFFFFFFFFFFFFFFFFFFFFFFFFF AND PUSH4 0x56EFF267 PUSH1 0x40 MLOAD DUP2 PUSH4 0xFFFFFFFF AND PUSH1 0xE0 SHL DUP2 MSTORE PUSH1 0x4 ADD PUSH1 0x20 PUSH1 0x40 MLOAD DUP1 DUP4 SUB DUP2 DUP7 GAS STATICCALL ISZERO DUP1 ISZERO PUSH2 0xA7D JUMPI RETURNDATASIZE PUSH1 0x0 DUP1 RETURNDATACOPY RETURNDATASIZE PUSH1 0x0 REVERT JUMPDEST POP POP POP POP PUSH1 0x40 MLOAD RETURNDATASIZE PUSH1 0x1F NOT PUSH1 0x1F DUP3 ADD AND DUP3 ADD DUP1 PUSH1 0x40 MSTORE POP DUP2 ADD SWAP1 PUSH2 0xAA1 SWAP2 SWAP1 PUSH2 0x2CFB JUMP JUMPDEST PUSH1 0xF PUSH1 0x0 SWAP1 SLOAD SWAP1 PUSH2 0x100 EXP SWAP1 DIV PUSH20 0xFFFFFFFFFFFFFFFFFFFFFFFFFFFFFFFFFFFFFFFF AND DUP9 PUSH1 0xC PUSH1 0x0 SWAP1 SLOAD SWAP1 PUSH2 0x100 EXP SWAP1 DIV PUSH4 0xFFFFFFFF AND PUSH1 0x40 MLOAD DUP9 PUSH4 0xFFFFFFFF AND PUSH1 0xE0 SHL DUP2 MSTORE PUSH1 0x4 ADD PUSH2 0xAF9 SWAP7 SWAP6 SWAP5 SWAP4 SWAP3 SWAP2 SWAP1 PUSH2 0x2DE1 JUMP JUMPDEST PUSH1 0x0 PUSH1 0x40 MLOAD DUP1 DUP4 SUB DUP2 DUP6 DUP9 DUP1 EXTCODESIZE ISZERO DUP1 ISZERO PUSH2 0xB12 JUMPI PUSH1 0x0 DUP1 REVERT JUMPDEST POP GAS CALL ISZERO DUP1 ISZERO PUSH2 0xB26 JUMPI RETURNDATASIZE PUSH1 0x0 DUP1 RETURNDATACOPY RETURNDATASIZE PUSH1 0x0 REVERT JUMPDEST POP POP POP POP POP PUSH1 0xF PUSH1 0x0 SWAP1 SLOAD SWAP1 PUSH2 0x100 EXP SWAP1 DIV PUSH20 0xFFFFFFFFFFFFFFFFFFFFFFFFFFFFFFFFFFFFFFFF AND PUSH20 0xFFFFFFFFFFFFFFFFFFFFFFFFFFFFFFFFFFFFFFFF AND PUSH32 0x6EF7A26D50CEC3F1A210BED887413D426C9C13575A17872C54E00C4287AC5DCE DUP4 PUSH1 0x40 MLOAD PUSH2 0xB93 SWAP2 SWAP1 PUSH2 0x26CF JUMP JUMPDEST PUSH1 0x40 MLOAD DUP1 SWAP2 SUB SWAP1 LOG2 POP POP JUMP JUMPDEST PUSH1 0xE PUSH1 0x14 SWAP1 SLOAD SWAP1 PUSH2 0x100 EXP SWAP1 DIV PUSH1 0xFF AND DUP2 JUMP JUMPDEST PUSH1 0xD SLOAD DUP2 JUMP JUMPDEST PUSH1 0x6 PUSH1 0x0 SWAP1 SLOAD SWAP1 PUSH2 0x100 EXP SWAP1 DIV PUSH20 0xFFFFFFFFFFFFFFFFFFFFFFFFFFFFFFFFFFFFFFFF AND DUP2 JUMP JUMPDEST PUSH1 0xA DUP2 DUP2 SLOAD DUP2 LT PUSH2 0xBEE JUMPI PUSH1 0x0 DUP1 REVERT JUMPDEST SWAP1 PUSH1 0x0 MSTORE PUSH1 0x20 PUSH1 0x0 KECCAK256 SWAP1 PUSH1 0x8 SWAP2 DUP3 DUP3 DIV ADD SWAP2 SWAP1 MOD PUSH1 0x4 MUL SWAP2 POP SLOAD SWAP1 PUSH2 0x100 EXP SWAP1 DIV PUSH4 0xFFFFFFFF AND DUP2 JUMP JUMPDEST PUSH2 0xC20 PUSH2 0x214C JUMP JUMPDEST PUSH1 0x0 PUSH1 0xC PUSH1 0x0 SWAP1 SLOAD SWAP1 PUSH2 0x100 EXP SWAP1 DIV PUSH4 0xFFFFFFFF AND SWAP1 POP DUP2 PUSH1 0xC PUSH1 0x0 PUSH2 0x100 EXP DUP2 SLOAD DUP2 PUSH4 0xFFFFFFFF MUL NOT AND SWAP1 DUP4 PUSH4 0xFFFFFFFF AND MUL OR SWAP1 SSTORE POP PUSH32 0x4042B09A75E5A67C8CC2A57E00DE6D29FB5202B7207AFBA895EB8B5CC3E2179E DUP2 DUP4 PUSH1 0x40 MLOAD PUSH2 0xC89 SWAP3 SWAP2 SWAP1 PUSH2 0x2E55 JUMP JUMPDEST PUSH1 0x40 MLOAD DUP1 SWAP2 SUB SWAP1 LOG1 POP POP JUMP JUMPDEST PUSH2 0xC9D PUSH2 0x214C JUMP JUMPDEST DUP1 PUSH1 0xF PUSH1 0x0 PUSH2 0x100 EXP DUP2 SLOAD DUP2 PUSH20 0xFFFFFFFFFFFFFFFFFFFFFFFFFFFFFFFFFFFFFFFF MUL NOT AND SWAP1 DUP4 PUSH20 0xFFFFFFFFFFFFFFFFFFFFFFFFFFFFFFFFFFFFFFFF AND MUL OR SWAP1 SSTORE POP POP JUMP JUMPDEST PUSH1 0x4 PUSH1 0x0 SWAP1 SLOAD SWAP1 PUSH2 0x100 EXP SWAP1 DIV PUSH20 0xFFFFFFFFFFFFFFFFFFFFFFFFFFFFFFFFFFFFFFFF AND DUP2 JUMP JUMPDEST PUSH1 0xC PUSH1 0x0 SWAP1 SLOAD SWAP1 PUSH2 0x100 EXP SWAP1 DIV PUSH4 0xFFFFFFFF AND DUP2 JUMP JUMPDEST PUSH2 0xD25 PUSH2 0x214C JUMP JUMPDEST DUP1 PUSH1 0x7 PUSH1 0x0 PUSH2 0x100 EXP DUP2 SLOAD DUP2 PUSH20 0xFFFFFFFFFFFFFFFFFFFFFFFFFFFFFFFFFFFFFFFF MUL NOT AND SWAP1 DUP4 PUSH20 0xFFFFFFFFFFFFFFFFFFFFFFFFFFFFFFFFFFFFFFFF AND MUL OR SWAP1 SSTORE POP POP JUMP JUMPDEST PUSH1 0x8 PUSH1 0x20 MSTORE DUP1 PUSH1 0x0 MSTORE PUSH1 0x40 PUSH1 0x0 KECCAK256 PUSH1 0x0 SWAP2 POP SLOAD SWAP1 PUSH2 0x100 EXP SWAP1 DIV PUSH20 0xFFFFFFFFFFFFFFFFFFFFFFFFFFFFFFFFFFFFFFFF AND DUP2 JUMP JUMPDEST PUSH1 0x0 PUSH2 0xDA6 PUSH2 0xDC3 JUMP JUMPDEST PUSH1 0x0 ADD MLOAD SWAP1 POP SWAP1 JUMP JUMPDEST PUSH2 0xDB7 PUSH2 0x214C JUMP JUMPDEST PUSH2 0xDC1 PUSH1 0x0 PUSH2 0x21D3 JUMP JUMPDEST JUMP JUMPDEST PUSH2 0xDCB PUSH2 0x2594 JUMP JUMPDEST PUSH1 0x2 PUSH1 0x0 SWAP1 SLOAD SWAP1 PUSH2 0x100 EXP SWAP1 DIV PUSH20 0xFFFFFFFFFFFFFFFFFFFFFFFFFFFFFFFFFFFFFFFF AND PUSH20 0xFFFFFFFFFFFFFFFFFFFFFFFFFFFFFFFFFFFFFFFF AND PUSH4 0x6BA7CCFF PUSH1 0xD SLOAD PUSH1 0x40 MLOAD DUP3 PUSH4 0xFFFFFFFF AND PUSH1 0xE0 SHL DUP2 MSTORE PUSH1 0x4 ADD PUSH2 0xE28 SWAP2 SWAP1 PUSH2 0x26CF JUMP JUMPDEST PUSH2 0x140 PUSH1 0x40 MLOAD DUP1 DUP4 SUB DUP2 DUP7 GAS STATICCALL ISZERO DUP1 ISZERO PUSH2 0xE46 JUMPI RETURNDATASIZE PUSH1 0x0 DUP1 RETURNDATACOPY RETURNDATASIZE PUSH1 0x0 REVERT JUMPDEST POP POP POP POP PUSH1 0x40 MLOAD RETURNDATASIZE PUSH1 0x1F NOT PUSH1 0x1F DUP3 ADD AND DUP3 ADD DUP1 PUSH1 0x40 MSTORE POP DUP2 ADD SWAP1 PUSH2 0xE6A SWAP2 SWAP1 PUSH2 0x2F8E JUMP JUMPDEST SWAP1 POP SWAP1 JUMP JUMPDEST PUSH1 0xB SLOAD DUP2 JUMP JUMPDEST PUSH1 0x2 PUSH1 0x0 SWAP1 SLOAD SWAP1 PUSH2 0x100 EXP SWAP1 DIV PUSH20 0xFFFFFFFFFFFFFFFFFFFFFFFFFFFFFFFFFFFFFFFF AND DUP2 JUMP JUMPDEST PUSH1 0x0 DUP1 PUSH2 0xEA6 PUSH2 0x22AA JUMP JUMPDEST SWAP1 POP DUP1 PUSH1 0x0 ADD PUSH1 0x0 SWAP1 SLOAD SWAP1 PUSH2 0x100 EXP SWAP1 DIV PUSH20 0xFFFFFFFFFFFFFFFFFFFFFFFFFFFFFFFFFFFFFFFF AND SWAP2 POP POP SWAP1 JUMP JUMPDEST PUSH1 0x0 DUP1 SLOAD SWAP1 PUSH2 0x100 EXP SWAP1 DIV PUSH20 0xFFFFFFFFFFFFFFFFFFFFFFFFFFFFFFFFFFFFFFFF AND DUP2 JUMP JUMPDEST PUSH1 0xF PUSH1 0x0 SWAP1 SLOAD SWAP1 PUSH2 0x100 EXP SWAP1 DIV PUSH20 0xFFFFFFFFFFFFFFFFFFFFFFFFFFFFFFFFFFFFFFFF AND DUP2 JUMP JUMPDEST PUSH1 0x9 PUSH1 0x0 SWAP1 SLOAD SWAP1 PUSH2 0x100 EXP SWAP1 DIV PUSH4 0xFFFFFFFF AND DUP2 JUMP JUMPDEST PUSH2 0xF3B PUSH2 0x214C JUMP JUMPDEST PUSH1 0x2 PUSH1 0x0 SWAP1 SLOAD SWAP1 PUSH2 0x100 EXP SWAP1 DIV PUSH20 0xFFFFFFFFFFFFFFFFFFFFFFFFFFFFFFFFFFFFFFFF AND PUSH20 0xFFFFFFFFFFFFFFFFFFFFFFFFFFFFFFFFFFFFFFFF AND PUSH4 0x262C0E66 CALLVALUE PUSH1 0xD SLOAD PUSH1 0xC PUSH1 0x0 SWAP1 SLOAD SWAP1 PUSH2 0x100 EXP SWAP1 DIV PUSH4 0xFFFFFFFF AND PUSH1 0x40 MLOAD DUP5 PUSH4 0xFFFFFFFF AND PUSH1 0xE0 SHL DUP2 MSTORE PUSH1 0x4 ADD PUSH2 0xFAD SWAP3 SWAP2 SWAP1 PUSH2 0x2FBC JUMP JUMPDEST PUSH1 0x0 PUSH1 0x40 MLOAD DUP1 DUP4 SUB DUP2 DUP6 DUP9 DUP1 EXTCODESIZE ISZERO DUP1 ISZERO PUSH2 0xFC6 JUMPI PUSH1 0x0 DUP1 REVERT JUMPDEST POP GAS CALL ISZERO DUP1 ISZERO PUSH2 0xFDA JUMPI RETURNDATASIZE PUSH1 0x0 DUP1 RETURNDATACOPY RETURNDATASIZE PUSH1 0x0 REVERT JUMPDEST POP POP POP POP POP PUSH1 0x0 PUSH1 0xE PUSH1 0x14 PUSH2 0x100 EXP DUP2 SLOAD DUP2 PUSH1 0xFF MUL NOT AND SWAP1 DUP4 ISZERO ISZERO MUL OR SWAP1 SSTORE POP PUSH1 0xE PUSH1 0x0 SWAP1 SLOAD SWAP1 PUSH2 0x100 EXP SWAP1 DIV PUSH20 0xFFFFFFFFFFFFFFFFFFFFFFFFFFFFFFFFFFFFFFFF AND PUSH20 0xFFFFFFFFFFFFFFFFFFFFFFFFFFFFFFFFFFFFFFFF AND PUSH32 0xBAC99876B6A1C26412460D61D913235A30F0EA99585FFCFD53C0FAAE6ED33134 PUSH1 0x40 MLOAD PUSH1 0x40 MLOAD DUP1 SWAP2 SUB SWAP1 LOG2 JUMP JUMPDEST PUSH2 0x1069 PUSH2 0x214C JUMP JUMPDEST PUSH1 0x0 PUSH1 0x1 PUSH1 0x0 SWAP1 SLOAD SWAP1 PUSH2 0x100 EXP SWAP1 DIV PUSH20 0xFFFFFFFFFFFFFFFFFFFFFFFFFFFFFFFFFFFFFFFF AND PUSH20 0xFFFFFFFFFFFFFFFFFFFFFFFFFFFFFFFFFFFFFFFF AND PUSH4 0x70A08231 ADDRESS PUSH1 0x40 MLOAD DUP3 PUSH4 0xFFFFFFFF AND PUSH1 0xE0 SHL DUP2 MSTORE PUSH1 0x4 ADD PUSH2 0x10C6 SWAP2 SWAP1 PUSH2 0x272B JUMP JUMPDEST PUSH1 0x20 PUSH1 0x40 MLOAD DUP1 DUP4 SUB DUP2 DUP7 GAS STATICCALL ISZERO DUP1 ISZERO PUSH2 0x10E3 JUMPI RETURNDATASIZE PUSH1 0x0 DUP1 RETURNDATACOPY RETURNDATASIZE PUSH1 0x0 REVERT JUMPDEST POP POP POP POP PUSH1 0x40 MLOAD RETURNDATASIZE PUSH1 0x1F NOT PUSH1 0x1F DUP3 ADD AND DUP3 ADD DUP1 PUSH1 0x40 MSTORE POP DUP2 ADD SWAP1 PUSH2 0x1107 SWAP2 SWAP1 PUSH2 0x2FE5 JUMP JUMPDEST SWAP1 POP DUP3 DUP2 LT ISZERO PUSH2 0x114C JUMPI PUSH1 0x40 MLOAD PUSH32 0x8C379A000000000000000000000000000000000000000000000000000000000 DUP2 MSTORE PUSH1 0x4 ADD PUSH2 0x1143 SWAP1 PUSH2 0x3095 JUMP JUMPDEST PUSH1 0x40 MLOAD DUP1 SWAP2 SUB SWAP1 REVERT JUMPDEST DUP4 PUSH1 0xE PUSH1 0x0 PUSH2 0x100 EXP DUP2 SLOAD DUP2 PUSH20 0xFFFFFFFFFFFFFFFFFFFFFFFFFFFFFFFFFFFFFFFF MUL NOT AND SWAP1 DUP4 PUSH20 0xFFFFFFFFFFFFFFFFFFFFFFFFFFFFFFFFFFFFFFFF AND MUL OR SWAP1 SSTORE POP PUSH1 0x1 PUSH1 0x0 SWAP1 SLOAD SWAP1 PUSH2 0x100 EXP SWAP1 DIV PUSH20 0xFFFFFFFFFFFFFFFFFFFFFFFFFFFFFFFFFFFFFFFF AND PUSH20 0xFFFFFFFFFFFFFFFFFFFFFFFFFFFFFFFFFFFFFFFF AND PUSH4 0x95EA7B3 PUSH1 0x3 PUSH1 0x0 SWAP1 SLOAD SWAP1 PUSH2 0x100 EXP SWAP1 DIV PUSH20 0xFFFFFFFFFFFFFFFFFFFFFFFFFFFFFFFFFFFFFFFF AND PUSH32 0xFFFFFFFFFFFFFFFFFFFFFFFFFFFFFFFFFFFFFFFFFFFFFFFFFFFFFFFFFFFFFFFF PUSH1 0x40 MLOAD DUP4 PUSH4 0xFFFFFFFF AND PUSH1 0xE0 SHL DUP2 MSTORE PUSH1 0x4 ADD PUSH2 0x122C SWAP3 SWAP2 SWAP1 PUSH2 0x2D28 JUMP JUMPDEST PUSH1 0x20 PUSH1 0x40 MLOAD DUP1 DUP4 SUB DUP2 PUSH1 0x0 DUP8 GAS CALL ISZERO DUP1 ISZERO PUSH2 0x124B JUMPI RETURNDATASIZE PUSH1 0x0 DUP1 RETURNDATACOPY RETURNDATASIZE PUSH1 0x0 REVERT JUMPDEST POP POP POP POP PUSH1 0x40 MLOAD RETURNDATASIZE PUSH1 0x1F NOT PUSH1 0x1F DUP3 ADD AND DUP3 ADD DUP1 PUSH1 0x40 MSTORE POP DUP2 ADD SWAP1 PUSH2 0x126F SWAP2 SWAP1 PUSH2 0x2D7D JUMP JUMPDEST PUSH2 0x12AE JUMPI PUSH1 0x40 MLOAD PUSH32 0x8C379A000000000000000000000000000000000000000000000000000000000 DUP2 MSTORE PUSH1 0x4 ADD PUSH2 0x12A5 SWAP1 PUSH2 0x3127 JUMP JUMPDEST PUSH1 0x40 MLOAD DUP1 SWAP2 SUB SWAP1 REVERT JUMPDEST PUSH1 0x2 PUSH1 0x0 SWAP1 SLOAD SWAP1 PUSH2 0x100 EXP SWAP1 DIV PUSH20 0xFFFFFFFFFFFFFFFFFFFFFFFFFFFFFFFFFFFFFFFF AND PUSH20 0xFFFFFFFFFFFFFFFFFFFFFFFFFFFFFFFFFFFFFFFF AND PUSH4 0x9AD42030 PUSH1 0xE PUSH1 0x0 SWAP1 SLOAD SWAP1 PUSH2 0x100 EXP SWAP1 DIV PUSH20 0xFFFFFFFFFFFFFFFFFFFFFFFFFFFFFFFFFFFFFFFF AND PUSH1 0x6 PUSH1 0x0 SWAP1 SLOAD SWAP1 PUSH2 0x100 EXP SWAP1 DIV PUSH20 0xFFFFFFFFFFFFFFFFFFFFFFFFFFFFFFFFFFFFFFFF AND DUP7 DUP7 PUSH1 0x40 MLOAD DUP6 PUSH4 0xFFFFFFFF AND PUSH1 0xE0 SHL DUP2 MSTORE PUSH1 0x4 ADD PUSH2 0x1353 SWAP5 SWAP4 SWAP3 SWAP2 SWAP1 PUSH2 0x31B5 JUMP JUMPDEST PUSH1 0x0 PUSH1 0x40 MLOAD DUP1 DUP4 SUB DUP2 PUSH1 0x0 DUP8 DUP1 EXTCODESIZE ISZERO DUP1 ISZERO PUSH2 0x136D JUMPI PUSH1 0x0 DUP1 REVERT JUMPDEST POP GAS CALL ISZERO DUP1 ISZERO PUSH2 0x1381 JUMPI RETURNDATASIZE PUSH1 0x0 DUP1 RETURNDATACOPY RETURNDATASIZE PUSH1 0x0 REVERT JUMPDEST POP POP POP POP PUSH1 0x2 PUSH1 0x0 SWAP1 SLOAD SWAP1 PUSH2 0x100 EXP SWAP1 DIV PUSH20 0xFFFFFFFFFFFFFFFFFFFFFFFFFFFFFFFFFFFFFFFF AND PUSH20 0xFFFFFFFFFFFFFFFFFFFFFFFFFFFFFFFFFFFFFFFF AND PUSH4 0xBEB26755 PUSH1 0xE PUSH1 0x0 SWAP1 SLOAD SWAP1 PUSH2 0x100 EXP SWAP1 DIV PUSH20 0xFFFFFFFFFFFFFFFFFFFFFFFFFFFFFFFFFFFFFFFF AND PUSH1 0x40 MLOAD DUP3 PUSH4 0xFFFFFFFF AND PUSH1 0xE0 SHL DUP2 MSTORE PUSH1 0x4 ADD PUSH2 0x1402 SWAP2 SWAP1 PUSH2 0x272B JUMP JUMPDEST PUSH1 0x20 PUSH1 0x40 MLOAD DUP1 DUP4 SUB DUP2 DUP7 GAS STATICCALL ISZERO DUP1 ISZERO PUSH2 0x141F JUMPI RETURNDATASIZE PUSH1 0x0 DUP1 RETURNDATACOPY RETURNDATASIZE PUSH1 0x0 REVERT JUMPDEST POP POP POP POP PUSH1 0x40 MLOAD RETURNDATASIZE PUSH1 0x1F NOT PUSH1 0x1F DUP3 ADD AND DUP3 ADD DUP1 PUSH1 0x40 MSTORE POP DUP2 ADD SWAP1 PUSH2 0x1443 SWAP2 SWAP1 PUSH2 0x2FE5 JUMP JUMPDEST PUSH1 0xD DUP2 SWAP1 SSTORE POP PUSH1 0x1 PUSH1 0xE PUSH1 0x14 PUSH2 0x100 EXP DUP2 SLOAD DUP2 PUSH1 0xFF MUL NOT AND SWAP1 DUP4 ISZERO ISZERO MUL OR SWAP1 SSTORE POP PUSH1 0xE PUSH1 0x0 SWAP1 SLOAD SWAP1 PUSH2 0x100 EXP SWAP1 DIV PUSH20 0xFFFFFFFFFFFFFFFFFFFFFFFFFFFFFFFFFFFFFFFF AND PUSH20 0xFFFFFFFFFFFFFFFFFFFFFFFFFFFFFFFFFFFFFFFF AND PUSH32 0xB1E87A33084279CB2BFF2D1271034CF695F539EE73BBD934D1625703D585D84A DUP5 PUSH1 0xE PUSH1 0x14 SWAP1 SLOAD SWAP1 PUSH2 0x100 EXP SWAP1 DIV PUSH1 0xFF AND PUSH1 0x40 MLOAD PUSH2 0x14DD SWAP3 SWAP2 SWAP1 PUSH2 0x3201 JUMP JUMPDEST PUSH1 0x40 MLOAD DUP1 SWAP2 SUB SWAP1 LOG2 POP POP POP POP JUMP JUMPDEST PUSH1 0x0 PUSH2 0x14F5 PUSH2 0x22D2 JUMP JUMPDEST SWAP1 POP PUSH1 0x0 DUP2 PUSH1 0x0 ADD PUSH1 0x8 SWAP1 SLOAD SWAP1 PUSH2 0x100 EXP SWAP1 DIV PUSH1 0xFF AND ISZERO SWAP1 POP PUSH1 0x0 DUP3 PUSH1 0x0 ADD PUSH1 0x0 SWAP1 SLOAD SWAP1 PUSH2 0x100 EXP SWAP1 DIV PUSH8 0xFFFFFFFFFFFFFFFF AND SWAP1 POP PUSH1 0x0 DUP1 DUP3 PUSH8 0xFFFFFFFFFFFFFFFF AND EQ DUP1 ISZERO PUSH2 0x1543 JUMPI POP DUP3 JUMPDEST SWAP1 POP PUSH1 0x0 PUSH1 0x1 DUP4 PUSH8 0xFFFFFFFFFFFFFFFF AND EQ DUP1 ISZERO PUSH2 0x1578 JUMPI POP PUSH1 0x0 ADDRESS PUSH20 0xFFFFFFFFFFFFFFFFFFFFFFFFFFFFFFFFFFFFFFFF AND EXTCODESIZE EQ JUMPDEST SWAP1 POP DUP2 ISZERO DUP1 ISZERO PUSH2 0x1586 JUMPI POP DUP1 ISZERO JUMPDEST ISZERO PUSH2 0x15BD JUMPI PUSH1 0x40 MLOAD PUSH32 0xF92EE8A900000000000000000000000000000000000000000000000000000000 DUP2 MSTORE PUSH1 0x4 ADD PUSH1 0x40 MLOAD DUP1 SWAP2 SUB SWAP1 REVERT JUMPDEST PUSH1 0x1 DUP6 PUSH1 0x0 ADD PUSH1 0x0 PUSH2 0x100 EXP DUP2 SLOAD DUP2 PUSH8 0xFFFFFFFFFFFFFFFF MUL NOT AND SWAP1 DUP4 PUSH8 0xFFFFFFFFFFFFFFFF AND MUL OR SWAP1 SSTORE POP DUP4 ISZERO PUSH2 0x160D JUMPI PUSH1 0x1 DUP6 PUSH1 0x0 ADD PUSH1 0x8 PUSH2 0x100 EXP DUP2 SLOAD DUP2 PUSH1 0xFF MUL NOT AND SWAP1 DUP4 ISZERO ISZERO MUL OR SWAP1 SSTORE POP JUMPDEST PUSH1 0x0 PUSH20 0xFFFFFFFFFFFFFFFFFFFFFFFFFFFFFFFFFFFFFFFF AND DUP13 PUSH20 0xFFFFFFFFFFFFFFFFFFFFFFFFFFFFFFFFFFFFFFFF AND EQ ISZERO DUP1 ISZERO PUSH2 0x1677 JUMPI POP PUSH1 0x0 PUSH20 0xFFFFFFFFFFFFFFFFFFFFFFFFFFFFFFFFFFFFFFFF AND DUP12 PUSH20 0xFFFFFFFFFFFFFFFFFFFFFFFFFFFFFFFFFFFFFFFF AND EQ ISZERO JUMPDEST DUP1 ISZERO PUSH2 0x16B0 JUMPI POP PUSH1 0x0 PUSH20 0xFFFFFFFFFFFFFFFFFFFFFFFFFFFFFFFFFFFFFFFF AND DUP11 PUSH20 0xFFFFFFFFFFFFFFFFFFFFFFFFFFFFFFFFFFFFFFFF AND EQ ISZERO JUMPDEST DUP1 ISZERO PUSH2 0x16E9 JUMPI POP PUSH1 0x0 PUSH20 0xFFFFFFFFFFFFFFFFFFFFFFFFFFFFFFFFFFFFFFFF AND DUP8 PUSH20 0xFFFFFFFFFFFFFFFFFFFFFFFFFFFFFFFFFFFFFFFF AND EQ ISZERO JUMPDEST DUP1 ISZERO PUSH2 0x1722 JUMPI POP PUSH1 0x0 PUSH20 0xFFFFFFFFFFFFFFFFFFFFFFFFFFFFFFFFFFFFFFFF AND DUP7 PUSH20 0xFFFFFFFFFFFFFFFFFFFFFFFFFFFFFFFFFFFFFFFF AND EQ ISZERO JUMPDEST PUSH2 0x1761 JUMPI PUSH1 0x40 MLOAD PUSH32 0x8C379A000000000000000000000000000000000000000000000000000000000 DUP2 MSTORE PUSH1 0x4 ADD PUSH2 0x1758 SWAP1 PUSH2 0x3276 JUMP JUMPDEST PUSH1 0x40 MLOAD DUP1 SWAP2 SUB SWAP1 REVERT JUMPDEST PUSH2 0x176A CALLER PUSH2 0x22FA JUMP JUMPDEST DUP12 PUSH1 0x1 PUSH1 0x0 PUSH2 0x100 EXP DUP2 SLOAD DUP2 PUSH20 0xFFFFFFFFFFFFFFFFFFFFFFFFFFFFFFFFFFFFFFFF MUL NOT AND SWAP1 DUP4 PUSH20 0xFFFFFFFFFFFFFFFFFFFFFFFFFFFFFFFFFFFFFFFF AND MUL OR SWAP1 SSTORE POP DUP11 PUSH1 0x2 PUSH1 0x0 PUSH2 0x100 EXP DUP2 SLOAD DUP2 PUSH20 0xFFFFFFFFFFFFFFFFFFFFFFFFFFFFFFFFFFFFFFFF MUL NOT AND SWAP1 DUP4 PUSH20 0xFFFFFFFFFFFFFFFFFFFFFFFFFFFFFFFFFFFFFFFF AND MUL OR SWAP1 SSTORE POP PUSH1 0x2 PUSH1 0x0 SWAP1 SLOAD SWAP1 PUSH2 0x100 EXP SWAP1 DIV PUSH20 0xFFFFFFFFFFFFFFFFFFFFFFFFFFFFFFFFFFFFFFFF AND PUSH20 0xFFFFFFFFFFFFFFFFFFFFFFFFFFFFFFFFFFFFFFFF AND PUSH4 0xE2FDCC17 PUSH1 0x40 MLOAD DUP2 PUSH4 0xFFFFFFFF AND PUSH1 0xE0 SHL DUP2 MSTORE PUSH1 0x4 ADD PUSH1 0x20 PUSH1 0x40 MLOAD DUP1 DUP4 SUB DUP2 DUP7 GAS STATICCALL ISZERO DUP1 ISZERO PUSH2 0x1859 JUMPI RETURNDATASIZE PUSH1 0x0 DUP1 RETURNDATACOPY RETURNDATASIZE PUSH1 0x0 REVERT JUMPDEST POP POP POP POP PUSH1 0x40 MLOAD RETURNDATASIZE PUSH1 0x1F NOT PUSH1 0x1F DUP3 ADD AND DUP3 ADD DUP1 PUSH1 0x40 MSTORE POP DUP2 ADD SWAP1 PUSH2 0x187D SWAP2 SWAP1 PUSH2 0x32D4 JUMP JUMPDEST PUSH1 0x3 PUSH1 0x0 PUSH2 0x100 EXP DUP2 SLOAD DUP2 PUSH20 0xFFFFFFFFFFFFFFFFFFFFFFFFFFFFFFFFFFFFFFFF MUL NOT AND SWAP1 DUP4 PUSH20 0xFFFFFFFFFFFFFFFFFFFFFFFFFFFFFFFFFFFFFFFF AND MUL OR SWAP1 SSTORE POP DUP10 PUSH20 0xFFFFFFFFFFFFFFFFFFFFFFFFFFFFFFFFFFFFFFFF AND PUSH4 0x3CB747BF PUSH1 0x40 MLOAD DUP2 PUSH4 0xFFFFFFFF AND PUSH1 0xE0 SHL DUP2 MSTORE PUSH1 0x4 ADD PUSH1 0x20 PUSH1 0x40 MLOAD DUP1 DUP4 SUB DUP2 DUP7 GAS STATICCALL ISZERO DUP1 ISZERO PUSH2 0x1908 JUMPI RETURNDATASIZE PUSH1 0x0 DUP1 RETURNDATACOPY RETURNDATASIZE PUSH1 0x0 REVERT JUMPDEST POP POP POP POP PUSH1 0x40 MLOAD RETURNDATASIZE PUSH1 0x1F NOT PUSH1 0x1F DUP3 ADD AND DUP3 ADD DUP1 PUSH1 0x40 MSTORE POP DUP2 ADD SWAP1 PUSH2 0x192C SWAP2 SWAP1 PUSH2 0x2CFB JUMP JUMPDEST PUSH1 0x4 PUSH1 0x0 PUSH2 0x100 EXP DUP2 SLOAD DUP2 PUSH20 0xFFFFFFFFFFFFFFFFFFFFFFFFFFFFFFFFFFFFFFFF MUL NOT AND SWAP1 DUP4 PUSH20 0xFFFFFFFFFFFFFFFFFFFFFFFFFFFFFFFFFFFFFFFF AND MUL OR SWAP1 SSTORE POP DUP9 PUSH1 0x5 DUP2 SWAP1 SSTORE POP DUP8 PUSH1 0xC PUSH1 0x0 PUSH2 0x100 EXP DUP2 SLOAD DUP2 PUSH4 0xFFFFFFFF MUL NOT AND SWAP1 DUP4 PUSH4 0xFFFFFFFF AND MUL OR SWAP1 SSTORE POP DUP7 PUSH1 0x6 PUSH1 0x0 PUSH2 0x100 EXP DUP2 SLOAD DUP2 PUSH20 0xFFFFFFFFFFFFFFFFFFFFFFFFFFFFFFFFFFFFFFFF MUL NOT AND SWAP1 DUP4 PUSH20 0xFFFFFFFFFFFFFFFFFFFFFFFFFFFFFFFFFFFFFFFF AND MUL OR SWAP1 SSTORE POP DUP6 PUSH1 0x7 PUSH1 0x0 PUSH2 0x100 EXP DUP2 SLOAD DUP2 PUSH20 0xFFFFFFFFFFFFFFFFFFFFFFFFFFFFFFFFFFFFFFFF MUL NOT AND SWAP1 DUP4 PUSH20 0xFFFFFFFFFFFFFFFFFFFFFFFFFFFFFFFFFFFFFFFF AND MUL OR SWAP1 SSTORE POP DUP4 ISZERO PUSH2 0x1A72 JUMPI PUSH1 0x0 DUP6 PUSH1 0x0 ADD PUSH1 0x8 PUSH2 0x100 EXP DUP2 SLOAD DUP2 PUSH1 0xFF MUL NOT AND SWAP1 DUP4 ISZERO ISZERO MUL OR SWAP1 SSTORE POP PUSH32 0xC7F505B2F371AE2175EE4913F4499E1F2633A7B5936321EED1CDAEB6115181D2 PUSH1 0x1 PUSH1 0x40 MLOAD PUSH2 0x1A69 SWAP2 SWAP1 PUSH2 0x3350 JUMP JUMPDEST PUSH1 0x40 MLOAD DUP1 SWAP2 SUB SWAP1 LOG1 JUMPDEST POP POP POP POP POP POP POP POP POP POP POP POP JUMP JUMPDEST PUSH1 0xE PUSH1 0x0 SWAP1 SLOAD SWAP1 PUSH2 0x100 EXP SWAP1 DIV PUSH20 0xFFFFFFFFFFFFFFFFFFFFFFFFFFFFFFFFFFFFFFFF AND DUP2 JUMP JUMPDEST PUSH1 0x0 PUSH1 0xE PUSH1 0x14 SWAP1 SLOAD SWAP1 PUSH2 0x100 EXP SWAP1 DIV PUSH1 0xFF AND PUSH2 0x1AF7 JUMPI PUSH1 0x40 MLOAD PUSH32 0x8C379A000000000000000000000000000000000000000000000000000000000 DUP2 MSTORE PUSH1 0x4 ADD PUSH2 0x1AEE SWAP1 PUSH2 0x33B7 JUMP JUMPDEST PUSH1 0x40 MLOAD DUP1 SWAP2 SUB SWAP1 REVERT JUMPDEST PUSH1 0x0 PUSH1 0x3 PUSH1 0x0 SWAP1 SLOAD SWAP1 PUSH2 0x100 EXP SWAP1 DIV PUSH20 0xFFFFFFFFFFFFFFFFFFFFFFFFFFFFFFFFFFFFFFFF AND PUSH20 0xFFFFFFFFFFFFFFFFFFFFFFFFFFFFFFFFFFFFFFFF AND PUSH4 0x6C0B3E46 PUSH1 0x40 MLOAD DUP2 PUSH4 0xFFFFFFFF AND PUSH1 0xE0 SHL DUP2 MSTORE PUSH1 0x4 ADD PUSH1 0x20 PUSH1 0x40 MLOAD DUP1 DUP4 SUB DUP2 DUP7 GAS STATICCALL ISZERO DUP1 ISZERO PUSH2 0x1B66 JUMPI RETURNDATASIZE PUSH1 0x0 DUP1 RETURNDATACOPY RETURNDATASIZE PUSH1 0x0 REVERT JUMPDEST POP POP POP POP PUSH1 0x40 MLOAD RETURNDATASIZE PUSH1 0x1F NOT PUSH1 0x1F DUP3 ADD AND DUP3 ADD DUP1 PUSH1 0x40 MSTORE POP DUP2 ADD SWAP1 PUSH2 0x1B8A SWAP2 SWAP1 PUSH2 0x2FE5 JUMP JUMPDEST SWAP1 POP PUSH1 0x0 PUSH1 0x1 PUSH1 0x0 SWAP1 SLOAD SWAP1 PUSH2 0x100 EXP SWAP1 DIV PUSH20 0xFFFFFFFFFFFFFFFFFFFFFFFFFFFFFFFFFFFFFFFF AND PUSH20 0xFFFFFFFFFFFFFFFFFFFFFFFFFFFFFFFFFFFFFFFF AND PUSH4 0x70A08231 ADDRESS PUSH1 0x40 MLOAD DUP3 PUSH4 0xFFFFFFFF AND PUSH1 0xE0 SHL DUP2 MSTORE PUSH1 0x4 ADD PUSH2 0x1BE9 SWAP2 SWAP1 PUSH2 0x272B JUMP JUMPDEST PUSH1 0x20 PUSH1 0x40 MLOAD DUP1 DUP4 SUB DUP2 DUP7 GAS STATICCALL ISZERO DUP1 ISZERO PUSH2 0x1C06 JUMPI RETURNDATASIZE PUSH1 0x0 DUP1 RETURNDATACOPY RETURNDATASIZE PUSH1 0x0 REVERT JUMPDEST POP POP POP POP PUSH1 0x40 MLOAD RETURNDATASIZE PUSH1 0x1F NOT PUSH1 0x1F DUP3 ADD AND DUP3 ADD DUP1 PUSH1 0x40 MSTORE POP DUP2 ADD SWAP1 PUSH2 0x1C2A SWAP2 SWAP1 PUSH2 0x2FE5 JUMP JUMPDEST SWAP1 POP PUSH1 0x0 DUP1 JUMPDEST PUSH1 0x1 DUP2 PUSH4 0xFFFFFFFF AND LT ISZERO PUSH2 0x1ED6 JUMPI PUSH1 0x0 PUSH2 0x1C49 PUSH2 0xDC3 JUMP JUMPDEST SWAP1 POP PUSH1 0x0 DUP1 DUP3 PUSH1 0x20 ADD MLOAD DUP4 PUSH1 0x0 ADD MLOAD SWAP2 POP SWAP2 POP DUP2 DUP6 PUSH2 0x1C68 SWAP2 SWAP1 PUSH2 0x3406 JUMP JUMPDEST SWAP5 POP PUSH1 0x0 DUP8 DUP3 LT PUSH2 0x1C7A JUMPI PUSH1 0x0 PUSH2 0x1C87 JUMP JUMPDEST DUP2 DUP9 PUSH2 0x1C86 SWAP2 SWAP1 PUSH2 0x343A JUMP JUMPDEST JUMPDEST SWAP1 POP PUSH1 0x0 PUSH2 0x1C95 DUP3 DUP10 PUSH2 0x230E JUMP JUMPDEST SWAP1 POP DUP1 DUP9 PUSH2 0x1CA3 SWAP2 SWAP1 PUSH2 0x343A JUMP JUMPDEST SWAP8 POP PUSH1 0x0 DUP5 DUP3 PUSH2 0x1CB3 SWAP2 SWAP1 PUSH2 0x3406 JUMP JUMPDEST SWAP1 POP PUSH1 0x0 DUP2 SUB PUSH2 0x1CC8 JUMPI POP POP POP POP POP POP PUSH2 0x1EC3 JUMP JUMPDEST DUP1 DUP12 PUSH2 0x1CD4 SWAP2 SWAP1 PUSH2 0x3406 JUMP JUMPDEST SWAP11 POP PUSH1 0x0 DUP11 DUP3 DUP7 PUSH2 0x1CE5 SWAP2 SWAP1 PUSH2 0x3406 JUMP JUMPDEST GT SWAP1 POP DUP1 DUP1 ISZERO PUSH2 0x1CF5 JUMPI POP PUSH1 0x0 DUP7 GT JUMPDEST ISZERO PUSH2 0x1DD8 JUMPI PUSH1 0x2 PUSH1 0x0 SWAP1 SLOAD SWAP1 PUSH2 0x100 EXP SWAP1 DIV PUSH20 0xFFFFFFFFFFFFFFFFFFFFFFFFFFFFFFFFFFFFFFFF AND PUSH20 0xFFFFFFFFFFFFFFFFFFFFFFFFFFFFFFFFFFFFFFFF AND PUSH4 0x17396687 PUSH1 0xD SLOAD PUSH1 0xC PUSH1 0x0 SWAP1 SLOAD SWAP1 PUSH2 0x100 EXP SWAP1 DIV PUSH4 0xFFFFFFFF AND PUSH1 0x40 MLOAD DUP4 PUSH4 0xFFFFFFFF AND PUSH1 0xE0 SHL DUP2 MSTORE PUSH1 0x4 ADD PUSH2 0x1D6B SWAP3 SWAP2 SWAP1 PUSH2 0x2FBC JUMP JUMPDEST PUSH1 0x0 PUSH1 0x40 MLOAD DUP1 DUP4 SUB DUP2 PUSH1 0x0 DUP8 DUP1 EXTCODESIZE ISZERO DUP1 ISZERO PUSH2 0x1D85 JUMPI PUSH1 0x0 DUP1 REVERT JUMPDEST POP GAS CALL ISZERO DUP1 ISZERO PUSH2 0x1D99 JUMPI RETURNDATASIZE PUSH1 0x0 DUP1 RETURNDATACOPY RETURNDATASIZE PUSH1 0x0 REVERT JUMPDEST POP POP POP POP PUSH1 0xD SLOAD PUSH32 0x630AF8B49BB398089A74EACDB08106C528436090BDB35D7302152DC5117DF9BD DUP8 PUSH1 0x40 MLOAD PUSH2 0x1DCF SWAP2 SWAP1 PUSH2 0x26CF JUMP JUMPDEST PUSH1 0x40 MLOAD DUP1 SWAP2 SUB SWAP1 LOG2 JUMPDEST DUP1 ISZERO DUP1 PUSH2 0x1DE5 JUMPI POP PUSH1 0x0 DUP4 GT JUMPDEST ISZERO PUSH2 0x1EBB JUMPI PUSH1 0x2 PUSH1 0x0 SWAP1 SLOAD SWAP1 PUSH2 0x100 EXP SWAP1 DIV PUSH20 0xFFFFFFFFFFFFFFFFFFFFFFFFFFFFFFFFFFFFFFFF AND PUSH20 0xFFFFFFFFFFFFFFFFFFFFFFFFFFFFFFFFFFFFFFFF AND PUSH4 0x15BB180 PUSH1 0xD SLOAD DUP6 PUSH1 0x1 PUSH1 0x40 MLOAD DUP5 PUSH4 0xFFFFFFFF AND PUSH1 0xE0 SHL DUP2 MSTORE PUSH1 0x4 ADD PUSH2 0x1E4C SWAP4 SWAP3 SWAP2 SWAP1 PUSH2 0x346E JUMP JUMPDEST PUSH1 0x0 PUSH1 0x40 MLOAD DUP1 DUP4 SUB DUP2 PUSH1 0x0 DUP8 DUP1 EXTCODESIZE ISZERO DUP1 ISZERO PUSH2 0x1E66 JUMPI PUSH1 0x0 DUP1 REVERT JUMPDEST POP GAS CALL ISZERO DUP1 ISZERO PUSH2 0x1E7A JUMPI RETURNDATASIZE PUSH1 0x0 DUP1 RETURNDATACOPY RETURNDATASIZE PUSH1 0x0 REVERT JUMPDEST POP POP POP POP PUSH32 0xB8AAFDEC9BACDC76BFEA3C330063C391A2904D4F91E71F97A91534F3C8CE4AB5 PUSH1 0x0 DUP5 DUP9 PUSH1 0x40 MLOAD PUSH2 0x1EB2 SWAP4 SWAP3 SWAP2 SWAP1 PUSH2 0x34E0 JUMP JUMPDEST PUSH1 0x40 MLOAD DUP1 SWAP2 SUB SWAP1 LOG1 JUMPDEST POP POP POP POP POP POP POP JUMPDEST DUP1 DUP1 PUSH2 0x1ECE SWAP1 PUSH2 0x3517 JUMP JUMPDEST SWAP2 POP POP PUSH2 0x1C30 JUMP JUMPDEST POP PUSH1 0x0 DUP2 GT ISZERO PUSH2 0x1F03 JUMPI PUSH2 0x1EE9 DUP2 PUSH2 0x2327 JUMP JUMPDEST DUP1 PUSH1 0xB PUSH1 0x0 DUP3 DUP3 SLOAD PUSH2 0x1EFB SWAP2 SWAP1 PUSH2 0x3406 JUMP JUMPDEST SWAP3 POP POP DUP2 SWAP1 SSTORE POP JUMPDEST PUSH32 0x1E2AED425906C5ED1AC5AFF65E04A30ADDA54675483414997C879CA7F92A2A57 PUSH1 0x1 PUSH1 0x40 MLOAD PUSH2 0x1F33 SWAP2 SWAP1 PUSH2 0x26A5 JUMP JUMPDEST PUSH1 0x40 MLOAD DUP1 SWAP2 SUB SWAP1 LOG1 POP POP POP SWAP1 JUMP JUMPDEST PUSH1 0xC PUSH1 0x4 SWAP1 SLOAD SWAP1 PUSH2 0x100 EXP SWAP1 DIV PUSH1 0xFF AND DUP2 JUMP JUMPDEST PUSH1 0x5 SLOAD DUP2 JUMP JUMPDEST PUSH1 0x1 PUSH1 0x0 SWAP1 SLOAD SWAP1 PUSH2 0x100 EXP SWAP1 DIV PUSH20 0xFFFFFFFFFFFFFFFFFFFFFFFFFFFFFFFFFFFFFFFF AND DUP2 JUMP JUMPDEST PUSH1 0x7 PUSH1 0x0 SWAP1 SLOAD SWAP1 PUSH2 0x100 EXP SWAP1 DIV PUSH20 0xFFFFFFFFFFFFFFFFFFFFFFFFFFFFFFFFFFFFFFFF AND DUP2 JUMP JUMPDEST PUSH2 0x1FAE PUSH2 0x214C JUMP JUMPDEST PUSH1 0x0 PUSH20 0xFFFFFFFFFFFFFFFFFFFFFFFFFFFFFFFFFFFFFFFF AND DUP2 PUSH20 0xFFFFFFFFFFFFFFFFFFFFFFFFFFFFFFFFFFFFFFFF AND SUB PUSH2 0x2020 JUMPI PUSH1 0x0 PUSH1 0x40 MLOAD PUSH32 0x1E4FBDF700000000000000000000000000000000000000000000000000000000 DUP2 MSTORE PUSH1 0x4 ADD PUSH2 0x2017 SWAP2 SWAP1 PUSH2 0x272B JUMP JUMPDEST PUSH1 0x40 MLOAD DUP1 SWAP2 SUB SWAP1 REVERT JUMPDEST PUSH2 0x2029 DUP2 PUSH2 0x21D3 JUMP JUMPDEST POP JUMP JUMPDEST PUSH1 0x3 PUSH1 0x0 SWAP1 SLOAD SWAP1 PUSH2 0x100 EXP SWAP1 DIV PUSH20 0xFFFFFFFFFFFFFFFFFFFFFFFFFFFFFFFFFFFFFFFF AND DUP2 JUMP JUMPDEST PUSH2 0x205A PUSH2 0x214C JUMP JUMPDEST DUP1 PUSH1 0x6 PUSH1 0x0 PUSH2 0x100 EXP DUP2 SLOAD DUP2 PUSH20 0xFFFFFFFFFFFFFFFFFFFFFFFFFFFFFFFFFFFFFFFF MUL NOT AND SWAP1 DUP4 PUSH20 0xFFFFFFFFFFFFFFFFFFFFFFFFFFFFFFFFFFFFFFFF AND MUL OR SWAP1 SSTORE POP POP JUMP JUMPDEST PUSH2 0x20A6 PUSH2 0x214C JUMP JUMPDEST PUSH1 0x2 PUSH1 0x0 SWAP1 SLOAD SWAP1 PUSH2 0x100 EXP SWAP1 DIV PUSH20 0xFFFFFFFFFFFFFFFFFFFFFFFFFFFFFFFFFFFFFFFF AND PUSH20 0xFFFFFFFFFFFFFFFFFFFFFFFFFFFFFFFFFFFFFFFF AND PUSH4 0x8DDC74DE CALLVALUE PUSH1 0xD SLOAD PUSH1 0xC PUSH1 0x0 SWAP1 SLOAD SWAP1 PUSH2 0x100 EXP SWAP1 DIV PUSH4 0xFFFFFFFF AND PUSH1 0x40 MLOAD DUP5 PUSH4 0xFFFFFFFF AND PUSH1 0xE0 SHL DUP2 MSTORE PUSH1 0x4 ADD PUSH2 0x2118 SWAP3 SWAP2 SWAP1 PUSH2 0x2FBC JUMP JUMPDEST PUSH1 0x0 PUSH1 0x40 MLOAD DUP1 DUP4 SUB DUP2 DUP6 DUP9 DUP1 EXTCODESIZE ISZERO DUP1 ISZERO PUSH2 0x2131 JUMPI PUSH1 0x0 DUP1 REVERT JUMPDEST POP GAS CALL ISZERO DUP1 ISZERO PUSH2 0x2145 JUMPI RETURNDATASIZE PUSH1 0x0 DUP1 RETURNDATACOPY RETURNDATASIZE PUSH1 0x0 REVERT JUMPDEST POP POP POP POP POP JUMP JUMPDEST PUSH2 0x2154 PUSH2 0x24A6 JUMP JUMPDEST PUSH20 0xFFFFFFFFFFFFFFFFFFFFFFFFFFFFFFFFFFFFFFFF AND PUSH2 0x2172 PUSH2 0xE9B JUMP JUMPDEST PUSH20 0xFFFFFFFFFFFFFFFFFFFFFFFFFFFFFFFFFFFFFFFF AND EQ PUSH2 0x21D1 JUMPI PUSH2 0x2195 PUSH2 0x24A6 JUMP JUMPDEST PUSH1 0x40 MLOAD PUSH32 0x118CDAA700000000000000000000000000000000000000000000000000000000 DUP2 MSTORE PUSH1 0x4 ADD PUSH2 0x21C8 SWAP2 SWAP1 PUSH2 0x272B JUMP JUMPDEST PUSH1 0x40 MLOAD DUP1 SWAP2 SUB SWAP1 REVERT JUMPDEST JUMP JUMPDEST PUSH1 0x0 PUSH2 0x21DD PUSH2 0x22AA JUMP JUMPDEST SWAP1 POP PUSH1 0x0 DUP2 PUSH1 0x0 ADD PUSH1 0x0 SWAP1 SLOAD SWAP1 PUSH2 0x100 EXP SWAP1 DIV PUSH20 0xFFFFFFFFFFFFFFFFFFFFFFFFFFFFFFFFFFFFFFFF AND SWAP1 POP DUP3 DUP3 PUSH1 0x0 ADD PUSH1 0x0 PUSH2 0x100 EXP DUP2 SLOAD DUP2 PUSH20 0xFFFFFFFFFFFFFFFFFFFFFFFFFFFFFFFFFFFFFFFF MUL NOT AND SWAP1 DUP4 PUSH20 0xFFFFFFFFFFFFFFFFFFFFFFFFFFFFFFFFFFFFFFFF AND MUL OR SWAP1 SSTORE POP DUP3 PUSH20 0xFFFFFFFFFFFFFFFFFFFFFFFFFFFFFFFFFFFFFFFF AND DUP2 PUSH20 0xFFFFFFFFFFFFFFFFFFFFFFFFFFFFFFFFFFFFFFFF AND PUSH32 0x8BE0079C531659141344CD1FD0A4F28419497F9722A3DAAFE3B4186F6B6457E0 PUSH1 0x40 MLOAD PUSH1 0x40 MLOAD DUP1 SWAP2 SUB SWAP1 LOG3 POP POP POP JUMP JUMPDEST PUSH1 0x0 PUSH32 0x9016D09D72D40FDAE2FD8CEAC6B6234C7706214FD39C1CD1E609A0528C199300 SWAP1 POP SWAP1 JUMP JUMPDEST PUSH1 0x0 PUSH32 0xF0C57E16840DF040F15088DC2F81FE391C3923BEC73E23A9662EFC9C229C6A00 SWAP1 POP SWAP1 JUMP JUMPDEST PUSH2 0x2302 PUSH2 0x24AE JUMP JUMPDEST PUSH2 0x230B DUP2 PUSH2 0x24EE JUMP JUMPDEST POP JUMP JUMPDEST PUSH1 0x0 DUP2 DUP4 LT PUSH2 0x231D JUMPI DUP2 PUSH2 0x231F JUMP JUMPDEST DUP3 JUMPDEST SWAP1 POP SWAP3 SWAP2 POP POP JUMP JUMPDEST PUSH1 0x0 PUSH4 0xEB82AFB3 PUSH1 0xE0 SHL DUP3 PUSH1 0x40 MLOAD PUSH1 0x24 ADD PUSH2 0x2342 SWAP2 SWAP1 PUSH2 0x26CF JUMP JUMPDEST PUSH1 0x40 MLOAD PUSH1 0x20 DUP2 DUP4 SUB SUB DUP2 MSTORE SWAP1 PUSH1 0x40 MSTORE SWAP1 PUSH28 0xFFFFFFFFFFFFFFFFFFFFFFFFFFFFFFFFFFFFFFFFFFFFFFFFFFFFFFFF NOT AND PUSH1 0x20 DUP3 ADD DUP1 MLOAD PUSH28 0xFFFFFFFFFFFFFFFFFFFFFFFFFFFFFFFFFFFFFFFFFFFFFFFFFFFFFFFF DUP4 DUP2 DUP4 AND OR DUP4 MSTORE POP POP POP POP SWAP1 POP PUSH1 0x4 PUSH1 0x0 SWAP1 SLOAD SWAP1 PUSH2 0x100 EXP SWAP1 DIV PUSH20 0xFFFFFFFFFFFFFFFFFFFFFFFFFFFFFFFFFFFFFFFF AND PUSH20 0xFFFFFFFFFFFFFFFFFFFFFFFFFFFFFFFFFFFFFFFF AND PUSH4 0x44DD5ED6 CALLVALUE PUSH1 0x5 SLOAD PUSH1 0x6 PUSH1 0x0 SWAP1 SLOAD SWAP1 PUSH2 0x100 EXP SWAP1 DIV PUSH20 0xFFFFFFFFFFFFFFFFFFFFFFFFFFFFFFFFFFFFFFFF AND DUP6 PUSH1 0xC PUSH1 0x0 SWAP1 SLOAD SWAP1 PUSH2 0x100 EXP SWAP1 DIV PUSH4 0xFFFFFFFF AND PUSH1 0x40 MLOAD DUP7 PUSH4 0xFFFFFFFF AND PUSH1 0xE0 SHL DUP2 MSTORE PUSH1 0x4 ADD PUSH2 0x2439 SWAP5 SWAP4 SWAP3 SWAP2 SWAP1 PUSH2 0x3543 JUMP JUMPDEST PUSH1 0x0 PUSH1 0x40 MLOAD DUP1 DUP4 SUB DUP2 DUP6 DUP9 DUP1 EXTCODESIZE ISZERO DUP1 ISZERO PUSH2 0x2452 JUMPI PUSH1 0x0 DUP1 REVERT JUMPDEST POP GAS CALL ISZERO DUP1 ISZERO PUSH2 0x2466 JUMPI RETURNDATASIZE PUSH1 0x0 DUP1 RETURNDATACOPY RETURNDATASIZE PUSH1 0x0 REVERT JUMPDEST POP POP POP POP POP PUSH32 0xD644E527C1896057CE642ADFBC00F04D6B23D4C2FB30529522184D151DC087DC DUP3 PUSH1 0x40 MLOAD PUSH2 0x249A SWAP2 SWAP1 PUSH2 0x26CF JUMP JUMPDEST PUSH1 0x40 MLOAD DUP1 SWAP2 SUB SWAP1 LOG1 POP POP JUMP JUMPDEST PUSH1 0x0 CALLER SWAP1 POP SWAP1 JUMP JUMPDEST PUSH2 0x24B6 PUSH2 0x2574 JUMP JUMPDEST PUSH2 0x24EC JUMPI PUSH1 0x40 MLOAD PUSH32 0xD7E6BCF800000000000000000000000000000000000000000000000000000000 DUP2 MSTORE PUSH1 0x4 ADD PUSH1 0x40 MLOAD DUP1 SWAP2 SUB SWAP1 REVERT JUMPDEST JUMP JUMPDEST PUSH2 0x24F6 PUSH2 0x24AE JUMP JUMPDEST PUSH1 0x0 PUSH20 0xFFFFFFFFFFFFFFFFFFFFFFFFFFFFFFFFFFFFFFFF AND DUP2 PUSH20 0xFFFFFFFFFFFFFFFFFFFFFFFFFFFFFFFFFFFFFFFF AND SUB PUSH2 0x2568 JUMPI PUSH1 0x0 PUSH1 0x40 MLOAD PUSH32 0x1E4FBDF700000000000000000000000000000000000000000000000000000000 DUP2 MSTORE PUSH1 0x4 ADD PUSH2 0x255F SWAP2 SWAP1 PUSH2 0x272B JUMP JUMPDEST PUSH1 0x40 MLOAD DUP1 SWAP2 SUB SWAP1 REVERT JUMPDEST PUSH2 0x2571 DUP2 PUSH2 0x21D3 JUMP JUMPDEST POP JUMP JUMPDEST PUSH1 0x0 PUSH2 0x257E PUSH2 0x22D2 JUMP JUMPDEST PUSH1 0x0 ADD PUSH1 0x8 SWAP1 SLOAD SWAP1 PUSH2 0x100 EXP SWAP1 DIV PUSH1 0xFF AND SWAP1 POP SWAP1 JUMP JUMPDEST PUSH1 0x40 MLOAD DUP1 PUSH2 0x140 ADD PUSH1 0x40 MSTORE DUP1 PUSH1 0x0 DUP2 MSTORE PUSH1 0x20 ADD PUSH1 0x0 DUP2 MSTORE PUSH1 0x20 ADD PUSH1 0x0 DUP2 MSTORE PUSH1 0x20 ADD PUSH1 0x0 DUP2 MSTORE PUSH1 0x20 ADD PUSH1 0x0 DUP2 MSTORE PUSH1 0x20 ADD PUSH1 0x0 DUP2 MSTORE PUSH1 0x20 ADD PUSH1 0x0 DUP2 MSTORE PUSH1 0x20 ADD PUSH1 0x0 DUP2 MSTORE PUSH1 0x20 ADD PUSH1 0x0 PUSH20 0xFFFFFFFFFFFFFFFFFFFFFFFFFFFFFFFFFFFFFFFF AND DUP2 MSTORE PUSH1 0x20 ADD PUSH1 0x0 PUSH20 0xFFFFFFFFFFFFFFFFFFFFFFFFFFFFFFFFFFFFFFFF AND DUP2 MSTORE POP SWAP1 JUMP JUMPDEST PUSH1 0x0 PUSH1 0x40 MLOAD SWAP1 POP SWAP1 JUMP JUMPDEST PUSH1 0x0 DUP1 REVERT JUMPDEST PUSH1 0x0 DUP1 REVERT JUMPDEST PUSH1 0x0 DUP2 SWAP1 POP SWAP2 SWAP1 POP JUMP JUMPDEST PUSH2 0x263A DUP2 PUSH2 0x2627 JUMP JUMPDEST DUP2 EQ PUSH2 0x2645 JUMPI PUSH1 0x0 DUP1 REVERT JUMPDEST POP JUMP JUMPDEST PUSH1 0x0 DUP2 CALLDATALOAD SWAP1 POP PUSH2 0x2657 DUP2 PUSH2 0x2631 JUMP JUMPDEST SWAP3 SWAP2 POP POP JUMP JUMPDEST PUSH1 0x0 PUSH1 0x20 DUP3 DUP5 SUB SLT ISZERO PUSH2 0x2673 JUMPI PUSH2 0x2672 PUSH2 0x261D JUMP JUMPDEST JUMPDEST PUSH1 0x0 PUSH2 0x2681 DUP5 DUP3 DUP6 ADD PUSH2 0x2648 JUMP JUMPDEST SWAP2 POP POP SWAP3 SWAP2 POP POP JUMP JUMPDEST PUSH1 0x0 DUP2 ISZERO ISZERO SWAP1 POP SWAP2 SWAP1 POP JUMP JUMPDEST PUSH2 0x269F DUP2 PUSH2 0x268A JUMP JUMPDEST DUP3 MSTORE POP POP JUMP JUMPDEST PUSH1 0x0 PUSH1 0x20 DUP3 ADD SWAP1 POP PUSH2 0x26BA PUSH1 0x0 DUP4 ADD DUP5 PUSH2 0x2696 JUMP JUMPDEST SWAP3 SWAP2 POP POP JUMP JUMPDEST PUSH2 0x26C9 DUP2 PUSH2 0x2627 JUMP JUMPDEST DUP3 MSTORE POP POP JUMP JUMPDEST PUSH1 0x0 PUSH1 0x20 DUP3 ADD SWAP1 POP PUSH2 0x26E4 PUSH1 0x0 DUP4 ADD DUP5 PUSH2 0x26C0 JUMP JUMPDEST SWAP3 SWAP2 POP POP JUMP JUMPDEST PUSH1 0x0 PUSH20 0xFFFFFFFFFFFFFFFFFFFFFFFFFFFFFFFFFFFFFFFF DUP3 AND SWAP1 POP SWAP2 SWAP1 POP JUMP JUMPDEST PUSH1 0x0 PUSH2 0x2715 DUP3 PUSH2 0x26EA JUMP JUMPDEST SWAP1 POP SWAP2 SWAP1 POP JUMP JUMPDEST PUSH2 0x2725 DUP2 PUSH2 0x270A JUMP JUMPDEST DUP3 MSTORE POP POP JUMP JUMPDEST PUSH1 0x0 PUSH1 0x20 DUP3 ADD SWAP1 POP PUSH2 0x2740 PUSH1 0x0 DUP4 ADD DUP5 PUSH2 0x271C JUMP JUMPDEST SWAP3 SWAP2 POP POP JUMP JUMPDEST PUSH1 0x0 PUSH4 0xFFFFFFFF DUP3 AND SWAP1 POP SWAP2 SWAP1 POP JUMP JUMPDEST PUSH2 0x275F DUP2 PUSH2 0x2746 JUMP JUMPDEST DUP3 MSTORE POP POP JUMP JUMPDEST PUSH1 0x0 PUSH1 0x20 DUP3 ADD SWAP1 POP PUSH2 0x277A PUSH1 0x0 DUP4 ADD DUP5 PUSH2 0x2756 JUMP JUMPDEST SWAP3 SWAP2 POP POP JUMP JUMPDEST PUSH2 0x2789 DUP2 PUSH2 0x2746 JUMP JUMPDEST DUP2 EQ PUSH2 0x2794 JUMPI PUSH1 0x0 DUP1 REVERT JUMPDEST POP JUMP JUMPDEST PUSH1 0x0 DUP2 CALLDATALOAD SWAP1 POP PUSH2 0x27A6 DUP2 PUSH2 0x2780 JUMP JUMPDEST SWAP3 SWAP2 POP POP JUMP JUMPDEST PUSH1 0x0 PUSH1 0x20 DUP3 DUP5 SUB SLT ISZERO PUSH2 0x27C2 JUMPI PUSH2 0x27C1 PUSH2 0x261D JUMP JUMPDEST JUMPDEST PUSH1 0x0 PUSH2 0x27D0 DUP5 DUP3 DUP6 ADD PUSH2 0x2797 JUMP JUMPDEST SWAP2 POP POP SWAP3 SWAP2 POP POP JUMP JUMPDEST PUSH2 0x27E2 DUP2 PUSH2 0x270A JUMP JUMPDEST DUP2 EQ PUSH2 0x27ED JUMPI PUSH1 0x0 DUP1 REVERT JUMPDEST POP JUMP JUMPDEST PUSH1 0x0 DUP2 CALLDATALOAD SWAP1 POP PUSH2 0x27FF DUP2 PUSH2 0x27D9 JUMP JUMPDEST SWAP3 SWAP2 POP POP JUMP JUMPDEST PUSH1 0x0 PUSH1 0x20 DUP3 DUP5 SUB SLT ISZERO PUSH2 0x281B JUMPI PUSH2 0x281A PUSH2 0x261D JUMP JUMPDEST JUMPDEST PUSH1 0x0 PUSH2 0x2829 DUP5 DUP3 DUP6 ADD PUSH2 0x27F0 JUMP JUMPDEST SWAP2 POP POP SWAP3 SWAP2 POP POP JUMP JUMPDEST PUSH1 0x0 DUP2 SWAP1 POP SWAP2 SWAP1 POP JUMP JUMPDEST PUSH1 0x0 PUSH2 0x2857 PUSH2 0x2852 PUSH2 0x284D DUP5 PUSH2 0x26EA JUMP JUMPDEST PUSH2 0x2832 JUMP JUMPDEST PUSH2 0x26EA JUMP JUMPDEST SWAP1 POP SWAP2 SWAP1 POP JUMP JUMPDEST PUSH1 0x0 PUSH2 0x2869 DUP3 PUSH2 0x283C JUMP JUMPDEST SWAP1 POP SWAP2 SWAP1 POP JUMP JUMPDEST PUSH1 0x0 PUSH2 0x287B DUP3 PUSH2 0x285E JUMP JUMPDEST SWAP1 POP SWAP2 SWAP1 POP JUMP JUMPDEST PUSH2 0x288B DUP2 PUSH2 0x2870 JUMP JUMPDEST DUP3 MSTORE POP POP JUMP JUMPDEST PUSH1 0x0 PUSH1 0x20 DUP3 ADD SWAP1 POP PUSH2 0x28A6 PUSH1 0x0 DUP4 ADD DUP5 PUSH2 0x2882 JUMP JUMPDEST SWAP3 SWAP2 POP POP JUMP JUMPDEST PUSH2 0x28B5 DUP2 PUSH2 0x2627 JUMP JUMPDEST DUP3 MSTORE POP POP JUMP JUMPDEST PUSH2 0x28C4 DUP2 PUSH2 0x270A JUMP JUMPDEST DUP3 MSTORE POP POP JUMP JUMPDEST PUSH2 0x140 DUP3 ADD PUSH1 0x0 DUP3 ADD MLOAD PUSH2 0x28E1 PUSH1 0x0 DUP6 ADD DUP3 PUSH2 0x28AC JUMP JUMPDEST POP PUSH1 0x20 DUP3 ADD MLOAD PUSH2 0x28F4 PUSH1 0x20 DUP6 ADD DUP3 PUSH2 0x28AC JUMP JUMPDEST POP PUSH1 0x40 DUP3 ADD MLOAD PUSH2 0x2907 PUSH1 0x40 DUP6 ADD DUP3 PUSH2 0x28AC JUMP JUMPDEST POP PUSH1 0x60 DUP3 ADD MLOAD PUSH2 0x291A PUSH1 0x60 DUP6 ADD DUP3 PUSH2 0x28AC JUMP JUMPDEST POP PUSH1 0x80 DUP3 ADD MLOAD PUSH2 0x292D PUSH1 0x80 DUP6 ADD DUP3 PUSH2 0x28AC JUMP JUMPDEST POP PUSH1 0xA0 DUP3 ADD MLOAD PUSH2 0x2940 PUSH1 0xA0 DUP6 ADD DUP3 PUSH2 0x28AC JUMP JUMPDEST POP PUSH1 0xC0 DUP3 ADD MLOAD PUSH2 0x2953 PUSH1 0xC0 DUP6 ADD DUP3 PUSH2 0x28AC JUMP JUMPDEST POP PUSH1 0xE0 DUP3 ADD MLOAD PUSH2 0x2966 PUSH1 0xE0 DUP6 ADD DUP3 PUSH2 0x28AC JUMP JUMPDEST POP PUSH2 0x100 DUP3 ADD MLOAD PUSH2 0x297B PUSH2 0x100 DUP6 ADD DUP3 PUSH2 0x28BB JUMP JUMPDEST POP PUSH2 0x120 DUP3 ADD MLOAD PUSH2 0x2990 PUSH2 0x120 DUP6 ADD DUP3 PUSH2 0x28BB JUMP JUMPDEST POP POP POP POP JUMP JUMPDEST PUSH1 0x0 PUSH2 0x140 DUP3 ADD SWAP1 POP PUSH2 0x29AC PUSH1 0x0 DUP4 ADD DUP5 PUSH2 0x28CA JUMP JUMPDEST SWAP3 SWAP2 POP POP JUMP JUMPDEST PUSH1 0x0 PUSH2 0x29BD DUP3 PUSH2 0x285E JUMP JUMPDEST SWAP1 POP SWAP2 SWAP1 POP JUMP JUMPDEST PUSH2 0x29CD DUP2 PUSH2 0x29B2 JUMP JUMPDEST DUP3 MSTORE POP POP JUMP JUMPDEST PUSH1 0x0 PUSH1 0x20 DUP3 ADD SWAP1 POP PUSH2 0x29E8 PUSH1 0x0 DUP4 ADD DUP5 PUSH2 0x29C4 JUMP JUMPDEST SWAP3 SWAP2 POP POP JUMP JUMPDEST PUSH1 0x0 DUP1 REVERT JUMPDEST PUSH1 0x0 DUP1 REVERT JUMPDEST PUSH1 0x0 PUSH1 0x1F NOT PUSH1 0x1F DUP4 ADD AND SWAP1 POP SWAP2 SWAP1 POP JUMP JUMPDEST PUSH32 0x4E487B7100000000000000000000000000000000000000000000000000000000 PUSH1 0x0 MSTORE PUSH1 0x41 PUSH1 0x4 MSTORE PUSH1 0x24 PUSH1 0x0 REVERT JUMPDEST PUSH2 0x2A41 DUP3 PUSH2 0x29F8 JUMP JUMPDEST DUP2 ADD DUP2 DUP2 LT PUSH8 0xFFFFFFFFFFFFFFFF DUP3 GT OR ISZERO PUSH2 0x2A60 JUMPI PUSH2 0x2A5F PUSH2 0x2A09 JUMP JUMPDEST JUMPDEST DUP1 PUSH1 0x40 MSTORE POP POP POP JUMP JUMPDEST PUSH1 0x0 PUSH2 0x2A73 PUSH2 0x2613 JUMP JUMPDEST SWAP1 POP PUSH2 0x2A7F DUP3 DUP3 PUSH2 0x2A38 JUMP JUMPDEST SWAP2 SWAP1 POP JUMP JUMPDEST PUSH1 0x0 PUSH8 0xFFFFFFFFFFFFFFFF DUP3 GT ISZERO PUSH2 0x2A9F JUMPI PUSH2 0x2A9E PUSH2 0x2A09 JUMP JUMPDEST JUMPDEST PUSH2 0x2AA8 DUP3 PUSH2 0x29F8 JUMP JUMPDEST SWAP1 POP PUSH1 0x20 DUP2 ADD SWAP1 POP SWAP2 SWAP1 POP JUMP JUMPDEST DUP3 DUP2 DUP4 CALLDATACOPY PUSH1 0x0 DUP4 DUP4 ADD MSTORE POP POP POP JUMP JUMPDEST PUSH1 0x0 PUSH2 0x2AD7 PUSH2 0x2AD2 DUP5 PUSH2 0x2A84 JUMP JUMPDEST PUSH2 0x2A69 JUMP JUMPDEST SWAP1 POP DUP3 DUP2 MSTORE PUSH1 0x20 DUP2 ADD DUP5 DUP5 DUP5 ADD GT ISZERO PUSH2 0x2AF3 JUMPI PUSH2 0x2AF2 PUSH2 0x29F3 JUMP JUMPDEST JUMPDEST PUSH2 0x2AFE DUP5 DUP3 DUP6 PUSH2 0x2AB5 JUMP JUMPDEST POP SWAP4 SWAP3 POP POP POP JUMP JUMPDEST PUSH1 0x0 DUP3 PUSH1 0x1F DUP4 ADD SLT PUSH2 0x2B1B JUMPI PUSH2 0x2B1A PUSH2 0x29EE JUMP JUMPDEST JUMPDEST DUP2 CALLDATALOAD PUSH2 0x2B2B DUP5 DUP3 PUSH1 0x20 DUP7 ADD PUSH2 0x2AC4 JUMP JUMPDEST SWAP2 POP POP SWAP3 SWAP2 POP POP JUMP JUMPDEST PUSH1 0x0 DUP1 PUSH1 0x0 PUSH1 0x60 DUP5 DUP7 SUB SLT ISZERO PUSH2 0x2B4D JUMPI PUSH2 0x2B4C PUSH2 0x261D JUMP JUMPDEST JUMPDEST PUSH1 0x0 PUSH2 0x2B5B DUP7 DUP3 DUP8 ADD PUSH2 0x27F0 JUMP JUMPDEST SWAP4 POP POP PUSH1 0x20 PUSH2 0x2B6C DUP7 DUP3 DUP8 ADD PUSH2 0x2648 JUMP JUMPDEST SWAP3 POP POP PUSH1 0x40 DUP5 ADD CALLDATALOAD PUSH8 0xFFFFFFFFFFFFFFFF DUP2 GT ISZERO PUSH2 0x2B8D JUMPI PUSH2 0x2B8C PUSH2 0x2622 JUMP JUMPDEST JUMPDEST PUSH2 0x2B99 DUP7 DUP3 DUP8 ADD PUSH2 0x2B06 JUMP JUMPDEST SWAP2 POP POP SWAP3 POP SWAP3 POP SWAP3 JUMP JUMPDEST PUSH1 0x0 DUP1 PUSH1 0x0 DUP1 PUSH1 0x0 DUP1 PUSH1 0x0 PUSH1 0xE0 DUP9 DUP11 SUB SLT ISZERO PUSH2 0x2BC2 JUMPI PUSH2 0x2BC1 PUSH2 0x261D JUMP JUMPDEST JUMPDEST PUSH1 0x0 PUSH2 0x2BD0 DUP11 DUP3 DUP12 ADD PUSH2 0x27F0 JUMP JUMPDEST SWAP8 POP POP PUSH1 0x20 PUSH2 0x2BE1 DUP11 DUP3 DUP12 ADD PUSH2 0x27F0 JUMP JUMPDEST SWAP7 POP POP PUSH1 0x40 PUSH2 0x2BF2 DUP11 DUP3 DUP12 ADD PUSH2 0x27F0 JUMP JUMPDEST SWAP6 POP POP PUSH1 0x60 PUSH2 0x2C03 DUP11 DUP3 DUP12 ADD PUSH2 0x2648 JUMP JUMPDEST SWAP5 POP POP PUSH1 0x80 PUSH2 0x2C14 DUP11 DUP3 DUP12 ADD PUSH2 0x2797 JUMP JUMPDEST SWAP4 POP POP PUSH1 0xA0 PUSH2 0x2C25 DUP11 DUP3 DUP12 ADD PUSH2 0x27F0 JUMP JUMPDEST SWAP3 POP POP PUSH1 0xC0 PUSH2 0x2C36 DUP11 DUP3 DUP12 ADD PUSH2 0x27F0 JUMP JUMPDEST SWAP2 POP POP SWAP3 SWAP6 SWAP9 SWAP2 SWAP5 SWAP8 POP SWAP3 SWAP6 POP JUMP JUMPDEST PUSH1 0x0 PUSH2 0x2C50 DUP3 PUSH2 0x285E JUMP JUMPDEST SWAP1 POP SWAP2 SWAP1 POP JUMP JUMPDEST PUSH2 0x2C60 DUP2 PUSH2 0x2C45 JUMP JUMPDEST DUP3 MSTORE POP POP JUMP JUMPDEST PUSH1 0x0 PUSH1 0x20 DUP3 ADD SWAP1 POP PUSH2 0x2C7B PUSH1 0x0 DUP4 ADD DUP5 PUSH2 0x2C57 JUMP JUMPDEST SWAP3 SWAP2 POP POP JUMP JUMPDEST PUSH1 0x0 PUSH2 0x2C8C DUP3 PUSH2 0x285E JUMP JUMPDEST SWAP1 POP SWAP2 SWAP1 POP JUMP JUMPDEST PUSH2 0x2C9C DUP2 PUSH2 0x2C81 JUMP JUMPDEST DUP3 MSTORE POP POP JUMP JUMPDEST PUSH1 0x0 PUSH1 0x20 DUP3 ADD SWAP1 POP PUSH2 0x2CB7 PUSH1 0x0 DUP4 ADD DUP5 PUSH2 0x2C93 JUMP JUMPDEST SWAP3 SWAP2 POP POP JUMP JUMPDEST PUSH1 0x0 PUSH1 0x40 DUP3 ADD SWAP1 POP PUSH2 0x2CD2 PUSH1 0x0 DUP4 ADD DUP6 PUSH2 0x26C0 JUMP JUMPDEST PUSH2 0x2CDF PUSH1 0x20 DUP4 ADD DUP5 PUSH2 0x26C0 JUMP JUMPDEST SWAP4 SWAP3 POP POP POP JUMP JUMPDEST PUSH1 0x0 DUP2 MLOAD SWAP1 POP PUSH2 0x2CF5 DUP2 PUSH2 0x27D9 JUMP JUMPDEST SWAP3 SWAP2 POP POP JUMP JUMPDEST PUSH1 0x0 PUSH1 0x20 DUP3 DUP5 SUB SLT ISZERO PUSH2 0x2D11 JUMPI PUSH2 0x2D10 PUSH2 0x261D JUMP JUMPDEST JUMPDEST PUSH1 0x0 PUSH2 0x2D1F DUP5 DUP3 DUP6 ADD PUSH2 0x2CE6 JUMP JUMPDEST SWAP2 POP POP SWAP3 SWAP2 POP POP JUMP JUMPDEST PUSH1 0x0 PUSH1 0x40 DUP3 ADD SWAP1 POP PUSH2 0x2D3D PUSH1 0x0 DUP4 ADD DUP6 PUSH2 0x271C JUMP JUMPDEST PUSH2 0x2D4A PUSH1 0x20 DUP4 ADD DUP5 PUSH2 0x26C0 JUMP JUMPDEST SWAP4 SWAP3 POP POP POP JUMP JUMPDEST PUSH2 0x2D5A DUP2 PUSH2 0x268A JUMP JUMPDEST DUP2 EQ PUSH2 0x2D65 JUMPI PUSH1 0x0 DUP1 REVERT JUMPDEST POP JUMP JUMPDEST PUSH1 0x0 DUP2 MLOAD SWAP1 POP PUSH2 0x2D77 DUP2 PUSH2 0x2D51 JUMP JUMPDEST SWAP3 SWAP2 POP POP JUMP JUMPDEST PUSH1 0x0 PUSH1 0x20 DUP3 DUP5 SUB SLT ISZERO PUSH2 0x2D93 JUMPI PUSH2 0x2D92 PUSH2 0x261D JUMP JUMPDEST JUMPDEST PUSH1 0x0 PUSH2 0x2DA1 DUP5 DUP3 DUP6 ADD PUSH2 0x2D68 JUMP JUMPDEST SWAP2 POP POP SWAP3 SWAP2 POP POP JUMP JUMPDEST PUSH1 0x0 DUP3 DUP3 MSTORE PUSH1 0x20 DUP3 ADD SWAP1 POP SWAP3 SWAP2 POP POP JUMP JUMPDEST POP JUMP JUMPDEST PUSH1 0x0 PUSH2 0x2DCB PUSH1 0x0 DUP4 PUSH2 0x2DAA JUMP JUMPDEST SWAP2 POP PUSH2 0x2DD6 DUP3 PUSH2 0x2DBB JUMP JUMPDEST PUSH1 0x0 DUP3 ADD SWAP1 POP SWAP2 SWAP1 POP JUMP JUMPDEST PUSH1 0x0 PUSH1 0xE0 DUP3 ADD SWAP1 POP PUSH2 0x2DF6 PUSH1 0x0 DUP4 ADD DUP10 PUSH2 0x26C0 JUMP JUMPDEST PUSH2 0x2E03 PUSH1 0x20 DUP4 ADD DUP9 PUSH2 0x271C JUMP JUMPDEST PUSH2 0x2E10 PUSH1 0x40 DUP4 ADD DUP8 PUSH2 0x271C JUMP JUMPDEST PUSH2 0x2E1D PUSH1 0x60 DUP4 ADD DUP7 PUSH2 0x271C JUMP JUMPDEST PUSH2 0x2E2A PUSH1 0x80 DUP4 ADD DUP6 PUSH2 0x26C0 JUMP JUMPDEST PUSH2 0x2E37 PUSH1 0xA0 DUP4 ADD DUP5 PUSH2 0x2756 JUMP JUMPDEST DUP2 DUP2 SUB PUSH1 0xC0 DUP4 ADD MSTORE PUSH2 0x2E48 DUP2 PUSH2 0x2DBE JUMP JUMPDEST SWAP1 POP SWAP8 SWAP7 POP POP POP POP POP POP POP JUMP JUMPDEST PUSH1 0x0 PUSH1 0x40 DUP3 ADD SWAP1 POP PUSH2 0x2E6A PUSH1 0x0 DUP4 ADD DUP6 PUSH2 0x2756 JUMP JUMPDEST PUSH2 0x2E77 PUSH1 0x20 DUP4 ADD DUP5 PUSH2 0x2756 JUMP JUMPDEST SWAP4 SWAP3 POP POP POP JUMP JUMPDEST PUSH1 0x0 DUP1 REVERT JUMPDEST PUSH1 0x0 DUP2 MLOAD SWAP1 POP PUSH2 0x2E92 DUP2 PUSH2 0x2631 JUMP JUMPDEST SWAP3 SWAP2 POP POP JUMP JUMPDEST PUSH1 0x0 PUSH2 0x140 DUP3 DUP5 SUB SLT ISZERO PUSH2 0x2EAF JUMPI PUSH2 0x2EAE PUSH2 0x2E7E JUMP JUMPDEST JUMPDEST PUSH2 0x2EBA PUSH2 0x140 PUSH2 0x2A69 JUMP JUMPDEST SWAP1 POP PUSH1 0x0 PUSH2 0x2ECA DUP5 DUP3 DUP6 ADD PUSH2 0x2E83 JUMP JUMPDEST PUSH1 0x0 DUP4 ADD MSTORE POP PUSH1 0x20 PUSH2 0x2EDE DUP5 DUP3 DUP6 ADD PUSH2 0x2E83 JUMP JUMPDEST PUSH1 0x20 DUP4 ADD MSTORE POP PUSH1 0x40 PUSH2 0x2EF2 DUP5 DUP3 DUP6 ADD PUSH2 0x2E83 JUMP JUMPDEST PUSH1 0x40 DUP4 ADD MSTORE POP PUSH1 0x60 PUSH2 0x2F06 DUP5 DUP3 DUP6 ADD PUSH2 0x2E83 JUMP JUMPDEST PUSH1 0x60 DUP4 ADD MSTORE POP PUSH1 0x80 PUSH2 0x2F1A DUP5 DUP3 DUP6 ADD PUSH2 0x2E83 JUMP JUMPDEST PUSH1 0x80 DUP4 ADD MSTORE POP PUSH1 0xA0 PUSH2 0x2F2E DUP5 DUP3 DUP6 ADD PUSH2 0x2E83 JUMP JUMPDEST PUSH1 0xA0 DUP4 ADD MSTORE POP PUSH1 0xC0 PUSH2 0x2F42 DUP5 DUP3 DUP6 ADD PUSH2 0x2E83 JUMP JUMPDEST PUSH1 0xC0 DUP4 ADD MSTORE POP PUSH1 0xE0 PUSH2 0x2F56 DUP5 DUP3 DUP6 ADD PUSH2 0x2E83 JUMP JUMPDEST PUSH1 0xE0 DUP4 ADD MSTORE POP PUSH2 0x100 PUSH2 0x2F6B DUP5 DUP3 DUP6 ADD PUSH2 0x2CE6 JUMP JUMPDEST PUSH2 0x100 DUP4 ADD MSTORE POP PUSH2 0x120 PUSH2 0x2F81 DUP5 DUP3 DUP6 ADD PUSH2 0x2CE6 JUMP JUMPDEST PUSH2 0x120 DUP4 ADD MSTORE POP SWAP3 SWAP2 POP POP JUMP JUMPDEST PUSH1 0x0 PUSH2 0x140 DUP3 DUP5 SUB SLT ISZERO PUSH2 0x2FA5 JUMPI PUSH2 0x2FA4 PUSH2 0x261D JUMP JUMPDEST JUMPDEST PUSH1 0x0 PUSH2 0x2FB3 DUP5 DUP3 DUP6 ADD PUSH2 0x2E98 JUMP JUMPDEST SWAP2 POP POP SWAP3 SWAP2 POP POP JUMP JUMPDEST PUSH1 0x0 PUSH1 0x40 DUP3 ADD SWAP1 POP PUSH2 0x2FD1 PUSH1 0x0 DUP4 ADD DUP6 PUSH2 0x26C0 JUMP JUMPDEST PUSH2 0x2FDE PUSH1 0x20 DUP4 ADD DUP5 PUSH2 0x2756 JUMP JUMPDEST SWAP4 SWAP3 POP POP POP JUMP JUMPDEST PUSH1 0x0 PUSH1 0x20 DUP3 DUP5 SUB SLT ISZERO PUSH2 0x2FFB JUMPI PUSH2 0x2FFA PUSH2 0x261D JUMP JUMPDEST JUMPDEST PUSH1 0x0 PUSH2 0x3009 DUP5 DUP3 DUP6 ADD PUSH2 0x2E83 JUMP JUMPDEST SWAP2 POP POP SWAP3 SWAP2 POP POP JUMP JUMPDEST PUSH1 0x0 DUP3 DUP3 MSTORE PUSH1 0x20 DUP3 ADD SWAP1 POP SWAP3 SWAP2 POP POP JUMP JUMPDEST PUSH32 0x4465616C65723A20496E73756666696369656E74204D657469732062616C616E PUSH1 0x0 DUP3 ADD MSTORE PUSH32 0x6365000000000000000000000000000000000000000000000000000000000000 PUSH1 0x20 DUP3 ADD MSTORE POP JUMP JUMPDEST PUSH1 0x0 PUSH2 0x307F PUSH1 0x22 DUP4 PUSH2 0x3012 JUMP JUMPDEST SWAP2 POP PUSH2 0x308A DUP3 PUSH2 0x3023 JUMP JUMPDEST PUSH1 0x40 DUP3 ADD SWAP1 POP SWAP2 SWAP1 POP JUMP JUMPDEST PUSH1 0x0 PUSH1 0x20 DUP3 ADD SWAP1 POP DUP2 DUP2 SUB PUSH1 0x0 DUP4 ADD MSTORE PUSH2 0x30AE DUP2 PUSH2 0x3072 JUMP JUMPDEST SWAP1 POP SWAP2 SWAP1 POP JUMP JUMPDEST PUSH32 0x4465616C65723A20417070726F76616C20746F204C6F636B696E67496E666F20 PUSH1 0x0 DUP3 ADD MSTORE PUSH32 0x6661696C65640000000000000000000000000000000000000000000000000000 PUSH1 0x20 DUP3 ADD MSTORE POP JUMP JUMPDEST PUSH1 0x0 PUSH2 0x3111 PUSH1 0x26 DUP4 PUSH2 0x3012 JUMP JUMPDEST SWAP2 POP PUSH2 0x311C DUP3 PUSH2 0x30B5 JUMP JUMPDEST PUSH1 0x40 DUP3 ADD SWAP1 POP SWAP2 SWAP1 POP JUMP JUMPDEST PUSH1 0x0 PUSH1 0x20 DUP3 ADD SWAP1 POP DUP2 DUP2 SUB PUSH1 0x0 DUP4 ADD MSTORE PUSH2 0x3140 DUP2 PUSH2 0x3104 JUMP JUMPDEST SWAP1 POP SWAP2 SWAP1 POP JUMP JUMPDEST PUSH1 0x0 DUP2 MLOAD SWAP1 POP SWAP2 SWAP1 POP JUMP JUMPDEST PUSH1 0x0 JUMPDEST DUP4 DUP2 LT ISZERO PUSH2 0x3170 JUMPI DUP1 DUP3 ADD MLOAD DUP2 DUP5 ADD MSTORE PUSH1 0x20 DUP2 ADD SWAP1 POP PUSH2 0x3155 JUMP JUMPDEST PUSH1 0x0 DUP5 DUP5 ADD MSTORE POP POP POP POP JUMP JUMPDEST PUSH1 0x0 PUSH2 0x3187 DUP3 PUSH2 0x3147 JUMP JUMPDEST PUSH2 0x3191 DUP2 DUP6 PUSH2 0x2DAA JUMP JUMPDEST SWAP4 POP PUSH2 0x31A1 DUP2 DUP6 PUSH1 0x20 DUP7 ADD PUSH2 0x3152 JUMP JUMPDEST PUSH2 0x31AA DUP2 PUSH2 0x29F8 JUMP JUMPDEST DUP5 ADD SWAP2 POP POP SWAP3 SWAP2 POP POP JUMP JUMPDEST PUSH1 0x0 PUSH1 0x80 DUP3 ADD SWAP1 POP PUSH2 0x31CA PUSH1 0x0 DUP4 ADD DUP8 PUSH2 0x271C JUMP JUMPDEST PUSH2 0x31D7 PUSH1 0x20 DUP4 ADD DUP7 PUSH2 0x271C JUMP JUMPDEST PUSH2 0x31E4 PUSH1 0x40 DUP4 ADD DUP6 PUSH2 0x26C0 JUMP JUMPDEST DUP2 DUP2 SUB PUSH1 0x60 DUP4 ADD MSTORE PUSH2 0x31F6 DUP2 DUP5 PUSH2 0x317C JUMP JUMPDEST SWAP1 POP SWAP6 SWAP5 POP POP POP POP POP JUMP JUMPDEST PUSH1 0x0 PUSH1 0x40 DUP3 ADD SWAP1 POP PUSH2 0x3216 PUSH1 0x0 DUP4 ADD DUP6 PUSH2 0x26C0 JUMP JUMPDEST PUSH2 0x3223 PUSH1 0x20 DUP4 ADD DUP5 PUSH2 0x2696 JUMP JUMPDEST SWAP4 SWAP3 POP POP POP JUMP JUMPDEST PUSH32 0x4465616C65723A207A65726F2061646472657373000000000000000000000000 PUSH1 0x0 DUP3 ADD MSTORE POP JUMP JUMPDEST PUSH1 0x0 PUSH2 0x3260 PUSH1 0x14 DUP4 PUSH2 0x3012 JUMP JUMPDEST SWAP2 POP PUSH2 0x326B DUP3 PUSH2 0x322A JUMP JUMPDEST PUSH1 0x20 DUP3 ADD SWAP1 POP SWAP2 SWAP1 POP JUMP JUMPDEST PUSH1 0x0 PUSH1 0x20 DUP3 ADD SWAP1 POP DUP2 DUP2 SUB PUSH1 0x0 DUP4 ADD MSTORE PUSH2 0x328F DUP2 PUSH2 0x3253 JUMP JUMPDEST SWAP1 POP SWAP2 SWAP1 POP JUMP JUMPDEST PUSH1 0x0 PUSH2 0x32A1 DUP3 PUSH2 0x270A JUMP JUMPDEST SWAP1 POP SWAP2 SWAP1 POP JUMP JUMPDEST PUSH2 0x32B1 DUP2 PUSH2 0x3296 JUMP JUMPDEST DUP2 EQ PUSH2 0x32BC JUMPI PUSH1 0x0 DUP1 REVERT JUMPDEST POP JUMP JUMPDEST PUSH1 0x0 DUP2 MLOAD SWAP1 POP PUSH2 0x32CE DUP2 PUSH2 0x32A8 JUMP JUMPDEST SWAP3 SWAP2 POP POP JUMP JUMPDEST PUSH1 0x0 PUSH1 0x20 DUP3 DUP5 SUB SLT ISZERO PUSH2 0x32EA JUMPI PUSH2 0x32E9 PUSH2 0x261D JUMP JUMPDEST JUMPDEST PUSH1 0x0 PUSH2 0x32F8 DUP5 DUP3 DUP6 ADD PUSH2 0x32BF JUMP JUMPDEST SWAP2 POP POP SWAP3 SWAP2 POP POP JUMP JUMPDEST PUSH1 0x0 DUP2 SWAP1 POP SWAP2 SWAP1 POP JUMP JUMPDEST PUSH1 0x0 PUSH8 0xFFFFFFFFFFFFFFFF DUP3 AND SWAP1 POP SWAP2 SWAP1 POP JUMP JUMPDEST PUSH1 0x0 PUSH2 0x333A PUSH2 0x3335 PUSH2 0x3330 DUP5 PUSH2 0x3301 JUMP JUMPDEST PUSH2 0x2832 JUMP JUMPDEST PUSH2 0x330B JUMP JUMPDEST SWAP1 POP SWAP2 SWAP1 POP JUMP JUMPDEST PUSH2 0x334A DUP2 PUSH2 0x331F JUMP JUMPDEST DUP3 MSTORE POP POP JUMP JUMPDEST PUSH1 0x0 PUSH1 0x20 DUP3 ADD SWAP1 POP PUSH2 0x3365 PUSH1 0x0 DUP4 ADD DUP5 PUSH2 0x3341 JUMP JUMPDEST SWAP3 SWAP2 POP POP JUMP JUMPDEST PUSH32 0x4465616C65723A206E6F206163746976652073657175656E6365720000000000 PUSH1 0x0 DUP3 ADD MSTORE POP JUMP JUMPDEST PUSH1 0x0 PUSH2 0x33A1 PUSH1 0x1B DUP4 PUSH2 0x3012 JUMP JUMPDEST SWAP2 POP PUSH2 0x33AC DUP3 PUSH2 0x336B JUMP JUMPDEST PUSH1 0x20 DUP3 ADD SWAP1 POP SWAP2 SWAP1 POP JUMP JUMPDEST PUSH1 0x0 PUSH1 0x20 DUP3 ADD SWAP1 POP DUP2 DUP2 SUB PUSH1 0x0 DUP4 ADD MSTORE PUSH2 0x33D0 DUP2 PUSH2 0x3394 JUMP JUMPDEST SWAP1 POP SWAP2 SWAP1 POP JUMP JUMPDEST PUSH32 0x4E487B7100000000000000000000000000000000000000000000000000000000 PUSH1 0x0 MSTORE PUSH1 0x11 PUSH1 0x4 MSTORE PUSH1 0x24 PUSH1 0x0 REVERT JUMPDEST PUSH1 0x0 PUSH2 0x3411 DUP3 PUSH2 0x2627 JUMP JUMPDEST SWAP2 POP PUSH2 0x341C DUP4 PUSH2 0x2627 JUMP JUMPDEST SWAP3 POP DUP3 DUP3 ADD SWAP1 POP DUP1 DUP3 GT ISZERO PUSH2 0x3434 JUMPI PUSH2 0x3433 PUSH2 0x33D7 JUMP JUMPDEST JUMPDEST SWAP3 SWAP2 POP POP JUMP JUMPDEST PUSH1 0x0 PUSH2 0x3445 DUP3 PUSH2 0x2627 JUMP JUMPDEST SWAP2 POP PUSH2 0x3450 DUP4 PUSH2 0x2627 JUMP JUMPDEST SWAP3 POP DUP3 DUP3 SUB SWAP1 POP DUP2 DUP2 GT ISZERO PUSH2 0x3468 JUMPI PUSH2 0x3467 PUSH2 0x33D7 JUMP JUMPDEST JUMPDEST SWAP3 SWAP2 POP POP JUMP JUMPDEST PUSH1 0x0 PUSH1 0x60 DUP3 ADD SWAP1 POP PUSH2 0x3483 PUSH1 0x0 DUP4 ADD DUP7 PUSH2 0x26C0 JUMP JUMPDEST PUSH2 0x3490 PUSH1 0x20 DUP4 ADD DUP6 PUSH2 0x26C0 JUMP JUMPDEST PUSH2 0x349D PUSH1 0x40 DUP4 ADD DUP5 PUSH2 0x2696 JUMP JUMPDEST SWAP5 SWAP4 POP POP POP POP JUMP JUMPDEST PUSH1 0x0 DUP2 SWAP1 POP SWAP2 SWAP1 POP JUMP JUMPDEST PUSH1 0x0 PUSH2 0x34CA PUSH2 0x34C5 PUSH2 0x34C0 DUP5 PUSH2 0x34A5 JUMP JUMPDEST PUSH2 0x2832 JUMP JUMPDEST PUSH2 0x2746 JUMP JUMPDEST SWAP1 POP SWAP2 SWAP1 POP JUMP JUMPDEST PUSH2 0x34DA DUP2 PUSH2 0x34AF JUMP JUMPDEST DUP3 MSTORE POP POP JUMP JUMPDEST PUSH1 0x0 PUSH1 0x60 DUP3 ADD SWAP1 POP PUSH2 0x34F5 PUSH1 0x0 DUP4 ADD DUP7 PUSH2 0x34D1 JUMP JUMPDEST PUSH2 0x3502 PUSH1 0x20 DUP4 ADD DUP6 PUSH2 0x26C0 JUMP JUMPDEST PUSH2 0x350F PUSH1 0x40 DUP4 ADD DUP5 PUSH2 0x26C0 JUMP JUMPDEST SWAP5 SWAP4 POP POP POP POP JUMP JUMPDEST PUSH1 0x0 PUSH2 0x3522 DUP3 PUSH2 0x2746 JUMP JUMPDEST SWAP2 POP PUSH4 0xFFFFFFFF DUP3 SUB PUSH2 0x3538 JUMPI PUSH2 0x3537 PUSH2 0x33D7 JUMP JUMPDEST JUMPDEST PUSH1 0x1 DUP3 ADD SWAP1 POP SWAP2 SWAP1 POP JUMP JUMPDEST PUSH1 0x0 PUSH1 0x80 DUP3 ADD SWAP1 POP PUSH2 0x3558 PUSH1 0x0 DUP4 ADD DUP8 PUSH2 0x26C0 JUMP JUMPDEST PUSH2 0x3565 PUSH1 0x20 DUP4 ADD DUP7 PUSH2 0x271C JUMP JUMPDEST DUP2 DUP2 SUB PUSH1 0x40 DUP4 ADD MSTORE PUSH2 0x3577 DUP2 DUP6 PUSH2 0x317C JUMP JUMPDEST SWAP1 POP PUSH2 0x3586 PUSH1 0x60 DUP4 ADD DUP5 PUSH2 0x2756 JUMP JUMPDEST SWAP6 SWAP5 POP POP POP POP POP JUMP INVALID LOG2 PUSH5 0x6970667358 0x22 SLT KECCAK256 PUSH30 0xD67CEA66B2D951EDA917DCA952200EF2B9D302F461AC1E89FFF75044C5C1 0xDF PUSH5 0x736F6C6343 STOP ADDMOD EQ STOP CALLER "},"gasEstimates":{"creation":{"codeDepositCost":"2753000","executionCost":"2999","totalCost":"2755999"},"external":{"active()":"2590","activeSequencerIds(uint256)":"6595","initialize(address,address,address,uint256,uint32,address,address)":"infinite","l2ChainId()":"2518","l2Gas()":"2517","l2Minter()":"2627","l2RewardDispatcher()":"2558","lockFor(address,uint256,bytes)":"infinite","lockingInfo()":"infinite","lockingPool()":"infinite","messenger()":"infinite","metis()":"infinite","owner()":"2622","redemptionQueue()":"2604","relock()":"infinite","renounceOwnership()":"infinite","sequencerAgentCount()":"2583","sequencerAgentTemplate()":"2579","sequencerAgents(uint32)":"2935","sequencerData()":"infinite","sequencerId()":"2520","sequencerSigner()":"2625","setL2Gas(uint32)":"infinite","setL2Minter(address)":"infinite","setL2RewardDispatcher(address)":"infinite","setRedemptionQueue(address)":"infinite","sumRewards()":"2518","totalLocked()":"infinite","transferOwnership(address)":"infinite","unlock()":"infinite","unlockClaim()":"infinite","withdrawRewards()":"2588","withdrawStakingAmount(uint256)":"infinite"},"internal":{"_mintL2EMetis(uint256)":"infinite"}},"methodIdentifiers":{"active()":"02fb0c5e","activeSequencerIds(uint256)":"1abdaf6a","initialize(address,address,address,uint256,uint32,address,address)":"b699ce5f","l2ChainId()":"d6ae3cd5","l2Gas()":"3cbb6979","l2Minter()":"080e1e4e","l2RewardDispatcher()":"e92d61e5","lockFor(address,uint256,bytes)":"af70cba5","lockingInfo()":"f7cee36a","lockingPool()":"85d1e2b8","messenger()":"3cb747bf","metis()":"e5974554","owner()":"8da5cb5b","redemptionQueue()":"97ec19be","relock()":"c53b573d","renounceOwnership()":"715018a6","sequencerAgentCount()":"9e935704","sequencerAgentTemplate()":"8db8ad88","sequencerAgents(uint32)":"457cb586","sequencerData()":"76d9f95c","sequencerId()":"04a78fca","sequencerSigner()":"c3b550c8","setL2Gas(uint32)":"33bec7e7","setL2Minter(address)":"f87b7a3e","setL2RewardDispatcher(address)":"43c82cf7","setRedemptionQueue(address)":"3b4c46d0","sumRewards()":"7ca4f8b0","totalLocked()":"56891412","transferOwnership(address)":"f2fde38b","unlock()":"a69df4b5","unlockClaim()":"feafaa6b","withdrawRewards()":"c7b8981c","withdrawStakingAmount(uint256)":"0182a6da"}},"storageLayout":{"storage":[{"astId":2455,"contract":"contracts/Dealer.sol:Dealer","label":"sequencerAgentTemplate","offset":0,"slot":"0","type":"t_address"},{"astId":2459,"contract":"contracts/Dealer.sol:Dealer","label":"metis","offset":0,"slot":"1","type":"t_contract(IERC20)979"},{"astId":2463,"contract":"contracts/Dealer.sol:Dealer","label":"lockingPool","offset":0,"slot":"2","type":"t_contract(ILockingPool)3737"},{"astId":2467,"contract":"contracts/Dealer.sol:Dealer","label":"lockingInfo","offset":0,"slot":"3","type":"t_contract(ILockingInfo)3387"},{"astId":2471,"contract":"contracts/Dealer.sol:Dealer","label":"messenger","offset":0,"slot":"4","type":"t_contract(ICrossDomainMessenger)3199"},{"astId":2474,"contract":"contracts/Dealer.sol:Dealer","label":"l2ChainId","offset":0,"slot":"5","type":"t_uint256"},{"astId":2477,"contract":"contracts/Dealer.sol:Dealer","label":"l2Minter","offset":0,"slot":"6","type":"t_address"},{"astId":2480,"contract":"contracts/Dealer.sol:Dealer","label":"l2RewardDispatcher","offset":0,"slot":"7","type":"t_address"},{"astId":2485,"contract":"contracts/Dealer.sol:Dealer","label":"sequencerAgents","offset":0,"slot":"8","type":"t_mapping(t_uint32,t_address)"},{"astId":2488,"contract":"contracts/Dealer.sol:Dealer","label":"sequencerAgentCount","offset":0,"slot":"9","type":"t_uint32"},{"astId":2492,"contract":"contracts/Dealer.sol:Dealer","label":"activeSequencerIds","offset":0,"slot":"10","type":"t_array(t_uint32)dyn_storage"},{"astId":2495,"contract":"contracts/Dealer.sol:Dealer","label":"sumRewards","offset":0,"slot":"11","type":"t_uint256"},{"astId":2498,"contract":"contracts/Dealer.sol:Dealer","label":"l2Gas","offset":0,"slot":"12","type":"t_uint32"},{"astId":2501,"contract":"contracts/Dealer.sol:Dealer","label":"withdrawRewards","offset":4,"slot":"12","type":"t_bool"},{"astId":2503,"contract":"contracts/Dealer.sol:Dealer","label":"sequencerId","offset":0,"slot":"13","type":"t_uint256"},{"astId":2505,"contract":"contracts/Dealer.sol:Dealer","label":"sequencerSigner","offset":0,"slot":"14","type":"t_address"},{"astId":2507,"contract":"contracts/Dealer.sol:Dealer","label":"active","offset":20,"slot":"14","type":"t_bool"},{"astId":2509,"contract":"contracts/Dealer.sol:Dealer","label":"redemptionQueue","offset":0,"slot":"15","type":"t_address"}],"types":{"t_address":{"encoding":"inplace","label":"address","numberOfBytes":"20"},"t_array(t_uint32)dyn_storage":{"base":"t_uint32","encoding":"dynamic_array","label":"uint32[]","numberOfBytes":"32"},"t_bool":{"encoding":"inplace","label":"bool","numberOfBytes":"1"},"t_contract(ICrossDomainMessenger)3199":{"encoding":"inplace","label":"contract ICrossDomainMessenger","numberOfBytes":"20"},"t_contract(IERC20)979":{"encoding":"inplace","label":"contract IERC20","numberOfBytes":"20"},"t_contract(ILockingInfo)3387":{"encoding":"inplace","label":"contract ILockingInfo","numberOfBytes":"20"},"t_contract(ILockingPool)3737":{"encoding":"inplace","label":"contract ILockingPool","numberOfBytes":"20"},"t_mapping(t_uint32,t_address)":{"encoding":"mapping","key":"t_uint32","label":"mapping(uint32 => address)","numberOfBytes":"32","value":"t_address"},"t_uint256":{"encoding":"inplace","label":"uint256","numberOfBytes":"32"},"t_uint32":{"encoding":"inplace","label":"uint32","numberOfBytes":"4"}}},"userdoc":{"events":{"IsSequencerRelocked(bool)":{"notice":"Emits when the sequencer is relocked."},"L2GasSet(uint32,uint32)":{"notice":"Emits when the L2 gas limit is set."},"L2MetisMinted(uint256)":{"notice":"Emits when Metis tokens are minted on Layer 2."},"RewardsWithdrawn(uint256,uint256)":{"notice":"Emits when the rewards are withdrawn."},"SequencerAgentAdded(uint32,address)":{"notice":"Emits when a new sequencer agent is added"},"SequencerAgentTemplateSet(address,address)":{"notice":"Emits when the sequencer agent template is set."},"SequencerInitialBalanceLocked(address,uint256,bool)":{"notice":"Emits when the sequencer initial balance is locked."},"SequencerRelocked(uint32,uint256,uint256)":{"notice":"Emits when additional Metis tokens and rewards are locked for a sequencer."},"SequencerTerminated(address)":{"notice":"Emits when the sequencer is terminated."},"StakingAmountWithdrawn(address,uint256)":{"notice":"Withdaws Metis token and deposits Metis tokens into the redemption queue."},"WithdrawRewardsSet(bool,bool)":{"notice":"Emits when withdrawRewards is set."}},"kind":"user","methods":{"activeSequencerIds(uint256)":{"notice":"The list of active sequencer agent IDs."},"initialize(address,address,address,uint256,uint32,address,address)":{"notice":"Initializes the contract."},"l2ChainId()":{"notice":"The ID of the L2 chain."},"l2Gas()":{"notice":"L2 gas limit."},"l2Minter()":{"notice":"The address of the L2 MetisMinter contract."},"l2RewardDispatcher()":{"notice":"The address of the L2 RewardDispatcher contract."},"lockFor(address,uint256,bytes)":{"notice":"Locks Metis tokens for a new sequencer."},"lockingInfo()":{"notice":"The LockingInfo contract address."},"lockingPool()":{"notice":"The LockingPool contract address."},"messenger()":{"notice":"The L2 messenger contract."},"metis()":{"notice":"The Metis token."},"relock()":{"notice":"Facilitates the process of augmenting the locked Metis tokens and rewards for all currently active sequencers."},"sequencerAgentCount()":{"notice":"The number of sequencer agents."},"sequencerAgentTemplate()":{"notice":"The template contract for sequencer agents."},"sequencerAgents(uint32)":{"notice":"The list of sequencer agents."},"setL2Gas(uint32)":{"notice":"Sets the L2 gas limit."},"sumRewards()":{"notice":"The sum of rewards of all sequencers."},"totalLocked()":{"notice":"Returns the total amount of Metis tokens that have been locked for all sequencers."},"unlock()":{"notice":"Unlock Metis tokens and terminate the sequencer."},"unlockClaim()":{"notice":"The `unlockClaim` function allows a sequencer to claim their Metis tokens after the unlocking waiting period has elapsed."},"withdrawRewards()":{"notice":"withdraw rewards"},"withdrawStakingAmount(uint256)":{"notice":"withdraw locked Metis tokens and deposits them into the redemptionQueue."}},"notice":"The Dealer contract is responsible for the allocation of Metis tokens from Layer 2 to the LockingPool for sequencers, through sequencer agents.","version":1}}}}