{"contracts/Dealer.sol":{"Dealer":{"abi":[{"inputs":[],"name":"InvalidInitialization","type":"error"},{"inputs":[],"name":"NotInitializing","type":"error"},{"inputs":[{"internalType":"address","name":"owner","type":"address"}],"name":"OwnableInvalidOwner","type":"error"},{"inputs":[{"internalType":"address","name":"account","type":"address"}],"name":"OwnableUnauthorizedAccount","type":"error"},{"anonymous":false,"inputs":[{"indexed":false,"internalType":"uint64","name":"version","type":"uint64"}],"name":"Initialized","type":"event"},{"anonymous":false,"inputs":[{"indexed":false,"internalType":"uint32","name":"oldValue","type":"uint32"},{"indexed":false,"internalType":"uint32","name":"newValue","type":"uint32"}],"name":"L2GasSet","type":"event"},{"anonymous":false,"inputs":[{"indexed":false,"internalType":"uint256","name":"amount","type":"uint256"}],"name":"L2MetisMinted","type":"event"},{"anonymous":false,"inputs":[{"indexed":true,"internalType":"address","name":"previousOwner","type":"address"},{"indexed":true,"internalType":"address","name":"newOwner","type":"address"}],"name":"OwnershipTransferred","type":"event"},{"anonymous":false,"inputs":[{"indexed":false,"internalType":"uint32","name":"index","type":"uint32"},{"indexed":false,"internalType":"address","name":"agent","type":"address"}],"name":"SequencerAgentAdded","type":"event"},{"anonymous":false,"inputs":[{"indexed":true,"internalType":"address","name":"oldValue","type":"address"},{"indexed":true,"internalType":"address","name":"newValue","type":"address"}],"name":"SequencerAgentTemplateSet","type":"event"},{"anonymous":false,"inputs":[{"indexed":false,"internalType":"uint32","name":"index","type":"uint32"},{"indexed":false,"internalType":"uint256","name":"amount","type":"uint256"},{"indexed":false,"internalType":"uint256","name":"reward","type":"uint256"}],"name":"SequencerRelocked","type":"event"},{"anonymous":false,"inputs":[{"indexed":false,"internalType":"bool","name":"oldValue","type":"bool"},{"indexed":false,"internalType":"bool","name":"newValue","type":"bool"}],"name":"WithdrawRewardsSet","type":"event"},{"inputs":[],"name":"activeSequencerCount","outputs":[{"internalType":"uint32","name":"","type":"uint32"}],"stateMutability":"view","type":"function"},{"inputs":[{"internalType":"uint256","name":"","type":"uint256"}],"name":"activeSequencerIds","outputs":[{"internalType":"uint32","name":"","type":"uint32"}],"stateMutability":"view","type":"function"},{"inputs":[],"name":"addAgent","outputs":[{"internalType":"uint32","name":"","type":"uint32"}],"stateMutability":"nonpayable","type":"function"},{"inputs":[],"name":"implementation","outputs":[{"internalType":"address","name":"","type":"address"}],"stateMutability":"view","type":"function"},{"inputs":[{"internalType":"address","name":"_metis","type":"address"},{"internalType":"address","name":"_lockingPool","type":"address"},{"internalType":"address","name":"_l1Bridge","type":"address"},{"internalType":"uint256","name":"_l2ChainId","type":"uint256"},{"internalType":"uint32","name":"_l2Gas","type":"uint32"},{"internalType":"address","name":"_l2Minter","type":"address"},{"internalType":"address","name":"_l2RewardDispatcher","type":"address"}],"name":"initialize","outputs":[],"stateMutability":"nonpayable","type":"function"},{"inputs":[],"name":"l2ChainId","outputs":[{"internalType":"uint256","name":"","type":"uint256"}],"stateMutability":"view","type":"function"},{"inputs":[],"name":"l2Gas","outputs":[{"internalType":"uint32","name":"","type":"uint32"}],"stateMutability":"view","type":"function"},{"inputs":[],"name":"l2Minter","outputs":[{"internalType":"address","name":"","type":"address"}],"stateMutability":"view","type":"function"},{"inputs":[],"name":"l2RewardDispatcher","outputs":[{"internalType":"address","name":"","type":"address"}],"stateMutability":"view","type":"function"},{"inputs":[{"internalType":"uint32","name":"agentId","type":"uint32"},{"internalType":"address","name":"sequencerSigner","type":"address"},{"internalType":"uint256","name":"amount","type":"uint256"},{"internalType":"bytes","name":"signerPubKey","type":"bytes"}],"name":"lockFor","outputs":[],"stateMutability":"nonpayable","type":"function"},{"inputs":[],"name":"lockingInfo","outputs":[{"internalType":"contract ILockingInfo","name":"","type":"address"}],"stateMutability":"view","type":"function"},{"inputs":[],"name":"lockingPool","outputs":[{"internalType":"contract ILockingPool","name":"","type":"address"}],"stateMutability":"view","type":"function"},{"inputs":[],"name":"messenger","outputs":[{"internalType":"contract ICrossDomainMessenger","name":"","type":"address"}],"stateMutability":"view","type":"function"},{"inputs":[],"name":"metis","outputs":[{"internalType":"contract IERC20","name":"","type":"address"}],"stateMutability":"view","type":"function"},{"inputs":[],"name":"owner","outputs":[{"internalType":"address","name":"","type":"address"}],"stateMutability":"view","type":"function"},{"inputs":[],"name":"relock","outputs":[{"internalType":"uint256","name":"totalProcessed","type":"uint256"}],"stateMutability":"payable","type":"function"},{"inputs":[],"name":"renounceOwnership","outputs":[],"stateMutability":"nonpayable","type":"function"},{"inputs":[],"name":"sequencerAgentCount","outputs":[{"internalType":"uint32","name":"","type":"uint32"}],"stateMutability":"view","type":"function"},{"inputs":[],"name":"sequencerAgentTemplate","outputs":[{"internalType":"address","name":"","type":"address"}],"stateMutability":"view","type":"function"},{"inputs":[{"internalType":"uint32","name":"","type":"uint32"}],"name":"sequencerAgents","outputs":[{"internalType":"address","name":"","type":"address"}],"stateMutability":"view","type":"function"},{"inputs":[{"internalType":"uint32","name":"agentId","type":"uint32"},{"internalType":"bool","name":"active","type":"bool"}],"name":"setActive","outputs":[],"stateMutability":"nonpayable","type":"function"},{"inputs":[{"internalType":"uint32","name":"_l2Gas","type":"uint32"}],"name":"setL2Gas","outputs":[],"stateMutability":"nonpayable","type":"function"},{"inputs":[{"internalType":"address","name":"_l2GasAddress","type":"address"}],"name":"setL2Minter","outputs":[],"stateMutability":"nonpayable","type":"function"},{"inputs":[{"internalType":"address","name":"_sequencerAgentTemplate","type":"address"}],"name":"setSequencerAgentTemplate","outputs":[],"stateMutability":"nonpayable","type":"function"},{"inputs":[{"internalType":"bool","name":"_withdrawRewards","type":"bool"}],"name":"setWithdrawRewards","outputs":[],"stateMutability":"nonpayable","type":"function"},{"inputs":[],"name":"sumRewards","outputs":[{"internalType":"uint256","name":"","type":"uint256"}],"stateMutability":"view","type":"function"},{"inputs":[],"name":"totalLocked","outputs":[{"internalType":"uint256","name":"","type":"uint256"}],"stateMutability":"view","type":"function"},{"inputs":[{"internalType":"address","name":"newOwner","type":"address"}],"name":"transferOwnership","outputs":[],"stateMutability":"nonpayable","type":"function"},{"inputs":[{"internalType":"uint32","name":"agentId","type":"uint32"}],"name":"unlock","outputs":[],"stateMutability":"payable","type":"function"},{"inputs":[{"internalType":"uint32","name":"agentId","type":"uint32"}],"name":"unlockClaim","outputs":[],"stateMutability":"payable","type":"function"},{"inputs":[],"name":"withdrawRewards","outputs":[{"internalType":"bool","name":"","type":"bool"}],"stateMutability":"view","type":"function"}],"devdoc":{"errors":{"InvalidInitialization()":[{"details":"The contract is already initialized."}],"NotInitializing()":[{"details":"The contract is not initializing."}],"OwnableInvalidOwner(address)":[{"details":"The owner is not a valid owner account. (eg. `address(0)`)"}],"OwnableUnauthorizedAccount(address)":[{"details":"The caller account is not authorized to perform an operation."}]},"events":{"Initialized(uint64)":{"details":"Triggered when the contract has been initialized or reinitialized."},"L2GasSet(uint32,uint32)":{"params":{"oldValue":"The old L2 gas limit.        "}},"L2MetisMinted(uint256)":{"params":{"amount":"The amount of Metis tokens that have been minted."}},"SequencerAgentAdded(uint32,address)":{"params":{"agent":"address of the agent","index":"index of the agent"}},"SequencerAgentTemplateSet(address,address)":{"params":{"newValue":"The address of the new sequencer agent template.","oldValue":"The address of the old sequencer agent template."}},"SequencerRelocked(uint32,uint256,uint256)":{"params":{"amount":"The amount of Metis tokens that have been added to the lock.","index":"The index of the sequencer agent in the sequencer list.","reward":"The amount of additional rewards that have been locked."}},"WithdrawRewardsSet(bool,bool)":{"params":{"newValue":"The new withdrawRewards.","oldValue":"The old withdrawRewards."}}},"kind":"dev","methods":{"activeSequencerCount()":{"returns":{"_0":"The number of active sequencers."}},"addAgent()":{"returns":{"_0":"The index of the new sequencer agent."}},"implementation()":{"returns":{"_0":"The implementation address"}},"lockFor(uint32,address,uint256,bytes)":{"params":{"agentId":"The index of the sequencer agent.","amount":"The amount of Metis tokens to lock.","sequencerSigner":"The address of the sequencer signer.","signerPubKey":"The public key of the sequencer signer."}},"owner()":{"details":"Returns the address of the current owner."},"relock()":{"details":"The `relock` function will transfer Metis tokens from the Dealer contract to the sequencer agent contract, and then call the `relock` function on the sequencer agent contract.","returns":{"totalProcessed":"The total amount of Metis tokens and rewards that have been relocked."}},"renounceOwnership()":{"details":"Leaves the contract without owner. It will not be possible to call `onlyOwner` functions. Can only be called by the current owner. NOTE: Renouncing ownership will leave the contract without an owner, thereby disabling any functionality that is only available to the owner."},"setL2Gas(uint32)":{"details":"The L2 gas limit is used when minting eMetis tokens on Layer 2.","params":{"_l2Gas":"The new L2 gas limit."}},"setSequencerAgentTemplate(address)":{"params":{"_sequencerAgentTemplate":"The address of the new sequencer agent template."}},"setWithdrawRewards(bool)":{"params":{"_withdrawRewards":"The new value of the withdrawRewards flag."}},"transferOwnership(address)":{"details":"Transfers ownership of the contract to a new account (`newOwner`). Can only be called by the current owner."},"unlock(uint32)":{"params":{"agentId":"The index of the sequencer agent."}},"unlockClaim(uint32)":{"params":{"agentId":"The index of the sequencer agent."}}},"title":"Dealer","version":1},"evm":{"bytecode":{"linkReferences":{},"object":"608060405234801561001057600080fd5b50613fe3806100206000396000f3fe608060405260043610620002065760003560e01c80638da5cb5b116200011b578063e597455411620000a3578063efa412d0116200006d578063efa412d014620006f5578063f2fde38b1462000723578063f7cee36a1462000751578063f87b7a3e14620007815762000206565b8063e59745541462000639578063e92d61e51462000669578063e956eaf11462000699578063eb2c579814620006c75762000206565b8063b699ce5f11620000e5578063b699ce5f1462000589578063c53b573d14620005b7578063c7b8981c14620005d9578063d6ae3cd514620006095762000206565b80638da5cb5b14620004cb5780638db8ad8814620004fb5780639e935704146200052b578063af372db7146200055b5762000206565b80633cbb6979116200019f57806367d93c81116200016957806367d93c811462000431578063715018a614620004515780637ca4f8b0146200046b57806385d1e2b8146200049b5762000206565b80633cbb6979146200035d578063457cb586146200038d5780635689141214620003d15780635c60da1b14620004015762000206565b80631abdaf6a11620001e15780631abdaf6a146200028b57806333bec7e714620002cf57806335cd359914620002fd5780633cb747bf146200032d5762000206565b8063080e1e4e146200020b5780631152eb41146200023b5780631221e6a5146200026b575b600080fd5b3480156200021857600080fd5b5062000223620007af565b604051620002329190620026ab565b60405180910390f35b3480156200024857600080fd5b5062000253620007d5565b604051620002629190620026e9565b60405180910390f35b6200028960048036038101906200028391906200274b565b620007e2565b005b3480156200029857600080fd5b50620002b76004803603810190620002b19190620027b8565b620008af565b604051620002c69190620026e9565b60405180910390f35b348015620002dc57600080fd5b50620002fb6004803603810190620002f591906200274b565b620008ea565b005b3480156200030a57600080fd5b50620003156200096b565b604051620003249190620026e9565b60405180910390f35b3480156200033a57600080fd5b506200034562000b9a565b60405162000354919062002855565b60405180910390f35b3480156200036a57600080fd5b506200037562000bc0565b604051620003849190620026e9565b60405180910390f35b3480156200039a57600080fd5b50620003b96004803603810190620003b391906200274b565b62000bd6565b604051620003c89190620026ab565b60405180910390f35b348015620003de57600080fd5b50620003e962000c09565b604051620003f8919062002883565b60405180910390f35b3480156200040e57600080fd5b506200041962000d5e565b604051620004289190620026ab565b60405180910390f35b6200044f60048036038101906200044991906200274b565b62000d87565b005b3480156200045e57600080fd5b506200046962000e60565b005b3480156200047857600080fd5b506200048362000e78565b60405162000492919062002883565b60405180910390f35b348015620004a857600080fd5b50620004b362000e7e565b604051620004c29190620028c5565b60405180910390f35b348015620004d857600080fd5b50620004e362000ea4565b604051620004f29190620026ab565b60405180910390f35b3480156200050857600080fd5b506200051362000ede565b604051620005229190620026ab565b60405180910390f35b3480156200053857600080fd5b506200054362000f02565b604051620005529190620026e9565b60405180910390f35b3480156200056857600080fd5b5062000587600480360381019062000581919062002a75565b62000f18565b005b3480156200059657600080fd5b50620005b56004803603810190620005af919062002b06565b620010b9565b005b620005c162001667565b604051620005d0919062002883565b60405180910390f35b348015620005e657600080fd5b50620005f162001c28565b60405162000600919062002bd6565b60405180910390f35b3480156200061657600080fd5b506200062162001c3b565b60405162000630919062002883565b60405180910390f35b3480156200064657600080fd5b506200065162001c41565b60405162000660919062002c18565b60405180910390f35b3480156200067657600080fd5b506200068162001c67565b604051620006909190620026ab565b60405180910390f35b348015620006a657600080fd5b50620006c56004803603810190620006bf919062002c66565b62001c8d565b005b348015620006d457600080fd5b50620006f36004803603810190620006ed919062002cad565b62001ca7565b005b3480156200070257600080fd5b506200072160048036038101906200071b919062002cdf565b62001d66565b005b3480156200073057600080fd5b506200074f600480360381019062000749919062002cad565b62001ddd565b005b3480156200075e57600080fd5b506200076962001e6a565b60405162000778919062002d36565b60405180910390f35b3480156200078e57600080fd5b50620007ad6004803603810190620007a7919062002cad565b62001e90565b005b600660009054906101000a900473ffffffffffffffffffffffffffffffffffffffff1681565b6000600a80549050905090565b620007ec62001ed4565b600860008263ffffffff1663ffffffff16815260200190815260200160002060009054906101000a900473ffffffffffffffffffffffffffffffffffffffff1673ffffffffffffffffffffffffffffffffffffffff16631221e6a5600c60009054906101000a900463ffffffff166040518263ffffffff1660e01b8152600401620008789190620026e9565b600060405180830381600087803b1580156200089357600080fd5b505af1158015620008a8573d6000803e3d6000fd5b5050505050565b600a8181548110620008c057600080fd5b9060005260206000209060089182820401919006600402915054906101000a900463ffffffff1681565b620008f462001ed4565b6000600c60009054906101000a900463ffffffff16905081600c60006101000a81548163ffffffff021916908363ffffffff1602179055507f4042b09a75e5a67c8cc2a57e00de6d29fb5202b7207afba895eb8b5cc3e2179e81836040516200095f92919062002d53565b60405180910390a15050565b60006200097762001ed4565b600063f8c8765e60e01b30600260009054906101000a900473ffffffffffffffffffffffffffffffffffffffff16600360009054906101000a900473ffffffffffffffffffffffffffffffffffffffff16600160009054906101000a900473ffffffffffffffffffffffffffffffffffffffff1660405160240162000a00949392919062002d80565b604051602081830303815290604052907bffffffffffffffffffffffffffffffffffffffffffffffffffffffff19166020820180517bffffffffffffffffffffffffffffffffffffffffffffffffffffffff838183161783525050505090506000308260405162000a719062002658565b62000a7e92919062002e56565b604051809103906000f08015801562000a9b573d6000803e3d6000fd5b5090506000600960009054906101000a900463ffffffff16905081600860008363ffffffff1663ffffffff16815260200190815260200160002060006101000a81548173ffffffffffffffffffffffffffffffffffffffff021916908373ffffffffffffffffffffffffffffffffffffffff1602179055507ffcdf0e51b92207a6c5cfa485e975b62686da57da9499feafd12185ee26a860d9818360405162000b4692919062002e8a565b60405180910390a16009600081819054906101000a900463ffffffff168092919062000b729062002ee6565b91906101000a81548163ffffffff021916908363ffffffff1602179055505080935050505090565b600460009054906101000a900473ffffffffffffffffffffffffffffffffffffffff1681565b600c60009054906101000a900463ffffffff1681565b60086020528060005260406000206000915054906101000a900473ffffffffffffffffffffffffffffffffffffffff1681565b6000806000905060005b600a805490508163ffffffff16101562000d56576000600a8263ffffffff168154811062000c465762000c4562002f17565b5b90600052602060002090600891828204019190066004029054906101000a900463ffffffff1690506000600860008363ffffffff1663ffffffff16815260200190815260200160002060009054906101000a900473ffffffffffffffffffffffffffffffffffffffff16905060008173ffffffffffffffffffffffffffffffffffffffff166376d9f95c6040518163ffffffff1660e01b815260040161014060405180830381865afa15801562000d01573d6000803e3d6000fd5b505050506040513d601f19601f8201168201806040525081019062000d27919062003088565b600001519050808562000d3b9190620030bb565b9450505050808062000d4d9062002ee6565b91505062000c13565b508091505090565b60008060009054906101000a900473ffffffffffffffffffffffffffffffffffffffff16905090565b62000d9162001ed4565b600860008263ffffffff1663ffffffff16815260200190815260200160002060009054906101000a900473ffffffffffffffffffffffffffffffffffffffff1673ffffffffffffffffffffffffffffffffffffffff166367d93c81600c60009054906101000a900463ffffffff166040518263ffffffff1660e01b815260040162000e1d9190620026e9565b600060405180830381600087803b15801562000e3857600080fd5b505af115801562000e4d573d6000803e3d6000fd5b5050505062000e5c8162001f64565b5050565b62000e6a62001ed4565b62000e766000620020ae565b565b600b5481565b600260009054906101000a900473ffffffffffffffffffffffffffffffffffffffff1681565b60008062000eb162002187565b90508060000160009054906101000a900473ffffffffffffffffffffffffffffffffffffffff1691505090565b60008054906101000a900473ffffffffffffffffffffffffffffffffffffffff1681565b600960009054906101000a900463ffffffff1681565b62000f2262001ed4565b6000600860008663ffffffff1663ffffffff16815260200190815260200160002060009054906101000a900473ffffffffffffffffffffffffffffffffffffffff169050600160009054906101000a900473ffffffffffffffffffffffffffffffffffffffff1673ffffffffffffffffffffffffffffffffffffffff166323b872dd3383866040518463ffffffff1660e01b815260040162000fc793929190620030f6565b6020604051808303816000875af115801562000fe7573d6000803e3d6000fd5b505050506040513d601f19601f820116820180604052508101906200100d91906200314a565b508073ffffffffffffffffffffffffffffffffffffffff1663ce6df54a85600660009054906101000a900473ffffffffffffffffffffffffffffffffffffffff1686866040518563ffffffff1660e01b81526004016200107194939291906200317c565b600060405180830381600087803b1580156200108c57600080fd5b505af1158015620010a1573d6000803e3d6000fd5b50505050620010b2856001620021af565b5050505050565b6000620010c5620022dc565b905060008160000160089054906101000a900460ff1615905060008260000160009054906101000a900467ffffffffffffffff1690506000808267ffffffffffffffff16148015620011145750825b9050600060018367ffffffffffffffff161480156200114a575060003073ffffffffffffffffffffffffffffffffffffffff163b145b90508115801562001159575080155b1562001191576040517ff92ee8a900000000000000000000000000000000000000000000000000000000815260040160405180910390fd5b60018560000160006101000a81548167ffffffffffffffff021916908367ffffffffffffffff1602179055508315620011e25760018560000160086101000a81548160ff0219169083151502179055505b600073ffffffffffffffffffffffffffffffffffffffff168c73ffffffffffffffffffffffffffffffffffffffff16141580156200124d5750600073ffffffffffffffffffffffffffffffffffffffff168b73ffffffffffffffffffffffffffffffffffffffff1614155b8015620012875750600073ffffffffffffffffffffffffffffffffffffffff168a73ffffffffffffffffffffffffffffffffffffffff1614155b8015620012c15750600073ffffffffffffffffffffffffffffffffffffffff168773ffffffffffffffffffffffffffffffffffffffff1614155b8015620012fb5750600073ffffffffffffffffffffffffffffffffffffffff168673ffffffffffffffffffffffffffffffffffffffff1614155b6200133d576040517f08c379a0000000000000000000000000000000000000000000000000000000008152600401620013349062003231565b60405180910390fd5b620013483362002304565b8b600160006101000a81548173ffffffffffffffffffffffffffffffffffffffff021916908373ffffffffffffffffffffffffffffffffffffffff1602179055508a600260006101000a81548173ffffffffffffffffffffffffffffffffffffffff021916908373ffffffffffffffffffffffffffffffffffffffff160217905550600260009054906101000a900473ffffffffffffffffffffffffffffffffffffffff1673ffffffffffffffffffffffffffffffffffffffff1663e2fdcc176040518163ffffffff1660e01b8152600401602060405180830381865afa15801562001438573d6000803e3d6000fd5b505050506040513d601f19601f820116820180604052508101906200145e919062003298565b600360006101000a81548173ffffffffffffffffffffffffffffffffffffffff021916908373ffffffffffffffffffffffffffffffffffffffff1602179055508973ffffffffffffffffffffffffffffffffffffffff16633cb747bf6040518163ffffffff1660e01b8152600401602060405180830381865afa158015620014ea573d6000803e3d6000fd5b505050506040513d601f19601f82011682018060405250810190620015109190620032ca565b600460006101000a81548173ffffffffffffffffffffffffffffffffffffffff021916908373ffffffffffffffffffffffffffffffffffffffff1602179055508860058190555087600c60006101000a81548163ffffffff021916908363ffffffff16021790555086600660006101000a81548173ffffffffffffffffffffffffffffffffffffffff021916908373ffffffffffffffffffffffffffffffffffffffff16021790555085600760006101000a81548173ffffffffffffffffffffffffffffffffffffffff021916908373ffffffffffffffffffffffffffffffffffffffff1602179055508315620016595760008560000160086101000a81548160ff0219169083151502179055507fc7f505b2f371ae2175ee4913f4499e1f2633a7b5936321eed1cdaeb6115181d2600160405162001650919062003353565b60405180910390a15b505050505050505050505050565b600080600a8054905011620016b3576040517f08c379a0000000000000000000000000000000000000000000000000000000008152600401620016aa90620033c0565b60405180910390fd5b6000600360009054906101000a900473ffffffffffffffffffffffffffffffffffffffff1673ffffffffffffffffffffffffffffffffffffffff16636c0b3e466040518163ffffffff1660e01b8152600401602060405180830381865afa15801562001723573d6000803e3d6000fd5b505050506040513d601f19601f82011682018060405250810190620017499190620033e2565b90506000600160009054906101000a900473ffffffffffffffffffffffffffffffffffffffff1673ffffffffffffffffffffffffffffffffffffffff166370a08231306040518263ffffffff1660e01b8152600401620017aa9190620026ab565b602060405180830381865afa158015620017c8573d6000803e3d6000fd5b505050506040513d601f19601f82011682018060405250810190620017ee9190620033e2565b90506000805b600a805490508163ffffffff16101562001bf0576000600a8263ffffffff168154811062001827576200182662002f17565b5b90600052602060002090600891828204019190066004029054906101000a900463ffffffff1690506000600860008363ffffffff1663ffffffff16815260200190815260200160002060009054906101000a900473ffffffffffffffffffffffffffffffffffffffff16905060008173ffffffffffffffffffffffffffffffffffffffff166376d9f95c6040518163ffffffff1660e01b815260040161014060405180830381865afa158015620018e2573d6000803e3d6000fd5b505050506040513d601f19601f8201168201806040525081019062001908919062003088565b905060008082602001518360000151915091508187620019299190620030bb565b965060008982106200193d5760006200194c565b818a6200194b919062003414565b5b905060006200195c828b6200231c565b9050808a6200196c919062003414565b9950600084826200197e9190620030bb565b9050600081036200199757505050505050505062001bda565b808d620019a59190620030bb565b9c506000600c60049054906101000a900460ff1680620019d157508c8286620019cf9190620030bb565b115b9050808015620019e15750600086115b1562001a69578773ffffffffffffffffffffffffffffffffffffffff166356387b91600c60009054906101000a900463ffffffff166040518263ffffffff1660e01b815260040162001a349190620026e9565b600060405180830381600087803b15801562001a4f57600080fd5b505af115801562001a64573d6000803e3d6000fd5b505050505b80158062001a775750600083115b1562001bd057600160009054906101000a900473ffffffffffffffffffffffffffffffffffffffff1673ffffffffffffffffffffffffffffffffffffffff1663a9059cbb89856040518363ffffffff1660e01b815260040162001adc9291906200344f565b6020604051808303816000875af115801562001afc573d6000803e3d6000fd5b505050506040513d601f19601f8201168201806040525081019062001b2291906200314a565b508773ffffffffffffffffffffffffffffffffffffffff1663a98d38f0846040518263ffffffff1660e01b815260040162001b5e919062002883565b600060405180830381600087803b15801562001b7957600080fd5b505af115801562001b8e573d6000803e3d6000fd5b505050507fb8aafdec9bacdc76bfea3c330063c391a2904d4f91e71f97a91534f3c8ce4ab589848860405162001bc7939291906200347c565b60405180910390a15b5050505050505050505b808062001be79062002ee6565b915050620017f4565b50600081111562001c225762001c068162002337565b80600b600082825462001c1a9190620030bb565b925050819055505b50505090565b600c60049054906101000a900460ff1681565b60055481565b600160009054906101000a900473ffffffffffffffffffffffffffffffffffffffff1681565b600760009054906101000a900473ffffffffffffffffffffffffffffffffffffffff1681565b62001c9762001ed4565b62001ca38282620021af565b5050565b62001cb162001ed4565b600073ffffffffffffffffffffffffffffffffffffffff168173ffffffffffffffffffffffffffffffffffffffff160362001d23576040517f08c379a000000000000000000000000000000000000000000000000000000000815260040162001d1a9062003231565b60405180910390fd5b806000806101000a81548173ffffffffffffffffffffffffffffffffffffffff021916908373ffffffffffffffffffffffffffffffffffffffff16021790555050565b62001d7062001ed4565b6000600c60049054906101000a900460ff16905081600c60046101000a81548160ff0219169083151502179055507fba50596d5d8d3fffda559f307b84b1b0bdba201192d70b393820eab501346b1e818360405162001dd1929190620034b9565b60405180910390a15050565b62001de762001ed4565b600073ffffffffffffffffffffffffffffffffffffffff168173ffffffffffffffffffffffffffffffffffffffff160362001e5c5760006040517f1e4fbdf700000000000000000000000000000000000000000000000000000000815260040162001e539190620026ab565b60405180910390fd5b62001e6781620020ae565b50565b600360009054906101000a900473ffffffffffffffffffffffffffffffffffffffff1681565b80600660006101000a81548173ffffffffffffffffffffffffffffffffffffffff021916908373ffffffffffffffffffffffffffffffffffffffff16021790555050565b62001ede620024be565b73ffffffffffffffffffffffffffffffffffffffff1662001efe62000ea4565b73ffffffffffffffffffffffffffffffffffffffff161462001f625762001f24620024be565b6040517f118cdaa700000000000000000000000000000000000000000000000000000000815260040162001f599190620026ab565b60405180910390fd5b565b600062001f7182620024c6565b905063ffffffff80168163ffffffff161062001fc4576040517f08c379a000000000000000000000000000000000000000000000000000000000815260040162001fbb9062003536565b60405180910390fd5b600a6001600a8054905062001fda919062003414565b8154811062001fee5762001fed62002f17565b5b90600052602060002090600891828204019190066004029054906101000a900463ffffffff16600a8263ffffffff168154811062002031576200203062002f17565b5b90600052602060002090600891828204019190066004026101000a81548163ffffffff021916908363ffffffff160217905550600a80548062002079576200207862003558565b5b60019003818190600052602060002090600891828204019190066004026101000a81549063ffffffff02191690559055919050565b6000620020ba62002187565b905060008160000160009054906101000a900473ffffffffffffffffffffffffffffffffffffffff169050828260000160006101000a81548173ffffffffffffffffffffffffffffffffffffffff021916908373ffffffffffffffffffffffffffffffffffffffff1602179055508273ffffffffffffffffffffffffffffffffffffffff168173ffffffffffffffffffffffffffffffffffffffff167f8be0079c531659141344cd1fd0a4f28419497f9722a3daafe3b4186f6b6457e060405160405180910390a3505050565b60007f9016d09d72d40fdae2fd8ceac6b6234c7706214fd39c1cd1e609a0528c199300905090565b8015620022cb5760005b600a805490508163ffffffff16101562002276578263ffffffff16600a8263ffffffff1681548110620021f157620021f062002f17565b5b90600052602060002090600891828204019190066004029054906101000a900463ffffffff1663ffffffff160362002260576040517f08c379a00000000000000000000000000000000000000000000000000000000081526004016200225790620035d7565b60405180910390fd5b80806200226d9062002ee6565b915050620021b9565b50600a8290806001815401808255809150506001900390600052602060002090600891828204019190066004029091909190916101000a81548163ffffffff021916908363ffffffff160217905550620022d8565b620022d68262001f64565b505b5050565b60007ff0c57e16840df040f15088dc2f81fe391c3923bec73e23a9662efc9c229c6a00905090565b6200230e62002566565b6200231981620025a9565b50565b60008183106200232d57816200232f565b825b905092915050565b600063eb82afb360e01b8260405160240162002354919062002883565b604051602081830303815290604052907bffffffffffffffffffffffffffffffffffffffffffffffffffffffff19166020820180517bffffffffffffffffffffffffffffffffffffffffffffffffffffffff83818316178352505050509050600460009054906101000a900473ffffffffffffffffffffffffffffffffffffffff1673ffffffffffffffffffffffffffffffffffffffff166344dd5ed634600554600660009054906101000a900473ffffffffffffffffffffffffffffffffffffffff1685600c60009054906101000a900463ffffffff166040518663ffffffff1660e01b81526004016200244d9493929190620035f9565b6000604051808303818588803b1580156200246757600080fd5b505af11580156200247c573d6000803e3d6000fd5b50505050507fd644e527c1896057ce642adfbc00f04d6b23d4c2fb30529522184d151dc087dc82604051620024b2919062002883565b60405180910390a15050565b600033905090565b600080600090505b600a805490508163ffffffff16101562002558578263ffffffff16600a8263ffffffff168154811062002506576200250562002f17565b5b90600052602060002090600891828204019190066004029054906101000a900463ffffffff1663ffffffff160362002542578091505062002561565b80806200254f9062002ee6565b915050620024ce565b5063ffffffff90505b919050565b6200257062002636565b620025a7576040517fd7e6bcf800000000000000000000000000000000000000000000000000000000815260040160405180910390fd5b565b620025b362002566565b600073ffffffffffffffffffffffffffffffffffffffff168173ffffffffffffffffffffffffffffffffffffffff1603620026285760006040517f1e4fbdf70000000000000000000000000000000000000000000000000000000081526004016200261f9190620026ab565b60405180910390fd5b6200263381620020ae565b50565b600062002642620022dc565b60000160089054906101000a900460ff16905090565b610960806200364e83390190565b600073ffffffffffffffffffffffffffffffffffffffff82169050919050565b6000620026938262002666565b9050919050565b620026a58162002686565b82525050565b6000602082019050620026c260008301846200269a565b92915050565b600063ffffffff82169050919050565b620026e381620026c8565b82525050565b6000602082019050620027006000830184620026d8565b92915050565b6000604051905090565b600080fd5b600080fd5b6200272581620026c8565b81146200273157600080fd5b50565b60008135905062002745816200271a565b92915050565b60006020828403121562002764576200276362002710565b5b6000620027748482850162002734565b91505092915050565b6000819050919050565b62002792816200277d565b81146200279e57600080fd5b50565b600081359050620027b28162002787565b92915050565b600060208284031215620027d157620027d062002710565b5b6000620027e184828501620027a1565b91505092915050565b6000819050919050565b6000620028156200280f620028098462002666565b620027ea565b62002666565b9050919050565b60006200282982620027f4565b9050919050565b60006200283d826200281c565b9050919050565b6200284f8162002830565b82525050565b60006020820190506200286c600083018462002844565b92915050565b6200287d816200277d565b82525050565b60006020820190506200289a600083018462002872565b92915050565b6000620028ad826200281c565b9050919050565b620028bf81620028a0565b82525050565b6000602082019050620028dc6000830184620028b4565b92915050565b620028ed8162002686565b8114620028f957600080fd5b50565b6000813590506200290d81620028e2565b92915050565b600080fd5b600080fd5b6000601f19601f8301169050919050565b7f4e487b7100000000000000000000000000000000000000000000000000000000600052604160045260246000fd5b62002968826200291d565b810181811067ffffffffffffffff821117156200298a57620029896200292e565b5b80604052505050565b60006200299f62002706565b9050620029ad82826200295d565b919050565b600067ffffffffffffffff821115620029d057620029cf6200292e565b5b620029db826200291d565b9050602081019050919050565b82818337600083830152505050565b600062002a0e62002a0884620029b2565b62002993565b90508281526020810184848401111562002a2d5762002a2c62002918565b5b62002a3a848285620029e8565b509392505050565b600082601f83011262002a5a5762002a5962002913565b5b813562002a6c848260208601620029f7565b91505092915050565b6000806000806080858703121562002a925762002a9162002710565b5b600062002aa28782880162002734565b945050602062002ab587828801620028fc565b935050604062002ac887828801620027a1565b925050606085013567ffffffffffffffff81111562002aec5762002aeb62002715565b5b62002afa8782880162002a42565b91505092959194509250565b600080600080600080600060e0888a03121562002b285762002b2762002710565b5b600062002b388a828b01620028fc565b975050602062002b4b8a828b01620028fc565b965050604062002b5e8a828b01620028fc565b955050606062002b718a828b01620027a1565b945050608062002b848a828b0162002734565b93505060a062002b978a828b01620028fc565b92505060c062002baa8a828b01620028fc565b91505092959891949750929550565b60008115159050919050565b62002bd08162002bb9565b82525050565b600060208201905062002bed600083018462002bc5565b92915050565b600062002c00826200281c565b9050919050565b62002c128162002bf3565b82525050565b600060208201905062002c2f600083018462002c07565b92915050565b62002c408162002bb9565b811462002c4c57600080fd5b50565b60008135905062002c608162002c35565b92915050565b6000806040838503121562002c805762002c7f62002710565b5b600062002c908582860162002734565b925050602062002ca38582860162002c4f565b9150509250929050565b60006020828403121562002cc65762002cc562002710565b5b600062002cd684828501620028fc565b91505092915050565b60006020828403121562002cf85762002cf762002710565b5b600062002d088482850162002c4f565b91505092915050565b600062002d1e826200281c565b9050919050565b62002d308162002d11565b82525050565b600060208201905062002d4d600083018462002d25565b92915050565b600060408201905062002d6a6000830185620026d8565b62002d796020830184620026d8565b9392505050565b600060808201905062002d9760008301876200269a565b62002da66020830186620028b4565b62002db5604083018562002d25565b62002dc460608301846200269a565b95945050505050565b600081519050919050565b600082825260208201905092915050565b60005b8381101562002e0957808201518184015260208101905062002dec565b60008484015250505050565b600062002e228262002dcd565b62002e2e818562002dd8565b935062002e4081856020860162002de9565b62002e4b816200291d565b840191505092915050565b600060408201905062002e6d60008301856200269a565b818103602083015262002e81818462002e15565b90509392505050565b600060408201905062002ea16000830185620026d8565b62002eb060208301846200269a565b9392505050565b7f4e487b7100000000000000000000000000000000000000000000000000000000600052601160045260246000fd5b600062002ef382620026c8565b915063ffffffff820362002f0c5762002f0b62002eb7565b5b600182019050919050565b7f4e487b7100000000000000000000000000000000000000000000000000000000600052603260045260246000fd5b600080fd5b60008151905062002f5c8162002787565b92915050565b60008151905062002f7381620028e2565b92915050565b6000610140828403121562002f935762002f9262002f46565b5b62002fa061014062002993565b9050600062002fb28482850162002f4b565b600083015250602062002fc88482850162002f4b565b602083015250604062002fde8482850162002f4b565b604083015250606062002ff48482850162002f4b565b60608301525060806200300a8482850162002f4b565b60808301525060a0620030208482850162002f4b565b60a08301525060c0620030368482850162002f4b565b60c08301525060e06200304c8482850162002f4b565b60e083015250610100620030638482850162002f62565b610100830152506101206200307b8482850162002f62565b6101208301525092915050565b60006101408284031215620030a257620030a162002710565b5b6000620030b28482850162002f79565b91505092915050565b6000620030c8826200277d565b9150620030d5836200277d565b9250828201905080821115620030f057620030ef62002eb7565b5b92915050565b60006060820190506200310d60008301866200269a565b6200311c60208301856200269a565b6200312b604083018462002872565b949350505050565b600081519050620031448162002c35565b92915050565b60006020828403121562003163576200316262002710565b5b6000620031738482850162003133565b91505092915050565b60006080820190506200319360008301876200269a565b620031a260208301866200269a565b620031b1604083018562002872565b8181036060830152620031c5818462002e15565b905095945050505050565b600082825260208201905092915050565b7f4465616c65723a207a65726f2061646472657373000000000000000000000000600082015250565b600062003219601483620031d0565b91506200322682620031e1565b602082019050919050565b600060208201905081810360008301526200324c816200320a565b9050919050565b6000620032608262002686565b9050919050565b620032728162003253565b81146200327e57600080fd5b50565b600081519050620032928162003267565b92915050565b600060208284031215620032b157620032b062002710565b5b6000620032c18482850162003281565b91505092915050565b600060208284031215620032e357620032e262002710565b5b6000620032f38482850162002f62565b91505092915050565b6000819050919050565b600067ffffffffffffffff82169050919050565b60006200333b620033356200332f84620032fc565b620027ea565b62003306565b9050919050565b6200334d816200331a565b82525050565b60006020820190506200336a600083018462003342565b92915050565b7f4465616c65723a206e6f206163746976652073657175656e6365720000000000600082015250565b6000620033a8601b83620031d0565b9150620033b58262003370565b602082019050919050565b60006020820190508181036000830152620033db8162003399565b9050919050565b600060208284031215620033fb57620033fa62002710565b5b60006200340b8482850162002f4b565b91505092915050565b600062003421826200277d565b91506200342e836200277d565b925082820390508181111562003449576200344862002eb7565b5b92915050565b60006040820190506200346660008301856200269a565b62003475602083018462002872565b9392505050565b6000606082019050620034936000830186620026d8565b620034a2602083018562002872565b620034b1604083018462002872565b949350505050565b6000604082019050620034d0600083018562002bc5565b620034df602083018462002bc5565b9392505050565b7f4465616c65723a206e6f74206163746976650000000000000000000000000000600082015250565b60006200351e601283620031d0565b91506200352b82620034e6565b602082019050919050565b6000602082019050818103600083015262003551816200350f565b9050919050565b7f4e487b7100000000000000000000000000000000000000000000000000000000600052603160045260246000fd5b7f4465616c65723a20616c72656164792061637469766500000000000000000000600082015250565b6000620035bf601683620031d0565b9150620035cc8262003587565b602082019050919050565b60006020820190508181036000830152620035f281620035b0565b9050919050565b600060808201905062003610600083018762002872565b6200361f60208301866200269a565b818103604083015262003633818562002e15565b9050620036446060830184620026d8565b9594505050505056fe60a060405260405161096038038061096083398181016040528101906100259190610684565b610035828261007060201b60201c565b8173ffffffffffffffffffffffffffffffffffffffff1660808173ffffffffffffffffffffffffffffffffffffffff16815250505050610795565b61007f8261016360201b60201c565b8173ffffffffffffffffffffffffffffffffffffffff167f1cf3b03a6cf19fa2baba4df148e9dcabedea7f8a5c07840e207e5c089be95d3e60405160405180910390a26000815111156101505761014a8273ffffffffffffffffffffffffffffffffffffffff16635c60da1b6040518163ffffffff1660e01b8152600401602060405180830381865afa15801561011a573d6000803e3d6000fd5b505050506040513d601f19601f8201168201806040525081019061013e91906106e0565b8261030660201b60201c565b5061015f565b61015e61039060201b60201c565b5b5050565b60008173ffffffffffffffffffffffffffffffffffffffff163b036101bf57806040517f64ced0ec0000000000000000000000000000000000000000000000000000000081526004016101b6919061071c565b60405180910390fd5b806101f27fa3f0ad74e5423aebfd80d3ef4346578335a9a72aeaee59ff6cb3582b35133d5060001b6103cd60201b60201c565b60000160006101000a81548173ffffffffffffffffffffffffffffffffffffffff021916908373ffffffffffffffffffffffffffffffffffffffff16021790555060008173ffffffffffffffffffffffffffffffffffffffff16635c60da1b6040518163ffffffff1660e01b8152600401602060405180830381865afa158015610280573d6000803e3d6000fd5b505050506040513d601f19601f820116820180604052508101906102a491906106e0565b905060008173ffffffffffffffffffffffffffffffffffffffff163b0361030257806040517f4c9c8ce30000000000000000000000000000000000000000000000000000000081526004016102f9919061071c565b60405180910390fd5b5050565b60606000808473ffffffffffffffffffffffffffffffffffffffff1684604051610330919061077e565b600060405180830381855af49150503d806000811461036b576040519150601f19603f3d011682016040523d82523d6000602084013e610370565b606091505b50915091506103868583836103d760201b60201c565b9250505092915050565b60003411156103cb576040517fb398979f00000000000000000000000000000000000000000000000000000000815260040160405180910390fd5b565b6000819050919050565b6060826103f2576103ed8261046c60201b60201c565b610464565b6000825114801561041a575060008473ffffffffffffffffffffffffffffffffffffffff163b145b1561045c57836040517f9996b315000000000000000000000000000000000000000000000000000000008152600401610453919061071c565b60405180910390fd5b819050610465565b5b9392505050565b60008151111561047f5780518082602001fd5b6040517f1425ea4200000000000000000000000000000000000000000000000000000000815260040160405180910390fd5b6000604051905090565b600080fd5b600080fd5b600073ffffffffffffffffffffffffffffffffffffffff82169050919050565b60006104f0826104c5565b9050919050565b610500816104e5565b811461050b57600080fd5b50565b60008151905061051d816104f7565b92915050565b600080fd5b600080fd5b6000601f19601f8301169050919050565b7f4e487b7100000000000000000000000000000000000000000000000000000000600052604160045260246000fd5b6105768261052d565b810181811067ffffffffffffffff821117156105955761059461053e565b5b80604052505050565b60006105a86104b1565b90506105b4828261056d565b919050565b600067ffffffffffffffff8211156105d4576105d361053e565b5b6105dd8261052d565b9050602081019050919050565b60005b838110156106085780820151818401526020810190506105ed565b60008484015250505050565b6000610627610622846105b9565b61059e565b90508281526020810184848401111561064357610642610528565b5b61064e8482856105ea565b509392505050565b600082601f83011261066b5761066a610523565b5b815161067b848260208601610614565b91505092915050565b6000806040838503121561069b5761069a6104bb565b5b60006106a98582860161050e565b925050602083015167ffffffffffffffff8111156106ca576106c96104c0565b5b6106d685828601610656565b9150509250929050565b6000602082840312156106f6576106f56104bb565b5b60006107048482850161050e565b91505092915050565b610716816104e5565b82525050565b6000602082019050610731600083018461070d565b92915050565b600081519050919050565b600081905092915050565b600061075882610737565b6107628185610742565b93506107728185602086016105ea565b80840191505092915050565b600061078a828461074d565b915081905092915050565b6080516101b16107af600039600060c701526101b16000f3fe608060405261000c61000e565b005b61001e610019610020565b61009d565b565b600061002a6100c3565b73ffffffffffffffffffffffffffffffffffffffff16635c60da1b6040518163ffffffff1660e01b8152600401602060405180830381865afa158015610074573d6000803e3d6000fd5b505050506040513d601f19601f82011682018060405250810190610098919061014e565b905090565b3660008037600080366000845af43d6000803e80600081146100be573d6000f35b3d6000fd5b60007f0000000000000000000000000000000000000000000000000000000000000000905090565b600080fd5b600073ffffffffffffffffffffffffffffffffffffffff82169050919050565b600061011b826100f0565b9050919050565b61012b81610110565b811461013657600080fd5b50565b60008151905061014881610122565b92915050565b600060208284031215610164576101636100eb565b5b600061017284828501610139565b9150509291505056fea2646970667358221220318efb3add371acc6afd6545498a71373c16dc1386e578ed8c02b6ac326dd4ca64736f6c63430008140033a2646970667358221220c1cd81b7e855501f00e4d4303ee5f053fb5b8dc4ff8d872930f08118f016cc4d64736f6c63430008140033","opcodes":"PUSH1 0x80 PUSH1 0x40 MSTORE CALLVALUE DUP1 ISZERO PUSH2 0x10 JUMPI PUSH1 0x0 DUP1 REVERT JUMPDEST POP PUSH2 0x3FE3 DUP1 PUSH2 0x20 PUSH1 0x0 CODECOPY PUSH1 0x0 RETURN INVALID PUSH1 0x80 PUSH1 0x40 MSTORE PUSH1 0x4 CALLDATASIZE LT PUSH3 0x206 JUMPI PUSH1 0x0 CALLDATALOAD PUSH1 0xE0 SHR DUP1 PUSH4 0x8DA5CB5B GT PUSH3 0x11B JUMPI DUP1 PUSH4 0xE5974554 GT PUSH3 0xA3 JUMPI DUP1 PUSH4 0xEFA412D0 GT PUSH3 0x6D JUMPI DUP1 PUSH4 0xEFA412D0 EQ PUSH3 0x6F5 JUMPI DUP1 PUSH4 0xF2FDE38B EQ PUSH3 0x723 JUMPI DUP1 PUSH4 0xF7CEE36A EQ PUSH3 0x751 JUMPI DUP1 PUSH4 0xF87B7A3E EQ PUSH3 0x781 JUMPI PUSH3 0x206 JUMP JUMPDEST DUP1 PUSH4 0xE5974554 EQ PUSH3 0x639 JUMPI DUP1 PUSH4 0xE92D61E5 EQ PUSH3 0x669 JUMPI DUP1 PUSH4 0xE956EAF1 EQ PUSH3 0x699 JUMPI DUP1 PUSH4 0xEB2C5798 EQ PUSH3 0x6C7 JUMPI PUSH3 0x206 JUMP JUMPDEST DUP1 PUSH4 0xB699CE5F GT PUSH3 0xE5 JUMPI DUP1 PUSH4 0xB699CE5F EQ PUSH3 0x589 JUMPI DUP1 PUSH4 0xC53B573D EQ PUSH3 0x5B7 JUMPI DUP1 PUSH4 0xC7B8981C EQ PUSH3 0x5D9 JUMPI DUP1 PUSH4 0xD6AE3CD5 EQ PUSH3 0x609 JUMPI PUSH3 0x206 JUMP JUMPDEST DUP1 PUSH4 0x8DA5CB5B EQ PUSH3 0x4CB JUMPI DUP1 PUSH4 0x8DB8AD88 EQ PUSH3 0x4FB JUMPI DUP1 PUSH4 0x9E935704 EQ PUSH3 0x52B JUMPI DUP1 PUSH4 0xAF372DB7 EQ PUSH3 0x55B JUMPI PUSH3 0x206 JUMP JUMPDEST DUP1 PUSH4 0x3CBB6979 GT PUSH3 0x19F JUMPI DUP1 PUSH4 0x67D93C81 GT PUSH3 0x169 JUMPI DUP1 PUSH4 0x67D93C81 EQ PUSH3 0x431 JUMPI DUP1 PUSH4 0x715018A6 EQ PUSH3 0x451 JUMPI DUP1 PUSH4 0x7CA4F8B0 EQ PUSH3 0x46B JUMPI DUP1 PUSH4 0x85D1E2B8 EQ PUSH3 0x49B JUMPI PUSH3 0x206 JUMP JUMPDEST DUP1 PUSH4 0x3CBB6979 EQ PUSH3 0x35D JUMPI DUP1 PUSH4 0x457CB586 EQ PUSH3 0x38D JUMPI DUP1 PUSH4 0x56891412 EQ PUSH3 0x3D1 JUMPI DUP1 PUSH4 0x5C60DA1B EQ PUSH3 0x401 JUMPI PUSH3 0x206 JUMP JUMPDEST DUP1 PUSH4 0x1ABDAF6A GT PUSH3 0x1E1 JUMPI DUP1 PUSH4 0x1ABDAF6A EQ PUSH3 0x28B JUMPI DUP1 PUSH4 0x33BEC7E7 EQ PUSH3 0x2CF JUMPI DUP1 PUSH4 0x35CD3599 EQ PUSH3 0x2FD JUMPI DUP1 PUSH4 0x3CB747BF EQ PUSH3 0x32D JUMPI PUSH3 0x206 JUMP JUMPDEST DUP1 PUSH4 0x80E1E4E EQ PUSH3 0x20B JUMPI DUP1 PUSH4 0x1152EB41 EQ PUSH3 0x23B JUMPI DUP1 PUSH4 0x1221E6A5 EQ PUSH3 0x26B JUMPI JUMPDEST PUSH1 0x0 DUP1 REVERT JUMPDEST CALLVALUE DUP1 ISZERO PUSH3 0x218 JUMPI PUSH1 0x0 DUP1 REVERT JUMPDEST POP PUSH3 0x223 PUSH3 0x7AF JUMP JUMPDEST PUSH1 0x40 MLOAD PUSH3 0x232 SWAP2 SWAP1 PUSH3 0x26AB JUMP JUMPDEST PUSH1 0x40 MLOAD DUP1 SWAP2 SUB SWAP1 RETURN JUMPDEST CALLVALUE DUP1 ISZERO PUSH3 0x248 JUMPI PUSH1 0x0 DUP1 REVERT JUMPDEST POP PUSH3 0x253 PUSH3 0x7D5 JUMP JUMPDEST PUSH1 0x40 MLOAD PUSH3 0x262 SWAP2 SWAP1 PUSH3 0x26E9 JUMP JUMPDEST PUSH1 0x40 MLOAD DUP1 SWAP2 SUB SWAP1 RETURN JUMPDEST PUSH3 0x289 PUSH1 0x4 DUP1 CALLDATASIZE SUB DUP2 ADD SWAP1 PUSH3 0x283 SWAP2 SWAP1 PUSH3 0x274B JUMP JUMPDEST PUSH3 0x7E2 JUMP JUMPDEST STOP JUMPDEST CALLVALUE DUP1 ISZERO PUSH3 0x298 JUMPI PUSH1 0x0 DUP1 REVERT JUMPDEST POP PUSH3 0x2B7 PUSH1 0x4 DUP1 CALLDATASIZE SUB DUP2 ADD SWAP1 PUSH3 0x2B1 SWAP2 SWAP1 PUSH3 0x27B8 JUMP JUMPDEST PUSH3 0x8AF JUMP JUMPDEST PUSH1 0x40 MLOAD PUSH3 0x2C6 SWAP2 SWAP1 PUSH3 0x26E9 JUMP JUMPDEST PUSH1 0x40 MLOAD DUP1 SWAP2 SUB SWAP1 RETURN JUMPDEST CALLVALUE DUP1 ISZERO PUSH3 0x2DC JUMPI PUSH1 0x0 DUP1 REVERT JUMPDEST POP PUSH3 0x2FB PUSH1 0x4 DUP1 CALLDATASIZE SUB DUP2 ADD SWAP1 PUSH3 0x2F5 SWAP2 SWAP1 PUSH3 0x274B JUMP JUMPDEST PUSH3 0x8EA JUMP JUMPDEST STOP JUMPDEST CALLVALUE DUP1 ISZERO PUSH3 0x30A JUMPI PUSH1 0x0 DUP1 REVERT JUMPDEST POP PUSH3 0x315 PUSH3 0x96B JUMP JUMPDEST PUSH1 0x40 MLOAD PUSH3 0x324 SWAP2 SWAP1 PUSH3 0x26E9 JUMP JUMPDEST PUSH1 0x40 MLOAD DUP1 SWAP2 SUB SWAP1 RETURN JUMPDEST CALLVALUE DUP1 ISZERO PUSH3 0x33A JUMPI PUSH1 0x0 DUP1 REVERT JUMPDEST POP PUSH3 0x345 PUSH3 0xB9A JUMP JUMPDEST PUSH1 0x40 MLOAD PUSH3 0x354 SWAP2 SWAP1 PUSH3 0x2855 JUMP JUMPDEST PUSH1 0x40 MLOAD DUP1 SWAP2 SUB SWAP1 RETURN JUMPDEST CALLVALUE DUP1 ISZERO PUSH3 0x36A JUMPI PUSH1 0x0 DUP1 REVERT JUMPDEST POP PUSH3 0x375 PUSH3 0xBC0 JUMP JUMPDEST PUSH1 0x40 MLOAD PUSH3 0x384 SWAP2 SWAP1 PUSH3 0x26E9 JUMP JUMPDEST PUSH1 0x40 MLOAD DUP1 SWAP2 SUB SWAP1 RETURN JUMPDEST CALLVALUE DUP1 ISZERO PUSH3 0x39A JUMPI PUSH1 0x0 DUP1 REVERT JUMPDEST POP PUSH3 0x3B9 PUSH1 0x4 DUP1 CALLDATASIZE SUB DUP2 ADD SWAP1 PUSH3 0x3B3 SWAP2 SWAP1 PUSH3 0x274B JUMP JUMPDEST PUSH3 0xBD6 JUMP JUMPDEST PUSH1 0x40 MLOAD PUSH3 0x3C8 SWAP2 SWAP1 PUSH3 0x26AB JUMP JUMPDEST PUSH1 0x40 MLOAD DUP1 SWAP2 SUB SWAP1 RETURN JUMPDEST CALLVALUE DUP1 ISZERO PUSH3 0x3DE JUMPI PUSH1 0x0 DUP1 REVERT JUMPDEST POP PUSH3 0x3E9 PUSH3 0xC09 JUMP JUMPDEST PUSH1 0x40 MLOAD PUSH3 0x3F8 SWAP2 SWAP1 PUSH3 0x2883 JUMP JUMPDEST PUSH1 0x40 MLOAD DUP1 SWAP2 SUB SWAP1 RETURN JUMPDEST CALLVALUE DUP1 ISZERO PUSH3 0x40E JUMPI PUSH1 0x0 DUP1 REVERT JUMPDEST POP PUSH3 0x419 PUSH3 0xD5E JUMP JUMPDEST PUSH1 0x40 MLOAD PUSH3 0x428 SWAP2 SWAP1 PUSH3 0x26AB JUMP JUMPDEST PUSH1 0x40 MLOAD DUP1 SWAP2 SUB SWAP1 RETURN JUMPDEST PUSH3 0x44F PUSH1 0x4 DUP1 CALLDATASIZE SUB DUP2 ADD SWAP1 PUSH3 0x449 SWAP2 SWAP1 PUSH3 0x274B JUMP JUMPDEST PUSH3 0xD87 JUMP JUMPDEST STOP JUMPDEST CALLVALUE DUP1 ISZERO PUSH3 0x45E JUMPI PUSH1 0x0 DUP1 REVERT JUMPDEST POP PUSH3 0x469 PUSH3 0xE60 JUMP JUMPDEST STOP JUMPDEST CALLVALUE DUP1 ISZERO PUSH3 0x478 JUMPI PUSH1 0x0 DUP1 REVERT JUMPDEST POP PUSH3 0x483 PUSH3 0xE78 JUMP JUMPDEST PUSH1 0x40 MLOAD PUSH3 0x492 SWAP2 SWAP1 PUSH3 0x2883 JUMP JUMPDEST PUSH1 0x40 MLOAD DUP1 SWAP2 SUB SWAP1 RETURN JUMPDEST CALLVALUE DUP1 ISZERO PUSH3 0x4A8 JUMPI PUSH1 0x0 DUP1 REVERT JUMPDEST POP PUSH3 0x4B3 PUSH3 0xE7E JUMP JUMPDEST PUSH1 0x40 MLOAD PUSH3 0x4C2 SWAP2 SWAP1 PUSH3 0x28C5 JUMP JUMPDEST PUSH1 0x40 MLOAD DUP1 SWAP2 SUB SWAP1 RETURN JUMPDEST CALLVALUE DUP1 ISZERO PUSH3 0x4D8 JUMPI PUSH1 0x0 DUP1 REVERT JUMPDEST POP PUSH3 0x4E3 PUSH3 0xEA4 JUMP JUMPDEST PUSH1 0x40 MLOAD PUSH3 0x4F2 SWAP2 SWAP1 PUSH3 0x26AB JUMP JUMPDEST PUSH1 0x40 MLOAD DUP1 SWAP2 SUB SWAP1 RETURN JUMPDEST CALLVALUE DUP1 ISZERO PUSH3 0x508 JUMPI PUSH1 0x0 DUP1 REVERT JUMPDEST POP PUSH3 0x513 PUSH3 0xEDE JUMP JUMPDEST PUSH1 0x40 MLOAD PUSH3 0x522 SWAP2 SWAP1 PUSH3 0x26AB JUMP JUMPDEST PUSH1 0x40 MLOAD DUP1 SWAP2 SUB SWAP1 RETURN JUMPDEST CALLVALUE DUP1 ISZERO PUSH3 0x538 JUMPI PUSH1 0x0 DUP1 REVERT JUMPDEST POP PUSH3 0x543 PUSH3 0xF02 JUMP JUMPDEST PUSH1 0x40 MLOAD PUSH3 0x552 SWAP2 SWAP1 PUSH3 0x26E9 JUMP JUMPDEST PUSH1 0x40 MLOAD DUP1 SWAP2 SUB SWAP1 RETURN JUMPDEST CALLVALUE DUP1 ISZERO PUSH3 0x568 JUMPI PUSH1 0x0 DUP1 REVERT JUMPDEST POP PUSH3 0x587 PUSH1 0x4 DUP1 CALLDATASIZE SUB DUP2 ADD SWAP1 PUSH3 0x581 SWAP2 SWAP1 PUSH3 0x2A75 JUMP JUMPDEST PUSH3 0xF18 JUMP JUMPDEST STOP JUMPDEST CALLVALUE DUP1 ISZERO PUSH3 0x596 JUMPI PUSH1 0x0 DUP1 REVERT JUMPDEST POP PUSH3 0x5B5 PUSH1 0x4 DUP1 CALLDATASIZE SUB DUP2 ADD SWAP1 PUSH3 0x5AF SWAP2 SWAP1 PUSH3 0x2B06 JUMP JUMPDEST PUSH3 0x10B9 JUMP JUMPDEST STOP JUMPDEST PUSH3 0x5C1 PUSH3 0x1667 JUMP JUMPDEST PUSH1 0x40 MLOAD PUSH3 0x5D0 SWAP2 SWAP1 PUSH3 0x2883 JUMP JUMPDEST PUSH1 0x40 MLOAD DUP1 SWAP2 SUB SWAP1 RETURN JUMPDEST CALLVALUE DUP1 ISZERO PUSH3 0x5E6 JUMPI PUSH1 0x0 DUP1 REVERT JUMPDEST POP PUSH3 0x5F1 PUSH3 0x1C28 JUMP JUMPDEST PUSH1 0x40 MLOAD PUSH3 0x600 SWAP2 SWAP1 PUSH3 0x2BD6 JUMP JUMPDEST PUSH1 0x40 MLOAD DUP1 SWAP2 SUB SWAP1 RETURN JUMPDEST CALLVALUE DUP1 ISZERO PUSH3 0x616 JUMPI PUSH1 0x0 DUP1 REVERT JUMPDEST POP PUSH3 0x621 PUSH3 0x1C3B JUMP JUMPDEST PUSH1 0x40 MLOAD PUSH3 0x630 SWAP2 SWAP1 PUSH3 0x2883 JUMP JUMPDEST PUSH1 0x40 MLOAD DUP1 SWAP2 SUB SWAP1 RETURN JUMPDEST CALLVALUE DUP1 ISZERO PUSH3 0x646 JUMPI PUSH1 0x0 DUP1 REVERT JUMPDEST POP PUSH3 0x651 PUSH3 0x1C41 JUMP JUMPDEST PUSH1 0x40 MLOAD PUSH3 0x660 SWAP2 SWAP1 PUSH3 0x2C18 JUMP JUMPDEST PUSH1 0x40 MLOAD DUP1 SWAP2 SUB SWAP1 RETURN JUMPDEST CALLVALUE DUP1 ISZERO PUSH3 0x676 JUMPI PUSH1 0x0 DUP1 REVERT JUMPDEST POP PUSH3 0x681 PUSH3 0x1C67 JUMP JUMPDEST PUSH1 0x40 MLOAD PUSH3 0x690 SWAP2 SWAP1 PUSH3 0x26AB JUMP JUMPDEST PUSH1 0x40 MLOAD DUP1 SWAP2 SUB SWAP1 RETURN JUMPDEST CALLVALUE DUP1 ISZERO PUSH3 0x6A6 JUMPI PUSH1 0x0 DUP1 REVERT JUMPDEST POP PUSH3 0x6C5 PUSH1 0x4 DUP1 CALLDATASIZE SUB DUP2 ADD SWAP1 PUSH3 0x6BF SWAP2 SWAP1 PUSH3 0x2C66 JUMP JUMPDEST PUSH3 0x1C8D JUMP JUMPDEST STOP JUMPDEST CALLVALUE DUP1 ISZERO PUSH3 0x6D4 JUMPI PUSH1 0x0 DUP1 REVERT JUMPDEST POP PUSH3 0x6F3 PUSH1 0x4 DUP1 CALLDATASIZE SUB DUP2 ADD SWAP1 PUSH3 0x6ED SWAP2 SWAP1 PUSH3 0x2CAD JUMP JUMPDEST PUSH3 0x1CA7 JUMP JUMPDEST STOP JUMPDEST CALLVALUE DUP1 ISZERO PUSH3 0x702 JUMPI PUSH1 0x0 DUP1 REVERT JUMPDEST POP PUSH3 0x721 PUSH1 0x4 DUP1 CALLDATASIZE SUB DUP2 ADD SWAP1 PUSH3 0x71B SWAP2 SWAP1 PUSH3 0x2CDF JUMP JUMPDEST PUSH3 0x1D66 JUMP JUMPDEST STOP JUMPDEST CALLVALUE DUP1 ISZERO PUSH3 0x730 JUMPI PUSH1 0x0 DUP1 REVERT JUMPDEST POP PUSH3 0x74F PUSH1 0x4 DUP1 CALLDATASIZE SUB DUP2 ADD SWAP1 PUSH3 0x749 SWAP2 SWAP1 PUSH3 0x2CAD JUMP JUMPDEST PUSH3 0x1DDD JUMP JUMPDEST STOP JUMPDEST CALLVALUE DUP1 ISZERO PUSH3 0x75E JUMPI PUSH1 0x0 DUP1 REVERT JUMPDEST POP PUSH3 0x769 PUSH3 0x1E6A JUMP JUMPDEST PUSH1 0x40 MLOAD PUSH3 0x778 SWAP2 SWAP1 PUSH3 0x2D36 JUMP JUMPDEST PUSH1 0x40 MLOAD DUP1 SWAP2 SUB SWAP1 RETURN JUMPDEST CALLVALUE DUP1 ISZERO PUSH3 0x78E JUMPI PUSH1 0x0 DUP1 REVERT JUMPDEST POP PUSH3 0x7AD PUSH1 0x4 DUP1 CALLDATASIZE SUB DUP2 ADD SWAP1 PUSH3 0x7A7 SWAP2 SWAP1 PUSH3 0x2CAD JUMP JUMPDEST PUSH3 0x1E90 JUMP JUMPDEST STOP JUMPDEST PUSH1 0x6 PUSH1 0x0 SWAP1 SLOAD SWAP1 PUSH2 0x100 EXP SWAP1 DIV PUSH20 0xFFFFFFFFFFFFFFFFFFFFFFFFFFFFFFFFFFFFFFFF AND DUP2 JUMP JUMPDEST PUSH1 0x0 PUSH1 0xA DUP1 SLOAD SWAP1 POP SWAP1 POP SWAP1 JUMP JUMPDEST PUSH3 0x7EC PUSH3 0x1ED4 JUMP JUMPDEST PUSH1 0x8 PUSH1 0x0 DUP3 PUSH4 0xFFFFFFFF AND PUSH4 0xFFFFFFFF AND DUP2 MSTORE PUSH1 0x20 ADD SWAP1 DUP2 MSTORE PUSH1 0x20 ADD PUSH1 0x0 KECCAK256 PUSH1 0x0 SWAP1 SLOAD SWAP1 PUSH2 0x100 EXP SWAP1 DIV PUSH20 0xFFFFFFFFFFFFFFFFFFFFFFFFFFFFFFFFFFFFFFFF AND PUSH20 0xFFFFFFFFFFFFFFFFFFFFFFFFFFFFFFFFFFFFFFFF AND PUSH4 0x1221E6A5 PUSH1 0xC PUSH1 0x0 SWAP1 SLOAD SWAP1 PUSH2 0x100 EXP SWAP1 DIV PUSH4 0xFFFFFFFF AND PUSH1 0x40 MLOAD DUP3 PUSH4 0xFFFFFFFF AND PUSH1 0xE0 SHL DUP2 MSTORE PUSH1 0x4 ADD PUSH3 0x878 SWAP2 SWAP1 PUSH3 0x26E9 JUMP JUMPDEST PUSH1 0x0 PUSH1 0x40 MLOAD DUP1 DUP4 SUB DUP2 PUSH1 0x0 DUP8 DUP1 EXTCODESIZE ISZERO DUP1 ISZERO PUSH3 0x893 JUMPI PUSH1 0x0 DUP1 REVERT JUMPDEST POP GAS CALL ISZERO DUP1 ISZERO PUSH3 0x8A8 JUMPI RETURNDATASIZE PUSH1 0x0 DUP1 RETURNDATACOPY RETURNDATASIZE PUSH1 0x0 REVERT JUMPDEST POP POP POP POP POP JUMP JUMPDEST PUSH1 0xA DUP2 DUP2 SLOAD DUP2 LT PUSH3 0x8C0 JUMPI PUSH1 0x0 DUP1 REVERT JUMPDEST SWAP1 PUSH1 0x0 MSTORE PUSH1 0x20 PUSH1 0x0 KECCAK256 SWAP1 PUSH1 0x8 SWAP2 DUP3 DUP3 DIV ADD SWAP2 SWAP1 MOD PUSH1 0x4 MUL SWAP2 POP SLOAD SWAP1 PUSH2 0x100 EXP SWAP1 DIV PUSH4 0xFFFFFFFF AND DUP2 JUMP JUMPDEST PUSH3 0x8F4 PUSH3 0x1ED4 JUMP JUMPDEST PUSH1 0x0 PUSH1 0xC PUSH1 0x0 SWAP1 SLOAD SWAP1 PUSH2 0x100 EXP SWAP1 DIV PUSH4 0xFFFFFFFF AND SWAP1 POP DUP2 PUSH1 0xC PUSH1 0x0 PUSH2 0x100 EXP DUP2 SLOAD DUP2 PUSH4 0xFFFFFFFF MUL NOT AND SWAP1 DUP4 PUSH4 0xFFFFFFFF AND MUL OR SWAP1 SSTORE POP PUSH32 0x4042B09A75E5A67C8CC2A57E00DE6D29FB5202B7207AFBA895EB8B5CC3E2179E DUP2 DUP4 PUSH1 0x40 MLOAD PUSH3 0x95F SWAP3 SWAP2 SWAP1 PUSH3 0x2D53 JUMP JUMPDEST PUSH1 0x40 MLOAD DUP1 SWAP2 SUB SWAP1 LOG1 POP POP JUMP JUMPDEST PUSH1 0x0 PUSH3 0x977 PUSH3 0x1ED4 JUMP JUMPDEST PUSH1 0x0 PUSH4 0xF8C8765E PUSH1 0xE0 SHL ADDRESS PUSH1 0x2 PUSH1 0x0 SWAP1 SLOAD SWAP1 PUSH2 0x100 EXP SWAP1 DIV PUSH20 0xFFFFFFFFFFFFFFFFFFFFFFFFFFFFFFFFFFFFFFFF AND PUSH1 0x3 PUSH1 0x0 SWAP1 SLOAD SWAP1 PUSH2 0x100 EXP SWAP1 DIV PUSH20 0xFFFFFFFFFFFFFFFFFFFFFFFFFFFFFFFFFFFFFFFF AND PUSH1 0x1 PUSH1 0x0 SWAP1 SLOAD SWAP1 PUSH2 0x100 EXP SWAP1 DIV PUSH20 0xFFFFFFFFFFFFFFFFFFFFFFFFFFFFFFFFFFFFFFFF AND PUSH1 0x40 MLOAD PUSH1 0x24 ADD PUSH3 0xA00 SWAP5 SWAP4 SWAP3 SWAP2 SWAP1 PUSH3 0x2D80 JUMP JUMPDEST PUSH1 0x40 MLOAD PUSH1 0x20 DUP2 DUP4 SUB SUB DUP2 MSTORE SWAP1 PUSH1 0x40 MSTORE SWAP1 PUSH28 0xFFFFFFFFFFFFFFFFFFFFFFFFFFFFFFFFFFFFFFFFFFFFFFFFFFFFFFFF NOT AND PUSH1 0x20 DUP3 ADD DUP1 MLOAD PUSH28 0xFFFFFFFFFFFFFFFFFFFFFFFFFFFFFFFFFFFFFFFFFFFFFFFFFFFFFFFF DUP4 DUP2 DUP4 AND OR DUP4 MSTORE POP POP POP POP SWAP1 POP PUSH1 0x0 ADDRESS DUP3 PUSH1 0x40 MLOAD PUSH3 0xA71 SWAP1 PUSH3 0x2658 JUMP JUMPDEST PUSH3 0xA7E SWAP3 SWAP2 SWAP1 PUSH3 0x2E56 JUMP JUMPDEST PUSH1 0x40 MLOAD DUP1 SWAP2 SUB SWAP1 PUSH1 0x0 CREATE DUP1 ISZERO DUP1 ISZERO PUSH3 0xA9B JUMPI RETURNDATASIZE PUSH1 0x0 DUP1 RETURNDATACOPY RETURNDATASIZE PUSH1 0x0 REVERT JUMPDEST POP SWAP1 POP PUSH1 0x0 PUSH1 0x9 PUSH1 0x0 SWAP1 SLOAD SWAP1 PUSH2 0x100 EXP SWAP1 DIV PUSH4 0xFFFFFFFF AND SWAP1 POP DUP2 PUSH1 0x8 PUSH1 0x0 DUP4 PUSH4 0xFFFFFFFF AND PUSH4 0xFFFFFFFF AND DUP2 MSTORE PUSH1 0x20 ADD SWAP1 DUP2 MSTORE PUSH1 0x20 ADD PUSH1 0x0 KECCAK256 PUSH1 0x0 PUSH2 0x100 EXP DUP2 SLOAD DUP2 PUSH20 0xFFFFFFFFFFFFFFFFFFFFFFFFFFFFFFFFFFFFFFFF MUL NOT AND SWAP1 DUP4 PUSH20 0xFFFFFFFFFFFFFFFFFFFFFFFFFFFFFFFFFFFFFFFF AND MUL OR SWAP1 SSTORE POP PUSH32 0xFCDF0E51B92207A6C5CFA485E975B62686DA57DA9499FEAFD12185EE26A860D9 DUP2 DUP4 PUSH1 0x40 MLOAD PUSH3 0xB46 SWAP3 SWAP2 SWAP1 PUSH3 0x2E8A JUMP JUMPDEST PUSH1 0x40 MLOAD DUP1 SWAP2 SUB SWAP1 LOG1 PUSH1 0x9 PUSH1 0x0 DUP2 DUP2 SWAP1 SLOAD SWAP1 PUSH2 0x100 EXP SWAP1 DIV PUSH4 0xFFFFFFFF AND DUP1 SWAP3 SWAP2 SWAP1 PUSH3 0xB72 SWAP1 PUSH3 0x2EE6 JUMP JUMPDEST SWAP2 SWAP1 PUSH2 0x100 EXP DUP2 SLOAD DUP2 PUSH4 0xFFFFFFFF MUL NOT AND SWAP1 DUP4 PUSH4 0xFFFFFFFF AND MUL OR SWAP1 SSTORE POP POP DUP1 SWAP4 POP POP POP POP SWAP1 JUMP JUMPDEST PUSH1 0x4 PUSH1 0x0 SWAP1 SLOAD SWAP1 PUSH2 0x100 EXP SWAP1 DIV PUSH20 0xFFFFFFFFFFFFFFFFFFFFFFFFFFFFFFFFFFFFFFFF AND DUP2 JUMP JUMPDEST PUSH1 0xC PUSH1 0x0 SWAP1 SLOAD SWAP1 PUSH2 0x100 EXP SWAP1 DIV PUSH4 0xFFFFFFFF AND DUP2 JUMP JUMPDEST PUSH1 0x8 PUSH1 0x20 MSTORE DUP1 PUSH1 0x0 MSTORE PUSH1 0x40 PUSH1 0x0 KECCAK256 PUSH1 0x0 SWAP2 POP SLOAD SWAP1 PUSH2 0x100 EXP SWAP1 DIV PUSH20 0xFFFFFFFFFFFFFFFFFFFFFFFFFFFFFFFFFFFFFFFF AND DUP2 JUMP JUMPDEST PUSH1 0x0 DUP1 PUSH1 0x0 SWAP1 POP PUSH1 0x0 JUMPDEST PUSH1 0xA DUP1 SLOAD SWAP1 POP DUP2 PUSH4 0xFFFFFFFF AND LT ISZERO PUSH3 0xD56 JUMPI PUSH1 0x0 PUSH1 0xA DUP3 PUSH4 0xFFFFFFFF AND DUP2 SLOAD DUP2 LT PUSH3 0xC46 JUMPI PUSH3 0xC45 PUSH3 0x2F17 JUMP JUMPDEST JUMPDEST SWAP1 PUSH1 0x0 MSTORE PUSH1 0x20 PUSH1 0x0 KECCAK256 SWAP1 PUSH1 0x8 SWAP2 DUP3 DUP3 DIV ADD SWAP2 SWAP1 MOD PUSH1 0x4 MUL SWAP1 SLOAD SWAP1 PUSH2 0x100 EXP SWAP1 DIV PUSH4 0xFFFFFFFF AND SWAP1 POP PUSH1 0x0 PUSH1 0x8 PUSH1 0x0 DUP4 PUSH4 0xFFFFFFFF AND PUSH4 0xFFFFFFFF AND DUP2 MSTORE PUSH1 0x20 ADD SWAP1 DUP2 MSTORE PUSH1 0x20 ADD PUSH1 0x0 KECCAK256 PUSH1 0x0 SWAP1 SLOAD SWAP1 PUSH2 0x100 EXP SWAP1 DIV PUSH20 0xFFFFFFFFFFFFFFFFFFFFFFFFFFFFFFFFFFFFFFFF AND SWAP1 POP PUSH1 0x0 DUP2 PUSH20 0xFFFFFFFFFFFFFFFFFFFFFFFFFFFFFFFFFFFFFFFF AND PUSH4 0x76D9F95C PUSH1 0x40 MLOAD DUP2 PUSH4 0xFFFFFFFF AND PUSH1 0xE0 SHL DUP2 MSTORE PUSH1 0x4 ADD PUSH2 0x140 PUSH1 0x40 MLOAD DUP1 DUP4 SUB DUP2 DUP7 GAS STATICCALL ISZERO DUP1 ISZERO PUSH3 0xD01 JUMPI RETURNDATASIZE PUSH1 0x0 DUP1 RETURNDATACOPY RETURNDATASIZE PUSH1 0x0 REVERT JUMPDEST POP POP POP POP PUSH1 0x40 MLOAD RETURNDATASIZE PUSH1 0x1F NOT PUSH1 0x1F DUP3 ADD AND DUP3 ADD DUP1 PUSH1 0x40 MSTORE POP DUP2 ADD SWAP1 PUSH3 0xD27 SWAP2 SWAP1 PUSH3 0x3088 JUMP JUMPDEST PUSH1 0x0 ADD MLOAD SWAP1 POP DUP1 DUP6 PUSH3 0xD3B SWAP2 SWAP1 PUSH3 0x30BB JUMP JUMPDEST SWAP5 POP POP POP POP DUP1 DUP1 PUSH3 0xD4D SWAP1 PUSH3 0x2EE6 JUMP JUMPDEST SWAP2 POP POP PUSH3 0xC13 JUMP JUMPDEST POP DUP1 SWAP2 POP POP SWAP1 JUMP JUMPDEST PUSH1 0x0 DUP1 PUSH1 0x0 SWAP1 SLOAD SWAP1 PUSH2 0x100 EXP SWAP1 DIV PUSH20 0xFFFFFFFFFFFFFFFFFFFFFFFFFFFFFFFFFFFFFFFF AND SWAP1 POP SWAP1 JUMP JUMPDEST PUSH3 0xD91 PUSH3 0x1ED4 JUMP JUMPDEST PUSH1 0x8 PUSH1 0x0 DUP3 PUSH4 0xFFFFFFFF AND PUSH4 0xFFFFFFFF AND DUP2 MSTORE PUSH1 0x20 ADD SWAP1 DUP2 MSTORE PUSH1 0x20 ADD PUSH1 0x0 KECCAK256 PUSH1 0x0 SWAP1 SLOAD SWAP1 PUSH2 0x100 EXP SWAP1 DIV PUSH20 0xFFFFFFFFFFFFFFFFFFFFFFFFFFFFFFFFFFFFFFFF AND PUSH20 0xFFFFFFFFFFFFFFFFFFFFFFFFFFFFFFFFFFFFFFFF AND PUSH4 0x67D93C81 PUSH1 0xC PUSH1 0x0 SWAP1 SLOAD SWAP1 PUSH2 0x100 EXP SWAP1 DIV PUSH4 0xFFFFFFFF AND PUSH1 0x40 MLOAD DUP3 PUSH4 0xFFFFFFFF AND PUSH1 0xE0 SHL DUP2 MSTORE PUSH1 0x4 ADD PUSH3 0xE1D SWAP2 SWAP1 PUSH3 0x26E9 JUMP JUMPDEST PUSH1 0x0 PUSH1 0x40 MLOAD DUP1 DUP4 SUB DUP2 PUSH1 0x0 DUP8 DUP1 EXTCODESIZE ISZERO DUP1 ISZERO PUSH3 0xE38 JUMPI PUSH1 0x0 DUP1 REVERT JUMPDEST POP GAS CALL ISZERO DUP1 ISZERO PUSH3 0xE4D JUMPI RETURNDATASIZE PUSH1 0x0 DUP1 RETURNDATACOPY RETURNDATASIZE PUSH1 0x0 REVERT JUMPDEST POP POP POP POP PUSH3 0xE5C DUP2 PUSH3 0x1F64 JUMP JUMPDEST POP POP JUMP JUMPDEST PUSH3 0xE6A PUSH3 0x1ED4 JUMP JUMPDEST PUSH3 0xE76 PUSH1 0x0 PUSH3 0x20AE JUMP JUMPDEST JUMP JUMPDEST PUSH1 0xB SLOAD DUP2 JUMP JUMPDEST PUSH1 0x2 PUSH1 0x0 SWAP1 SLOAD SWAP1 PUSH2 0x100 EXP SWAP1 DIV PUSH20 0xFFFFFFFFFFFFFFFFFFFFFFFFFFFFFFFFFFFFFFFF AND DUP2 JUMP JUMPDEST PUSH1 0x0 DUP1 PUSH3 0xEB1 PUSH3 0x2187 JUMP JUMPDEST SWAP1 POP DUP1 PUSH1 0x0 ADD PUSH1 0x0 SWAP1 SLOAD SWAP1 PUSH2 0x100 EXP SWAP1 DIV PUSH20 0xFFFFFFFFFFFFFFFFFFFFFFFFFFFFFFFFFFFFFFFF AND SWAP2 POP POP SWAP1 JUMP JUMPDEST PUSH1 0x0 DUP1 SLOAD SWAP1 PUSH2 0x100 EXP SWAP1 DIV PUSH20 0xFFFFFFFFFFFFFFFFFFFFFFFFFFFFFFFFFFFFFFFF AND DUP2 JUMP JUMPDEST PUSH1 0x9 PUSH1 0x0 SWAP1 SLOAD SWAP1 PUSH2 0x100 EXP SWAP1 DIV PUSH4 0xFFFFFFFF AND DUP2 JUMP JUMPDEST PUSH3 0xF22 PUSH3 0x1ED4 JUMP JUMPDEST PUSH1 0x0 PUSH1 0x8 PUSH1 0x0 DUP7 PUSH4 0xFFFFFFFF AND PUSH4 0xFFFFFFFF AND DUP2 MSTORE PUSH1 0x20 ADD SWAP1 DUP2 MSTORE PUSH1 0x20 ADD PUSH1 0x0 KECCAK256 PUSH1 0x0 SWAP1 SLOAD SWAP1 PUSH2 0x100 EXP SWAP1 DIV PUSH20 0xFFFFFFFFFFFFFFFFFFFFFFFFFFFFFFFFFFFFFFFF AND SWAP1 POP PUSH1 0x1 PUSH1 0x0 SWAP1 SLOAD SWAP1 PUSH2 0x100 EXP SWAP1 DIV PUSH20 0xFFFFFFFFFFFFFFFFFFFFFFFFFFFFFFFFFFFFFFFF AND PUSH20 0xFFFFFFFFFFFFFFFFFFFFFFFFFFFFFFFFFFFFFFFF AND PUSH4 0x23B872DD CALLER DUP4 DUP7 PUSH1 0x40 MLOAD DUP5 PUSH4 0xFFFFFFFF AND PUSH1 0xE0 SHL DUP2 MSTORE PUSH1 0x4 ADD PUSH3 0xFC7 SWAP4 SWAP3 SWAP2 SWAP1 PUSH3 0x30F6 JUMP JUMPDEST PUSH1 0x20 PUSH1 0x40 MLOAD DUP1 DUP4 SUB DUP2 PUSH1 0x0 DUP8 GAS CALL ISZERO DUP1 ISZERO PUSH3 0xFE7 JUMPI RETURNDATASIZE PUSH1 0x0 DUP1 RETURNDATACOPY RETURNDATASIZE PUSH1 0x0 REVERT JUMPDEST POP POP POP POP PUSH1 0x40 MLOAD RETURNDATASIZE PUSH1 0x1F NOT PUSH1 0x1F DUP3 ADD AND DUP3 ADD DUP1 PUSH1 0x40 MSTORE POP DUP2 ADD SWAP1 PUSH3 0x100D SWAP2 SWAP1 PUSH3 0x314A JUMP JUMPDEST POP DUP1 PUSH20 0xFFFFFFFFFFFFFFFFFFFFFFFFFFFFFFFFFFFFFFFF AND PUSH4 0xCE6DF54A DUP6 PUSH1 0x6 PUSH1 0x0 SWAP1 SLOAD SWAP1 PUSH2 0x100 EXP SWAP1 DIV PUSH20 0xFFFFFFFFFFFFFFFFFFFFFFFFFFFFFFFFFFFFFFFF AND DUP7 DUP7 PUSH1 0x40 MLOAD DUP6 PUSH4 0xFFFFFFFF AND PUSH1 0xE0 SHL DUP2 MSTORE PUSH1 0x4 ADD PUSH3 0x1071 SWAP5 SWAP4 SWAP3 SWAP2 SWAP1 PUSH3 0x317C JUMP JUMPDEST PUSH1 0x0 PUSH1 0x40 MLOAD DUP1 DUP4 SUB DUP2 PUSH1 0x0 DUP8 DUP1 EXTCODESIZE ISZERO DUP1 ISZERO PUSH3 0x108C JUMPI PUSH1 0x0 DUP1 REVERT JUMPDEST POP GAS CALL ISZERO DUP1 ISZERO PUSH3 0x10A1 JUMPI RETURNDATASIZE PUSH1 0x0 DUP1 RETURNDATACOPY RETURNDATASIZE PUSH1 0x0 REVERT JUMPDEST POP POP POP POP PUSH3 0x10B2 DUP6 PUSH1 0x1 PUSH3 0x21AF JUMP JUMPDEST POP POP POP POP POP JUMP JUMPDEST PUSH1 0x0 PUSH3 0x10C5 PUSH3 0x22DC JUMP JUMPDEST SWAP1 POP PUSH1 0x0 DUP2 PUSH1 0x0 ADD PUSH1 0x8 SWAP1 SLOAD SWAP1 PUSH2 0x100 EXP SWAP1 DIV PUSH1 0xFF AND ISZERO SWAP1 POP PUSH1 0x0 DUP3 PUSH1 0x0 ADD PUSH1 0x0 SWAP1 SLOAD SWAP1 PUSH2 0x100 EXP SWAP1 DIV PUSH8 0xFFFFFFFFFFFFFFFF AND SWAP1 POP PUSH1 0x0 DUP1 DUP3 PUSH8 0xFFFFFFFFFFFFFFFF AND EQ DUP1 ISZERO PUSH3 0x1114 JUMPI POP DUP3 JUMPDEST SWAP1 POP PUSH1 0x0 PUSH1 0x1 DUP4 PUSH8 0xFFFFFFFFFFFFFFFF AND EQ DUP1 ISZERO PUSH3 0x114A JUMPI POP PUSH1 0x0 ADDRESS PUSH20 0xFFFFFFFFFFFFFFFFFFFFFFFFFFFFFFFFFFFFFFFF AND EXTCODESIZE EQ JUMPDEST SWAP1 POP DUP2 ISZERO DUP1 ISZERO PUSH3 0x1159 JUMPI POP DUP1 ISZERO JUMPDEST ISZERO PUSH3 0x1191 JUMPI PUSH1 0x40 MLOAD PUSH32 0xF92EE8A900000000000000000000000000000000000000000000000000000000 DUP2 MSTORE PUSH1 0x4 ADD PUSH1 0x40 MLOAD DUP1 SWAP2 SUB SWAP1 REVERT JUMPDEST PUSH1 0x1 DUP6 PUSH1 0x0 ADD PUSH1 0x0 PUSH2 0x100 EXP DUP2 SLOAD DUP2 PUSH8 0xFFFFFFFFFFFFFFFF MUL NOT AND SWAP1 DUP4 PUSH8 0xFFFFFFFFFFFFFFFF AND MUL OR SWAP1 SSTORE POP DUP4 ISZERO PUSH3 0x11E2 JUMPI PUSH1 0x1 DUP6 PUSH1 0x0 ADD PUSH1 0x8 PUSH2 0x100 EXP DUP2 SLOAD DUP2 PUSH1 0xFF MUL NOT AND SWAP1 DUP4 ISZERO ISZERO MUL OR SWAP1 SSTORE POP JUMPDEST PUSH1 0x0 PUSH20 0xFFFFFFFFFFFFFFFFFFFFFFFFFFFFFFFFFFFFFFFF AND DUP13 PUSH20 0xFFFFFFFFFFFFFFFFFFFFFFFFFFFFFFFFFFFFFFFF AND EQ ISZERO DUP1 ISZERO PUSH3 0x124D JUMPI POP PUSH1 0x0 PUSH20 0xFFFFFFFFFFFFFFFFFFFFFFFFFFFFFFFFFFFFFFFF AND DUP12 PUSH20 0xFFFFFFFFFFFFFFFFFFFFFFFFFFFFFFFFFFFFFFFF AND EQ ISZERO JUMPDEST DUP1 ISZERO PUSH3 0x1287 JUMPI POP PUSH1 0x0 PUSH20 0xFFFFFFFFFFFFFFFFFFFFFFFFFFFFFFFFFFFFFFFF AND DUP11 PUSH20 0xFFFFFFFFFFFFFFFFFFFFFFFFFFFFFFFFFFFFFFFF AND EQ ISZERO JUMPDEST DUP1 ISZERO PUSH3 0x12C1 JUMPI POP PUSH1 0x0 PUSH20 0xFFFFFFFFFFFFFFFFFFFFFFFFFFFFFFFFFFFFFFFF AND DUP8 PUSH20 0xFFFFFFFFFFFFFFFFFFFFFFFFFFFFFFFFFFFFFFFF AND EQ ISZERO JUMPDEST DUP1 ISZERO PUSH3 0x12FB JUMPI POP PUSH1 0x0 PUSH20 0xFFFFFFFFFFFFFFFFFFFFFFFFFFFFFFFFFFFFFFFF AND DUP7 PUSH20 0xFFFFFFFFFFFFFFFFFFFFFFFFFFFFFFFFFFFFFFFF AND EQ ISZERO JUMPDEST PUSH3 0x133D JUMPI PUSH1 0x40 MLOAD PUSH32 0x8C379A000000000000000000000000000000000000000000000000000000000 DUP2 MSTORE PUSH1 0x4 ADD PUSH3 0x1334 SWAP1 PUSH3 0x3231 JUMP JUMPDEST PUSH1 0x40 MLOAD DUP1 SWAP2 SUB SWAP1 REVERT JUMPDEST PUSH3 0x1348 CALLER PUSH3 0x2304 JUMP JUMPDEST DUP12 PUSH1 0x1 PUSH1 0x0 PUSH2 0x100 EXP DUP2 SLOAD DUP2 PUSH20 0xFFFFFFFFFFFFFFFFFFFFFFFFFFFFFFFFFFFFFFFF MUL NOT AND SWAP1 DUP4 PUSH20 0xFFFFFFFFFFFFFFFFFFFFFFFFFFFFFFFFFFFFFFFF AND MUL OR SWAP1 SSTORE POP DUP11 PUSH1 0x2 PUSH1 0x0 PUSH2 0x100 EXP DUP2 SLOAD DUP2 PUSH20 0xFFFFFFFFFFFFFFFFFFFFFFFFFFFFFFFFFFFFFFFF MUL NOT AND SWAP1 DUP4 PUSH20 0xFFFFFFFFFFFFFFFFFFFFFFFFFFFFFFFFFFFFFFFF AND MUL OR SWAP1 SSTORE POP PUSH1 0x2 PUSH1 0x0 SWAP1 SLOAD SWAP1 PUSH2 0x100 EXP SWAP1 DIV PUSH20 0xFFFFFFFFFFFFFFFFFFFFFFFFFFFFFFFFFFFFFFFF AND PUSH20 0xFFFFFFFFFFFFFFFFFFFFFFFFFFFFFFFFFFFFFFFF AND PUSH4 0xE2FDCC17 PUSH1 0x40 MLOAD DUP2 PUSH4 0xFFFFFFFF AND PUSH1 0xE0 SHL DUP2 MSTORE PUSH1 0x4 ADD PUSH1 0x20 PUSH1 0x40 MLOAD DUP1 DUP4 SUB DUP2 DUP7 GAS STATICCALL ISZERO DUP1 ISZERO PUSH3 0x1438 JUMPI RETURNDATASIZE PUSH1 0x0 DUP1 RETURNDATACOPY RETURNDATASIZE PUSH1 0x0 REVERT JUMPDEST POP POP POP POP PUSH1 0x40 MLOAD RETURNDATASIZE PUSH1 0x1F NOT PUSH1 0x1F DUP3 ADD AND DUP3 ADD DUP1 PUSH1 0x40 MSTORE POP DUP2 ADD SWAP1 PUSH3 0x145E SWAP2 SWAP1 PUSH3 0x3298 JUMP JUMPDEST PUSH1 0x3 PUSH1 0x0 PUSH2 0x100 EXP DUP2 SLOAD DUP2 PUSH20 0xFFFFFFFFFFFFFFFFFFFFFFFFFFFFFFFFFFFFFFFF MUL NOT AND SWAP1 DUP4 PUSH20 0xFFFFFFFFFFFFFFFFFFFFFFFFFFFFFFFFFFFFFFFF AND MUL OR SWAP1 SSTORE POP DUP10 PUSH20 0xFFFFFFFFFFFFFFFFFFFFFFFFFFFFFFFFFFFFFFFF AND PUSH4 0x3CB747BF PUSH1 0x40 MLOAD DUP2 PUSH4 0xFFFFFFFF AND PUSH1 0xE0 SHL DUP2 MSTORE PUSH1 0x4 ADD PUSH1 0x20 PUSH1 0x40 MLOAD DUP1 DUP4 SUB DUP2 DUP7 GAS STATICCALL ISZERO DUP1 ISZERO PUSH3 0x14EA JUMPI RETURNDATASIZE PUSH1 0x0 DUP1 RETURNDATACOPY RETURNDATASIZE PUSH1 0x0 REVERT JUMPDEST POP POP POP POP PUSH1 0x40 MLOAD RETURNDATASIZE PUSH1 0x1F NOT PUSH1 0x1F DUP3 ADD AND DUP3 ADD DUP1 PUSH1 0x40 MSTORE POP DUP2 ADD SWAP1 PUSH3 0x1510 SWAP2 SWAP1 PUSH3 0x32CA JUMP JUMPDEST PUSH1 0x4 PUSH1 0x0 PUSH2 0x100 EXP DUP2 SLOAD DUP2 PUSH20 0xFFFFFFFFFFFFFFFFFFFFFFFFFFFFFFFFFFFFFFFF MUL NOT AND SWAP1 DUP4 PUSH20 0xFFFFFFFFFFFFFFFFFFFFFFFFFFFFFFFFFFFFFFFF AND MUL OR SWAP1 SSTORE POP DUP9 PUSH1 0x5 DUP2 SWAP1 SSTORE POP DUP8 PUSH1 0xC PUSH1 0x0 PUSH2 0x100 EXP DUP2 SLOAD DUP2 PUSH4 0xFFFFFFFF MUL NOT AND SWAP1 DUP4 PUSH4 0xFFFFFFFF AND MUL OR SWAP1 SSTORE POP DUP7 PUSH1 0x6 PUSH1 0x0 PUSH2 0x100 EXP DUP2 SLOAD DUP2 PUSH20 0xFFFFFFFFFFFFFFFFFFFFFFFFFFFFFFFFFFFFFFFF MUL NOT AND SWAP1 DUP4 PUSH20 0xFFFFFFFFFFFFFFFFFFFFFFFFFFFFFFFFFFFFFFFF AND MUL OR SWAP1 SSTORE POP DUP6 PUSH1 0x7 PUSH1 0x0 PUSH2 0x100 EXP DUP2 SLOAD DUP2 PUSH20 0xFFFFFFFFFFFFFFFFFFFFFFFFFFFFFFFFFFFFFFFF MUL NOT AND SWAP1 DUP4 PUSH20 0xFFFFFFFFFFFFFFFFFFFFFFFFFFFFFFFFFFFFFFFF AND MUL OR SWAP1 SSTORE POP DUP4 ISZERO PUSH3 0x1659 JUMPI PUSH1 0x0 DUP6 PUSH1 0x0 ADD PUSH1 0x8 PUSH2 0x100 EXP DUP2 SLOAD DUP2 PUSH1 0xFF MUL NOT AND SWAP1 DUP4 ISZERO ISZERO MUL OR SWAP1 SSTORE POP PUSH32 0xC7F505B2F371AE2175EE4913F4499E1F2633A7B5936321EED1CDAEB6115181D2 PUSH1 0x1 PUSH1 0x40 MLOAD PUSH3 0x1650 SWAP2 SWAP1 PUSH3 0x3353 JUMP JUMPDEST PUSH1 0x40 MLOAD DUP1 SWAP2 SUB SWAP1 LOG1 JUMPDEST POP POP POP POP POP POP POP POP POP POP POP POP JUMP JUMPDEST PUSH1 0x0 DUP1 PUSH1 0xA DUP1 SLOAD SWAP1 POP GT PUSH3 0x16B3 JUMPI PUSH1 0x40 MLOAD PUSH32 0x8C379A000000000000000000000000000000000000000000000000000000000 DUP2 MSTORE PUSH1 0x4 ADD PUSH3 0x16AA SWAP1 PUSH3 0x33C0 JUMP JUMPDEST PUSH1 0x40 MLOAD DUP1 SWAP2 SUB SWAP1 REVERT JUMPDEST PUSH1 0x0 PUSH1 0x3 PUSH1 0x0 SWAP1 SLOAD SWAP1 PUSH2 0x100 EXP SWAP1 DIV PUSH20 0xFFFFFFFFFFFFFFFFFFFFFFFFFFFFFFFFFFFFFFFF AND PUSH20 0xFFFFFFFFFFFFFFFFFFFFFFFFFFFFFFFFFFFFFFFF AND PUSH4 0x6C0B3E46 PUSH1 0x40 MLOAD DUP2 PUSH4 0xFFFFFFFF AND PUSH1 0xE0 SHL DUP2 MSTORE PUSH1 0x4 ADD PUSH1 0x20 PUSH1 0x40 MLOAD DUP1 DUP4 SUB DUP2 DUP7 GAS STATICCALL ISZERO DUP1 ISZERO PUSH3 0x1723 JUMPI RETURNDATASIZE PUSH1 0x0 DUP1 RETURNDATACOPY RETURNDATASIZE PUSH1 0x0 REVERT JUMPDEST POP POP POP POP PUSH1 0x40 MLOAD RETURNDATASIZE PUSH1 0x1F NOT PUSH1 0x1F DUP3 ADD AND DUP3 ADD DUP1 PUSH1 0x40 MSTORE POP DUP2 ADD SWAP1 PUSH3 0x1749 SWAP2 SWAP1 PUSH3 0x33E2 JUMP JUMPDEST SWAP1 POP PUSH1 0x0 PUSH1 0x1 PUSH1 0x0 SWAP1 SLOAD SWAP1 PUSH2 0x100 EXP SWAP1 DIV PUSH20 0xFFFFFFFFFFFFFFFFFFFFFFFFFFFFFFFFFFFFFFFF AND PUSH20 0xFFFFFFFFFFFFFFFFFFFFFFFFFFFFFFFFFFFFFFFF AND PUSH4 0x70A08231 ADDRESS PUSH1 0x40 MLOAD DUP3 PUSH4 0xFFFFFFFF AND PUSH1 0xE0 SHL DUP2 MSTORE PUSH1 0x4 ADD PUSH3 0x17AA SWAP2 SWAP1 PUSH3 0x26AB JUMP JUMPDEST PUSH1 0x20 PUSH1 0x40 MLOAD DUP1 DUP4 SUB DUP2 DUP7 GAS STATICCALL ISZERO DUP1 ISZERO PUSH3 0x17C8 JUMPI RETURNDATASIZE PUSH1 0x0 DUP1 RETURNDATACOPY RETURNDATASIZE PUSH1 0x0 REVERT JUMPDEST POP POP POP POP PUSH1 0x40 MLOAD RETURNDATASIZE PUSH1 0x1F NOT PUSH1 0x1F DUP3 ADD AND DUP3 ADD DUP1 PUSH1 0x40 MSTORE POP DUP2 ADD SWAP1 PUSH3 0x17EE SWAP2 SWAP1 PUSH3 0x33E2 JUMP JUMPDEST SWAP1 POP PUSH1 0x0 DUP1 JUMPDEST PUSH1 0xA DUP1 SLOAD SWAP1 POP DUP2 PUSH4 0xFFFFFFFF AND LT ISZERO PUSH3 0x1BF0 JUMPI PUSH1 0x0 PUSH1 0xA DUP3 PUSH4 0xFFFFFFFF AND DUP2 SLOAD DUP2 LT PUSH3 0x1827 JUMPI PUSH3 0x1826 PUSH3 0x2F17 JUMP JUMPDEST JUMPDEST SWAP1 PUSH1 0x0 MSTORE PUSH1 0x20 PUSH1 0x0 KECCAK256 SWAP1 PUSH1 0x8 SWAP2 DUP3 DUP3 DIV ADD SWAP2 SWAP1 MOD PUSH1 0x4 MUL SWAP1 SLOAD SWAP1 PUSH2 0x100 EXP SWAP1 DIV PUSH4 0xFFFFFFFF AND SWAP1 POP PUSH1 0x0 PUSH1 0x8 PUSH1 0x0 DUP4 PUSH4 0xFFFFFFFF AND PUSH4 0xFFFFFFFF AND DUP2 MSTORE PUSH1 0x20 ADD SWAP1 DUP2 MSTORE PUSH1 0x20 ADD PUSH1 0x0 KECCAK256 PUSH1 0x0 SWAP1 SLOAD SWAP1 PUSH2 0x100 EXP SWAP1 DIV PUSH20 0xFFFFFFFFFFFFFFFFFFFFFFFFFFFFFFFFFFFFFFFF AND SWAP1 POP PUSH1 0x0 DUP2 PUSH20 0xFFFFFFFFFFFFFFFFFFFFFFFFFFFFFFFFFFFFFFFF AND PUSH4 0x76D9F95C PUSH1 0x40 MLOAD DUP2 PUSH4 0xFFFFFFFF AND PUSH1 0xE0 SHL DUP2 MSTORE PUSH1 0x4 ADD PUSH2 0x140 PUSH1 0x40 MLOAD DUP1 DUP4 SUB DUP2 DUP7 GAS STATICCALL ISZERO DUP1 ISZERO PUSH3 0x18E2 JUMPI RETURNDATASIZE PUSH1 0x0 DUP1 RETURNDATACOPY RETURNDATASIZE PUSH1 0x0 REVERT JUMPDEST POP POP POP POP PUSH1 0x40 MLOAD RETURNDATASIZE PUSH1 0x1F NOT PUSH1 0x1F DUP3 ADD AND DUP3 ADD DUP1 PUSH1 0x40 MSTORE POP DUP2 ADD SWAP1 PUSH3 0x1908 SWAP2 SWAP1 PUSH3 0x3088 JUMP JUMPDEST SWAP1 POP PUSH1 0x0 DUP1 DUP3 PUSH1 0x20 ADD MLOAD DUP4 PUSH1 0x0 ADD MLOAD SWAP2 POP SWAP2 POP DUP2 DUP8 PUSH3 0x1929 SWAP2 SWAP1 PUSH3 0x30BB JUMP JUMPDEST SWAP7 POP PUSH1 0x0 DUP10 DUP3 LT PUSH3 0x193D JUMPI PUSH1 0x0 PUSH3 0x194C JUMP JUMPDEST DUP2 DUP11 PUSH3 0x194B SWAP2 SWAP1 PUSH3 0x3414 JUMP JUMPDEST JUMPDEST SWAP1 POP PUSH1 0x0 PUSH3 0x195C DUP3 DUP12 PUSH3 0x231C JUMP JUMPDEST SWAP1 POP DUP1 DUP11 PUSH3 0x196C SWAP2 SWAP1 PUSH3 0x3414 JUMP JUMPDEST SWAP10 POP PUSH1 0x0 DUP5 DUP3 PUSH3 0x197E SWAP2 SWAP1 PUSH3 0x30BB JUMP JUMPDEST SWAP1 POP PUSH1 0x0 DUP2 SUB PUSH3 0x1997 JUMPI POP POP POP POP POP POP POP POP PUSH3 0x1BDA JUMP JUMPDEST DUP1 DUP14 PUSH3 0x19A5 SWAP2 SWAP1 PUSH3 0x30BB JUMP JUMPDEST SWAP13 POP PUSH1 0x0 PUSH1 0xC PUSH1 0x4 SWAP1 SLOAD SWAP1 PUSH2 0x100 EXP SWAP1 DIV PUSH1 0xFF AND DUP1 PUSH3 0x19D1 JUMPI POP DUP13 DUP3 DUP7 PUSH3 0x19CF SWAP2 SWAP1 PUSH3 0x30BB JUMP JUMPDEST GT JUMPDEST SWAP1 POP DUP1 DUP1 ISZERO PUSH3 0x19E1 JUMPI POP PUSH1 0x0 DUP7 GT JUMPDEST ISZERO PUSH3 0x1A69 JUMPI DUP8 PUSH20 0xFFFFFFFFFFFFFFFFFFFFFFFFFFFFFFFFFFFFFFFF AND PUSH4 0x56387B91 PUSH1 0xC PUSH1 0x0 SWAP1 SLOAD SWAP1 PUSH2 0x100 EXP SWAP1 DIV PUSH4 0xFFFFFFFF AND PUSH1 0x40 MLOAD DUP3 PUSH4 0xFFFFFFFF AND PUSH1 0xE0 SHL DUP2 MSTORE PUSH1 0x4 ADD PUSH3 0x1A34 SWAP2 SWAP1 PUSH3 0x26E9 JUMP JUMPDEST PUSH1 0x0 PUSH1 0x40 MLOAD DUP1 DUP4 SUB DUP2 PUSH1 0x0 DUP8 DUP1 EXTCODESIZE ISZERO DUP1 ISZERO PUSH3 0x1A4F JUMPI PUSH1 0x0 DUP1 REVERT JUMPDEST POP GAS CALL ISZERO DUP1 ISZERO PUSH3 0x1A64 JUMPI RETURNDATASIZE PUSH1 0x0 DUP1 RETURNDATACOPY RETURNDATASIZE PUSH1 0x0 REVERT JUMPDEST POP POP POP POP JUMPDEST DUP1 ISZERO DUP1 PUSH3 0x1A77 JUMPI POP PUSH1 0x0 DUP4 GT JUMPDEST ISZERO PUSH3 0x1BD0 JUMPI PUSH1 0x1 PUSH1 0x0 SWAP1 SLOAD SWAP1 PUSH2 0x100 EXP SWAP1 DIV PUSH20 0xFFFFFFFFFFFFFFFFFFFFFFFFFFFFFFFFFFFFFFFF AND PUSH20 0xFFFFFFFFFFFFFFFFFFFFFFFFFFFFFFFFFFFFFFFF AND PUSH4 0xA9059CBB DUP10 DUP6 PUSH1 0x40 MLOAD DUP4 PUSH4 0xFFFFFFFF AND PUSH1 0xE0 SHL DUP2 MSTORE PUSH1 0x4 ADD PUSH3 0x1ADC SWAP3 SWAP2 SWAP1 PUSH3 0x344F JUMP JUMPDEST PUSH1 0x20 PUSH1 0x40 MLOAD DUP1 DUP4 SUB DUP2 PUSH1 0x0 DUP8 GAS CALL ISZERO DUP1 ISZERO PUSH3 0x1AFC JUMPI RETURNDATASIZE PUSH1 0x0 DUP1 RETURNDATACOPY RETURNDATASIZE PUSH1 0x0 REVERT JUMPDEST POP POP POP POP PUSH1 0x40 MLOAD RETURNDATASIZE PUSH1 0x1F NOT PUSH1 0x1F DUP3 ADD AND DUP3 ADD DUP1 PUSH1 0x40 MSTORE POP DUP2 ADD SWAP1 PUSH3 0x1B22 SWAP2 SWAP1 PUSH3 0x314A JUMP JUMPDEST POP DUP8 PUSH20 0xFFFFFFFFFFFFFFFFFFFFFFFFFFFFFFFFFFFFFFFF AND PUSH4 0xA98D38F0 DUP5 PUSH1 0x40 MLOAD DUP3 PUSH4 0xFFFFFFFF AND PUSH1 0xE0 SHL DUP2 MSTORE PUSH1 0x4 ADD PUSH3 0x1B5E SWAP2 SWAP1 PUSH3 0x2883 JUMP JUMPDEST PUSH1 0x0 PUSH1 0x40 MLOAD DUP1 DUP4 SUB DUP2 PUSH1 0x0 DUP8 DUP1 EXTCODESIZE ISZERO DUP1 ISZERO PUSH3 0x1B79 JUMPI PUSH1 0x0 DUP1 REVERT JUMPDEST POP GAS CALL ISZERO DUP1 ISZERO PUSH3 0x1B8E JUMPI RETURNDATASIZE PUSH1 0x0 DUP1 RETURNDATACOPY RETURNDATASIZE PUSH1 0x0 REVERT JUMPDEST POP POP POP POP PUSH32 0xB8AAFDEC9BACDC76BFEA3C330063C391A2904D4F91E71F97A91534F3C8CE4AB5 DUP10 DUP5 DUP9 PUSH1 0x40 MLOAD PUSH3 0x1BC7 SWAP4 SWAP3 SWAP2 SWAP1 PUSH3 0x347C JUMP JUMPDEST PUSH1 0x40 MLOAD DUP1 SWAP2 SUB SWAP1 LOG1 JUMPDEST POP POP POP POP POP POP POP POP POP JUMPDEST DUP1 DUP1 PUSH3 0x1BE7 SWAP1 PUSH3 0x2EE6 JUMP JUMPDEST SWAP2 POP POP PUSH3 0x17F4 JUMP JUMPDEST POP PUSH1 0x0 DUP2 GT ISZERO PUSH3 0x1C22 JUMPI PUSH3 0x1C06 DUP2 PUSH3 0x2337 JUMP JUMPDEST DUP1 PUSH1 0xB PUSH1 0x0 DUP3 DUP3 SLOAD PUSH3 0x1C1A SWAP2 SWAP1 PUSH3 0x30BB JUMP JUMPDEST SWAP3 POP POP DUP2 SWAP1 SSTORE POP JUMPDEST POP POP POP SWAP1 JUMP JUMPDEST PUSH1 0xC PUSH1 0x4 SWAP1 SLOAD SWAP1 PUSH2 0x100 EXP SWAP1 DIV PUSH1 0xFF AND DUP2 JUMP JUMPDEST PUSH1 0x5 SLOAD DUP2 JUMP JUMPDEST PUSH1 0x1 PUSH1 0x0 SWAP1 SLOAD SWAP1 PUSH2 0x100 EXP SWAP1 DIV PUSH20 0xFFFFFFFFFFFFFFFFFFFFFFFFFFFFFFFFFFFFFFFF AND DUP2 JUMP JUMPDEST PUSH1 0x7 PUSH1 0x0 SWAP1 SLOAD SWAP1 PUSH2 0x100 EXP SWAP1 DIV PUSH20 0xFFFFFFFFFFFFFFFFFFFFFFFFFFFFFFFFFFFFFFFF AND DUP2 JUMP JUMPDEST PUSH3 0x1C97 PUSH3 0x1ED4 JUMP JUMPDEST PUSH3 0x1CA3 DUP3 DUP3 PUSH3 0x21AF JUMP JUMPDEST POP POP JUMP JUMPDEST PUSH3 0x1CB1 PUSH3 0x1ED4 JUMP JUMPDEST PUSH1 0x0 PUSH20 0xFFFFFFFFFFFFFFFFFFFFFFFFFFFFFFFFFFFFFFFF AND DUP2 PUSH20 0xFFFFFFFFFFFFFFFFFFFFFFFFFFFFFFFFFFFFFFFF AND SUB PUSH3 0x1D23 JUMPI PUSH1 0x40 MLOAD PUSH32 0x8C379A000000000000000000000000000000000000000000000000000000000 DUP2 MSTORE PUSH1 0x4 ADD PUSH3 0x1D1A SWAP1 PUSH3 0x3231 JUMP JUMPDEST PUSH1 0x40 MLOAD DUP1 SWAP2 SUB SWAP1 REVERT JUMPDEST DUP1 PUSH1 0x0 DUP1 PUSH2 0x100 EXP DUP2 SLOAD DUP2 PUSH20 0xFFFFFFFFFFFFFFFFFFFFFFFFFFFFFFFFFFFFFFFF MUL NOT AND SWAP1 DUP4 PUSH20 0xFFFFFFFFFFFFFFFFFFFFFFFFFFFFFFFFFFFFFFFF AND MUL OR SWAP1 SSTORE POP POP JUMP JUMPDEST PUSH3 0x1D70 PUSH3 0x1ED4 JUMP JUMPDEST PUSH1 0x0 PUSH1 0xC PUSH1 0x4 SWAP1 SLOAD SWAP1 PUSH2 0x100 EXP SWAP1 DIV PUSH1 0xFF AND SWAP1 POP DUP2 PUSH1 0xC PUSH1 0x4 PUSH2 0x100 EXP DUP2 SLOAD DUP2 PUSH1 0xFF MUL NOT AND SWAP1 DUP4 ISZERO ISZERO MUL OR SWAP1 SSTORE POP PUSH32 0xBA50596D5D8D3FFFDA559F307B84B1B0BDBA201192D70B393820EAB501346B1E DUP2 DUP4 PUSH1 0x40 MLOAD PUSH3 0x1DD1 SWAP3 SWAP2 SWAP1 PUSH3 0x34B9 JUMP JUMPDEST PUSH1 0x40 MLOAD DUP1 SWAP2 SUB SWAP1 LOG1 POP POP JUMP JUMPDEST PUSH3 0x1DE7 PUSH3 0x1ED4 JUMP JUMPDEST PUSH1 0x0 PUSH20 0xFFFFFFFFFFFFFFFFFFFFFFFFFFFFFFFFFFFFFFFF AND DUP2 PUSH20 0xFFFFFFFFFFFFFFFFFFFFFFFFFFFFFFFFFFFFFFFF AND SUB PUSH3 0x1E5C JUMPI PUSH1 0x0 PUSH1 0x40 MLOAD PUSH32 0x1E4FBDF700000000000000000000000000000000000000000000000000000000 DUP2 MSTORE PUSH1 0x4 ADD PUSH3 0x1E53 SWAP2 SWAP1 PUSH3 0x26AB JUMP JUMPDEST PUSH1 0x40 MLOAD DUP1 SWAP2 SUB SWAP1 REVERT JUMPDEST PUSH3 0x1E67 DUP2 PUSH3 0x20AE JUMP JUMPDEST POP JUMP JUMPDEST PUSH1 0x3 PUSH1 0x0 SWAP1 SLOAD SWAP1 PUSH2 0x100 EXP SWAP1 DIV PUSH20 0xFFFFFFFFFFFFFFFFFFFFFFFFFFFFFFFFFFFFFFFF AND DUP2 JUMP JUMPDEST DUP1 PUSH1 0x6 PUSH1 0x0 PUSH2 0x100 EXP DUP2 SLOAD DUP2 PUSH20 0xFFFFFFFFFFFFFFFFFFFFFFFFFFFFFFFFFFFFFFFF MUL NOT AND SWAP1 DUP4 PUSH20 0xFFFFFFFFFFFFFFFFFFFFFFFFFFFFFFFFFFFFFFFF AND MUL OR SWAP1 SSTORE POP POP JUMP JUMPDEST PUSH3 0x1EDE PUSH3 0x24BE JUMP JUMPDEST PUSH20 0xFFFFFFFFFFFFFFFFFFFFFFFFFFFFFFFFFFFFFFFF AND PUSH3 0x1EFE PUSH3 0xEA4 JUMP JUMPDEST PUSH20 0xFFFFFFFFFFFFFFFFFFFFFFFFFFFFFFFFFFFFFFFF AND EQ PUSH3 0x1F62 JUMPI PUSH3 0x1F24 PUSH3 0x24BE JUMP JUMPDEST PUSH1 0x40 MLOAD PUSH32 0x118CDAA700000000000000000000000000000000000000000000000000000000 DUP2 MSTORE PUSH1 0x4 ADD PUSH3 0x1F59 SWAP2 SWAP1 PUSH3 0x26AB JUMP JUMPDEST PUSH1 0x40 MLOAD DUP1 SWAP2 SUB SWAP1 REVERT JUMPDEST JUMP JUMPDEST PUSH1 0x0 PUSH3 0x1F71 DUP3 PUSH3 0x24C6 JUMP JUMPDEST SWAP1 POP PUSH4 0xFFFFFFFF DUP1 AND DUP2 PUSH4 0xFFFFFFFF AND LT PUSH3 0x1FC4 JUMPI PUSH1 0x40 MLOAD PUSH32 0x8C379A000000000000000000000000000000000000000000000000000000000 DUP2 MSTORE PUSH1 0x4 ADD PUSH3 0x1FBB SWAP1 PUSH3 0x3536 JUMP JUMPDEST PUSH1 0x40 MLOAD DUP1 SWAP2 SUB SWAP1 REVERT JUMPDEST PUSH1 0xA PUSH1 0x1 PUSH1 0xA DUP1 SLOAD SWAP1 POP PUSH3 0x1FDA SWAP2 SWAP1 PUSH3 0x3414 JUMP JUMPDEST DUP2 SLOAD DUP2 LT PUSH3 0x1FEE JUMPI PUSH3 0x1FED PUSH3 0x2F17 JUMP JUMPDEST JUMPDEST SWAP1 PUSH1 0x0 MSTORE PUSH1 0x20 PUSH1 0x0 KECCAK256 SWAP1 PUSH1 0x8 SWAP2 DUP3 DUP3 DIV ADD SWAP2 SWAP1 MOD PUSH1 0x4 MUL SWAP1 SLOAD SWAP1 PUSH2 0x100 EXP SWAP1 DIV PUSH4 0xFFFFFFFF AND PUSH1 0xA DUP3 PUSH4 0xFFFFFFFF AND DUP2 SLOAD DUP2 LT PUSH3 0x2031 JUMPI PUSH3 0x2030 PUSH3 0x2F17 JUMP JUMPDEST JUMPDEST SWAP1 PUSH1 0x0 MSTORE PUSH1 0x20 PUSH1 0x0 KECCAK256 SWAP1 PUSH1 0x8 SWAP2 DUP3 DUP3 DIV ADD SWAP2 SWAP1 MOD PUSH1 0x4 MUL PUSH2 0x100 EXP DUP2 SLOAD DUP2 PUSH4 0xFFFFFFFF MUL NOT AND SWAP1 DUP4 PUSH4 0xFFFFFFFF AND MUL OR SWAP1 SSTORE POP PUSH1 0xA DUP1 SLOAD DUP1 PUSH3 0x2079 JUMPI PUSH3 0x2078 PUSH3 0x3558 JUMP JUMPDEST JUMPDEST PUSH1 0x1 SWAP1 SUB DUP2 DUP2 SWAP1 PUSH1 0x0 MSTORE PUSH1 0x20 PUSH1 0x0 KECCAK256 SWAP1 PUSH1 0x8 SWAP2 DUP3 DUP3 DIV ADD SWAP2 SWAP1 MOD PUSH1 0x4 MUL PUSH2 0x100 EXP DUP2 SLOAD SWAP1 PUSH4 0xFFFFFFFF MUL NOT AND SWAP1 SSTORE SWAP1 SSTORE SWAP2 SWAP1 POP JUMP JUMPDEST PUSH1 0x0 PUSH3 0x20BA PUSH3 0x2187 JUMP JUMPDEST SWAP1 POP PUSH1 0x0 DUP2 PUSH1 0x0 ADD PUSH1 0x0 SWAP1 SLOAD SWAP1 PUSH2 0x100 EXP SWAP1 DIV PUSH20 0xFFFFFFFFFFFFFFFFFFFFFFFFFFFFFFFFFFFFFFFF AND SWAP1 POP DUP3 DUP3 PUSH1 0x0 ADD PUSH1 0x0 PUSH2 0x100 EXP DUP2 SLOAD DUP2 PUSH20 0xFFFFFFFFFFFFFFFFFFFFFFFFFFFFFFFFFFFFFFFF MUL NOT AND SWAP1 DUP4 PUSH20 0xFFFFFFFFFFFFFFFFFFFFFFFFFFFFFFFFFFFFFFFF AND MUL OR SWAP1 SSTORE POP DUP3 PUSH20 0xFFFFFFFFFFFFFFFFFFFFFFFFFFFFFFFFFFFFFFFF AND DUP2 PUSH20 0xFFFFFFFFFFFFFFFFFFFFFFFFFFFFFFFFFFFFFFFF AND PUSH32 0x8BE0079C531659141344CD1FD0A4F28419497F9722A3DAAFE3B4186F6B6457E0 PUSH1 0x40 MLOAD PUSH1 0x40 MLOAD DUP1 SWAP2 SUB SWAP1 LOG3 POP POP POP JUMP JUMPDEST PUSH1 0x0 PUSH32 0x9016D09D72D40FDAE2FD8CEAC6B6234C7706214FD39C1CD1E609A0528C199300 SWAP1 POP SWAP1 JUMP JUMPDEST DUP1 ISZERO PUSH3 0x22CB JUMPI PUSH1 0x0 JUMPDEST PUSH1 0xA DUP1 SLOAD SWAP1 POP DUP2 PUSH4 0xFFFFFFFF AND LT ISZERO PUSH3 0x2276 JUMPI DUP3 PUSH4 0xFFFFFFFF AND PUSH1 0xA DUP3 PUSH4 0xFFFFFFFF AND DUP2 SLOAD DUP2 LT PUSH3 0x21F1 JUMPI PUSH3 0x21F0 PUSH3 0x2F17 JUMP JUMPDEST JUMPDEST SWAP1 PUSH1 0x0 MSTORE PUSH1 0x20 PUSH1 0x0 KECCAK256 SWAP1 PUSH1 0x8 SWAP2 DUP3 DUP3 DIV ADD SWAP2 SWAP1 MOD PUSH1 0x4 MUL SWAP1 SLOAD SWAP1 PUSH2 0x100 EXP SWAP1 DIV PUSH4 0xFFFFFFFF AND PUSH4 0xFFFFFFFF AND SUB PUSH3 0x2260 JUMPI PUSH1 0x40 MLOAD PUSH32 0x8C379A000000000000000000000000000000000000000000000000000000000 DUP2 MSTORE PUSH1 0x4 ADD PUSH3 0x2257 SWAP1 PUSH3 0x35D7 JUMP JUMPDEST PUSH1 0x40 MLOAD DUP1 SWAP2 SUB SWAP1 REVERT JUMPDEST DUP1 DUP1 PUSH3 0x226D SWAP1 PUSH3 0x2EE6 JUMP JUMPDEST SWAP2 POP POP PUSH3 0x21B9 JUMP JUMPDEST POP PUSH1 0xA DUP3 SWAP1 DUP1 PUSH1 0x1 DUP2 SLOAD ADD DUP1 DUP3 SSTORE DUP1 SWAP2 POP POP PUSH1 0x1 SWAP1 SUB SWAP1 PUSH1 0x0 MSTORE PUSH1 0x20 PUSH1 0x0 KECCAK256 SWAP1 PUSH1 0x8 SWAP2 DUP3 DUP3 DIV ADD SWAP2 SWAP1 MOD PUSH1 0x4 MUL SWAP1 SWAP2 SWAP1 SWAP2 SWAP1 SWAP2 PUSH2 0x100 EXP DUP2 SLOAD DUP2 PUSH4 0xFFFFFFFF MUL NOT AND SWAP1 DUP4 PUSH4 0xFFFFFFFF AND MUL OR SWAP1 SSTORE POP PUSH3 0x22D8 JUMP JUMPDEST PUSH3 0x22D6 DUP3 PUSH3 0x1F64 JUMP JUMPDEST POP JUMPDEST POP POP JUMP JUMPDEST PUSH1 0x0 PUSH32 0xF0C57E16840DF040F15088DC2F81FE391C3923BEC73E23A9662EFC9C229C6A00 SWAP1 POP SWAP1 JUMP JUMPDEST PUSH3 0x230E PUSH3 0x2566 JUMP JUMPDEST PUSH3 0x2319 DUP2 PUSH3 0x25A9 JUMP JUMPDEST POP JUMP JUMPDEST PUSH1 0x0 DUP2 DUP4 LT PUSH3 0x232D JUMPI DUP2 PUSH3 0x232F JUMP JUMPDEST DUP3 JUMPDEST SWAP1 POP SWAP3 SWAP2 POP POP JUMP JUMPDEST PUSH1 0x0 PUSH4 0xEB82AFB3 PUSH1 0xE0 SHL DUP3 PUSH1 0x40 MLOAD PUSH1 0x24 ADD PUSH3 0x2354 SWAP2 SWAP1 PUSH3 0x2883 JUMP JUMPDEST PUSH1 0x40 MLOAD PUSH1 0x20 DUP2 DUP4 SUB SUB DUP2 MSTORE SWAP1 PUSH1 0x40 MSTORE SWAP1 PUSH28 0xFFFFFFFFFFFFFFFFFFFFFFFFFFFFFFFFFFFFFFFFFFFFFFFFFFFFFFFF NOT AND PUSH1 0x20 DUP3 ADD DUP1 MLOAD PUSH28 0xFFFFFFFFFFFFFFFFFFFFFFFFFFFFFFFFFFFFFFFFFFFFFFFFFFFFFFFF DUP4 DUP2 DUP4 AND OR DUP4 MSTORE POP POP POP POP SWAP1 POP PUSH1 0x4 PUSH1 0x0 SWAP1 SLOAD SWAP1 PUSH2 0x100 EXP SWAP1 DIV PUSH20 0xFFFFFFFFFFFFFFFFFFFFFFFFFFFFFFFFFFFFFFFF AND PUSH20 0xFFFFFFFFFFFFFFFFFFFFFFFFFFFFFFFFFFFFFFFF AND PUSH4 0x44DD5ED6 CALLVALUE PUSH1 0x5 SLOAD PUSH1 0x6 PUSH1 0x0 SWAP1 SLOAD SWAP1 PUSH2 0x100 EXP SWAP1 DIV PUSH20 0xFFFFFFFFFFFFFFFFFFFFFFFFFFFFFFFFFFFFFFFF AND DUP6 PUSH1 0xC PUSH1 0x0 SWAP1 SLOAD SWAP1 PUSH2 0x100 EXP SWAP1 DIV PUSH4 0xFFFFFFFF AND PUSH1 0x40 MLOAD DUP7 PUSH4 0xFFFFFFFF AND PUSH1 0xE0 SHL DUP2 MSTORE PUSH1 0x4 ADD PUSH3 0x244D SWAP5 SWAP4 SWAP3 SWAP2 SWAP1 PUSH3 0x35F9 JUMP JUMPDEST PUSH1 0x0 PUSH1 0x40 MLOAD DUP1 DUP4 SUB DUP2 DUP6 DUP9 DUP1 EXTCODESIZE ISZERO DUP1 ISZERO PUSH3 0x2467 JUMPI PUSH1 0x0 DUP1 REVERT JUMPDEST POP GAS CALL ISZERO DUP1 ISZERO PUSH3 0x247C JUMPI RETURNDATASIZE PUSH1 0x0 DUP1 RETURNDATACOPY RETURNDATASIZE PUSH1 0x0 REVERT JUMPDEST POP POP POP POP POP PUSH32 0xD644E527C1896057CE642ADFBC00F04D6B23D4C2FB30529522184D151DC087DC DUP3 PUSH1 0x40 MLOAD PUSH3 0x24B2 SWAP2 SWAP1 PUSH3 0x2883 JUMP JUMPDEST PUSH1 0x40 MLOAD DUP1 SWAP2 SUB SWAP1 LOG1 POP POP JUMP JUMPDEST PUSH1 0x0 CALLER SWAP1 POP SWAP1 JUMP JUMPDEST PUSH1 0x0 DUP1 PUSH1 0x0 SWAP1 POP JUMPDEST PUSH1 0xA DUP1 SLOAD SWAP1 POP DUP2 PUSH4 0xFFFFFFFF AND LT ISZERO PUSH3 0x2558 JUMPI DUP3 PUSH4 0xFFFFFFFF AND PUSH1 0xA DUP3 PUSH4 0xFFFFFFFF AND DUP2 SLOAD DUP2 LT PUSH3 0x2506 JUMPI PUSH3 0x2505 PUSH3 0x2F17 JUMP JUMPDEST JUMPDEST SWAP1 PUSH1 0x0 MSTORE PUSH1 0x20 PUSH1 0x0 KECCAK256 SWAP1 PUSH1 0x8 SWAP2 DUP3 DUP3 DIV ADD SWAP2 SWAP1 MOD PUSH1 0x4 MUL SWAP1 SLOAD SWAP1 PUSH2 0x100 EXP SWAP1 DIV PUSH4 0xFFFFFFFF AND PUSH4 0xFFFFFFFF AND SUB PUSH3 0x2542 JUMPI DUP1 SWAP2 POP POP PUSH3 0x2561 JUMP JUMPDEST DUP1 DUP1 PUSH3 0x254F SWAP1 PUSH3 0x2EE6 JUMP JUMPDEST SWAP2 POP POP PUSH3 0x24CE JUMP JUMPDEST POP PUSH4 0xFFFFFFFF SWAP1 POP JUMPDEST SWAP2 SWAP1 POP JUMP JUMPDEST PUSH3 0x2570 PUSH3 0x2636 JUMP JUMPDEST PUSH3 0x25A7 JUMPI PUSH1 0x40 MLOAD PUSH32 0xD7E6BCF800000000000000000000000000000000000000000000000000000000 DUP2 MSTORE PUSH1 0x4 ADD PUSH1 0x40 MLOAD DUP1 SWAP2 SUB SWAP1 REVERT JUMPDEST JUMP JUMPDEST PUSH3 0x25B3 PUSH3 0x2566 JUMP JUMPDEST PUSH1 0x0 PUSH20 0xFFFFFFFFFFFFFFFFFFFFFFFFFFFFFFFFFFFFFFFF AND DUP2 PUSH20 0xFFFFFFFFFFFFFFFFFFFFFFFFFFFFFFFFFFFFFFFF AND SUB PUSH3 0x2628 JUMPI PUSH1 0x0 PUSH1 0x40 MLOAD PUSH32 0x1E4FBDF700000000000000000000000000000000000000000000000000000000 DUP2 MSTORE PUSH1 0x4 ADD PUSH3 0x261F SWAP2 SWAP1 PUSH3 0x26AB JUMP JUMPDEST PUSH1 0x40 MLOAD DUP1 SWAP2 SUB SWAP1 REVERT JUMPDEST PUSH3 0x2633 DUP2 PUSH3 0x20AE JUMP JUMPDEST POP JUMP JUMPDEST PUSH1 0x0 PUSH3 0x2642 PUSH3 0x22DC JUMP JUMPDEST PUSH1 0x0 ADD PUSH1 0x8 SWAP1 SLOAD SWAP1 PUSH2 0x100 EXP SWAP1 DIV PUSH1 0xFF AND SWAP1 POP SWAP1 JUMP JUMPDEST PUSH2 0x960 DUP1 PUSH3 0x364E DUP4 CODECOPY ADD SWAP1 JUMP JUMPDEST PUSH1 0x0 PUSH20 0xFFFFFFFFFFFFFFFFFFFFFFFFFFFFFFFFFFFFFFFF DUP3 AND SWAP1 POP SWAP2 SWAP1 POP JUMP JUMPDEST PUSH1 0x0 PUSH3 0x2693 DUP3 PUSH3 0x2666 JUMP JUMPDEST SWAP1 POP SWAP2 SWAP1 POP JUMP JUMPDEST PUSH3 0x26A5 DUP2 PUSH3 0x2686 JUMP JUMPDEST DUP3 MSTORE POP POP JUMP JUMPDEST PUSH1 0x0 PUSH1 0x20 DUP3 ADD SWAP1 POP PUSH3 0x26C2 PUSH1 0x0 DUP4 ADD DUP5 PUSH3 0x269A JUMP JUMPDEST SWAP3 SWAP2 POP POP JUMP JUMPDEST PUSH1 0x0 PUSH4 0xFFFFFFFF DUP3 AND SWAP1 POP SWAP2 SWAP1 POP JUMP JUMPDEST PUSH3 0x26E3 DUP2 PUSH3 0x26C8 JUMP JUMPDEST DUP3 MSTORE POP POP JUMP JUMPDEST PUSH1 0x0 PUSH1 0x20 DUP3 ADD SWAP1 POP PUSH3 0x2700 PUSH1 0x0 DUP4 ADD DUP5 PUSH3 0x26D8 JUMP JUMPDEST SWAP3 SWAP2 POP POP JUMP JUMPDEST PUSH1 0x0 PUSH1 0x40 MLOAD SWAP1 POP SWAP1 JUMP JUMPDEST PUSH1 0x0 DUP1 REVERT JUMPDEST PUSH1 0x0 DUP1 REVERT JUMPDEST PUSH3 0x2725 DUP2 PUSH3 0x26C8 JUMP JUMPDEST DUP2 EQ PUSH3 0x2731 JUMPI PUSH1 0x0 DUP1 REVERT JUMPDEST POP JUMP JUMPDEST PUSH1 0x0 DUP2 CALLDATALOAD SWAP1 POP PUSH3 0x2745 DUP2 PUSH3 0x271A JUMP JUMPDEST SWAP3 SWAP2 POP POP JUMP JUMPDEST PUSH1 0x0 PUSH1 0x20 DUP3 DUP5 SUB SLT ISZERO PUSH3 0x2764 JUMPI PUSH3 0x2763 PUSH3 0x2710 JUMP JUMPDEST JUMPDEST PUSH1 0x0 PUSH3 0x2774 DUP5 DUP3 DUP6 ADD PUSH3 0x2734 JUMP JUMPDEST SWAP2 POP POP SWAP3 SWAP2 POP POP JUMP JUMPDEST PUSH1 0x0 DUP2 SWAP1 POP SWAP2 SWAP1 POP JUMP JUMPDEST PUSH3 0x2792 DUP2 PUSH3 0x277D JUMP JUMPDEST DUP2 EQ PUSH3 0x279E JUMPI PUSH1 0x0 DUP1 REVERT JUMPDEST POP JUMP JUMPDEST PUSH1 0x0 DUP2 CALLDATALOAD SWAP1 POP PUSH3 0x27B2 DUP2 PUSH3 0x2787 JUMP JUMPDEST SWAP3 SWAP2 POP POP JUMP JUMPDEST PUSH1 0x0 PUSH1 0x20 DUP3 DUP5 SUB SLT ISZERO PUSH3 0x27D1 JUMPI PUSH3 0x27D0 PUSH3 0x2710 JUMP JUMPDEST JUMPDEST PUSH1 0x0 PUSH3 0x27E1 DUP5 DUP3 DUP6 ADD PUSH3 0x27A1 JUMP JUMPDEST SWAP2 POP POP SWAP3 SWAP2 POP POP JUMP JUMPDEST PUSH1 0x0 DUP2 SWAP1 POP SWAP2 SWAP1 POP JUMP JUMPDEST PUSH1 0x0 PUSH3 0x2815 PUSH3 0x280F PUSH3 0x2809 DUP5 PUSH3 0x2666 JUMP JUMPDEST PUSH3 0x27EA JUMP JUMPDEST PUSH3 0x2666 JUMP JUMPDEST SWAP1 POP SWAP2 SWAP1 POP JUMP JUMPDEST PUSH1 0x0 PUSH3 0x2829 DUP3 PUSH3 0x27F4 JUMP JUMPDEST SWAP1 POP SWAP2 SWAP1 POP JUMP JUMPDEST PUSH1 0x0 PUSH3 0x283D DUP3 PUSH3 0x281C JUMP JUMPDEST SWAP1 POP SWAP2 SWAP1 POP JUMP JUMPDEST PUSH3 0x284F DUP2 PUSH3 0x2830 JUMP JUMPDEST DUP3 MSTORE POP POP JUMP JUMPDEST PUSH1 0x0 PUSH1 0x20 DUP3 ADD SWAP1 POP PUSH3 0x286C PUSH1 0x0 DUP4 ADD DUP5 PUSH3 0x2844 JUMP JUMPDEST SWAP3 SWAP2 POP POP JUMP JUMPDEST PUSH3 0x287D DUP2 PUSH3 0x277D JUMP JUMPDEST DUP3 MSTORE POP POP JUMP JUMPDEST PUSH1 0x0 PUSH1 0x20 DUP3 ADD SWAP1 POP PUSH3 0x289A PUSH1 0x0 DUP4 ADD DUP5 PUSH3 0x2872 JUMP JUMPDEST SWAP3 SWAP2 POP POP JUMP JUMPDEST PUSH1 0x0 PUSH3 0x28AD DUP3 PUSH3 0x281C JUMP JUMPDEST SWAP1 POP SWAP2 SWAP1 POP JUMP JUMPDEST PUSH3 0x28BF DUP2 PUSH3 0x28A0 JUMP JUMPDEST DUP3 MSTORE POP POP JUMP JUMPDEST PUSH1 0x0 PUSH1 0x20 DUP3 ADD SWAP1 POP PUSH3 0x28DC PUSH1 0x0 DUP4 ADD DUP5 PUSH3 0x28B4 JUMP JUMPDEST SWAP3 SWAP2 POP POP JUMP JUMPDEST PUSH3 0x28ED DUP2 PUSH3 0x2686 JUMP JUMPDEST DUP2 EQ PUSH3 0x28F9 JUMPI PUSH1 0x0 DUP1 REVERT JUMPDEST POP JUMP JUMPDEST PUSH1 0x0 DUP2 CALLDATALOAD SWAP1 POP PUSH3 0x290D DUP2 PUSH3 0x28E2 JUMP JUMPDEST SWAP3 SWAP2 POP POP JUMP JUMPDEST PUSH1 0x0 DUP1 REVERT JUMPDEST PUSH1 0x0 DUP1 REVERT JUMPDEST PUSH1 0x0 PUSH1 0x1F NOT PUSH1 0x1F DUP4 ADD AND SWAP1 POP SWAP2 SWAP1 POP JUMP JUMPDEST PUSH32 0x4E487B7100000000000000000000000000000000000000000000000000000000 PUSH1 0x0 MSTORE PUSH1 0x41 PUSH1 0x4 MSTORE PUSH1 0x24 PUSH1 0x0 REVERT JUMPDEST PUSH3 0x2968 DUP3 PUSH3 0x291D JUMP JUMPDEST DUP2 ADD DUP2 DUP2 LT PUSH8 0xFFFFFFFFFFFFFFFF DUP3 GT OR ISZERO PUSH3 0x298A JUMPI PUSH3 0x2989 PUSH3 0x292E JUMP JUMPDEST JUMPDEST DUP1 PUSH1 0x40 MSTORE POP POP POP JUMP JUMPDEST PUSH1 0x0 PUSH3 0x299F PUSH3 0x2706 JUMP JUMPDEST SWAP1 POP PUSH3 0x29AD DUP3 DUP3 PUSH3 0x295D JUMP JUMPDEST SWAP2 SWAP1 POP JUMP JUMPDEST PUSH1 0x0 PUSH8 0xFFFFFFFFFFFFFFFF DUP3 GT ISZERO PUSH3 0x29D0 JUMPI PUSH3 0x29CF PUSH3 0x292E JUMP JUMPDEST JUMPDEST PUSH3 0x29DB DUP3 PUSH3 0x291D JUMP JUMPDEST SWAP1 POP PUSH1 0x20 DUP2 ADD SWAP1 POP SWAP2 SWAP1 POP JUMP JUMPDEST DUP3 DUP2 DUP4 CALLDATACOPY PUSH1 0x0 DUP4 DUP4 ADD MSTORE POP POP POP JUMP JUMPDEST PUSH1 0x0 PUSH3 0x2A0E PUSH3 0x2A08 DUP5 PUSH3 0x29B2 JUMP JUMPDEST PUSH3 0x2993 JUMP JUMPDEST SWAP1 POP DUP3 DUP2 MSTORE PUSH1 0x20 DUP2 ADD DUP5 DUP5 DUP5 ADD GT ISZERO PUSH3 0x2A2D JUMPI PUSH3 0x2A2C PUSH3 0x2918 JUMP JUMPDEST JUMPDEST PUSH3 0x2A3A DUP5 DUP3 DUP6 PUSH3 0x29E8 JUMP JUMPDEST POP SWAP4 SWAP3 POP POP POP JUMP JUMPDEST PUSH1 0x0 DUP3 PUSH1 0x1F DUP4 ADD SLT PUSH3 0x2A5A JUMPI PUSH3 0x2A59 PUSH3 0x2913 JUMP JUMPDEST JUMPDEST DUP2 CALLDATALOAD PUSH3 0x2A6C DUP5 DUP3 PUSH1 0x20 DUP7 ADD PUSH3 0x29F7 JUMP JUMPDEST SWAP2 POP POP SWAP3 SWAP2 POP POP JUMP JUMPDEST PUSH1 0x0 DUP1 PUSH1 0x0 DUP1 PUSH1 0x80 DUP6 DUP8 SUB SLT ISZERO PUSH3 0x2A92 JUMPI PUSH3 0x2A91 PUSH3 0x2710 JUMP JUMPDEST JUMPDEST PUSH1 0x0 PUSH3 0x2AA2 DUP8 DUP3 DUP9 ADD PUSH3 0x2734 JUMP JUMPDEST SWAP5 POP POP PUSH1 0x20 PUSH3 0x2AB5 DUP8 DUP3 DUP9 ADD PUSH3 0x28FC JUMP JUMPDEST SWAP4 POP POP PUSH1 0x40 PUSH3 0x2AC8 DUP8 DUP3 DUP9 ADD PUSH3 0x27A1 JUMP JUMPDEST SWAP3 POP POP PUSH1 0x60 DUP6 ADD CALLDATALOAD PUSH8 0xFFFFFFFFFFFFFFFF DUP2 GT ISZERO PUSH3 0x2AEC JUMPI PUSH3 0x2AEB PUSH3 0x2715 JUMP JUMPDEST JUMPDEST PUSH3 0x2AFA DUP8 DUP3 DUP9 ADD PUSH3 0x2A42 JUMP JUMPDEST SWAP2 POP POP SWAP3 SWAP6 SWAP2 SWAP5 POP SWAP3 POP JUMP JUMPDEST PUSH1 0x0 DUP1 PUSH1 0x0 DUP1 PUSH1 0x0 DUP1 PUSH1 0x0 PUSH1 0xE0 DUP9 DUP11 SUB SLT ISZERO PUSH3 0x2B28 JUMPI PUSH3 0x2B27 PUSH3 0x2710 JUMP JUMPDEST JUMPDEST PUSH1 0x0 PUSH3 0x2B38 DUP11 DUP3 DUP12 ADD PUSH3 0x28FC JUMP JUMPDEST SWAP8 POP POP PUSH1 0x20 PUSH3 0x2B4B DUP11 DUP3 DUP12 ADD PUSH3 0x28FC JUMP JUMPDEST SWAP7 POP POP PUSH1 0x40 PUSH3 0x2B5E DUP11 DUP3 DUP12 ADD PUSH3 0x28FC JUMP JUMPDEST SWAP6 POP POP PUSH1 0x60 PUSH3 0x2B71 DUP11 DUP3 DUP12 ADD PUSH3 0x27A1 JUMP JUMPDEST SWAP5 POP POP PUSH1 0x80 PUSH3 0x2B84 DUP11 DUP3 DUP12 ADD PUSH3 0x2734 JUMP JUMPDEST SWAP4 POP POP PUSH1 0xA0 PUSH3 0x2B97 DUP11 DUP3 DUP12 ADD PUSH3 0x28FC JUMP JUMPDEST SWAP3 POP POP PUSH1 0xC0 PUSH3 0x2BAA DUP11 DUP3 DUP12 ADD PUSH3 0x28FC JUMP JUMPDEST SWAP2 POP POP SWAP3 SWAP6 SWAP9 SWAP2 SWAP5 SWAP8 POP SWAP3 SWAP6 POP JUMP JUMPDEST PUSH1 0x0 DUP2 ISZERO ISZERO SWAP1 POP SWAP2 SWAP1 POP JUMP JUMPDEST PUSH3 0x2BD0 DUP2 PUSH3 0x2BB9 JUMP JUMPDEST DUP3 MSTORE POP POP JUMP JUMPDEST PUSH1 0x0 PUSH1 0x20 DUP3 ADD SWAP1 POP PUSH3 0x2BED PUSH1 0x0 DUP4 ADD DUP5 PUSH3 0x2BC5 JUMP JUMPDEST SWAP3 SWAP2 POP POP JUMP JUMPDEST PUSH1 0x0 PUSH3 0x2C00 DUP3 PUSH3 0x281C JUMP JUMPDEST SWAP1 POP SWAP2 SWAP1 POP JUMP JUMPDEST PUSH3 0x2C12 DUP2 PUSH3 0x2BF3 JUMP JUMPDEST DUP3 MSTORE POP POP JUMP JUMPDEST PUSH1 0x0 PUSH1 0x20 DUP3 ADD SWAP1 POP PUSH3 0x2C2F PUSH1 0x0 DUP4 ADD DUP5 PUSH3 0x2C07 JUMP JUMPDEST SWAP3 SWAP2 POP POP JUMP JUMPDEST PUSH3 0x2C40 DUP2 PUSH3 0x2BB9 JUMP JUMPDEST DUP2 EQ PUSH3 0x2C4C JUMPI PUSH1 0x0 DUP1 REVERT JUMPDEST POP JUMP JUMPDEST PUSH1 0x0 DUP2 CALLDATALOAD SWAP1 POP PUSH3 0x2C60 DUP2 PUSH3 0x2C35 JUMP JUMPDEST SWAP3 SWAP2 POP POP JUMP JUMPDEST PUSH1 0x0 DUP1 PUSH1 0x40 DUP4 DUP6 SUB SLT ISZERO PUSH3 0x2C80 JUMPI PUSH3 0x2C7F PUSH3 0x2710 JUMP JUMPDEST JUMPDEST PUSH1 0x0 PUSH3 0x2C90 DUP6 DUP3 DUP7 ADD PUSH3 0x2734 JUMP JUMPDEST SWAP3 POP POP PUSH1 0x20 PUSH3 0x2CA3 DUP6 DUP3 DUP7 ADD PUSH3 0x2C4F JUMP JUMPDEST SWAP2 POP POP SWAP3 POP SWAP3 SWAP1 POP JUMP JUMPDEST PUSH1 0x0 PUSH1 0x20 DUP3 DUP5 SUB SLT ISZERO PUSH3 0x2CC6 JUMPI PUSH3 0x2CC5 PUSH3 0x2710 JUMP JUMPDEST JUMPDEST PUSH1 0x0 PUSH3 0x2CD6 DUP5 DUP3 DUP6 ADD PUSH3 0x28FC JUMP JUMPDEST SWAP2 POP POP SWAP3 SWAP2 POP POP JUMP JUMPDEST PUSH1 0x0 PUSH1 0x20 DUP3 DUP5 SUB SLT ISZERO PUSH3 0x2CF8 JUMPI PUSH3 0x2CF7 PUSH3 0x2710 JUMP JUMPDEST JUMPDEST PUSH1 0x0 PUSH3 0x2D08 DUP5 DUP3 DUP6 ADD PUSH3 0x2C4F JUMP JUMPDEST SWAP2 POP POP SWAP3 SWAP2 POP POP JUMP JUMPDEST PUSH1 0x0 PUSH3 0x2D1E DUP3 PUSH3 0x281C JUMP JUMPDEST SWAP1 POP SWAP2 SWAP1 POP JUMP JUMPDEST PUSH3 0x2D30 DUP2 PUSH3 0x2D11 JUMP JUMPDEST DUP3 MSTORE POP POP JUMP JUMPDEST PUSH1 0x0 PUSH1 0x20 DUP3 ADD SWAP1 POP PUSH3 0x2D4D PUSH1 0x0 DUP4 ADD DUP5 PUSH3 0x2D25 JUMP JUMPDEST SWAP3 SWAP2 POP POP JUMP JUMPDEST PUSH1 0x0 PUSH1 0x40 DUP3 ADD SWAP1 POP PUSH3 0x2D6A PUSH1 0x0 DUP4 ADD DUP6 PUSH3 0x26D8 JUMP JUMPDEST PUSH3 0x2D79 PUSH1 0x20 DUP4 ADD DUP5 PUSH3 0x26D8 JUMP JUMPDEST SWAP4 SWAP3 POP POP POP JUMP JUMPDEST PUSH1 0x0 PUSH1 0x80 DUP3 ADD SWAP1 POP PUSH3 0x2D97 PUSH1 0x0 DUP4 ADD DUP8 PUSH3 0x269A JUMP JUMPDEST PUSH3 0x2DA6 PUSH1 0x20 DUP4 ADD DUP7 PUSH3 0x28B4 JUMP JUMPDEST PUSH3 0x2DB5 PUSH1 0x40 DUP4 ADD DUP6 PUSH3 0x2D25 JUMP JUMPDEST PUSH3 0x2DC4 PUSH1 0x60 DUP4 ADD DUP5 PUSH3 0x269A JUMP JUMPDEST SWAP6 SWAP5 POP POP POP POP POP JUMP JUMPDEST PUSH1 0x0 DUP2 MLOAD SWAP1 POP SWAP2 SWAP1 POP JUMP JUMPDEST PUSH1 0x0 DUP3 DUP3 MSTORE PUSH1 0x20 DUP3 ADD SWAP1 POP SWAP3 SWAP2 POP POP JUMP JUMPDEST PUSH1 0x0 JUMPDEST DUP4 DUP2 LT ISZERO PUSH3 0x2E09 JUMPI DUP1 DUP3 ADD MLOAD DUP2 DUP5 ADD MSTORE PUSH1 0x20 DUP2 ADD SWAP1 POP PUSH3 0x2DEC JUMP JUMPDEST PUSH1 0x0 DUP5 DUP5 ADD MSTORE POP POP POP POP JUMP JUMPDEST PUSH1 0x0 PUSH3 0x2E22 DUP3 PUSH3 0x2DCD JUMP JUMPDEST PUSH3 0x2E2E DUP2 DUP6 PUSH3 0x2DD8 JUMP JUMPDEST SWAP4 POP PUSH3 0x2E40 DUP2 DUP6 PUSH1 0x20 DUP7 ADD PUSH3 0x2DE9 JUMP JUMPDEST PUSH3 0x2E4B DUP2 PUSH3 0x291D JUMP JUMPDEST DUP5 ADD SWAP2 POP POP SWAP3 SWAP2 POP POP JUMP JUMPDEST PUSH1 0x0 PUSH1 0x40 DUP3 ADD SWAP1 POP PUSH3 0x2E6D PUSH1 0x0 DUP4 ADD DUP6 PUSH3 0x269A JUMP JUMPDEST DUP2 DUP2 SUB PUSH1 0x20 DUP4 ADD MSTORE PUSH3 0x2E81 DUP2 DUP5 PUSH3 0x2E15 JUMP JUMPDEST SWAP1 POP SWAP4 SWAP3 POP POP POP JUMP JUMPDEST PUSH1 0x0 PUSH1 0x40 DUP3 ADD SWAP1 POP PUSH3 0x2EA1 PUSH1 0x0 DUP4 ADD DUP6 PUSH3 0x26D8 JUMP JUMPDEST PUSH3 0x2EB0 PUSH1 0x20 DUP4 ADD DUP5 PUSH3 0x269A JUMP JUMPDEST SWAP4 SWAP3 POP POP POP JUMP JUMPDEST PUSH32 0x4E487B7100000000000000000000000000000000000000000000000000000000 PUSH1 0x0 MSTORE PUSH1 0x11 PUSH1 0x4 MSTORE PUSH1 0x24 PUSH1 0x0 REVERT JUMPDEST PUSH1 0x0 PUSH3 0x2EF3 DUP3 PUSH3 0x26C8 JUMP JUMPDEST SWAP2 POP PUSH4 0xFFFFFFFF DUP3 SUB PUSH3 0x2F0C JUMPI PUSH3 0x2F0B PUSH3 0x2EB7 JUMP JUMPDEST JUMPDEST PUSH1 0x1 DUP3 ADD SWAP1 POP SWAP2 SWAP1 POP JUMP JUMPDEST PUSH32 0x4E487B7100000000000000000000000000000000000000000000000000000000 PUSH1 0x0 MSTORE PUSH1 0x32 PUSH1 0x4 MSTORE PUSH1 0x24 PUSH1 0x0 REVERT JUMPDEST PUSH1 0x0 DUP1 REVERT JUMPDEST PUSH1 0x0 DUP2 MLOAD SWAP1 POP PUSH3 0x2F5C DUP2 PUSH3 0x2787 JUMP JUMPDEST SWAP3 SWAP2 POP POP JUMP JUMPDEST PUSH1 0x0 DUP2 MLOAD SWAP1 POP PUSH3 0x2F73 DUP2 PUSH3 0x28E2 JUMP JUMPDEST SWAP3 SWAP2 POP POP JUMP JUMPDEST PUSH1 0x0 PUSH2 0x140 DUP3 DUP5 SUB SLT ISZERO PUSH3 0x2F93 JUMPI PUSH3 0x2F92 PUSH3 0x2F46 JUMP JUMPDEST JUMPDEST PUSH3 0x2FA0 PUSH2 0x140 PUSH3 0x2993 JUMP JUMPDEST SWAP1 POP PUSH1 0x0 PUSH3 0x2FB2 DUP5 DUP3 DUP6 ADD PUSH3 0x2F4B JUMP JUMPDEST PUSH1 0x0 DUP4 ADD MSTORE POP PUSH1 0x20 PUSH3 0x2FC8 DUP5 DUP3 DUP6 ADD PUSH3 0x2F4B JUMP JUMPDEST PUSH1 0x20 DUP4 ADD MSTORE POP PUSH1 0x40 PUSH3 0x2FDE DUP5 DUP3 DUP6 ADD PUSH3 0x2F4B JUMP JUMPDEST PUSH1 0x40 DUP4 ADD MSTORE POP PUSH1 0x60 PUSH3 0x2FF4 DUP5 DUP3 DUP6 ADD PUSH3 0x2F4B JUMP JUMPDEST PUSH1 0x60 DUP4 ADD MSTORE POP PUSH1 0x80 PUSH3 0x300A DUP5 DUP3 DUP6 ADD PUSH3 0x2F4B JUMP JUMPDEST PUSH1 0x80 DUP4 ADD MSTORE POP PUSH1 0xA0 PUSH3 0x3020 DUP5 DUP3 DUP6 ADD PUSH3 0x2F4B JUMP JUMPDEST PUSH1 0xA0 DUP4 ADD MSTORE POP PUSH1 0xC0 PUSH3 0x3036 DUP5 DUP3 DUP6 ADD PUSH3 0x2F4B JUMP JUMPDEST PUSH1 0xC0 DUP4 ADD MSTORE POP PUSH1 0xE0 PUSH3 0x304C DUP5 DUP3 DUP6 ADD PUSH3 0x2F4B JUMP JUMPDEST PUSH1 0xE0 DUP4 ADD MSTORE POP PUSH2 0x100 PUSH3 0x3063 DUP5 DUP3 DUP6 ADD PUSH3 0x2F62 JUMP JUMPDEST PUSH2 0x100 DUP4 ADD MSTORE POP PUSH2 0x120 PUSH3 0x307B DUP5 DUP3 DUP6 ADD PUSH3 0x2F62 JUMP JUMPDEST PUSH2 0x120 DUP4 ADD MSTORE POP SWAP3 SWAP2 POP POP JUMP JUMPDEST PUSH1 0x0 PUSH2 0x140 DUP3 DUP5 SUB SLT ISZERO PUSH3 0x30A2 JUMPI PUSH3 0x30A1 PUSH3 0x2710 JUMP JUMPDEST JUMPDEST PUSH1 0x0 PUSH3 0x30B2 DUP5 DUP3 DUP6 ADD PUSH3 0x2F79 JUMP JUMPDEST SWAP2 POP POP SWAP3 SWAP2 POP POP JUMP JUMPDEST PUSH1 0x0 PUSH3 0x30C8 DUP3 PUSH3 0x277D JUMP JUMPDEST SWAP2 POP PUSH3 0x30D5 DUP4 PUSH3 0x277D JUMP JUMPDEST SWAP3 POP DUP3 DUP3 ADD SWAP1 POP DUP1 DUP3 GT ISZERO PUSH3 0x30F0 JUMPI PUSH3 0x30EF PUSH3 0x2EB7 JUMP JUMPDEST JUMPDEST SWAP3 SWAP2 POP POP JUMP JUMPDEST PUSH1 0x0 PUSH1 0x60 DUP3 ADD SWAP1 POP PUSH3 0x310D PUSH1 0x0 DUP4 ADD DUP7 PUSH3 0x269A JUMP JUMPDEST PUSH3 0x311C PUSH1 0x20 DUP4 ADD DUP6 PUSH3 0x269A JUMP JUMPDEST PUSH3 0x312B PUSH1 0x40 DUP4 ADD DUP5 PUSH3 0x2872 JUMP JUMPDEST SWAP5 SWAP4 POP POP POP POP JUMP JUMPDEST PUSH1 0x0 DUP2 MLOAD SWAP1 POP PUSH3 0x3144 DUP2 PUSH3 0x2C35 JUMP JUMPDEST SWAP3 SWAP2 POP POP JUMP JUMPDEST PUSH1 0x0 PUSH1 0x20 DUP3 DUP5 SUB SLT ISZERO PUSH3 0x3163 JUMPI PUSH3 0x3162 PUSH3 0x2710 JUMP JUMPDEST JUMPDEST PUSH1 0x0 PUSH3 0x3173 DUP5 DUP3 DUP6 ADD PUSH3 0x3133 JUMP JUMPDEST SWAP2 POP POP SWAP3 SWAP2 POP POP JUMP JUMPDEST PUSH1 0x0 PUSH1 0x80 DUP3 ADD SWAP1 POP PUSH3 0x3193 PUSH1 0x0 DUP4 ADD DUP8 PUSH3 0x269A JUMP JUMPDEST PUSH3 0x31A2 PUSH1 0x20 DUP4 ADD DUP7 PUSH3 0x269A JUMP JUMPDEST PUSH3 0x31B1 PUSH1 0x40 DUP4 ADD DUP6 PUSH3 0x2872 JUMP JUMPDEST DUP2 DUP2 SUB PUSH1 0x60 DUP4 ADD MSTORE PUSH3 0x31C5 DUP2 DUP5 PUSH3 0x2E15 JUMP JUMPDEST SWAP1 POP SWAP6 SWAP5 POP POP POP POP POP JUMP JUMPDEST PUSH1 0x0 DUP3 DUP3 MSTORE PUSH1 0x20 DUP3 ADD SWAP1 POP SWAP3 SWAP2 POP POP JUMP JUMPDEST PUSH32 0x4465616C65723A207A65726F2061646472657373000000000000000000000000 PUSH1 0x0 DUP3 ADD MSTORE POP JUMP JUMPDEST PUSH1 0x0 PUSH3 0x3219 PUSH1 0x14 DUP4 PUSH3 0x31D0 JUMP JUMPDEST SWAP2 POP PUSH3 0x3226 DUP3 PUSH3 0x31E1 JUMP JUMPDEST PUSH1 0x20 DUP3 ADD SWAP1 POP SWAP2 SWAP1 POP JUMP JUMPDEST PUSH1 0x0 PUSH1 0x20 DUP3 ADD SWAP1 POP DUP2 DUP2 SUB PUSH1 0x0 DUP4 ADD MSTORE PUSH3 0x324C DUP2 PUSH3 0x320A JUMP JUMPDEST SWAP1 POP SWAP2 SWAP1 POP JUMP JUMPDEST PUSH1 0x0 PUSH3 0x3260 DUP3 PUSH3 0x2686 JUMP JUMPDEST SWAP1 POP SWAP2 SWAP1 POP JUMP JUMPDEST PUSH3 0x3272 DUP2 PUSH3 0x3253 JUMP JUMPDEST DUP2 EQ PUSH3 0x327E JUMPI PUSH1 0x0 DUP1 REVERT JUMPDEST POP JUMP JUMPDEST PUSH1 0x0 DUP2 MLOAD SWAP1 POP PUSH3 0x3292 DUP2 PUSH3 0x3267 JUMP JUMPDEST SWAP3 SWAP2 POP POP JUMP JUMPDEST PUSH1 0x0 PUSH1 0x20 DUP3 DUP5 SUB SLT ISZERO PUSH3 0x32B1 JUMPI PUSH3 0x32B0 PUSH3 0x2710 JUMP JUMPDEST JUMPDEST PUSH1 0x0 PUSH3 0x32C1 DUP5 DUP3 DUP6 ADD PUSH3 0x3281 JUMP JUMPDEST SWAP2 POP POP SWAP3 SWAP2 POP POP JUMP JUMPDEST PUSH1 0x0 PUSH1 0x20 DUP3 DUP5 SUB SLT ISZERO PUSH3 0x32E3 JUMPI PUSH3 0x32E2 PUSH3 0x2710 JUMP JUMPDEST JUMPDEST PUSH1 0x0 PUSH3 0x32F3 DUP5 DUP3 DUP6 ADD PUSH3 0x2F62 JUMP JUMPDEST SWAP2 POP POP SWAP3 SWAP2 POP POP JUMP JUMPDEST PUSH1 0x0 DUP2 SWAP1 POP SWAP2 SWAP1 POP JUMP JUMPDEST PUSH1 0x0 PUSH8 0xFFFFFFFFFFFFFFFF DUP3 AND SWAP1 POP SWAP2 SWAP1 POP JUMP JUMPDEST PUSH1 0x0 PUSH3 0x333B PUSH3 0x3335 PUSH3 0x332F DUP5 PUSH3 0x32FC JUMP JUMPDEST PUSH3 0x27EA JUMP JUMPDEST PUSH3 0x3306 JUMP JUMPDEST SWAP1 POP SWAP2 SWAP1 POP JUMP JUMPDEST PUSH3 0x334D DUP2 PUSH3 0x331A JUMP JUMPDEST DUP3 MSTORE POP POP JUMP JUMPDEST PUSH1 0x0 PUSH1 0x20 DUP3 ADD SWAP1 POP PUSH3 0x336A PUSH1 0x0 DUP4 ADD DUP5 PUSH3 0x3342 JUMP JUMPDEST SWAP3 SWAP2 POP POP JUMP JUMPDEST PUSH32 0x4465616C65723A206E6F206163746976652073657175656E6365720000000000 PUSH1 0x0 DUP3 ADD MSTORE POP JUMP JUMPDEST PUSH1 0x0 PUSH3 0x33A8 PUSH1 0x1B DUP4 PUSH3 0x31D0 JUMP JUMPDEST SWAP2 POP PUSH3 0x33B5 DUP3 PUSH3 0x3370 JUMP JUMPDEST PUSH1 0x20 DUP3 ADD SWAP1 POP SWAP2 SWAP1 POP JUMP JUMPDEST PUSH1 0x0 PUSH1 0x20 DUP3 ADD SWAP1 POP DUP2 DUP2 SUB PUSH1 0x0 DUP4 ADD MSTORE PUSH3 0x33DB DUP2 PUSH3 0x3399 JUMP JUMPDEST SWAP1 POP SWAP2 SWAP1 POP JUMP JUMPDEST PUSH1 0x0 PUSH1 0x20 DUP3 DUP5 SUB SLT ISZERO PUSH3 0x33FB JUMPI PUSH3 0x33FA PUSH3 0x2710 JUMP JUMPDEST JUMPDEST PUSH1 0x0 PUSH3 0x340B DUP5 DUP3 DUP6 ADD PUSH3 0x2F4B JUMP JUMPDEST SWAP2 POP POP SWAP3 SWAP2 POP POP JUMP JUMPDEST PUSH1 0x0 PUSH3 0x3421 DUP3 PUSH3 0x277D JUMP JUMPDEST SWAP2 POP PUSH3 0x342E DUP4 PUSH3 0x277D JUMP JUMPDEST SWAP3 POP DUP3 DUP3 SUB SWAP1 POP DUP2 DUP2 GT ISZERO PUSH3 0x3449 JUMPI PUSH3 0x3448 PUSH3 0x2EB7 JUMP JUMPDEST JUMPDEST SWAP3 SWAP2 POP POP JUMP JUMPDEST PUSH1 0x0 PUSH1 0x40 DUP3 ADD SWAP1 POP PUSH3 0x3466 PUSH1 0x0 DUP4 ADD DUP6 PUSH3 0x269A JUMP JUMPDEST PUSH3 0x3475 PUSH1 0x20 DUP4 ADD DUP5 PUSH3 0x2872 JUMP JUMPDEST SWAP4 SWAP3 POP POP POP JUMP JUMPDEST PUSH1 0x0 PUSH1 0x60 DUP3 ADD SWAP1 POP PUSH3 0x3493 PUSH1 0x0 DUP4 ADD DUP7 PUSH3 0x26D8 JUMP JUMPDEST PUSH3 0x34A2 PUSH1 0x20 DUP4 ADD DUP6 PUSH3 0x2872 JUMP JUMPDEST PUSH3 0x34B1 PUSH1 0x40 DUP4 ADD DUP5 PUSH3 0x2872 JUMP JUMPDEST SWAP5 SWAP4 POP POP POP POP JUMP JUMPDEST PUSH1 0x0 PUSH1 0x40 DUP3 ADD SWAP1 POP PUSH3 0x34D0 PUSH1 0x0 DUP4 ADD DUP6 PUSH3 0x2BC5 JUMP JUMPDEST PUSH3 0x34DF PUSH1 0x20 DUP4 ADD DUP5 PUSH3 0x2BC5 JUMP JUMPDEST SWAP4 SWAP3 POP POP POP JUMP JUMPDEST PUSH32 0x4465616C65723A206E6F74206163746976650000000000000000000000000000 PUSH1 0x0 DUP3 ADD MSTORE POP JUMP JUMPDEST PUSH1 0x0 PUSH3 0x351E PUSH1 0x12 DUP4 PUSH3 0x31D0 JUMP JUMPDEST SWAP2 POP PUSH3 0x352B DUP3 PUSH3 0x34E6 JUMP JUMPDEST PUSH1 0x20 DUP3 ADD SWAP1 POP SWAP2 SWAP1 POP JUMP JUMPDEST PUSH1 0x0 PUSH1 0x20 DUP3 ADD SWAP1 POP DUP2 DUP2 SUB PUSH1 0x0 DUP4 ADD MSTORE PUSH3 0x3551 DUP2 PUSH3 0x350F JUMP JUMPDEST SWAP1 POP SWAP2 SWAP1 POP JUMP JUMPDEST PUSH32 0x4E487B7100000000000000000000000000000000000000000000000000000000 PUSH1 0x0 MSTORE PUSH1 0x31 PUSH1 0x4 MSTORE PUSH1 0x24 PUSH1 0x0 REVERT JUMPDEST PUSH32 0x4465616C65723A20616C72656164792061637469766500000000000000000000 PUSH1 0x0 DUP3 ADD MSTORE POP JUMP JUMPDEST PUSH1 0x0 PUSH3 0x35BF PUSH1 0x16 DUP4 PUSH3 0x31D0 JUMP JUMPDEST SWAP2 POP PUSH3 0x35CC DUP3 PUSH3 0x3587 JUMP JUMPDEST PUSH1 0x20 DUP3 ADD SWAP1 POP SWAP2 SWAP1 POP JUMP JUMPDEST PUSH1 0x0 PUSH1 0x20 DUP3 ADD SWAP1 POP DUP2 DUP2 SUB PUSH1 0x0 DUP4 ADD MSTORE PUSH3 0x35F2 DUP2 PUSH3 0x35B0 JUMP JUMPDEST SWAP1 POP SWAP2 SWAP1 POP JUMP JUMPDEST PUSH1 0x0 PUSH1 0x80 DUP3 ADD SWAP1 POP PUSH3 0x3610 PUSH1 0x0 DUP4 ADD DUP8 PUSH3 0x2872 JUMP JUMPDEST PUSH3 0x361F PUSH1 0x20 DUP4 ADD DUP7 PUSH3 0x269A JUMP JUMPDEST DUP2 DUP2 SUB PUSH1 0x40 DUP4 ADD MSTORE PUSH3 0x3633 DUP2 DUP6 PUSH3 0x2E15 JUMP JUMPDEST SWAP1 POP PUSH3 0x3644 PUSH1 0x60 DUP4 ADD DUP5 PUSH3 0x26D8 JUMP JUMPDEST SWAP6 SWAP5 POP POP POP POP POP JUMP INVALID PUSH1 0xA0 PUSH1 0x40 MSTORE PUSH1 0x40 MLOAD PUSH2 0x960 CODESIZE SUB DUP1 PUSH2 0x960 DUP4 CODECOPY DUP2 DUP2 ADD PUSH1 0x40 MSTORE DUP2 ADD SWAP1 PUSH2 0x25 SWAP2 SWAP1 PUSH2 0x684 JUMP JUMPDEST PUSH2 0x35 DUP3 DUP3 PUSH2 0x70 PUSH1 0x20 SHL PUSH1 0x20 SHR JUMP JUMPDEST DUP2 PUSH20 0xFFFFFFFFFFFFFFFFFFFFFFFFFFFFFFFFFFFFFFFF AND PUSH1 0x80 DUP2 PUSH20 0xFFFFFFFFFFFFFFFFFFFFFFFFFFFFFFFFFFFFFFFF AND DUP2 MSTORE POP POP POP POP PUSH2 0x795 JUMP JUMPDEST PUSH2 0x7F DUP3 PUSH2 0x163 PUSH1 0x20 SHL PUSH1 0x20 SHR JUMP JUMPDEST DUP2 PUSH20 0xFFFFFFFFFFFFFFFFFFFFFFFFFFFFFFFFFFFFFFFF AND PUSH32 0x1CF3B03A6CF19FA2BABA4DF148E9DCABEDEA7F8A5C07840E207E5C089BE95D3E PUSH1 0x40 MLOAD PUSH1 0x40 MLOAD DUP1 SWAP2 SUB SWAP1 LOG2 PUSH1 0x0 DUP2 MLOAD GT ISZERO PUSH2 0x150 JUMPI PUSH2 0x14A DUP3 PUSH20 0xFFFFFFFFFFFFFFFFFFFFFFFFFFFFFFFFFFFFFFFF AND PUSH4 0x5C60DA1B PUSH1 0x40 MLOAD DUP2 PUSH4 0xFFFFFFFF AND PUSH1 0xE0 SHL DUP2 MSTORE PUSH1 0x4 ADD PUSH1 0x20 PUSH1 0x40 MLOAD DUP1 DUP4 SUB DUP2 DUP7 GAS STATICCALL ISZERO DUP1 ISZERO PUSH2 0x11A JUMPI RETURNDATASIZE PUSH1 0x0 DUP1 RETURNDATACOPY RETURNDATASIZE PUSH1 0x0 REVERT JUMPDEST POP POP POP POP PUSH1 0x40 MLOAD RETURNDATASIZE PUSH1 0x1F NOT PUSH1 0x1F DUP3 ADD AND DUP3 ADD DUP1 PUSH1 0x40 MSTORE POP DUP2 ADD SWAP1 PUSH2 0x13E SWAP2 SWAP1 PUSH2 0x6E0 JUMP JUMPDEST DUP3 PUSH2 0x306 PUSH1 0x20 SHL PUSH1 0x20 SHR JUMP JUMPDEST POP PUSH2 0x15F JUMP JUMPDEST PUSH2 0x15E PUSH2 0x390 PUSH1 0x20 SHL PUSH1 0x20 SHR JUMP JUMPDEST JUMPDEST POP POP JUMP JUMPDEST PUSH1 0x0 DUP2 PUSH20 0xFFFFFFFFFFFFFFFFFFFFFFFFFFFFFFFFFFFFFFFF AND EXTCODESIZE SUB PUSH2 0x1BF JUMPI DUP1 PUSH1 0x40 MLOAD PUSH32 0x64CED0EC00000000000000000000000000000000000000000000000000000000 DUP2 MSTORE PUSH1 0x4 ADD PUSH2 0x1B6 SWAP2 SWAP1 PUSH2 0x71C JUMP JUMPDEST PUSH1 0x40 MLOAD DUP1 SWAP2 SUB SWAP1 REVERT JUMPDEST DUP1 PUSH2 0x1F2 PUSH32 0xA3F0AD74E5423AEBFD80D3EF4346578335A9A72AEAEE59FF6CB3582B35133D50 PUSH1 0x0 SHL PUSH2 0x3CD PUSH1 0x20 SHL PUSH1 0x20 SHR JUMP JUMPDEST PUSH1 0x0 ADD PUSH1 0x0 PUSH2 0x100 EXP DUP2 SLOAD DUP2 PUSH20 0xFFFFFFFFFFFFFFFFFFFFFFFFFFFFFFFFFFFFFFFF MUL NOT AND SWAP1 DUP4 PUSH20 0xFFFFFFFFFFFFFFFFFFFFFFFFFFFFFFFFFFFFFFFF AND MUL OR SWAP1 SSTORE POP PUSH1 0x0 DUP2 PUSH20 0xFFFFFFFFFFFFFFFFFFFFFFFFFFFFFFFFFFFFFFFF AND PUSH4 0x5C60DA1B PUSH1 0x40 MLOAD DUP2 PUSH4 0xFFFFFFFF AND PUSH1 0xE0 SHL DUP2 MSTORE PUSH1 0x4 ADD PUSH1 0x20 PUSH1 0x40 MLOAD DUP1 DUP4 SUB DUP2 DUP7 GAS STATICCALL ISZERO DUP1 ISZERO PUSH2 0x280 JUMPI RETURNDATASIZE PUSH1 0x0 DUP1 RETURNDATACOPY RETURNDATASIZE PUSH1 0x0 REVERT JUMPDEST POP POP POP POP PUSH1 0x40 MLOAD RETURNDATASIZE PUSH1 0x1F NOT PUSH1 0x1F DUP3 ADD AND DUP3 ADD DUP1 PUSH1 0x40 MSTORE POP DUP2 ADD SWAP1 PUSH2 0x2A4 SWAP2 SWAP1 PUSH2 0x6E0 JUMP JUMPDEST SWAP1 POP PUSH1 0x0 DUP2 PUSH20 0xFFFFFFFFFFFFFFFFFFFFFFFFFFFFFFFFFFFFFFFF AND EXTCODESIZE SUB PUSH2 0x302 JUMPI DUP1 PUSH1 0x40 MLOAD PUSH32 0x4C9C8CE300000000000000000000000000000000000000000000000000000000 DUP2 MSTORE PUSH1 0x4 ADD PUSH2 0x2F9 SWAP2 SWAP1 PUSH2 0x71C JUMP JUMPDEST PUSH1 0x40 MLOAD DUP1 SWAP2 SUB SWAP1 REVERT JUMPDEST POP POP JUMP JUMPDEST PUSH1 0x60 PUSH1 0x0 DUP1 DUP5 PUSH20 0xFFFFFFFFFFFFFFFFFFFFFFFFFFFFFFFFFFFFFFFF AND DUP5 PUSH1 0x40 MLOAD PUSH2 0x330 SWAP2 SWAP1 PUSH2 0x77E JUMP JUMPDEST PUSH1 0x0 PUSH1 0x40 MLOAD DUP1 DUP4 SUB DUP2 DUP6 GAS DELEGATECALL SWAP2 POP POP RETURNDATASIZE DUP1 PUSH1 0x0 DUP2 EQ PUSH2 0x36B JUMPI PUSH1 0x40 MLOAD SWAP2 POP PUSH1 0x1F NOT PUSH1 0x3F RETURNDATASIZE ADD AND DUP3 ADD PUSH1 0x40 MSTORE RETURNDATASIZE DUP3 MSTORE RETURNDATASIZE PUSH1 0x0 PUSH1 0x20 DUP5 ADD RETURNDATACOPY PUSH2 0x370 JUMP JUMPDEST PUSH1 0x60 SWAP2 POP JUMPDEST POP SWAP2 POP SWAP2 POP PUSH2 0x386 DUP6 DUP4 DUP4 PUSH2 0x3D7 PUSH1 0x20 SHL PUSH1 0x20 SHR JUMP JUMPDEST SWAP3 POP POP POP SWAP3 SWAP2 POP POP JUMP JUMPDEST PUSH1 0x0 CALLVALUE GT ISZERO PUSH2 0x3CB JUMPI PUSH1 0x40 MLOAD PUSH32 0xB398979F00000000000000000000000000000000000000000000000000000000 DUP2 MSTORE PUSH1 0x4 ADD PUSH1 0x40 MLOAD DUP1 SWAP2 SUB SWAP1 REVERT JUMPDEST JUMP JUMPDEST PUSH1 0x0 DUP2 SWAP1 POP SWAP2 SWAP1 POP JUMP JUMPDEST PUSH1 0x60 DUP3 PUSH2 0x3F2 JUMPI PUSH2 0x3ED DUP3 PUSH2 0x46C PUSH1 0x20 SHL PUSH1 0x20 SHR JUMP JUMPDEST PUSH2 0x464 JUMP JUMPDEST PUSH1 0x0 DUP3 MLOAD EQ DUP1 ISZERO PUSH2 0x41A JUMPI POP PUSH1 0x0 DUP5 PUSH20 0xFFFFFFFFFFFFFFFFFFFFFFFFFFFFFFFFFFFFFFFF AND EXTCODESIZE EQ JUMPDEST ISZERO PUSH2 0x45C JUMPI DUP4 PUSH1 0x40 MLOAD PUSH32 0x9996B31500000000000000000000000000000000000000000000000000000000 DUP2 MSTORE PUSH1 0x4 ADD PUSH2 0x453 SWAP2 SWAP1 PUSH2 0x71C JUMP JUMPDEST PUSH1 0x40 MLOAD DUP1 SWAP2 SUB SWAP1 REVERT JUMPDEST DUP2 SWAP1 POP PUSH2 0x465 JUMP JUMPDEST JUMPDEST SWAP4 SWAP3 POP POP POP JUMP JUMPDEST PUSH1 0x0 DUP2 MLOAD GT ISZERO PUSH2 0x47F JUMPI DUP1 MLOAD DUP1 DUP3 PUSH1 0x20 ADD REVERT JUMPDEST PUSH1 0x40 MLOAD PUSH32 0x1425EA4200000000000000000000000000000000000000000000000000000000 DUP2 MSTORE PUSH1 0x4 ADD PUSH1 0x40 MLOAD DUP1 SWAP2 SUB SWAP1 REVERT JUMPDEST PUSH1 0x0 PUSH1 0x40 MLOAD SWAP1 POP SWAP1 JUMP JUMPDEST PUSH1 0x0 DUP1 REVERT JUMPDEST PUSH1 0x0 DUP1 REVERT JUMPDEST PUSH1 0x0 PUSH20 0xFFFFFFFFFFFFFFFFFFFFFFFFFFFFFFFFFFFFFFFF DUP3 AND SWAP1 POP SWAP2 SWAP1 POP JUMP JUMPDEST PUSH1 0x0 PUSH2 0x4F0 DUP3 PUSH2 0x4C5 JUMP JUMPDEST SWAP1 POP SWAP2 SWAP1 POP JUMP JUMPDEST PUSH2 0x500 DUP2 PUSH2 0x4E5 JUMP JUMPDEST DUP2 EQ PUSH2 0x50B JUMPI PUSH1 0x0 DUP1 REVERT JUMPDEST POP JUMP JUMPDEST PUSH1 0x0 DUP2 MLOAD SWAP1 POP PUSH2 0x51D DUP2 PUSH2 0x4F7 JUMP JUMPDEST SWAP3 SWAP2 POP POP JUMP JUMPDEST PUSH1 0x0 DUP1 REVERT JUMPDEST PUSH1 0x0 DUP1 REVERT JUMPDEST PUSH1 0x0 PUSH1 0x1F NOT PUSH1 0x1F DUP4 ADD AND SWAP1 POP SWAP2 SWAP1 POP JUMP JUMPDEST PUSH32 0x4E487B7100000000000000000000000000000000000000000000000000000000 PUSH1 0x0 MSTORE PUSH1 0x41 PUSH1 0x4 MSTORE PUSH1 0x24 PUSH1 0x0 REVERT JUMPDEST PUSH2 0x576 DUP3 PUSH2 0x52D JUMP JUMPDEST DUP2 ADD DUP2 DUP2 LT PUSH8 0xFFFFFFFFFFFFFFFF DUP3 GT OR ISZERO PUSH2 0x595 JUMPI PUSH2 0x594 PUSH2 0x53E JUMP JUMPDEST JUMPDEST DUP1 PUSH1 0x40 MSTORE POP POP POP JUMP JUMPDEST PUSH1 0x0 PUSH2 0x5A8 PUSH2 0x4B1 JUMP JUMPDEST SWAP1 POP PUSH2 0x5B4 DUP3 DUP3 PUSH2 0x56D JUMP JUMPDEST SWAP2 SWAP1 POP JUMP JUMPDEST PUSH1 0x0 PUSH8 0xFFFFFFFFFFFFFFFF DUP3 GT ISZERO PUSH2 0x5D4 JUMPI PUSH2 0x5D3 PUSH2 0x53E JUMP JUMPDEST JUMPDEST PUSH2 0x5DD DUP3 PUSH2 0x52D JUMP JUMPDEST SWAP1 POP PUSH1 0x20 DUP2 ADD SWAP1 POP SWAP2 SWAP1 POP JUMP JUMPDEST PUSH1 0x0 JUMPDEST DUP4 DUP2 LT ISZERO PUSH2 0x608 JUMPI DUP1 DUP3 ADD MLOAD DUP2 DUP5 ADD MSTORE PUSH1 0x20 DUP2 ADD SWAP1 POP PUSH2 0x5ED JUMP JUMPDEST PUSH1 0x0 DUP5 DUP5 ADD MSTORE POP POP POP POP JUMP JUMPDEST PUSH1 0x0 PUSH2 0x627 PUSH2 0x622 DUP5 PUSH2 0x5B9 JUMP JUMPDEST PUSH2 0x59E JUMP JUMPDEST SWAP1 POP DUP3 DUP2 MSTORE PUSH1 0x20 DUP2 ADD DUP5 DUP5 DUP5 ADD GT ISZERO PUSH2 0x643 JUMPI PUSH2 0x642 PUSH2 0x528 JUMP JUMPDEST JUMPDEST PUSH2 0x64E DUP5 DUP3 DUP6 PUSH2 0x5EA JUMP JUMPDEST POP SWAP4 SWAP3 POP POP POP JUMP JUMPDEST PUSH1 0x0 DUP3 PUSH1 0x1F DUP4 ADD SLT PUSH2 0x66B JUMPI PUSH2 0x66A PUSH2 0x523 JUMP JUMPDEST JUMPDEST DUP2 MLOAD PUSH2 0x67B DUP5 DUP3 PUSH1 0x20 DUP7 ADD PUSH2 0x614 JUMP JUMPDEST SWAP2 POP POP SWAP3 SWAP2 POP POP JUMP JUMPDEST PUSH1 0x0 DUP1 PUSH1 0x40 DUP4 DUP6 SUB SLT ISZERO PUSH2 0x69B JUMPI PUSH2 0x69A PUSH2 0x4BB JUMP JUMPDEST JUMPDEST PUSH1 0x0 PUSH2 0x6A9 DUP6 DUP3 DUP7 ADD PUSH2 0x50E JUMP JUMPDEST SWAP3 POP POP PUSH1 0x20 DUP4 ADD MLOAD PUSH8 0xFFFFFFFFFFFFFFFF DUP2 GT ISZERO PUSH2 0x6CA JUMPI PUSH2 0x6C9 PUSH2 0x4C0 JUMP JUMPDEST JUMPDEST PUSH2 0x6D6 DUP6 DUP3 DUP7 ADD PUSH2 0x656 JUMP JUMPDEST SWAP2 POP POP SWAP3 POP SWAP3 SWAP1 POP JUMP JUMPDEST PUSH1 0x0 PUSH1 0x20 DUP3 DUP5 SUB SLT ISZERO PUSH2 0x6F6 JUMPI PUSH2 0x6F5 PUSH2 0x4BB JUMP JUMPDEST JUMPDEST PUSH1 0x0 PUSH2 0x704 DUP5 DUP3 DUP6 ADD PUSH2 0x50E JUMP JUMPDEST SWAP2 POP POP SWAP3 SWAP2 POP POP JUMP JUMPDEST PUSH2 0x716 DUP2 PUSH2 0x4E5 JUMP JUMPDEST DUP3 MSTORE POP POP JUMP JUMPDEST PUSH1 0x0 PUSH1 0x20 DUP3 ADD SWAP1 POP PUSH2 0x731 PUSH1 0x0 DUP4 ADD DUP5 PUSH2 0x70D JUMP JUMPDEST SWAP3 SWAP2 POP POP JUMP JUMPDEST PUSH1 0x0 DUP2 MLOAD SWAP1 POP SWAP2 SWAP1 POP JUMP JUMPDEST PUSH1 0x0 DUP2 SWAP1 POP SWAP3 SWAP2 POP POP JUMP JUMPDEST PUSH1 0x0 PUSH2 0x758 DUP3 PUSH2 0x737 JUMP JUMPDEST PUSH2 0x762 DUP2 DUP6 PUSH2 0x742 JUMP JUMPDEST SWAP4 POP PUSH2 0x772 DUP2 DUP6 PUSH1 0x20 DUP7 ADD PUSH2 0x5EA JUMP JUMPDEST DUP1 DUP5 ADD SWAP2 POP POP SWAP3 SWAP2 POP POP JUMP JUMPDEST PUSH1 0x0 PUSH2 0x78A DUP3 DUP5 PUSH2 0x74D JUMP JUMPDEST SWAP2 POP DUP2 SWAP1 POP SWAP3 SWAP2 POP POP JUMP JUMPDEST PUSH1 0x80 MLOAD PUSH2 0x1B1 PUSH2 0x7AF PUSH1 0x0 CODECOPY PUSH1 0x0 PUSH1 0xC7 ADD MSTORE PUSH2 0x1B1 PUSH1 0x0 RETURN INVALID PUSH1 0x80 PUSH1 0x40 MSTORE PUSH2 0xC PUSH2 0xE JUMP JUMPDEST STOP JUMPDEST PUSH2 0x1E PUSH2 0x19 PUSH2 0x20 JUMP JUMPDEST PUSH2 0x9D JUMP JUMPDEST JUMP JUMPDEST PUSH1 0x0 PUSH2 0x2A PUSH2 0xC3 JUMP JUMPDEST PUSH20 0xFFFFFFFFFFFFFFFFFFFFFFFFFFFFFFFFFFFFFFFF AND PUSH4 0x5C60DA1B PUSH1 0x40 MLOAD DUP2 PUSH4 0xFFFFFFFF AND PUSH1 0xE0 SHL DUP2 MSTORE PUSH1 0x4 ADD PUSH1 0x20 PUSH1 0x40 MLOAD DUP1 DUP4 SUB DUP2 DUP7 GAS STATICCALL ISZERO DUP1 ISZERO PUSH2 0x74 JUMPI RETURNDATASIZE PUSH1 0x0 DUP1 RETURNDATACOPY RETURNDATASIZE PUSH1 0x0 REVERT JUMPDEST POP POP POP POP PUSH1 0x40 MLOAD RETURNDATASIZE PUSH1 0x1F NOT PUSH1 0x1F DUP3 ADD AND DUP3 ADD DUP1 PUSH1 0x40 MSTORE POP DUP2 ADD SWAP1 PUSH2 0x98 SWAP2 SWAP1 PUSH2 0x14E JUMP JUMPDEST SWAP1 POP SWAP1 JUMP JUMPDEST CALLDATASIZE PUSH1 0x0 DUP1 CALLDATACOPY PUSH1 0x0 DUP1 CALLDATASIZE PUSH1 0x0 DUP5 GAS DELEGATECALL RETURNDATASIZE PUSH1 0x0 DUP1 RETURNDATACOPY DUP1 PUSH1 0x0 DUP2 EQ PUSH2 0xBE JUMPI RETURNDATASIZE PUSH1 0x0 RETURN JUMPDEST RETURNDATASIZE PUSH1 0x0 REVERT JUMPDEST PUSH1 0x0 PUSH32 0x0 SWAP1 POP SWAP1 JUMP JUMPDEST PUSH1 0x0 DUP1 REVERT JUMPDEST PUSH1 0x0 PUSH20 0xFFFFFFFFFFFFFFFFFFFFFFFFFFFFFFFFFFFFFFFF DUP3 AND SWAP1 POP SWAP2 SWAP1 POP JUMP JUMPDEST PUSH1 0x0 PUSH2 0x11B DUP3 PUSH2 0xF0 JUMP JUMPDEST SWAP1 POP SWAP2 SWAP1 POP JUMP JUMPDEST PUSH2 0x12B DUP2 PUSH2 0x110 JUMP JUMPDEST DUP2 EQ PUSH2 0x136 JUMPI PUSH1 0x0 DUP1 REVERT JUMPDEST POP JUMP JUMPDEST PUSH1 0x0 DUP2 MLOAD SWAP1 POP PUSH2 0x148 DUP2 PUSH2 0x122 JUMP JUMPDEST SWAP3 SWAP2 POP POP JUMP JUMPDEST PUSH1 0x0 PUSH1 0x20 DUP3 DUP5 SUB SLT ISZERO PUSH2 0x164 JUMPI PUSH2 0x163 PUSH2 0xEB JUMP JUMPDEST JUMPDEST PUSH1 0x0 PUSH2 0x172 DUP5 DUP3 DUP6 ADD PUSH2 0x139 JUMP JUMPDEST SWAP2 POP POP SWAP3 SWAP2 POP POP JUMP INVALID LOG2 PUSH5 0x6970667358 0x22 SLT KECCAK256 BALANCE DUP15 0xFB GASPRICE 0xDD CALLDATACOPY BYTE 0xCC PUSH11 0xFD6545498A71373C16DC13 DUP7 0xE5 PUSH25 0xED8C02B6AC326DD4CA64736F6C63430008140033A264697066 PUSH20 0x58221220C1CD81B7E855501F00E4D4303EE5F053 0xFB JUMPDEST DUP14 0xC4 SELFDESTRUCT DUP14 DUP8 0x29 ADDRESS CREATE DUP2 XOR CREATE AND 0xCC 0x4D PUSH5 0x736F6C6343 STOP ADDMOD EQ STOP CALLER "},"gasEstimates":{"creation":{"codeDepositCost":"3271000","executionCost":"3635","totalCost":"3274635"},"external":{"activeSequencerCount()":"2520","activeSequencerIds(uint256)":"6595","addAgent()":"infinite","implementation()":"2634","initialize(address,address,address,uint256,uint32,address,address)":"infinite","l2ChainId()":"2540","l2Gas()":"2517","l2Minter()":"2561","l2RewardDispatcher()":"2581","lockFor(uint32,address,uint256,bytes)":"infinite","lockingInfo()":"infinite","lockingPool()":"infinite","messenger()":"infinite","metis()":"infinite","owner()":"2622","relock()":"infinite","renounceOwnership()":"infinite","sequencerAgentCount()":"2561","sequencerAgentTemplate()":"2579","sequencerAgents(uint32)":"2913","setActive(uint32,bool)":"infinite","setL2Gas(uint32)":"infinite","setL2Minter(address)":"24832","setSequencerAgentTemplate(address)":"infinite","setWithdrawRewards(bool)":"infinite","sumRewards()":"2518","totalLocked()":"infinite","transferOwnership(address)":"infinite","unlock(uint32)":"infinite","unlockClaim(uint32)":"infinite","withdrawRewards()":"2610"},"internal":{"_findFromActiveList(uint32)":"infinite","_mintL2EMetis(uint256)":"infinite","_removeFromActiveList(uint32)":"infinite","_setActive(uint32,bool)":"infinite"}},"methodIdentifiers":{"activeSequencerCount()":"1152eb41","activeSequencerIds(uint256)":"1abdaf6a","addAgent()":"35cd3599","implementation()":"5c60da1b","initialize(address,address,address,uint256,uint32,address,address)":"b699ce5f","l2ChainId()":"d6ae3cd5","l2Gas()":"3cbb6979","l2Minter()":"080e1e4e","l2RewardDispatcher()":"e92d61e5","lockFor(uint32,address,uint256,bytes)":"af372db7","lockingInfo()":"f7cee36a","lockingPool()":"85d1e2b8","messenger()":"3cb747bf","metis()":"e5974554","owner()":"8da5cb5b","relock()":"c53b573d","renounceOwnership()":"715018a6","sequencerAgentCount()":"9e935704","sequencerAgentTemplate()":"8db8ad88","sequencerAgents(uint32)":"457cb586","setActive(uint32,bool)":"e956eaf1","setL2Gas(uint32)":"33bec7e7","setL2Minter(address)":"f87b7a3e","setSequencerAgentTemplate(address)":"eb2c5798","setWithdrawRewards(bool)":"efa412d0","sumRewards()":"7ca4f8b0","totalLocked()":"56891412","transferOwnership(address)":"f2fde38b","unlock(uint32)":"67d93c81","unlockClaim(uint32)":"1221e6a5","withdrawRewards()":"c7b8981c"}},"storageLayout":{"storage":[{"astId":2455,"contract":"contracts/Dealer.sol:Dealer","label":"sequencerAgentTemplate","offset":0,"slot":"0","type":"t_address"},{"astId":2459,"contract":"contracts/Dealer.sol:Dealer","label":"metis","offset":0,"slot":"1","type":"t_contract(IERC20)979"},{"astId":2463,"contract":"contracts/Dealer.sol:Dealer","label":"lockingPool","offset":0,"slot":"2","type":"t_contract(ILockingPool)3940"},{"astId":2467,"contract":"contracts/Dealer.sol:Dealer","label":"lockingInfo","offset":0,"slot":"3","type":"t_contract(ILockingInfo)3817"},{"astId":2471,"contract":"contracts/Dealer.sol:Dealer","label":"messenger","offset":0,"slot":"4","type":"t_contract(ICrossDomainMessenger)3607"},{"astId":2474,"contract":"contracts/Dealer.sol:Dealer","label":"l2ChainId","offset":0,"slot":"5","type":"t_uint256"},{"astId":2477,"contract":"contracts/Dealer.sol:Dealer","label":"l2Minter","offset":0,"slot":"6","type":"t_address"},{"astId":2480,"contract":"contracts/Dealer.sol:Dealer","label":"l2RewardDispatcher","offset":0,"slot":"7","type":"t_address"},{"astId":2485,"contract":"contracts/Dealer.sol:Dealer","label":"sequencerAgents","offset":0,"slot":"8","type":"t_mapping(t_uint32,t_address)"},{"astId":2488,"contract":"contracts/Dealer.sol:Dealer","label":"sequencerAgentCount","offset":0,"slot":"9","type":"t_uint32"},{"astId":2492,"contract":"contracts/Dealer.sol:Dealer","label":"activeSequencerIds","offset":0,"slot":"10","type":"t_array(t_uint32)dyn_storage"},{"astId":2495,"contract":"contracts/Dealer.sol:Dealer","label":"sumRewards","offset":0,"slot":"11","type":"t_uint256"},{"astId":2498,"contract":"contracts/Dealer.sol:Dealer","label":"l2Gas","offset":0,"slot":"12","type":"t_uint32"},{"astId":2501,"contract":"contracts/Dealer.sol:Dealer","label":"withdrawRewards","offset":4,"slot":"12","type":"t_bool"}],"types":{"t_address":{"encoding":"inplace","label":"address","numberOfBytes":"20"},"t_array(t_uint32)dyn_storage":{"base":"t_uint32","encoding":"dynamic_array","label":"uint32[]","numberOfBytes":"32"},"t_bool":{"encoding":"inplace","label":"bool","numberOfBytes":"1"},"t_contract(ICrossDomainMessenger)3607":{"encoding":"inplace","label":"contract ICrossDomainMessenger","numberOfBytes":"20"},"t_contract(IERC20)979":{"encoding":"inplace","label":"contract IERC20","numberOfBytes":"20"},"t_contract(ILockingInfo)3817":{"encoding":"inplace","label":"contract ILockingInfo","numberOfBytes":"20"},"t_contract(ILockingPool)3940":{"encoding":"inplace","label":"contract ILockingPool","numberOfBytes":"20"},"t_mapping(t_uint32,t_address)":{"encoding":"mapping","key":"t_uint32","label":"mapping(uint32 => address)","numberOfBytes":"32","value":"t_address"},"t_uint256":{"encoding":"inplace","label":"uint256","numberOfBytes":"32"},"t_uint32":{"encoding":"inplace","label":"uint32","numberOfBytes":"4"}}},"userdoc":{"events":{"L2GasSet(uint32,uint32)":{"notice":"Emits when the L2 gas limit is set."},"L2MetisMinted(uint256)":{"notice":"Emits when Metis tokens are minted on Layer 2."},"SequencerAgentAdded(uint32,address)":{"notice":"Emits when a new sequencer agent is added"},"SequencerAgentTemplateSet(address,address)":{"notice":"Emits when the sequencer agent template is set."},"SequencerRelocked(uint32,uint256,uint256)":{"notice":"Emits when additional Metis tokens and rewards are locked for a sequencer."},"WithdrawRewardsSet(bool,bool)":{"notice":"Emits when withdrawRewards is set."}},"kind":"user","methods":{"activeSequencerCount()":{"notice":"Returns the number of active sequencers."},"activeSequencerIds(uint256)":{"notice":"The list of active sequencer agent IDs."},"addAgent()":{"notice":"Adds a new sequencer agent."},"implementation()":{"notice":"Use Dealer as a beacon of BeaconProxy for SequencerAgent"},"initialize(address,address,address,uint256,uint32,address,address)":{"notice":"Initializes the contract."},"l2ChainId()":{"notice":"The ID of the L2 chain."},"l2Gas()":{"notice":"L2 gas limit."},"l2Minter()":{"notice":"The address of the L2 MetisMinter contract."},"l2RewardDispatcher()":{"notice":"The address of the L2 RewardDispatcher contract."},"lockFor(uint32,address,uint256,bytes)":{"notice":"Locks Metis tokens for a new sequencer."},"lockingInfo()":{"notice":"The LockingInfo contract address."},"lockingPool()":{"notice":"The LockingPool contract address."},"messenger()":{"notice":"The L2 messenger contract."},"metis()":{"notice":"The Metis token."},"relock()":{"notice":"Facilitates the process of augmenting the locked Metis tokens and rewards for all currently active sequencers."},"sequencerAgentCount()":{"notice":"The number of sequencer agents."},"sequencerAgentTemplate()":{"notice":"The template contract for sequencer agents."},"sequencerAgents(uint32)":{"notice":"The list of sequencer agents."},"setActive(uint32,bool)":{"notice":"Sets the active status of a sequencer agent."},"setL2Gas(uint32)":{"notice":"Sets the L2 gas limit."},"setSequencerAgentTemplate(address)":{"notice":"Sets the sequencer agent template."},"setWithdrawRewards(bool)":{"notice":"set withdraw rewards"},"sumRewards()":{"notice":"The sum of rewards of all sequencers."},"totalLocked()":{"notice":"Returns the total amount of Metis tokens that have been locked for all sequencers."},"unlock(uint32)":{"notice":"Unlock Metis tokens and terminate the sequencer."},"unlockClaim(uint32)":{"notice":"The `unlockClaim` function allows a sequencer to claim their Metis tokens after the unlocking waiting period has elapsed."},"withdrawRewards()":{"notice":"withdraw rewards"}},"notice":"The Dealer contract is responsible for the allocation of Metis tokens from Layer 2 to the LockingPool for sequencers, through sequencer agents.","version":1}}}}