{
  "address": "0x386592Fd01055c9e9A6dC20E9ce03292149Fe867",
  "abi": [
    {
      "inputs": [],
      "name": "InvalidInitialization",
      "type": "error"
    },
    {
      "inputs": [],
      "name": "NotInitializing",
      "type": "error"
    },
    {
      "inputs": [
        {
          "internalType": "address",
          "name": "owner",
          "type": "address"
        }
      ],
      "name": "OwnableInvalidOwner",
      "type": "error"
    },
    {
      "inputs": [
        {
          "internalType": "address",
          "name": "account",
          "type": "address"
        }
      ],
      "name": "OwnableUnauthorizedAccount",
      "type": "error"
    },
    {
      "anonymous": false,
      "inputs": [
        {
          "indexed": false,
          "internalType": "uint256",
          "name": "amount",
          "type": "uint256"
        }
      ],
      "name": "DepositToRedemptionQueue",
      "type": "event"
    },
    {
      "anonymous": false,
      "inputs": [
        {
          "indexed": false,
          "internalType": "uint64",
          "name": "version",
          "type": "uint64"
        }
      ],
      "name": "Initialized",
      "type": "event"
    },
    {
      "anonymous": false,
      "inputs": [
        {
          "indexed": false,
          "internalType": "uint32",
          "name": "oldValue",
          "type": "uint32"
        },
        {
          "indexed": false,
          "internalType": "uint32",
          "name": "newValue",
          "type": "uint32"
        }
      ],
      "name": "L2GasSet",
      "type": "event"
    },
    {
      "anonymous": false,
      "inputs": [
        {
          "indexed": false,
          "internalType": "uint256",
          "name": "amount",
          "type": "uint256"
        }
      ],
      "name": "L2MetisMinted",
      "type": "event"
    },
    {
      "anonymous": false,
      "inputs": [
        {
          "indexed": true,
          "internalType": "address",
          "name": "previousOwner",
          "type": "address"
        },
        {
          "indexed": true,
          "internalType": "address",
          "name": "newOwner",
          "type": "address"
        }
      ],
      "name": "OwnershipTransferred",
      "type": "event"
    },
    {
      "anonymous": false,
      "inputs": [
        {
          "indexed": false,
          "internalType": "uint32",
          "name": "index",
          "type": "uint32"
        },
        {
          "indexed": false,
          "internalType": "address",
          "name": "agent",
          "type": "address"
        }
      ],
      "name": "SequencerAgentAdded",
      "type": "event"
    },
    {
      "anonymous": false,
      "inputs": [
        {
          "indexed": true,
          "internalType": "address",
          "name": "oldValue",
          "type": "address"
        },
        {
          "indexed": true,
          "internalType": "address",
          "name": "newValue",
          "type": "address"
        }
      ],
      "name": "SequencerAgentTemplateSet",
      "type": "event"
    },
    {
      "anonymous": false,
      "inputs": [
        {
          "indexed": false,
          "internalType": "uint32",
          "name": "index",
          "type": "uint32"
        },
        {
          "indexed": false,
          "internalType": "uint256",
          "name": "amount",
          "type": "uint256"
        },
        {
          "indexed": false,
          "internalType": "uint256",
          "name": "reward",
          "type": "uint256"
        }
      ],
      "name": "SequencerRelocked",
      "type": "event"
    },
    {
      "anonymous": false,
      "inputs": [
        {
          "indexed": false,
          "internalType": "bool",
          "name": "oldValue",
          "type": "bool"
        },
        {
          "indexed": false,
          "internalType": "bool",
          "name": "newValue",
          "type": "bool"
        }
      ],
      "name": "WithdrawRewardsSet",
      "type": "event"
    },
    {
      "inputs": [],
      "name": "active",
      "outputs": [
        {
          "internalType": "bool",
          "name": "",
          "type": "bool"
        }
      ],
      "stateMutability": "view",
      "type": "function"
    },
    {
      "inputs": [
        {
          "internalType": "uint256",
          "name": "",
          "type": "uint256"
        }
      ],
      "name": "activeSequencerIds",
      "outputs": [
        {
          "internalType": "uint32",
          "name": "",
          "type": "uint32"
        }
      ],
      "stateMutability": "view",
      "type": "function"
    },
    {
      "inputs": [
        {
          "internalType": "uint256",
          "name": "amount",
          "type": "uint256"
        }
      ],
      "name": "depositToRedemptionQueue",
      "outputs": [],
      "stateMutability": "payable",
      "type": "function"
    },
    {
      "inputs": [
        {
          "internalType": "address",
          "name": "_metis",
          "type": "address"
        },
        {
          "internalType": "address",
          "name": "_lockingPool",
          "type": "address"
        },
        {
          "internalType": "address",
          "name": "_l1Bridge",
          "type": "address"
        },
        {
          "internalType": "uint256",
          "name": "_l2ChainId",
          "type": "uint256"
        },
        {
          "internalType": "uint32",
          "name": "_l2Gas",
          "type": "uint32"
        },
        {
          "internalType": "address",
          "name": "_l2Minter",
          "type": "address"
        },
        {
          "internalType": "address",
          "name": "_l2RewardDispatcher",
          "type": "address"
        }
      ],
      "name": "initialize",
      "outputs": [],
      "stateMutability": "nonpayable",
      "type": "function"
    },
    {
      "inputs": [],
      "name": "l2ChainId",
      "outputs": [
        {
          "internalType": "uint256",
          "name": "",
          "type": "uint256"
        }
      ],
      "stateMutability": "view",
      "type": "function"
    },
    {
      "inputs": [],
      "name": "l2Gas",
      "outputs": [
        {
          "internalType": "uint32",
          "name": "",
          "type": "uint32"
        }
      ],
      "stateMutability": "view",
      "type": "function"
    },
    {
      "inputs": [],
      "name": "l2Minter",
      "outputs": [
        {
          "internalType": "address",
          "name": "",
          "type": "address"
        }
      ],
      "stateMutability": "view",
      "type": "function"
    },
    {
      "inputs": [],
      "name": "l2RewardDispatcher",
      "outputs": [
        {
          "internalType": "address",
          "name": "",
          "type": "address"
        }
      ],
      "stateMutability": "view",
      "type": "function"
    },
    {
      "inputs": [
        {
          "internalType": "address",
          "name": "_sequencerSigner",
          "type": "address"
        },
        {
          "internalType": "uint256",
          "name": "_amount",
          "type": "uint256"
        },
        {
          "internalType": "bytes",
          "name": "_signerPubKey",
          "type": "bytes"
        }
      ],
      "name": "lockFor",
      "outputs": [],
      "stateMutability": "nonpayable",
      "type": "function"
    },
    {
      "inputs": [],
      "name": "lockingInfo",
      "outputs": [
        {
          "internalType": "contract ILockingInfo",
          "name": "",
          "type": "address"
        }
      ],
      "stateMutability": "view",
      "type": "function"
    },
    {
      "inputs": [],
      "name": "lockingPool",
      "outputs": [
        {
          "internalType": "contract ILockingPool",
          "name": "",
          "type": "address"
        }
      ],
      "stateMutability": "view",
      "type": "function"
    },
    {
      "inputs": [],
      "name": "messenger",
      "outputs": [
        {
          "internalType": "contract ICrossDomainMessenger",
          "name": "",
          "type": "address"
        }
      ],
      "stateMutability": "view",
      "type": "function"
    },
    {
      "inputs": [],
      "name": "metis",
      "outputs": [
        {
          "internalType": "contract IERC20",
          "name": "",
          "type": "address"
        }
      ],
      "stateMutability": "view",
      "type": "function"
    },
    {
      "inputs": [],
      "name": "owner",
      "outputs": [
        {
          "internalType": "address",
          "name": "",
          "type": "address"
        }
      ],
      "stateMutability": "view",
      "type": "function"
    },
    {
      "inputs": [],
      "name": "redemptionQueue",
      "outputs": [
        {
          "internalType": "address",
          "name": "",
          "type": "address"
        }
      ],
      "stateMutability": "view",
      "type": "function"
    },
    {
      "inputs": [],
      "name": "relock",
      "outputs": [
        {
          "internalType": "uint256",
          "name": "totalProcessed",
          "type": "uint256"
        }
      ],
      "stateMutability": "payable",
      "type": "function"
    },
    {
      "inputs": [],
      "name": "renounceOwnership",
      "outputs": [],
      "stateMutability": "nonpayable",
      "type": "function"
    },
    {
      "inputs": [],
      "name": "sequencerAgentCount",
      "outputs": [
        {
          "internalType": "uint32",
          "name": "",
          "type": "uint32"
        }
      ],
      "stateMutability": "view",
      "type": "function"
    },
    {
      "inputs": [],
      "name": "sequencerAgentTemplate",
      "outputs": [
        {
          "internalType": "address",
          "name": "",
          "type": "address"
        }
      ],
      "stateMutability": "view",
      "type": "function"
    },
    {
      "inputs": [
        {
          "internalType": "uint32",
          "name": "",
          "type": "uint32"
        }
      ],
      "name": "sequencerAgents",
      "outputs": [
        {
          "internalType": "address",
          "name": "",
          "type": "address"
        }
      ],
      "stateMutability": "view",
      "type": "function"
    },
    {
      "inputs": [],
      "name": "sequencerData",
      "outputs": [
        {
          "components": [
            {
              "internalType": "uint256",
              "name": "amount",
              "type": "uint256"
            },
            {
              "internalType": "uint256",
              "name": "reward",
              "type": "uint256"
            },
            {
              "internalType": "uint256",
              "name": "activationBatch",
              "type": "uint256"
            },
            {
              "internalType": "uint256",
              "name": "updatedBatch",
              "type": "uint256"
            },
            {
              "internalType": "uint256",
              "name": "deactivationBatch",
              "type": "uint256"
            },
            {
              "internalType": "uint256",
              "name": "deactivationTime",
              "type": "uint256"
            },
            {
              "internalType": "uint256",
              "name": "unlockClaimTime",
              "type": "uint256"
            },
            {
              "internalType": "uint256",
              "name": "nonce",
              "type": "uint256"
            },
            {
              "internalType": "address",
              "name": "owner",
              "type": "address"
            },
            {
              "internalType": "address",
              "name": "signer",
              "type": "address"
            }
          ],
          "internalType": "struct ILockingPool.SequencerData",
          "name": "",
          "type": "tuple"
        }
      ],
      "stateMutability": "view",
      "type": "function"
    },
    {
      "inputs": [],
      "name": "sequencerId",
      "outputs": [
        {
          "internalType": "uint256",
          "name": "",
          "type": "uint256"
        }
      ],
      "stateMutability": "view",
      "type": "function"
    },
    {
      "inputs": [],
      "name": "sequencerSigner",
      "outputs": [
        {
          "internalType": "address",
          "name": "",
          "type": "address"
        }
      ],
      "stateMutability": "view",
      "type": "function"
    },
    {
      "inputs": [
        {
          "internalType": "uint32",
          "name": "_l2Gas",
          "type": "uint32"
        }
      ],
      "name": "setL2Gas",
      "outputs": [],
      "stateMutability": "nonpayable",
      "type": "function"
    },
    {
      "inputs": [
        {
          "internalType": "address",
          "name": "_l2GasAddress",
          "type": "address"
        }
      ],
      "name": "setL2Minter",
      "outputs": [],
      "stateMutability": "nonpayable",
      "type": "function"
    },
    {
      "inputs": [
        {
          "internalType": "address",
          "name": "_redemptionQueue",
          "type": "address"
        }
      ],
      "name": "setRedemptionQueue",
      "outputs": [],
      "stateMutability": "nonpayable",
      "type": "function"
    },
    {
      "inputs": [],
      "name": "sumRewards",
      "outputs": [
        {
          "internalType": "uint256",
          "name": "",
          "type": "uint256"
        }
      ],
      "stateMutability": "view",
      "type": "function"
    },
    {
      "inputs": [],
      "name": "totalLocked",
      "outputs": [
        {
          "internalType": "uint256",
          "name": "",
          "type": "uint256"
        }
      ],
      "stateMutability": "view",
      "type": "function"
    },
    {
      "inputs": [
        {
          "internalType": "address",
          "name": "newOwner",
          "type": "address"
        }
      ],
      "name": "transferOwnership",
      "outputs": [],
      "stateMutability": "nonpayable",
      "type": "function"
    },
    {
      "inputs": [],
      "name": "unlock",
      "outputs": [],
      "stateMutability": "payable",
      "type": "function"
    },
    {
      "inputs": [],
      "name": "unlockClaim",
      "outputs": [],
      "stateMutability": "payable",
      "type": "function"
    },
    {
      "inputs": [
        {
          "internalType": "uint256",
          "name": "amount",
          "type": "uint256"
        }
      ],
      "name": "withdrawLocking",
      "outputs": [],
      "stateMutability": "nonpayable",
      "type": "function"
    },
    {
      "inputs": [],
      "name": "withdrawRewards",
      "outputs": [
        {
          "internalType": "bool",
          "name": "",
          "type": "bool"
        }
      ],
      "stateMutability": "view",
      "type": "function"
    }
  ],
  "transactionHash": "0xd4a3deea00c1a262cecf4ae1ea9c6538eab0a410f43cfc4dfd91280769ae6f57",
  "args": [],
  "numDeployments": 27,
  "solcInputHash": "ef692cefdceb69c767ac5c162ae09497",
  "bytecode": "0x608060405234801561001057600080fd5b5061336b806100206000396000f3fe6080604052600436106101ee5760003560e01c80638db8ad881161010d578063c53b573d116100a0578063e92d61e51161006f578063e92d61e514610670578063f2fde38b1461069b578063f7cee36a146106c4578063f87b7a3e146106ef578063feafaa6b14610718576101ee565b8063c53b573d146105d1578063c7b8981c146105ef578063d6ae3cd51461061a578063e597455414610645576101ee565b8063af70cba5116100dc578063af70cba51461052b578063b699ce5f14610554578063bb053bf21461057d578063c3b550c8146105a6576101ee565b80638db8ad88146104a057806397ec19be146104cb5780639e935704146104f6578063a69df4b514610521576101ee565b80633cbb69791161018557806376d9f95c1161015457806376d9f95c146103f45780637ca4f8b01461041f57806385d1e2b81461044a5780638da5cb5b14610475576101ee565b80633cbb69791461034a578063457cb5861461037557806356891412146103b2578063715018a6146103dd576101ee565b806328c9edcd116101c157806328c9edcd146102b157806333bec7e7146102cd5780633b4c46d0146102f65780633cb747bf1461031f576101ee565b806302fb0c5e146101f357806304a78fca1461021e578063080e1e4e146102495780631abdaf6a14610274575b600080fd5b3480156101ff57600080fd5b50610208610722565b6040516102159190612429565b60405180910390f35b34801561022a57600080fd5b50610233610735565b604051610240919061245d565b60405180910390f35b34801561025557600080fd5b5061025e61073b565b60405161026b91906124b9565b60405180910390f35b34801561028057600080fd5b5061029b60048036038101906102969190612514565b610761565b6040516102a89190612560565b60405180910390f35b6102cb60048036038101906102c69190612514565b61079b565b005b3480156102d957600080fd5b506102f460048036038101906102ef91906125a7565b610b4e565b005b34801561030257600080fd5b5061031d60048036038101906103189190612600565b610bcb565b005b34801561032b57600080fd5b50610334610c17565b604051610341919061268c565b60405180910390f35b34801561035657600080fd5b5061035f610c3d565b60405161036c9190612560565b60405180910390f35b34801561038157600080fd5b5061039c600480360381019061039791906125a7565b610c53565b6040516103a991906124b9565b60405180910390f35b3480156103be57600080fd5b506103c7610c86565b6040516103d4919061245d565b60405180910390f35b3480156103e957600080fd5b506103f2610c99565b005b34801561040057600080fd5b50610409610cad565b6040516104169190612791565b60405180910390f35b34801561042b57600080fd5b50610434610d59565b604051610441919061245d565b60405180910390f35b34801561045657600080fd5b5061045f610d5f565b60405161046c91906127ce565b60405180910390f35b34801561048157600080fd5b5061048a610d85565b60405161049791906124b9565b60405180910390f35b3480156104ac57600080fd5b506104b5610dbd565b6040516104c291906124b9565b60405180910390f35b3480156104d757600080fd5b506104e0610de1565b6040516104ed91906124b9565b60405180910390f35b34801561050257600080fd5b5061050b610e07565b6040516105189190612560565b60405180910390f35b610529610e1d565b005b34801561053757600080fd5b50610552600480360381019061054d919061292f565b610ee6565b005b34801561056057600080fd5b5061057b6004803603810190610576919061299e565b6112ef565b005b34801561058957600080fd5b506105a4600480360381019061059f9190612514565b611884565b005b3480156105b257600080fd5b506105bb611920565b6040516105c891906124b9565b60405180910390f35b6105d9611946565b6040516105e6919061245d565b60405180910390f35b3480156105fb57600080fd5b50610604611d44565b6040516106119190612429565b60405180910390f35b34801561062657600080fd5b5061062f611d57565b60405161063c919061245d565b60405180910390f35b34801561065157600080fd5b5061065a611d5d565b6040516106679190612a61565b60405180910390f35b34801561067c57600080fd5b50610685611d83565b60405161069291906124b9565b60405180910390f35b3480156106a757600080fd5b506106c260048036038101906106bd9190612600565b611da9565b005b3480156106d057600080fd5b506106d9611e2f565b6040516106e69190612a9d565b60405180910390f35b3480156106fb57600080fd5b5061071660048036038101906107119190612600565b611e55565b005b610720611e99565b005b600e60149054906101000a900460ff1681565b600d5481565b600660009054906101000a900473ffffffffffffffffffffffffffffffffffffffff1681565b600a818154811061077157600080fd5b9060005260206000209060089182820401919006600402915054906101000a900463ffffffff1681565b6107a3611f47565b6000600360009054906101000a900473ffffffffffffffffffffffffffffffffffffffff1673ffffffffffffffffffffffffffffffffffffffff1663e78cea926040518163ffffffff1660e01b8152600401602060405180830381865afa158015610812573d6000803e3d6000fd5b505050506040513d601f19601f820116820180604052508101906108369190612acd565b9050600360009054906101000a900473ffffffffffffffffffffffffffffffffffffffff1673ffffffffffffffffffffffffffffffffffffffff1663c01e1bd66040518163ffffffff1660e01b8152600401602060405180830381865afa1580156108a5573d6000803e3d6000fd5b505050506040513d601f19601f820116820180604052508101906108c99190612acd565b73ffffffffffffffffffffffffffffffffffffffff1663095ea7b382846040518363ffffffff1660e01b8152600401610903929190612afa565b6020604051808303816000875af1158015610922573d6000803e3d6000fd5b505050506040513d601f19601f820116820180604052508101906109469190612b4f565b508073ffffffffffffffffffffffffffffffffffffffff1663ef808be234600554600360009054906101000a900473ffffffffffffffffffffffffffffffffffffffff1673ffffffffffffffffffffffffffffffffffffffff1663c01e1bd66040518163ffffffff1660e01b8152600401602060405180830381865afa1580156109d4573d6000803e3d6000fd5b505050506040513d601f19601f820116820180604052508101906109f89190612acd565b600360009054906101000a900473ffffffffffffffffffffffffffffffffffffffff1673ffffffffffffffffffffffffffffffffffffffff166356eff2676040518163ffffffff1660e01b8152600401602060405180830381865afa158015610a65573d6000803e3d6000fd5b505050506040513d601f19601f82011682018060405250810190610a899190612acd565b600f60009054906101000a900473ffffffffffffffffffffffffffffffffffffffff1688600c60009054906101000a900463ffffffff166040518863ffffffff1660e01b8152600401610ae196959493929190612bb3565b6000604051808303818588803b158015610afa57600080fd5b505af1158015610b0e573d6000803e3d6000fd5b50505050507f7f07d79b615a44774fabea98dc6004ac4307d98ee19284779d4a7866e0e0860b82604051610b42919061245d565b60405180910390a15050565b610b56611f47565b6000600c60009054906101000a900463ffffffff16905081600c60006101000a81548163ffffffff021916908363ffffffff1602179055507f4042b09a75e5a67c8cc2a57e00de6d29fb5202b7207afba895eb8b5cc3e2179e8183604051610bbf929190612c27565b60405180910390a15050565b610bd3611f47565b80600f60006101000a81548173ffffffffffffffffffffffffffffffffffffffff021916908373ffffffffffffffffffffffffffffffffffffffff16021790555050565b600460009054906101000a900473ffffffffffffffffffffffffffffffffffffffff1681565b600c60009054906101000a900463ffffffff1681565b60086020528060005260406000206000915054906101000a900473ffffffffffffffffffffffffffffffffffffffff1681565b6000610c90610cad565b60000151905090565b610ca1611f47565b610cab6000611fce565b565b610cb561238f565b600260009054906101000a900473ffffffffffffffffffffffffffffffffffffffff1673ffffffffffffffffffffffffffffffffffffffff16636ba7ccff600d546040518263ffffffff1660e01b8152600401610d12919061245d565b61014060405180830381865afa158015610d30573d6000803e3d6000fd5b505050506040513d601f19601f82011682018060405250810190610d549190612d60565b905090565b600b5481565b600260009054906101000a900473ffffffffffffffffffffffffffffffffffffffff1681565b600080610d906120a5565b90508060000160009054906101000a900473ffffffffffffffffffffffffffffffffffffffff1691505090565b60008054906101000a900473ffffffffffffffffffffffffffffffffffffffff1681565b600f60009054906101000a900473ffffffffffffffffffffffffffffffffffffffff1681565b600960009054906101000a900463ffffffff1681565b610e25611f47565b600260009054906101000a900473ffffffffffffffffffffffffffffffffffffffff1673ffffffffffffffffffffffffffffffffffffffff1663262c0e6634600d54600c60009054906101000a900463ffffffff166040518463ffffffff1660e01b8152600401610e97929190612d8e565b6000604051808303818588803b158015610eb057600080fd5b505af1158015610ec4573d6000803e3d6000fd5b50505050506000600e60146101000a81548160ff021916908315150217905550565b610eee611f47565b6000600160009054906101000a900473ffffffffffffffffffffffffffffffffffffffff1673ffffffffffffffffffffffffffffffffffffffff166370a08231306040518263ffffffff1660e01b8152600401610f4b91906124b9565b602060405180830381865afa158015610f68573d6000803e3d6000fd5b505050506040513d601f19601f82011682018060405250810190610f8c9190612db7565b905082811015610fd1576040517f08c379a0000000000000000000000000000000000000000000000000000000008152600401610fc890612e67565b60405180910390fd5b83600e60006101000a81548173ffffffffffffffffffffffffffffffffffffffff021916908373ffffffffffffffffffffffffffffffffffffffff160217905550600160009054906101000a900473ffffffffffffffffffffffffffffffffffffffff1673ffffffffffffffffffffffffffffffffffffffff1663095ea7b3600360009054906101000a900473ffffffffffffffffffffffffffffffffffffffff167fffffffffffffffffffffffffffffffffffffffffffffffffffffffffffffffff6040518363ffffffff1660e01b81526004016110b1929190612afa565b6020604051808303816000875af11580156110d0573d6000803e3d6000fd5b505050506040513d601f19601f820116820180604052508101906110f49190612b4f565b611133576040517f08c379a000000000000000000000000000000000000000000000000000000000815260040161112a90612ef9565b60405180910390fd5b600260009054906101000a900473ffffffffffffffffffffffffffffffffffffffff1673ffffffffffffffffffffffffffffffffffffffff16639ad42030600e60009054906101000a900473ffffffffffffffffffffffffffffffffffffffff16600660009054906101000a900473ffffffffffffffffffffffffffffffffffffffff1686866040518563ffffffff1660e01b81526004016111d89493929190612f87565b600060405180830381600087803b1580156111f257600080fd5b505af1158015611206573d6000803e3d6000fd5b50505050600260009054906101000a900473ffffffffffffffffffffffffffffffffffffffff1673ffffffffffffffffffffffffffffffffffffffff1663beb26755600e60009054906101000a900473ffffffffffffffffffffffffffffffffffffffff166040518263ffffffff1660e01b815260040161128791906124b9565b602060405180830381865afa1580156112a4573d6000803e3d6000fd5b505050506040513d601f19601f820116820180604052508101906112c89190612db7565b600d819055506001600e60146101000a81548160ff02191690831515021790555050505050565b60006112f96120cd565b905060008160000160089054906101000a900460ff1615905060008260000160009054906101000a900467ffffffffffffffff1690506000808267ffffffffffffffff161480156113475750825b9050600060018367ffffffffffffffff1614801561137c575060003073ffffffffffffffffffffffffffffffffffffffff163b145b90508115801561138a575080155b156113c1576040517ff92ee8a900000000000000000000000000000000000000000000000000000000815260040160405180910390fd5b60018560000160006101000a81548167ffffffffffffffff021916908367ffffffffffffffff16021790555083156114115760018560000160086101000a81548160ff0219169083151502179055505b600073ffffffffffffffffffffffffffffffffffffffff168c73ffffffffffffffffffffffffffffffffffffffff161415801561147b5750600073ffffffffffffffffffffffffffffffffffffffff168b73ffffffffffffffffffffffffffffffffffffffff1614155b80156114b45750600073ffffffffffffffffffffffffffffffffffffffff168a73ffffffffffffffffffffffffffffffffffffffff1614155b80156114ed5750600073ffffffffffffffffffffffffffffffffffffffff168773ffffffffffffffffffffffffffffffffffffffff1614155b80156115265750600073ffffffffffffffffffffffffffffffffffffffff168673ffffffffffffffffffffffffffffffffffffffff1614155b611565576040517f08c379a000000000000000000000000000000000000000000000000000000000815260040161155c9061301f565b60405180910390fd5b61156e336120f5565b8b600160006101000a81548173ffffffffffffffffffffffffffffffffffffffff021916908373ffffffffffffffffffffffffffffffffffffffff1602179055508a600260006101000a81548173ffffffffffffffffffffffffffffffffffffffff021916908373ffffffffffffffffffffffffffffffffffffffff160217905550600260009054906101000a900473ffffffffffffffffffffffffffffffffffffffff1673ffffffffffffffffffffffffffffffffffffffff1663e2fdcc176040518163ffffffff1660e01b8152600401602060405180830381865afa15801561165d573d6000803e3d6000fd5b505050506040513d601f19601f82011682018060405250810190611681919061307d565b600360006101000a81548173ffffffffffffffffffffffffffffffffffffffff021916908373ffffffffffffffffffffffffffffffffffffffff1602179055508973ffffffffffffffffffffffffffffffffffffffff16633cb747bf6040518163ffffffff1660e01b8152600401602060405180830381865afa15801561170c573d6000803e3d6000fd5b505050506040513d601f19601f820116820180604052508101906117309190612acd565b600460006101000a81548173ffffffffffffffffffffffffffffffffffffffff021916908373ffffffffffffffffffffffffffffffffffffffff1602179055508860058190555087600c60006101000a81548163ffffffff021916908363ffffffff16021790555086600660006101000a81548173ffffffffffffffffffffffffffffffffffffffff021916908373ffffffffffffffffffffffffffffffffffffffff16021790555085600760006101000a81548173ffffffffffffffffffffffffffffffffffffffff021916908373ffffffffffffffffffffffffffffffffffffffff16021790555083156118765760008560000160086101000a81548160ff0219169083151502179055507fc7f505b2f371ae2175ee4913f4499e1f2633a7b5936321eed1cdaeb6115181d2600160405161186d91906130f9565b60405180910390a15b505050505050505050505050565b61188c611f47565b600260009054906101000a900473ffffffffffffffffffffffffffffffffffffffff1673ffffffffffffffffffffffffffffffffffffffff1663441a3e70600d54836040518363ffffffff1660e01b81526004016118eb929190613114565b600060405180830381600087803b15801561190557600080fd5b505af1158015611919573d6000803e3d6000fd5b5050505050565b600e60009054906101000a900473ffffffffffffffffffffffffffffffffffffffff1681565b600080600a805490501161198f576040517f08c379a000000000000000000000000000000000000000000000000000000000815260040161198690613189565b60405180910390fd5b6000600360009054906101000a900473ffffffffffffffffffffffffffffffffffffffff1673ffffffffffffffffffffffffffffffffffffffff16636c0b3e466040518163ffffffff1660e01b8152600401602060405180830381865afa1580156119fe573d6000803e3d6000fd5b505050506040513d601f19601f82011682018060405250810190611a229190612db7565b90506000600160009054906101000a900473ffffffffffffffffffffffffffffffffffffffff1673ffffffffffffffffffffffffffffffffffffffff166370a08231306040518263ffffffff1660e01b8152600401611a8191906124b9565b602060405180830381865afa158015611a9e573d6000803e3d6000fd5b505050506040513d601f19601f82011682018060405250810190611ac29190612db7565b9050600080611acf610cad565b905060008082602001518360000151915091508184611aee91906131d8565b93506000868210611b00576000611b0d565b8187611b0c919061320c565b5b90506000611b1b8288612109565b90508087611b29919061320c565b965060008482611b3991906131d8565b9050808a611b4791906131d8565b99506000600c60049054906101000a900460ff1680611b705750898286611b6e91906131d8565b115b9050808015611b7f5750600086115b15611c2857600260009054906101000a900473ffffffffffffffffffffffffffffffffffffffff1673ffffffffffffffffffffffffffffffffffffffff166317396687600d54600c60009054906101000a900463ffffffff166040518363ffffffff1660e01b8152600401611bf5929190612d8e565b600060405180830381600087803b158015611c0f57600080fd5b505af1158015611c23573d6000803e3d6000fd5b505050505b801580611c355750600083115b15611d0b57600260009054906101000a900473ffffffffffffffffffffffffffffffffffffffff1673ffffffffffffffffffffffffffffffffffffffff1663015bb180600d548560016040518463ffffffff1660e01b8152600401611c9c93929190613240565b600060405180830381600087803b158015611cb657600080fd5b505af1158015611cca573d6000803e3d6000fd5b505050507fb8aafdec9bacdc76bfea3c330063c391a2904d4f91e71f97a91534f3c8ce4ab560008488604051611d02939291906132b2565b60405180910390a15b6000881115611d3757611d1d88612122565b87600b6000828254611d2f91906131d8565b925050819055505b5050505050505050505090565b600c60049054906101000a900460ff1681565b60055481565b600160009054906101000a900473ffffffffffffffffffffffffffffffffffffffff1681565b600760009054906101000a900473ffffffffffffffffffffffffffffffffffffffff1681565b611db1611f47565b600073ffffffffffffffffffffffffffffffffffffffff168173ffffffffffffffffffffffffffffffffffffffff1603611e235760006040517f1e4fbdf7000000000000000000000000000000000000000000000000000000008152600401611e1a91906124b9565b60405180910390fd5b611e2c81611fce565b50565b600360009054906101000a900473ffffffffffffffffffffffffffffffffffffffff1681565b80600660006101000a81548173ffffffffffffffffffffffffffffffffffffffff021916908373ffffffffffffffffffffffffffffffffffffffff16021790555050565b611ea1611f47565b600260009054906101000a900473ffffffffffffffffffffffffffffffffffffffff1673ffffffffffffffffffffffffffffffffffffffff16638ddc74de34600d54600c60009054906101000a900463ffffffff166040518463ffffffff1660e01b8152600401611f13929190612d8e565b6000604051808303818588803b158015611f2c57600080fd5b505af1158015611f40573d6000803e3d6000fd5b5050505050565b611f4f6122a1565b73ffffffffffffffffffffffffffffffffffffffff16611f6d610d85565b73ffffffffffffffffffffffffffffffffffffffff1614611fcc57611f906122a1565b6040517f118cdaa7000000000000000000000000000000000000000000000000000000008152600401611fc391906124b9565b60405180910390fd5b565b6000611fd86120a5565b905060008160000160009054906101000a900473ffffffffffffffffffffffffffffffffffffffff169050828260000160006101000a81548173ffffffffffffffffffffffffffffffffffffffff021916908373ffffffffffffffffffffffffffffffffffffffff1602179055508273ffffffffffffffffffffffffffffffffffffffff168173ffffffffffffffffffffffffffffffffffffffff167f8be0079c531659141344cd1fd0a4f28419497f9722a3daafe3b4186f6b6457e060405160405180910390a3505050565b60007f9016d09d72d40fdae2fd8ceac6b6234c7706214fd39c1cd1e609a0528c199300905090565b60007ff0c57e16840df040f15088dc2f81fe391c3923bec73e23a9662efc9c229c6a00905090565b6120fd6122a9565b612106816122e9565b50565b6000818310612118578161211a565b825b905092915050565b600063eb82afb360e01b8260405160240161213d919061245d565b604051602081830303815290604052907bffffffffffffffffffffffffffffffffffffffffffffffffffffffff19166020820180517bffffffffffffffffffffffffffffffffffffffffffffffffffffffff83818316178352505050509050600460009054906101000a900473ffffffffffffffffffffffffffffffffffffffff1673ffffffffffffffffffffffffffffffffffffffff166344dd5ed634600554600660009054906101000a900473ffffffffffffffffffffffffffffffffffffffff1685600c60009054906101000a900463ffffffff166040518663ffffffff1660e01b815260040161223494939291906132e9565b6000604051808303818588803b15801561224d57600080fd5b505af1158015612261573d6000803e3d6000fd5b50505050507fd644e527c1896057ce642adfbc00f04d6b23d4c2fb30529522184d151dc087dc82604051612295919061245d565b60405180910390a15050565b600033905090565b6122b161236f565b6122e7576040517fd7e6bcf800000000000000000000000000000000000000000000000000000000815260040160405180910390fd5b565b6122f16122a9565b600073ffffffffffffffffffffffffffffffffffffffff168173ffffffffffffffffffffffffffffffffffffffff16036123635760006040517f1e4fbdf700000000000000000000000000000000000000000000000000000000815260040161235a91906124b9565b60405180910390fd5b61236c81611fce565b50565b60006123796120cd565b60000160089054906101000a900460ff16905090565b6040518061014001604052806000815260200160008152602001600081526020016000815260200160008152602001600081526020016000815260200160008152602001600073ffffffffffffffffffffffffffffffffffffffff168152602001600073ffffffffffffffffffffffffffffffffffffffff1681525090565b60008115159050919050565b6124238161240e565b82525050565b600060208201905061243e600083018461241a565b92915050565b6000819050919050565b61245781612444565b82525050565b6000602082019050612472600083018461244e565b92915050565b600073ffffffffffffffffffffffffffffffffffffffff82169050919050565b60006124a382612478565b9050919050565b6124b381612498565b82525050565b60006020820190506124ce60008301846124aa565b92915050565b6000604051905090565b600080fd5b600080fd5b6124f181612444565b81146124fc57600080fd5b50565b60008135905061250e816124e8565b92915050565b60006020828403121561252a576125296124de565b5b6000612538848285016124ff565b91505092915050565b600063ffffffff82169050919050565b61255a81612541565b82525050565b60006020820190506125756000830184612551565b92915050565b61258481612541565b811461258f57600080fd5b50565b6000813590506125a18161257b565b92915050565b6000602082840312156125bd576125bc6124de565b5b60006125cb84828501612592565b91505092915050565b6125dd81612498565b81146125e857600080fd5b50565b6000813590506125fa816125d4565b92915050565b600060208284031215612616576126156124de565b5b6000612624848285016125eb565b91505092915050565b6000819050919050565b600061265261264d61264884612478565b61262d565b612478565b9050919050565b600061266482612637565b9050919050565b600061267682612659565b9050919050565b6126868161266b565b82525050565b60006020820190506126a1600083018461267d565b92915050565b6126b081612444565b82525050565b6126bf81612498565b82525050565b610140820160008201516126dc60008501826126a7565b5060208201516126ef60208501826126a7565b50604082015161270260408501826126a7565b50606082015161271560608501826126a7565b50608082015161272860808501826126a7565b5060a082015161273b60a08501826126a7565b5060c082015161274e60c08501826126a7565b5060e082015161276160e08501826126a7565b506101008201516127766101008501826126b6565b5061012082015161278b6101208501826126b6565b50505050565b6000610140820190506127a760008301846126c5565b92915050565b60006127b882612659565b9050919050565b6127c8816127ad565b82525050565b60006020820190506127e360008301846127bf565b92915050565b600080fd5b600080fd5b6000601f19601f8301169050919050565b7f4e487b7100000000000000000000000000000000000000000000000000000000600052604160045260246000fd5b61283c826127f3565b810181811067ffffffffffffffff8211171561285b5761285a612804565b5b80604052505050565b600061286e6124d4565b905061287a8282612833565b919050565b600067ffffffffffffffff82111561289a57612899612804565b5b6128a3826127f3565b9050602081019050919050565b82818337600083830152505050565b60006128d26128cd8461287f565b612864565b9050828152602081018484840111156128ee576128ed6127ee565b5b6128f98482856128b0565b509392505050565b600082601f830112612916576129156127e9565b5b81356129268482602086016128bf565b91505092915050565b600080600060608486031215612948576129476124de565b5b6000612956868287016125eb565b9350506020612967868287016124ff565b925050604084013567ffffffffffffffff811115612988576129876124e3565b5b61299486828701612901565b9150509250925092565b600080600080600080600060e0888a0312156129bd576129bc6124de565b5b60006129cb8a828b016125eb565b97505060206129dc8a828b016125eb565b96505060406129ed8a828b016125eb565b95505060606129fe8a828b016124ff565b9450506080612a0f8a828b01612592565b93505060a0612a208a828b016125eb565b92505060c0612a318a828b016125eb565b91505092959891949750929550565b6000612a4b82612659565b9050919050565b612a5b81612a40565b82525050565b6000602082019050612a766000830184612a52565b92915050565b6000612a8782612659565b9050919050565b612a9781612a7c565b82525050565b6000602082019050612ab26000830184612a8e565b92915050565b600081519050612ac7816125d4565b92915050565b600060208284031215612ae357612ae26124de565b5b6000612af184828501612ab8565b91505092915050565b6000604082019050612b0f60008301856124aa565b612b1c602083018461244e565b9392505050565b612b2c8161240e565b8114612b3757600080fd5b50565b600081519050612b4981612b23565b92915050565b600060208284031215612b6557612b646124de565b5b6000612b7384828501612b3a565b91505092915050565b600082825260208201905092915050565b50565b6000612b9d600083612b7c565b9150612ba882612b8d565b600082019050919050565b600060e082019050612bc8600083018961244e565b612bd560208301886124aa565b612be260408301876124aa565b612bef60608301866124aa565b612bfc608083018561244e565b612c0960a0830184612551565b81810360c0830152612c1a81612b90565b9050979650505050505050565b6000604082019050612c3c6000830185612551565b612c496020830184612551565b9392505050565b600080fd5b600081519050612c64816124e8565b92915050565b60006101408284031215612c8157612c80612c50565b5b612c8c610140612864565b90506000612c9c84828501612c55565b6000830152506020612cb084828501612c55565b6020830152506040612cc484828501612c55565b6040830152506060612cd884828501612c55565b6060830152506080612cec84828501612c55565b60808301525060a0612d0084828501612c55565b60a08301525060c0612d1484828501612c55565b60c08301525060e0612d2884828501612c55565b60e083015250610100612d3d84828501612ab8565b61010083015250610120612d5384828501612ab8565b6101208301525092915050565b60006101408284031215612d7757612d766124de565b5b6000612d8584828501612c6a565b91505092915050565b6000604082019050612da3600083018561244e565b612db06020830184612551565b9392505050565b600060208284031215612dcd57612dcc6124de565b5b6000612ddb84828501612c55565b91505092915050565b600082825260208201905092915050565b7f4465616c65723a20496e73756666696369656e74204d657469732062616c616e60008201527f6365000000000000000000000000000000000000000000000000000000000000602082015250565b6000612e51602283612de4565b9150612e5c82612df5565b604082019050919050565b60006020820190508181036000830152612e8081612e44565b9050919050565b7f4465616c65723a20417070726f76616c20746f204c6f636b696e67496e666f2060008201527f6661696c65640000000000000000000000000000000000000000000000000000602082015250565b6000612ee3602683612de4565b9150612eee82612e87565b604082019050919050565b60006020820190508181036000830152612f1281612ed6565b9050919050565b600081519050919050565b60005b83811015612f42578082015181840152602081019050612f27565b60008484015250505050565b6000612f5982612f19565b612f638185612b7c565b9350612f73818560208601612f24565b612f7c816127f3565b840191505092915050565b6000608082019050612f9c60008301876124aa565b612fa960208301866124aa565b612fb6604083018561244e565b8181036060830152612fc88184612f4e565b905095945050505050565b7f4465616c65723a207a65726f2061646472657373000000000000000000000000600082015250565b6000613009601483612de4565b915061301482612fd3565b602082019050919050565b6000602082019050818103600083015261303881612ffc565b9050919050565b600061304a82612498565b9050919050565b61305a8161303f565b811461306557600080fd5b50565b60008151905061307781613051565b92915050565b600060208284031215613093576130926124de565b5b60006130a184828501613068565b91505092915050565b6000819050919050565b600067ffffffffffffffff82169050919050565b60006130e36130de6130d9846130aa565b61262d565b6130b4565b9050919050565b6130f3816130c8565b82525050565b600060208201905061310e60008301846130ea565b92915050565b6000604082019050613129600083018561244e565b613136602083018461244e565b9392505050565b7f4465616c65723a206e6f206163746976652073657175656e6365720000000000600082015250565b6000613173601b83612de4565b915061317e8261313d565b602082019050919050565b600060208201905081810360008301526131a281613166565b9050919050565b7f4e487b7100000000000000000000000000000000000000000000000000000000600052601160045260246000fd5b60006131e382612444565b91506131ee83612444565b9250828201905080821115613206576132056131a9565b5b92915050565b600061321782612444565b915061322283612444565b925082820390508181111561323a576132396131a9565b5b92915050565b6000606082019050613255600083018661244e565b613262602083018561244e565b61326f604083018461241a565b949350505050565b6000819050919050565b600061329c61329761329284613277565b61262d565b612541565b9050919050565b6132ac81613281565b82525050565b60006060820190506132c760008301866132a3565b6132d4602083018561244e565b6132e1604083018461244e565b949350505050565b60006080820190506132fe600083018761244e565b61330b60208301866124aa565b818103604083015261331d8185612f4e565b905061332c6060830184612551565b9594505050505056fea2646970667358221220c6ea8fe0f361cf9da226cfca78ddae611d96edc4093c2f60f9388b01952ad59164736f6c63430008140033",
  "devdoc": {
    "errors": {
      "InvalidInitialization()": [
        {
          "details": "The contract is already initialized."
        }
      ],
      "NotInitializing()": [
        {
          "details": "The contract is not initializing."
        }
      ],
      "OwnableInvalidOwner(address)": [
        {
          "details": "The owner is not a valid owner account. (eg. `address(0)`)"
        }
      ],
      "OwnableUnauthorizedAccount(address)": [
        {
          "details": "The caller account is not authorized to perform an operation."
        }
      ]
    },
    "events": {
      "DepositToRedemptionQueue(uint256)": {
        "params": {
          "amount": "The amount of Metis tokens that have been deposited."
        }
      },
      "Initialized(uint64)": {
        "details": "Triggered when the contract has been initialized or reinitialized."
      },
      "L2GasSet(uint32,uint32)": {
        "params": {
          "oldValue": "The old L2 gas limit.        "
        }
      },
      "L2MetisMinted(uint256)": {
        "params": {
          "amount": "The amount of Metis tokens that have been minted."
        }
      },
      "SequencerAgentAdded(uint32,address)": {
        "params": {
          "agent": "address of the agent",
          "index": "index of the agent"
        }
      },
      "SequencerAgentTemplateSet(address,address)": {
        "params": {
          "newValue": "The address of the new sequencer agent template.",
          "oldValue": "The address of the old sequencer agent template."
        }
      },
      "SequencerRelocked(uint32,uint256,uint256)": {
        "params": {
          "amount": "The amount of Metis tokens that have been added to the lock.",
          "index": "The index of the sequencer agent in the sequencer list.",
          "reward": "The amount of additional rewards that have been locked."
        }
      },
      "WithdrawRewardsSet(bool,bool)": {
        "params": {
          "newValue": "The new withdrawRewards.",
          "oldValue": "The old withdrawRewards."
        }
      }
    },
    "kind": "dev",
    "methods": {
      "lockFor(address,uint256,bytes)": {
        "params": {
          "_amount": "The amount of Metis tokens to lock.",
          "_sequencerSigner": "The address of the sequencer signer.",
          "_signerPubKey": "The public key of the sequencer signer."
        }
      },
      "owner()": {
        "details": "Returns the address of the current owner."
      },
      "relock()": {
        "details": "The `relock` function will transfer Metis tokens from the Dealer contract to the sequencer agent contract, and then call the `relock` function on the sequencer agent contract.",
        "returns": {
          "totalProcessed": "The total amount of Metis tokens and rewards that have been relocked."
        }
      },
      "renounceOwnership()": {
        "details": "Leaves the contract without owner. It will not be possible to call `onlyOwner` functions. Can only be called by the current owner. NOTE: Renouncing ownership will leave the contract without an owner, thereby disabling any functionality that is only available to the owner."
      },
      "setL2Gas(uint32)": {
        "details": "The L2 gas limit is used when minting eMetis tokens on Layer 2.",
        "params": {
          "_l2Gas": "The new L2 gas limit."
        }
      },
      "transferOwnership(address)": {
        "details": "Transfers ownership of the contract to a new account (`newOwner`). Can only be called by the current owner."
      },
      "withdrawLocking(uint256)": {
        "params": {
          "amount": "The amount of Metis tokens to withdraw."
        }
      }
    },
    "title": "Dealer",
    "version": 1
  },
  "userdoc": {
    "events": {
      "DepositToRedemptionQueue(uint256)": {
        "notice": "Deposits Metis tokens into the redemption queue."
      },
      "L2GasSet(uint32,uint32)": {
        "notice": "Emits when the L2 gas limit is set."
      },
      "L2MetisMinted(uint256)": {
        "notice": "Emits when Metis tokens are minted on Layer 2."
      },
      "SequencerAgentAdded(uint32,address)": {
        "notice": "Emits when a new sequencer agent is added"
      },
      "SequencerAgentTemplateSet(address,address)": {
        "notice": "Emits when the sequencer agent template is set."
      },
      "SequencerRelocked(uint32,uint256,uint256)": {
        "notice": "Emits when additional Metis tokens and rewards are locked for a sequencer."
      },
      "WithdrawRewardsSet(bool,bool)": {
        "notice": "Emits when withdrawRewards is set."
      }
    },
    "kind": "user",
    "methods": {
      "activeSequencerIds(uint256)": {
        "notice": "The list of active sequencer agent IDs."
      },
      "initialize(address,address,address,uint256,uint32,address,address)": {
        "notice": "Initializes the contract."
      },
      "l2ChainId()": {
        "notice": "The ID of the L2 chain."
      },
      "l2Gas()": {
        "notice": "L2 gas limit."
      },
      "l2Minter()": {
        "notice": "The address of the L2 MetisMinter contract."
      },
      "l2RewardDispatcher()": {
        "notice": "The address of the L2 RewardDispatcher contract."
      },
      "lockFor(address,uint256,bytes)": {
        "notice": "Locks Metis tokens for a new sequencer."
      },
      "lockingInfo()": {
        "notice": "The LockingInfo contract address."
      },
      "lockingPool()": {
        "notice": "The LockingPool contract address."
      },
      "messenger()": {
        "notice": "The L2 messenger contract."
      },
      "metis()": {
        "notice": "The Metis token."
      },
      "relock()": {
        "notice": "Facilitates the process of augmenting the locked Metis tokens and rewards for all currently active sequencers."
      },
      "sequencerAgentCount()": {
        "notice": "The number of sequencer agents."
      },
      "sequencerAgentTemplate()": {
        "notice": "The template contract for sequencer agents."
      },
      "sequencerAgents(uint32)": {
        "notice": "The list of sequencer agents."
      },
      "setL2Gas(uint32)": {
        "notice": "Sets the L2 gas limit."
      },
      "sumRewards()": {
        "notice": "The sum of rewards of all sequencers."
      },
      "totalLocked()": {
        "notice": "Returns the total amount of Metis tokens that have been locked for all sequencers."
      },
      "unlock()": {
        "notice": "Unlock Metis tokens and terminate the sequencer."
      },
      "unlockClaim()": {
        "notice": "The `unlockClaim` function allows a sequencer to claim their Metis tokens after the unlocking waiting period has elapsed."
      },
      "withdrawLocking(uint256)": {
        "notice": "withdraw locked Metis tokens"
      },
      "withdrawRewards()": {
        "notice": "withdraw rewards"
      }
    },
    "notice": "The Dealer contract is responsible for the allocation of Metis tokens from Layer 2 to the LockingPool for sequencers, through sequencer agents.",
    "version": 1
  },
  "storageLayout": {
    "storage": [
      {
        "astId": 2455,
        "contract": "contracts/Dealer.sol:Dealer",
        "label": "sequencerAgentTemplate",
        "offset": 0,
        "slot": "0",
        "type": "t_address"
      },
      {
        "astId": 2459,
        "contract": "contracts/Dealer.sol:Dealer",
        "label": "metis",
        "offset": 0,
        "slot": "1",
        "type": "t_contract(IERC20)979"
      },
      {
        "astId": 2463,
        "contract": "contracts/Dealer.sol:Dealer",
        "label": "lockingPool",
        "offset": 0,
        "slot": "2",
        "type": "t_contract(ILockingPool)3660"
      },
      {
        "astId": 2467,
        "contract": "contracts/Dealer.sol:Dealer",
        "label": "lockingInfo",
        "offset": 0,
        "slot": "3",
        "type": "t_contract(ILockingInfo)3310"
      },
      {
        "astId": 2471,
        "contract": "contracts/Dealer.sol:Dealer",
        "label": "messenger",
        "offset": 0,
        "slot": "4",
        "type": "t_contract(ICrossDomainMessenger)3122"
      },
      {
        "astId": 2474,
        "contract": "contracts/Dealer.sol:Dealer",
        "label": "l2ChainId",
        "offset": 0,
        "slot": "5",
        "type": "t_uint256"
      },
      {
        "astId": 2477,
        "contract": "contracts/Dealer.sol:Dealer",
        "label": "l2Minter",
        "offset": 0,
        "slot": "6",
        "type": "t_address"
      },
      {
        "astId": 2480,
        "contract": "contracts/Dealer.sol:Dealer",
        "label": "l2RewardDispatcher",
        "offset": 0,
        "slot": "7",
        "type": "t_address"
      },
      {
        "astId": 2485,
        "contract": "contracts/Dealer.sol:Dealer",
        "label": "sequencerAgents",
        "offset": 0,
        "slot": "8",
        "type": "t_mapping(t_uint32,t_address)"
      },
      {
        "astId": 2488,
        "contract": "contracts/Dealer.sol:Dealer",
        "label": "sequencerAgentCount",
        "offset": 0,
        "slot": "9",
        "type": "t_uint32"
      },
      {
        "astId": 2492,
        "contract": "contracts/Dealer.sol:Dealer",
        "label": "activeSequencerIds",
        "offset": 0,
        "slot": "10",
        "type": "t_array(t_uint32)dyn_storage"
      },
      {
        "astId": 2495,
        "contract": "contracts/Dealer.sol:Dealer",
        "label": "sumRewards",
        "offset": 0,
        "slot": "11",
        "type": "t_uint256"
      },
      {
        "astId": 2498,
        "contract": "contracts/Dealer.sol:Dealer",
        "label": "l2Gas",
        "offset": 0,
        "slot": "12",
        "type": "t_uint32"
      },
      {
        "astId": 2501,
        "contract": "contracts/Dealer.sol:Dealer",
        "label": "withdrawRewards",
        "offset": 4,
        "slot": "12",
        "type": "t_bool"
      },
      {
        "astId": 2503,
        "contract": "contracts/Dealer.sol:Dealer",
        "label": "sequencerId",
        "offset": 0,
        "slot": "13",
        "type": "t_uint256"
      },
      {
        "astId": 2505,
        "contract": "contracts/Dealer.sol:Dealer",
        "label": "sequencerSigner",
        "offset": 0,
        "slot": "14",
        "type": "t_address"
      },
      {
        "astId": 2507,
        "contract": "contracts/Dealer.sol:Dealer",
        "label": "active",
        "offset": 20,
        "slot": "14",
        "type": "t_bool"
      },
      {
        "astId": 2509,
        "contract": "contracts/Dealer.sol:Dealer",
        "label": "redemptionQueue",
        "offset": 0,
        "slot": "15",
        "type": "t_address"
      }
    ],
    "types": {
      "t_address": {
        "encoding": "inplace",
        "label": "address",
        "numberOfBytes": "20"
      },
      "t_array(t_uint32)dyn_storage": {
        "base": "t_uint32",
        "encoding": "dynamic_array",
        "label": "uint32[]",
        "numberOfBytes": "32"
      },
      "t_bool": {
        "encoding": "inplace",
        "label": "bool",
        "numberOfBytes": "1"
      },
      "t_contract(ICrossDomainMessenger)3122": {
        "encoding": "inplace",
        "label": "contract ICrossDomainMessenger",
        "numberOfBytes": "20"
      },
      "t_contract(IERC20)979": {
        "encoding": "inplace",
        "label": "contract IERC20",
        "numberOfBytes": "20"
      },
      "t_contract(ILockingInfo)3310": {
        "encoding": "inplace",
        "label": "contract ILockingInfo",
        "numberOfBytes": "20"
      },
      "t_contract(ILockingPool)3660": {
        "encoding": "inplace",
        "label": "contract ILockingPool",
        "numberOfBytes": "20"
      },
      "t_mapping(t_uint32,t_address)": {
        "encoding": "mapping",
        "key": "t_uint32",
        "label": "mapping(uint32 => address)",
        "numberOfBytes": "32",
        "value": "t_address"
      },
      "t_uint256": {
        "encoding": "inplace",
        "label": "uint256",
        "numberOfBytes": "32"
      },
      "t_uint32": {
        "encoding": "inplace",
        "label": "uint32",
        "numberOfBytes": "4"
      }
    }
  }
}