{
  "address": "0xE0857fB89346fe718f704EE1d763DC5346C1F223",
  "abi": [
    {
      "inputs": [],
      "name": "InvalidInitialization",
      "type": "error"
    },
    {
      "inputs": [],
      "name": "NotInitializing",
      "type": "error"
    },
    {
      "anonymous": false,
      "inputs": [
        {
          "indexed": false,
          "internalType": "uint64",
          "name": "version",
          "type": "uint64"
        }
      ],
      "name": "Initialized",
      "type": "event"
    },
    {
      "anonymous": false,
      "inputs": [
        {
          "indexed": false,
          "internalType": "uint256",
          "name": "_amount",
          "type": "uint256"
        }
      ],
      "name": "RewardsClaimed",
      "type": "event"
    },
    {
      "anonymous": false,
      "inputs": [
        {
          "indexed": false,
          "internalType": "address",
          "name": "_lockingPool",
          "type": "address"
        },
        {
          "indexed": false,
          "internalType": "address",
          "name": "_l1Token",
          "type": "address"
        },
        {
          "indexed": false,
          "internalType": "address",
          "name": "_dealer",
          "type": "address"
        }
      ],
      "name": "SequencerAgentInitialized",
      "type": "event"
    },
    {
      "anonymous": false,
      "inputs": [
        {
          "indexed": false,
          "internalType": "address",
          "name": "_signer",
          "type": "address"
        },
        {
          "indexed": false,
          "internalType": "uint256",
          "name": "_amount",
          "type": "uint256"
        },
        {
          "indexed": false,
          "internalType": "bytes",
          "name": "_signerPubKey",
          "type": "bytes"
        }
      ],
      "name": "SequencerLocked",
      "type": "event"
    },
    {
      "anonymous": false,
      "inputs": [
        {
          "indexed": false,
          "internalType": "uint256",
          "name": "_amount",
          "type": "uint256"
        }
      ],
      "name": "StakingAmountIncreased",
      "type": "event"
    },
    {
      "anonymous": false,
      "inputs": [
        {
          "indexed": true,
          "internalType": "address",
          "name": "_recipient",
          "type": "address"
        },
        {
          "indexed": false,
          "internalType": "uint256",
          "name": "_amount",
          "type": "uint256"
        }
      ],
      "name": "StakingAmountWithdrawn",
      "type": "event"
    },
    {
      "inputs": [
        {
          "internalType": "uint256",
          "name": "sequencerId",
          "type": "uint256"
        },
        {
          "internalType": "uint32",
          "name": "_l2GasLimit",
          "type": "uint32"
        }
      ],
      "name": "claimRewards",
      "outputs": [],
      "stateMutability": "payable",
      "type": "function"
    },
    {
      "inputs": [],
      "name": "dealer",
      "outputs": [
        {
          "internalType": "address",
          "name": "",
          "type": "address"
        }
      ],
      "stateMutability": "view",
      "type": "function"
    },
    {
      "inputs": [],
      "name": "getDealerAddress",
      "outputs": [
        {
          "internalType": "address",
          "name": "",
          "type": "address"
        }
      ],
      "stateMutability": "view",
      "type": "function"
    },
    {
      "inputs": [
        {
          "internalType": "uint256",
          "name": "sequencerId",
          "type": "uint256"
        },
        {
          "internalType": "uint256",
          "name": "_amount",
          "type": "uint256"
        }
      ],
      "name": "increaseStakingAmount",
      "outputs": [],
      "stateMutability": "nonpayable",
      "type": "function"
    },
    {
      "inputs": [
        {
          "internalType": "address",
          "name": "_dealer",
          "type": "address"
        },
        {
          "internalType": "contract ILockingPool",
          "name": "_lockingPool",
          "type": "address"
        },
        {
          "internalType": "contract ILockingInfo",
          "name": "_lockingInfo",
          "type": "address"
        },
        {
          "internalType": "address",
          "name": "_metis",
          "type": "address"
        }
      ],
      "name": "initialize",
      "outputs": [],
      "stateMutability": "nonpayable",
      "type": "function"
    },
    {
      "inputs": [
        {
          "internalType": "address",
          "name": "_sequencerSigner",
          "type": "address"
        },
        {
          "internalType": "address",
          "name": "_rewardRecipient",
          "type": "address"
        },
        {
          "internalType": "uint256",
          "name": "_amount",
          "type": "uint256"
        },
        {
          "internalType": "bytes",
          "name": "_signerPubKey",
          "type": "bytes"
        }
      ],
      "name": "lock",
      "outputs": [],
      "stateMutability": "nonpayable",
      "type": "function"
    },
    {
      "inputs": [],
      "name": "lockingInfo",
      "outputs": [
        {
          "internalType": "contract ILockingInfo",
          "name": "",
          "type": "address"
        }
      ],
      "stateMutability": "view",
      "type": "function"
    },
    {
      "inputs": [],
      "name": "lockingPool",
      "outputs": [
        {
          "internalType": "contract ILockingPool",
          "name": "",
          "type": "address"
        }
      ],
      "stateMutability": "view",
      "type": "function"
    },
    {
      "inputs": [],
      "name": "metis",
      "outputs": [
        {
          "internalType": "contract IERC20",
          "name": "",
          "type": "address"
        }
      ],
      "stateMutability": "view",
      "type": "function"
    },
    {
      "inputs": [
        {
          "internalType": "uint256",
          "name": "sequencerId",
          "type": "uint256"
        },
        {
          "internalType": "uint32",
          "name": "l2Gas",
          "type": "uint32"
        }
      ],
      "name": "unlock",
      "outputs": [],
      "stateMutability": "payable",
      "type": "function"
    },
    {
      "inputs": [
        {
          "internalType": "uint256",
          "name": "sequencerId",
          "type": "uint256"
        },
        {
          "internalType": "uint32",
          "name": "l2Gas",
          "type": "uint32"
        }
      ],
      "name": "unlockClaim",
      "outputs": [],
      "stateMutability": "payable",
      "type": "function"
    },
    {
      "inputs": [
        {
          "internalType": "uint256",
          "name": "_amount",
          "type": "uint256"
        }
      ],
      "name": "withdrawMetisFromAgent",
      "outputs": [],
      "stateMutability": "nonpayable",
      "type": "function"
    },
    {
      "inputs": [
        {
          "internalType": "uint256",
          "name": "sequencerId",
          "type": "uint256"
        },
        {
          "internalType": "address",
          "name": "_recipient",
          "type": "address"
        },
        {
          "internalType": "uint256",
          "name": "_amount",
          "type": "uint256"
        }
      ],
      "name": "withdrawStakingAmount",
      "outputs": [],
      "stateMutability": "payable",
      "type": "function"
    }
  ],
  "transactionHash": "0xda58521b09b0f6fa5a00b337b67017861a41fbcf3e7d1a3e2b5081f23aac0c46",
  "args": [],
  "numDeployments": 7,
  "solcInputHash": "8bd0e617df7d1a8110ed73c8d1057dd4",
  "bytecode": "0x608060405234801561001057600080fd5b5061210e806100206000396000f3fe6080604052600436106100c25760003560e01c80638ddc74de1161007f578063e597455411610059578063e597455414610208578063efe7ab2814610233578063f7cee36a1461025e578063f8c8765e14610289576100c2565b80638ddc74de146101985780639de2ee21146101b4578063ce6df54a146101df576100c2565b8063084d9732146100c7578063262c0e66146100f057806361928ecf1461010c5780636d8b821d146101285780637b2b14e81461014457806385d1e2b81461016d575b600080fd5b3480156100d357600080fd5b506100ee60048036038101906100e99190611596565b6102b2565b005b61010a60048036038101906101059190611612565b610581565b005b61012660048036038101906101219190611612565b6106a3565b005b610142600480360381019061013d91906116b0565b6107c5565b005b34801561015057600080fd5b5061016b60048036038101906101669190611703565b6109e7565b005b34801561017957600080fd5b50610182610b19565b60405161018f919061178f565b60405180910390f35b6101b260048036038101906101ad9190611612565b610b3f565b005b3480156101c057600080fd5b506101c9610dbd565b6040516101d691906117b9565b60405180910390f35b3480156101eb57600080fd5b506102066004803603810190610201919061191a565b610de1565b005b34801561021457600080fd5b5061021d611223565b60405161022a91906119be565b60405180910390f35b34801561023f57600080fd5b50610248611249565b60405161025591906117b9565b60405180910390f35b34801561026a57600080fd5b50610273611272565b60405161028091906119fa565b60405180910390f35b34801561029557600080fd5b506102b060048036038101906102ab9190611a91565b611298565b005b60008054906101000a900473ffffffffffffffffffffffffffffffffffffffff1673ffffffffffffffffffffffffffffffffffffffff163373ffffffffffffffffffffffffffffffffffffffff1614610340576040517f08c379a000000000000000000000000000000000000000000000000000000000815260040161033790611b55565b60405180910390fd5b60008111610383576040517f08c379a000000000000000000000000000000000000000000000000000000000815260040161037a90611bc1565b60405180910390fd5b600260009054906101000a900473ffffffffffffffffffffffffffffffffffffffff1673ffffffffffffffffffffffffffffffffffffffff1663c01e1bd66040518163ffffffff1660e01b8152600401602060405180830381865afa1580156103f0573d6000803e3d6000fd5b505050506040513d601f19601f820116820180604052508101906104149190611bf6565b73ffffffffffffffffffffffffffffffffffffffff1663095ea7b3600260009054906101000a900473ffffffffffffffffffffffffffffffffffffffff16836040518363ffffffff1660e01b8152600401610470929190611c32565b6020604051808303816000875af115801561048f573d6000803e3d6000fd5b505050506040513d601f19601f820116820180604052508101906104b39190611c93565b50600160009054906101000a900473ffffffffffffffffffffffffffffffffffffffff1673ffffffffffffffffffffffffffffffffffffffff1663015bb180838360006040518463ffffffff1660e01b815260040161051493929190611ccf565b600060405180830381600087803b15801561052e57600080fd5b505af1158015610542573d6000803e3d6000fd5b505050507fd935a9bea639b2f1fc5491469854ff222597497dd304a82491c17495938022ba816040516105759190611d06565b60405180910390a15050565b60008054906101000a900473ffffffffffffffffffffffffffffffffffffffff1673ffffffffffffffffffffffffffffffffffffffff163373ffffffffffffffffffffffffffffffffffffffff161461060f576040517f08c379a000000000000000000000000000000000000000000000000000000000815260040161060690611b55565b60405180910390fd5b600160009054906101000a900473ffffffffffffffffffffffffffffffffffffffff1673ffffffffffffffffffffffffffffffffffffffff1663262c0e663484846040518463ffffffff1660e01b815260040161066d929190611d30565b6000604051808303818588803b15801561068657600080fd5b505af115801561069a573d6000803e3d6000fd5b50505050505050565b60008054906101000a900473ffffffffffffffffffffffffffffffffffffffff1673ffffffffffffffffffffffffffffffffffffffff163373ffffffffffffffffffffffffffffffffffffffff1614610731576040517f08c379a000000000000000000000000000000000000000000000000000000000815260040161072890611b55565b60405180910390fd5b600160009054906101000a900473ffffffffffffffffffffffffffffffffffffffff1673ffffffffffffffffffffffffffffffffffffffff1663173966873484846040518463ffffffff1660e01b815260040161078f929190611d30565b6000604051808303818588803b1580156107a857600080fd5b505af11580156107bc573d6000803e3d6000fd5b50505050505050565b60008054906101000a900473ffffffffffffffffffffffffffffffffffffffff1673ffffffffffffffffffffffffffffffffffffffff163373ffffffffffffffffffffffffffffffffffffffff1614610853576040517f08c379a000000000000000000000000000000000000000000000000000000000815260040161084a90611b55565b60405180910390fd5b60008111610896576040517f08c379a000000000000000000000000000000000000000000000000000000000815260040161088d90611bc1565b60405180910390fd5b600073ffffffffffffffffffffffffffffffffffffffff168273ffffffffffffffffffffffffffffffffffffffff1603610905576040517f08c379a00000000000000000000000000000000000000000000000000000000081526004016108fc90611dcb565b60405180910390fd5b600160009054906101000a900473ffffffffffffffffffffffffffffffffffffffff1673ffffffffffffffffffffffffffffffffffffffff1663441a3e7084836040518363ffffffff1660e01b8152600401610962929190611deb565b600060405180830381600087803b15801561097c57600080fd5b505af1158015610990573d6000803e3d6000fd5b505050508173ffffffffffffffffffffffffffffffffffffffff167f6ef7a26d50cec3f1a210bed887413d426c9c13575a17872c54e00c4287ac5dce826040516109da9190611d06565b60405180910390a2505050565b60008054906101000a900473ffffffffffffffffffffffffffffffffffffffff1673ffffffffffffffffffffffffffffffffffffffff163373ffffffffffffffffffffffffffffffffffffffff1614610a75576040517f08c379a0000000000000000000000000000000000000000000000000000000008152600401610a6c90611b55565b60405180910390fd5b600360009054906101000a900473ffffffffffffffffffffffffffffffffffffffff1673ffffffffffffffffffffffffffffffffffffffff1663a9059cbb33836040518363ffffffff1660e01b8152600401610ad2929190611c32565b6020604051808303816000875af1158015610af1573d6000803e3d6000fd5b505050506040513d601f19601f82011682018060405250810190610b159190611c93565b5050565b600160009054906101000a900473ffffffffffffffffffffffffffffffffffffffff1681565b60008054906101000a900473ffffffffffffffffffffffffffffffffffffffff1673ffffffffffffffffffffffffffffffffffffffff163373ffffffffffffffffffffffffffffffffffffffff1614610bcd576040517f08c379a0000000000000000000000000000000000000000000000000000000008152600401610bc490611b55565b60405180910390fd5b600160009054906101000a900473ffffffffffffffffffffffffffffffffffffffff1673ffffffffffffffffffffffffffffffffffffffff16638ddc74de3484846040518463ffffffff1660e01b8152600401610c2b929190611d30565b6000604051808303818588803b158015610c4457600080fd5b505af1158015610c58573d6000803e3d6000fd5b5050505050600360009054906101000a900473ffffffffffffffffffffffffffffffffffffffff1673ffffffffffffffffffffffffffffffffffffffff1663a9059cbb60008054906101000a900473ffffffffffffffffffffffffffffffffffffffff16600360009054906101000a900473ffffffffffffffffffffffffffffffffffffffff1673ffffffffffffffffffffffffffffffffffffffff166370a08231306040518263ffffffff1660e01b8152600401610d1791906117b9565b602060405180830381865afa158015610d34573d6000803e3d6000fd5b505050506040513d601f19601f82011682018060405250810190610d589190611e29565b6040518363ffffffff1660e01b8152600401610d75929190611c32565b6020604051808303816000875af1158015610d94573d6000803e3d6000fd5b505050506040513d601f19601f82011682018060405250810190610db89190611c93565b505050565b60008054906101000a900473ffffffffffffffffffffffffffffffffffffffff1681565b60008054906101000a900473ffffffffffffffffffffffffffffffffffffffff1673ffffffffffffffffffffffffffffffffffffffff163373ffffffffffffffffffffffffffffffffffffffff1614610e6f576040517f08c379a0000000000000000000000000000000000000000000000000000000008152600401610e6690611b55565b60405180910390fd5b600073ffffffffffffffffffffffffffffffffffffffff168473ffffffffffffffffffffffffffffffffffffffff1614158015610ed95750600073ffffffffffffffffffffffffffffffffffffffff168373ffffffffffffffffffffffffffffffffffffffff1614155b610f18576040517f08c379a0000000000000000000000000000000000000000000000000000000008152600401610f0f90611ea2565b60405180910390fd5b60008211610f5b576040517f08c379a0000000000000000000000000000000000000000000000000000000008152600401610f5290611f0e565b60405180910390fd5b600260009054906101000a900473ffffffffffffffffffffffffffffffffffffffff1673ffffffffffffffffffffffffffffffffffffffff1663c01e1bd66040518163ffffffff1660e01b8152600401602060405180830381865afa158015610fc8573d6000803e3d6000fd5b505050506040513d601f19601f82011682018060405250810190610fec9190611bf6565b73ffffffffffffffffffffffffffffffffffffffff166323b872dd3330856040518463ffffffff1660e01b815260040161102893929190611f2e565b6020604051808303816000875af1158015611047573d6000803e3d6000fd5b505050506040513d601f19601f8201168201806040525081019061106b9190611c93565b50600360009054906101000a900473ffffffffffffffffffffffffffffffffffffffff1673ffffffffffffffffffffffffffffffffffffffff1663095ea7b3600260009054906101000a900473ffffffffffffffffffffffffffffffffffffffff167fffffffffffffffffffffffffffffffffffffffffffffffffffffffffffffffff6040518363ffffffff1660e01b815260040161110b929190611c32565b6020604051808303816000875af115801561112a573d6000803e3d6000fd5b505050506040513d601f19601f8201168201806040525081019061114e9190611c93565b50600160009054906101000a900473ffffffffffffffffffffffffffffffffffffffff1673ffffffffffffffffffffffffffffffffffffffff16639ad42030858585856040518563ffffffff1660e01b81526004016111b09493929190611fe4565b600060405180830381600087803b1580156111ca57600080fd5b505af11580156111de573d6000803e3d6000fd5b505050507f32f2c212b245f6ea5fafe13042df4625f05eaa5d4f4e06dd04b1110620b1623684838360405161121593929190612030565b60405180910390a150505050565b600360009054906101000a900473ffffffffffffffffffffffffffffffffffffffff1681565b60008060009054906101000a900473ffffffffffffffffffffffffffffffffffffffff16905090565b600260009054906101000a900473ffffffffffffffffffffffffffffffffffffffff1681565b60006112a2611524565b905060008160000160089054906101000a900460ff1615905060008260000160009054906101000a900467ffffffffffffffff1690506000808267ffffffffffffffff161480156112f05750825b9050600060018367ffffffffffffffff16148015611325575060003073ffffffffffffffffffffffffffffffffffffffff163b145b905081158015611333575080155b1561136a576040517ff92ee8a900000000000000000000000000000000000000000000000000000000815260040160405180910390fd5b60018560000160006101000a81548167ffffffffffffffff021916908367ffffffffffffffff16021790555083156113ba5760018560000160086101000a81548160ff0219169083151502179055505b886000806101000a81548173ffffffffffffffffffffffffffffffffffffffff021916908373ffffffffffffffffffffffffffffffffffffffff16021790555087600160006101000a81548173ffffffffffffffffffffffffffffffffffffffff021916908373ffffffffffffffffffffffffffffffffffffffff16021790555086600260006101000a81548173ffffffffffffffffffffffffffffffffffffffff021916908373ffffffffffffffffffffffffffffffffffffffff16021790555085600360006101000a81548173ffffffffffffffffffffffffffffffffffffffff021916908373ffffffffffffffffffffffffffffffffffffffff16021790555083156115195760008560000160086101000a81548160ff0219169083151502179055507fc7f505b2f371ae2175ee4913f4499e1f2633a7b5936321eed1cdaeb6115181d2600160405161151091906120bd565b60405180910390a15b505050505050505050565b60007ff0c57e16840df040f15088dc2f81fe391c3923bec73e23a9662efc9c229c6a00905090565b6000604051905090565b600080fd5b600080fd5b6000819050919050565b61157381611560565b811461157e57600080fd5b50565b6000813590506115908161156a565b92915050565b600080604083850312156115ad576115ac611556565b5b60006115bb85828601611581565b92505060206115cc85828601611581565b9150509250929050565b600063ffffffff82169050919050565b6115ef816115d6565b81146115fa57600080fd5b50565b60008135905061160c816115e6565b92915050565b6000806040838503121561162957611628611556565b5b600061163785828601611581565b9250506020611648858286016115fd565b9150509250929050565b600073ffffffffffffffffffffffffffffffffffffffff82169050919050565b600061167d82611652565b9050919050565b61168d81611672565b811461169857600080fd5b50565b6000813590506116aa81611684565b92915050565b6000806000606084860312156116c9576116c8611556565b5b60006116d786828701611581565b93505060206116e88682870161169b565b92505060406116f986828701611581565b9150509250925092565b60006020828403121561171957611718611556565b5b600061172784828501611581565b91505092915050565b6000819050919050565b600061175561175061174b84611652565b611730565b611652565b9050919050565b60006117678261173a565b9050919050565b60006117798261175c565b9050919050565b6117898161176e565b82525050565b60006020820190506117a46000830184611780565b92915050565b6117b381611672565b82525050565b60006020820190506117ce60008301846117aa565b92915050565b600080fd5b600080fd5b6000601f19601f8301169050919050565b7f4e487b7100000000000000000000000000000000000000000000000000000000600052604160045260246000fd5b611827826117de565b810181811067ffffffffffffffff82111715611846576118456117ef565b5b80604052505050565b600061185961154c565b9050611865828261181e565b919050565b600067ffffffffffffffff821115611885576118846117ef565b5b61188e826117de565b9050602081019050919050565b82818337600083830152505050565b60006118bd6118b88461186a565b61184f565b9050828152602081018484840111156118d9576118d86117d9565b5b6118e484828561189b565b509392505050565b600082601f830112611901576119006117d4565b5b81356119118482602086016118aa565b91505092915050565b6000806000806080858703121561193457611933611556565b5b60006119428782880161169b565b94505060206119538782880161169b565b935050604061196487828801611581565b925050606085013567ffffffffffffffff8111156119855761198461155b565b5b611991878288016118ec565b91505092959194509250565b60006119a88261175c565b9050919050565b6119b88161199d565b82525050565b60006020820190506119d360008301846119af565b92915050565b60006119e48261175c565b9050919050565b6119f4816119d9565b82525050565b6000602082019050611a0f60008301846119eb565b92915050565b6000611a2082611672565b9050919050565b611a3081611a15565b8114611a3b57600080fd5b50565b600081359050611a4d81611a27565b92915050565b6000611a5e82611672565b9050919050565b611a6e81611a53565b8114611a7957600080fd5b50565b600081359050611a8b81611a65565b92915050565b60008060008060808587031215611aab57611aaa611556565b5b6000611ab98782880161169b565b9450506020611aca87828801611a3e565b9350506040611adb87828801611a7c565b9250506060611aec8782880161169b565b91505092959194509250565b600082825260208201905092915050565b7f53657175656e6365724167656e743a206f6e6c79206465616c65720000000000600082015250565b6000611b3f601b83611af8565b9150611b4a82611b09565b602082019050919050565b60006020820190508181036000830152611b6e81611b32565b9050919050565b7f53657175656e6365724167656e743a20696e76616c696420616d6f756e740000600082015250565b6000611bab601e83611af8565b9150611bb682611b75565b602082019050919050565b60006020820190508181036000830152611bda81611b9e565b9050919050565b600081519050611bf081611684565b92915050565b600060208284031215611c0c57611c0b611556565b5b6000611c1a84828501611be1565b91505092915050565b611c2c81611560565b82525050565b6000604082019050611c4760008301856117aa565b611c546020830184611c23565b9392505050565b60008115159050919050565b611c7081611c5b565b8114611c7b57600080fd5b50565b600081519050611c8d81611c67565b92915050565b600060208284031215611ca957611ca8611556565b5b6000611cb784828501611c7e565b91505092915050565b611cc981611c5b565b82525050565b6000606082019050611ce46000830186611c23565b611cf16020830185611c23565b611cfe6040830184611cc0565b949350505050565b6000602082019050611d1b6000830184611c23565b92915050565b611d2a816115d6565b82525050565b6000604082019050611d456000830185611c23565b611d526020830184611d21565b9392505050565b7f53657175656e6365724167656e743a20696e76616c696420726563697069656e60008201527f7400000000000000000000000000000000000000000000000000000000000000602082015250565b6000611db5602183611af8565b9150611dc082611d59565b604082019050919050565b60006020820190508181036000830152611de481611da8565b9050919050565b6000604082019050611e006000830185611c23565b611e0d6020830184611c23565b9392505050565b600081519050611e238161156a565b92915050565b600060208284031215611e3f57611e3e611556565b5b6000611e4d84828501611e14565b91505092915050565b7f53657175656e6365724167656e743a207a65726f206164647265737300000000600082015250565b6000611e8c601c83611af8565b9150611e9782611e56565b602082019050919050565b60006020820190508181036000830152611ebb81611e7f565b9050919050565b7f53657175656e6365724167656e743a207a65726f20616d6f756e740000000000600082015250565b6000611ef8601b83611af8565b9150611f0382611ec2565b602082019050919050565b60006020820190508181036000830152611f2781611eeb565b9050919050565b6000606082019050611f4360008301866117aa565b611f5060208301856117aa565b611f5d6040830184611c23565b949350505050565b600081519050919050565b600082825260208201905092915050565b60005b83811015611f9f578082015181840152602081019050611f84565b60008484015250505050565b6000611fb682611f65565b611fc08185611f70565b9350611fd0818560208601611f81565b611fd9816117de565b840191505092915050565b6000608082019050611ff960008301876117aa565b61200660208301866117aa565b6120136040830185611c23565b81810360608301526120258184611fab565b905095945050505050565b600060608201905061204560008301866117aa565b6120526020830185611c23565b81810360408301526120648184611fab565b9050949350505050565b6000819050919050565b600067ffffffffffffffff82169050919050565b60006120a76120a261209d8461206e565b611730565b612078565b9050919050565b6120b78161208c565b82525050565b60006020820190506120d260008301846120ae565b9291505056fea26469706673582212203392d9b6e4b63f3a3ccfae9e89d4bb98e593d7200a2b477f8bed544ed895500064736f6c63430008140033",
  "devdoc": {
    "errors": {
      "InvalidInitialization()": [
        {
          "details": "The contract is already initialized."
        }
      ],
      "NotInitializing()": [
        {
          "details": "The contract is not initializing."
        }
      ]
    },
    "events": {
      "Initialized(uint64)": {
        "details": "Triggered when the contract has been initialized or reinitialized."
      }
    },
    "kind": "dev",
    "methods": {},
    "version": 1
  },
  "userdoc": {
    "kind": "user",
    "methods": {},
    "version": 1
  },
  "storageLayout": {
    "storage": [
      {
        "astId": 3551,
        "contract": "contracts/SequencerAgent.sol:SequencerAgent",
        "label": "dealer",
        "offset": 0,
        "slot": "0",
        "type": "t_address"
      },
      {
        "astId": 3554,
        "contract": "contracts/SequencerAgent.sol:SequencerAgent",
        "label": "lockingPool",
        "offset": 0,
        "slot": "1",
        "type": "t_contract(ILockingPool)4494"
      },
      {
        "astId": 3557,
        "contract": "contracts/SequencerAgent.sol:SequencerAgent",
        "label": "lockingInfo",
        "offset": 0,
        "slot": "2",
        "type": "t_contract(ILockingInfo)4145"
      },
      {
        "astId": 3560,
        "contract": "contracts/SequencerAgent.sol:SequencerAgent",
        "label": "metis",
        "offset": 0,
        "slot": "3",
        "type": "t_contract(IERC20)979"
      }
    ],
    "types": {
      "t_address": {
        "encoding": "inplace",
        "label": "address",
        "numberOfBytes": "20"
      },
      "t_contract(IERC20)979": {
        "encoding": "inplace",
        "label": "contract IERC20",
        "numberOfBytes": "20"
      },
      "t_contract(ILockingInfo)4145": {
        "encoding": "inplace",
        "label": "contract ILockingInfo",
        "numberOfBytes": "20"
      },
      "t_contract(ILockingPool)4494": {
        "encoding": "inplace",
        "label": "contract ILockingPool",
        "numberOfBytes": "20"
      }
    }
  }
}