{
  "_format": "hh-sol-artifact-1",
  "contractName": "Dealer",
  "sourceName": "contracts/Dealer.sol",
  "abi": [
    {
      "inputs": [],
      "name": "InvalidInitialization",
      "type": "error"
    },
    {
      "inputs": [],
      "name": "NotInitializing",
      "type": "error"
    },
    {
      "inputs": [
        {
          "internalType": "address",
          "name": "owner",
          "type": "address"
        }
      ],
      "name": "OwnableInvalidOwner",
      "type": "error"
    },
    {
      "inputs": [
        {
          "internalType": "address",
          "name": "account",
          "type": "address"
        }
      ],
      "name": "OwnableUnauthorizedAccount",
      "type": "error"
    },
    {
      "anonymous": false,
      "inputs": [
        {
          "indexed": false,
          "internalType": "uint64",
          "name": "version",
          "type": "uint64"
        }
      ],
      "name": "Initialized",
      "type": "event"
    },
    {
      "anonymous": false,
      "inputs": [
        {
          "indexed": false,
          "internalType": "uint32",
          "name": "oldValue",
          "type": "uint32"
        },
        {
          "indexed": false,
          "internalType": "uint32",
          "name": "newValue",
          "type": "uint32"
        }
      ],
      "name": "L2GasSet",
      "type": "event"
    },
    {
      "anonymous": false,
      "inputs": [
        {
          "indexed": false,
          "internalType": "uint256",
          "name": "amount",
          "type": "uint256"
        }
      ],
      "name": "L2MetisMinted",
      "type": "event"
    },
    {
      "anonymous": false,
      "inputs": [
        {
          "indexed": true,
          "internalType": "address",
          "name": "previousOwner",
          "type": "address"
        },
        {
          "indexed": true,
          "internalType": "address",
          "name": "newOwner",
          "type": "address"
        }
      ],
      "name": "OwnershipTransferred",
      "type": "event"
    },
    {
      "anonymous": false,
      "inputs": [
        {
          "indexed": false,
          "internalType": "uint32",
          "name": "index",
          "type": "uint32"
        },
        {
          "indexed": false,
          "internalType": "address",
          "name": "agent",
          "type": "address"
        }
      ],
      "name": "SequencerAgentAdded",
      "type": "event"
    },
    {
      "anonymous": false,
      "inputs": [
        {
          "indexed": true,
          "internalType": "address",
          "name": "oldValue",
          "type": "address"
        },
        {
          "indexed": true,
          "internalType": "address",
          "name": "newValue",
          "type": "address"
        }
      ],
      "name": "SequencerAgentTemplateSet",
      "type": "event"
    },
    {
      "anonymous": false,
      "inputs": [
        {
          "indexed": false,
          "internalType": "uint32",
          "name": "index",
          "type": "uint32"
        },
        {
          "indexed": false,
          "internalType": "uint256",
          "name": "amount",
          "type": "uint256"
        },
        {
          "indexed": false,
          "internalType": "uint256",
          "name": "reward",
          "type": "uint256"
        }
      ],
      "name": "SequencerRelocked",
      "type": "event"
    },
    {
      "anonymous": false,
      "inputs": [
        {
          "indexed": true,
          "internalType": "address",
          "name": "recipient",
          "type": "address"
        },
        {
          "indexed": false,
          "internalType": "uint256",
          "name": "amount",
          "type": "uint256"
        }
      ],
      "name": "StakingAmountWithdrawn",
      "type": "event"
    },
    {
      "anonymous": false,
      "inputs": [
        {
          "indexed": false,
          "internalType": "bool",
          "name": "oldValue",
          "type": "bool"
        },
        {
          "indexed": false,
          "internalType": "bool",
          "name": "newValue",
          "type": "bool"
        }
      ],
      "name": "WithdrawRewardsSet",
      "type": "event"
    },
    {
      "inputs": [],
      "name": "active",
      "outputs": [
        {
          "internalType": "bool",
          "name": "",
          "type": "bool"
        }
      ],
      "stateMutability": "view",
      "type": "function"
    },
    {
      "inputs": [
        {
          "internalType": "uint256",
          "name": "",
          "type": "uint256"
        }
      ],
      "name": "activeSequencerIds",
      "outputs": [
        {
          "internalType": "uint32",
          "name": "",
          "type": "uint32"
        }
      ],
      "stateMutability": "view",
      "type": "function"
    },
    {
      "inputs": [
        {
          "internalType": "address",
          "name": "_metis",
          "type": "address"
        },
        {
          "internalType": "address",
          "name": "_lockingPool",
          "type": "address"
        },
        {
          "internalType": "address",
          "name": "_l1Bridge",
          "type": "address"
        },
        {
          "internalType": "uint256",
          "name": "_l2ChainId",
          "type": "uint256"
        },
        {
          "internalType": "uint32",
          "name": "_l2Gas",
          "type": "uint32"
        },
        {
          "internalType": "address",
          "name": "_l2Minter",
          "type": "address"
        },
        {
          "internalType": "address",
          "name": "_l2RewardDispatcher",
          "type": "address"
        }
      ],
      "name": "initialize",
      "outputs": [],
      "stateMutability": "nonpayable",
      "type": "function"
    },
    {
      "inputs": [],
      "name": "l2ChainId",
      "outputs": [
        {
          "internalType": "uint256",
          "name": "",
          "type": "uint256"
        }
      ],
      "stateMutability": "view",
      "type": "function"
    },
    {
      "inputs": [],
      "name": "l2Gas",
      "outputs": [
        {
          "internalType": "uint32",
          "name": "",
          "type": "uint32"
        }
      ],
      "stateMutability": "view",
      "type": "function"
    },
    {
      "inputs": [],
      "name": "l2Minter",
      "outputs": [
        {
          "internalType": "address",
          "name": "",
          "type": "address"
        }
      ],
      "stateMutability": "view",
      "type": "function"
    },
    {
      "inputs": [],
      "name": "l2RewardDispatcher",
      "outputs": [
        {
          "internalType": "address",
          "name": "",
          "type": "address"
        }
      ],
      "stateMutability": "view",
      "type": "function"
    },
    {
      "inputs": [
        {
          "internalType": "address",
          "name": "_sequencerSigner",
          "type": "address"
        },
        {
          "internalType": "uint256",
          "name": "_amount",
          "type": "uint256"
        },
        {
          "internalType": "bytes",
          "name": "_signerPubKey",
          "type": "bytes"
        }
      ],
      "name": "lockFor",
      "outputs": [],
      "stateMutability": "nonpayable",
      "type": "function"
    },
    {
      "inputs": [],
      "name": "lockingInfo",
      "outputs": [
        {
          "internalType": "contract ILockingInfo",
          "name": "",
          "type": "address"
        }
      ],
      "stateMutability": "view",
      "type": "function"
    },
    {
      "inputs": [],
      "name": "lockingPool",
      "outputs": [
        {
          "internalType": "contract ILockingPool",
          "name": "",
          "type": "address"
        }
      ],
      "stateMutability": "view",
      "type": "function"
    },
    {
      "inputs": [],
      "name": "messenger",
      "outputs": [
        {
          "internalType": "contract ICrossDomainMessenger",
          "name": "",
          "type": "address"
        }
      ],
      "stateMutability": "view",
      "type": "function"
    },
    {
      "inputs": [],
      "name": "metis",
      "outputs": [
        {
          "internalType": "contract IERC20",
          "name": "",
          "type": "address"
        }
      ],
      "stateMutability": "view",
      "type": "function"
    },
    {
      "inputs": [],
      "name": "owner",
      "outputs": [
        {
          "internalType": "address",
          "name": "",
          "type": "address"
        }
      ],
      "stateMutability": "view",
      "type": "function"
    },
    {
      "inputs": [],
      "name": "redemptionQueue",
      "outputs": [
        {
          "internalType": "address",
          "name": "",
          "type": "address"
        }
      ],
      "stateMutability": "view",
      "type": "function"
    },
    {
      "inputs": [],
      "name": "relock",
      "outputs": [
        {
          "internalType": "uint256",
          "name": "totalProcessed",
          "type": "uint256"
        }
      ],
      "stateMutability": "payable",
      "type": "function"
    },
    {
      "inputs": [],
      "name": "renounceOwnership",
      "outputs": [],
      "stateMutability": "nonpayable",
      "type": "function"
    },
    {
      "inputs": [],
      "name": "sequencerAgentCount",
      "outputs": [
        {
          "internalType": "uint32",
          "name": "",
          "type": "uint32"
        }
      ],
      "stateMutability": "view",
      "type": "function"
    },
    {
      "inputs": [],
      "name": "sequencerAgentTemplate",
      "outputs": [
        {
          "internalType": "address",
          "name": "",
          "type": "address"
        }
      ],
      "stateMutability": "view",
      "type": "function"
    },
    {
      "inputs": [
        {
          "internalType": "uint32",
          "name": "",
          "type": "uint32"
        }
      ],
      "name": "sequencerAgents",
      "outputs": [
        {
          "internalType": "address",
          "name": "",
          "type": "address"
        }
      ],
      "stateMutability": "view",
      "type": "function"
    },
    {
      "inputs": [],
      "name": "sequencerData",
      "outputs": [
        {
          "components": [
            {
              "internalType": "uint256",
              "name": "amount",
              "type": "uint256"
            },
            {
              "internalType": "uint256",
              "name": "reward",
              "type": "uint256"
            },
            {
              "internalType": "uint256",
              "name": "activationBatch",
              "type": "uint256"
            },
            {
              "internalType": "uint256",
              "name": "updatedBatch",
              "type": "uint256"
            },
            {
              "internalType": "uint256",
              "name": "deactivationBatch",
              "type": "uint256"
            },
            {
              "internalType": "uint256",
              "name": "deactivationTime",
              "type": "uint256"
            },
            {
              "internalType": "uint256",
              "name": "unlockClaimTime",
              "type": "uint256"
            },
            {
              "internalType": "uint256",
              "name": "nonce",
              "type": "uint256"
            },
            {
              "internalType": "address",
              "name": "owner",
              "type": "address"
            },
            {
              "internalType": "address",
              "name": "signer",
              "type": "address"
            }
          ],
          "internalType": "struct ILockingPool.SequencerData",
          "name": "",
          "type": "tuple"
        }
      ],
      "stateMutability": "view",
      "type": "function"
    },
    {
      "inputs": [],
      "name": "sequencerId",
      "outputs": [
        {
          "internalType": "uint256",
          "name": "",
          "type": "uint256"
        }
      ],
      "stateMutability": "view",
      "type": "function"
    },
    {
      "inputs": [],
      "name": "sequencerSigner",
      "outputs": [
        {
          "internalType": "address",
          "name": "",
          "type": "address"
        }
      ],
      "stateMutability": "view",
      "type": "function"
    },
    {
      "inputs": [
        {
          "internalType": "uint32",
          "name": "_l2Gas",
          "type": "uint32"
        }
      ],
      "name": "setL2Gas",
      "outputs": [],
      "stateMutability": "nonpayable",
      "type": "function"
    },
    {
      "inputs": [
        {
          "internalType": "address",
          "name": "_l2MinterAddress",
          "type": "address"
        }
      ],
      "name": "setL2Minter",
      "outputs": [],
      "stateMutability": "nonpayable",
      "type": "function"
    },
    {
      "inputs": [
        {
          "internalType": "address",
          "name": "_l2RewardDispatcher",
          "type": "address"
        }
      ],
      "name": "setL2RewardDispatcher",
      "outputs": [],
      "stateMutability": "nonpayable",
      "type": "function"
    },
    {
      "inputs": [
        {
          "internalType": "address",
          "name": "_redemptionQueue",
          "type": "address"
        }
      ],
      "name": "setRedemptionQueue",
      "outputs": [],
      "stateMutability": "nonpayable",
      "type": "function"
    },
    {
      "inputs": [],
      "name": "sumRewards",
      "outputs": [
        {
          "internalType": "uint256",
          "name": "",
          "type": "uint256"
        }
      ],
      "stateMutability": "view",
      "type": "function"
    },
    {
      "inputs": [],
      "name": "totalLocked",
      "outputs": [
        {
          "internalType": "uint256",
          "name": "",
          "type": "uint256"
        }
      ],
      "stateMutability": "view",
      "type": "function"
    },
    {
      "inputs": [
        {
          "internalType": "address",
          "name": "newOwner",
          "type": "address"
        }
      ],
      "name": "transferOwnership",
      "outputs": [],
      "stateMutability": "nonpayable",
      "type": "function"
    },
    {
      "inputs": [],
      "name": "unlock",
      "outputs": [],
      "stateMutability": "payable",
      "type": "function"
    },
    {
      "inputs": [],
      "name": "unlockClaim",
      "outputs": [],
      "stateMutability": "payable",
      "type": "function"
    },
    {
      "inputs": [],
      "name": "withdrawRewards",
      "outputs": [
        {
          "internalType": "bool",
          "name": "",
          "type": "bool"
        }
      ],
      "stateMutability": "view",
      "type": "function"
    },
    {
      "inputs": [
        {
          "internalType": "uint256",
          "name": "amount",
          "type": "uint256"
        }
      ],
      "name": "withdrawStakingAmount",
      "outputs": [],
      "stateMutability": "payable",
      "type": "function"
    }
  ],
  "bytecode": "0x608060405234801561001057600080fd5b5061343c806100206000396000f3fe6080604052600436106101ee5760003560e01c80638da5cb5b1161010d578063c53b573d116100a0578063e92d61e51161006f578063e92d61e514610670578063f2fde38b1461069b578063f7cee36a146106c4578063f87b7a3e146106ef578063feafaa6b14610718576101ee565b8063c53b573d146105d1578063c7b8981c146105ef578063d6ae3cd51461061a578063e597455414610645576101ee565b8063a69df4b5116100dc578063a69df4b51461054a578063af70cba514610554578063b699ce5f1461057d578063c3b550c8146105a6576101ee565b80638da5cb5b1461049e5780638db8ad88146104c957806397ec19be146104f45780639e9357041461051f576101ee565b80633cbb697911610185578063715018a611610154578063715018a61461040657806376d9f95c1461041d5780637ca4f8b01461044857806385d1e2b814610473576101ee565b80633cbb69791461034a57806343c82cf714610375578063457cb5861461039e57806356891412146103db576101ee565b80631abdaf6a116101c15780631abdaf6a1461029057806333bec7e7146102cd5780633b4c46d0146102f65780633cb747bf1461031f576101ee565b80630182a6da146101f357806302fb0c5e1461020f57806304a78fca1461023a578063080e1e4e14610265575b600080fd5b61020d600480360381019061020891906124fd565b610722565b005b34801561021b57600080fd5b50610224610b9f565b6040516102319190612545565b60405180910390f35b34801561024657600080fd5b5061024f610bb2565b60405161025c919061256f565b60405180910390f35b34801561027157600080fd5b5061027a610bb8565b60405161028791906125cb565b60405180910390f35b34801561029c57600080fd5b506102b760048036038101906102b291906124fd565b610bde565b6040516102c49190612605565b60405180910390f35b3480156102d957600080fd5b506102f460048036038101906102ef919061264c565b610c18565b005b34801561030257600080fd5b5061031d600480360381019061031891906126a5565b610c95565b005b34801561032b57600080fd5b50610334610ce1565b6040516103419190612731565b60405180910390f35b34801561035657600080fd5b5061035f610d07565b60405161036c9190612605565b60405180910390f35b34801561038157600080fd5b5061039c600480360381019061039791906126a5565b610d1d565b005b3480156103aa57600080fd5b506103c560048036038101906103c0919061264c565b610d69565b6040516103d291906125cb565b60405180910390f35b3480156103e757600080fd5b506103f0610d9c565b6040516103fd919061256f565b60405180910390f35b34801561041257600080fd5b5061041b610daf565b005b34801561042957600080fd5b50610432610dc3565b60405161043f9190612836565b60405180910390f35b34801561045457600080fd5b5061045d610e6f565b60405161046a919061256f565b60405180910390f35b34801561047f57600080fd5b50610488610e75565b6040516104959190612873565b60405180910390f35b3480156104aa57600080fd5b506104b3610e9b565b6040516104c091906125cb565b60405180910390f35b3480156104d557600080fd5b506104de610ed3565b6040516104eb91906125cb565b60405180910390f35b34801561050057600080fd5b50610509610ef7565b60405161051691906125cb565b60405180910390f35b34801561052b57600080fd5b50610534610f1d565b6040516105419190612605565b60405180910390f35b610552610f33565b005b34801561056057600080fd5b5061057b600480360381019061057691906129d4565b610ffc565b005b34801561058957600080fd5b506105a4600480360381019061059f9190612a43565b611405565b005b3480156105b257600080fd5b506105bb61199a565b6040516105c891906125cb565b60405180910390f35b6105d96119c0565b6040516105e6919061256f565b60405180910390f35b3480156105fb57600080fd5b50610604611de1565b6040516106119190612545565b60405180910390f35b34801561062657600080fd5b5061062f611df4565b60405161063c919061256f565b60405180910390f35b34801561065157600080fd5b5061065a611dfa565b6040516106679190612b06565b60405180910390f35b34801561067c57600080fd5b50610685611e20565b60405161069291906125cb565b60405180910390f35b3480156106a757600080fd5b506106c260048036038101906106bd91906126a5565b611e46565b005b3480156106d057600080fd5b506106d9611ecc565b6040516106e69190612b42565b60405180910390f35b3480156106fb57600080fd5b50610716600480360381019061071191906126a5565b611ef2565b005b610720611f3e565b005b61072a611fec565b600260009054906101000a900473ffffffffffffffffffffffffffffffffffffffff1673ffffffffffffffffffffffffffffffffffffffff1663441a3e70600d54836040518363ffffffff1660e01b8152600401610789929190612b5d565b600060405180830381600087803b1580156107a357600080fd5b505af11580156107b7573d6000803e3d6000fd5b505050506000600360009054906101000a900473ffffffffffffffffffffffffffffffffffffffff1673ffffffffffffffffffffffffffffffffffffffff1663e78cea926040518163ffffffff1660e01b8152600401602060405180830381865afa15801561082a573d6000803e3d6000fd5b505050506040513d601f19601f8201168201806040525081019061084e9190612b9b565b9050600360009054906101000a900473ffffffffffffffffffffffffffffffffffffffff1673ffffffffffffffffffffffffffffffffffffffff1663c01e1bd66040518163ffffffff1660e01b8152600401602060405180830381865afa1580156108bd573d6000803e3d6000fd5b505050506040513d601f19601f820116820180604052508101906108e19190612b9b565b73ffffffffffffffffffffffffffffffffffffffff1663095ea7b382846040518363ffffffff1660e01b815260040161091b929190612bc8565b6020604051808303816000875af115801561093a573d6000803e3d6000fd5b505050506040513d601f19601f8201168201806040525081019061095e9190612c1d565b508073ffffffffffffffffffffffffffffffffffffffff1663ef808be234600554600360009054906101000a900473ffffffffffffffffffffffffffffffffffffffff1673ffffffffffffffffffffffffffffffffffffffff1663c01e1bd66040518163ffffffff1660e01b8152600401602060405180830381865afa1580156109ec573d6000803e3d6000fd5b505050506040513d601f19601f82011682018060405250810190610a109190612b9b565b600360009054906101000a900473ffffffffffffffffffffffffffffffffffffffff1673ffffffffffffffffffffffffffffffffffffffff166356eff2676040518163ffffffff1660e01b8152600401602060405180830381865afa158015610a7d573d6000803e3d6000fd5b505050506040513d601f19601f82011682018060405250810190610aa19190612b9b565b600f60009054906101000a900473ffffffffffffffffffffffffffffffffffffffff1688600c60009054906101000a900463ffffffff166040518863ffffffff1660e01b8152600401610af996959493929190612c81565b6000604051808303818588803b158015610b1257600080fd5b505af1158015610b26573d6000803e3d6000fd5b5050505050600f60009054906101000a900473ffffffffffffffffffffffffffffffffffffffff1673ffffffffffffffffffffffffffffffffffffffff167f6ef7a26d50cec3f1a210bed887413d426c9c13575a17872c54e00c4287ac5dce83604051610b93919061256f565b60405180910390a25050565b600e60149054906101000a900460ff1681565b600d5481565b600660009054906101000a900473ffffffffffffffffffffffffffffffffffffffff1681565b600a8181548110610bee57600080fd5b9060005260206000209060089182820401919006600402915054906101000a900463ffffffff1681565b610c20611fec565b6000600c60009054906101000a900463ffffffff16905081600c60006101000a81548163ffffffff021916908363ffffffff1602179055507f4042b09a75e5a67c8cc2a57e00de6d29fb5202b7207afba895eb8b5cc3e2179e8183604051610c89929190612cf5565b60405180910390a15050565b610c9d611fec565b80600f60006101000a81548173ffffffffffffffffffffffffffffffffffffffff021916908373ffffffffffffffffffffffffffffffffffffffff16021790555050565b600460009054906101000a900473ffffffffffffffffffffffffffffffffffffffff1681565b600c60009054906101000a900463ffffffff1681565b610d25611fec565b80600760006101000a81548173ffffffffffffffffffffffffffffffffffffffff021916908373ffffffffffffffffffffffffffffffffffffffff16021790555050565b60086020528060005260406000206000915054906101000a900473ffffffffffffffffffffffffffffffffffffffff1681565b6000610da6610dc3565b60000151905090565b610db7611fec565b610dc16000612073565b565b610dcb612434565b600260009054906101000a900473ffffffffffffffffffffffffffffffffffffffff1673ffffffffffffffffffffffffffffffffffffffff16636ba7ccff600d546040518263ffffffff1660e01b8152600401610e28919061256f565b61014060405180830381865afa158015610e46573d6000803e3d6000fd5b505050506040513d601f19601f82011682018060405250810190610e6a9190612e2e565b905090565b600b5481565b600260009054906101000a900473ffffffffffffffffffffffffffffffffffffffff1681565b600080610ea661214a565b90508060000160009054906101000a900473ffffffffffffffffffffffffffffffffffffffff1691505090565b60008054906101000a900473ffffffffffffffffffffffffffffffffffffffff1681565b600f60009054906101000a900473ffffffffffffffffffffffffffffffffffffffff1681565b600960009054906101000a900463ffffffff1681565b610f3b611fec565b600260009054906101000a900473ffffffffffffffffffffffffffffffffffffffff1673ffffffffffffffffffffffffffffffffffffffff1663262c0e6634600d54600c60009054906101000a900463ffffffff166040518463ffffffff1660e01b8152600401610fad929190612e5c565b6000604051808303818588803b158015610fc657600080fd5b505af1158015610fda573d6000803e3d6000fd5b50505050506000600e60146101000a81548160ff021916908315150217905550565b611004611fec565b6000600160009054906101000a900473ffffffffffffffffffffffffffffffffffffffff1673ffffffffffffffffffffffffffffffffffffffff166370a08231306040518263ffffffff1660e01b815260040161106191906125cb565b602060405180830381865afa15801561107e573d6000803e3d6000fd5b505050506040513d601f19601f820116820180604052508101906110a29190612e85565b9050828110156110e7576040517f08c379a00000000000000000000000000000000000000000000000000000000081526004016110de90612f35565b60405180910390fd5b83600e60006101000a81548173ffffffffffffffffffffffffffffffffffffffff021916908373ffffffffffffffffffffffffffffffffffffffff160217905550600160009054906101000a900473ffffffffffffffffffffffffffffffffffffffff1673ffffffffffffffffffffffffffffffffffffffff1663095ea7b3600360009054906101000a900473ffffffffffffffffffffffffffffffffffffffff167fffffffffffffffffffffffffffffffffffffffffffffffffffffffffffffffff6040518363ffffffff1660e01b81526004016111c7929190612bc8565b6020604051808303816000875af11580156111e6573d6000803e3d6000fd5b505050506040513d601f19601f8201168201806040525081019061120a9190612c1d565b611249576040517f08c379a000000000000000000000000000000000000000000000000000000000815260040161124090612fc7565b60405180910390fd5b600260009054906101000a900473ffffffffffffffffffffffffffffffffffffffff1673ffffffffffffffffffffffffffffffffffffffff16639ad42030600e60009054906101000a900473ffffffffffffffffffffffffffffffffffffffff16600660009054906101000a900473ffffffffffffffffffffffffffffffffffffffff1686866040518563ffffffff1660e01b81526004016112ee9493929190613055565b600060405180830381600087803b15801561130857600080fd5b505af115801561131c573d6000803e3d6000fd5b50505050600260009054906101000a900473ffffffffffffffffffffffffffffffffffffffff1673ffffffffffffffffffffffffffffffffffffffff1663beb26755600e60009054906101000a900473ffffffffffffffffffffffffffffffffffffffff166040518263ffffffff1660e01b815260040161139d91906125cb565b602060405180830381865afa1580156113ba573d6000803e3d6000fd5b505050506040513d601f19601f820116820180604052508101906113de9190612e85565b600d819055506001600e60146101000a81548160ff02191690831515021790555050505050565b600061140f612172565b905060008160000160089054906101000a900460ff1615905060008260000160009054906101000a900467ffffffffffffffff1690506000808267ffffffffffffffff1614801561145d5750825b9050600060018367ffffffffffffffff16148015611492575060003073ffffffffffffffffffffffffffffffffffffffff163b145b9050811580156114a0575080155b156114d7576040517ff92ee8a900000000000000000000000000000000000000000000000000000000815260040160405180910390fd5b60018560000160006101000a81548167ffffffffffffffff021916908367ffffffffffffffff16021790555083156115275760018560000160086101000a81548160ff0219169083151502179055505b600073ffffffffffffffffffffffffffffffffffffffff168c73ffffffffffffffffffffffffffffffffffffffff16141580156115915750600073ffffffffffffffffffffffffffffffffffffffff168b73ffffffffffffffffffffffffffffffffffffffff1614155b80156115ca5750600073ffffffffffffffffffffffffffffffffffffffff168a73ffffffffffffffffffffffffffffffffffffffff1614155b80156116035750600073ffffffffffffffffffffffffffffffffffffffff168773ffffffffffffffffffffffffffffffffffffffff1614155b801561163c5750600073ffffffffffffffffffffffffffffffffffffffff168673ffffffffffffffffffffffffffffffffffffffff1614155b61167b576040517f08c379a0000000000000000000000000000000000000000000000000000000008152600401611672906130ed565b60405180910390fd5b6116843361219a565b8b600160006101000a81548173ffffffffffffffffffffffffffffffffffffffff021916908373ffffffffffffffffffffffffffffffffffffffff1602179055508a600260006101000a81548173ffffffffffffffffffffffffffffffffffffffff021916908373ffffffffffffffffffffffffffffffffffffffff160217905550600260009054906101000a900473ffffffffffffffffffffffffffffffffffffffff1673ffffffffffffffffffffffffffffffffffffffff1663e2fdcc176040518163ffffffff1660e01b8152600401602060405180830381865afa158015611773573d6000803e3d6000fd5b505050506040513d601f19601f82011682018060405250810190611797919061314b565b600360006101000a81548173ffffffffffffffffffffffffffffffffffffffff021916908373ffffffffffffffffffffffffffffffffffffffff1602179055508973ffffffffffffffffffffffffffffffffffffffff16633cb747bf6040518163ffffffff1660e01b8152600401602060405180830381865afa158015611822573d6000803e3d6000fd5b505050506040513d601f19601f820116820180604052508101906118469190612b9b565b600460006101000a81548173ffffffffffffffffffffffffffffffffffffffff021916908373ffffffffffffffffffffffffffffffffffffffff1602179055508860058190555087600c60006101000a81548163ffffffff021916908363ffffffff16021790555086600660006101000a81548173ffffffffffffffffffffffffffffffffffffffff021916908373ffffffffffffffffffffffffffffffffffffffff16021790555085600760006101000a81548173ffffffffffffffffffffffffffffffffffffffff021916908373ffffffffffffffffffffffffffffffffffffffff160217905550831561198c5760008560000160086101000a81548160ff0219169083151502179055507fc7f505b2f371ae2175ee4913f4499e1f2633a7b5936321eed1cdaeb6115181d2600160405161198391906131c7565b60405180910390a15b505050505050505050505050565b600e60009054906101000a900473ffffffffffffffffffffffffffffffffffffffff1681565b600080600a8054905011611a09576040517f08c379a0000000000000000000000000000000000000000000000000000000008152600401611a009061322e565b60405180910390fd5b6000600360009054906101000a900473ffffffffffffffffffffffffffffffffffffffff1673ffffffffffffffffffffffffffffffffffffffff16636c0b3e466040518163ffffffff1660e01b8152600401602060405180830381865afa158015611a78573d6000803e3d6000fd5b505050506040513d601f19601f82011682018060405250810190611a9c9190612e85565b90506000600160009054906101000a900473ffffffffffffffffffffffffffffffffffffffff1673ffffffffffffffffffffffffffffffffffffffff166370a08231306040518263ffffffff1660e01b8152600401611afb91906125cb565b602060405180830381865afa158015611b18573d6000803e3d6000fd5b505050506040513d601f19601f82011682018060405250810190611b3c9190612e85565b90506000805b60018163ffffffff161015611dae576000611b5b610dc3565b905060008082602001518360000151915091508185611b7a919061327d565b94506000878210611b8c576000611b99565b8188611b9891906132b1565b5b90506000611ba782896121ae565b90508088611bb591906132b1565b975060008482611bc5919061327d565b905060008103611bda57505050505050611d9b565b808b611be6919061327d565b9a5060008a8286611bf7919061327d565b119050808015611c075750600086115b15611cb057600260009054906101000a900473ffffffffffffffffffffffffffffffffffffffff1673ffffffffffffffffffffffffffffffffffffffff166317396687600d54600c60009054906101000a900463ffffffff166040518363ffffffff1660e01b8152600401611c7d929190612e5c565b600060405180830381600087803b158015611c9757600080fd5b505af1158015611cab573d6000803e3d6000fd5b505050505b801580611cbd5750600083115b15611d9357600260009054906101000a900473ffffffffffffffffffffffffffffffffffffffff1673ffffffffffffffffffffffffffffffffffffffff1663015bb180600d548560016040518463ffffffff1660e01b8152600401611d24939291906132e5565b600060405180830381600087803b158015611d3e57600080fd5b505af1158015611d52573d6000803e3d6000fd5b505050507fb8aafdec9bacdc76bfea3c330063c391a2904d4f91e71f97a91534f3c8ce4ab560008488604051611d8a93929190613357565b60405180910390a15b505050505050505b8080611da69061338e565b915050611b42565b506000811115611ddb57611dc1816121c7565b80600b6000828254611dd3919061327d565b925050819055505b50505090565b600c60049054906101000a900460ff1681565b60055481565b600160009054906101000a900473ffffffffffffffffffffffffffffffffffffffff1681565b600760009054906101000a900473ffffffffffffffffffffffffffffffffffffffff1681565b611e4e611fec565b600073ffffffffffffffffffffffffffffffffffffffff168173ffffffffffffffffffffffffffffffffffffffff1603611ec05760006040517f1e4fbdf7000000000000000000000000000000000000000000000000000000008152600401611eb791906125cb565b60405180910390fd5b611ec981612073565b50565b600360009054906101000a900473ffffffffffffffffffffffffffffffffffffffff1681565b611efa611fec565b80600660006101000a81548173ffffffffffffffffffffffffffffffffffffffff021916908373ffffffffffffffffffffffffffffffffffffffff16021790555050565b611f46611fec565b600260009054906101000a900473ffffffffffffffffffffffffffffffffffffffff1673ffffffffffffffffffffffffffffffffffffffff16638ddc74de34600d54600c60009054906101000a900463ffffffff166040518463ffffffff1660e01b8152600401611fb8929190612e5c565b6000604051808303818588803b158015611fd157600080fd5b505af1158015611fe5573d6000803e3d6000fd5b5050505050565b611ff4612346565b73ffffffffffffffffffffffffffffffffffffffff16612012610e9b565b73ffffffffffffffffffffffffffffffffffffffff161461207157612035612346565b6040517f118cdaa700000000000000000000000000000000000000000000000000000000815260040161206891906125cb565b60405180910390fd5b565b600061207d61214a565b905060008160000160009054906101000a900473ffffffffffffffffffffffffffffffffffffffff169050828260000160006101000a81548173ffffffffffffffffffffffffffffffffffffffff021916908373ffffffffffffffffffffffffffffffffffffffff1602179055508273ffffffffffffffffffffffffffffffffffffffff168173ffffffffffffffffffffffffffffffffffffffff167f8be0079c531659141344cd1fd0a4f28419497f9722a3daafe3b4186f6b6457e060405160405180910390a3505050565b60007f9016d09d72d40fdae2fd8ceac6b6234c7706214fd39c1cd1e609a0528c199300905090565b60007ff0c57e16840df040f15088dc2f81fe391c3923bec73e23a9662efc9c229c6a00905090565b6121a261234e565b6121ab8161238e565b50565b60008183106121bd57816121bf565b825b905092915050565b600063eb82afb360e01b826040516024016121e2919061256f565b604051602081830303815290604052907bffffffffffffffffffffffffffffffffffffffffffffffffffffffff19166020820180517bffffffffffffffffffffffffffffffffffffffffffffffffffffffff83818316178352505050509050600460009054906101000a900473ffffffffffffffffffffffffffffffffffffffff1673ffffffffffffffffffffffffffffffffffffffff166344dd5ed634600554600660009054906101000a900473ffffffffffffffffffffffffffffffffffffffff1685600c60009054906101000a900463ffffffff166040518663ffffffff1660e01b81526004016122d994939291906133ba565b6000604051808303818588803b1580156122f257600080fd5b505af1158015612306573d6000803e3d6000fd5b50505050507fd644e527c1896057ce642adfbc00f04d6b23d4c2fb30529522184d151dc087dc8260405161233a919061256f565b60405180910390a15050565b600033905090565b612356612414565b61238c576040517fd7e6bcf800000000000000000000000000000000000000000000000000000000815260040160405180910390fd5b565b61239661234e565b600073ffffffffffffffffffffffffffffffffffffffff168173ffffffffffffffffffffffffffffffffffffffff16036124085760006040517f1e4fbdf70000000000000000000000000000000000000000000000000000000081526004016123ff91906125cb565b60405180910390fd5b61241181612073565b50565b600061241e612172565b60000160089054906101000a900460ff16905090565b6040518061014001604052806000815260200160008152602001600081526020016000815260200160008152602001600081526020016000815260200160008152602001600073ffffffffffffffffffffffffffffffffffffffff168152602001600073ffffffffffffffffffffffffffffffffffffffff1681525090565b6000604051905090565b600080fd5b600080fd5b6000819050919050565b6124da816124c7565b81146124e557600080fd5b50565b6000813590506124f7816124d1565b92915050565b600060208284031215612513576125126124bd565b5b6000612521848285016124e8565b91505092915050565b60008115159050919050565b61253f8161252a565b82525050565b600060208201905061255a6000830184612536565b92915050565b612569816124c7565b82525050565b60006020820190506125846000830184612560565b92915050565b600073ffffffffffffffffffffffffffffffffffffffff82169050919050565b60006125b58261258a565b9050919050565b6125c5816125aa565b82525050565b60006020820190506125e060008301846125bc565b92915050565b600063ffffffff82169050919050565b6125ff816125e6565b82525050565b600060208201905061261a60008301846125f6565b92915050565b612629816125e6565b811461263457600080fd5b50565b60008135905061264681612620565b92915050565b600060208284031215612662576126616124bd565b5b600061267084828501612637565b91505092915050565b612682816125aa565b811461268d57600080fd5b50565b60008135905061269f81612679565b92915050565b6000602082840312156126bb576126ba6124bd565b5b60006126c984828501612690565b91505092915050565b6000819050919050565b60006126f76126f26126ed8461258a565b6126d2565b61258a565b9050919050565b6000612709826126dc565b9050919050565b600061271b826126fe565b9050919050565b61272b81612710565b82525050565b60006020820190506127466000830184612722565b92915050565b612755816124c7565b82525050565b612764816125aa565b82525050565b61014082016000820151612781600085018261274c565b506020820151612794602085018261274c565b5060408201516127a7604085018261274c565b5060608201516127ba606085018261274c565b5060808201516127cd608085018261274c565b5060a08201516127e060a085018261274c565b5060c08201516127f360c085018261274c565b5060e082015161280660e085018261274c565b5061010082015161281b61010085018261275b565b5061012082015161283061012085018261275b565b50505050565b60006101408201905061284c600083018461276a565b92915050565b600061285d826126fe565b9050919050565b61286d81612852565b82525050565b60006020820190506128886000830184612864565b92915050565b600080fd5b600080fd5b6000601f19601f8301169050919050565b7f4e487b7100000000000000000000000000000000000000000000000000000000600052604160045260246000fd5b6128e182612898565b810181811067ffffffffffffffff82111715612900576128ff6128a9565b5b80604052505050565b60006129136124b3565b905061291f82826128d8565b919050565b600067ffffffffffffffff82111561293f5761293e6128a9565b5b61294882612898565b9050602081019050919050565b82818337600083830152505050565b600061297761297284612924565b612909565b90508281526020810184848401111561299357612992612893565b5b61299e848285612955565b509392505050565b600082601f8301126129bb576129ba61288e565b5b81356129cb848260208601612964565b91505092915050565b6000806000606084860312156129ed576129ec6124bd565b5b60006129fb86828701612690565b9350506020612a0c868287016124e8565b925050604084013567ffffffffffffffff811115612a2d57612a2c6124c2565b5b612a39868287016129a6565b9150509250925092565b600080600080600080600060e0888a031215612a6257612a616124bd565b5b6000612a708a828b01612690565b9750506020612a818a828b01612690565b9650506040612a928a828b01612690565b9550506060612aa38a828b016124e8565b9450506080612ab48a828b01612637565b93505060a0612ac58a828b01612690565b92505060c0612ad68a828b01612690565b91505092959891949750929550565b6000612af0826126fe565b9050919050565b612b0081612ae5565b82525050565b6000602082019050612b1b6000830184612af7565b92915050565b6000612b2c826126fe565b9050919050565b612b3c81612b21565b82525050565b6000602082019050612b576000830184612b33565b92915050565b6000604082019050612b726000830185612560565b612b7f6020830184612560565b9392505050565b600081519050612b9581612679565b92915050565b600060208284031215612bb157612bb06124bd565b5b6000612bbf84828501612b86565b91505092915050565b6000604082019050612bdd60008301856125bc565b612bea6020830184612560565b9392505050565b612bfa8161252a565b8114612c0557600080fd5b50565b600081519050612c1781612bf1565b92915050565b600060208284031215612c3357612c326124bd565b5b6000612c4184828501612c08565b91505092915050565b600082825260208201905092915050565b50565b6000612c6b600083612c4a565b9150612c7682612c5b565b600082019050919050565b600060e082019050612c966000830189612560565b612ca360208301886125bc565b612cb060408301876125bc565b612cbd60608301866125bc565b612cca6080830185612560565b612cd760a08301846125f6565b81810360c0830152612ce881612c5e565b9050979650505050505050565b6000604082019050612d0a60008301856125f6565b612d1760208301846125f6565b9392505050565b600080fd5b600081519050612d32816124d1565b92915050565b60006101408284031215612d4f57612d4e612d1e565b5b612d5a610140612909565b90506000612d6a84828501612d23565b6000830152506020612d7e84828501612d23565b6020830152506040612d9284828501612d23565b6040830152506060612da684828501612d23565b6060830152506080612dba84828501612d23565b60808301525060a0612dce84828501612d23565b60a08301525060c0612de284828501612d23565b60c08301525060e0612df684828501612d23565b60e083015250610100612e0b84828501612b86565b61010083015250610120612e2184828501612b86565b6101208301525092915050565b60006101408284031215612e4557612e446124bd565b5b6000612e5384828501612d38565b91505092915050565b6000604082019050612e716000830185612560565b612e7e60208301846125f6565b9392505050565b600060208284031215612e9b57612e9a6124bd565b5b6000612ea984828501612d23565b91505092915050565b600082825260208201905092915050565b7f4465616c65723a20496e73756666696369656e74204d657469732062616c616e60008201527f6365000000000000000000000000000000000000000000000000000000000000602082015250565b6000612f1f602283612eb2565b9150612f2a82612ec3565b604082019050919050565b60006020820190508181036000830152612f4e81612f12565b9050919050565b7f4465616c65723a20417070726f76616c20746f204c6f636b696e67496e666f2060008201527f6661696c65640000000000000000000000000000000000000000000000000000602082015250565b6000612fb1602683612eb2565b9150612fbc82612f55565b604082019050919050565b60006020820190508181036000830152612fe081612fa4565b9050919050565b600081519050919050565b60005b83811015613010578082015181840152602081019050612ff5565b60008484015250505050565b600061302782612fe7565b6130318185612c4a565b9350613041818560208601612ff2565b61304a81612898565b840191505092915050565b600060808201905061306a60008301876125bc565b61307760208301866125bc565b6130846040830185612560565b8181036060830152613096818461301c565b905095945050505050565b7f4465616c65723a207a65726f2061646472657373000000000000000000000000600082015250565b60006130d7601483612eb2565b91506130e2826130a1565b602082019050919050565b60006020820190508181036000830152613106816130ca565b9050919050565b6000613118826125aa565b9050919050565b6131288161310d565b811461313357600080fd5b50565b6000815190506131458161311f565b92915050565b600060208284031215613161576131606124bd565b5b600061316f84828501613136565b91505092915050565b6000819050919050565b600067ffffffffffffffff82169050919050565b60006131b16131ac6131a784613178565b6126d2565b613182565b9050919050565b6131c181613196565b82525050565b60006020820190506131dc60008301846131b8565b92915050565b7f4465616c65723a206e6f206163746976652073657175656e6365720000000000600082015250565b6000613218601b83612eb2565b9150613223826131e2565b602082019050919050565b600060208201905081810360008301526132478161320b565b9050919050565b7f4e487b7100000000000000000000000000000000000000000000000000000000600052601160045260246000fd5b6000613288826124c7565b9150613293836124c7565b92508282019050808211156132ab576132aa61324e565b5b92915050565b60006132bc826124c7565b91506132c7836124c7565b92508282039050818111156132df576132de61324e565b5b92915050565b60006060820190506132fa6000830186612560565b6133076020830185612560565b6133146040830184612536565b949350505050565b6000819050919050565b600061334161333c6133378461331c565b6126d2565b6125e6565b9050919050565b61335181613326565b82525050565b600060608201905061336c6000830186613348565b6133796020830185612560565b6133866040830184612560565b949350505050565b6000613399826125e6565b915063ffffffff82036133af576133ae61324e565b5b600182019050919050565b60006080820190506133cf6000830187612560565b6133dc60208301866125bc565b81810360408301526133ee818561301c565b90506133fd60608301846125f6565b9594505050505056fea2646970667358221220ffd88fd32fe6fa262003de9853ca0e342d945ccc831ebda87bc265019d8970fa64736f6c63430008140033",
  "linkReferences": {},
  "deployedLinkReferences": {}
}