{
  "_format": "hh-sol-artifact-1",
  "contractName": "Dealer",
  "sourceName": "contracts/Dealer.sol",
  "abi": [
    {
      "inputs": [],
      "name": "InvalidInitialization",
      "type": "error"
    },
    {
      "inputs": [],
      "name": "NotInitializing",
      "type": "error"
    },
    {
      "inputs": [
        {
          "internalType": "address",
          "name": "owner",
          "type": "address"
        }
      ],
      "name": "OwnableInvalidOwner",
      "type": "error"
    },
    {
      "inputs": [
        {
          "internalType": "address",
          "name": "account",
          "type": "address"
        }
      ],
      "name": "OwnableUnauthorizedAccount",
      "type": "error"
    },
    {
      "anonymous": false,
      "inputs": [
        {
          "indexed": false,
          "internalType": "uint64",
          "name": "version",
          "type": "uint64"
        }
      ],
      "name": "Initialized",
      "type": "event"
    },
    {
      "anonymous": false,
      "inputs": [
        {
          "indexed": false,
          "internalType": "uint32",
          "name": "oldValue",
          "type": "uint32"
        },
        {
          "indexed": false,
          "internalType": "uint32",
          "name": "newValue",
          "type": "uint32"
        }
      ],
      "name": "L2GasSet",
      "type": "event"
    },
    {
      "anonymous": false,
      "inputs": [
        {
          "indexed": false,
          "internalType": "uint256",
          "name": "amount",
          "type": "uint256"
        }
      ],
      "name": "L2MetisMinted",
      "type": "event"
    },
    {
      "anonymous": false,
      "inputs": [
        {
          "indexed": true,
          "internalType": "address",
          "name": "previousOwner",
          "type": "address"
        },
        {
          "indexed": true,
          "internalType": "address",
          "name": "newOwner",
          "type": "address"
        }
      ],
      "name": "OwnershipTransferred",
      "type": "event"
    },
    {
      "anonymous": false,
      "inputs": [
        {
          "indexed": true,
          "internalType": "uint256",
          "name": "sequencerId",
          "type": "uint256"
        },
        {
          "indexed": false,
          "internalType": "uint256",
          "name": "reward",
          "type": "uint256"
        }
      ],
      "name": "RewardsWithdrawn",
      "type": "event"
    },
    {
      "anonymous": false,
      "inputs": [
        {
          "indexed": false,
          "internalType": "uint32",
          "name": "index",
          "type": "uint32"
        },
        {
          "indexed": false,
          "internalType": "address",
          "name": "agent",
          "type": "address"
        }
      ],
      "name": "SequencerAgentAdded",
      "type": "event"
    },
    {
      "anonymous": false,
      "inputs": [
        {
          "indexed": true,
          "internalType": "address",
          "name": "oldValue",
          "type": "address"
        },
        {
          "indexed": true,
          "internalType": "address",
          "name": "newValue",
          "type": "address"
        }
      ],
      "name": "SequencerAgentTemplateSet",
      "type": "event"
    },
    {
      "anonymous": false,
      "inputs": [
        {
          "indexed": true,
          "internalType": "address",
          "name": "sequencerSigner",
          "type": "address"
        },
        {
          "indexed": false,
          "internalType": "uint256",
          "name": "amount",
          "type": "uint256"
        },
        {
          "indexed": false,
          "internalType": "bool",
          "name": "active",
          "type": "bool"
        }
      ],
      "name": "SequencerInitialBalanceLocked",
      "type": "event"
    },
    {
      "anonymous": false,
      "inputs": [
        {
          "indexed": false,
          "internalType": "uint256",
          "name": "sequencerId",
          "type": "uint256"
        },
        {
          "indexed": false,
          "internalType": "uint256",
          "name": "amount",
          "type": "uint256"
        }
      ],
      "name": "SequencerRelocked",
      "type": "event"
    },
    {
      "anonymous": false,
      "inputs": [
        {
          "indexed": true,
          "internalType": "address",
          "name": "sequencerSigner",
          "type": "address"
        }
      ],
      "name": "SequencerTerminated",
      "type": "event"
    },
    {
      "anonymous": false,
      "inputs": [
        {
          "indexed": true,
          "internalType": "address",
          "name": "recipient",
          "type": "address"
        },
        {
          "indexed": false,
          "internalType": "uint256",
          "name": "amount",
          "type": "uint256"
        }
      ],
      "name": "StakingAmountWithdrawnToRedemptionQueue",
      "type": "event"
    },
    {
      "anonymous": false,
      "inputs": [
        {
          "indexed": false,
          "internalType": "bool",
          "name": "oldValue",
          "type": "bool"
        },
        {
          "indexed": false,
          "internalType": "bool",
          "name": "newValue",
          "type": "bool"
        }
      ],
      "name": "WithdrawRewardsSet",
      "type": "event"
    },
    {
      "inputs": [],
      "name": "active",
      "outputs": [
        {
          "internalType": "bool",
          "name": "",
          "type": "bool"
        }
      ],
      "stateMutability": "view",
      "type": "function"
    },
    {
      "inputs": [
        {
          "internalType": "uint256",
          "name": "",
          "type": "uint256"
        }
      ],
      "name": "activeSequencerIds",
      "outputs": [
        {
          "internalType": "uint32",
          "name": "",
          "type": "uint32"
        }
      ],
      "stateMutability": "view",
      "type": "function"
    },
    {
      "inputs": [
        {
          "internalType": "uint256",
          "name": "_amount",
          "type": "uint256"
        }
      ],
      "name": "canStake",
      "outputs": [
        {
          "internalType": "bool",
          "name": "",
          "type": "bool"
        }
      ],
      "stateMutability": "view",
      "type": "function"
    },
    {
      "inputs": [],
      "name": "claimRewards",
      "outputs": [],
      "stateMutability": "payable",
      "type": "function"
    },
    {
      "inputs": [],
      "name": "getRewards",
      "outputs": [
        {
          "internalType": "uint256",
          "name": "",
          "type": "uint256"
        }
      ],
      "stateMutability": "view",
      "type": "function"
    },
    {
      "inputs": [
        {
          "internalType": "address",
          "name": "_metis",
          "type": "address"
        },
        {
          "internalType": "address",
          "name": "_lockingPool",
          "type": "address"
        },
        {
          "internalType": "address",
          "name": "_l1Bridge",
          "type": "address"
        },
        {
          "internalType": "uint256",
          "name": "_l2ChainId",
          "type": "uint256"
        },
        {
          "internalType": "uint32",
          "name": "_l2Gas",
          "type": "uint32"
        },
        {
          "internalType": "address",
          "name": "_l2Minter",
          "type": "address"
        },
        {
          "internalType": "address",
          "name": "_l2RewardDispatcher",
          "type": "address"
        }
      ],
      "name": "initialize",
      "outputs": [],
      "stateMutability": "nonpayable",
      "type": "function"
    },
    {
      "inputs": [],
      "name": "l2ChainId",
      "outputs": [
        {
          "internalType": "uint256",
          "name": "",
          "type": "uint256"
        }
      ],
      "stateMutability": "view",
      "type": "function"
    },
    {
      "inputs": [],
      "name": "l2Gas",
      "outputs": [
        {
          "internalType": "uint32",
          "name": "",
          "type": "uint32"
        }
      ],
      "stateMutability": "view",
      "type": "function"
    },
    {
      "inputs": [],
      "name": "l2Minter",
      "outputs": [
        {
          "internalType": "address",
          "name": "",
          "type": "address"
        }
      ],
      "stateMutability": "view",
      "type": "function"
    },
    {
      "inputs": [],
      "name": "l2RewardDispatcher",
      "outputs": [
        {
          "internalType": "address",
          "name": "",
          "type": "address"
        }
      ],
      "stateMutability": "view",
      "type": "function"
    },
    {
      "inputs": [
        {
          "internalType": "address",
          "name": "_sequencerSigner",
          "type": "address"
        },
        {
          "internalType": "uint256",
          "name": "_amount",
          "type": "uint256"
        },
        {
          "internalType": "bytes",
          "name": "_signerPubKey",
          "type": "bytes"
        }
      ],
      "name": "lockFor",
      "outputs": [],
      "stateMutability": "nonpayable",
      "type": "function"
    },
    {
      "inputs": [],
      "name": "lockingInfo",
      "outputs": [
        {
          "internalType": "contract ILockingInfo",
          "name": "",
          "type": "address"
        }
      ],
      "stateMutability": "view",
      "type": "function"
    },
    {
      "inputs": [],
      "name": "lockingPool",
      "outputs": [
        {
          "internalType": "contract ILockingPool",
          "name": "",
          "type": "address"
        }
      ],
      "stateMutability": "view",
      "type": "function"
    },
    {
      "inputs": [],
      "name": "messenger",
      "outputs": [
        {
          "internalType": "contract ICrossDomainMessenger",
          "name": "",
          "type": "address"
        }
      ],
      "stateMutability": "view",
      "type": "function"
    },
    {
      "inputs": [],
      "name": "metis",
      "outputs": [
        {
          "internalType": "contract IERC20",
          "name": "",
          "type": "address"
        }
      ],
      "stateMutability": "view",
      "type": "function"
    },
    {
      "inputs": [],
      "name": "owner",
      "outputs": [
        {
          "internalType": "address",
          "name": "",
          "type": "address"
        }
      ],
      "stateMutability": "view",
      "type": "function"
    },
    {
      "inputs": [],
      "name": "redemptionQueue",
      "outputs": [
        {
          "internalType": "address",
          "name": "",
          "type": "address"
        }
      ],
      "stateMutability": "view",
      "type": "function"
    },
    {
      "inputs": [],
      "name": "relock",
      "outputs": [],
      "stateMutability": "payable",
      "type": "function"
    },
    {
      "inputs": [],
      "name": "renounceOwnership",
      "outputs": [],
      "stateMutability": "nonpayable",
      "type": "function"
    },
    {
      "inputs": [],
      "name": "sequencerAgentCount",
      "outputs": [
        {
          "internalType": "uint32",
          "name": "",
          "type": "uint32"
        }
      ],
      "stateMutability": "view",
      "type": "function"
    },
    {
      "inputs": [],
      "name": "sequencerAgentTemplate",
      "outputs": [
        {
          "internalType": "address",
          "name": "",
          "type": "address"
        }
      ],
      "stateMutability": "view",
      "type": "function"
    },
    {
      "inputs": [
        {
          "internalType": "uint32",
          "name": "",
          "type": "uint32"
        }
      ],
      "name": "sequencerAgents",
      "outputs": [
        {
          "internalType": "address",
          "name": "",
          "type": "address"
        }
      ],
      "stateMutability": "view",
      "type": "function"
    },
    {
      "inputs": [],
      "name": "sequencerData",
      "outputs": [
        {
          "components": [
            {
              "internalType": "uint256",
              "name": "amount",
              "type": "uint256"
            },
            {
              "internalType": "uint256",
              "name": "reward",
              "type": "uint256"
            },
            {
              "internalType": "uint256",
              "name": "activationBatch",
              "type": "uint256"
            },
            {
              "internalType": "uint256",
              "name": "updatedBatch",
              "type": "uint256"
            },
            {
              "internalType": "uint256",
              "name": "deactivationBatch",
              "type": "uint256"
            },
            {
              "internalType": "uint256",
              "name": "deactivationTime",
              "type": "uint256"
            },
            {
              "internalType": "uint256",
              "name": "unlockClaimTime",
              "type": "uint256"
            },
            {
              "internalType": "uint256",
              "name": "nonce",
              "type": "uint256"
            },
            {
              "internalType": "address",
              "name": "owner",
              "type": "address"
            },
            {
              "internalType": "address",
              "name": "signer",
              "type": "address"
            }
          ],
          "internalType": "struct ILockingPool.SequencerData",
          "name": "",
          "type": "tuple"
        }
      ],
      "stateMutability": "view",
      "type": "function"
    },
    {
      "inputs": [],
      "name": "sequencerId",
      "outputs": [
        {
          "internalType": "uint256",
          "name": "",
          "type": "uint256"
        }
      ],
      "stateMutability": "view",
      "type": "function"
    },
    {
      "inputs": [],
      "name": "sequencerSigner",
      "outputs": [
        {
          "internalType": "address",
          "name": "",
          "type": "address"
        }
      ],
      "stateMutability": "view",
      "type": "function"
    },
    {
      "inputs": [
        {
          "internalType": "bool",
          "name": "_active",
          "type": "bool"
        }
      ],
      "name": "setActive",
      "outputs": [],
      "stateMutability": "nonpayable",
      "type": "function"
    },
    {
      "inputs": [
        {
          "internalType": "uint32",
          "name": "_l2Gas",
          "type": "uint32"
        }
      ],
      "name": "setL2Gas",
      "outputs": [],
      "stateMutability": "nonpayable",
      "type": "function"
    },
    {
      "inputs": [
        {
          "internalType": "address",
          "name": "_l2MinterAddress",
          "type": "address"
        }
      ],
      "name": "setL2Minter",
      "outputs": [],
      "stateMutability": "nonpayable",
      "type": "function"
    },
    {
      "inputs": [
        {
          "internalType": "address",
          "name": "_l2RewardDispatcher",
          "type": "address"
        }
      ],
      "name": "setL2RewardDispatcher",
      "outputs": [],
      "stateMutability": "nonpayable",
      "type": "function"
    },
    {
      "inputs": [
        {
          "internalType": "address",
          "name": "_redemptionQueue",
          "type": "address"
        }
      ],
      "name": "setRedemptionQueue",
      "outputs": [],
      "stateMutability": "nonpayable",
      "type": "function"
    },
    {
      "inputs": [],
      "name": "stakingAmount",
      "outputs": [
        {
          "internalType": "uint256",
          "name": "",
          "type": "uint256"
        }
      ],
      "stateMutability": "view",
      "type": "function"
    },
    {
      "inputs": [],
      "name": "sumRewards",
      "outputs": [
        {
          "internalType": "uint256",
          "name": "",
          "type": "uint256"
        }
      ],
      "stateMutability": "view",
      "type": "function"
    },
    {
      "inputs": [],
      "name": "totalLocked",
      "outputs": [
        {
          "internalType": "uint256",
          "name": "",
          "type": "uint256"
        }
      ],
      "stateMutability": "view",
      "type": "function"
    },
    {
      "inputs": [
        {
          "internalType": "address",
          "name": "newOwner",
          "type": "address"
        }
      ],
      "name": "transferOwnership",
      "outputs": [],
      "stateMutability": "nonpayable",
      "type": "function"
    },
    {
      "inputs": [],
      "name": "unlock",
      "outputs": [],
      "stateMutability": "payable",
      "type": "function"
    },
    {
      "inputs": [],
      "name": "unlockClaim",
      "outputs": [],
      "stateMutability": "payable",
      "type": "function"
    },
    {
      "inputs": [],
      "name": "withdrawRewards",
      "outputs": [
        {
          "internalType": "bool",
          "name": "",
          "type": "bool"
        }
      ],
      "stateMutability": "view",
      "type": "function"
    },
    {
      "inputs": [
        {
          "internalType": "uint256",
          "name": "amount",
          "type": "uint256"
        }
      ],
      "name": "withdrawStakingAmount",
      "outputs": [],
      "stateMutability": "payable",
      "type": "function"
    }
  ],
  "bytecode": "0x608060405234801561001057600080fd5b506138d0806100206000396000f3fe6080604052600436106102255760003560e01c806385d1e2b811610123578063c3b550c8116100ab578063e92d61e51161006f578063e92d61e514610759578063f2fde38b14610784578063f7cee36a146107ad578063f87b7a3e146107d8578063feafaa6b1461080157610225565b8063c3b550c8146106a3578063c53b573d146106ce578063c7b8981c146106d8578063d6ae3cd514610703578063e59745541461072e57610225565b80639e935704116100f25780639e935704146105f3578063a69df4b51461061e578063acec338a14610628578063af70cba514610651578063b699ce5f1461067a57610225565b806385d1e2b8146105475780638da5cb5b146105725780638db8ad881461059d57806397ec19be146105c857610225565b80633cb747bf116101b157806356891412116101755780635689141214610484578063715018a6146104af578063739a3e02146104c657806376d9f95c146104f15780637ca4f8b01461051c57610225565b80633cb747bf1461038b5780633cbb6979146103b657806343c82cf7146103e1578063457cb5861461040a578063539066531461044757610225565b8063080e1e4e116101f8578063080e1e4e146102c75780631abdaf6a146102f257806333bec7e71461032f578063372500ab146103585780633b4c46d01461036257610225565b80630182a6da1461022a57806302fb0c5e1461024657806304a78fca146102715780630572b0cc1461029c575b600080fd5b610244600480360381019061023f9190612828565b61080b565b005b34801561025257600080fd5b5061025b610db0565b6040516102689190612870565b60405180910390f35b34801561027d57600080fd5b50610286610dc3565b604051610293919061289a565b60405180910390f35b3480156102a857600080fd5b506102b1610dc9565b6040516102be919061289a565b60405180910390f35b3480156102d357600080fd5b506102dc610dd8565b6040516102e991906128f6565b60405180910390f35b3480156102fe57600080fd5b5061031960048036038101906103149190612828565b610dfe565b6040516103269190612930565b60405180910390f35b34801561033b57600080fd5b5061035660048036038101906103519190612977565b610e38565b005b610360610eb5565b005b34801561036e57600080fd5b50610389600480360381019061038491906129d0565b610fed565b005b34801561039757600080fd5b506103a0611039565b6040516103ad9190612a5c565b60405180910390f35b3480156103c257600080fd5b506103cb61105f565b6040516103d89190612930565b60405180910390f35b3480156103ed57600080fd5b50610408600480360381019061040391906129d0565b611075565b005b34801561041657600080fd5b50610431600480360381019061042c9190612977565b6110c1565b60405161043e91906128f6565b60405180910390f35b34801561045357600080fd5b5061046e60048036038101906104699190612828565b6110f4565b60405161047b9190612870565b60405180910390f35b34801561049057600080fd5b506104996111b6565b6040516104a6919061289a565b60405180910390f35b3480156104bb57600080fd5b506104c46111c9565b005b3480156104d257600080fd5b506104db6111dd565b6040516104e8919061289a565b60405180910390f35b3480156104fd57600080fd5b506105066111ff565b6040516105139190612b61565b60405180910390f35b34801561052857600080fd5b506105316112ab565b60405161053e919061289a565b60405180910390f35b34801561055357600080fd5b5061055c6112b1565b6040516105699190612b9e565b60405180910390f35b34801561057e57600080fd5b506105876112d7565b60405161059491906128f6565b60405180910390f35b3480156105a957600080fd5b506105b261130f565b6040516105bf91906128f6565b60405180910390f35b3480156105d457600080fd5b506105dd611333565b6040516105ea91906128f6565b60405180910390f35b3480156105ff57600080fd5b50610608611359565b6040516106159190612930565b60405180910390f35b61062661136f565b005b34801561063457600080fd5b5061064f600480360381019061064a9190612be5565b61149d565b005b34801561065d57600080fd5b5061067860048036038101906106739190612d58565b6114c2565b005b34801561068657600080fd5b506106a1600480360381019061069c9190612dc7565b61194c565b005b3480156106af57600080fd5b506106b8611ee1565b6040516106c591906128f6565b60405180910390f35b6106d6611f07565b005b3480156106e457600080fd5b506106ed612274565b6040516106fa9190612870565b60405180910390f35b34801561070f57600080fd5b50610718612287565b604051610725919061289a565b60405180910390f35b34801561073a57600080fd5b5061074361228d565b6040516107509190612e8a565b60405180910390f35b34801561076557600080fd5b5061076e6122b3565b60405161077b91906128f6565b60405180910390f35b34801561079057600080fd5b506107ab60048036038101906107a691906129d0565b6122d9565b005b3480156107b957600080fd5b506107c261235f565b6040516107cf9190612ec6565b60405180910390f35b3480156107e457600080fd5b506107ff60048036038101906107fa91906129d0565b612385565b005b6108096123d1565b005b61081361247f565b60008111610856576040517f08c379a000000000000000000000000000000000000000000000000000000000815260040161084d90612f3e565b60405180910390fd5b80600360009054906101000a900473ffffffffffffffffffffffffffffffffffffffff1673ffffffffffffffffffffffffffffffffffffffff1663f037c6306040518163ffffffff1660e01b8152600401602060405180830381865afa1580156108c4573d6000803e3d6000fd5b505050506040513d601f19601f820116820180604052508101906108e89190612f73565b6108f29190612fcf565b6108fa612506565b101561093b576040517f08c379a00000000000000000000000000000000000000000000000000000000081526004016109329061304f565b60405180910390fd5b600260009054906101000a900473ffffffffffffffffffffffffffffffffffffffff1673ffffffffffffffffffffffffffffffffffffffff1663441a3e70600d54836040518363ffffffff1660e01b815260040161099a92919061306f565b600060405180830381600087803b1580156109b457600080fd5b505af11580156109c8573d6000803e3d6000fd5b505050506000600360009054906101000a900473ffffffffffffffffffffffffffffffffffffffff1673ffffffffffffffffffffffffffffffffffffffff1663e78cea926040518163ffffffff1660e01b8152600401602060405180830381865afa158015610a3b573d6000803e3d6000fd5b505050506040513d601f19601f82011682018060405250810190610a5f91906130ad565b9050600360009054906101000a900473ffffffffffffffffffffffffffffffffffffffff1673ffffffffffffffffffffffffffffffffffffffff1663c01e1bd66040518163ffffffff1660e01b8152600401602060405180830381865afa158015610ace573d6000803e3d6000fd5b505050506040513d601f19601f82011682018060405250810190610af291906130ad565b73ffffffffffffffffffffffffffffffffffffffff1663095ea7b382846040518363ffffffff1660e01b8152600401610b2c9291906130da565b6020604051808303816000875af1158015610b4b573d6000803e3d6000fd5b505050506040513d601f19601f82011682018060405250810190610b6f9190613118565b508073ffffffffffffffffffffffffffffffffffffffff1663ef808be234600554600360009054906101000a900473ffffffffffffffffffffffffffffffffffffffff1673ffffffffffffffffffffffffffffffffffffffff1663c01e1bd66040518163ffffffff1660e01b8152600401602060405180830381865afa158015610bfd573d6000803e3d6000fd5b505050506040513d601f19601f82011682018060405250810190610c2191906130ad565b600360009054906101000a900473ffffffffffffffffffffffffffffffffffffffff1673ffffffffffffffffffffffffffffffffffffffff166356eff2676040518163ffffffff1660e01b8152600401602060405180830381865afa158015610c8e573d6000803e3d6000fd5b505050506040513d601f19601f82011682018060405250810190610cb291906130ad565b600f60009054906101000a900473ffffffffffffffffffffffffffffffffffffffff1688600c60009054906101000a900463ffffffff166040518863ffffffff1660e01b8152600401610d0a9695949392919061317c565b6000604051808303818588803b158015610d2357600080fd5b505af1158015610d37573d6000803e3d6000fd5b5050505050600f60009054906101000a900473ffffffffffffffffffffffffffffffffffffffff1673ffffffffffffffffffffffffffffffffffffffff167f2ae1f58feea94cffdf5ba81b4953bbbdabd1eee50210bda675b0504e57772a8483604051610da4919061289a565b60405180910390a25050565b600e60149054906101000a900460ff1681565b600d5481565b6000610dd361251e565b905090565b600660009054906101000a900473ffffffffffffffffffffffffffffffffffffffff1681565b600a8181548110610e0e57600080fd5b9060005260206000209060089182820401919006600402915054906101000a900463ffffffff1681565b610e4061247f565b6000600c60009054906101000a900463ffffffff16905081600c60006101000a81548163ffffffff021916908363ffffffff1602179055507f4042b09a75e5a67c8cc2a57e00de6d29fb5202b7207afba895eb8b5cc3e2179e8183604051610ea99291906131f0565b60405180910390a15050565b610ebd61247f565b6000610ec761251e565b905060008111610f0c576040517f08c379a0000000000000000000000000000000000000000000000000000000008152600401610f0390613265565b60405180910390fd5b600260009054906101000a900473ffffffffffffffffffffffffffffffffffffffff1673ffffffffffffffffffffffffffffffffffffffff16631739668734600d54600c60009054906101000a900463ffffffff166040518463ffffffff1660e01b8152600401610f7e929190613285565b6000604051808303818588803b158015610f9757600080fd5b505af1158015610fab573d6000803e3d6000fd5b5050505050600d547f630af8b49bb398089a74eacdb08106c528436090bdb35d7302152dc5117df9bd82604051610fe2919061289a565b60405180910390a250565b610ff561247f565b80600f60006101000a81548173ffffffffffffffffffffffffffffffffffffffff021916908373ffffffffffffffffffffffffffffffffffffffff16021790555050565b600460009054906101000a900473ffffffffffffffffffffffffffffffffffffffff1681565b600c60009054906101000a900463ffffffff1681565b61107d61247f565b80600760006101000a81548173ffffffffffffffffffffffffffffffffffffffff021916908373ffffffffffffffffffffffffffffffffffffffff16021790555050565b60086020528060005260406000206000915054906101000a900473ffffffffffffffffffffffffffffffffffffffff1681565b600080600d540361110857600090506111b1565b600360009054906101000a900473ffffffffffffffffffffffffffffffffffffffff1673ffffffffffffffffffffffffffffffffffffffff16636c0b3e466040518163ffffffff1660e01b8152600401602060405180830381865afa158015611175573d6000803e3d6000fd5b505050506040513d601f19601f820116820180604052508101906111999190612f73565b6111a1612506565b836111ac9190612fcf565b111590505b919050565b60006111c06111ff565b60000151905090565b6111d161247f565b6111db6000612536565b565b600080600d54036111f157600090506111fc565b6111f9612506565b90505b90565b61120761275f565b600260009054906101000a900473ffffffffffffffffffffffffffffffffffffffff1673ffffffffffffffffffffffffffffffffffffffff16636ba7ccff600d546040518263ffffffff1660e01b8152600401611264919061289a565b61014060405180830381865afa158015611282573d6000803e3d6000fd5b505050506040513d601f19601f820116820180604052508101906112a691906133a9565b905090565b600b5481565b600260009054906101000a900473ffffffffffffffffffffffffffffffffffffffff1681565b6000806112e261260d565b90508060000160009054906101000a900473ffffffffffffffffffffffffffffffffffffffff1691505090565b60008054906101000a900473ffffffffffffffffffffffffffffffffffffffff1681565b600f60009054906101000a900473ffffffffffffffffffffffffffffffffffffffff1681565b600960009054906101000a900463ffffffff1681565b61137761247f565b600260009054906101000a900473ffffffffffffffffffffffffffffffffffffffff1673ffffffffffffffffffffffffffffffffffffffff1663262c0e6634600d54600c60009054906101000a900463ffffffff166040518463ffffffff1660e01b81526004016113e9929190613285565b6000604051808303818588803b15801561140257600080fd5b505af1158015611416573d6000803e3d6000fd5b50505050506000600e60146101000a81548160ff021916908315150217905550600e60009054906101000a900473ffffffffffffffffffffffffffffffffffffffff1673ffffffffffffffffffffffffffffffffffffffff167fbac99876b6a1c26412460d61d913235a30f0ea99585ffcfd53c0faae6ed3313460405160405180910390a2565b6114a561247f565b80600e60146101000a81548160ff02191690831515021790555050565b6114ca61247f565b6000600160009054906101000a900473ffffffffffffffffffffffffffffffffffffffff1673ffffffffffffffffffffffffffffffffffffffff166370a08231306040518263ffffffff1660e01b815260040161152791906128f6565b602060405180830381865afa158015611544573d6000803e3d6000fd5b505050506040513d601f19601f820116820180604052508101906115689190612f73565b9050828110156115ad576040517f08c379a00000000000000000000000000000000000000000000000000000000081526004016115a490613449565b60405180910390fd5b83600e60006101000a81548173ffffffffffffffffffffffffffffffffffffffff021916908373ffffffffffffffffffffffffffffffffffffffff160217905550600160009054906101000a900473ffffffffffffffffffffffffffffffffffffffff1673ffffffffffffffffffffffffffffffffffffffff1663095ea7b3600360009054906101000a900473ffffffffffffffffffffffffffffffffffffffff167fffffffffffffffffffffffffffffffffffffffffffffffffffffffffffffffff6040518363ffffffff1660e01b815260040161168d9291906130da565b6020604051808303816000875af11580156116ac573d6000803e3d6000fd5b505050506040513d601f19601f820116820180604052508101906116d09190613118565b61170f576040517f08c379a0000000000000000000000000000000000000000000000000000000008152600401611706906134db565b60405180910390fd5b600260009054906101000a900473ffffffffffffffffffffffffffffffffffffffff1673ffffffffffffffffffffffffffffffffffffffff16639ad42030600e60009054906101000a900473ffffffffffffffffffffffffffffffffffffffff16600660009054906101000a900473ffffffffffffffffffffffffffffffffffffffff1686866040518563ffffffff1660e01b81526004016117b49493929190613569565b600060405180830381600087803b1580156117ce57600080fd5b505af11580156117e2573d6000803e3d6000fd5b50505050600260009054906101000a900473ffffffffffffffffffffffffffffffffffffffff1673ffffffffffffffffffffffffffffffffffffffff1663beb26755600e60009054906101000a900473ffffffffffffffffffffffffffffffffffffffff166040518263ffffffff1660e01b815260040161186391906128f6565b602060405180830381865afa158015611880573d6000803e3d6000fd5b505050506040513d601f19601f820116820180604052508101906118a49190612f73565b600d819055506001600e60146101000a81548160ff021916908315150217905550600e60009054906101000a900473ffffffffffffffffffffffffffffffffffffffff1673ffffffffffffffffffffffffffffffffffffffff167fb1e87a33084279cb2bff2d1271034cf695f539ee73bbd934d1625703d585d84a84600e60149054906101000a900460ff1660405161193e9291906135b5565b60405180910390a250505050565b6000611956612635565b905060008160000160089054906101000a900460ff1615905060008260000160009054906101000a900467ffffffffffffffff1690506000808267ffffffffffffffff161480156119a45750825b9050600060018367ffffffffffffffff161480156119d9575060003073ffffffffffffffffffffffffffffffffffffffff163b145b9050811580156119e7575080155b15611a1e576040517ff92ee8a900000000000000000000000000000000000000000000000000000000815260040160405180910390fd5b60018560000160006101000a81548167ffffffffffffffff021916908367ffffffffffffffff1602179055508315611a6e5760018560000160086101000a81548160ff0219169083151502179055505b600073ffffffffffffffffffffffffffffffffffffffff168c73ffffffffffffffffffffffffffffffffffffffff1614158015611ad85750600073ffffffffffffffffffffffffffffffffffffffff168b73ffffffffffffffffffffffffffffffffffffffff1614155b8015611b115750600073ffffffffffffffffffffffffffffffffffffffff168a73ffffffffffffffffffffffffffffffffffffffff1614155b8015611b4a5750600073ffffffffffffffffffffffffffffffffffffffff168773ffffffffffffffffffffffffffffffffffffffff1614155b8015611b835750600073ffffffffffffffffffffffffffffffffffffffff168673ffffffffffffffffffffffffffffffffffffffff1614155b611bc2576040517f08c379a0000000000000000000000000000000000000000000000000000000008152600401611bb99061362a565b60405180910390fd5b611bcb3361265d565b8b600160006101000a81548173ffffffffffffffffffffffffffffffffffffffff021916908373ffffffffffffffffffffffffffffffffffffffff1602179055508a600260006101000a81548173ffffffffffffffffffffffffffffffffffffffff021916908373ffffffffffffffffffffffffffffffffffffffff160217905550600260009054906101000a900473ffffffffffffffffffffffffffffffffffffffff1673ffffffffffffffffffffffffffffffffffffffff1663e2fdcc176040518163ffffffff1660e01b8152600401602060405180830381865afa158015611cba573d6000803e3d6000fd5b505050506040513d601f19601f82011682018060405250810190611cde9190613688565b600360006101000a81548173ffffffffffffffffffffffffffffffffffffffff021916908373ffffffffffffffffffffffffffffffffffffffff1602179055508973ffffffffffffffffffffffffffffffffffffffff16633cb747bf6040518163ffffffff1660e01b8152600401602060405180830381865afa158015611d69573d6000803e3d6000fd5b505050506040513d601f19601f82011682018060405250810190611d8d91906130ad565b600460006101000a81548173ffffffffffffffffffffffffffffffffffffffff021916908373ffffffffffffffffffffffffffffffffffffffff1602179055508860058190555087600c60006101000a81548163ffffffff021916908363ffffffff16021790555086600660006101000a81548173ffffffffffffffffffffffffffffffffffffffff021916908373ffffffffffffffffffffffffffffffffffffffff16021790555085600760006101000a81548173ffffffffffffffffffffffffffffffffffffffff021916908373ffffffffffffffffffffffffffffffffffffffff1602179055508315611ed35760008560000160086101000a81548160ff0219169083151502179055507fc7f505b2f371ae2175ee4913f4499e1f2633a7b5936321eed1cdaeb6115181d26001604051611eca9190613704565b60405180910390a15b505050505050505050505050565b600e60009054906101000a900473ffffffffffffffffffffffffffffffffffffffff1681565b600e60149054906101000a900460ff16611f56576040517f08c379a0000000000000000000000000000000000000000000000000000000008152600401611f4d9061376b565b60405180910390fd5b6000600160009054906101000a900473ffffffffffffffffffffffffffffffffffffffff1673ffffffffffffffffffffffffffffffffffffffff166370a08231306040518263ffffffff1660e01b8152600401611fb391906128f6565b602060405180830381865afa158015611fd0573d6000803e3d6000fd5b505050506040513d601f19601f82011682018060405250810190611ff49190612f73565b9050611fff816110f4565b61203e576040517f08c379a0000000000000000000000000000000000000000000000000000000008152600401612035906137d7565b60405180910390fd5b60008111612081576040517f08c379a000000000000000000000000000000000000000000000000000000000815260040161207890613843565b60405180910390fd5b600160009054906101000a900473ffffffffffffffffffffffffffffffffffffffff1673ffffffffffffffffffffffffffffffffffffffff1663095ea7b3600360009054906101000a900473ffffffffffffffffffffffffffffffffffffffff167fffffffffffffffffffffffffffffffffffffffffffffffffffffffffffffffff6040518363ffffffff1660e01b81526004016121209291906130da565b6020604051808303816000875af115801561213f573d6000803e3d6000fd5b505050506040513d601f19601f820116820180604052508101906121639190613118565b6121a2576040517f08c379a0000000000000000000000000000000000000000000000000000000008152600401612199906134db565b60405180910390fd5b600260009054906101000a900473ffffffffffffffffffffffffffffffffffffffff1673ffffffffffffffffffffffffffffffffffffffff1663015bb180600d548360006040518463ffffffff1660e01b815260040161220493929190613863565b600060405180830381600087803b15801561221e57600080fd5b505af1158015612232573d6000803e3d6000fd5b505050507f9952bdebae4c3a8e8e2629e1357843c6f46a034acd50416050ec4270b6568648600d548260405161226992919061306f565b60405180910390a150565b600c60049054906101000a900460ff1681565b60055481565b600160009054906101000a900473ffffffffffffffffffffffffffffffffffffffff1681565b600760009054906101000a900473ffffffffffffffffffffffffffffffffffffffff1681565b6122e161247f565b600073ffffffffffffffffffffffffffffffffffffffff168173ffffffffffffffffffffffffffffffffffffffff16036123535760006040517f1e4fbdf700000000000000000000000000000000000000000000000000000000815260040161234a91906128f6565b60405180910390fd5b61235c81612536565b50565b600360009054906101000a900473ffffffffffffffffffffffffffffffffffffffff1681565b61238d61247f565b80600660006101000a81548173ffffffffffffffffffffffffffffffffffffffff021916908373ffffffffffffffffffffffffffffffffffffffff16021790555050565b6123d961247f565b600260009054906101000a900473ffffffffffffffffffffffffffffffffffffffff1673ffffffffffffffffffffffffffffffffffffffff16638ddc74de34600d54600c60009054906101000a900463ffffffff166040518463ffffffff1660e01b815260040161244b929190613285565b6000604051808303818588803b15801561246457600080fd5b505af1158015612478573d6000803e3d6000fd5b5050505050565b612487612671565b73ffffffffffffffffffffffffffffffffffffffff166124a56112d7565b73ffffffffffffffffffffffffffffffffffffffff1614612504576124c8612671565b6040517f118cdaa70000000000000000000000000000000000000000000000000000000081526004016124fb91906128f6565b60405180910390fd5b565b6000806125116111ff565b9050806000015191505090565b6000806125296111ff565b9050806020015191505090565b600061254061260d565b905060008160000160009054906101000a900473ffffffffffffffffffffffffffffffffffffffff169050828260000160006101000a81548173ffffffffffffffffffffffffffffffffffffffff021916908373ffffffffffffffffffffffffffffffffffffffff1602179055508273ffffffffffffffffffffffffffffffffffffffff168173ffffffffffffffffffffffffffffffffffffffff167f8be0079c531659141344cd1fd0a4f28419497f9722a3daafe3b4186f6b6457e060405160405180910390a3505050565b60007f9016d09d72d40fdae2fd8ceac6b6234c7706214fd39c1cd1e609a0528c199300905090565b60007ff0c57e16840df040f15088dc2f81fe391c3923bec73e23a9662efc9c229c6a00905090565b612665612679565b61266e816126b9565b50565b600033905090565b61268161273f565b6126b7576040517fd7e6bcf800000000000000000000000000000000000000000000000000000000815260040160405180910390fd5b565b6126c1612679565b600073ffffffffffffffffffffffffffffffffffffffff168173ffffffffffffffffffffffffffffffffffffffff16036127335760006040517f1e4fbdf700000000000000000000000000000000000000000000000000000000815260040161272a91906128f6565b60405180910390fd5b61273c81612536565b50565b6000612749612635565b60000160089054906101000a900460ff16905090565b6040518061014001604052806000815260200160008152602001600081526020016000815260200160008152602001600081526020016000815260200160008152602001600073ffffffffffffffffffffffffffffffffffffffff168152602001600073ffffffffffffffffffffffffffffffffffffffff1681525090565b6000604051905090565b600080fd5b600080fd5b6000819050919050565b612805816127f2565b811461281057600080fd5b50565b600081359050612822816127fc565b92915050565b60006020828403121561283e5761283d6127e8565b5b600061284c84828501612813565b91505092915050565b60008115159050919050565b61286a81612855565b82525050565b60006020820190506128856000830184612861565b92915050565b612894816127f2565b82525050565b60006020820190506128af600083018461288b565b92915050565b600073ffffffffffffffffffffffffffffffffffffffff82169050919050565b60006128e0826128b5565b9050919050565b6128f0816128d5565b82525050565b600060208201905061290b60008301846128e7565b92915050565b600063ffffffff82169050919050565b61292a81612911565b82525050565b60006020820190506129456000830184612921565b92915050565b61295481612911565b811461295f57600080fd5b50565b6000813590506129718161294b565b92915050565b60006020828403121561298d5761298c6127e8565b5b600061299b84828501612962565b91505092915050565b6129ad816128d5565b81146129b857600080fd5b50565b6000813590506129ca816129a4565b92915050565b6000602082840312156129e6576129e56127e8565b5b60006129f4848285016129bb565b91505092915050565b6000819050919050565b6000612a22612a1d612a18846128b5565b6129fd565b6128b5565b9050919050565b6000612a3482612a07565b9050919050565b6000612a4682612a29565b9050919050565b612a5681612a3b565b82525050565b6000602082019050612a716000830184612a4d565b92915050565b612a80816127f2565b82525050565b612a8f816128d5565b82525050565b61014082016000820151612aac6000850182612a77565b506020820151612abf6020850182612a77565b506040820151612ad26040850182612a77565b506060820151612ae56060850182612a77565b506080820151612af86080850182612a77565b5060a0820151612b0b60a0850182612a77565b5060c0820151612b1e60c0850182612a77565b5060e0820151612b3160e0850182612a77565b50610100820151612b46610100850182612a86565b50610120820151612b5b610120850182612a86565b50505050565b600061014082019050612b776000830184612a95565b92915050565b6000612b8882612a29565b9050919050565b612b9881612b7d565b82525050565b6000602082019050612bb36000830184612b8f565b92915050565b612bc281612855565b8114612bcd57600080fd5b50565b600081359050612bdf81612bb9565b92915050565b600060208284031215612bfb57612bfa6127e8565b5b6000612c0984828501612bd0565b91505092915050565b600080fd5b600080fd5b6000601f19601f8301169050919050565b7f4e487b7100000000000000000000000000000000000000000000000000000000600052604160045260246000fd5b612c6582612c1c565b810181811067ffffffffffffffff82111715612c8457612c83612c2d565b5b80604052505050565b6000612c976127de565b9050612ca38282612c5c565b919050565b600067ffffffffffffffff821115612cc357612cc2612c2d565b5b612ccc82612c1c565b9050602081019050919050565b82818337600083830152505050565b6000612cfb612cf684612ca8565b612c8d565b905082815260208101848484011115612d1757612d16612c17565b5b612d22848285612cd9565b509392505050565b600082601f830112612d3f57612d3e612c12565b5b8135612d4f848260208601612ce8565b91505092915050565b600080600060608486031215612d7157612d706127e8565b5b6000612d7f868287016129bb565b9350506020612d9086828701612813565b925050604084013567ffffffffffffffff811115612db157612db06127ed565b5b612dbd86828701612d2a565b9150509250925092565b600080600080600080600060e0888a031215612de657612de56127e8565b5b6000612df48a828b016129bb565b9750506020612e058a828b016129bb565b9650506040612e168a828b016129bb565b9550506060612e278a828b01612813565b9450506080612e388a828b01612962565b93505060a0612e498a828b016129bb565b92505060c0612e5a8a828b016129bb565b91505092959891949750929550565b6000612e7482612a29565b9050919050565b612e8481612e69565b82525050565b6000602082019050612e9f6000830184612e7b565b92915050565b6000612eb082612a29565b9050919050565b612ec081612ea5565b82525050565b6000602082019050612edb6000830184612eb7565b92915050565b600082825260208201905092915050565b7f4465616c65723a20696e76616c696420616d6f756e7400000000000000000000600082015250565b6000612f28601683612ee1565b9150612f3382612ef2565b602082019050919050565b60006020820190508181036000830152612f5781612f1b565b9050919050565b600081519050612f6d816127fc565b92915050565b600060208284031215612f8957612f886127e8565b5b6000612f9784828501612f5e565b91505092915050565b7f4e487b7100000000000000000000000000000000000000000000000000000000600052601160045260246000fd5b6000612fda826127f2565b9150612fe5836127f2565b9250828201905080821115612ffd57612ffc612fa0565b5b92915050565b7f4465616c65723a20657863656564206d696e206c6f636b000000000000000000600082015250565b6000613039601783612ee1565b915061304482613003565b602082019050919050565b600060208201905081810360008301526130688161302c565b9050919050565b6000604082019050613084600083018561288b565b613091602083018461288b565b9392505050565b6000815190506130a7816129a4565b92915050565b6000602082840312156130c3576130c26127e8565b5b60006130d184828501613098565b91505092915050565b60006040820190506130ef60008301856128e7565b6130fc602083018461288b565b9392505050565b60008151905061311281612bb9565b92915050565b60006020828403121561312e5761312d6127e8565b5b600061313c84828501613103565b91505092915050565b600082825260208201905092915050565b50565b6000613166600083613145565b915061317182613156565b600082019050919050565b600060e082019050613191600083018961288b565b61319e60208301886128e7565b6131ab60408301876128e7565b6131b860608301866128e7565b6131c5608083018561288b565b6131d260a0830184612921565b81810360c08301526131e381613159565b9050979650505050505050565b60006040820190506132056000830185612921565b6132126020830184612921565b9392505050565b7f4465616c65723a2020496e73756666696369656e742072657761726473000000600082015250565b600061324f601d83612ee1565b915061325a82613219565b602082019050919050565b6000602082019050818103600083015261327e81613242565b9050919050565b600060408201905061329a600083018561288b565b6132a76020830184612921565b9392505050565b600080fd5b600061014082840312156132ca576132c96132ae565b5b6132d5610140612c8d565b905060006132e584828501612f5e565b60008301525060206132f984828501612f5e565b602083015250604061330d84828501612f5e565b604083015250606061332184828501612f5e565b606083015250608061333584828501612f5e565b60808301525060a061334984828501612f5e565b60a08301525060c061335d84828501612f5e565b60c08301525060e061337184828501612f5e565b60e08301525061010061338684828501613098565b6101008301525061012061339c84828501613098565b6101208301525092915050565b600061014082840312156133c0576133bf6127e8565b5b60006133ce848285016132b3565b91505092915050565b7f4465616c65723a20496e73756666696369656e74204d657469732062616c616e60008201527f6365000000000000000000000000000000000000000000000000000000000000602082015250565b6000613433602283612ee1565b915061343e826133d7565b604082019050919050565b6000602082019050818103600083015261346281613426565b9050919050565b7f4465616c65723a20417070726f76616c20746f204c6f636b696e67496e666f2060008201527f6661696c65640000000000000000000000000000000000000000000000000000602082015250565b60006134c5602683612ee1565b91506134d082613469565b604082019050919050565b600060208201905081810360008301526134f4816134b8565b9050919050565b600081519050919050565b60005b83811015613524578082015181840152602081019050613509565b60008484015250505050565b600061353b826134fb565b6135458185613145565b9350613555818560208601613506565b61355e81612c1c565b840191505092915050565b600060808201905061357e60008301876128e7565b61358b60208301866128e7565b613598604083018561288b565b81810360608301526135aa8184613530565b905095945050505050565b60006040820190506135ca600083018561288b565b6135d76020830184612861565b9392505050565b7f4465616c65723a207a65726f2061646472657373000000000000000000000000600082015250565b6000613614601483612ee1565b915061361f826135de565b602082019050919050565b6000602082019050818103600083015261364381613607565b9050919050565b6000613655826128d5565b9050919050565b6136658161364a565b811461367057600080fd5b50565b6000815190506136828161365c565b92915050565b60006020828403121561369e5761369d6127e8565b5b60006136ac84828501613673565b91505092915050565b6000819050919050565b600067ffffffffffffffff82169050919050565b60006136ee6136e96136e4846136b5565b6129fd565b6136bf565b9050919050565b6136fe816136d3565b82525050565b600060208201905061371960008301846136f5565b92915050565b7f4465616c65723a206e6f206163746976652073657175656e6365720000000000600082015250565b6000613755601b83612ee1565b91506137608261371f565b602082019050919050565b6000602082019050818103600083015261378481613748565b9050919050565b7f4465616c65723a20657863656564206d6178206c6f636b000000000000000000600082015250565b60006137c1601783612ee1565b91506137cc8261378b565b602082019050919050565b600060208201905081810360008301526137f0816137b4565b9050919050565b7f4465616c65723a20696e73756666696369656e742062616c616e636500000000600082015250565b600061382d601c83612ee1565b9150613838826137f7565b602082019050919050565b6000602082019050818103600083015261385c81613820565b9050919050565b6000606082019050613878600083018661288b565b613885602083018561288b565b6138926040830184612861565b94935050505056fea264697066735822122041205bafaf79c5656729f6b0b8353a8434906b40d1bea33babefe06dec0e498064736f6c63430008140033",
  "linkReferences": {},
  "deployedLinkReferences": {}
}