{
  "_format": "hh-sol-artifact-1",
  "contractName": "Dealer",
  "sourceName": "contracts/Dealer.sol",
  "abi": [
    {
      "inputs": [],
      "name": "InvalidInitialization",
      "type": "error"
    },
    {
      "inputs": [],
      "name": "NotInitializing",
      "type": "error"
    },
    {
      "inputs": [
        {
          "internalType": "address",
          "name": "owner",
          "type": "address"
        }
      ],
      "name": "OwnableInvalidOwner",
      "type": "error"
    },
    {
      "inputs": [
        {
          "internalType": "address",
          "name": "account",
          "type": "address"
        }
      ],
      "name": "OwnableUnauthorizedAccount",
      "type": "error"
    },
    {
      "anonymous": false,
      "inputs": [
        {
          "indexed": false,
          "internalType": "uint64",
          "name": "version",
          "type": "uint64"
        }
      ],
      "name": "Initialized",
      "type": "event"
    },
    {
      "anonymous": false,
      "inputs": [
        {
          "indexed": false,
          "internalType": "bool",
          "name": "isRelocked",
          "type": "bool"
        }
      ],
      "name": "IsSequencerRelocked",
      "type": "event"
    },
    {
      "anonymous": false,
      "inputs": [
        {
          "indexed": false,
          "internalType": "uint32",
          "name": "oldValue",
          "type": "uint32"
        },
        {
          "indexed": false,
          "internalType": "uint32",
          "name": "newValue",
          "type": "uint32"
        }
      ],
      "name": "L2GasSet",
      "type": "event"
    },
    {
      "anonymous": false,
      "inputs": [
        {
          "indexed": false,
          "internalType": "uint256",
          "name": "amount",
          "type": "uint256"
        }
      ],
      "name": "L2MetisMinted",
      "type": "event"
    },
    {
      "anonymous": false,
      "inputs": [
        {
          "indexed": true,
          "internalType": "address",
          "name": "previousOwner",
          "type": "address"
        },
        {
          "indexed": true,
          "internalType": "address",
          "name": "newOwner",
          "type": "address"
        }
      ],
      "name": "OwnershipTransferred",
      "type": "event"
    },
    {
      "anonymous": false,
      "inputs": [
        {
          "indexed": true,
          "internalType": "uint256",
          "name": "sequencerId",
          "type": "uint256"
        },
        {
          "indexed": false,
          "internalType": "uint256",
          "name": "reward",
          "type": "uint256"
        }
      ],
      "name": "RewardsWithdrawn",
      "type": "event"
    },
    {
      "anonymous": false,
      "inputs": [
        {
          "indexed": false,
          "internalType": "uint32",
          "name": "index",
          "type": "uint32"
        },
        {
          "indexed": false,
          "internalType": "address",
          "name": "agent",
          "type": "address"
        }
      ],
      "name": "SequencerAgentAdded",
      "type": "event"
    },
    {
      "anonymous": false,
      "inputs": [
        {
          "indexed": true,
          "internalType": "address",
          "name": "oldValue",
          "type": "address"
        },
        {
          "indexed": true,
          "internalType": "address",
          "name": "newValue",
          "type": "address"
        }
      ],
      "name": "SequencerAgentTemplateSet",
      "type": "event"
    },
    {
      "anonymous": false,
      "inputs": [
        {
          "indexed": true,
          "internalType": "address",
          "name": "sequencerSigner",
          "type": "address"
        },
        {
          "indexed": false,
          "internalType": "uint256",
          "name": "amount",
          "type": "uint256"
        },
        {
          "indexed": false,
          "internalType": "bool",
          "name": "active",
          "type": "bool"
        }
      ],
      "name": "SequencerInitialBalanceLocked",
      "type": "event"
    },
    {
      "anonymous": false,
      "inputs": [
        {
          "indexed": false,
          "internalType": "uint32",
          "name": "index",
          "type": "uint32"
        },
        {
          "indexed": false,
          "internalType": "uint256",
          "name": "amount",
          "type": "uint256"
        }
      ],
      "name": "SequencerRelocked",
      "type": "event"
    },
    {
      "anonymous": false,
      "inputs": [
        {
          "indexed": true,
          "internalType": "address",
          "name": "sequencerSigner",
          "type": "address"
        }
      ],
      "name": "SequencerTerminated",
      "type": "event"
    },
    {
      "anonymous": false,
      "inputs": [
        {
          "indexed": true,
          "internalType": "address",
          "name": "recipient",
          "type": "address"
        },
        {
          "indexed": false,
          "internalType": "uint256",
          "name": "amount",
          "type": "uint256"
        }
      ],
      "name": "StakingAmountWithdrawn",
      "type": "event"
    },
    {
      "anonymous": false,
      "inputs": [
        {
          "indexed": false,
          "internalType": "bool",
          "name": "oldValue",
          "type": "bool"
        },
        {
          "indexed": false,
          "internalType": "bool",
          "name": "newValue",
          "type": "bool"
        }
      ],
      "name": "WithdrawRewardsSet",
      "type": "event"
    },
    {
      "inputs": [],
      "name": "active",
      "outputs": [
        {
          "internalType": "bool",
          "name": "",
          "type": "bool"
        }
      ],
      "stateMutability": "view",
      "type": "function"
    },
    {
      "inputs": [
        {
          "internalType": "uint256",
          "name": "",
          "type": "uint256"
        }
      ],
      "name": "activeSequencerIds",
      "outputs": [
        {
          "internalType": "uint32",
          "name": "",
          "type": "uint32"
        }
      ],
      "stateMutability": "view",
      "type": "function"
    },
    {
      "inputs": [
        {
          "internalType": "uint256",
          "name": "_amount",
          "type": "uint256"
        }
      ],
      "name": "canStake",
      "outputs": [
        {
          "internalType": "bool",
          "name": "",
          "type": "bool"
        }
      ],
      "stateMutability": "view",
      "type": "function"
    },
    {
      "inputs": [
        {
          "internalType": "uint32",
          "name": "_l2GasLimit",
          "type": "uint32"
        }
      ],
      "name": "claimRewards",
      "outputs": [],
      "stateMutability": "nonpayable",
      "type": "function"
    },
    {
      "inputs": [],
      "name": "getRewards",
      "outputs": [
        {
          "internalType": "uint256",
          "name": "",
          "type": "uint256"
        }
      ],
      "stateMutability": "view",
      "type": "function"
    },
    {
      "inputs": [
        {
          "internalType": "address",
          "name": "_metis",
          "type": "address"
        },
        {
          "internalType": "address",
          "name": "_lockingPool",
          "type": "address"
        },
        {
          "internalType": "address",
          "name": "_l1Bridge",
          "type": "address"
        },
        {
          "internalType": "uint256",
          "name": "_l2ChainId",
          "type": "uint256"
        },
        {
          "internalType": "uint32",
          "name": "_l2Gas",
          "type": "uint32"
        },
        {
          "internalType": "address",
          "name": "_l2Minter",
          "type": "address"
        },
        {
          "internalType": "address",
          "name": "_l2RewardDispatcher",
          "type": "address"
        }
      ],
      "name": "initialize",
      "outputs": [],
      "stateMutability": "nonpayable",
      "type": "function"
    },
    {
      "inputs": [],
      "name": "l2ChainId",
      "outputs": [
        {
          "internalType": "uint256",
          "name": "",
          "type": "uint256"
        }
      ],
      "stateMutability": "view",
      "type": "function"
    },
    {
      "inputs": [],
      "name": "l2Gas",
      "outputs": [
        {
          "internalType": "uint32",
          "name": "",
          "type": "uint32"
        }
      ],
      "stateMutability": "view",
      "type": "function"
    },
    {
      "inputs": [],
      "name": "l2Minter",
      "outputs": [
        {
          "internalType": "address",
          "name": "",
          "type": "address"
        }
      ],
      "stateMutability": "view",
      "type": "function"
    },
    {
      "inputs": [],
      "name": "l2RewardDispatcher",
      "outputs": [
        {
          "internalType": "address",
          "name": "",
          "type": "address"
        }
      ],
      "stateMutability": "view",
      "type": "function"
    },
    {
      "inputs": [
        {
          "internalType": "address",
          "name": "_sequencerSigner",
          "type": "address"
        },
        {
          "internalType": "uint256",
          "name": "_amount",
          "type": "uint256"
        },
        {
          "internalType": "bytes",
          "name": "_signerPubKey",
          "type": "bytes"
        }
      ],
      "name": "lockFor",
      "outputs": [],
      "stateMutability": "nonpayable",
      "type": "function"
    },
    {
      "inputs": [],
      "name": "lockingInfo",
      "outputs": [
        {
          "internalType": "contract ILockingInfo",
          "name": "",
          "type": "address"
        }
      ],
      "stateMutability": "view",
      "type": "function"
    },
    {
      "inputs": [],
      "name": "lockingPool",
      "outputs": [
        {
          "internalType": "contract ILockingPool",
          "name": "",
          "type": "address"
        }
      ],
      "stateMutability": "view",
      "type": "function"
    },
    {
      "inputs": [],
      "name": "messenger",
      "outputs": [
        {
          "internalType": "contract ICrossDomainMessenger",
          "name": "",
          "type": "address"
        }
      ],
      "stateMutability": "view",
      "type": "function"
    },
    {
      "inputs": [],
      "name": "metis",
      "outputs": [
        {
          "internalType": "contract IERC20",
          "name": "",
          "type": "address"
        }
      ],
      "stateMutability": "view",
      "type": "function"
    },
    {
      "inputs": [],
      "name": "owner",
      "outputs": [
        {
          "internalType": "address",
          "name": "",
          "type": "address"
        }
      ],
      "stateMutability": "view",
      "type": "function"
    },
    {
      "inputs": [],
      "name": "redemptionQueue",
      "outputs": [
        {
          "internalType": "address",
          "name": "",
          "type": "address"
        }
      ],
      "stateMutability": "view",
      "type": "function"
    },
    {
      "inputs": [
        {
          "internalType": "uint256",
          "name": "_lockAmount",
          "type": "uint256"
        }
      ],
      "name": "relock",
      "outputs": [],
      "stateMutability": "nonpayable",
      "type": "function"
    },
    {
      "inputs": [],
      "name": "renounceOwnership",
      "outputs": [],
      "stateMutability": "nonpayable",
      "type": "function"
    },
    {
      "inputs": [],
      "name": "sequencerAgentCount",
      "outputs": [
        {
          "internalType": "uint32",
          "name": "",
          "type": "uint32"
        }
      ],
      "stateMutability": "view",
      "type": "function"
    },
    {
      "inputs": [],
      "name": "sequencerAgentTemplate",
      "outputs": [
        {
          "internalType": "address",
          "name": "",
          "type": "address"
        }
      ],
      "stateMutability": "view",
      "type": "function"
    },
    {
      "inputs": [
        {
          "internalType": "uint32",
          "name": "",
          "type": "uint32"
        }
      ],
      "name": "sequencerAgents",
      "outputs": [
        {
          "internalType": "address",
          "name": "",
          "type": "address"
        }
      ],
      "stateMutability": "view",
      "type": "function"
    },
    {
      "inputs": [],
      "name": "sequencerData",
      "outputs": [
        {
          "components": [
            {
              "internalType": "uint256",
              "name": "amount",
              "type": "uint256"
            },
            {
              "internalType": "uint256",
              "name": "reward",
              "type": "uint256"
            },
            {
              "internalType": "uint256",
              "name": "activationBatch",
              "type": "uint256"
            },
            {
              "internalType": "uint256",
              "name": "updatedBatch",
              "type": "uint256"
            },
            {
              "internalType": "uint256",
              "name": "deactivationBatch",
              "type": "uint256"
            },
            {
              "internalType": "uint256",
              "name": "deactivationTime",
              "type": "uint256"
            },
            {
              "internalType": "uint256",
              "name": "unlockClaimTime",
              "type": "uint256"
            },
            {
              "internalType": "uint256",
              "name": "nonce",
              "type": "uint256"
            },
            {
              "internalType": "address",
              "name": "owner",
              "type": "address"
            },
            {
              "internalType": "address",
              "name": "signer",
              "type": "address"
            }
          ],
          "internalType": "struct ILockingPool.SequencerData",
          "name": "",
          "type": "tuple"
        }
      ],
      "stateMutability": "view",
      "type": "function"
    },
    {
      "inputs": [],
      "name": "sequencerId",
      "outputs": [
        {
          "internalType": "uint256",
          "name": "",
          "type": "uint256"
        }
      ],
      "stateMutability": "view",
      "type": "function"
    },
    {
      "inputs": [],
      "name": "sequencerSigner",
      "outputs": [
        {
          "internalType": "address",
          "name": "",
          "type": "address"
        }
      ],
      "stateMutability": "view",
      "type": "function"
    },
    {
      "inputs": [
        {
          "internalType": "bool",
          "name": "_active",
          "type": "bool"
        }
      ],
      "name": "setActive",
      "outputs": [],
      "stateMutability": "nonpayable",
      "type": "function"
    },
    {
      "inputs": [
        {
          "internalType": "uint32",
          "name": "_l2Gas",
          "type": "uint32"
        }
      ],
      "name": "setL2Gas",
      "outputs": [],
      "stateMutability": "nonpayable",
      "type": "function"
    },
    {
      "inputs": [
        {
          "internalType": "address",
          "name": "_l2MinterAddress",
          "type": "address"
        }
      ],
      "name": "setL2Minter",
      "outputs": [],
      "stateMutability": "nonpayable",
      "type": "function"
    },
    {
      "inputs": [
        {
          "internalType": "address",
          "name": "_l2RewardDispatcher",
          "type": "address"
        }
      ],
      "name": "setL2RewardDispatcher",
      "outputs": [],
      "stateMutability": "nonpayable",
      "type": "function"
    },
    {
      "inputs": [
        {
          "internalType": "address",
          "name": "_redemptionQueue",
          "type": "address"
        }
      ],
      "name": "setRedemptionQueue",
      "outputs": [],
      "stateMutability": "nonpayable",
      "type": "function"
    },
    {
      "inputs": [],
      "name": "stakingAmount",
      "outputs": [
        {
          "internalType": "uint256",
          "name": "",
          "type": "uint256"
        }
      ],
      "stateMutability": "view",
      "type": "function"
    },
    {
      "inputs": [],
      "name": "sumRewards",
      "outputs": [
        {
          "internalType": "uint256",
          "name": "",
          "type": "uint256"
        }
      ],
      "stateMutability": "view",
      "type": "function"
    },
    {
      "inputs": [],
      "name": "totalLocked",
      "outputs": [
        {
          "internalType": "uint256",
          "name": "",
          "type": "uint256"
        }
      ],
      "stateMutability": "view",
      "type": "function"
    },
    {
      "inputs": [
        {
          "internalType": "address",
          "name": "newOwner",
          "type": "address"
        }
      ],
      "name": "transferOwnership",
      "outputs": [],
      "stateMutability": "nonpayable",
      "type": "function"
    },
    {
      "inputs": [],
      "name": "unlock",
      "outputs": [],
      "stateMutability": "payable",
      "type": "function"
    },
    {
      "inputs": [],
      "name": "unlockClaim",
      "outputs": [],
      "stateMutability": "payable",
      "type": "function"
    },
    {
      "inputs": [],
      "name": "withdrawRewards",
      "outputs": [
        {
          "internalType": "bool",
          "name": "",
          "type": "bool"
        }
      ],
      "stateMutability": "view",
      "type": "function"
    },
    {
      "inputs": [
        {
          "internalType": "uint256",
          "name": "amount",
          "type": "uint256"
        }
      ],
      "name": "withdrawStakingAmount",
      "outputs": [],
      "stateMutability": "payable",
      "type": "function"
    }
  ],
  "bytecode": "0x608060405234801561001057600080fd5b50613a84806100206000396000f3fe6080604052600436106102255760003560e01c806385d1e2b811610123578063b699ce5f116100ab578063e92d61e51161006f578063e92d61e514610797578063f2fde38b146107c2578063f7cee36a146107eb578063f87b7a3e14610816578063feafaa6b1461083f57610225565b8063b699ce5f146106c2578063c3b550c8146106eb578063c7b8981c14610716578063d6ae3cd514610741578063e59745541461076c57610225565b80639e935704116100f25780639e93570414610612578063a69df4b51461063d578063a98d38f014610647578063acec338a14610670578063af70cba51461069957610225565b806385d1e2b8146105665780638da5cb5b146105915780638db8ad88146105bc57806397ec19be146105e757610225565b80633cbb6979116101b15780636f47999b116101755780636f47999b146104a5578063715018a6146104ce578063739a3e02146104e557806376d9f95c146105105780637ca4f8b01461053b57610225565b80633cbb6979146103ac57806343c82cf7146103d7578063457cb58614610400578063539066531461043d578063568914121461047a57610225565b8063080e1e4e116101f8578063080e1e4e146102c75780631abdaf6a146102f257806333bec7e71461032f5780633b4c46d0146103585780633cb747bf1461038157610225565b80630182a6da1461022a57806302fb0c5e1461024657806304a78fca146102715780630572b0cc1461029c575b600080fd5b610244600480360381019061023f91906128ff565b610849565b005b34801561025257600080fd5b5061025b610dee565b6040516102689190612947565b60405180910390f35b34801561027d57600080fd5b50610286610e01565b6040516102939190612971565b60405180910390f35b3480156102a857600080fd5b506102b1610e07565b6040516102be9190612971565b60405180910390f35b3480156102d357600080fd5b506102dc610e16565b6040516102e991906129cd565b60405180910390f35b3480156102fe57600080fd5b50610319600480360381019061031491906128ff565b610e3c565b6040516103269190612a07565b60405180910390f35b34801561033b57600080fd5b5061035660048036038101906103519190612a4e565b610e76565b005b34801561036457600080fd5b5061037f600480360381019061037a9190612aa7565b610ef3565b005b34801561038d57600080fd5b50610396610f3f565b6040516103a39190612b33565b60405180910390f35b3480156103b857600080fd5b506103c1610f65565b6040516103ce9190612a07565b60405180910390f35b3480156103e357600080fd5b506103fe60048036038101906103f99190612aa7565b610f7b565b005b34801561040c57600080fd5b5061042760048036038101906104229190612a4e565b610fc7565b60405161043491906129cd565b60405180910390f35b34801561044957600080fd5b50610464600480360381019061045f91906128ff565b610ffa565b6040516104719190612947565b60405180910390f35b34801561048657600080fd5b5061048f6110bd565b60405161049c9190612971565b60405180910390f35b3480156104b157600080fd5b506104cc60048036038101906104c79190612a4e565b6110d0565b005b3480156104da57600080fd5b506104e36111b3565b005b3480156104f157600080fd5b506104fa6111c7565b6040516105079190612971565b60405180910390f35b34801561051c57600080fd5b506105256111ea565b6040516105329190612c38565b60405180910390f35b34801561054757600080fd5b50610550611296565b60405161055d9190612971565b60405180910390f35b34801561057257600080fd5b5061057b61129c565b6040516105889190612c75565b60405180910390f35b34801561059d57600080fd5b506105a66112c2565b6040516105b391906129cd565b60405180910390f35b3480156105c857600080fd5b506105d16112fa565b6040516105de91906129cd565b60405180910390f35b3480156105f357600080fd5b506105fc61131e565b60405161060991906129cd565b60405180910390f35b34801561061e57600080fd5b50610627611344565b6040516106349190612a07565b60405180910390f35b61064561135a565b005b34801561065357600080fd5b5061066e600480360381019061066991906128ff565b611508565b005b34801561067c57600080fd5b5061069760048036038101906106929190612cbc565b611779565b005b3480156106a557600080fd5b506106c060048036038101906106bb9190612e2f565b61179e565b005b3480156106ce57600080fd5b506106e960048036038101906106e49190612e9e565b611c28565b005b3480156106f757600080fd5b506107006121bd565b60405161070d91906129cd565b60405180910390f35b34801561072257600080fd5b5061072b6121e3565b6040516107389190612947565b60405180910390f35b34801561074d57600080fd5b506107566121f6565b6040516107639190612971565b60405180910390f35b34801561077857600080fd5b506107816121fc565b60405161078e9190612f61565b60405180910390f35b3480156107a357600080fd5b506107ac612222565b6040516107b991906129cd565b60405180910390f35b3480156107ce57600080fd5b506107e960048036038101906107e49190612aa7565b612248565b005b3480156107f757600080fd5b506108006122ce565b60405161080d9190612f9d565b60405180910390f35b34801561082257600080fd5b5061083d60048036038101906108389190612aa7565b6122f4565b005b610847612340565b005b6108516123ee565b60008111610894576040517f08c379a000000000000000000000000000000000000000000000000000000000815260040161088b90613015565b60405180910390fd5b80600360009054906101000a900473ffffffffffffffffffffffffffffffffffffffff1673ffffffffffffffffffffffffffffffffffffffff1663f037c6306040518163ffffffff1660e01b8152600401602060405180830381865afa158015610902573d6000803e3d6000fd5b505050506040513d601f19601f82011682018060405250810190610926919061304a565b61093091906130a6565b610938612475565b1015610979576040517f08c379a000000000000000000000000000000000000000000000000000000000815260040161097090613126565b60405180910390fd5b600260009054906101000a900473ffffffffffffffffffffffffffffffffffffffff1673ffffffffffffffffffffffffffffffffffffffff1663441a3e70600d54836040518363ffffffff1660e01b81526004016109d8929190613146565b600060405180830381600087803b1580156109f257600080fd5b505af1158015610a06573d6000803e3d6000fd5b505050506000600360009054906101000a900473ffffffffffffffffffffffffffffffffffffffff1673ffffffffffffffffffffffffffffffffffffffff1663e78cea926040518163ffffffff1660e01b8152600401602060405180830381865afa158015610a79573d6000803e3d6000fd5b505050506040513d601f19601f82011682018060405250810190610a9d9190613184565b9050600360009054906101000a900473ffffffffffffffffffffffffffffffffffffffff1673ffffffffffffffffffffffffffffffffffffffff1663c01e1bd66040518163ffffffff1660e01b8152600401602060405180830381865afa158015610b0c573d6000803e3d6000fd5b505050506040513d601f19601f82011682018060405250810190610b309190613184565b73ffffffffffffffffffffffffffffffffffffffff1663095ea7b382846040518363ffffffff1660e01b8152600401610b6a9291906131b1565b6020604051808303816000875af1158015610b89573d6000803e3d6000fd5b505050506040513d601f19601f82011682018060405250810190610bad91906131ef565b508073ffffffffffffffffffffffffffffffffffffffff1663ef808be234600554600360009054906101000a900473ffffffffffffffffffffffffffffffffffffffff1673ffffffffffffffffffffffffffffffffffffffff1663c01e1bd66040518163ffffffff1660e01b8152600401602060405180830381865afa158015610c3b573d6000803e3d6000fd5b505050506040513d601f19601f82011682018060405250810190610c5f9190613184565b600360009054906101000a900473ffffffffffffffffffffffffffffffffffffffff1673ffffffffffffffffffffffffffffffffffffffff166356eff2676040518163ffffffff1660e01b8152600401602060405180830381865afa158015610ccc573d6000803e3d6000fd5b505050506040513d601f19601f82011682018060405250810190610cf09190613184565b600f60009054906101000a900473ffffffffffffffffffffffffffffffffffffffff1688600c60009054906101000a900463ffffffff166040518863ffffffff1660e01b8152600401610d4896959493929190613253565b6000604051808303818588803b158015610d6157600080fd5b505af1158015610d75573d6000803e3d6000fd5b5050505050600f60009054906101000a900473ffffffffffffffffffffffffffffffffffffffff1673ffffffffffffffffffffffffffffffffffffffff167f6ef7a26d50cec3f1a210bed887413d426c9c13575a17872c54e00c4287ac5dce83604051610de29190612971565b60405180910390a25050565b600e60149054906101000a900460ff1681565b600d5481565b6000610e1161248d565b905090565b600660009054906101000a900473ffffffffffffffffffffffffffffffffffffffff1681565b600a8181548110610e4c57600080fd5b9060005260206000209060089182820401919006600402915054906101000a900463ffffffff1681565b610e7e6123ee565b6000600c60009054906101000a900463ffffffff16905081600c60006101000a81548163ffffffff021916908363ffffffff1602179055507f4042b09a75e5a67c8cc2a57e00de6d29fb5202b7207afba895eb8b5cc3e2179e8183604051610ee79291906132c7565b60405180910390a15050565b610efb6123ee565b80600f60006101000a81548173ffffffffffffffffffffffffffffffffffffffff021916908373ffffffffffffffffffffffffffffffffffffffff16021790555050565b600460009054906101000a900473ffffffffffffffffffffffffffffffffffffffff1681565b600c60009054906101000a900463ffffffff1681565b610f836123ee565b80600760006101000a81548173ffffffffffffffffffffffffffffffffffffffff021916908373ffffffffffffffffffffffffffffffffffffffff16021790555050565b60086020528060005260406000206000915054906101000a900473ffffffffffffffffffffffffffffffffffffffff1681565b60006011600d540361100f57600190506110b8565b600360009054906101000a900473ffffffffffffffffffffffffffffffffffffffff1673ffffffffffffffffffffffffffffffffffffffff16636c0b3e466040518163ffffffff1660e01b8152600401602060405180830381865afa15801561107c573d6000803e3d6000fd5b505050506040513d601f19601f820116820180604052508101906110a0919061304a565b6110a8612475565b836110b391906130a6565b111590505b919050565b60006110c76111ea565b60000151905090565b6110d86123ee565b60006110e261248d565b9050600260009054906101000a900473ffffffffffffffffffffffffffffffffffffffff1673ffffffffffffffffffffffffffffffffffffffff166317396687600d54846040518363ffffffff1660e01b81526004016111439291906132f0565b600060405180830381600087803b15801561115d57600080fd5b505af1158015611171573d6000803e3d6000fd5b50505050600d547f630af8b49bb398089a74eacdb08106c528436090bdb35d7302152dc5117df9bd826040516111a79190612971565b60405180910390a25050565b6111bb6123ee565b6111c560006124a5565b565b60006011600d54146111dc57600090506111e7565b6111e4612475565b90505b90565b6111f2612836565b600260009054906101000a900473ffffffffffffffffffffffffffffffffffffffff1673ffffffffffffffffffffffffffffffffffffffff16636ba7ccff600d546040518263ffffffff1660e01b815260040161124f9190612971565b61014060405180830381865afa15801561126d573d6000803e3d6000fd5b505050506040513d601f19601f820116820180604052508101906112919190613414565b905090565b600b5481565b600260009054906101000a900473ffffffffffffffffffffffffffffffffffffffff1681565b6000806112cd61257c565b90508060000160009054906101000a900473ffffffffffffffffffffffffffffffffffffffff1691505090565b60008054906101000a900473ffffffffffffffffffffffffffffffffffffffff1681565b600f60009054906101000a900473ffffffffffffffffffffffffffffffffffffffff1681565b600960009054906101000a900463ffffffff1681565b6113626123ee565b600061136c6111ea565b90503373ffffffffffffffffffffffffffffffffffffffff1681610100015173ffffffffffffffffffffffffffffffffffffffff16146113e1576040517f08c379a00000000000000000000000000000000000000000000000000000000081526004016113d89061348e565b60405180910390fd5b600260009054906101000a900473ffffffffffffffffffffffffffffffffffffffff1673ffffffffffffffffffffffffffffffffffffffff1663262c0e6634600d54600c60009054906101000a900463ffffffff166040518463ffffffff1660e01b81526004016114539291906132f0565b6000604051808303818588803b15801561146c57600080fd5b505af1158015611480573d6000803e3d6000fd5b50505050506000600e60146101000a81548160ff021916908315150217905550600e60009054906101000a900473ffffffffffffffffffffffffffffffffffffffff1673ffffffffffffffffffffffffffffffffffffffff167fbac99876b6a1c26412460d61d913235a30f0ea99585ffcfd53c0faae6ed3313460405160405180910390a250565b6115106123ee565b600e60149054906101000a900460ff1661155f576040517f08c379a0000000000000000000000000000000000000000000000000000000008152600401611556906134fa565b60405180910390fd5b61156881610ffa565b6115a7576040517f08c379a000000000000000000000000000000000000000000000000000000000815260040161159e90613566565b60405180910390fd5b600160009054906101000a900473ffffffffffffffffffffffffffffffffffffffff1673ffffffffffffffffffffffffffffffffffffffff1663095ea7b3600360009054906101000a900473ffffffffffffffffffffffffffffffffffffffff16836040518363ffffffff1660e01b81526004016116269291906131b1565b6020604051808303816000875af1158015611645573d6000803e3d6000fd5b505050506040513d601f19601f8201168201806040525081019061166991906131ef565b6116a8576040517f08c379a000000000000000000000000000000000000000000000000000000000815260040161169f906135f8565b60405180910390fd5b600260009054906101000a900473ffffffffffffffffffffffffffffffffffffffff1673ffffffffffffffffffffffffffffffffffffffff1663015bb180600d548360006040518463ffffffff1660e01b815260040161170a93929190613618565b600060405180830381600087803b15801561172457600080fd5b505af1158015611738573d6000803e3d6000fd5b505050507fd076af75b138b908e5017400dafa33e08e4f5cd3d63e0a8c900b274734ae59da60008260405161176e92919061368a565b60405180910390a150565b6117816123ee565b80600e60146101000a81548160ff02191690831515021790555050565b6117a66123ee565b6000600160009054906101000a900473ffffffffffffffffffffffffffffffffffffffff1673ffffffffffffffffffffffffffffffffffffffff166370a08231306040518263ffffffff1660e01b815260040161180391906129cd565b602060405180830381865afa158015611820573d6000803e3d6000fd5b505050506040513d601f19601f82011682018060405250810190611844919061304a565b905082811015611889576040517f08c379a000000000000000000000000000000000000000000000000000000000815260040161188090613725565b60405180910390fd5b83600e60006101000a81548173ffffffffffffffffffffffffffffffffffffffff021916908373ffffffffffffffffffffffffffffffffffffffff160217905550600160009054906101000a900473ffffffffffffffffffffffffffffffffffffffff1673ffffffffffffffffffffffffffffffffffffffff1663095ea7b3600360009054906101000a900473ffffffffffffffffffffffffffffffffffffffff167fffffffffffffffffffffffffffffffffffffffffffffffffffffffffffffffff6040518363ffffffff1660e01b81526004016119699291906131b1565b6020604051808303816000875af1158015611988573d6000803e3d6000fd5b505050506040513d601f19601f820116820180604052508101906119ac91906131ef565b6119eb576040517f08c379a00000000000000000000000000000000000000000000000000000000081526004016119e2906135f8565b60405180910390fd5b600260009054906101000a900473ffffffffffffffffffffffffffffffffffffffff1673ffffffffffffffffffffffffffffffffffffffff16639ad42030600e60009054906101000a900473ffffffffffffffffffffffffffffffffffffffff16600660009054906101000a900473ffffffffffffffffffffffffffffffffffffffff1686866040518563ffffffff1660e01b8152600401611a9094939291906137b3565b600060405180830381600087803b158015611aaa57600080fd5b505af1158015611abe573d6000803e3d6000fd5b50505050600260009054906101000a900473ffffffffffffffffffffffffffffffffffffffff1673ffffffffffffffffffffffffffffffffffffffff1663beb26755600e60009054906101000a900473ffffffffffffffffffffffffffffffffffffffff166040518263ffffffff1660e01b8152600401611b3f91906129cd565b602060405180830381865afa158015611b5c573d6000803e3d6000fd5b505050506040513d601f19601f82011682018060405250810190611b80919061304a565b600d819055506001600e60146101000a81548160ff021916908315150217905550600e60009054906101000a900473ffffffffffffffffffffffffffffffffffffffff1673ffffffffffffffffffffffffffffffffffffffff167fb1e87a33084279cb2bff2d1271034cf695f539ee73bbd934d1625703d585d84a84600e60149054906101000a900460ff16604051611c1a9291906137ff565b60405180910390a250505050565b6000611c326125a4565b905060008160000160089054906101000a900460ff1615905060008260000160009054906101000a900467ffffffffffffffff1690506000808267ffffffffffffffff16148015611c805750825b9050600060018367ffffffffffffffff16148015611cb5575060003073ffffffffffffffffffffffffffffffffffffffff163b145b905081158015611cc3575080155b15611cfa576040517ff92ee8a900000000000000000000000000000000000000000000000000000000815260040160405180910390fd5b60018560000160006101000a81548167ffffffffffffffff021916908367ffffffffffffffff1602179055508315611d4a5760018560000160086101000a81548160ff0219169083151502179055505b600073ffffffffffffffffffffffffffffffffffffffff168c73ffffffffffffffffffffffffffffffffffffffff1614158015611db45750600073ffffffffffffffffffffffffffffffffffffffff168b73ffffffffffffffffffffffffffffffffffffffff1614155b8015611ded5750600073ffffffffffffffffffffffffffffffffffffffff168a73ffffffffffffffffffffffffffffffffffffffff1614155b8015611e265750600073ffffffffffffffffffffffffffffffffffffffff168773ffffffffffffffffffffffffffffffffffffffff1614155b8015611e5f5750600073ffffffffffffffffffffffffffffffffffffffff168673ffffffffffffffffffffffffffffffffffffffff1614155b611e9e576040517f08c379a0000000000000000000000000000000000000000000000000000000008152600401611e9590613874565b60405180910390fd5b611ea7336125cc565b8b600160006101000a81548173ffffffffffffffffffffffffffffffffffffffff021916908373ffffffffffffffffffffffffffffffffffffffff1602179055508a600260006101000a81548173ffffffffffffffffffffffffffffffffffffffff021916908373ffffffffffffffffffffffffffffffffffffffff160217905550600260009054906101000a900473ffffffffffffffffffffffffffffffffffffffff1673ffffffffffffffffffffffffffffffffffffffff1663e2fdcc176040518163ffffffff1660e01b8152600401602060405180830381865afa158015611f96573d6000803e3d6000fd5b505050506040513d601f19601f82011682018060405250810190611fba91906138d2565b600360006101000a81548173ffffffffffffffffffffffffffffffffffffffff021916908373ffffffffffffffffffffffffffffffffffffffff1602179055508973ffffffffffffffffffffffffffffffffffffffff16633cb747bf6040518163ffffffff1660e01b8152600401602060405180830381865afa158015612045573d6000803e3d6000fd5b505050506040513d601f19601f820116820180604052508101906120699190613184565b600460006101000a81548173ffffffffffffffffffffffffffffffffffffffff021916908373ffffffffffffffffffffffffffffffffffffffff1602179055508860058190555087600c60006101000a81548163ffffffff021916908363ffffffff16021790555086600660006101000a81548173ffffffffffffffffffffffffffffffffffffffff021916908373ffffffffffffffffffffffffffffffffffffffff16021790555085600760006101000a81548173ffffffffffffffffffffffffffffffffffffffff021916908373ffffffffffffffffffffffffffffffffffffffff16021790555083156121af5760008560000160086101000a81548160ff0219169083151502179055507fc7f505b2f371ae2175ee4913f4499e1f2633a7b5936321eed1cdaeb6115181d260016040516121a6919061394e565b60405180910390a15b505050505050505050505050565b600e60009054906101000a900473ffffffffffffffffffffffffffffffffffffffff1681565b600c60049054906101000a900460ff1681565b60055481565b600160009054906101000a900473ffffffffffffffffffffffffffffffffffffffff1681565b600760009054906101000a900473ffffffffffffffffffffffffffffffffffffffff1681565b6122506123ee565b600073ffffffffffffffffffffffffffffffffffffffff168173ffffffffffffffffffffffffffffffffffffffff16036122c25760006040517f1e4fbdf70000000000000000000000000000000000000000000000000000000081526004016122b991906129cd565b60405180910390fd5b6122cb816124a5565b50565b600360009054906101000a900473ffffffffffffffffffffffffffffffffffffffff1681565b6122fc6123ee565b80600660006101000a81548173ffffffffffffffffffffffffffffffffffffffff021916908373ffffffffffffffffffffffffffffffffffffffff16021790555050565b6123486123ee565b600260009054906101000a900473ffffffffffffffffffffffffffffffffffffffff1673ffffffffffffffffffffffffffffffffffffffff16638ddc74de34600d54600c60009054906101000a900463ffffffff166040518463ffffffff1660e01b81526004016123ba9291906132f0565b6000604051808303818588803b1580156123d357600080fd5b505af11580156123e7573d6000803e3d6000fd5b5050505050565b6123f66125e0565b73ffffffffffffffffffffffffffffffffffffffff166124146112c2565b73ffffffffffffffffffffffffffffffffffffffff1614612473576124376125e0565b6040517f118cdaa700000000000000000000000000000000000000000000000000000000815260040161246a91906129cd565b60405180910390fd5b565b6000806124806125e8565b9050602081015191505090565b6000806124986125e8565b9050604081015191505090565b60006124af61257c565b905060008160000160009054906101000a900473ffffffffffffffffffffffffffffffffffffffff169050828260000160006101000a81548173ffffffffffffffffffffffffffffffffffffffff021916908373ffffffffffffffffffffffffffffffffffffffff1602179055508273ffffffffffffffffffffffffffffffffffffffff168173ffffffffffffffffffffffffffffffffffffffff167f8be0079c531659141344cd1fd0a4f28419497f9722a3daafe3b4186f6b6457e060405160405180910390a3505050565b60007f9016d09d72d40fdae2fd8ceac6b6234c7706214fd39c1cd1e609a0528c199300905090565b60007ff0c57e16840df040f15088dc2f81fe391c3923bec73e23a9662efc9c229c6a00905090565b6125d4612750565b6125dd81612790565b50565b600033905090565b6060600080600260009054906101000a900473ffffffffffffffffffffffffffffffffffffffff1673ffffffffffffffffffffffffffffffffffffffff16600d546040516024016126399190612971565b6040516020818303038152906040527f6ba7ccff000000000000000000000000000000000000000000000000000000007bffffffffffffffffffffffffffffffffffffffffffffffffffffffff19166020820180517bffffffffffffffffffffffffffffffffffffffffffffffffffffffff83818316178352505050506040516126c391906139a5565b600060405180830381855afa9150503d80600081146126fe576040519150601f19603f3d011682016040523d82523d6000602084013e612703565b606091505b509150915081612748576040517f08c379a000000000000000000000000000000000000000000000000000000000815260040161273f90613a2e565b60405180910390fd5b809250505090565b612758612816565b61278e576040517fd7e6bcf800000000000000000000000000000000000000000000000000000000815260040160405180910390fd5b565b612798612750565b600073ffffffffffffffffffffffffffffffffffffffff168173ffffffffffffffffffffffffffffffffffffffff160361280a5760006040517f1e4fbdf700000000000000000000000000000000000000000000000000000000815260040161280191906129cd565b60405180910390fd5b612813816124a5565b50565b60006128206125a4565b60000160089054906101000a900460ff16905090565b6040518061014001604052806000815260200160008152602001600081526020016000815260200160008152602001600081526020016000815260200160008152602001600073ffffffffffffffffffffffffffffffffffffffff168152602001600073ffffffffffffffffffffffffffffffffffffffff1681525090565b6000604051905090565b600080fd5b600080fd5b6000819050919050565b6128dc816128c9565b81146128e757600080fd5b50565b6000813590506128f9816128d3565b92915050565b600060208284031215612915576129146128bf565b5b6000612923848285016128ea565b91505092915050565b60008115159050919050565b6129418161292c565b82525050565b600060208201905061295c6000830184612938565b92915050565b61296b816128c9565b82525050565b60006020820190506129866000830184612962565b92915050565b600073ffffffffffffffffffffffffffffffffffffffff82169050919050565b60006129b78261298c565b9050919050565b6129c7816129ac565b82525050565b60006020820190506129e260008301846129be565b92915050565b600063ffffffff82169050919050565b612a01816129e8565b82525050565b6000602082019050612a1c60008301846129f8565b92915050565b612a2b816129e8565b8114612a3657600080fd5b50565b600081359050612a4881612a22565b92915050565b600060208284031215612a6457612a636128bf565b5b6000612a7284828501612a39565b91505092915050565b612a84816129ac565b8114612a8f57600080fd5b50565b600081359050612aa181612a7b565b92915050565b600060208284031215612abd57612abc6128bf565b5b6000612acb84828501612a92565b91505092915050565b6000819050919050565b6000612af9612af4612aef8461298c565b612ad4565b61298c565b9050919050565b6000612b0b82612ade565b9050919050565b6000612b1d82612b00565b9050919050565b612b2d81612b12565b82525050565b6000602082019050612b486000830184612b24565b92915050565b612b57816128c9565b82525050565b612b66816129ac565b82525050565b61014082016000820151612b836000850182612b4e565b506020820151612b966020850182612b4e565b506040820151612ba96040850182612b4e565b506060820151612bbc6060850182612b4e565b506080820151612bcf6080850182612b4e565b5060a0820151612be260a0850182612b4e565b5060c0820151612bf560c0850182612b4e565b5060e0820151612c0860e0850182612b4e565b50610100820151612c1d610100850182612b5d565b50610120820151612c32610120850182612b5d565b50505050565b600061014082019050612c4e6000830184612b6c565b92915050565b6000612c5f82612b00565b9050919050565b612c6f81612c54565b82525050565b6000602082019050612c8a6000830184612c66565b92915050565b612c998161292c565b8114612ca457600080fd5b50565b600081359050612cb681612c90565b92915050565b600060208284031215612cd257612cd16128bf565b5b6000612ce084828501612ca7565b91505092915050565b600080fd5b600080fd5b6000601f19601f8301169050919050565b7f4e487b7100000000000000000000000000000000000000000000000000000000600052604160045260246000fd5b612d3c82612cf3565b810181811067ffffffffffffffff82111715612d5b57612d5a612d04565b5b80604052505050565b6000612d6e6128b5565b9050612d7a8282612d33565b919050565b600067ffffffffffffffff821115612d9a57612d99612d04565b5b612da382612cf3565b9050602081019050919050565b82818337600083830152505050565b6000612dd2612dcd84612d7f565b612d64565b905082815260208101848484011115612dee57612ded612cee565b5b612df9848285612db0565b509392505050565b600082601f830112612e1657612e15612ce9565b5b8135612e26848260208601612dbf565b91505092915050565b600080600060608486031215612e4857612e476128bf565b5b6000612e5686828701612a92565b9350506020612e67868287016128ea565b925050604084013567ffffffffffffffff811115612e8857612e876128c4565b5b612e9486828701612e01565b9150509250925092565b600080600080600080600060e0888a031215612ebd57612ebc6128bf565b5b6000612ecb8a828b01612a92565b9750506020612edc8a828b01612a92565b9650506040612eed8a828b01612a92565b9550506060612efe8a828b016128ea565b9450506080612f0f8a828b01612a39565b93505060a0612f208a828b01612a92565b92505060c0612f318a828b01612a92565b91505092959891949750929550565b6000612f4b82612b00565b9050919050565b612f5b81612f40565b82525050565b6000602082019050612f766000830184612f52565b92915050565b6000612f8782612b00565b9050919050565b612f9781612f7c565b82525050565b6000602082019050612fb26000830184612f8e565b92915050565b600082825260208201905092915050565b7f5374616b696e67506f6f6c3a20696e76616c696420616d6f756e740000000000600082015250565b6000612fff601b83612fb8565b915061300a82612fc9565b602082019050919050565b6000602082019050818103600083015261302e81612ff2565b9050919050565b600081519050613044816128d3565b92915050565b6000602082840312156130605761305f6128bf565b5b600061306e84828501613035565b91505092915050565b7f4e487b7100000000000000000000000000000000000000000000000000000000600052601160045260246000fd5b60006130b1826128c9565b91506130bc836128c9565b92508282019050808211156130d4576130d3613077565b5b92915050565b7f5374616b696e67506f6f6c3a20657863656564206d696e206c6f636b00000000600082015250565b6000613110601c83612fb8565b915061311b826130da565b602082019050919050565b6000602082019050818103600083015261313f81613103565b9050919050565b600060408201905061315b6000830185612962565b6131686020830184612962565b9392505050565b60008151905061317e81612a7b565b92915050565b60006020828403121561319a576131996128bf565b5b60006131a88482850161316f565b91505092915050565b60006040820190506131c660008301856129be565b6131d36020830184612962565b9392505050565b6000815190506131e981612c90565b92915050565b600060208284031215613205576132046128bf565b5b6000613213848285016131da565b91505092915050565b600082825260208201905092915050565b50565b600061323d60008361321c565b91506132488261322d565b600082019050919050565b600060e0820190506132686000830189612962565b61327560208301886129be565b61328260408301876129be565b61328f60608301866129be565b61329c6080830185612962565b6132a960a08301846129f8565b81810360c08301526132ba81613230565b9050979650505050505050565b60006040820190506132dc60008301856129f8565b6132e960208301846129f8565b9392505050565b60006040820190506133056000830185612962565b61331260208301846129f8565b9392505050565b600080fd5b6000610140828403121561333557613334613319565b5b613340610140612d64565b9050600061335084828501613035565b600083015250602061336484828501613035565b602083015250604061337884828501613035565b604083015250606061338c84828501613035565b60608301525060806133a084828501613035565b60808301525060a06133b484828501613035565b60a08301525060c06133c884828501613035565b60c08301525060e06133dc84828501613035565b60e0830152506101006133f18482850161316f565b610100830152506101206134078482850161316f565b6101208301525092915050565b6000610140828403121561342b5761342a6128bf565b5b60006134398482850161331e565b91505092915050565b7f4465616c65723a2063616c6c6572206973206e6f7420746865206f776e657200600082015250565b6000613478601f83612fb8565b915061348382613442565b602082019050919050565b600060208201905081810360008301526134a78161346b565b9050919050565b7f4465616c65723a206e6f206163746976652073657175656e6365720000000000600082015250565b60006134e4601b83612fb8565b91506134ef826134ae565b602082019050919050565b60006020820190508181036000830152613513816134d7565b9050919050565b7f5374616b696e67506f6f6c3a20657863656564206d6178206c6f636b00000000600082015250565b6000613550601c83612fb8565b915061355b8261351a565b602082019050919050565b6000602082019050818103600083015261357f81613543565b9050919050565b7f4465616c65723a20417070726f76616c20746f204c6f636b696e67496e666f2060008201527f6661696c65640000000000000000000000000000000000000000000000000000602082015250565b60006135e2602683612fb8565b91506135ed82613586565b604082019050919050565b60006020820190508181036000830152613611816135d5565b9050919050565b600060608201905061362d6000830186612962565b61363a6020830185612962565b6136476040830184612938565b949350505050565b6000819050919050565b600061367461366f61366a8461364f565b612ad4565b6129e8565b9050919050565b61368481613659565b82525050565b600060408201905061369f600083018561367b565b6136ac6020830184612962565b9392505050565b7f4465616c65723a20496e73756666696369656e74204d657469732062616c616e60008201527f6365000000000000000000000000000000000000000000000000000000000000602082015250565b600061370f602283612fb8565b915061371a826136b3565b604082019050919050565b6000602082019050818103600083015261373e81613702565b9050919050565b600081519050919050565b60005b8381101561376e578082015181840152602081019050613753565b60008484015250505050565b600061378582613745565b61378f818561321c565b935061379f818560208601613750565b6137a881612cf3565b840191505092915050565b60006080820190506137c860008301876129be565b6137d560208301866129be565b6137e26040830185612962565b81810360608301526137f4818461377a565b905095945050505050565b60006040820190506138146000830185612962565b6138216020830184612938565b9392505050565b7f4465616c65723a207a65726f2061646472657373000000000000000000000000600082015250565b600061385e601483612fb8565b915061386982613828565b602082019050919050565b6000602082019050818103600083015261388d81613851565b9050919050565b600061389f826129ac565b9050919050565b6138af81613894565b81146138ba57600080fd5b50565b6000815190506138cc816138a6565b92915050565b6000602082840312156138e8576138e76128bf565b5b60006138f6848285016138bd565b91505092915050565b6000819050919050565b600067ffffffffffffffff82169050919050565b600061393861393361392e846138ff565b612ad4565b613909565b9050919050565b6139488161391d565b82525050565b6000602082019050613963600083018461393f565b92915050565b600081905092915050565b600061397f82613745565b6139898185613969565b9350613999818560208601613750565b80840191505092915050565b60006139b18284613974565b915081905092915050565b7f5374616b696e67506f6f6c3a206765742053657175656e636572206661696c6560008201527f6400000000000000000000000000000000000000000000000000000000000000602082015250565b6000613a18602183612fb8565b9150613a23826139bc565b604082019050919050565b60006020820190508181036000830152613a4781613a0b565b905091905056fea2646970667358221220520747f2cd0e0e21dbb1a51913793b5073d51abaab3ba694e13d942b3bc5117164736f6c63430008140033",
  "linkReferences": {},
  "deployedLinkReferences": {}
}