{
  "_format": "hh-sol-artifact-1",
  "contractName": "Dealer",
  "sourceName": "contracts/Dealer.sol",
  "abi": [
    {
      "inputs": [],
      "name": "InvalidInitialization",
      "type": "error"
    },
    {
      "inputs": [],
      "name": "NotInitializing",
      "type": "error"
    },
    {
      "inputs": [
        {
          "internalType": "address",
          "name": "owner",
          "type": "address"
        }
      ],
      "name": "OwnableInvalidOwner",
      "type": "error"
    },
    {
      "inputs": [
        {
          "internalType": "address",
          "name": "account",
          "type": "address"
        }
      ],
      "name": "OwnableUnauthorizedAccount",
      "type": "error"
    },
    {
      "anonymous": false,
      "inputs": [
        {
          "indexed": false,
          "internalType": "uint64",
          "name": "version",
          "type": "uint64"
        }
      ],
      "name": "Initialized",
      "type": "event"
    },
    {
      "anonymous": false,
      "inputs": [
        {
          "indexed": false,
          "internalType": "bool",
          "name": "isRelocked",
          "type": "bool"
        }
      ],
      "name": "IsSequencerRelocked",
      "type": "event"
    },
    {
      "anonymous": false,
      "inputs": [
        {
          "indexed": false,
          "internalType": "uint32",
          "name": "oldValue",
          "type": "uint32"
        },
        {
          "indexed": false,
          "internalType": "uint32",
          "name": "newValue",
          "type": "uint32"
        }
      ],
      "name": "L2GasSet",
      "type": "event"
    },
    {
      "anonymous": false,
      "inputs": [
        {
          "indexed": false,
          "internalType": "uint256",
          "name": "amount",
          "type": "uint256"
        }
      ],
      "name": "L2MetisMinted",
      "type": "event"
    },
    {
      "anonymous": false,
      "inputs": [
        {
          "indexed": true,
          "internalType": "address",
          "name": "previousOwner",
          "type": "address"
        },
        {
          "indexed": true,
          "internalType": "address",
          "name": "newOwner",
          "type": "address"
        }
      ],
      "name": "OwnershipTransferred",
      "type": "event"
    },
    {
      "anonymous": false,
      "inputs": [
        {
          "indexed": true,
          "internalType": "uint256",
          "name": "sequencerId",
          "type": "uint256"
        },
        {
          "indexed": false,
          "internalType": "uint256",
          "name": "reward",
          "type": "uint256"
        }
      ],
      "name": "RewardsWithdrawn",
      "type": "event"
    },
    {
      "anonymous": false,
      "inputs": [
        {
          "indexed": false,
          "internalType": "uint32",
          "name": "index",
          "type": "uint32"
        },
        {
          "indexed": false,
          "internalType": "address",
          "name": "agent",
          "type": "address"
        }
      ],
      "name": "SequencerAgentAdded",
      "type": "event"
    },
    {
      "anonymous": false,
      "inputs": [
        {
          "indexed": true,
          "internalType": "address",
          "name": "oldValue",
          "type": "address"
        },
        {
          "indexed": true,
          "internalType": "address",
          "name": "newValue",
          "type": "address"
        }
      ],
      "name": "SequencerAgentTemplateSet",
      "type": "event"
    },
    {
      "anonymous": false,
      "inputs": [
        {
          "indexed": true,
          "internalType": "address",
          "name": "sequencerSigner",
          "type": "address"
        },
        {
          "indexed": false,
          "internalType": "uint256",
          "name": "amount",
          "type": "uint256"
        },
        {
          "indexed": false,
          "internalType": "bool",
          "name": "active",
          "type": "bool"
        }
      ],
      "name": "SequencerInitialBalanceLocked",
      "type": "event"
    },
    {
      "anonymous": false,
      "inputs": [
        {
          "indexed": false,
          "internalType": "uint32",
          "name": "index",
          "type": "uint32"
        },
        {
          "indexed": false,
          "internalType": "uint256",
          "name": "amount",
          "type": "uint256"
        },
        {
          "indexed": false,
          "internalType": "uint256",
          "name": "reward",
          "type": "uint256"
        }
      ],
      "name": "SequencerRelocked",
      "type": "event"
    },
    {
      "anonymous": false,
      "inputs": [
        {
          "indexed": true,
          "internalType": "address",
          "name": "sequencerSigner",
          "type": "address"
        }
      ],
      "name": "SequencerTerminated",
      "type": "event"
    },
    {
      "anonymous": false,
      "inputs": [
        {
          "indexed": true,
          "internalType": "address",
          "name": "recipient",
          "type": "address"
        },
        {
          "indexed": false,
          "internalType": "uint256",
          "name": "amount",
          "type": "uint256"
        }
      ],
      "name": "StakingAmountWithdrawn",
      "type": "event"
    },
    {
      "anonymous": false,
      "inputs": [
        {
          "indexed": false,
          "internalType": "bool",
          "name": "oldValue",
          "type": "bool"
        },
        {
          "indexed": false,
          "internalType": "bool",
          "name": "newValue",
          "type": "bool"
        }
      ],
      "name": "WithdrawRewardsSet",
      "type": "event"
    },
    {
      "inputs": [],
      "name": "active",
      "outputs": [
        {
          "internalType": "bool",
          "name": "",
          "type": "bool"
        }
      ],
      "stateMutability": "view",
      "type": "function"
    },
    {
      "inputs": [
        {
          "internalType": "uint256",
          "name": "",
          "type": "uint256"
        }
      ],
      "name": "activeSequencerIds",
      "outputs": [
        {
          "internalType": "uint32",
          "name": "",
          "type": "uint32"
        }
      ],
      "stateMutability": "view",
      "type": "function"
    },
    {
      "inputs": [
        {
          "internalType": "address",
          "name": "_metis",
          "type": "address"
        },
        {
          "internalType": "address",
          "name": "_lockingPool",
          "type": "address"
        },
        {
          "internalType": "address",
          "name": "_l1Bridge",
          "type": "address"
        },
        {
          "internalType": "uint256",
          "name": "_l2ChainId",
          "type": "uint256"
        },
        {
          "internalType": "uint32",
          "name": "_l2Gas",
          "type": "uint32"
        },
        {
          "internalType": "address",
          "name": "_l2Minter",
          "type": "address"
        },
        {
          "internalType": "address",
          "name": "_l2RewardDispatcher",
          "type": "address"
        }
      ],
      "name": "initialize",
      "outputs": [],
      "stateMutability": "nonpayable",
      "type": "function"
    },
    {
      "inputs": [],
      "name": "l2ChainId",
      "outputs": [
        {
          "internalType": "uint256",
          "name": "",
          "type": "uint256"
        }
      ],
      "stateMutability": "view",
      "type": "function"
    },
    {
      "inputs": [],
      "name": "l2Gas",
      "outputs": [
        {
          "internalType": "uint32",
          "name": "",
          "type": "uint32"
        }
      ],
      "stateMutability": "view",
      "type": "function"
    },
    {
      "inputs": [],
      "name": "l2Minter",
      "outputs": [
        {
          "internalType": "address",
          "name": "",
          "type": "address"
        }
      ],
      "stateMutability": "view",
      "type": "function"
    },
    {
      "inputs": [],
      "name": "l2RewardDispatcher",
      "outputs": [
        {
          "internalType": "address",
          "name": "",
          "type": "address"
        }
      ],
      "stateMutability": "view",
      "type": "function"
    },
    {
      "inputs": [
        {
          "internalType": "address",
          "name": "_sequencerSigner",
          "type": "address"
        },
        {
          "internalType": "uint256",
          "name": "_amount",
          "type": "uint256"
        },
        {
          "internalType": "bytes",
          "name": "_signerPubKey",
          "type": "bytes"
        }
      ],
      "name": "lockFor",
      "outputs": [],
      "stateMutability": "nonpayable",
      "type": "function"
    },
    {
      "inputs": [],
      "name": "lockingInfo",
      "outputs": [
        {
          "internalType": "contract ILockingInfo",
          "name": "",
          "type": "address"
        }
      ],
      "stateMutability": "view",
      "type": "function"
    },
    {
      "inputs": [],
      "name": "lockingPool",
      "outputs": [
        {
          "internalType": "contract ILockingPool",
          "name": "",
          "type": "address"
        }
      ],
      "stateMutability": "view",
      "type": "function"
    },
    {
      "inputs": [],
      "name": "messenger",
      "outputs": [
        {
          "internalType": "contract ICrossDomainMessenger",
          "name": "",
          "type": "address"
        }
      ],
      "stateMutability": "view",
      "type": "function"
    },
    {
      "inputs": [],
      "name": "metis",
      "outputs": [
        {
          "internalType": "contract IERC20",
          "name": "",
          "type": "address"
        }
      ],
      "stateMutability": "view",
      "type": "function"
    },
    {
      "inputs": [],
      "name": "owner",
      "outputs": [
        {
          "internalType": "address",
          "name": "",
          "type": "address"
        }
      ],
      "stateMutability": "view",
      "type": "function"
    },
    {
      "inputs": [],
      "name": "redemptionQueue",
      "outputs": [
        {
          "internalType": "address",
          "name": "",
          "type": "address"
        }
      ],
      "stateMutability": "view",
      "type": "function"
    },
    {
      "inputs": [],
      "name": "relock",
      "outputs": [
        {
          "internalType": "uint256",
          "name": "totalProcessed",
          "type": "uint256"
        }
      ],
      "stateMutability": "payable",
      "type": "function"
    },
    {
      "inputs": [],
      "name": "renounceOwnership",
      "outputs": [],
      "stateMutability": "nonpayable",
      "type": "function"
    },
    {
      "inputs": [],
      "name": "sequencerAgentCount",
      "outputs": [
        {
          "internalType": "uint32",
          "name": "",
          "type": "uint32"
        }
      ],
      "stateMutability": "view",
      "type": "function"
    },
    {
      "inputs": [],
      "name": "sequencerAgentTemplate",
      "outputs": [
        {
          "internalType": "address",
          "name": "",
          "type": "address"
        }
      ],
      "stateMutability": "view",
      "type": "function"
    },
    {
      "inputs": [
        {
          "internalType": "uint32",
          "name": "",
          "type": "uint32"
        }
      ],
      "name": "sequencerAgents",
      "outputs": [
        {
          "internalType": "address",
          "name": "",
          "type": "address"
        }
      ],
      "stateMutability": "view",
      "type": "function"
    },
    {
      "inputs": [],
      "name": "sequencerData",
      "outputs": [
        {
          "components": [
            {
              "internalType": "uint256",
              "name": "amount",
              "type": "uint256"
            },
            {
              "internalType": "uint256",
              "name": "reward",
              "type": "uint256"
            },
            {
              "internalType": "uint256",
              "name": "activationBatch",
              "type": "uint256"
            },
            {
              "internalType": "uint256",
              "name": "updatedBatch",
              "type": "uint256"
            },
            {
              "internalType": "uint256",
              "name": "deactivationBatch",
              "type": "uint256"
            },
            {
              "internalType": "uint256",
              "name": "deactivationTime",
              "type": "uint256"
            },
            {
              "internalType": "uint256",
              "name": "unlockClaimTime",
              "type": "uint256"
            },
            {
              "internalType": "uint256",
              "name": "nonce",
              "type": "uint256"
            },
            {
              "internalType": "address",
              "name": "owner",
              "type": "address"
            },
            {
              "internalType": "address",
              "name": "signer",
              "type": "address"
            }
          ],
          "internalType": "struct ILockingPool.SequencerData",
          "name": "",
          "type": "tuple"
        }
      ],
      "stateMutability": "view",
      "type": "function"
    },
    {
      "inputs": [],
      "name": "sequencerId",
      "outputs": [
        {
          "internalType": "uint256",
          "name": "",
          "type": "uint256"
        }
      ],
      "stateMutability": "view",
      "type": "function"
    },
    {
      "inputs": [],
      "name": "sequencerSigner",
      "outputs": [
        {
          "internalType": "address",
          "name": "",
          "type": "address"
        }
      ],
      "stateMutability": "view",
      "type": "function"
    },
    {
      "inputs": [
        {
          "internalType": "bool",
          "name": "_active",
          "type": "bool"
        }
      ],
      "name": "setActive",
      "outputs": [],
      "stateMutability": "nonpayable",
      "type": "function"
    },
    {
      "inputs": [
        {
          "internalType": "uint32",
          "name": "_l2Gas",
          "type": "uint32"
        }
      ],
      "name": "setL2Gas",
      "outputs": [],
      "stateMutability": "nonpayable",
      "type": "function"
    },
    {
      "inputs": [
        {
          "internalType": "address",
          "name": "_l2MinterAddress",
          "type": "address"
        }
      ],
      "name": "setL2Minter",
      "outputs": [],
      "stateMutability": "nonpayable",
      "type": "function"
    },
    {
      "inputs": [
        {
          "internalType": "address",
          "name": "_l2RewardDispatcher",
          "type": "address"
        }
      ],
      "name": "setL2RewardDispatcher",
      "outputs": [],
      "stateMutability": "nonpayable",
      "type": "function"
    },
    {
      "inputs": [
        {
          "internalType": "address",
          "name": "_redemptionQueue",
          "type": "address"
        }
      ],
      "name": "setRedemptionQueue",
      "outputs": [],
      "stateMutability": "nonpayable",
      "type": "function"
    },
    {
      "inputs": [],
      "name": "sumRewards",
      "outputs": [
        {
          "internalType": "uint256",
          "name": "",
          "type": "uint256"
        }
      ],
      "stateMutability": "view",
      "type": "function"
    },
    {
      "inputs": [],
      "name": "totalLocked",
      "outputs": [
        {
          "internalType": "uint256",
          "name": "",
          "type": "uint256"
        }
      ],
      "stateMutability": "view",
      "type": "function"
    },
    {
      "inputs": [
        {
          "internalType": "address",
          "name": "newOwner",
          "type": "address"
        }
      ],
      "name": "transferOwnership",
      "outputs": [],
      "stateMutability": "nonpayable",
      "type": "function"
    },
    {
      "inputs": [],
      "name": "unlock",
      "outputs": [],
      "stateMutability": "payable",
      "type": "function"
    },
    {
      "inputs": [],
      "name": "unlockClaim",
      "outputs": [],
      "stateMutability": "payable",
      "type": "function"
    },
    {
      "inputs": [],
      "name": "withdrawRewards",
      "outputs": [
        {
          "internalType": "bool",
          "name": "",
          "type": "bool"
        }
      ],
      "stateMutability": "view",
      "type": "function"
    },
    {
      "inputs": [
        {
          "internalType": "uint256",
          "name": "amount",
          "type": "uint256"
        }
      ],
      "name": "withdrawStakingAmount",
      "outputs": [],
      "stateMutability": "payable",
      "type": "function"
    }
  ],
  "bytecode": "0x608060405234801561001057600080fd5b5061364c806100206000396000f3fe6080604052600436106101f95760003560e01c80638db8ad881161010d578063c53b573d116100a0578063e92d61e51161006f578063e92d61e5146106a4578063f2fde38b146106cf578063f7cee36a146106f8578063f87b7a3e14610723578063feafaa6b1461074c576101f9565b8063c53b573d14610605578063c7b8981c14610623578063d6ae3cd51461064e578063e597455414610679576101f9565b8063acec338a116100dc578063acec338a1461055f578063af70cba514610588578063b699ce5f146105b1578063c3b550c8146105da576101f9565b80638db8ad88146104d457806397ec19be146104ff5780639e9357041461052a578063a69df4b514610555576101f9565b80633cbb697911610190578063715018a61161015f578063715018a61461041157806376d9f95c146104285780637ca4f8b01461045357806385d1e2b81461047e5780638da5cb5b146104a9576101f9565b80633cbb69791461035557806343c82cf714610380578063457cb586146103a957806356891412146103e6576101f9565b80631abdaf6a116101cc5780631abdaf6a1461029b57806333bec7e7146102d85780633b4c46d0146103015780633cb747bf1461032a576101f9565b80630182a6da146101fe57806302fb0c5e1461021a57806304a78fca14610245578063080e1e4e14610270575b600080fd5b610218600480360381019061021391906126a2565b610756565b005b34801561022657600080fd5b5061022f610bd3565b60405161023c91906126ea565b60405180910390f35b34801561025157600080fd5b5061025a610be6565b6040516102679190612714565b60405180910390f35b34801561027c57600080fd5b50610285610bec565b6040516102929190612770565b60405180910390f35b3480156102a757600080fd5b506102c260048036038101906102bd91906126a2565b610c12565b6040516102cf91906127aa565b60405180910390f35b3480156102e457600080fd5b506102ff60048036038101906102fa91906127f1565b610c4c565b005b34801561030d57600080fd5b506103286004803603810190610323919061284a565b610cc9565b005b34801561033657600080fd5b5061033f610d15565b60405161034c91906128d6565b60405180910390f35b34801561036157600080fd5b5061036a610d3b565b60405161037791906127aa565b60405180910390f35b34801561038c57600080fd5b506103a760048036038101906103a2919061284a565b610d51565b005b3480156103b557600080fd5b506103d060048036038101906103cb91906127f1565b610d9d565b6040516103dd9190612770565b60405180910390f35b3480156103f257600080fd5b506103fb610dd0565b6040516104089190612714565b60405180910390f35b34801561041d57600080fd5b50610426610de3565b005b34801561043457600080fd5b5061043d610df7565b60405161044a91906129db565b60405180910390f35b34801561045f57600080fd5b50610468610ea3565b6040516104759190612714565b60405180910390f35b34801561048a57600080fd5b50610493610ea9565b6040516104a09190612a18565b60405180910390f35b3480156104b557600080fd5b506104be610ecf565b6040516104cb9190612770565b60405180910390f35b3480156104e057600080fd5b506104e9610f07565b6040516104f69190612770565b60405180910390f35b34801561050b57600080fd5b50610514610f2b565b6040516105219190612770565b60405180910390f35b34801561053657600080fd5b5061053f610f51565b60405161054c91906127aa565b60405180910390f35b61055d610f67565b005b34801561056b57600080fd5b5061058660048036038101906105819190612a5f565b611095565b005b34801561059457600080fd5b506105af60048036038101906105aa9190612bd2565b6110ba565b005b3480156105bd57600080fd5b506105d860048036038101906105d39190612c41565b611544565b005b3480156105e657600080fd5b506105ef611ad9565b6040516105fc9190612770565b60405180910390f35b61060d611aff565b60405161061a9190612714565b60405180910390f35b34801561062f57600080fd5b50610638611f86565b60405161064591906126ea565b60405180910390f35b34801561065a57600080fd5b50610663611f99565b6040516106709190612714565b60405180910390f35b34801561068557600080fd5b5061068e611f9f565b60405161069b9190612d04565b60405180910390f35b3480156106b057600080fd5b506106b9611fc5565b6040516106c69190612770565b60405180910390f35b3480156106db57600080fd5b506106f660048036038101906106f1919061284a565b611feb565b005b34801561070457600080fd5b5061070d612071565b60405161071a9190612d40565b60405180910390f35b34801561072f57600080fd5b5061074a6004803603810190610745919061284a565b612097565b005b6107546120e3565b005b61075e612191565b600260009054906101000a900473ffffffffffffffffffffffffffffffffffffffff1673ffffffffffffffffffffffffffffffffffffffff1663441a3e70600d54836040518363ffffffff1660e01b81526004016107bd929190612d5b565b600060405180830381600087803b1580156107d757600080fd5b505af11580156107eb573d6000803e3d6000fd5b505050506000600360009054906101000a900473ffffffffffffffffffffffffffffffffffffffff1673ffffffffffffffffffffffffffffffffffffffff1663e78cea926040518163ffffffff1660e01b8152600401602060405180830381865afa15801561085e573d6000803e3d6000fd5b505050506040513d601f19601f820116820180604052508101906108829190612d99565b9050600360009054906101000a900473ffffffffffffffffffffffffffffffffffffffff1673ffffffffffffffffffffffffffffffffffffffff1663c01e1bd66040518163ffffffff1660e01b8152600401602060405180830381865afa1580156108f1573d6000803e3d6000fd5b505050506040513d601f19601f820116820180604052508101906109159190612d99565b73ffffffffffffffffffffffffffffffffffffffff1663095ea7b382846040518363ffffffff1660e01b815260040161094f929190612dc6565b6020604051808303816000875af115801561096e573d6000803e3d6000fd5b505050506040513d601f19601f820116820180604052508101906109929190612e04565b508073ffffffffffffffffffffffffffffffffffffffff1663ef808be234600554600360009054906101000a900473ffffffffffffffffffffffffffffffffffffffff1673ffffffffffffffffffffffffffffffffffffffff1663c01e1bd66040518163ffffffff1660e01b8152600401602060405180830381865afa158015610a20573d6000803e3d6000fd5b505050506040513d601f19601f82011682018060405250810190610a449190612d99565b600360009054906101000a900473ffffffffffffffffffffffffffffffffffffffff1673ffffffffffffffffffffffffffffffffffffffff166356eff2676040518163ffffffff1660e01b8152600401602060405180830381865afa158015610ab1573d6000803e3d6000fd5b505050506040513d601f19601f82011682018060405250810190610ad59190612d99565b600f60009054906101000a900473ffffffffffffffffffffffffffffffffffffffff1688600c60009054906101000a900463ffffffff166040518863ffffffff1660e01b8152600401610b2d96959493929190612e68565b6000604051808303818588803b158015610b4657600080fd5b505af1158015610b5a573d6000803e3d6000fd5b5050505050600f60009054906101000a900473ffffffffffffffffffffffffffffffffffffffff1673ffffffffffffffffffffffffffffffffffffffff167f6ef7a26d50cec3f1a210bed887413d426c9c13575a17872c54e00c4287ac5dce83604051610bc79190612714565b60405180910390a25050565b600e60149054906101000a900460ff1681565b600d5481565b600660009054906101000a900473ffffffffffffffffffffffffffffffffffffffff1681565b600a8181548110610c2257600080fd5b9060005260206000209060089182820401919006600402915054906101000a900463ffffffff1681565b610c54612191565b6000600c60009054906101000a900463ffffffff16905081600c60006101000a81548163ffffffff021916908363ffffffff1602179055507f4042b09a75e5a67c8cc2a57e00de6d29fb5202b7207afba895eb8b5cc3e2179e8183604051610cbd929190612edc565b60405180910390a15050565b610cd1612191565b80600f60006101000a81548173ffffffffffffffffffffffffffffffffffffffff021916908373ffffffffffffffffffffffffffffffffffffffff16021790555050565b600460009054906101000a900473ffffffffffffffffffffffffffffffffffffffff1681565b600c60009054906101000a900463ffffffff1681565b610d59612191565b80600760006101000a81548173ffffffffffffffffffffffffffffffffffffffff021916908373ffffffffffffffffffffffffffffffffffffffff16021790555050565b60086020528060005260406000206000915054906101000a900473ffffffffffffffffffffffffffffffffffffffff1681565b6000610dda610df7565b60000151905090565b610deb612191565b610df56000612218565b565b610dff6125d9565b600260009054906101000a900473ffffffffffffffffffffffffffffffffffffffff1673ffffffffffffffffffffffffffffffffffffffff16636ba7ccff600d546040518263ffffffff1660e01b8152600401610e5c9190612714565b61014060405180830381865afa158015610e7a573d6000803e3d6000fd5b505050506040513d601f19601f82011682018060405250810190610e9e9190613015565b905090565b600b5481565b600260009054906101000a900473ffffffffffffffffffffffffffffffffffffffff1681565b600080610eda6122ef565b90508060000160009054906101000a900473ffffffffffffffffffffffffffffffffffffffff1691505090565b60008054906101000a900473ffffffffffffffffffffffffffffffffffffffff1681565b600f60009054906101000a900473ffffffffffffffffffffffffffffffffffffffff1681565b600960009054906101000a900463ffffffff1681565b610f6f612191565b600260009054906101000a900473ffffffffffffffffffffffffffffffffffffffff1673ffffffffffffffffffffffffffffffffffffffff1663262c0e6634600d54600c60009054906101000a900463ffffffff166040518463ffffffff1660e01b8152600401610fe1929190613043565b6000604051808303818588803b158015610ffa57600080fd5b505af115801561100e573d6000803e3d6000fd5b50505050506000600e60146101000a81548160ff021916908315150217905550600e60009054906101000a900473ffffffffffffffffffffffffffffffffffffffff1673ffffffffffffffffffffffffffffffffffffffff167fbac99876b6a1c26412460d61d913235a30f0ea99585ffcfd53c0faae6ed3313460405160405180910390a2565b61109d612191565b80600e60146101000a81548160ff02191690831515021790555050565b6110c2612191565b6000600160009054906101000a900473ffffffffffffffffffffffffffffffffffffffff1673ffffffffffffffffffffffffffffffffffffffff166370a08231306040518263ffffffff1660e01b815260040161111f9190612770565b602060405180830381865afa15801561113c573d6000803e3d6000fd5b505050506040513d601f19601f82011682018060405250810190611160919061306c565b9050828110156111a5576040517f08c379a000000000000000000000000000000000000000000000000000000000815260040161119c9061311c565b60405180910390fd5b83600e60006101000a81548173ffffffffffffffffffffffffffffffffffffffff021916908373ffffffffffffffffffffffffffffffffffffffff160217905550600160009054906101000a900473ffffffffffffffffffffffffffffffffffffffff1673ffffffffffffffffffffffffffffffffffffffff1663095ea7b3600360009054906101000a900473ffffffffffffffffffffffffffffffffffffffff167fffffffffffffffffffffffffffffffffffffffffffffffffffffffffffffffff6040518363ffffffff1660e01b8152600401611285929190612dc6565b6020604051808303816000875af11580156112a4573d6000803e3d6000fd5b505050506040513d601f19601f820116820180604052508101906112c89190612e04565b611307576040517f08c379a00000000000000000000000000000000000000000000000000000000081526004016112fe906131ae565b60405180910390fd5b600260009054906101000a900473ffffffffffffffffffffffffffffffffffffffff1673ffffffffffffffffffffffffffffffffffffffff16639ad42030600e60009054906101000a900473ffffffffffffffffffffffffffffffffffffffff16600660009054906101000a900473ffffffffffffffffffffffffffffffffffffffff1686866040518563ffffffff1660e01b81526004016113ac949392919061323c565b600060405180830381600087803b1580156113c657600080fd5b505af11580156113da573d6000803e3d6000fd5b50505050600260009054906101000a900473ffffffffffffffffffffffffffffffffffffffff1673ffffffffffffffffffffffffffffffffffffffff1663beb26755600e60009054906101000a900473ffffffffffffffffffffffffffffffffffffffff166040518263ffffffff1660e01b815260040161145b9190612770565b602060405180830381865afa158015611478573d6000803e3d6000fd5b505050506040513d601f19601f8201168201806040525081019061149c919061306c565b600d819055506001600e60146101000a81548160ff021916908315150217905550600e60009054906101000a900473ffffffffffffffffffffffffffffffffffffffff1673ffffffffffffffffffffffffffffffffffffffff167fb1e87a33084279cb2bff2d1271034cf695f539ee73bbd934d1625703d585d84a84600e60149054906101000a900460ff16604051611536929190613288565b60405180910390a250505050565b600061154e612317565b905060008160000160089054906101000a900460ff1615905060008260000160009054906101000a900467ffffffffffffffff1690506000808267ffffffffffffffff1614801561159c5750825b9050600060018367ffffffffffffffff161480156115d1575060003073ffffffffffffffffffffffffffffffffffffffff163b145b9050811580156115df575080155b15611616576040517ff92ee8a900000000000000000000000000000000000000000000000000000000815260040160405180910390fd5b60018560000160006101000a81548167ffffffffffffffff021916908367ffffffffffffffff16021790555083156116665760018560000160086101000a81548160ff0219169083151502179055505b600073ffffffffffffffffffffffffffffffffffffffff168c73ffffffffffffffffffffffffffffffffffffffff16141580156116d05750600073ffffffffffffffffffffffffffffffffffffffff168b73ffffffffffffffffffffffffffffffffffffffff1614155b80156117095750600073ffffffffffffffffffffffffffffffffffffffff168a73ffffffffffffffffffffffffffffffffffffffff1614155b80156117425750600073ffffffffffffffffffffffffffffffffffffffff168773ffffffffffffffffffffffffffffffffffffffff1614155b801561177b5750600073ffffffffffffffffffffffffffffffffffffffff168673ffffffffffffffffffffffffffffffffffffffff1614155b6117ba576040517f08c379a00000000000000000000000000000000000000000000000000000000081526004016117b1906132fd565b60405180910390fd5b6117c33361233f565b8b600160006101000a81548173ffffffffffffffffffffffffffffffffffffffff021916908373ffffffffffffffffffffffffffffffffffffffff1602179055508a600260006101000a81548173ffffffffffffffffffffffffffffffffffffffff021916908373ffffffffffffffffffffffffffffffffffffffff160217905550600260009054906101000a900473ffffffffffffffffffffffffffffffffffffffff1673ffffffffffffffffffffffffffffffffffffffff1663e2fdcc176040518163ffffffff1660e01b8152600401602060405180830381865afa1580156118b2573d6000803e3d6000fd5b505050506040513d601f19601f820116820180604052508101906118d6919061335b565b600360006101000a81548173ffffffffffffffffffffffffffffffffffffffff021916908373ffffffffffffffffffffffffffffffffffffffff1602179055508973ffffffffffffffffffffffffffffffffffffffff16633cb747bf6040518163ffffffff1660e01b8152600401602060405180830381865afa158015611961573d6000803e3d6000fd5b505050506040513d601f19601f820116820180604052508101906119859190612d99565b600460006101000a81548173ffffffffffffffffffffffffffffffffffffffff021916908373ffffffffffffffffffffffffffffffffffffffff1602179055508860058190555087600c60006101000a81548163ffffffff021916908363ffffffff16021790555086600660006101000a81548173ffffffffffffffffffffffffffffffffffffffff021916908373ffffffffffffffffffffffffffffffffffffffff16021790555085600760006101000a81548173ffffffffffffffffffffffffffffffffffffffff021916908373ffffffffffffffffffffffffffffffffffffffff1602179055508315611acb5760008560000160086101000a81548160ff0219169083151502179055507fc7f505b2f371ae2175ee4913f4499e1f2633a7b5936321eed1cdaeb6115181d26001604051611ac291906133d7565b60405180910390a15b505050505050505050505050565b600e60009054906101000a900473ffffffffffffffffffffffffffffffffffffffff1681565b6000600e60149054906101000a900460ff16611b50576040517f08c379a0000000000000000000000000000000000000000000000000000000008152600401611b479061343e565b60405180910390fd5b6000600360009054906101000a900473ffffffffffffffffffffffffffffffffffffffff1673ffffffffffffffffffffffffffffffffffffffff16636c0b3e466040518163ffffffff1660e01b8152600401602060405180830381865afa158015611bbf573d6000803e3d6000fd5b505050506040513d601f19601f82011682018060405250810190611be3919061306c565b90506000600160009054906101000a900473ffffffffffffffffffffffffffffffffffffffff1673ffffffffffffffffffffffffffffffffffffffff166370a08231306040518263ffffffff1660e01b8152600401611c429190612770565b602060405180830381865afa158015611c5f573d6000803e3d6000fd5b505050506040513d601f19601f82011682018060405250810190611c83919061306c565b90506000805b60018163ffffffff161015611f1b576000611ca2610df7565b905060008082602001518360000151915091508185611cc1919061348d565b94506000878210611cd3576000611ce0565b8188611cdf91906134c1565b5b90506000611cee8289612353565b90508088611cfc91906134c1565b975060008482611d0c919061348d565b9050808b611d1a919061348d565b9a5060008a8286611d2b919061348d565b119050808015611d3b5750600086115b15611e1e57600260009054906101000a900473ffffffffffffffffffffffffffffffffffffffff1673ffffffffffffffffffffffffffffffffffffffff166317396687600d54600c60009054906101000a900463ffffffff166040518363ffffffff1660e01b8152600401611db1929190613043565b600060405180830381600087803b158015611dcb57600080fd5b505af1158015611ddf573d6000803e3d6000fd5b50505050600d547f630af8b49bb398089a74eacdb08106c528436090bdb35d7302152dc5117df9bd87604051611e159190612714565b60405180910390a25b801580611e2b5750600083115b15611f0157600260009054906101000a900473ffffffffffffffffffffffffffffffffffffffff1673ffffffffffffffffffffffffffffffffffffffff1663015bb180600d548560016040518463ffffffff1660e01b8152600401611e92939291906134f5565b600060405180830381600087803b158015611eac57600080fd5b505af1158015611ec0573d6000803e3d6000fd5b505050507fb8aafdec9bacdc76bfea3c330063c391a2904d4f91e71f97a91534f3c8ce4ab560008488604051611ef893929190613567565b60405180910390a15b505050505050508080611f139061359e565b915050611c89565b506000811115611f4857611f2e8161236c565b80600b6000828254611f40919061348d565b925050819055505b7f1e2aed425906c5ed1ac5aff65e04a30adda54675483414997c879ca7f92a2a576001604051611f7891906126ea565b60405180910390a150505090565b600c60049054906101000a900460ff1681565b60055481565b600160009054906101000a900473ffffffffffffffffffffffffffffffffffffffff1681565b600760009054906101000a900473ffffffffffffffffffffffffffffffffffffffff1681565b611ff3612191565b600073ffffffffffffffffffffffffffffffffffffffff168173ffffffffffffffffffffffffffffffffffffffff16036120655760006040517f1e4fbdf700000000000000000000000000000000000000000000000000000000815260040161205c9190612770565b60405180910390fd5b61206e81612218565b50565b600360009054906101000a900473ffffffffffffffffffffffffffffffffffffffff1681565b61209f612191565b80600660006101000a81548173ffffffffffffffffffffffffffffffffffffffff021916908373ffffffffffffffffffffffffffffffffffffffff16021790555050565b6120eb612191565b600260009054906101000a900473ffffffffffffffffffffffffffffffffffffffff1673ffffffffffffffffffffffffffffffffffffffff16638ddc74de34600d54600c60009054906101000a900463ffffffff166040518463ffffffff1660e01b815260040161215d929190613043565b6000604051808303818588803b15801561217657600080fd5b505af115801561218a573d6000803e3d6000fd5b5050505050565b6121996124eb565b73ffffffffffffffffffffffffffffffffffffffff166121b7610ecf565b73ffffffffffffffffffffffffffffffffffffffff1614612216576121da6124eb565b6040517f118cdaa700000000000000000000000000000000000000000000000000000000815260040161220d9190612770565b60405180910390fd5b565b60006122226122ef565b905060008160000160009054906101000a900473ffffffffffffffffffffffffffffffffffffffff169050828260000160006101000a81548173ffffffffffffffffffffffffffffffffffffffff021916908373ffffffffffffffffffffffffffffffffffffffff1602179055508273ffffffffffffffffffffffffffffffffffffffff168173ffffffffffffffffffffffffffffffffffffffff167f8be0079c531659141344cd1fd0a4f28419497f9722a3daafe3b4186f6b6457e060405160405180910390a3505050565b60007f9016d09d72d40fdae2fd8ceac6b6234c7706214fd39c1cd1e609a0528c199300905090565b60007ff0c57e16840df040f15088dc2f81fe391c3923bec73e23a9662efc9c229c6a00905090565b6123476124f3565b61235081612533565b50565b60008183106123625781612364565b825b905092915050565b600063eb82afb360e01b826040516024016123879190612714565b604051602081830303815290604052907bffffffffffffffffffffffffffffffffffffffffffffffffffffffff19166020820180517bffffffffffffffffffffffffffffffffffffffffffffffffffffffff83818316178352505050509050600460009054906101000a900473ffffffffffffffffffffffffffffffffffffffff1673ffffffffffffffffffffffffffffffffffffffff166344dd5ed634600554600660009054906101000a900473ffffffffffffffffffffffffffffffffffffffff1685600c60009054906101000a900463ffffffff166040518663ffffffff1660e01b815260040161247e94939291906135ca565b6000604051808303818588803b15801561249757600080fd5b505af11580156124ab573d6000803e3d6000fd5b50505050507fd644e527c1896057ce642adfbc00f04d6b23d4c2fb30529522184d151dc087dc826040516124df9190612714565b60405180910390a15050565b600033905090565b6124fb6125b9565b612531576040517fd7e6bcf800000000000000000000000000000000000000000000000000000000815260040160405180910390fd5b565b61253b6124f3565b600073ffffffffffffffffffffffffffffffffffffffff168173ffffffffffffffffffffffffffffffffffffffff16036125ad5760006040517f1e4fbdf70000000000000000000000000000000000000000000000000000000081526004016125a49190612770565b60405180910390fd5b6125b681612218565b50565b60006125c3612317565b60000160089054906101000a900460ff16905090565b6040518061014001604052806000815260200160008152602001600081526020016000815260200160008152602001600081526020016000815260200160008152602001600073ffffffffffffffffffffffffffffffffffffffff168152602001600073ffffffffffffffffffffffffffffffffffffffff1681525090565b6000604051905090565b600080fd5b600080fd5b6000819050919050565b61267f8161266c565b811461268a57600080fd5b50565b60008135905061269c81612676565b92915050565b6000602082840312156126b8576126b7612662565b5b60006126c68482850161268d565b91505092915050565b60008115159050919050565b6126e4816126cf565b82525050565b60006020820190506126ff60008301846126db565b92915050565b61270e8161266c565b82525050565b60006020820190506127296000830184612705565b92915050565b600073ffffffffffffffffffffffffffffffffffffffff82169050919050565b600061275a8261272f565b9050919050565b61276a8161274f565b82525050565b60006020820190506127856000830184612761565b92915050565b600063ffffffff82169050919050565b6127a48161278b565b82525050565b60006020820190506127bf600083018461279b565b92915050565b6127ce8161278b565b81146127d957600080fd5b50565b6000813590506127eb816127c5565b92915050565b60006020828403121561280757612806612662565b5b6000612815848285016127dc565b91505092915050565b6128278161274f565b811461283257600080fd5b50565b6000813590506128448161281e565b92915050565b6000602082840312156128605761285f612662565b5b600061286e84828501612835565b91505092915050565b6000819050919050565b600061289c6128976128928461272f565b612877565b61272f565b9050919050565b60006128ae82612881565b9050919050565b60006128c0826128a3565b9050919050565b6128d0816128b5565b82525050565b60006020820190506128eb60008301846128c7565b92915050565b6128fa8161266c565b82525050565b6129098161274f565b82525050565b6101408201600082015161292660008501826128f1565b50602082015161293960208501826128f1565b50604082015161294c60408501826128f1565b50606082015161295f60608501826128f1565b50608082015161297260808501826128f1565b5060a082015161298560a08501826128f1565b5060c082015161299860c08501826128f1565b5060e08201516129ab60e08501826128f1565b506101008201516129c0610100850182612900565b506101208201516129d5610120850182612900565b50505050565b6000610140820190506129f1600083018461290f565b92915050565b6000612a02826128a3565b9050919050565b612a12816129f7565b82525050565b6000602082019050612a2d6000830184612a09565b92915050565b612a3c816126cf565b8114612a4757600080fd5b50565b600081359050612a5981612a33565b92915050565b600060208284031215612a7557612a74612662565b5b6000612a8384828501612a4a565b91505092915050565b600080fd5b600080fd5b6000601f19601f8301169050919050565b7f4e487b7100000000000000000000000000000000000000000000000000000000600052604160045260246000fd5b612adf82612a96565b810181811067ffffffffffffffff82111715612afe57612afd612aa7565b5b80604052505050565b6000612b11612658565b9050612b1d8282612ad6565b919050565b600067ffffffffffffffff821115612b3d57612b3c612aa7565b5b612b4682612a96565b9050602081019050919050565b82818337600083830152505050565b6000612b75612b7084612b22565b612b07565b905082815260208101848484011115612b9157612b90612a91565b5b612b9c848285612b53565b509392505050565b600082601f830112612bb957612bb8612a8c565b5b8135612bc9848260208601612b62565b91505092915050565b600080600060608486031215612beb57612bea612662565b5b6000612bf986828701612835565b9350506020612c0a8682870161268d565b925050604084013567ffffffffffffffff811115612c2b57612c2a612667565b5b612c3786828701612ba4565b9150509250925092565b600080600080600080600060e0888a031215612c6057612c5f612662565b5b6000612c6e8a828b01612835565b9750506020612c7f8a828b01612835565b9650506040612c908a828b01612835565b9550506060612ca18a828b0161268d565b9450506080612cb28a828b016127dc565b93505060a0612cc38a828b01612835565b92505060c0612cd48a828b01612835565b91505092959891949750929550565b6000612cee826128a3565b9050919050565b612cfe81612ce3565b82525050565b6000602082019050612d196000830184612cf5565b92915050565b6000612d2a826128a3565b9050919050565b612d3a81612d1f565b82525050565b6000602082019050612d556000830184612d31565b92915050565b6000604082019050612d706000830185612705565b612d7d6020830184612705565b9392505050565b600081519050612d938161281e565b92915050565b600060208284031215612daf57612dae612662565b5b6000612dbd84828501612d84565b91505092915050565b6000604082019050612ddb6000830185612761565b612de86020830184612705565b9392505050565b600081519050612dfe81612a33565b92915050565b600060208284031215612e1a57612e19612662565b5b6000612e2884828501612def565b91505092915050565b600082825260208201905092915050565b50565b6000612e52600083612e31565b9150612e5d82612e42565b600082019050919050565b600060e082019050612e7d6000830189612705565b612e8a6020830188612761565b612e976040830187612761565b612ea46060830186612761565b612eb16080830185612705565b612ebe60a083018461279b565b81810360c0830152612ecf81612e45565b9050979650505050505050565b6000604082019050612ef1600083018561279b565b612efe602083018461279b565b9392505050565b600080fd5b600081519050612f1981612676565b92915050565b60006101408284031215612f3657612f35612f05565b5b612f41610140612b07565b90506000612f5184828501612f0a565b6000830152506020612f6584828501612f0a565b6020830152506040612f7984828501612f0a565b6040830152506060612f8d84828501612f0a565b6060830152506080612fa184828501612f0a565b60808301525060a0612fb584828501612f0a565b60a08301525060c0612fc984828501612f0a565b60c08301525060e0612fdd84828501612f0a565b60e083015250610100612ff284828501612d84565b6101008301525061012061300884828501612d84565b6101208301525092915050565b6000610140828403121561302c5761302b612662565b5b600061303a84828501612f1f565b91505092915050565b60006040820190506130586000830185612705565b613065602083018461279b565b9392505050565b60006020828403121561308257613081612662565b5b600061309084828501612f0a565b91505092915050565b600082825260208201905092915050565b7f4465616c65723a20496e73756666696369656e74204d657469732062616c616e60008201527f6365000000000000000000000000000000000000000000000000000000000000602082015250565b6000613106602283613099565b9150613111826130aa565b604082019050919050565b60006020820190508181036000830152613135816130f9565b9050919050565b7f4465616c65723a20417070726f76616c20746f204c6f636b696e67496e666f2060008201527f6661696c65640000000000000000000000000000000000000000000000000000602082015250565b6000613198602683613099565b91506131a38261313c565b604082019050919050565b600060208201905081810360008301526131c78161318b565b9050919050565b600081519050919050565b60005b838110156131f75780820151818401526020810190506131dc565b60008484015250505050565b600061320e826131ce565b6132188185612e31565b93506132288185602086016131d9565b61323181612a96565b840191505092915050565b60006080820190506132516000830187612761565b61325e6020830186612761565b61326b6040830185612705565b818103606083015261327d8184613203565b905095945050505050565b600060408201905061329d6000830185612705565b6132aa60208301846126db565b9392505050565b7f4465616c65723a207a65726f2061646472657373000000000000000000000000600082015250565b60006132e7601483613099565b91506132f2826132b1565b602082019050919050565b60006020820190508181036000830152613316816132da565b9050919050565b60006133288261274f565b9050919050565b6133388161331d565b811461334357600080fd5b50565b6000815190506133558161332f565b92915050565b60006020828403121561337157613370612662565b5b600061337f84828501613346565b91505092915050565b6000819050919050565b600067ffffffffffffffff82169050919050565b60006133c16133bc6133b784613388565b612877565b613392565b9050919050565b6133d1816133a6565b82525050565b60006020820190506133ec60008301846133c8565b92915050565b7f4465616c65723a206e6f206163746976652073657175656e6365720000000000600082015250565b6000613428601b83613099565b9150613433826133f2565b602082019050919050565b600060208201905081810360008301526134578161341b565b9050919050565b7f4e487b7100000000000000000000000000000000000000000000000000000000600052601160045260246000fd5b60006134988261266c565b91506134a38361266c565b92508282019050808211156134bb576134ba61345e565b5b92915050565b60006134cc8261266c565b91506134d78361266c565b92508282039050818111156134ef576134ee61345e565b5b92915050565b600060608201905061350a6000830186612705565b6135176020830185612705565b61352460408301846126db565b949350505050565b6000819050919050565b600061355161354c6135478461352c565b612877565b61278b565b9050919050565b61356181613536565b82525050565b600060608201905061357c6000830186613558565b6135896020830185612705565b6135966040830184612705565b949350505050565b60006135a98261278b565b915063ffffffff82036135bf576135be61345e565b5b600182019050919050565b60006080820190506135df6000830187612705565b6135ec6020830186612761565b81810360408301526135fe8185613203565b905061360d606083018461279b565b9594505050505056fea2646970667358221220fa857a6eaba9c26f34966522053515569511821e051017fbbb230d6cb14f17d164736f6c63430008140033",
  "linkReferences": {},
  "deployedLinkReferences": {}
}