{
  "_format": "hh-sol-artifact-1",
  "contractName": "Dealer",
  "sourceName": "contracts/Dealer.sol",
  "abi": [
    {
      "inputs": [],
      "name": "InvalidInitialization",
      "type": "error"
    },
    {
      "inputs": [],
      "name": "NotInitializing",
      "type": "error"
    },
    {
      "inputs": [
        {
          "internalType": "address",
          "name": "owner",
          "type": "address"
        }
      ],
      "name": "OwnableInvalidOwner",
      "type": "error"
    },
    {
      "inputs": [
        {
          "internalType": "address",
          "name": "account",
          "type": "address"
        }
      ],
      "name": "OwnableUnauthorizedAccount",
      "type": "error"
    },
    {
      "anonymous": false,
      "inputs": [
        {
          "indexed": false,
          "internalType": "uint64",
          "name": "version",
          "type": "uint64"
        }
      ],
      "name": "Initialized",
      "type": "event"
    },
    {
      "anonymous": false,
      "inputs": [
        {
          "indexed": false,
          "internalType": "bool",
          "name": "isRelocked",
          "type": "bool"
        }
      ],
      "name": "IsSequencerRelocked",
      "type": "event"
    },
    {
      "anonymous": false,
      "inputs": [
        {
          "indexed": false,
          "internalType": "uint32",
          "name": "oldValue",
          "type": "uint32"
        },
        {
          "indexed": false,
          "internalType": "uint32",
          "name": "newValue",
          "type": "uint32"
        }
      ],
      "name": "L2GasSet",
      "type": "event"
    },
    {
      "anonymous": false,
      "inputs": [
        {
          "indexed": false,
          "internalType": "uint256",
          "name": "amount",
          "type": "uint256"
        }
      ],
      "name": "L2MetisMinted",
      "type": "event"
    },
    {
      "anonymous": false,
      "inputs": [
        {
          "indexed": true,
          "internalType": "address",
          "name": "previousOwner",
          "type": "address"
        },
        {
          "indexed": true,
          "internalType": "address",
          "name": "newOwner",
          "type": "address"
        }
      ],
      "name": "OwnershipTransferred",
      "type": "event"
    },
    {
      "anonymous": false,
      "inputs": [
        {
          "indexed": true,
          "internalType": "uint256",
          "name": "sequencerId",
          "type": "uint256"
        },
        {
          "indexed": false,
          "internalType": "uint256",
          "name": "reward",
          "type": "uint256"
        }
      ],
      "name": "RewardsWithdrawn",
      "type": "event"
    },
    {
      "anonymous": false,
      "inputs": [
        {
          "indexed": false,
          "internalType": "uint32",
          "name": "index",
          "type": "uint32"
        },
        {
          "indexed": false,
          "internalType": "address",
          "name": "agent",
          "type": "address"
        }
      ],
      "name": "SequencerAgentAdded",
      "type": "event"
    },
    {
      "anonymous": false,
      "inputs": [
        {
          "indexed": true,
          "internalType": "address",
          "name": "oldValue",
          "type": "address"
        },
        {
          "indexed": true,
          "internalType": "address",
          "name": "newValue",
          "type": "address"
        }
      ],
      "name": "SequencerAgentTemplateSet",
      "type": "event"
    },
    {
      "anonymous": false,
      "inputs": [
        {
          "indexed": true,
          "internalType": "address",
          "name": "sequencerSigner",
          "type": "address"
        },
        {
          "indexed": false,
          "internalType": "uint256",
          "name": "amount",
          "type": "uint256"
        },
        {
          "indexed": false,
          "internalType": "bool",
          "name": "active",
          "type": "bool"
        }
      ],
      "name": "SequencerInitialBalanceLocked",
      "type": "event"
    },
    {
      "anonymous": false,
      "inputs": [
        {
          "indexed": false,
          "internalType": "uint32",
          "name": "index",
          "type": "uint32"
        },
        {
          "indexed": false,
          "internalType": "uint256",
          "name": "amount",
          "type": "uint256"
        },
        {
          "indexed": false,
          "internalType": "uint256",
          "name": "reward",
          "type": "uint256"
        }
      ],
      "name": "SequencerRelocked",
      "type": "event"
    },
    {
      "anonymous": false,
      "inputs": [
        {
          "indexed": true,
          "internalType": "address",
          "name": "sequencerSigner",
          "type": "address"
        }
      ],
      "name": "SequencerTerminated",
      "type": "event"
    },
    {
      "anonymous": false,
      "inputs": [
        {
          "indexed": true,
          "internalType": "address",
          "name": "recipient",
          "type": "address"
        },
        {
          "indexed": false,
          "internalType": "uint256",
          "name": "amount",
          "type": "uint256"
        }
      ],
      "name": "StakingAmountWithdrawn",
      "type": "event"
    },
    {
      "anonymous": false,
      "inputs": [
        {
          "indexed": false,
          "internalType": "bool",
          "name": "oldValue",
          "type": "bool"
        },
        {
          "indexed": false,
          "internalType": "bool",
          "name": "newValue",
          "type": "bool"
        }
      ],
      "name": "WithdrawRewardsSet",
      "type": "event"
    },
    {
      "inputs": [],
      "name": "active",
      "outputs": [
        {
          "internalType": "bool",
          "name": "",
          "type": "bool"
        }
      ],
      "stateMutability": "view",
      "type": "function"
    },
    {
      "inputs": [
        {
          "internalType": "uint256",
          "name": "",
          "type": "uint256"
        }
      ],
      "name": "activeSequencerIds",
      "outputs": [
        {
          "internalType": "uint32",
          "name": "",
          "type": "uint32"
        }
      ],
      "stateMutability": "view",
      "type": "function"
    },
    {
      "inputs": [
        {
          "internalType": "address",
          "name": "_metis",
          "type": "address"
        },
        {
          "internalType": "address",
          "name": "_lockingPool",
          "type": "address"
        },
        {
          "internalType": "address",
          "name": "_l1Bridge",
          "type": "address"
        },
        {
          "internalType": "uint256",
          "name": "_l2ChainId",
          "type": "uint256"
        },
        {
          "internalType": "uint32",
          "name": "_l2Gas",
          "type": "uint32"
        },
        {
          "internalType": "address",
          "name": "_l2Minter",
          "type": "address"
        },
        {
          "internalType": "address",
          "name": "_l2RewardDispatcher",
          "type": "address"
        }
      ],
      "name": "initialize",
      "outputs": [],
      "stateMutability": "nonpayable",
      "type": "function"
    },
    {
      "inputs": [],
      "name": "l2ChainId",
      "outputs": [
        {
          "internalType": "uint256",
          "name": "",
          "type": "uint256"
        }
      ],
      "stateMutability": "view",
      "type": "function"
    },
    {
      "inputs": [],
      "name": "l2Gas",
      "outputs": [
        {
          "internalType": "uint32",
          "name": "",
          "type": "uint32"
        }
      ],
      "stateMutability": "view",
      "type": "function"
    },
    {
      "inputs": [],
      "name": "l2Minter",
      "outputs": [
        {
          "internalType": "address",
          "name": "",
          "type": "address"
        }
      ],
      "stateMutability": "view",
      "type": "function"
    },
    {
      "inputs": [],
      "name": "l2RewardDispatcher",
      "outputs": [
        {
          "internalType": "address",
          "name": "",
          "type": "address"
        }
      ],
      "stateMutability": "view",
      "type": "function"
    },
    {
      "inputs": [
        {
          "internalType": "address",
          "name": "_sequencerSigner",
          "type": "address"
        },
        {
          "internalType": "uint256",
          "name": "_amount",
          "type": "uint256"
        },
        {
          "internalType": "bytes",
          "name": "_signerPubKey",
          "type": "bytes"
        }
      ],
      "name": "lockFor",
      "outputs": [],
      "stateMutability": "nonpayable",
      "type": "function"
    },
    {
      "inputs": [],
      "name": "lockingInfo",
      "outputs": [
        {
          "internalType": "contract ILockingInfo",
          "name": "",
          "type": "address"
        }
      ],
      "stateMutability": "view",
      "type": "function"
    },
    {
      "inputs": [],
      "name": "lockingPool",
      "outputs": [
        {
          "internalType": "contract ILockingPool",
          "name": "",
          "type": "address"
        }
      ],
      "stateMutability": "view",
      "type": "function"
    },
    {
      "inputs": [],
      "name": "messenger",
      "outputs": [
        {
          "internalType": "contract ICrossDomainMessenger",
          "name": "",
          "type": "address"
        }
      ],
      "stateMutability": "view",
      "type": "function"
    },
    {
      "inputs": [],
      "name": "metis",
      "outputs": [
        {
          "internalType": "contract IERC20",
          "name": "",
          "type": "address"
        }
      ],
      "stateMutability": "view",
      "type": "function"
    },
    {
      "inputs": [],
      "name": "owner",
      "outputs": [
        {
          "internalType": "address",
          "name": "",
          "type": "address"
        }
      ],
      "stateMutability": "view",
      "type": "function"
    },
    {
      "inputs": [],
      "name": "redemptionQueue",
      "outputs": [
        {
          "internalType": "address",
          "name": "",
          "type": "address"
        }
      ],
      "stateMutability": "view",
      "type": "function"
    },
    {
      "inputs": [],
      "name": "relock",
      "outputs": [
        {
          "internalType": "uint256",
          "name": "totalProcessed",
          "type": "uint256"
        }
      ],
      "stateMutability": "payable",
      "type": "function"
    },
    {
      "inputs": [],
      "name": "renounceOwnership",
      "outputs": [],
      "stateMutability": "nonpayable",
      "type": "function"
    },
    {
      "inputs": [],
      "name": "sequencerAgentCount",
      "outputs": [
        {
          "internalType": "uint32",
          "name": "",
          "type": "uint32"
        }
      ],
      "stateMutability": "view",
      "type": "function"
    },
    {
      "inputs": [],
      "name": "sequencerAgentTemplate",
      "outputs": [
        {
          "internalType": "address",
          "name": "",
          "type": "address"
        }
      ],
      "stateMutability": "view",
      "type": "function"
    },
    {
      "inputs": [
        {
          "internalType": "uint32",
          "name": "",
          "type": "uint32"
        }
      ],
      "name": "sequencerAgents",
      "outputs": [
        {
          "internalType": "address",
          "name": "",
          "type": "address"
        }
      ],
      "stateMutability": "view",
      "type": "function"
    },
    {
      "inputs": [],
      "name": "sequencerData",
      "outputs": [
        {
          "components": [
            {
              "internalType": "uint256",
              "name": "amount",
              "type": "uint256"
            },
            {
              "internalType": "uint256",
              "name": "reward",
              "type": "uint256"
            },
            {
              "internalType": "uint256",
              "name": "activationBatch",
              "type": "uint256"
            },
            {
              "internalType": "uint256",
              "name": "updatedBatch",
              "type": "uint256"
            },
            {
              "internalType": "uint256",
              "name": "deactivationBatch",
              "type": "uint256"
            },
            {
              "internalType": "uint256",
              "name": "deactivationTime",
              "type": "uint256"
            },
            {
              "internalType": "uint256",
              "name": "unlockClaimTime",
              "type": "uint256"
            },
            {
              "internalType": "uint256",
              "name": "nonce",
              "type": "uint256"
            },
            {
              "internalType": "address",
              "name": "owner",
              "type": "address"
            },
            {
              "internalType": "address",
              "name": "signer",
              "type": "address"
            }
          ],
          "internalType": "struct ILockingPool.SequencerData",
          "name": "",
          "type": "tuple"
        }
      ],
      "stateMutability": "view",
      "type": "function"
    },
    {
      "inputs": [],
      "name": "sequencerId",
      "outputs": [
        {
          "internalType": "uint256",
          "name": "",
          "type": "uint256"
        }
      ],
      "stateMutability": "view",
      "type": "function"
    },
    {
      "inputs": [],
      "name": "sequencerSigner",
      "outputs": [
        {
          "internalType": "address",
          "name": "",
          "type": "address"
        }
      ],
      "stateMutability": "view",
      "type": "function"
    },
    {
      "inputs": [
        {
          "internalType": "bool",
          "name": "_active",
          "type": "bool"
        }
      ],
      "name": "setActive",
      "outputs": [],
      "stateMutability": "nonpayable",
      "type": "function"
    },
    {
      "inputs": [
        {
          "internalType": "uint32",
          "name": "_l2Gas",
          "type": "uint32"
        }
      ],
      "name": "setL2Gas",
      "outputs": [],
      "stateMutability": "nonpayable",
      "type": "function"
    },
    {
      "inputs": [
        {
          "internalType": "address",
          "name": "_l2MinterAddress",
          "type": "address"
        }
      ],
      "name": "setL2Minter",
      "outputs": [],
      "stateMutability": "nonpayable",
      "type": "function"
    },
    {
      "inputs": [
        {
          "internalType": "address",
          "name": "_l2RewardDispatcher",
          "type": "address"
        }
      ],
      "name": "setL2RewardDispatcher",
      "outputs": [],
      "stateMutability": "nonpayable",
      "type": "function"
    },
    {
      "inputs": [
        {
          "internalType": "address",
          "name": "_redemptionQueue",
          "type": "address"
        }
      ],
      "name": "setRedemptionQueue",
      "outputs": [],
      "stateMutability": "nonpayable",
      "type": "function"
    },
    {
      "inputs": [],
      "name": "sumRewards",
      "outputs": [
        {
          "internalType": "uint256",
          "name": "",
          "type": "uint256"
        }
      ],
      "stateMutability": "view",
      "type": "function"
    },
    {
      "inputs": [],
      "name": "totalLocked",
      "outputs": [
        {
          "internalType": "uint256",
          "name": "",
          "type": "uint256"
        }
      ],
      "stateMutability": "view",
      "type": "function"
    },
    {
      "inputs": [
        {
          "internalType": "address",
          "name": "newOwner",
          "type": "address"
        }
      ],
      "name": "transferOwnership",
      "outputs": [],
      "stateMutability": "nonpayable",
      "type": "function"
    },
    {
      "inputs": [],
      "name": "unlock",
      "outputs": [],
      "stateMutability": "payable",
      "type": "function"
    },
    {
      "inputs": [],
      "name": "unlockClaim",
      "outputs": [],
      "stateMutability": "payable",
      "type": "function"
    },
    {
      "inputs": [],
      "name": "withdrawRewards",
      "outputs": [
        {
          "internalType": "bool",
          "name": "",
          "type": "bool"
        }
      ],
      "stateMutability": "view",
      "type": "function"
    },
    {
      "inputs": [
        {
          "internalType": "uint256",
          "name": "amount",
          "type": "uint256"
        }
      ],
      "name": "withdrawStakingAmount",
      "outputs": [],
      "stateMutability": "payable",
      "type": "function"
    }
  ],
  "bytecode": "0x608060405234801561001057600080fd5b50613660806100206000396000f3fe6080604052600436106101f95760003560e01c80638db8ad881161010d578063c53b573d116100a0578063e92d61e51161006f578063e92d61e5146106a4578063f2fde38b146106cf578063f7cee36a146106f8578063f87b7a3e14610723578063feafaa6b1461074c576101f9565b8063c53b573d14610605578063c7b8981c14610623578063d6ae3cd51461064e578063e597455414610679576101f9565b8063acec338a116100dc578063acec338a1461055f578063af70cba514610588578063b699ce5f146105b1578063c3b550c8146105da576101f9565b80638db8ad88146104d457806397ec19be146104ff5780639e9357041461052a578063a69df4b514610555576101f9565b80633cbb697911610190578063715018a61161015f578063715018a61461041157806376d9f95c146104285780637ca4f8b01461045357806385d1e2b81461047e5780638da5cb5b146104a9576101f9565b80633cbb69791461035557806343c82cf714610380578063457cb586146103a957806356891412146103e6576101f9565b80631abdaf6a116101cc5780631abdaf6a1461029b57806333bec7e7146102d85780633b4c46d0146103015780633cb747bf1461032a576101f9565b80630182a6da146101fe57806302fb0c5e1461021a57806304a78fca14610245578063080e1e4e14610270575b600080fd5b610218600480360381019061021391906126b6565b610756565b005b34801561022657600080fd5b5061022f610bd3565b60405161023c91906126fe565b60405180910390f35b34801561025157600080fd5b5061025a610be6565b6040516102679190612728565b60405180910390f35b34801561027c57600080fd5b50610285610bec565b6040516102929190612784565b60405180910390f35b3480156102a757600080fd5b506102c260048036038101906102bd91906126b6565b610c12565b6040516102cf91906127be565b60405180910390f35b3480156102e457600080fd5b506102ff60048036038101906102fa9190612805565b610c4c565b005b34801561030d57600080fd5b506103286004803603810190610323919061285e565b610cc9565b005b34801561033657600080fd5b5061033f610d15565b60405161034c91906128ea565b60405180910390f35b34801561036157600080fd5b5061036a610d3b565b60405161037791906127be565b60405180910390f35b34801561038c57600080fd5b506103a760048036038101906103a2919061285e565b610d51565b005b3480156103b557600080fd5b506103d060048036038101906103cb9190612805565b610d9d565b6040516103dd9190612784565b60405180910390f35b3480156103f257600080fd5b506103fb610dd0565b6040516104089190612728565b60405180910390f35b34801561041d57600080fd5b50610426610de3565b005b34801561043457600080fd5b5061043d610df7565b60405161044a91906129ef565b60405180910390f35b34801561045f57600080fd5b50610468610ea3565b6040516104759190612728565b60405180910390f35b34801561048a57600080fd5b50610493610ea9565b6040516104a09190612a2c565b60405180910390f35b3480156104b557600080fd5b506104be610ecf565b6040516104cb9190612784565b60405180910390f35b3480156104e057600080fd5b506104e9610f07565b6040516104f69190612784565b60405180910390f35b34801561050b57600080fd5b50610514610f2b565b6040516105219190612784565b60405180910390f35b34801561053657600080fd5b5061053f610f51565b60405161054c91906127be565b60405180910390f35b61055d610f67565b005b34801561056b57600080fd5b5061058660048036038101906105819190612a73565b611095565b005b34801561059457600080fd5b506105af60048036038101906105aa9190612be6565b6110ba565b005b3480156105bd57600080fd5b506105d860048036038101906105d39190612c55565b611544565b005b3480156105e657600080fd5b506105ef611ad9565b6040516105fc9190612784565b60405180910390f35b61060d611aff565b60405161061a9190612728565b60405180910390f35b34801561062f57600080fd5b50610638611f9a565b60405161064591906126fe565b60405180910390f35b34801561065a57600080fd5b50610663611fad565b6040516106709190612728565b60405180910390f35b34801561068557600080fd5b5061068e611fb3565b60405161069b9190612d18565b60405180910390f35b3480156106b057600080fd5b506106b9611fd9565b6040516106c69190612784565b60405180910390f35b3480156106db57600080fd5b506106f660048036038101906106f1919061285e565b611fff565b005b34801561070457600080fd5b5061070d612085565b60405161071a9190612d54565b60405180910390f35b34801561072f57600080fd5b5061074a6004803603810190610745919061285e565b6120ab565b005b6107546120f7565b005b61075e6121a5565b600260009054906101000a900473ffffffffffffffffffffffffffffffffffffffff1673ffffffffffffffffffffffffffffffffffffffff1663441a3e70600d54836040518363ffffffff1660e01b81526004016107bd929190612d6f565b600060405180830381600087803b1580156107d757600080fd5b505af11580156107eb573d6000803e3d6000fd5b505050506000600360009054906101000a900473ffffffffffffffffffffffffffffffffffffffff1673ffffffffffffffffffffffffffffffffffffffff1663e78cea926040518163ffffffff1660e01b8152600401602060405180830381865afa15801561085e573d6000803e3d6000fd5b505050506040513d601f19601f820116820180604052508101906108829190612dad565b9050600360009054906101000a900473ffffffffffffffffffffffffffffffffffffffff1673ffffffffffffffffffffffffffffffffffffffff1663c01e1bd66040518163ffffffff1660e01b8152600401602060405180830381865afa1580156108f1573d6000803e3d6000fd5b505050506040513d601f19601f820116820180604052508101906109159190612dad565b73ffffffffffffffffffffffffffffffffffffffff1663095ea7b382846040518363ffffffff1660e01b815260040161094f929190612dda565b6020604051808303816000875af115801561096e573d6000803e3d6000fd5b505050506040513d601f19601f820116820180604052508101906109929190612e18565b508073ffffffffffffffffffffffffffffffffffffffff1663ef808be234600554600360009054906101000a900473ffffffffffffffffffffffffffffffffffffffff1673ffffffffffffffffffffffffffffffffffffffff1663c01e1bd66040518163ffffffff1660e01b8152600401602060405180830381865afa158015610a20573d6000803e3d6000fd5b505050506040513d601f19601f82011682018060405250810190610a449190612dad565b600360009054906101000a900473ffffffffffffffffffffffffffffffffffffffff1673ffffffffffffffffffffffffffffffffffffffff166356eff2676040518163ffffffff1660e01b8152600401602060405180830381865afa158015610ab1573d6000803e3d6000fd5b505050506040513d601f19601f82011682018060405250810190610ad59190612dad565b600f60009054906101000a900473ffffffffffffffffffffffffffffffffffffffff1688600c60009054906101000a900463ffffffff166040518863ffffffff1660e01b8152600401610b2d96959493929190612e7c565b6000604051808303818588803b158015610b4657600080fd5b505af1158015610b5a573d6000803e3d6000fd5b5050505050600f60009054906101000a900473ffffffffffffffffffffffffffffffffffffffff1673ffffffffffffffffffffffffffffffffffffffff167f6ef7a26d50cec3f1a210bed887413d426c9c13575a17872c54e00c4287ac5dce83604051610bc79190612728565b60405180910390a25050565b600e60149054906101000a900460ff1681565b600d5481565b600660009054906101000a900473ffffffffffffffffffffffffffffffffffffffff1681565b600a8181548110610c2257600080fd5b9060005260206000209060089182820401919006600402915054906101000a900463ffffffff1681565b610c546121a5565b6000600c60009054906101000a900463ffffffff16905081600c60006101000a81548163ffffffff021916908363ffffffff1602179055507f4042b09a75e5a67c8cc2a57e00de6d29fb5202b7207afba895eb8b5cc3e2179e8183604051610cbd929190612ef0565b60405180910390a15050565b610cd16121a5565b80600f60006101000a81548173ffffffffffffffffffffffffffffffffffffffff021916908373ffffffffffffffffffffffffffffffffffffffff16021790555050565b600460009054906101000a900473ffffffffffffffffffffffffffffffffffffffff1681565b600c60009054906101000a900463ffffffff1681565b610d596121a5565b80600760006101000a81548173ffffffffffffffffffffffffffffffffffffffff021916908373ffffffffffffffffffffffffffffffffffffffff16021790555050565b60086020528060005260406000206000915054906101000a900473ffffffffffffffffffffffffffffffffffffffff1681565b6000610dda610df7565b60000151905090565b610deb6121a5565b610df5600061222c565b565b610dff6125ed565b600260009054906101000a900473ffffffffffffffffffffffffffffffffffffffff1673ffffffffffffffffffffffffffffffffffffffff16636ba7ccff600d546040518263ffffffff1660e01b8152600401610e5c9190612728565b61014060405180830381865afa158015610e7a573d6000803e3d6000fd5b505050506040513d601f19601f82011682018060405250810190610e9e9190613029565b905090565b600b5481565b600260009054906101000a900473ffffffffffffffffffffffffffffffffffffffff1681565b600080610eda612303565b90508060000160009054906101000a900473ffffffffffffffffffffffffffffffffffffffff1691505090565b60008054906101000a900473ffffffffffffffffffffffffffffffffffffffff1681565b600f60009054906101000a900473ffffffffffffffffffffffffffffffffffffffff1681565b600960009054906101000a900463ffffffff1681565b610f6f6121a5565b600260009054906101000a900473ffffffffffffffffffffffffffffffffffffffff1673ffffffffffffffffffffffffffffffffffffffff1663262c0e6634600d54600c60009054906101000a900463ffffffff166040518463ffffffff1660e01b8152600401610fe1929190613057565b6000604051808303818588803b158015610ffa57600080fd5b505af115801561100e573d6000803e3d6000fd5b50505050506000600e60146101000a81548160ff021916908315150217905550600e60009054906101000a900473ffffffffffffffffffffffffffffffffffffffff1673ffffffffffffffffffffffffffffffffffffffff167fbac99876b6a1c26412460d61d913235a30f0ea99585ffcfd53c0faae6ed3313460405160405180910390a2565b61109d6121a5565b80600e60146101000a81548160ff02191690831515021790555050565b6110c26121a5565b6000600160009054906101000a900473ffffffffffffffffffffffffffffffffffffffff1673ffffffffffffffffffffffffffffffffffffffff166370a08231306040518263ffffffff1660e01b815260040161111f9190612784565b602060405180830381865afa15801561113c573d6000803e3d6000fd5b505050506040513d601f19601f820116820180604052508101906111609190613080565b9050828110156111a5576040517f08c379a000000000000000000000000000000000000000000000000000000000815260040161119c90613130565b60405180910390fd5b83600e60006101000a81548173ffffffffffffffffffffffffffffffffffffffff021916908373ffffffffffffffffffffffffffffffffffffffff160217905550600160009054906101000a900473ffffffffffffffffffffffffffffffffffffffff1673ffffffffffffffffffffffffffffffffffffffff1663095ea7b3600360009054906101000a900473ffffffffffffffffffffffffffffffffffffffff167fffffffffffffffffffffffffffffffffffffffffffffffffffffffffffffffff6040518363ffffffff1660e01b8152600401611285929190612dda565b6020604051808303816000875af11580156112a4573d6000803e3d6000fd5b505050506040513d601f19601f820116820180604052508101906112c89190612e18565b611307576040517f08c379a00000000000000000000000000000000000000000000000000000000081526004016112fe906131c2565b60405180910390fd5b600260009054906101000a900473ffffffffffffffffffffffffffffffffffffffff1673ffffffffffffffffffffffffffffffffffffffff16639ad42030600e60009054906101000a900473ffffffffffffffffffffffffffffffffffffffff16600660009054906101000a900473ffffffffffffffffffffffffffffffffffffffff1686866040518563ffffffff1660e01b81526004016113ac9493929190613250565b600060405180830381600087803b1580156113c657600080fd5b505af11580156113da573d6000803e3d6000fd5b50505050600260009054906101000a900473ffffffffffffffffffffffffffffffffffffffff1673ffffffffffffffffffffffffffffffffffffffff1663beb26755600e60009054906101000a900473ffffffffffffffffffffffffffffffffffffffff166040518263ffffffff1660e01b815260040161145b9190612784565b602060405180830381865afa158015611478573d6000803e3d6000fd5b505050506040513d601f19601f8201168201806040525081019061149c9190613080565b600d819055506001600e60146101000a81548160ff021916908315150217905550600e60009054906101000a900473ffffffffffffffffffffffffffffffffffffffff1673ffffffffffffffffffffffffffffffffffffffff167fb1e87a33084279cb2bff2d1271034cf695f539ee73bbd934d1625703d585d84a84600e60149054906101000a900460ff1660405161153692919061329c565b60405180910390a250505050565b600061154e61232b565b905060008160000160089054906101000a900460ff1615905060008260000160009054906101000a900467ffffffffffffffff1690506000808267ffffffffffffffff1614801561159c5750825b9050600060018367ffffffffffffffff161480156115d1575060003073ffffffffffffffffffffffffffffffffffffffff163b145b9050811580156115df575080155b15611616576040517ff92ee8a900000000000000000000000000000000000000000000000000000000815260040160405180910390fd5b60018560000160006101000a81548167ffffffffffffffff021916908367ffffffffffffffff16021790555083156116665760018560000160086101000a81548160ff0219169083151502179055505b600073ffffffffffffffffffffffffffffffffffffffff168c73ffffffffffffffffffffffffffffffffffffffff16141580156116d05750600073ffffffffffffffffffffffffffffffffffffffff168b73ffffffffffffffffffffffffffffffffffffffff1614155b80156117095750600073ffffffffffffffffffffffffffffffffffffffff168a73ffffffffffffffffffffffffffffffffffffffff1614155b80156117425750600073ffffffffffffffffffffffffffffffffffffffff168773ffffffffffffffffffffffffffffffffffffffff1614155b801561177b5750600073ffffffffffffffffffffffffffffffffffffffff168673ffffffffffffffffffffffffffffffffffffffff1614155b6117ba576040517f08c379a00000000000000000000000000000000000000000000000000000000081526004016117b190613311565b60405180910390fd5b6117c333612353565b8b600160006101000a81548173ffffffffffffffffffffffffffffffffffffffff021916908373ffffffffffffffffffffffffffffffffffffffff1602179055508a600260006101000a81548173ffffffffffffffffffffffffffffffffffffffff021916908373ffffffffffffffffffffffffffffffffffffffff160217905550600260009054906101000a900473ffffffffffffffffffffffffffffffffffffffff1673ffffffffffffffffffffffffffffffffffffffff1663e2fdcc176040518163ffffffff1660e01b8152600401602060405180830381865afa1580156118b2573d6000803e3d6000fd5b505050506040513d601f19601f820116820180604052508101906118d6919061336f565b600360006101000a81548173ffffffffffffffffffffffffffffffffffffffff021916908373ffffffffffffffffffffffffffffffffffffffff1602179055508973ffffffffffffffffffffffffffffffffffffffff16633cb747bf6040518163ffffffff1660e01b8152600401602060405180830381865afa158015611961573d6000803e3d6000fd5b505050506040513d601f19601f820116820180604052508101906119859190612dad565b600460006101000a81548173ffffffffffffffffffffffffffffffffffffffff021916908373ffffffffffffffffffffffffffffffffffffffff1602179055508860058190555087600c60006101000a81548163ffffffff021916908363ffffffff16021790555086600660006101000a81548173ffffffffffffffffffffffffffffffffffffffff021916908373ffffffffffffffffffffffffffffffffffffffff16021790555085600760006101000a81548173ffffffffffffffffffffffffffffffffffffffff021916908373ffffffffffffffffffffffffffffffffffffffff1602179055508315611acb5760008560000160086101000a81548160ff0219169083151502179055507fc7f505b2f371ae2175ee4913f4499e1f2633a7b5936321eed1cdaeb6115181d26001604051611ac291906133eb565b60405180910390a15b505050505050505050505050565b600e60009054906101000a900473ffffffffffffffffffffffffffffffffffffffff1681565b6000600e60149054906101000a900460ff16611b50576040517f08c379a0000000000000000000000000000000000000000000000000000000008152600401611b4790613452565b60405180910390fd5b6000600360009054906101000a900473ffffffffffffffffffffffffffffffffffffffff1673ffffffffffffffffffffffffffffffffffffffff16636c0b3e466040518163ffffffff1660e01b8152600401602060405180830381865afa158015611bbf573d6000803e3d6000fd5b505050506040513d601f19601f82011682018060405250810190611be39190613080565b90506000600160009054906101000a900473ffffffffffffffffffffffffffffffffffffffff1673ffffffffffffffffffffffffffffffffffffffff166370a08231306040518263ffffffff1660e01b8152600401611c429190612784565b602060405180830381865afa158015611c5f573d6000803e3d6000fd5b505050506040513d601f19601f82011682018060405250810190611c839190613080565b90506000805b60018163ffffffff161015611f2f576000611ca2610df7565b905060008082602001518360000151915091508185611cc191906134a1565b94506000878210611cd3576000611ce0565b8188611cdf91906134d5565b5b90506000611cee8289612367565b90508088611cfc91906134d5565b975060008482611d0c91906134a1565b905060008103611d2157505050505050611f1c565b808b611d2d91906134a1565b9a5060008a8286611d3e91906134a1565b119050808015611d4e5750600086115b15611e3157600260009054906101000a900473ffffffffffffffffffffffffffffffffffffffff1673ffffffffffffffffffffffffffffffffffffffff166317396687600d54600c60009054906101000a900463ffffffff166040518363ffffffff1660e01b8152600401611dc4929190613057565b600060405180830381600087803b158015611dde57600080fd5b505af1158015611df2573d6000803e3d6000fd5b50505050600d547f630af8b49bb398089a74eacdb08106c528436090bdb35d7302152dc5117df9bd87604051611e289190612728565b60405180910390a25b801580611e3e5750600083115b15611f1457600260009054906101000a900473ffffffffffffffffffffffffffffffffffffffff1673ffffffffffffffffffffffffffffffffffffffff1663015bb180600d548560016040518463ffffffff1660e01b8152600401611ea593929190613509565b600060405180830381600087803b158015611ebf57600080fd5b505af1158015611ed3573d6000803e3d6000fd5b505050507fb8aafdec9bacdc76bfea3c330063c391a2904d4f91e71f97a91534f3c8ce4ab560008488604051611f0b9392919061357b565b60405180910390a15b505050505050505b8080611f27906135b2565b915050611c89565b506000811115611f5c57611f4281612380565b80600b6000828254611f5491906134a1565b925050819055505b7f1e2aed425906c5ed1ac5aff65e04a30adda54675483414997c879ca7f92a2a576001604051611f8c91906126fe565b60405180910390a150505090565b600c60049054906101000a900460ff1681565b60055481565b600160009054906101000a900473ffffffffffffffffffffffffffffffffffffffff1681565b600760009054906101000a900473ffffffffffffffffffffffffffffffffffffffff1681565b6120076121a5565b600073ffffffffffffffffffffffffffffffffffffffff168173ffffffffffffffffffffffffffffffffffffffff16036120795760006040517f1e4fbdf70000000000000000000000000000000000000000000000000000000081526004016120709190612784565b60405180910390fd5b6120828161222c565b50565b600360009054906101000a900473ffffffffffffffffffffffffffffffffffffffff1681565b6120b36121a5565b80600660006101000a81548173ffffffffffffffffffffffffffffffffffffffff021916908373ffffffffffffffffffffffffffffffffffffffff16021790555050565b6120ff6121a5565b600260009054906101000a900473ffffffffffffffffffffffffffffffffffffffff1673ffffffffffffffffffffffffffffffffffffffff16638ddc74de34600d54600c60009054906101000a900463ffffffff166040518463ffffffff1660e01b8152600401612171929190613057565b6000604051808303818588803b15801561218a57600080fd5b505af115801561219e573d6000803e3d6000fd5b5050505050565b6121ad6124ff565b73ffffffffffffffffffffffffffffffffffffffff166121cb610ecf565b73ffffffffffffffffffffffffffffffffffffffff161461222a576121ee6124ff565b6040517f118cdaa70000000000000000000000000000000000000000000000000000000081526004016122219190612784565b60405180910390fd5b565b6000612236612303565b905060008160000160009054906101000a900473ffffffffffffffffffffffffffffffffffffffff169050828260000160006101000a81548173ffffffffffffffffffffffffffffffffffffffff021916908373ffffffffffffffffffffffffffffffffffffffff1602179055508273ffffffffffffffffffffffffffffffffffffffff168173ffffffffffffffffffffffffffffffffffffffff167f8be0079c531659141344cd1fd0a4f28419497f9722a3daafe3b4186f6b6457e060405160405180910390a3505050565b60007f9016d09d72d40fdae2fd8ceac6b6234c7706214fd39c1cd1e609a0528c199300905090565b60007ff0c57e16840df040f15088dc2f81fe391c3923bec73e23a9662efc9c229c6a00905090565b61235b612507565b61236481612547565b50565b60008183106123765781612378565b825b905092915050565b600063eb82afb360e01b8260405160240161239b9190612728565b604051602081830303815290604052907bffffffffffffffffffffffffffffffffffffffffffffffffffffffff19166020820180517bffffffffffffffffffffffffffffffffffffffffffffffffffffffff83818316178352505050509050600460009054906101000a900473ffffffffffffffffffffffffffffffffffffffff1673ffffffffffffffffffffffffffffffffffffffff166344dd5ed634600554600660009054906101000a900473ffffffffffffffffffffffffffffffffffffffff1685600c60009054906101000a900463ffffffff166040518663ffffffff1660e01b815260040161249294939291906135de565b6000604051808303818588803b1580156124ab57600080fd5b505af11580156124bf573d6000803e3d6000fd5b50505050507fd644e527c1896057ce642adfbc00f04d6b23d4c2fb30529522184d151dc087dc826040516124f39190612728565b60405180910390a15050565b600033905090565b61250f6125cd565b612545576040517fd7e6bcf800000000000000000000000000000000000000000000000000000000815260040160405180910390fd5b565b61254f612507565b600073ffffffffffffffffffffffffffffffffffffffff168173ffffffffffffffffffffffffffffffffffffffff16036125c15760006040517f1e4fbdf70000000000000000000000000000000000000000000000000000000081526004016125b89190612784565b60405180910390fd5b6125ca8161222c565b50565b60006125d761232b565b60000160089054906101000a900460ff16905090565b6040518061014001604052806000815260200160008152602001600081526020016000815260200160008152602001600081526020016000815260200160008152602001600073ffffffffffffffffffffffffffffffffffffffff168152602001600073ffffffffffffffffffffffffffffffffffffffff1681525090565b6000604051905090565b600080fd5b600080fd5b6000819050919050565b61269381612680565b811461269e57600080fd5b50565b6000813590506126b08161268a565b92915050565b6000602082840312156126cc576126cb612676565b5b60006126da848285016126a1565b91505092915050565b60008115159050919050565b6126f8816126e3565b82525050565b600060208201905061271360008301846126ef565b92915050565b61272281612680565b82525050565b600060208201905061273d6000830184612719565b92915050565b600073ffffffffffffffffffffffffffffffffffffffff82169050919050565b600061276e82612743565b9050919050565b61277e81612763565b82525050565b60006020820190506127996000830184612775565b92915050565b600063ffffffff82169050919050565b6127b88161279f565b82525050565b60006020820190506127d360008301846127af565b92915050565b6127e28161279f565b81146127ed57600080fd5b50565b6000813590506127ff816127d9565b92915050565b60006020828403121561281b5761281a612676565b5b6000612829848285016127f0565b91505092915050565b61283b81612763565b811461284657600080fd5b50565b60008135905061285881612832565b92915050565b60006020828403121561287457612873612676565b5b600061288284828501612849565b91505092915050565b6000819050919050565b60006128b06128ab6128a684612743565b61288b565b612743565b9050919050565b60006128c282612895565b9050919050565b60006128d4826128b7565b9050919050565b6128e4816128c9565b82525050565b60006020820190506128ff60008301846128db565b92915050565b61290e81612680565b82525050565b61291d81612763565b82525050565b6101408201600082015161293a6000850182612905565b50602082015161294d6020850182612905565b5060408201516129606040850182612905565b5060608201516129736060850182612905565b5060808201516129866080850182612905565b5060a082015161299960a0850182612905565b5060c08201516129ac60c0850182612905565b5060e08201516129bf60e0850182612905565b506101008201516129d4610100850182612914565b506101208201516129e9610120850182612914565b50505050565b600061014082019050612a056000830184612923565b92915050565b6000612a16826128b7565b9050919050565b612a2681612a0b565b82525050565b6000602082019050612a416000830184612a1d565b92915050565b612a50816126e3565b8114612a5b57600080fd5b50565b600081359050612a6d81612a47565b92915050565b600060208284031215612a8957612a88612676565b5b6000612a9784828501612a5e565b91505092915050565b600080fd5b600080fd5b6000601f19601f8301169050919050565b7f4e487b7100000000000000000000000000000000000000000000000000000000600052604160045260246000fd5b612af382612aaa565b810181811067ffffffffffffffff82111715612b1257612b11612abb565b5b80604052505050565b6000612b2561266c565b9050612b318282612aea565b919050565b600067ffffffffffffffff821115612b5157612b50612abb565b5b612b5a82612aaa565b9050602081019050919050565b82818337600083830152505050565b6000612b89612b8484612b36565b612b1b565b905082815260208101848484011115612ba557612ba4612aa5565b5b612bb0848285612b67565b509392505050565b600082601f830112612bcd57612bcc612aa0565b5b8135612bdd848260208601612b76565b91505092915050565b600080600060608486031215612bff57612bfe612676565b5b6000612c0d86828701612849565b9350506020612c1e868287016126a1565b925050604084013567ffffffffffffffff811115612c3f57612c3e61267b565b5b612c4b86828701612bb8565b9150509250925092565b600080600080600080600060e0888a031215612c7457612c73612676565b5b6000612c828a828b01612849565b9750506020612c938a828b01612849565b9650506040612ca48a828b01612849565b9550506060612cb58a828b016126a1565b9450506080612cc68a828b016127f0565b93505060a0612cd78a828b01612849565b92505060c0612ce88a828b01612849565b91505092959891949750929550565b6000612d02826128b7565b9050919050565b612d1281612cf7565b82525050565b6000602082019050612d2d6000830184612d09565b92915050565b6000612d3e826128b7565b9050919050565b612d4e81612d33565b82525050565b6000602082019050612d696000830184612d45565b92915050565b6000604082019050612d846000830185612719565b612d916020830184612719565b9392505050565b600081519050612da781612832565b92915050565b600060208284031215612dc357612dc2612676565b5b6000612dd184828501612d98565b91505092915050565b6000604082019050612def6000830185612775565b612dfc6020830184612719565b9392505050565b600081519050612e1281612a47565b92915050565b600060208284031215612e2e57612e2d612676565b5b6000612e3c84828501612e03565b91505092915050565b600082825260208201905092915050565b50565b6000612e66600083612e45565b9150612e7182612e56565b600082019050919050565b600060e082019050612e916000830189612719565b612e9e6020830188612775565b612eab6040830187612775565b612eb86060830186612775565b612ec56080830185612719565b612ed260a08301846127af565b81810360c0830152612ee381612e59565b9050979650505050505050565b6000604082019050612f0560008301856127af565b612f1260208301846127af565b9392505050565b600080fd5b600081519050612f2d8161268a565b92915050565b60006101408284031215612f4a57612f49612f19565b5b612f55610140612b1b565b90506000612f6584828501612f1e565b6000830152506020612f7984828501612f1e565b6020830152506040612f8d84828501612f1e565b6040830152506060612fa184828501612f1e565b6060830152506080612fb584828501612f1e565b60808301525060a0612fc984828501612f1e565b60a08301525060c0612fdd84828501612f1e565b60c08301525060e0612ff184828501612f1e565b60e08301525061010061300684828501612d98565b6101008301525061012061301c84828501612d98565b6101208301525092915050565b600061014082840312156130405761303f612676565b5b600061304e84828501612f33565b91505092915050565b600060408201905061306c6000830185612719565b61307960208301846127af565b9392505050565b60006020828403121561309657613095612676565b5b60006130a484828501612f1e565b91505092915050565b600082825260208201905092915050565b7f4465616c65723a20496e73756666696369656e74204d657469732062616c616e60008201527f6365000000000000000000000000000000000000000000000000000000000000602082015250565b600061311a6022836130ad565b9150613125826130be565b604082019050919050565b600060208201905081810360008301526131498161310d565b9050919050565b7f4465616c65723a20417070726f76616c20746f204c6f636b696e67496e666f2060008201527f6661696c65640000000000000000000000000000000000000000000000000000602082015250565b60006131ac6026836130ad565b91506131b782613150565b604082019050919050565b600060208201905081810360008301526131db8161319f565b9050919050565b600081519050919050565b60005b8381101561320b5780820151818401526020810190506131f0565b60008484015250505050565b6000613222826131e2565b61322c8185612e45565b935061323c8185602086016131ed565b61324581612aaa565b840191505092915050565b60006080820190506132656000830187612775565b6132726020830186612775565b61327f6040830185612719565b81810360608301526132918184613217565b905095945050505050565b60006040820190506132b16000830185612719565b6132be60208301846126ef565b9392505050565b7f4465616c65723a207a65726f2061646472657373000000000000000000000000600082015250565b60006132fb6014836130ad565b9150613306826132c5565b602082019050919050565b6000602082019050818103600083015261332a816132ee565b9050919050565b600061333c82612763565b9050919050565b61334c81613331565b811461335757600080fd5b50565b60008151905061336981613343565b92915050565b60006020828403121561338557613384612676565b5b60006133938482850161335a565b91505092915050565b6000819050919050565b600067ffffffffffffffff82169050919050565b60006133d56133d06133cb8461339c565b61288b565b6133a6565b9050919050565b6133e5816133ba565b82525050565b600060208201905061340060008301846133dc565b92915050565b7f4465616c65723a206e6f206163746976652073657175656e6365720000000000600082015250565b600061343c601b836130ad565b915061344782613406565b602082019050919050565b6000602082019050818103600083015261346b8161342f565b9050919050565b7f4e487b7100000000000000000000000000000000000000000000000000000000600052601160045260246000fd5b60006134ac82612680565b91506134b783612680565b92508282019050808211156134cf576134ce613472565b5b92915050565b60006134e082612680565b91506134eb83612680565b925082820390508181111561350357613502613472565b5b92915050565b600060608201905061351e6000830186612719565b61352b6020830185612719565b61353860408301846126ef565b949350505050565b6000819050919050565b600061356561356061355b84613540565b61288b565b61279f565b9050919050565b6135758161354a565b82525050565b6000606082019050613590600083018661356c565b61359d6020830185612719565b6135aa6040830184612719565b949350505050565b60006135bd8261279f565b915063ffffffff82036135d3576135d2613472565b5b600182019050919050565b60006080820190506135f36000830187612719565b6136006020830186612775565b81810360408301526136128185613217565b905061362160608301846127af565b9594505050505056fea2646970667358221220c8e4340e0cc6ec39ad36e74e84b69a95da12d28bb719a1537a7eb5516fab759c64736f6c63430008140033",
  "linkReferences": {},
  "deployedLinkReferences": {}
}