{
  "_format": "hh-sol-artifact-1",
  "contractName": "Dealer",
  "sourceName": "contracts/Dealer.sol",
  "abi": [
    {
      "inputs": [],
      "name": "InvalidInitialization",
      "type": "error"
    },
    {
      "inputs": [],
      "name": "NotInitializing",
      "type": "error"
    },
    {
      "inputs": [
        {
          "internalType": "address",
          "name": "owner",
          "type": "address"
        }
      ],
      "name": "OwnableInvalidOwner",
      "type": "error"
    },
    {
      "inputs": [
        {
          "internalType": "address",
          "name": "account",
          "type": "address"
        }
      ],
      "name": "OwnableUnauthorizedAccount",
      "type": "error"
    },
    {
      "anonymous": false,
      "inputs": [
        {
          "indexed": false,
          "internalType": "uint64",
          "name": "version",
          "type": "uint64"
        }
      ],
      "name": "Initialized",
      "type": "event"
    },
    {
      "anonymous": false,
      "inputs": [
        {
          "indexed": false,
          "internalType": "uint32",
          "name": "oldValue",
          "type": "uint32"
        },
        {
          "indexed": false,
          "internalType": "uint32",
          "name": "newValue",
          "type": "uint32"
        }
      ],
      "name": "L2GasSet",
      "type": "event"
    },
    {
      "anonymous": false,
      "inputs": [
        {
          "indexed": false,
          "internalType": "uint256",
          "name": "amount",
          "type": "uint256"
        }
      ],
      "name": "L2MetisMinted",
      "type": "event"
    },
    {
      "anonymous": false,
      "inputs": [
        {
          "indexed": true,
          "internalType": "address",
          "name": "previousOwner",
          "type": "address"
        },
        {
          "indexed": true,
          "internalType": "address",
          "name": "newOwner",
          "type": "address"
        }
      ],
      "name": "OwnershipTransferred",
      "type": "event"
    },
    {
      "anonymous": false,
      "inputs": [
        {
          "indexed": true,
          "internalType": "uint256",
          "name": "sequencerId",
          "type": "uint256"
        },
        {
          "indexed": false,
          "internalType": "uint256",
          "name": "reward",
          "type": "uint256"
        }
      ],
      "name": "RewardsWithdrawn",
      "type": "event"
    },
    {
      "anonymous": false,
      "inputs": [
        {
          "indexed": false,
          "internalType": "uint32",
          "name": "index",
          "type": "uint32"
        },
        {
          "indexed": false,
          "internalType": "address",
          "name": "agent",
          "type": "address"
        }
      ],
      "name": "SequencerAgentAdded",
      "type": "event"
    },
    {
      "anonymous": false,
      "inputs": [
        {
          "indexed": true,
          "internalType": "address",
          "name": "oldValue",
          "type": "address"
        },
        {
          "indexed": true,
          "internalType": "address",
          "name": "newValue",
          "type": "address"
        }
      ],
      "name": "SequencerAgentTemplateSet",
      "type": "event"
    },
    {
      "anonymous": false,
      "inputs": [
        {
          "indexed": true,
          "internalType": "address",
          "name": "sequencerSigner",
          "type": "address"
        },
        {
          "indexed": false,
          "internalType": "uint256",
          "name": "amount",
          "type": "uint256"
        },
        {
          "indexed": false,
          "internalType": "bool",
          "name": "active",
          "type": "bool"
        }
      ],
      "name": "SequencerInitialBalanceLocked",
      "type": "event"
    },
    {
      "anonymous": false,
      "inputs": [
        {
          "indexed": false,
          "internalType": "uint256",
          "name": "sequencerId",
          "type": "uint256"
        },
        {
          "indexed": false,
          "internalType": "uint256",
          "name": "amount",
          "type": "uint256"
        }
      ],
      "name": "SequencerRelocked",
      "type": "event"
    },
    {
      "anonymous": false,
      "inputs": [
        {
          "indexed": true,
          "internalType": "uint256",
          "name": "sequencerId",
          "type": "uint256"
        },
        {
          "indexed": false,
          "internalType": "bool",
          "name": "active",
          "type": "bool"
        }
      ],
      "name": "SequencerTerminated",
      "type": "event"
    },
    {
      "anonymous": false,
      "inputs": [
        {
          "indexed": true,
          "internalType": "address",
          "name": "recipient",
          "type": "address"
        },
        {
          "indexed": false,
          "internalType": "uint256",
          "name": "amount",
          "type": "uint256"
        }
      ],
      "name": "StakingAmountWithdrawnToRedemptionQueue",
      "type": "event"
    },
    {
      "anonymous": false,
      "inputs": [
        {
          "indexed": true,
          "internalType": "uint256",
          "name": "sequencerId",
          "type": "uint256"
        },
        {
          "indexed": false,
          "internalType": "bool",
          "name": "active",
          "type": "bool"
        }
      ],
      "name": "UnlockClaimed",
      "type": "event"
    },
    {
      "anonymous": false,
      "inputs": [
        {
          "indexed": false,
          "internalType": "bool",
          "name": "oldValue",
          "type": "bool"
        },
        {
          "indexed": false,
          "internalType": "bool",
          "name": "newValue",
          "type": "bool"
        }
      ],
      "name": "WithdrawRewardsSet",
      "type": "event"
    },
    {
      "inputs": [],
      "name": "active",
      "outputs": [
        {
          "internalType": "bool",
          "name": "",
          "type": "bool"
        }
      ],
      "stateMutability": "view",
      "type": "function"
    },
    {
      "inputs": [
        {
          "internalType": "uint256",
          "name": "",
          "type": "uint256"
        }
      ],
      "name": "activeSequencerIds",
      "outputs": [
        {
          "internalType": "uint32",
          "name": "",
          "type": "uint32"
        }
      ],
      "stateMutability": "view",
      "type": "function"
    },
    {
      "inputs": [
        {
          "internalType": "uint256",
          "name": "_amount",
          "type": "uint256"
        }
      ],
      "name": "canStake",
      "outputs": [
        {
          "internalType": "bool",
          "name": "",
          "type": "bool"
        }
      ],
      "stateMutability": "view",
      "type": "function"
    },
    {
      "inputs": [],
      "name": "claimRewards",
      "outputs": [],
      "stateMutability": "payable",
      "type": "function"
    },
    {
      "inputs": [],
      "name": "getRewards",
      "outputs": [
        {
          "internalType": "uint256",
          "name": "",
          "type": "uint256"
        }
      ],
      "stateMutability": "view",
      "type": "function"
    },
    {
      "inputs": [
        {
          "internalType": "address",
          "name": "_metis",
          "type": "address"
        },
        {
          "internalType": "address",
          "name": "_lockingPool",
          "type": "address"
        },
        {
          "internalType": "address",
          "name": "_l1Bridge",
          "type": "address"
        },
        {
          "internalType": "uint256",
          "name": "_l2ChainId",
          "type": "uint256"
        },
        {
          "internalType": "uint32",
          "name": "_l2Gas",
          "type": "uint32"
        },
        {
          "internalType": "address",
          "name": "_l2Minter",
          "type": "address"
        },
        {
          "internalType": "address",
          "name": "_l2RewardDispatcher",
          "type": "address"
        }
      ],
      "name": "initialize",
      "outputs": [],
      "stateMutability": "nonpayable",
      "type": "function"
    },
    {
      "inputs": [],
      "name": "l2ChainId",
      "outputs": [
        {
          "internalType": "uint256",
          "name": "",
          "type": "uint256"
        }
      ],
      "stateMutability": "view",
      "type": "function"
    },
    {
      "inputs": [],
      "name": "l2Gas",
      "outputs": [
        {
          "internalType": "uint32",
          "name": "",
          "type": "uint32"
        }
      ],
      "stateMutability": "view",
      "type": "function"
    },
    {
      "inputs": [],
      "name": "l2Minter",
      "outputs": [
        {
          "internalType": "address",
          "name": "",
          "type": "address"
        }
      ],
      "stateMutability": "view",
      "type": "function"
    },
    {
      "inputs": [],
      "name": "l2RewardDispatcher",
      "outputs": [
        {
          "internalType": "address",
          "name": "",
          "type": "address"
        }
      ],
      "stateMutability": "view",
      "type": "function"
    },
    {
      "inputs": [
        {
          "internalType": "address",
          "name": "_sequencerSigner",
          "type": "address"
        },
        {
          "internalType": "uint256",
          "name": "_amount",
          "type": "uint256"
        },
        {
          "internalType": "bytes",
          "name": "_signerPubKey",
          "type": "bytes"
        }
      ],
      "name": "lockFor",
      "outputs": [],
      "stateMutability": "nonpayable",
      "type": "function"
    },
    {
      "inputs": [],
      "name": "lockingInfo",
      "outputs": [
        {
          "internalType": "contract ILockingInfo",
          "name": "",
          "type": "address"
        }
      ],
      "stateMutability": "view",
      "type": "function"
    },
    {
      "inputs": [],
      "name": "lockingPool",
      "outputs": [
        {
          "internalType": "contract ILockingPool",
          "name": "",
          "type": "address"
        }
      ],
      "stateMutability": "view",
      "type": "function"
    },
    {
      "inputs": [],
      "name": "messenger",
      "outputs": [
        {
          "internalType": "contract ICrossDomainMessenger",
          "name": "",
          "type": "address"
        }
      ],
      "stateMutability": "view",
      "type": "function"
    },
    {
      "inputs": [],
      "name": "metis",
      "outputs": [
        {
          "internalType": "contract IERC20",
          "name": "",
          "type": "address"
        }
      ],
      "stateMutability": "view",
      "type": "function"
    },
    {
      "inputs": [],
      "name": "owner",
      "outputs": [
        {
          "internalType": "address",
          "name": "",
          "type": "address"
        }
      ],
      "stateMutability": "view",
      "type": "function"
    },
    {
      "inputs": [],
      "name": "redemptionQueue",
      "outputs": [
        {
          "internalType": "address",
          "name": "",
          "type": "address"
        }
      ],
      "stateMutability": "view",
      "type": "function"
    },
    {
      "inputs": [],
      "name": "relock",
      "outputs": [],
      "stateMutability": "payable",
      "type": "function"
    },
    {
      "inputs": [],
      "name": "renounceOwnership",
      "outputs": [],
      "stateMutability": "nonpayable",
      "type": "function"
    },
    {
      "inputs": [],
      "name": "sequencerAgentCount",
      "outputs": [
        {
          "internalType": "uint32",
          "name": "",
          "type": "uint32"
        }
      ],
      "stateMutability": "view",
      "type": "function"
    },
    {
      "inputs": [],
      "name": "sequencerAgentTemplate",
      "outputs": [
        {
          "internalType": "address",
          "name": "",
          "type": "address"
        }
      ],
      "stateMutability": "view",
      "type": "function"
    },
    {
      "inputs": [
        {
          "internalType": "uint32",
          "name": "",
          "type": "uint32"
        }
      ],
      "name": "sequencerAgents",
      "outputs": [
        {
          "internalType": "address",
          "name": "",
          "type": "address"
        }
      ],
      "stateMutability": "view",
      "type": "function"
    },
    {
      "inputs": [],
      "name": "sequencerData",
      "outputs": [
        {
          "components": [
            {
              "internalType": "uint256",
              "name": "amount",
              "type": "uint256"
            },
            {
              "internalType": "uint256",
              "name": "reward",
              "type": "uint256"
            },
            {
              "internalType": "uint256",
              "name": "activationBatch",
              "type": "uint256"
            },
            {
              "internalType": "uint256",
              "name": "updatedBatch",
              "type": "uint256"
            },
            {
              "internalType": "uint256",
              "name": "deactivationBatch",
              "type": "uint256"
            },
            {
              "internalType": "uint256",
              "name": "deactivationTime",
              "type": "uint256"
            },
            {
              "internalType": "uint256",
              "name": "unlockClaimTime",
              "type": "uint256"
            },
            {
              "internalType": "uint256",
              "name": "nonce",
              "type": "uint256"
            },
            {
              "internalType": "address",
              "name": "owner",
              "type": "address"
            },
            {
              "internalType": "address",
              "name": "signer",
              "type": "address"
            }
          ],
          "internalType": "struct ILockingPool.SequencerData",
          "name": "",
          "type": "tuple"
        }
      ],
      "stateMutability": "view",
      "type": "function"
    },
    {
      "inputs": [],
      "name": "sequencerId",
      "outputs": [
        {
          "internalType": "uint256",
          "name": "",
          "type": "uint256"
        }
      ],
      "stateMutability": "view",
      "type": "function"
    },
    {
      "inputs": [],
      "name": "sequencerSigner",
      "outputs": [
        {
          "internalType": "address",
          "name": "",
          "type": "address"
        }
      ],
      "stateMutability": "view",
      "type": "function"
    },
    {
      "inputs": [
        {
          "internalType": "bool",
          "name": "_active",
          "type": "bool"
        }
      ],
      "name": "setActive",
      "outputs": [],
      "stateMutability": "nonpayable",
      "type": "function"
    },
    {
      "inputs": [
        {
          "internalType": "uint32",
          "name": "_l2Gas",
          "type": "uint32"
        }
      ],
      "name": "setL2Gas",
      "outputs": [],
      "stateMutability": "nonpayable",
      "type": "function"
    },
    {
      "inputs": [
        {
          "internalType": "address",
          "name": "_l2MinterAddress",
          "type": "address"
        }
      ],
      "name": "setL2Minter",
      "outputs": [],
      "stateMutability": "nonpayable",
      "type": "function"
    },
    {
      "inputs": [
        {
          "internalType": "address",
          "name": "_l2RewardDispatcher",
          "type": "address"
        }
      ],
      "name": "setL2RewardDispatcher",
      "outputs": [],
      "stateMutability": "nonpayable",
      "type": "function"
    },
    {
      "inputs": [
        {
          "internalType": "address",
          "name": "_redemptionQueue",
          "type": "address"
        }
      ],
      "name": "setRedemptionQueue",
      "outputs": [],
      "stateMutability": "nonpayable",
      "type": "function"
    },
    {
      "inputs": [],
      "name": "stakingAmount",
      "outputs": [
        {
          "internalType": "uint256",
          "name": "",
          "type": "uint256"
        }
      ],
      "stateMutability": "view",
      "type": "function"
    },
    {
      "inputs": [],
      "name": "sumRewards",
      "outputs": [
        {
          "internalType": "uint256",
          "name": "",
          "type": "uint256"
        }
      ],
      "stateMutability": "view",
      "type": "function"
    },
    {
      "inputs": [],
      "name": "totalLocked",
      "outputs": [
        {
          "internalType": "uint256",
          "name": "",
          "type": "uint256"
        }
      ],
      "stateMutability": "view",
      "type": "function"
    },
    {
      "inputs": [
        {
          "internalType": "address",
          "name": "newOwner",
          "type": "address"
        }
      ],
      "name": "transferOwnership",
      "outputs": [],
      "stateMutability": "nonpayable",
      "type": "function"
    },
    {
      "inputs": [],
      "name": "unlock",
      "outputs": [],
      "stateMutability": "payable",
      "type": "function"
    },
    {
      "inputs": [],
      "name": "unlockClaim",
      "outputs": [],
      "stateMutability": "payable",
      "type": "function"
    },
    {
      "inputs": [],
      "name": "withdrawRewards",
      "outputs": [
        {
          "internalType": "bool",
          "name": "",
          "type": "bool"
        }
      ],
      "stateMutability": "view",
      "type": "function"
    },
    {
      "inputs": [
        {
          "internalType": "uint256",
          "name": "amount",
          "type": "uint256"
        }
      ],
      "name": "withdrawStakingAmount",
      "outputs": [],
      "stateMutability": "payable",
      "type": "function"
    }
  ],
  "bytecode": "0x608060405234801561001057600080fd5b506138e1806100206000396000f3fe6080604052600436106102255760003560e01c806385d1e2b811610123578063c3b550c8116100ab578063e92d61e51161006f578063e92d61e514610759578063f2fde38b14610784578063f7cee36a146107ad578063f87b7a3e146107d8578063feafaa6b1461080157610225565b8063c3b550c8146106a3578063c53b573d146106ce578063c7b8981c146106d8578063d6ae3cd514610703578063e59745541461072e57610225565b80639e935704116100f25780639e935704146105f3578063a69df4b51461061e578063acec338a14610628578063af70cba514610651578063b699ce5f1461067a57610225565b806385d1e2b8146105475780638da5cb5b146105725780638db8ad881461059d57806397ec19be146105c857610225565b80633cb747bf116101b157806356891412116101755780635689141214610484578063715018a6146104af578063739a3e02146104c657806376d9f95c146104f15780637ca4f8b01461051c57610225565b80633cb747bf1461038b5780633cbb6979146103b657806343c82cf7146103e1578063457cb5861461040a578063539066531461044757610225565b8063080e1e4e116101f8578063080e1e4e146102c75780631abdaf6a146102f257806333bec7e71461032f578063372500ab146103585780633b4c46d01461036257610225565b80630182a6da1461022a57806302fb0c5e1461024657806304a78fca146102715780630572b0cc1461029c575b600080fd5b610244600480360381019061023f9190612839565b61080b565b005b34801561025257600080fd5b5061025b610db0565b6040516102689190612881565b60405180910390f35b34801561027d57600080fd5b50610286610dc3565b60405161029391906128ab565b60405180910390f35b3480156102a857600080fd5b506102b1610dc9565b6040516102be91906128ab565b60405180910390f35b3480156102d357600080fd5b506102dc610dd8565b6040516102e99190612907565b60405180910390f35b3480156102fe57600080fd5b5061031960048036038101906103149190612839565b610dfe565b6040516103269190612941565b60405180910390f35b34801561033b57600080fd5b5061035660048036038101906103519190612988565b610e38565b005b610360610eb5565b005b34801561036e57600080fd5b50610389600480360381019061038491906129e1565b610fed565b005b34801561039757600080fd5b506103a0611039565b6040516103ad9190612a6d565b60405180910390f35b3480156103c257600080fd5b506103cb61105f565b6040516103d89190612941565b60405180910390f35b3480156103ed57600080fd5b50610408600480360381019061040391906129e1565b611075565b005b34801561041657600080fd5b50610431600480360381019061042c9190612988565b6110c1565b60405161043e9190612907565b60405180910390f35b34801561045357600080fd5b5061046e60048036038101906104699190612839565b6110f4565b60405161047b9190612881565b60405180910390f35b34801561049057600080fd5b506104996111b6565b6040516104a691906128ab565b60405180910390f35b3480156104bb57600080fd5b506104c46111c9565b005b3480156104d257600080fd5b506104db6111dd565b6040516104e891906128ab565b60405180910390f35b3480156104fd57600080fd5b506105066111ff565b6040516105139190612b72565b60405180910390f35b34801561052857600080fd5b506105316112ab565b60405161053e91906128ab565b60405180910390f35b34801561055357600080fd5b5061055c6112b1565b6040516105699190612baf565b60405180910390f35b34801561057e57600080fd5b506105876112d7565b6040516105949190612907565b60405180910390f35b3480156105a957600080fd5b506105b261130f565b6040516105bf9190612907565b60405180910390f35b3480156105d457600080fd5b506105dd611333565b6040516105ea9190612907565b60405180910390f35b3480156105ff57600080fd5b50610608611359565b6040516106159190612941565b60405180910390f35b61062661136f565b005b34801561063457600080fd5b5061064f600480360381019061064a9190612bf6565b611473565b005b34801561065d57600080fd5b5061067860048036038101906106739190612d69565b611498565b005b34801561068657600080fd5b506106a1600480360381019061069c9190612dd8565b611922565b005b3480156106af57600080fd5b506106b8611eb7565b6040516106c59190612907565b60405180910390f35b6106d6611edd565b005b3480156106e457600080fd5b506106ed61224a565b6040516106fa9190612881565b60405180910390f35b34801561070f57600080fd5b5061071861225d565b60405161072591906128ab565b60405180910390f35b34801561073a57600080fd5b50610743612263565b6040516107509190612e9b565b60405180910390f35b34801561076557600080fd5b5061076e612289565b60405161077b9190612907565b60405180910390f35b34801561079057600080fd5b506107ab60048036038101906107a691906129e1565b6122af565b005b3480156107b957600080fd5b506107c2612335565b6040516107cf9190612ed7565b60405180910390f35b3480156107e457600080fd5b506107ff60048036038101906107fa91906129e1565b61235b565b005b6108096123a7565b005b610813612490565b60008111610856576040517f08c379a000000000000000000000000000000000000000000000000000000000815260040161084d90612f4f565b60405180910390fd5b80600360009054906101000a900473ffffffffffffffffffffffffffffffffffffffff1673ffffffffffffffffffffffffffffffffffffffff1663f037c6306040518163ffffffff1660e01b8152600401602060405180830381865afa1580156108c4573d6000803e3d6000fd5b505050506040513d601f19601f820116820180604052508101906108e89190612f84565b6108f29190612fe0565b6108fa612517565b101561093b576040517f08c379a000000000000000000000000000000000000000000000000000000000815260040161093290613060565b60405180910390fd5b600260009054906101000a900473ffffffffffffffffffffffffffffffffffffffff1673ffffffffffffffffffffffffffffffffffffffff1663441a3e70600d54836040518363ffffffff1660e01b815260040161099a929190613080565b600060405180830381600087803b1580156109b457600080fd5b505af11580156109c8573d6000803e3d6000fd5b505050506000600360009054906101000a900473ffffffffffffffffffffffffffffffffffffffff1673ffffffffffffffffffffffffffffffffffffffff1663e78cea926040518163ffffffff1660e01b8152600401602060405180830381865afa158015610a3b573d6000803e3d6000fd5b505050506040513d601f19601f82011682018060405250810190610a5f91906130be565b9050600360009054906101000a900473ffffffffffffffffffffffffffffffffffffffff1673ffffffffffffffffffffffffffffffffffffffff1663c01e1bd66040518163ffffffff1660e01b8152600401602060405180830381865afa158015610ace573d6000803e3d6000fd5b505050506040513d601f19601f82011682018060405250810190610af291906130be565b73ffffffffffffffffffffffffffffffffffffffff1663095ea7b382846040518363ffffffff1660e01b8152600401610b2c9291906130eb565b6020604051808303816000875af1158015610b4b573d6000803e3d6000fd5b505050506040513d601f19601f82011682018060405250810190610b6f9190613129565b508073ffffffffffffffffffffffffffffffffffffffff1663ef808be234600554600360009054906101000a900473ffffffffffffffffffffffffffffffffffffffff1673ffffffffffffffffffffffffffffffffffffffff1663c01e1bd66040518163ffffffff1660e01b8152600401602060405180830381865afa158015610bfd573d6000803e3d6000fd5b505050506040513d601f19601f82011682018060405250810190610c2191906130be565b600360009054906101000a900473ffffffffffffffffffffffffffffffffffffffff1673ffffffffffffffffffffffffffffffffffffffff166356eff2676040518163ffffffff1660e01b8152600401602060405180830381865afa158015610c8e573d6000803e3d6000fd5b505050506040513d601f19601f82011682018060405250810190610cb291906130be565b600f60009054906101000a900473ffffffffffffffffffffffffffffffffffffffff1688600c60009054906101000a900463ffffffff166040518863ffffffff1660e01b8152600401610d0a9695949392919061318d565b6000604051808303818588803b158015610d2357600080fd5b505af1158015610d37573d6000803e3d6000fd5b5050505050600f60009054906101000a900473ffffffffffffffffffffffffffffffffffffffff1673ffffffffffffffffffffffffffffffffffffffff167f2ae1f58feea94cffdf5ba81b4953bbbdabd1eee50210bda675b0504e57772a8483604051610da491906128ab565b60405180910390a25050565b600e60149054906101000a900460ff1681565b600d5481565b6000610dd361252f565b905090565b600660009054906101000a900473ffffffffffffffffffffffffffffffffffffffff1681565b600a8181548110610e0e57600080fd5b9060005260206000209060089182820401919006600402915054906101000a900463ffffffff1681565b610e40612490565b6000600c60009054906101000a900463ffffffff16905081600c60006101000a81548163ffffffff021916908363ffffffff1602179055507f4042b09a75e5a67c8cc2a57e00de6d29fb5202b7207afba895eb8b5cc3e2179e8183604051610ea9929190613201565b60405180910390a15050565b610ebd612490565b6000610ec761252f565b905060008111610f0c576040517f08c379a0000000000000000000000000000000000000000000000000000000008152600401610f0390613276565b60405180910390fd5b600260009054906101000a900473ffffffffffffffffffffffffffffffffffffffff1673ffffffffffffffffffffffffffffffffffffffff16631739668734600d54600c60009054906101000a900463ffffffff166040518463ffffffff1660e01b8152600401610f7e929190613296565b6000604051808303818588803b158015610f9757600080fd5b505af1158015610fab573d6000803e3d6000fd5b5050505050600d547f630af8b49bb398089a74eacdb08106c528436090bdb35d7302152dc5117df9bd82604051610fe291906128ab565b60405180910390a250565b610ff5612490565b80600f60006101000a81548173ffffffffffffffffffffffffffffffffffffffff021916908373ffffffffffffffffffffffffffffffffffffffff16021790555050565b600460009054906101000a900473ffffffffffffffffffffffffffffffffffffffff1681565b600c60009054906101000a900463ffffffff1681565b61107d612490565b80600760006101000a81548173ffffffffffffffffffffffffffffffffffffffff021916908373ffffffffffffffffffffffffffffffffffffffff16021790555050565b60086020528060005260406000206000915054906101000a900473ffffffffffffffffffffffffffffffffffffffff1681565b600080600d540361110857600090506111b1565b600360009054906101000a900473ffffffffffffffffffffffffffffffffffffffff1673ffffffffffffffffffffffffffffffffffffffff16636c0b3e466040518163ffffffff1660e01b8152600401602060405180830381865afa158015611175573d6000803e3d6000fd5b505050506040513d601f19601f820116820180604052508101906111999190612f84565b6111a1612517565b836111ac9190612fe0565b111590505b919050565b60006111c06111ff565b60000151905090565b6111d1612490565b6111db6000612547565b565b600080600d54036111f157600090506111fc565b6111f9612517565b90505b90565b611207612770565b600260009054906101000a900473ffffffffffffffffffffffffffffffffffffffff1673ffffffffffffffffffffffffffffffffffffffff16636ba7ccff600d546040518263ffffffff1660e01b815260040161126491906128ab565b61014060405180830381865afa158015611282573d6000803e3d6000fd5b505050506040513d601f19601f820116820180604052508101906112a691906133ba565b905090565b600b5481565b600260009054906101000a900473ffffffffffffffffffffffffffffffffffffffff1681565b6000806112e261261e565b90508060000160009054906101000a900473ffffffffffffffffffffffffffffffffffffffff1691505090565b60008054906101000a900473ffffffffffffffffffffffffffffffffffffffff1681565b600f60009054906101000a900473ffffffffffffffffffffffffffffffffffffffff1681565b600960009054906101000a900463ffffffff1681565b611377612490565b600260009054906101000a900473ffffffffffffffffffffffffffffffffffffffff1673ffffffffffffffffffffffffffffffffffffffff1663262c0e6634600d54600c60009054906101000a900463ffffffff166040518463ffffffff1660e01b81526004016113e9929190613296565b6000604051808303818588803b15801561140257600080fd5b505af1158015611416573d6000803e3d6000fd5b50505050506000600e60146101000a81548160ff021916908315150217905550600d547f8d71569dd9f67fd0a82500de235099519ae7c9b6b3011a95edce6d221fa8015960006040516114699190612881565b60405180910390a2565b61147b612490565b80600e60146101000a81548160ff02191690831515021790555050565b6114a0612490565b6000600160009054906101000a900473ffffffffffffffffffffffffffffffffffffffff1673ffffffffffffffffffffffffffffffffffffffff166370a08231306040518263ffffffff1660e01b81526004016114fd9190612907565b602060405180830381865afa15801561151a573d6000803e3d6000fd5b505050506040513d601f19601f8201168201806040525081019061153e9190612f84565b905082811015611583576040517f08c379a000000000000000000000000000000000000000000000000000000000815260040161157a9061345a565b60405180910390fd5b83600e60006101000a81548173ffffffffffffffffffffffffffffffffffffffff021916908373ffffffffffffffffffffffffffffffffffffffff160217905550600160009054906101000a900473ffffffffffffffffffffffffffffffffffffffff1673ffffffffffffffffffffffffffffffffffffffff1663095ea7b3600360009054906101000a900473ffffffffffffffffffffffffffffffffffffffff167fffffffffffffffffffffffffffffffffffffffffffffffffffffffffffffffff6040518363ffffffff1660e01b81526004016116639291906130eb565b6020604051808303816000875af1158015611682573d6000803e3d6000fd5b505050506040513d601f19601f820116820180604052508101906116a69190613129565b6116e5576040517f08c379a00000000000000000000000000000000000000000000000000000000081526004016116dc906134ec565b60405180910390fd5b600260009054906101000a900473ffffffffffffffffffffffffffffffffffffffff1673ffffffffffffffffffffffffffffffffffffffff16639ad42030600e60009054906101000a900473ffffffffffffffffffffffffffffffffffffffff16600660009054906101000a900473ffffffffffffffffffffffffffffffffffffffff1686866040518563ffffffff1660e01b815260040161178a949392919061357a565b600060405180830381600087803b1580156117a457600080fd5b505af11580156117b8573d6000803e3d6000fd5b50505050600260009054906101000a900473ffffffffffffffffffffffffffffffffffffffff1673ffffffffffffffffffffffffffffffffffffffff1663beb26755600e60009054906101000a900473ffffffffffffffffffffffffffffffffffffffff166040518263ffffffff1660e01b81526004016118399190612907565b602060405180830381865afa158015611856573d6000803e3d6000fd5b505050506040513d601f19601f8201168201806040525081019061187a9190612f84565b600d819055506001600e60146101000a81548160ff021916908315150217905550600e60009054906101000a900473ffffffffffffffffffffffffffffffffffffffff1673ffffffffffffffffffffffffffffffffffffffff167fb1e87a33084279cb2bff2d1271034cf695f539ee73bbd934d1625703d585d84a84600e60149054906101000a900460ff166040516119149291906135c6565b60405180910390a250505050565b600061192c612646565b905060008160000160089054906101000a900460ff1615905060008260000160009054906101000a900467ffffffffffffffff1690506000808267ffffffffffffffff1614801561197a5750825b9050600060018367ffffffffffffffff161480156119af575060003073ffffffffffffffffffffffffffffffffffffffff163b145b9050811580156119bd575080155b156119f4576040517ff92ee8a900000000000000000000000000000000000000000000000000000000815260040160405180910390fd5b60018560000160006101000a81548167ffffffffffffffff021916908367ffffffffffffffff1602179055508315611a445760018560000160086101000a81548160ff0219169083151502179055505b600073ffffffffffffffffffffffffffffffffffffffff168c73ffffffffffffffffffffffffffffffffffffffff1614158015611aae5750600073ffffffffffffffffffffffffffffffffffffffff168b73ffffffffffffffffffffffffffffffffffffffff1614155b8015611ae75750600073ffffffffffffffffffffffffffffffffffffffff168a73ffffffffffffffffffffffffffffffffffffffff1614155b8015611b205750600073ffffffffffffffffffffffffffffffffffffffff168773ffffffffffffffffffffffffffffffffffffffff1614155b8015611b595750600073ffffffffffffffffffffffffffffffffffffffff168673ffffffffffffffffffffffffffffffffffffffff1614155b611b98576040517f08c379a0000000000000000000000000000000000000000000000000000000008152600401611b8f9061363b565b60405180910390fd5b611ba13361266e565b8b600160006101000a81548173ffffffffffffffffffffffffffffffffffffffff021916908373ffffffffffffffffffffffffffffffffffffffff1602179055508a600260006101000a81548173ffffffffffffffffffffffffffffffffffffffff021916908373ffffffffffffffffffffffffffffffffffffffff160217905550600260009054906101000a900473ffffffffffffffffffffffffffffffffffffffff1673ffffffffffffffffffffffffffffffffffffffff1663e2fdcc176040518163ffffffff1660e01b8152600401602060405180830381865afa158015611c90573d6000803e3d6000fd5b505050506040513d601f19601f82011682018060405250810190611cb49190613699565b600360006101000a81548173ffffffffffffffffffffffffffffffffffffffff021916908373ffffffffffffffffffffffffffffffffffffffff1602179055508973ffffffffffffffffffffffffffffffffffffffff16633cb747bf6040518163ffffffff1660e01b8152600401602060405180830381865afa158015611d3f573d6000803e3d6000fd5b505050506040513d601f19601f82011682018060405250810190611d6391906130be565b600460006101000a81548173ffffffffffffffffffffffffffffffffffffffff021916908373ffffffffffffffffffffffffffffffffffffffff1602179055508860058190555087600c60006101000a81548163ffffffff021916908363ffffffff16021790555086600660006101000a81548173ffffffffffffffffffffffffffffffffffffffff021916908373ffffffffffffffffffffffffffffffffffffffff16021790555085600760006101000a81548173ffffffffffffffffffffffffffffffffffffffff021916908373ffffffffffffffffffffffffffffffffffffffff1602179055508315611ea95760008560000160086101000a81548160ff0219169083151502179055507fc7f505b2f371ae2175ee4913f4499e1f2633a7b5936321eed1cdaeb6115181d26001604051611ea09190613715565b60405180910390a15b505050505050505050505050565b600e60009054906101000a900473ffffffffffffffffffffffffffffffffffffffff1681565b600e60149054906101000a900460ff16611f2c576040517f08c379a0000000000000000000000000000000000000000000000000000000008152600401611f239061377c565b60405180910390fd5b6000600160009054906101000a900473ffffffffffffffffffffffffffffffffffffffff1673ffffffffffffffffffffffffffffffffffffffff166370a08231306040518263ffffffff1660e01b8152600401611f899190612907565b602060405180830381865afa158015611fa6573d6000803e3d6000fd5b505050506040513d601f19601f82011682018060405250810190611fca9190612f84565b9050611fd5816110f4565b612014576040517f08c379a000000000000000000000000000000000000000000000000000000000815260040161200b906137e8565b60405180910390fd5b60008111612057576040517f08c379a000000000000000000000000000000000000000000000000000000000815260040161204e90613854565b60405180910390fd5b600160009054906101000a900473ffffffffffffffffffffffffffffffffffffffff1673ffffffffffffffffffffffffffffffffffffffff1663095ea7b3600360009054906101000a900473ffffffffffffffffffffffffffffffffffffffff167fffffffffffffffffffffffffffffffffffffffffffffffffffffffffffffffff6040518363ffffffff1660e01b81526004016120f69291906130eb565b6020604051808303816000875af1158015612115573d6000803e3d6000fd5b505050506040513d601f19601f820116820180604052508101906121399190613129565b612178576040517f08c379a000000000000000000000000000000000000000000000000000000000815260040161216f906134ec565b60405180910390fd5b600260009054906101000a900473ffffffffffffffffffffffffffffffffffffffff1673ffffffffffffffffffffffffffffffffffffffff1663015bb180600d548360006040518463ffffffff1660e01b81526004016121da93929190613874565b600060405180830381600087803b1580156121f457600080fd5b505af1158015612208573d6000803e3d6000fd5b505050507f9952bdebae4c3a8e8e2629e1357843c6f46a034acd50416050ec4270b6568648600d548260405161223f929190613080565b60405180910390a150565b600c60049054906101000a900460ff1681565b60055481565b600160009054906101000a900473ffffffffffffffffffffffffffffffffffffffff1681565b600760009054906101000a900473ffffffffffffffffffffffffffffffffffffffff1681565b6122b7612490565b600073ffffffffffffffffffffffffffffffffffffffff168173ffffffffffffffffffffffffffffffffffffffff16036123295760006040517f1e4fbdf70000000000000000000000000000000000000000000000000000000081526004016123209190612907565b60405180910390fd5b61233281612547565b50565b600360009054906101000a900473ffffffffffffffffffffffffffffffffffffffff1681565b612363612490565b80600660006101000a81548173ffffffffffffffffffffffffffffffffffffffff021916908373ffffffffffffffffffffffffffffffffffffffff16021790555050565b6123af612490565b600260009054906101000a900473ffffffffffffffffffffffffffffffffffffffff1673ffffffffffffffffffffffffffffffffffffffff16638ddc74de34600d54600c60009054906101000a900463ffffffff166040518463ffffffff1660e01b8152600401612421929190613296565b6000604051808303818588803b15801561243a57600080fd5b505af115801561244e573d6000803e3d6000fd5b5050505050600d547f61417a1739db674e67c71f00c7c039166f48db4701532d99477003928043011260006040516124869190612881565b60405180910390a2565b612498612682565b73ffffffffffffffffffffffffffffffffffffffff166124b66112d7565b73ffffffffffffffffffffffffffffffffffffffff1614612515576124d9612682565b6040517f118cdaa700000000000000000000000000000000000000000000000000000000815260040161250c9190612907565b60405180910390fd5b565b6000806125226111ff565b9050806000015191505090565b60008061253a6111ff565b9050806020015191505090565b600061255161261e565b905060008160000160009054906101000a900473ffffffffffffffffffffffffffffffffffffffff169050828260000160006101000a81548173ffffffffffffffffffffffffffffffffffffffff021916908373ffffffffffffffffffffffffffffffffffffffff1602179055508273ffffffffffffffffffffffffffffffffffffffff168173ffffffffffffffffffffffffffffffffffffffff167f8be0079c531659141344cd1fd0a4f28419497f9722a3daafe3b4186f6b6457e060405160405180910390a3505050565b60007f9016d09d72d40fdae2fd8ceac6b6234c7706214fd39c1cd1e609a0528c199300905090565b60007ff0c57e16840df040f15088dc2f81fe391c3923bec73e23a9662efc9c229c6a00905090565b61267661268a565b61267f816126ca565b50565b600033905090565b612692612750565b6126c8576040517fd7e6bcf800000000000000000000000000000000000000000000000000000000815260040160405180910390fd5b565b6126d261268a565b600073ffffffffffffffffffffffffffffffffffffffff168173ffffffffffffffffffffffffffffffffffffffff16036127445760006040517f1e4fbdf700000000000000000000000000000000000000000000000000000000815260040161273b9190612907565b60405180910390fd5b61274d81612547565b50565b600061275a612646565b60000160089054906101000a900460ff16905090565b6040518061014001604052806000815260200160008152602001600081526020016000815260200160008152602001600081526020016000815260200160008152602001600073ffffffffffffffffffffffffffffffffffffffff168152602001600073ffffffffffffffffffffffffffffffffffffffff1681525090565b6000604051905090565b600080fd5b600080fd5b6000819050919050565b61281681612803565b811461282157600080fd5b50565b6000813590506128338161280d565b92915050565b60006020828403121561284f5761284e6127f9565b5b600061285d84828501612824565b91505092915050565b60008115159050919050565b61287b81612866565b82525050565b60006020820190506128966000830184612872565b92915050565b6128a581612803565b82525050565b60006020820190506128c0600083018461289c565b92915050565b600073ffffffffffffffffffffffffffffffffffffffff82169050919050565b60006128f1826128c6565b9050919050565b612901816128e6565b82525050565b600060208201905061291c60008301846128f8565b92915050565b600063ffffffff82169050919050565b61293b81612922565b82525050565b60006020820190506129566000830184612932565b92915050565b61296581612922565b811461297057600080fd5b50565b6000813590506129828161295c565b92915050565b60006020828403121561299e5761299d6127f9565b5b60006129ac84828501612973565b91505092915050565b6129be816128e6565b81146129c957600080fd5b50565b6000813590506129db816129b5565b92915050565b6000602082840312156129f7576129f66127f9565b5b6000612a05848285016129cc565b91505092915050565b6000819050919050565b6000612a33612a2e612a29846128c6565b612a0e565b6128c6565b9050919050565b6000612a4582612a18565b9050919050565b6000612a5782612a3a565b9050919050565b612a6781612a4c565b82525050565b6000602082019050612a826000830184612a5e565b92915050565b612a9181612803565b82525050565b612aa0816128e6565b82525050565b61014082016000820151612abd6000850182612a88565b506020820151612ad06020850182612a88565b506040820151612ae36040850182612a88565b506060820151612af66060850182612a88565b506080820151612b096080850182612a88565b5060a0820151612b1c60a0850182612a88565b5060c0820151612b2f60c0850182612a88565b5060e0820151612b4260e0850182612a88565b50610100820151612b57610100850182612a97565b50610120820151612b6c610120850182612a97565b50505050565b600061014082019050612b886000830184612aa6565b92915050565b6000612b9982612a3a565b9050919050565b612ba981612b8e565b82525050565b6000602082019050612bc46000830184612ba0565b92915050565b612bd381612866565b8114612bde57600080fd5b50565b600081359050612bf081612bca565b92915050565b600060208284031215612c0c57612c0b6127f9565b5b6000612c1a84828501612be1565b91505092915050565b600080fd5b600080fd5b6000601f19601f8301169050919050565b7f4e487b7100000000000000000000000000000000000000000000000000000000600052604160045260246000fd5b612c7682612c2d565b810181811067ffffffffffffffff82111715612c9557612c94612c3e565b5b80604052505050565b6000612ca86127ef565b9050612cb48282612c6d565b919050565b600067ffffffffffffffff821115612cd457612cd3612c3e565b5b612cdd82612c2d565b9050602081019050919050565b82818337600083830152505050565b6000612d0c612d0784612cb9565b612c9e565b905082815260208101848484011115612d2857612d27612c28565b5b612d33848285612cea565b509392505050565b600082601f830112612d5057612d4f612c23565b5b8135612d60848260208601612cf9565b91505092915050565b600080600060608486031215612d8257612d816127f9565b5b6000612d90868287016129cc565b9350506020612da186828701612824565b925050604084013567ffffffffffffffff811115612dc257612dc16127fe565b5b612dce86828701612d3b565b9150509250925092565b600080600080600080600060e0888a031215612df757612df66127f9565b5b6000612e058a828b016129cc565b9750506020612e168a828b016129cc565b9650506040612e278a828b016129cc565b9550506060612e388a828b01612824565b9450506080612e498a828b01612973565b93505060a0612e5a8a828b016129cc565b92505060c0612e6b8a828b016129cc565b91505092959891949750929550565b6000612e8582612a3a565b9050919050565b612e9581612e7a565b82525050565b6000602082019050612eb06000830184612e8c565b92915050565b6000612ec182612a3a565b9050919050565b612ed181612eb6565b82525050565b6000602082019050612eec6000830184612ec8565b92915050565b600082825260208201905092915050565b7f4465616c65723a20696e76616c696420616d6f756e7400000000000000000000600082015250565b6000612f39601683612ef2565b9150612f4482612f03565b602082019050919050565b60006020820190508181036000830152612f6881612f2c565b9050919050565b600081519050612f7e8161280d565b92915050565b600060208284031215612f9a57612f996127f9565b5b6000612fa884828501612f6f565b91505092915050565b7f4e487b7100000000000000000000000000000000000000000000000000000000600052601160045260246000fd5b6000612feb82612803565b9150612ff683612803565b925082820190508082111561300e5761300d612fb1565b5b92915050565b7f4465616c65723a20657863656564206d696e206c6f636b000000000000000000600082015250565b600061304a601783612ef2565b915061305582613014565b602082019050919050565b600060208201905081810360008301526130798161303d565b9050919050565b6000604082019050613095600083018561289c565b6130a2602083018461289c565b9392505050565b6000815190506130b8816129b5565b92915050565b6000602082840312156130d4576130d36127f9565b5b60006130e2848285016130a9565b91505092915050565b600060408201905061310060008301856128f8565b61310d602083018461289c565b9392505050565b60008151905061312381612bca565b92915050565b60006020828403121561313f5761313e6127f9565b5b600061314d84828501613114565b91505092915050565b600082825260208201905092915050565b50565b6000613177600083613156565b915061318282613167565b600082019050919050565b600060e0820190506131a2600083018961289c565b6131af60208301886128f8565b6131bc60408301876128f8565b6131c960608301866128f8565b6131d6608083018561289c565b6131e360a0830184612932565b81810360c08301526131f48161316a565b9050979650505050505050565b60006040820190506132166000830185612932565b6132236020830184612932565b9392505050565b7f4465616c65723a2020496e73756666696369656e742072657761726473000000600082015250565b6000613260601d83612ef2565b915061326b8261322a565b602082019050919050565b6000602082019050818103600083015261328f81613253565b9050919050565b60006040820190506132ab600083018561289c565b6132b86020830184612932565b9392505050565b600080fd5b600061014082840312156132db576132da6132bf565b5b6132e6610140612c9e565b905060006132f684828501612f6f565b600083015250602061330a84828501612f6f565b602083015250604061331e84828501612f6f565b604083015250606061333284828501612f6f565b606083015250608061334684828501612f6f565b60808301525060a061335a84828501612f6f565b60a08301525060c061336e84828501612f6f565b60c08301525060e061338284828501612f6f565b60e083015250610100613397848285016130a9565b610100830152506101206133ad848285016130a9565b6101208301525092915050565b600061014082840312156133d1576133d06127f9565b5b60006133df848285016132c4565b91505092915050565b7f4465616c65723a20496e73756666696369656e74204d657469732062616c616e60008201527f6365000000000000000000000000000000000000000000000000000000000000602082015250565b6000613444602283612ef2565b915061344f826133e8565b604082019050919050565b6000602082019050818103600083015261347381613437565b9050919050565b7f4465616c65723a20417070726f76616c20746f204c6f636b696e67496e666f2060008201527f6661696c65640000000000000000000000000000000000000000000000000000602082015250565b60006134d6602683612ef2565b91506134e18261347a565b604082019050919050565b60006020820190508181036000830152613505816134c9565b9050919050565b600081519050919050565b60005b8381101561353557808201518184015260208101905061351a565b60008484015250505050565b600061354c8261350c565b6135568185613156565b9350613566818560208601613517565b61356f81612c2d565b840191505092915050565b600060808201905061358f60008301876128f8565b61359c60208301866128f8565b6135a9604083018561289c565b81810360608301526135bb8184613541565b905095945050505050565b60006040820190506135db600083018561289c565b6135e86020830184612872565b9392505050565b7f4465616c65723a207a65726f2061646472657373000000000000000000000000600082015250565b6000613625601483612ef2565b9150613630826135ef565b602082019050919050565b6000602082019050818103600083015261365481613618565b9050919050565b6000613666826128e6565b9050919050565b6136768161365b565b811461368157600080fd5b50565b6000815190506136938161366d565b92915050565b6000602082840312156136af576136ae6127f9565b5b60006136bd84828501613684565b91505092915050565b6000819050919050565b600067ffffffffffffffff82169050919050565b60006136ff6136fa6136f5846136c6565b612a0e565b6136d0565b9050919050565b61370f816136e4565b82525050565b600060208201905061372a6000830184613706565b92915050565b7f4465616c65723a206e6f206163746976652073657175656e6365720000000000600082015250565b6000613766601b83612ef2565b915061377182613730565b602082019050919050565b6000602082019050818103600083015261379581613759565b9050919050565b7f4465616c65723a20657863656564206d6178206c6f636b000000000000000000600082015250565b60006137d2601783612ef2565b91506137dd8261379c565b602082019050919050565b60006020820190508181036000830152613801816137c5565b9050919050565b7f4465616c65723a20696e73756666696369656e742062616c616e636500000000600082015250565b600061383e601c83612ef2565b915061384982613808565b602082019050919050565b6000602082019050818103600083015261386d81613831565b9050919050565b6000606082019050613889600083018661289c565b613896602083018561289c565b6138a36040830184612872565b94935050505056fea264697066735822122046e1b4edafdcbc27d1f8a11a80ec31a47e362e29929753666d5c21735c4b506664736f6c63430008140033",
  "linkReferences": {},
  "deployedLinkReferences": {}
}